{"abi":[{"type":"constructor","inputs":[{"name":"router_","type":"address","internalType":"contract ISLAYRouterV2"}],"stateMutability":"nonpayable"},{"type":"function","name":"ROUTER","inputs":[],"outputs":[{"name":"","type":"address","internalType":"contract ISLAYRouterV2"}],"stateMutability":"view"},{"type":"function","name":"UPGRADE_INTERFACE_VERSION","inputs":[],"outputs":[{"name":"","type":"string","internalType":"string"}],"stateMutability":"view"},{"type":"function","name":"acceptOwnership","inputs":[],"outputs":[],"stateMutability":"nonpayable"},{"type":"function","name":"approveSlashingFor","inputs":[{"name":"service","type":"address","internalType":"address"}],"outputs":[],"stateMutability":"nonpayable"},{"type":"function","name":"defaultWithdrawalDelay","inputs":[],"outputs":[{"name":"","type":"uint32","internalType":"uint32"}],"stateMutability":"view"},{"type":"function","name":"deregisterOperatorFromService","inputs":[{"name":"operator","type":"address","internalType":"address"}],"outputs":[],"stateMutability":"nonpayable"},{"type":"function","name":"deregisterServiceFromOperator","inputs":[{"name":"service","type":"address","internalType":"address"}],"outputs":[],"stateMutability":"nonpayable"},{"type":"function","name":"disableSlashing","inputs":[],"outputs":[],"stateMutability":"nonpayable"},{"type":"function","name":"enableSlashing","inputs":[{"name":"parameter","type":"tuple","internalType":"struct ISLAYRegistryV2.SlashParameter","components":[{"name":"destination","type":"address","internalType":"address"},{"name":"maxMbips","type":"uint24","internalType":"uint24"},{"name":"resolutionWindow","type":"uint32","internalType":"uint32"}]}],"outputs":[],"stateMutability":"nonpayable"},{"type":"function","name":"getActiveOperatorCount","inputs":[{"name":"service","type":"address","internalType":"address"}],"outputs":[{"name":"","type":"uint256","internalType":"uint256"}],"stateMutability":"view"},{"type":"function","name":"getActiveServiceCount","inputs":[{"name":"operator","type":"address","internalType":"address"}],"outputs":[{"name":"","type":"uint256","internalType":"uint256"}],"stateMutability":"view"},{"type":"function","name":"getMaxActiveRelationshipsForOperator","inputs":[],"outputs":[{"name":"","type":"uint8","internalType":"uint8"}],"stateMutability":"view"},{"type":"function","name":"getMaxActiveRelationshipsForService","inputs":[],"outputs":[{"name":"","type":"uint8","internalType":"uint8"}],"stateMutability":"view"},{"type":"function","name":"getMinWithdrawalDelay","inputs":[{"name":"service","type":"address","internalType":"address"}],"outputs":[{"name":"","type":"uint32","internalType":"uint32"}],"stateMutability":"view"},{"type":"function","name":"getRelationshipStatus","inputs":[{"name":"service","type":"address","internalType":"address"},{"name":"operator","type":"address","internalType":"address"}],"outputs":[{"name":"","type":"uint8","internalType":"enum RelationshipV2.Status"}],"stateMutability":"view"},{"type":"function","name":"getRelationshipStatusAt","inputs":[{"name":"service","type":"address","internalType":"address"},{"name":"operator","type":"address","internalType":"address"},{"name":"timestamp","type":"uint32","internalType":"uint32"}],"outputs":[{"name":"","type":"uint8","internalType":"enum RelationshipV2.Status"}],"stateMutability":"view"},{"type":"function","name":"getSlashParameter","inputs":[{"name":"service","type":"address","internalType":"address"}],"outputs":[{"name":"","type":"tuple","internalType":"struct ISLAYRegistryV2.SlashParameter","components":[{"name":"destination","type":"address","internalType":"address"},{"name":"maxMbips","type":"uint24","internalType":"uint24"},{"name":"resolutionWindow","type":"uint32","internalType":"uint32"}]}],"stateMutability":"view"},{"type":"function","name":"getSlashParameterAt","inputs":[{"name":"service","type":"address","internalType":"address"},{"name":"operator","type":"address","internalType":"address"},{"name":"timestamp","type":"uint32","internalType":"uint32"}],"outputs":[{"name":"","type":"tuple","internalType":"struct ISLAYRegistryV2.SlashParameter","components":[{"name":"destination","type":"address","internalType":"address"},{"name":"maxMbips","type":"uint24","internalType":"uint24"},{"name":"resolutionWindow","type":"uint32","internalType":"uint32"}]}],"stateMutability":"view"},{"type":"function","name":"getWithdrawalDelay","inputs":[{"name":"operator","type":"address","internalType":"address"}],"outputs":[{"name":"","type":"uint32","internalType":"uint32"}],"stateMutability":"view"},{"type":"function","name":"initialize","inputs":[{"name":"initialOwner","type":"address","internalType":"address"}],"outputs":[],"stateMutability":"nonpayable"},{"type":"function","name":"initialize2","inputs":[],"outputs":[],"stateMutability":"nonpayable"},{"type":"function","name":"isOperator","inputs":[{"name":"account","type":"address","internalType":"address"}],"outputs":[{"name":"","type":"bool","internalType":"bool"}],"stateMutability":"view"},{"type":"function","name":"isService","inputs":[{"name":"account","type":"address","internalType":"address"}],"outputs":[{"name":"","type":"bool","internalType":"bool"}],"stateMutability":"view"},{"type":"function","name":"owner","inputs":[],"outputs":[{"name":"","type":"address","internalType":"address"}],"stateMutability":"view"},{"type":"function","name":"pause","inputs":[],"outputs":[],"stateMutability":"nonpayable"},{"type":"function","name":"paused","inputs":[],"outputs":[{"name":"","type":"bool","internalType":"bool"}],"stateMutability":"view"},{"type":"function","name":"pendingOwner","inputs":[],"outputs":[{"name":"","type":"address","internalType":"address"}],"stateMutability":"view"},{"type":"function","name":"proxiableUUID","inputs":[],"outputs":[{"name":"","type":"bytes32","internalType":"bytes32"}],"stateMutability":"view"},{"type":"function","name":"registerAsOperator","inputs":[{"name":"uri","type":"string","internalType":"string"},{"name":"name","type":"string","internalType":"string"}],"outputs":[],"stateMutability":"nonpayable"},{"type":"function","name":"registerAsService","inputs":[{"name":"uri","type":"string","internalType":"string"},{"name":"name","type":"string","internalType":"string"}],"outputs":[],"stateMutability":"nonpayable"},{"type":"function","name":"registerOperatorToService","inputs":[{"name":"operator","type":"address","internalType":"address"}],"outputs":[],"stateMutability":"nonpayable"},{"type":"function","name":"registerServiceToOperator","inputs":[{"name":"service","type":"address","internalType":"address"}],"outputs":[],"stateMutability":"nonpayable"},{"type":"function","name":"renounceOwnership","inputs":[],"outputs":[],"stateMutability":"nonpayable"},{"type":"function","name":"setDefaultWithdrawalDelay","inputs":[{"name":"delay","type":"uint32","internalType":"uint32"}],"outputs":[],"stateMutability":"nonpayable"},{"type":"function","name":"setMaxActiveRelationshipsForOperator","inputs":[{"name":"max","type":"uint8","internalType":"uint8"}],"outputs":[],"stateMutability":"nonpayable"},{"type":"function","name":"setMaxActiveRelationshipsForService","inputs":[{"name":"max","type":"uint8","internalType":"uint8"}],"outputs":[],"stateMutability":"nonpayable"},{"type":"function","name":"setMinWithdrawalDelay","inputs":[{"name":"delay","type":"uint32","internalType":"uint32"}],"outputs":[],"stateMutability":"nonpayable"},{"type":"function","name":"setWithdrawalDelay","inputs":[{"name":"delay","type":"uint32","internalType":"uint32"}],"outputs":[],"stateMutability":"nonpayable"},{"type":"function","name":"transferOwnership","inputs":[{"name":"newOwner","type":"address","internalType":"address"}],"outputs":[],"stateMutability":"nonpayable"},{"type":"function","name":"unpause","inputs":[],"outputs":[],"stateMutability":"nonpayable"},{"type":"function","name":"updateMetadata","inputs":[{"name":"uri","type":"string","internalType":"string"},{"name":"name","type":"string","internalType":"string"}],"outputs":[],"stateMutability":"nonpayable"},{"type":"function","name":"upgradeToAndCall","inputs":[{"name":"newImplementation","type":"address","internalType":"address"},{"name":"data","type":"bytes","internalType":"bytes"}],"outputs":[],"stateMutability":"payable"},{"type":"event","name":"DefaultWithdrawalDelayUpdated","inputs":[{"name":"oldDelay","type":"uint32","indexed":false,"internalType":"uint32"},{"name":"newDelay","type":"uint32","indexed":false,"internalType":"uint32"}],"anonymous":false},{"type":"event","name":"Initialized","inputs":[{"name":"version","type":"uint64","indexed":false,"internalType":"uint64"}],"anonymous":false},{"type":"event","name":"MaxActiveRelationshipsForOperatorUpdated","inputs":[{"name":"oldMaxActive","type":"uint8","indexed":false,"internalType":"uint8"},{"name":"maxActive","type":"uint8","indexed":false,"internalType":"uint8"}],"anonymous":false},{"type":"event","name":"MaxActiveRelationshipsForServiceUpdated","inputs":[{"name":"oldMaxActive","type":"uint8","indexed":false,"internalType":"uint8"},{"name":"maxActive","type":"uint8","indexed":false,"internalType":"uint8"}],"anonymous":false},{"type":"event","name":"MetadataUpdated","inputs":[{"name":"provider","type":"address","indexed":true,"internalType":"address"},{"name":"uri","type":"string","indexed":false,"internalType":"string"},{"name":"name","type":"string","indexed":false,"internalType":"string"}],"anonymous":false},{"type":"event","name":"MinWithdrawalDelayUpdated","inputs":[{"name":"service","type":"address","indexed":true,"internalType":"address"},{"name":"delay","type":"uint32","indexed":false,"internalType":"uint32"}],"anonymous":false},{"type":"event","name":"OperatorRegistered","inputs":[{"name":"operator","type":"address","indexed":true,"internalType":"address"}],"anonymous":false},{"type":"event","name":"OwnershipTransferStarted","inputs":[{"name":"previousOwner","type":"address","indexed":true,"internalType":"address"},{"name":"newOwner","type":"address","indexed":true,"internalType":"address"}],"anonymous":false},{"type":"event","name":"OwnershipTransferred","inputs":[{"name":"previousOwner","type":"address","indexed":true,"internalType":"address"},{"name":"newOwner","type":"address","indexed":true,"internalType":"address"}],"anonymous":false},{"type":"event","name":"Paused","inputs":[{"name":"account","type":"address","indexed":false,"internalType":"address"}],"anonymous":false},{"type":"event","name":"RelationshipUpdated","inputs":[{"name":"service","type":"address","indexed":true,"internalType":"address"},{"name":"operator","type":"address","indexed":true,"internalType":"address"},{"name":"status","type":"uint8","indexed":false,"internalType":"enum RelationshipV2.Status"},{"name":"slashParameterId","type":"uint32","indexed":false,"internalType":"uint32"}],"anonymous":false},{"type":"event","name":"ServiceRegistered","inputs":[{"name":"service","type":"address","indexed":true,"internalType":"address"}],"anonymous":false},{"type":"event","name":"SlashParameterUpdated","inputs":[{"name":"service","type":"address","indexed":true,"internalType":"address"},{"name":"destination","type":"address","indexed":false,"internalType":"address"},{"name":"maxMbips","type":"uint24","indexed":false,"internalType":"uint24"},{"name":"resolutionWindow","type":"uint32","indexed":false,"internalType":"uint32"}],"anonymous":false},{"type":"event","name":"Unpaused","inputs":[{"name":"account","type":"address","indexed":false,"internalType":"address"}],"anonymous":false},{"type":"event","name":"Upgraded","inputs":[{"name":"implementation","type":"address","indexed":true,"internalType":"address"}],"anonymous":false},{"type":"event","name":"WithdrawalDelayUpdated","inputs":[{"name":"operator","type":"address","indexed":true,"internalType":"address"},{"name":"delay","type":"uint32","indexed":false,"internalType":"uint32"}],"anonymous":false},{"type":"error","name":"AddressEmptyCode","inputs":[{"name":"target","type":"address","internalType":"address"}]},{"type":"error","name":"CheckpointUnorderedInsertion","inputs":[]},{"type":"error","name":"ERC1967InvalidImplementation","inputs":[{"name":"implementation","type":"address","internalType":"address"}]},{"type":"error","name":"ERC1967NonPayable","inputs":[]},{"type":"error","name":"EnforcedPause","inputs":[]},{"type":"error","name":"ExpectedPause","inputs":[]},{"type":"error","name":"FailedCall","inputs":[]},{"type":"error","name":"InvalidInitialization","inputs":[]},{"type":"error","name":"NotInitializing","inputs":[]},{"type":"error","name":"OperatorNotFound","inputs":[{"name":"account","type":"address","internalType":"address"}]},{"type":"error","name":"OperatorRelationshipsExceeded","inputs":[]},{"type":"error","name":"OwnableInvalidOwner","inputs":[{"name":"owner","type":"address","internalType":"address"}]},{"type":"error","name":"OwnableUnauthorizedAccount","inputs":[{"name":"account","type":"address","internalType":"address"}]},{"type":"error","name":"ServiceNotFound","inputs":[{"name":"account","type":"address","internalType":"address"}]},{"type":"error","name":"ServiceRelationshipsExceeded","inputs":[]},{"type":"error","name":"UUPSUnauthorizedCallContext","inputs":[]},{"type":"error","name":"UUPSUnsupportedProxiableUUID","inputs":[{"name":"slot","type":"bytes32","internalType":"bytes32"}]},{"type":"error","name":"WithdrawalDelayIncompatible","inputs":[{"name":"service","type":"address","internalType":"address"},{"name":"operator","type":"address","internalType":"address"},{"name":"withdrawalDelay","type":"uint32","internalType":"uint32"},{"name":"minWithdrawalDelay","type":"uint32","internalType":"uint32"}]}],"bytecode":{"object":"0x60c06040523073ffffffffffffffffffffffffffffffffffffffff1660809073ffffffffffffffffffffffffffffffffffffffff1681525034801562000043575f80fd5b506040516200666538038062006665833981810160405281019062000069919062000284565b62000079620000c460201b60201c565b8073ffffffffffffffffffffffffffffffffffffffff1660a08173ffffffffffffffffffffffffffffffffffffffff1681525050620000bd620000c460201b60201c565b50620002f3565b5f620000d5620001c860201b60201c565b9050805f0160089054906101000a900460ff161562000120576040517ff92ee8a900000000000000000000000000000000000000000000000000000000815260040160405180910390fd5b67ffffffffffffffff8016815f015f9054906101000a900467ffffffffffffffff1667ffffffffffffffff1614620001c55767ffffffffffffffff815f015f6101000a81548167ffffffffffffffff021916908367ffffffffffffffff1602179055507fc7f505b2f371ae2175ee4913f4499e1f2633a7b5936321eed1cdaeb6115181d267ffffffffffffffff604051620001bc9190620002d8565b60405180910390a15b50565b5f80620001da620001e360201b60201c565b90508091505090565b5f7ff0c57e16840df040f15088dc2f81fe391c3923bec73e23a9662efc9c229c6a005f1b905090565b5f80fd5b5f73ffffffffffffffffffffffffffffffffffffffff82169050919050565b5f6200023b8262000210565b9050919050565b5f6200024e826200022f565b9050919050565b620002608162000242565b81146200026b575f80fd5b50565b5f815190506200027e8162000255565b92915050565b5f602082840312156200029c576200029b6200020c565b5b5f620002ab848285016200026e565b91505092915050565b5f67ffffffffffffffff82169050919050565b620002d281620002b4565b82525050565b5f602082019050620002ed5f830184620002c7565b92915050565b60805160a051616342620003235f395f610c9801525f81816133ba0152818161340f01526135c901526163425ff3fe608060405260043610610250575f3560e01c80638e61af1211610138578063ca41e40c116100b5578063dcef440311610079578063dcef44031461083c578063ddcf017d14610864578063e30c39781461088e578063e9d8dbfd146108b8578063f2fde38b146108f4578063fd864e5e1461091c57610250565b8063ca41e40c1461075e578063d12a833c14610786578063d1b9d6e2146107ae578063d2cad271146107d8578063dcc4605c1461081457610250565b8063b1ad5743116100fc578063b1ad57431461065a578063b1e5082914610696578063bcac0a02146106d2578063be732721146106fa578063c4d66de81461073657610250565b80638e61af121461056857806397c459c4146105905780639e2d5ce8146105cc578063ab06f67e146105f4578063ad3cb1cc1461063057610250565b80635c975abb116101d157806379ba50971161019557806379ba5097146104ac57806381d18842146104c2578063832025f9146104ea5780638456cb5914610500578063891a081f146105165780638da5cb5b1461053e57610250565b80635c975abb146103cc578063621e0299146103f65780636d70f7ae14610432578063715018a61461046e5780637218c6a71461048457610250565b80634ad88989116102185780634ad889891461030e5780634f1ef2861461033657806352d1902d1461035257806356ce0e6c1461037c57806358715e3b146103a457610250565b80630793ae7b1461025457806332fe7b261461027c5780633f4ba83a146102a6578063472abf68146102bc57806348694118146102d2575b5f80fd5b34801561025f575f80fd5b5061027a60048036038101906102759190614a6e565b610946565b005b348015610287575f80fd5b50610290610c96565b60405161029d9190614b13565b60405180910390f35b3480156102b1575f80fd5b506102ba610cba565b005b3480156102c7575f80fd5b506102d0610ccc565b005b3480156102dd575f80fd5b506102f860048036038101906102f39190614b67565b610e67565b6040516103059190614c1c565b60405180910390f35b348015610319575f80fd5b50610334600480360381019061032f9190614c5f565b610fd9565b005b610350600480360381019061034b9190614dc6565b61128c565b005b34801561035d575f80fd5b506103666112ab565b6040516103739190614e38565b60405180910390f35b348015610387575f80fd5b506103a2600480360381019061039d9190614eae565b6112dc565b005b3480156103af575f80fd5b506103ca60048036038101906103c59190614c5f565b611427565b005b3480156103d7575f80fd5b506103e06116f3565b6040516103ed9190614f46565b60405180910390f35b348015610401575f80fd5b5061041c60048036038101906104179190614f5f565b611715565b6040516104299190615010565b60405180910390f35b34801561043d575f80fd5b5061045860048036038101906104539190614b67565b611730565b6040516104659190614f46565b60405180910390f35b348015610479575f80fd5b50610482611784565b005b34801561048f575f80fd5b506104aa60048036038101906104a59190614b67565b611797565b005b3480156104b7575f80fd5b506104c0611984565b005b3480156104cd575f80fd5b506104e860048036038101906104e3919061505f565b611a12565b005b3480156104f5575f80fd5b506104fe611b12565b005b34801561050b575f80fd5b50610514611c71565b005b348015610521575f80fd5b5061053c60048036038101906105379190614eae565b611c83565b005b348015610549575f80fd5b50610552611e13565b60405161055f9190615099565b60405180910390f35b348015610573575f80fd5b5061058e60048036038101906105899190614b67565b611e48565b005b34801561059b575f80fd5b506105b660048036038101906105b191906150b2565b612029565b6040516105c39190614c1c565b60405180910390f35b3480156105d7575f80fd5b506105f260048036038101906105ed919061505f565b61215d565b005b3480156105ff575f80fd5b5061061a60048036038101906106159190614b67565b61225d565b604051610627919061511a565b60405180910390f35b34801561063b575f80fd5b506106446122aa565b60405161065191906151ad565b60405180910390f35b348015610665575f80fd5b50610680600480360381019061067b91906150b2565b6122e3565b60405161068d9190615010565b60405180910390f35b3480156106a1575f80fd5b506106bc60048036038101906106b79190614b67565b612300565b6040516106c991906151dc565b60405180910390f35b3480156106dd575f80fd5b506106f860048036038101906106f39190614b67565b612358565b005b348015610705575f80fd5b50610720600480360381019061071b9190614b67565b6126ea565b60405161072d919061511a565b60405180910390f35b348015610741575f80fd5b5061075c60048036038101906107579190614b67565b612737565b005b348015610769575f80fd5b50610784600480360381019061077f9190614b67565b6128d0565b005b348015610791575f80fd5b506107ac60048036038101906107a79190614eae565b612c62565b005b3480156107b9575f80fd5b506107c2612dbe565b6040516107cf9190615204565b60405180910390f35b3480156107e3575f80fd5b506107fe60048036038101906107f99190614b67565b612dd4565b60405161080b91906151dc565b60405180910390f35b34801561081f575f80fd5b5061083a60048036038101906108359190614c5f565b612e2b565b005b348015610847575f80fd5b50610862600480360381019061085d9190614b67565b612ef1565b005b34801561086f575f80fd5b506108786130d2565b60405161088591906151dc565b60405180910390f35b348015610899575f80fd5b506108a26130e7565b6040516108af9190615099565b60405180910390f35b3480156108c3575f80fd5b506108de60048036038101906108d99190614b67565b61311c565b6040516108eb9190614f46565b60405180910390f35b3480156108ff575f80fd5b5061091a60048036038101906109159190614b67565b61316f565b005b348015610927575f80fd5b50610930613228565b60405161093d9190615204565b60405180910390f35b61094e61323e565b5f808273ffffffffffffffffffffffffffffffffffffffff1673ffffffffffffffffffffffffffffffffffffffff1681526020019081526020015f205f015f9054906101000a900460ff166109da57806040517fb53658070000000000000000000000000000000000000000000000000000000081526004016109d19190615099565b60405180910390fd5b6109e2613245565b5f73ffffffffffffffffffffffffffffffffffffffff16825f016020810190610a0b9190614b67565b73ffffffffffffffffffffffffffffffffffffffff1603610a61576040517f08c379a0000000000000000000000000000000000000000000000000000000008152600401610a5890615267565b60405180910390fd5b62989680826020016020810190610a7891906152af565b62ffffff161115610abe576040517f08c379a0000000000000000000000000000000000000000000000000000000008152600401610ab590615324565b60405180910390fd5b5f826020016020810190610ad291906152af565b62ffffff1611610b17576040517f08c379a0000000000000000000000000000000000000000000000000000000008152600401610b0e9061538c565b60405180910390fd5b5f600280549050905063ffffffff8016811115610b69576040517f08c379a0000000000000000000000000000000000000000000000000000000008152600401610b60906153f4565b60405180910390fd5b600283908060018154018082558091505060019003905f5260205f20015f909190919091508181610b9a9190615657565b50505f610ba561323e565b90505f805f8373ffffffffffffffffffffffffffffffffffffffff1673ffffffffffffffffffffffffffffffffffffffff1681526020019081526020015f20905082815f0160016101000a81548163ffffffff021916908363ffffffff1602179055508173ffffffffffffffffffffffffffffffffffffffff167ff83560c52fae7525e369b176773b2388c82c3538dea009c1c5fca741d5d613a0865f016020810190610c529190614b67565b876020016020810190610c6591906152af565b886040016020810190610c789190614c5f565b604051610c8793929190615674565b60405180910390a25050505050565b7f000000000000000000000000000000000000000000000000000000000000000081565b610cc2613286565b610cca61330d565b565b60025f610cd761337b565b9050805f0160089054906101000a900460ff1680610d1f57508167ffffffffffffffff16815f015f9054906101000a900467ffffffffffffffff1667ffffffffffffffff1610155b15610d56576040517ff92ee8a900000000000000000000000000000000000000000000000000000000815260040160405180910390fd5b81815f015f6101000a81548167ffffffffffffffff021916908367ffffffffffffffff1602179055506001815f0160086101000a81548160ff021916908315150217905550600260018160018154018082558091505003905f5260205f2050506005600660046101000a81548160ff021916908360ff1602179055506005600660056101000a81548160ff021916908360ff16021790555062093a8060065f6101000a81548163ffffffff021916908363ffffffff1602179055505f815f0160086101000a81548160ff0219169083151502179055507fc7f505b2f371ae2175ee4913f4499e1f2633a7b5936321eed1cdaeb6115181d282604051610e5b91906156cb565b60405180910390a15050565b610e6f6149cc565b5f805f8473ffffffffffffffffffffffffffffffffffffffff1673ffffffffffffffffffffffffffffffffffffffff1681526020019081526020015f205f0160019054906101000a900463ffffffff1690505f8163ffffffff1611610f09576040517f08c379a0000000000000000000000000000000000000000000000000000000008152600401610f009061572e565b60405180910390fd5b60028163ffffffff1681548110610f2357610f2261574c565b5b905f5260205f20016040518060600160405290815f82015f9054906101000a900473ffffffffffffffffffffffffffffffffffffffff1673ffffffffffffffffffffffffffffffffffffffff1673ffffffffffffffffffffffffffffffffffffffff1681526020015f820160149054906101000a900462ffffff1662ffffff1662ffffff1681526020015f820160179054906101000a900463ffffffff1663ffffffff1663ffffffff1681525050915050919050565b610fe1613245565b610fe961323e565b5f808273ffffffffffffffffffffffffffffffffffffffff1673ffffffffffffffffffffffffffffffffffffffff1681526020019081526020015f205f015f9054906101000a900460ff1661107557806040517fb536580700000000000000000000000000000000000000000000000000000000815260040161106c9190615099565b60405180910390fd5b5f8263ffffffff16116110bd576040517f08c379a00000000000000000000000000000000000000000000000000000000081526004016110b4906157c3565b60405180910390fd5b5f6110c661323e565b90505f60055f8373ffffffffffffffffffffffffffffffffffffffff1673ffffffffffffffffffffffffffffffffffffffff1681526020019081526020015f2090505f6111128261338e565b90505f5b818110156111d9578563ffffffff1660015f61113b84876133a190919063ffffffff16565b73ffffffffffffffffffffffffffffffffffffffff1673ffffffffffffffffffffffffffffffffffffffff1681526020019081526020015f205f0160019054906101000a900463ffffffff1663ffffffff1610156111ce576040517f08c379a00000000000000000000000000000000000000000000000000000000081526004016111c59061589d565b60405180910390fd5b806001019050611116565b50845f808573ffffffffffffffffffffffffffffffffffffffff1673ffffffffffffffffffffffffffffffffffffffff1681526020019081526020015f205f0160056101000a81548163ffffffff021916908363ffffffff1602179055508273ffffffffffffffffffffffffffffffffffffffff167f12cae11e6575143dc91be041916646a29e4e9af609b96be54454d8ca825b16448660405161127d91906151dc565b60405180910390a25050505050565b6112946133b8565b61129d8261349e565b6112a782826134a9565b5050565b5f6112b46135c7565b7f360894a13ba1a3210667c828492db98dca3e2076cc3735a920a3ca505d382bbc5f1b905090565b6112e4613245565b5f6112ed61323e565b90505f808273ffffffffffffffffffffffffffffffffffffffff1673ffffffffffffffffffffffffffffffffffffffff1681526020019081526020015f205f015f9054906101000a900460ff168061138d575060015f8273ffffffffffffffffffffffffffffffffffffffff1673ffffffffffffffffffffffffffffffffffffffff1681526020019081526020015f205f015f9054906101000a900460ff165b6113cc576040517f08c379a00000000000000000000000000000000000000000000000000000000081526004016113c390615905565b60405180910390fd5b8073ffffffffffffffffffffffffffffffffffffffff167f6c1850fce35387a891e82ca88e975790ab6f0709e9ed6842e01397f296012a7e86868686604051611418949392919061594f565b60405180910390a25050505050565b61142f613245565b61143761323e565b60015f8273ffffffffffffffffffffffffffffffffffffffff1673ffffffffffffffffffffffffffffffffffffffff1681526020019081526020015f205f015f9054906101000a900460ff166114c457806040517fa3a66a170000000000000000000000000000000000000000000000000000000081526004016114bb9190615099565b60405180910390fd5b60065f9054906101000a900463ffffffff1663ffffffff168263ffffffff161015611524576040517f08c379a000000000000000000000000000000000000000000000000000000000815260040161151b90615a1e565b60405180910390fd5b5f61152d61323e565b90505f60045f8373ffffffffffffffffffffffffffffffffffffffff1673ffffffffffffffffffffffffffffffffffffffff1681526020019081526020015f2090505f6115798261338e565b90505f5b8181101561163f578563ffffffff165f806115a184876133a190919063ffffffff16565b73ffffffffffffffffffffffffffffffffffffffff1673ffffffffffffffffffffffffffffffffffffffff1681526020019081526020015f205f0160059054906101000a900463ffffffff1663ffffffff161115611634576040517f08c379a000000000000000000000000000000000000000000000000000000000815260040161162b90615af8565b60405180910390fd5b80600101905061157d565b508460015f8573ffffffffffffffffffffffffffffffffffffffff1673ffffffffffffffffffffffffffffffffffffffff1681526020019081526020015f205f0160016101000a81548163ffffffff021916908363ffffffff1602179055508273ffffffffffffffffffffffffffffffffffffffff167f8accf516e9dcf834aa25a580b9beb0b2444e5a35b3162fc21cfd49565bed0a4a866040516116e491906151dc565b60405180910390a25050505050565b5f806116fd61364e565b9050805f015f9054906101000a900460ff1691505090565b5f806117218484613675565b9050805f015191505092915050565b5f60015f8373ffffffffffffffffffffffffffffffffffffffff1673ffffffffffffffffffffffffffffffffffffffff1681526020019081526020015f205f015f9054906101000a900460ff169050919050565b61178c613286565b6117955f6136ac565b565b61179f61323e565b60015f8273ffffffffffffffffffffffffffffffffffffffff1673ffffffffffffffffffffffffffffffffffffffff1681526020019081526020015f205f015f9054906101000a900460ff1661182c57806040517fa3a66a170000000000000000000000000000000000000000000000000000000081526004016118239190615099565b60405180910390fd5b611834613245565b5f61183d61323e565b90505f61184a8483613675565b9050600160038111156118605761185f614f9d565b5b815f0151600381111561187657611875614f9d565b5b146118b6576040517f08c379a00000000000000000000000000000000000000000000000000000000081526004016118ad90615b60565b60405180910390fd5b5f805f8673ffffffffffffffffffffffffffffffffffffffff1673ffffffffffffffffffffffffffffffffffffffff1681526020019081526020015f205f0160019054906101000a900463ffffffff169050816020015163ffffffff168163ffffffff160361195a576040517f08c379a000000000000000000000000000000000000000000000000000000000815260040161195190615bc8565b60405180910390fd5b80826020019063ffffffff16908163ffffffff168152505061197d8584846136e9565b5050505050565b5f61198d61323e565b90508073ffffffffffffffffffffffffffffffffffffffff166119ae6130e7565b73ffffffffffffffffffffffffffffffffffffffff1614611a0657806040517f118cdaa70000000000000000000000000000000000000000000000000000000081526004016119fd9190615099565b60405180910390fd5b611a0f816136ac565b50565b611a1a613286565b5f8160ff1611611a5f576040517f08c379a0000000000000000000000000000000000000000000000000000000008152600401611a5690615c56565b60405180910390fd5b5f600660049054906101000a900460ff1690508060ff168260ff1611611aba576040517f08c379a0000000000000000000000000000000000000000000000000000000008152600401611ab190615ce4565b60405180910390fd5b81600660046101000a81548160ff021916908360ff1602179055507f9970a620521c7aa30265e01b9d490c9e9802074a8b9015fed1af3665bbc083aa8183604051611b06929190615d02565b60405180910390a15050565b611b1a61323e565b5f808273ffffffffffffffffffffffffffffffffffffffff1673ffffffffffffffffffffffffffffffffffffffff1681526020019081526020015f205f015f9054906101000a900460ff16611ba657806040517fb5365807000000000000000000000000000000000000000000000000000000008152600401611b9d9190615099565b60405180910390fd5b611bae613245565b5f611bb761323e565b90505f805f8373ffffffffffffffffffffffffffffffffffffffff1673ffffffffffffffffffffffffffffffffffffffff1681526020019081526020015f2090505f815f0160016101000a81548163ffffffff021916908363ffffffff1602179055508173ffffffffffffffffffffffffffffffffffffffff167ff83560c52fae7525e369b176773b2388c82c3538dea009c1c5fca741d5d613a05f805f604051611c6493929190615d92565b60405180910390a2505050565b611c79613286565b611c81613a4f565b565b611c8b613245565b5f611c9461323e565b90505f60015f8373ffffffffffffffffffffffffffffffffffffffff1673ffffffffffffffffffffffffffffffffffffffff1681526020019081526020015f209050805f015f9054906101000a900460ff1615611d26576040517f08c379a0000000000000000000000000000000000000000000000000000000008152600401611d1d90615e11565b60405180910390fd5b6001815f015f6101000a81548160ff02191690831515021790555060065f9054906101000a900463ffffffff16815f0160016101000a81548163ffffffff021916908363ffffffff1602179055508173ffffffffffffffffffffffffffffffffffffffff167f4d0eb1f4bac8744fd2be119845e23b3befc88094b42bcda1204c65694a00f9e560405160405180910390a28173ffffffffffffffffffffffffffffffffffffffff167f6c1850fce35387a891e82ca88e975790ab6f0709e9ed6842e01397f296012a7e87878787604051611e03949392919061594f565b60405180910390a2505050505050565b5f80611e1d613abe565b9050805f015f9054906101000a900473ffffffffffffffffffffffffffffffffffffffff1691505090565b611e5061323e565b5f808273ffffffffffffffffffffffffffffffffffffffff1673ffffffffffffffffffffffffffffffffffffffff1681526020019081526020015f205f015f9054906101000a900460ff16611edc57806040517fb5365807000000000000000000000000000000000000000000000000000000008152600401611ed39190615099565b60405180910390fd5b8160015f8273ffffffffffffffffffffffffffffffffffffffff1673ffffffffffffffffffffffffffffffffffffffff1681526020019081526020015f205f015f9054906101000a900460ff16611f6a57806040517fa3a66a17000000000000000000000000000000000000000000000000000000008152600401611f619190615099565b60405180910390fd5b5f611f7361323e565b90505f611f808286613675565b90505f6003811115611f9557611f94614f9d565b5b815f01516003811115611fab57611faa614f9d565b5b03611feb576040517f08c379a0000000000000000000000000000000000000000000000000000000008152600401611fe290615e79565b60405180910390fd5b612022828660405180604001604052805f600381111561200e5761200d614f9d565b5b81526020015f63ffffffff168152506136e9565b5050505050565b6120316149cc565b5f61203d858585613ae5565b6020015190505f8163ffffffff161161208b576040517f08c379a00000000000000000000000000000000000000000000000000000000081526004016120829061572e565b60405180910390fd5b60028163ffffffff16815481106120a5576120a461574c565b5b905f5260205f20016040518060600160405290815f82015f9054906101000a900473ffffffffffffffffffffffffffffffffffffffff1673ffffffffffffffffffffffffffffffffffffffff1673ffffffffffffffffffffffffffffffffffffffff1681526020015f820160149054906101000a900462ffffff1662ffffff1662ffffff1681526020015f820160179054906101000a900463ffffffff1663ffffffff1663ffffffff16815250509150509392505050565b612165613286565b5f8160ff16116121aa576040517f08c379a00000000000000000000000000000000000000000000000000000000081526004016121a190615c56565b60405180910390fd5b5f600660059054906101000a900460ff1690508060ff168260ff1611612205576040517f08c379a00000000000000000000000000000000000000000000000000000000081526004016121fc90615ce4565b60405180910390fd5b81600660056101000a81548160ff021916908360ff1602179055507f4e2399155205fd27a6de74fcaa614db3a3bc3edaf989234fb34032f0920f39cd8183604051612251929190615d02565b60405180910390a15050565b5f6122a360055f8473ffffffffffffffffffffffffffffffffffffffff1673ffffffffffffffffffffffffffffffffffffffff1681526020019081526020015f2061338e565b9050919050565b6040518060400160405280600581526020017f352e302e3000000000000000000000000000000000000000000000000000000081525081565b5f806122f0858585613ae5565b9050805f01519150509392505050565b5f60015f8373ffffffffffffffffffffffffffffffffffffffff1673ffffffffffffffffffffffffffffffffffffffff1681526020019081526020015f205f0160019054906101000a900463ffffffff169050919050565b61236061323e565b5f808273ffffffffffffffffffffffffffffffffffffffff1673ffffffffffffffffffffffffffffffffffffffff1681526020019081526020015f205f015f9054906101000a900460ff166123ec57806040517fb53658070000000000000000000000000000000000000000000000000000000081526004016123e39190615099565b60405180910390fd5b8160015f8273ffffffffffffffffffffffffffffffffffffffff1673ffffffffffffffffffffffffffffffffffffffff1681526020019081526020015f205f015f9054906101000a900460ff1661247a57806040517fa3a66a170000000000000000000000000000000000000000000000000000000081526004016124719190615099565b60405180910390fd5b5f61248361323e565b90505f6124908286613675565b9050600160038111156124a6576124a5614f9d565b5b815f015160038111156124bc576124bb614f9d565b5b036124fc576040517f08c379a00000000000000000000000000000000000000000000000000000000081526004016124f390615ee1565b60405180910390fd5b60038081111561250f5761250e614f9d565b5b815f0151600381111561252557612524614f9d565b5b03612565576040517f08c379a000000000000000000000000000000000000000000000000000000000815260040161255c90615f49565b60405180910390fd5b5f600381111561257857612577614f9d565b5b815f0151600381111561258e5761258d614f9d565b5b036125c8576003815f019060038111156125ab576125aa614f9d565b5b908160038111156125bf576125be614f9d565b5b815250506126d8565b600260038111156125dc576125db614f9d565b5b815f015160038111156125f2576125f1614f9d565b5b0361269c576001815f0190600381111561260f5761260e614f9d565b5b9081600381111561262357612622614f9d565b5b815250505f808373ffffffffffffffffffffffffffffffffffffffff1673ffffffffffffffffffffffffffffffffffffffff1681526020019081526020015f205f0160019054906101000a900463ffffffff16816020019063ffffffff16908163ffffffff16815250506126978286613b1e565b6126d7565b6040517f08c379a00000000000000000000000000000000000000000000000000000000081526004016126ce90615fb1565b60405180910390fd5b5b6126e38286836136e9565b5050505050565b5f61273060045f8473ffffffffffffffffffffffffffffffffffffffff1673ffffffffffffffffffffffffffffffffffffffff1681526020019081526020015f2061338e565b9050919050565b5f61274061337b565b90505f815f0160089054906101000a900460ff161590505f825f015f9054906101000a900467ffffffffffffffff1690505f808267ffffffffffffffff161480156127885750825b90505f60018367ffffffffffffffff161480156127bb57505f3073ffffffffffffffffffffffffffffffffffffffff163b145b9050811580156127c9575080155b15612800576040517ff92ee8a900000000000000000000000000000000000000000000000000000000815260040160405180910390fd5b6001855f015f6101000a81548167ffffffffffffffff021916908367ffffffffffffffff160217905550831561284d576001855f0160086101000a81548160ff0219169083151502179055505b61285686613c20565b61285e613c34565b612866613c3e565b61286e613c48565b83156128c8575f855f0160086101000a81548160ff0219169083151502179055507fc7f505b2f371ae2175ee4913f4499e1f2633a7b5936321eed1cdaeb6115181d260016040516128bf9190616008565b60405180910390a15b505050505050565b6128d861323e565b60015f8273ffffffffffffffffffffffffffffffffffffffff1673ffffffffffffffffffffffffffffffffffffffff1681526020019081526020015f205f015f9054906101000a900460ff1661296557806040517fa3a66a1700000000000000000000000000000000000000000000000000000000815260040161295c9190615099565b60405180910390fd5b815f808273ffffffffffffffffffffffffffffffffffffffff1673ffffffffffffffffffffffffffffffffffffffff1681526020019081526020015f205f015f9054906101000a900460ff166129f257806040517fb53658070000000000000000000000000000000000000000000000000000000081526004016129e99190615099565b60405180910390fd5b5f6129fb61323e565b90505f612a088583613675565b905060016003811115612a1e57612a1d614f9d565b5b815f01516003811115612a3457612a33614f9d565b5b03612a74576040517f08c379a0000000000000000000000000000000000000000000000000000000008152600401612a6b90615ee1565b60405180910390fd5b60026003811115612a8857612a87614f9d565b5b815f01516003811115612a9e57612a9d614f9d565b5b03612ade576040517f08c379a0000000000000000000000000000000000000000000000000000000008152600401612ad590615f49565b60405180910390fd5b5f6003811115612af157612af0614f9d565b5b815f01516003811115612b0757612b06614f9d565b5b03612b41576002815f01906003811115612b2457612b23614f9d565b5b90816003811115612b3857612b37614f9d565b5b81525050612c50565b600380811115612b5457612b53614f9d565b5b815f01516003811115612b6a57612b69614f9d565b5b03612c14576001815f01906003811115612b8757612b86614f9d565b5b90816003811115612b9b57612b9a614f9d565b5b815250505f808673ffffffffffffffffffffffffffffffffffffffff1673ffffffffffffffffffffffffffffffffffffffff1681526020019081526020015f205f0160019054906101000a900463ffffffff16816020019063ffffffff16908163ffffffff1681525050612c0f8583613b1e565b612c4f565b6040517f08c379a0000000000000000000000000000000000000000000000000000000008152600401612c4690615fb1565b60405180910390fd5b5b612c5b8583836136e9565b5050505050565b612c6a613245565b5f612c7361323e565b90505f805f8373ffffffffffffffffffffffffffffffffffffffff1673ffffffffffffffffffffffffffffffffffffffff1681526020019081526020015f209050805f015f9054906101000a900460ff1615612d04576040517f08c379a0000000000000000000000000000000000000000000000000000000008152600401612cfb90615e11565b60405180910390fd5b6001815f015f6101000a81548160ff0219169083151502179055508173ffffffffffffffffffffffffffffffffffffffff167f2fa31fbaacf5eaf61d648ea7528ada6efb69bfb06d2c3bd35ce511a820fce53e60405160405180910390a28173ffffffffffffffffffffffffffffffffffffffff167f6c1850fce35387a891e82ca88e975790ab6f0709e9ed6842e01397f296012a7e87878787604051612dae949392919061594f565b60405180910390a2505050505050565b5f600660049054906101000a900460ff16905090565b5f805f8373ffffffffffffffffffffffffffffffffffffffff1673ffffffffffffffffffffffffffffffffffffffff1681526020019081526020015f205f0160059054906101000a900463ffffffff169050919050565b612e33613286565b620151808163ffffffff161015612e7f576040517f08c379a0000000000000000000000000000000000000000000000000000000008152600401612e7690616091565b60405180910390fd5b5f60065f9054906101000a900463ffffffff1690508160065f6101000a81548163ffffffff021916908363ffffffff1602179055507f7d96978277a4acf1fa8af376bc53af1059e1b5e52b97732645e8bf570bd852fd8183604051612ee59291906160af565b60405180910390a15050565b612ef961323e565b60015f8273ffffffffffffffffffffffffffffffffffffffff1673ffffffffffffffffffffffffffffffffffffffff1681526020019081526020015f205f015f9054906101000a900460ff16612f8657806040517fa3a66a17000000000000000000000000000000000000000000000000000000008152600401612f7d9190615099565b60405180910390fd5b815f808273ffffffffffffffffffffffffffffffffffffffff1673ffffffffffffffffffffffffffffffffffffffff1681526020019081526020015f205f015f9054906101000a900460ff1661301357806040517fb536580700000000000000000000000000000000000000000000000000000000815260040161300a9190615099565b60405180910390fd5b5f61301c61323e565b90505f6130298583613675565b90505f600381111561303e5761303d614f9d565b5b815f0151600381111561305457613053614f9d565b5b03613094576040517f08c379a000000000000000000000000000000000000000000000000000000000815260040161308b90615e79565b60405180910390fd5b6130cb858360405180604001604052805f60038111156130b7576130b6614f9d565b5b81526020015f63ffffffff168152506136e9565b5050505050565b60065f9054906101000a900463ffffffff1681565b5f806130f1613c52565b9050805f015f9054906101000a900473ffffffffffffffffffffffffffffffffffffffff1691505090565b5f805f8373ffffffffffffffffffffffffffffffffffffffff1673ffffffffffffffffffffffffffffffffffffffff1681526020019081526020015f205f015f9054906101000a900460ff169050919050565b613177613286565b5f613180613c52565b905081815f015f6101000a81548173ffffffffffffffffffffffffffffffffffffffff021916908373ffffffffffffffffffffffffffffffffffffffff1602179055508173ffffffffffffffffffffffffffffffffffffffff166131e2611e13565b73ffffffffffffffffffffffffffffffffffffffff167f38d16b8cac22d99fc7c124b9cd0de2d3fa1faef420bfe791d8c362d765e2270060405160405180910390a35050565b5f600660059054906101000a900460ff16905090565b5f33905090565b61324d6116f3565b15613284576040517fd93c066500000000000000000000000000000000000000000000000000000000815260040160405180910390fd5b565b61328e61323e565b73ffffffffffffffffffffffffffffffffffffffff166132ac611e13565b73ffffffffffffffffffffffffffffffffffffffff161461330b576132cf61323e565b6040517f118cdaa70000000000000000000000000000000000000000000000000000000081526004016133029190615099565b60405180910390fd5b565b613315613c79565b5f61331e61364e565b90505f815f015f6101000a81548160ff0219169083151502179055507f5db9ee0a495bf2e6ff9c91a7834c1ba4fdd244a5e8aa4e537bd38aeae4b073aa61336361323e565b6040516133709190615099565b60405180910390a150565b5f80613385613cb9565b90508091505090565b5f61339a825f01613ce2565b9050919050565b5f6133ae835f0183613cf1565b5f1c905092915050565b7f000000000000000000000000000000000000000000000000000000000000000073ffffffffffffffffffffffffffffffffffffffff163073ffffffffffffffffffffffffffffffffffffffff16148061346557507f000000000000000000000000000000000000000000000000000000000000000073ffffffffffffffffffffffffffffffffffffffff1661344c613d18565b73ffffffffffffffffffffffffffffffffffffffff1614155b1561349c576040517fe07c8dba00000000000000000000000000000000000000000000000000000000815260040160405180910390fd5b565b6134a6613286565b50565b8173ffffffffffffffffffffffffffffffffffffffff166352d1902d6040518163ffffffff1660e01b8152600401602060405180830381865afa92505050801561351157506040513d601f19601f8201168201806040525081019061350e9190616100565b60015b61355257816040517f4c9c8ce30000000000000000000000000000000000000000000000000000000081526004016135499190615099565b60405180910390fd5b7f360894a13ba1a3210667c828492db98dca3e2076cc3735a920a3ca505d382bbc5f1b81146135b857806040517faa1d49a40000000000000000000000000000000000000000000000000000000081526004016135af9190614e38565b60405180910390fd5b6135c28383613d6b565b505050565b7f000000000000000000000000000000000000000000000000000000000000000073ffffffffffffffffffffffffffffffffffffffff163073ffffffffffffffffffffffffffffffffffffffff161461364c576040517fe07c8dba00000000000000000000000000000000000000000000000000000000815260040160405180910390fd5b565b5f7fcd5ed15c6e187e77e9aee88184c21f4f2182ab5827cb3b7e07fbedcd63f03300905090565b61367d614a0b565b5f6136888484613ddd565b90506136a360035f8381526020019081526020015f20613df7565b91505092915050565b5f6136b5613c52565b9050805f015f6101000a81549073ffffffffffffffffffffffffffffffffffffffff02191690556136e582613e1c565b5050565b6136f1613245565b5f6136fc8484613ddd565b905061371960035f8381526020019081526020015f204284613eed565b6001600381111561372d5761372c614f9d565b5b825f0151600381111561374357613742614f9d565b5b0361390b57600660059054906101000a900460ff1660ff166137a060045f8673ffffffffffffffffffffffffffffffffffffffff1673ffffffffffffffffffffffffffffffffffffffff1681526020019081526020015f2061338e565b106137d7576040517fbd9b74ad00000000000000000000000000000000000000000000000000000000815260040160405180910390fd5b600660049054906101000a900460ff1660ff1661382f60055f8773ffffffffffffffffffffffffffffffffffffffff1673ffffffffffffffffffffffffffffffffffffffff1681526020019081526020015f2061338e565b10613866576040517fba11b6e700000000000000000000000000000000000000000000000000000000815260040160405180910390fd5b6138b58460045f8673ffffffffffffffffffffffffffffffffffffffff1673ffffffffffffffffffffffffffffffffffffffff1681526020019081526020015f20613f1490919063ffffffff16565b506139058360055f8773ffffffffffffffffffffffffffffffffffffffff1673ffffffffffffffffffffffffffffffffffffffff1681526020019081526020015f20613f1490919063ffffffff16565b506139db565b5f600381111561391e5761391d614f9d565b5b825f0151600381111561393457613933614f9d565b5b036139da576139888460045f8673ffffffffffffffffffffffffffffffffffffffff1673ffffffffffffffffffffffffffffffffffffffff1681526020019081526020015f20613f4190919063ffffffff16565b506139d88360055f8773ffffffffffffffffffffffffffffffffffffffff1673ffffffffffffffffffffffffffffffffffffffff1681526020019081526020015f20613f4190919063ffffffff16565b505b5b8273ffffffffffffffffffffffffffffffffffffffff168473ffffffffffffffffffffffffffffffffffffffff167f21765f04287d7845df78e83515630836500dd5e89d866d34751b5177a96da4c6845f01518560200151604051613a4192919061612b565b60405180910390a350505050565b613a57613245565b5f613a6061364e565b90506001815f015f6101000a81548160ff0219169083151502179055507f62e78cea01bee320cd4e420270b5ea74000d11b0c9f74754ebdbfc544b05a258613aa661323e565b604051613ab39190615099565b60405180910390a150565b5f7f9016d09d72d40fdae2fd8ceac6b6234c7706214fd39c1cd1e609a0528c199300905090565b613aed614a0b565b5f613af88585613ddd565b9050613b1460035f8381526020019081526020015f2084613f6e565b9150509392505050565b5f60015f8373ffffffffffffffffffffffffffffffffffffffff1673ffffffffffffffffffffffffffffffffffffffff1681526020019081526020015f205f0160019054906101000a900463ffffffff1690505f805f8573ffffffffffffffffffffffffffffffffffffffff1673ffffffffffffffffffffffffffffffffffffffff1681526020019081526020015f205f0160059054906101000a900463ffffffff1690508063ffffffff168263ffffffff161015613c1a57838383836040517f650a1a91000000000000000000000000000000000000000000000000000000008152600401613c119493929190616152565b60405180910390fd5b50505050565b613c28613f95565b613c3181613fd5565b50565b613c3c613f95565b565b613c46613f95565b565b613c50613f95565b565b5f7f237e158222e3e6968b72b9db0d8043aacf074ad9f650f0d1606b4d82ee432c00905090565b613c816116f3565b613cb7576040517f8dfc202b00000000000000000000000000000000000000000000000000000000815260040160405180910390fd5b565b5f7ff0c57e16840df040f15088dc2f81fe391c3923bec73e23a9662efc9c229c6a005f1b905090565b5f815f01805490509050919050565b5f825f018281548110613d0757613d0661574c565b5b905f5260205f200154905092915050565b5f613d447f360894a13ba1a3210667c828492db98dca3e2076cc3735a920a3ca505d382bbc5f1b614059565b5f015f9054906101000a900473ffffffffffffffffffffffffffffffffffffffff16905090565b613d7482614062565b8173ffffffffffffffffffffffffffffffffffffffff167fbc7cd75a20ee27fd9adebab32041f755214dbc6bffa90cc0225b39da2e5c2d3b60405160405180910390a25f81511115613dd057613dca828261412b565b50613dd9565b613dd86141ab565b5b5050565b5f8260601b5f528160601b60145260285f20905092915050565b613dff614a0b565b5f613e09836141e7565b9050613e148161424b565b915050919050565b5f613e25613abe565b90505f815f015f9054906101000a900473ffffffffffffffffffffffffffffffffffffffff16905082825f015f6101000a81548173ffffffffffffffffffffffffffffffffffffffff021916908373ffffffffffffffffffffffffffffffffffffffff1602179055508273ffffffffffffffffffffffffffffffffffffffff168173ffffffffffffffffffffffffffffffffffffffff167f8be0079c531659141344cd1fd0a4f28419497f9722a3daafe3b4186f6b6457e060405160405180910390a3505050565b5f613eff825f015183602001516142e2565b9050613f0c848483614333565b505050505050565b5f613f39835f018373ffffffffffffffffffffffffffffffffffffffff165f1b61434e565b905092915050565b5f613f66835f018373ffffffffffffffffffffffffffffffffffffffff165f1b6143b5565b905092915050565b613f76614a0b565b5f613f8184846144b1565b9050613f8c8161424b565b91505092915050565b613f9d614528565b613fd3576040517fd7e6bcf800000000000000000000000000000000000000000000000000000000815260040160405180910390fd5b565b613fdd613f95565b5f73ffffffffffffffffffffffffffffffffffffffff168173ffffffffffffffffffffffffffffffffffffffff160361404d575f6040517f1e4fbdf70000000000000000000000000000000000000000000000000000000081526004016140449190615099565b60405180910390fd5b614056816136ac565b50565b5f819050919050565b5f8173ffffffffffffffffffffffffffffffffffffffff163b036140bd57806040517f4c9c8ce30000000000000000000000000000000000000000000000000000000081526004016140b49190615099565b60405180910390fd5b806140e97f360894a13ba1a3210667c828492db98dca3e2076cc3735a920a3ca505d382bbc5f1b614059565b5f015f6101000a81548173ffffffffffffffffffffffffffffffffffffffff021916908373ffffffffffffffffffffffffffffffffffffffff16021790555050565b60605f808473ffffffffffffffffffffffffffffffffffffffff168460405161415491906161d9565b5f60405180830381855af49150503d805f811461418c576040519150601f19603f3d011682016040523d82523d5f602084013e614191565b606091505b50915091506141a1858383614546565b9250505092915050565b5f3411156141e5576040517fb398979f00000000000000000000000000000000000000000000000000000000815260040160405180910390fd5b565b5f80825f018054905090505f811461424157614211835f0160018361420c919061621c565b6145d3565b5f0160049054906101000a90047bffffffffffffffffffffffffffffffffffffffffffffffffffffffff16614243565b5f5b915050919050565b614253614a0b565b61425b614a0b565b8260ff16600381111561427157614270614f9d565b5b815f0190600381111561428757614286614f9d565b5b9081600381111561429b5761429a614f9d565b5b815250506008837bffffffffffffffffffffffffffffffffffffffffffffffffffffffff16901c816020019063ffffffff16908163ffffffff168152505080915050919050565b5f808360038111156142f7576142f6614f9d565b5b60ff16905060088363ffffffff167bffffffffffffffffffffffffffffffffffffffffffffffffffffffff16901b811790508091505092915050565b5f80614342855f0185856145e5565b91509150935093915050565b5f61435983836148d5565b6143ab57825f0182908060018154018082558091505060019003905f5260205f20015f9091909190915055825f0180549050836001015f8481526020019081526020015f2081905550600190506143af565b5f90505b92915050565b5f80836001015f8481526020019081526020015f205490505f81146144a6575f6001826143e2919061621c565b90505f6001865f01805490506143f8919061621c565b905080821461445e575f865f0182815481106144175761441661574c565b5b905f5260205f200154905080875f0184815481106144385761443761574c565b5b905f5260205f20018190555083876001015f8381526020019081526020015f2081905550505b855f018054806144715761447061624f565b5b600190038181905f5260205f20015f90559055856001015f8681526020019081526020015f205f9055600193505050506144ab565b5f9150505b92915050565b5f80835f018054905090505f6144cb855f01855f856148f5565b90505f811461451c576144ec855f016001836144e7919061621c565b6145d3565b5f0160049054906101000a90047bffffffffffffffffffffffffffffffffffffffffffffffffffffffff1661451e565b5f5b9250505092915050565b5f61453161337b565b5f0160089054906101000a900460ff16905090565b60608261455b5761455682614964565b6145cb565b5f825114801561458157505f8473ffffffffffffffffffffffffffffffffffffffff163b145b156145c357836040517f9996b3150000000000000000000000000000000000000000000000000000000081526004016145ba9190615099565b60405180910390fd5b8190506145cc565b5b9392505050565b5f825f528160205f2001905092915050565b5f805f858054905090505f8111156147ed575f61460e87600184614609919061621c565b6145d3565b90505f815f015f9054906101000a900463ffffffff1690505f825f0160049054906101000a90047bffffffffffffffffffffffffffffffffffffffffffffffffffffffff1690508763ffffffff168263ffffffff16111561469b576040517f2520601d00000000000000000000000000000000000000000000000000000000815260040160405180910390fd5b8763ffffffff168263ffffffff16036147055786835f0160046101000a8154817bffffffffffffffffffffffffffffffffffffffffffffffffffffffff02191690837bffffffffffffffffffffffffffffffffffffffffffffffffffffffff1602179055506147de565b8860405180604001604052808a63ffffffff168152602001897bffffffffffffffffffffffffffffffffffffffffffffffffffffffff16815250908060018154018082558091505060019003905f5260205f20015f909190919091505f820151815f015f6101000a81548163ffffffff021916908363ffffffff1602179055506020820151815f0160046101000a8154817bffffffffffffffffffffffffffffffffffffffffffffffffffffffff02191690837bffffffffffffffffffffffffffffffffffffffffffffffffffffffff16021790555050505b808795509550505050506148cd565b8560405180604001604052808763ffffffff168152602001867bffffffffffffffffffffffffffffffffffffffffffffffffffffffff16815250908060018154018082558091505060019003905f5260205f20015f909190919091505f820151815f015f6101000a81548163ffffffff021916908363ffffffff1602179055506020820151815f0160046101000a8154817bffffffffffffffffffffffffffffffffffffffffffffffffffffffff02191690837bffffffffffffffffffffffffffffffffffffffffffffffffffffffff16021790555050505f8492509250505b935093915050565b5f80836001015f8481526020019081526020015f20541415905092915050565b5f5b81831015614959575f61490a84846149a7565b90508463ffffffff1661491d87836145d3565b5f015f9054906101000a900463ffffffff1663ffffffff16111561494357809250614953565b600181614950919061627c565b93505b506148f7565b819050949350505050565b5f8151111561497557805160208201fd5b6040517fd6bda27500000000000000000000000000000000000000000000000000000000815260040160405180910390fd5b5f60028284186149b791906162dc565b8284166149c4919061627c565b905092915050565b60405180606001604052805f73ffffffffffffffffffffffffffffffffffffffff1681526020015f62ffffff1681526020015f63ffffffff1681525090565b60405180604001604052805f6003811115614a2957614a28614f9d565b5b81526020015f63ffffffff1681525090565b5f604051905090565b5f80fd5b5f80fd5b5f80fd5b5f60608284031215614a6557614a64614a4c565b5b81905092915050565b5f60608284031215614a8357614a82614a44565b5b5f614a9084828501614a50565b91505092915050565b5f73ffffffffffffffffffffffffffffffffffffffff82169050919050565b5f819050919050565b5f614adb614ad6614ad184614a99565b614ab8565b614a99565b9050919050565b5f614aec82614ac1565b9050919050565b5f614afd82614ae2565b9050919050565b614b0d81614af3565b82525050565b5f602082019050614b265f830184614b04565b92915050565b5f614b3682614a99565b9050919050565b614b4681614b2c565b8114614b50575f80fd5b50565b5f81359050614b6181614b3d565b92915050565b5f60208284031215614b7c57614b7b614a44565b5b5f614b8984828501614b53565b91505092915050565b614b9b81614b2c565b82525050565b5f62ffffff82169050919050565b614bb881614ba1565b82525050565b5f63ffffffff82169050919050565b614bd681614bbe565b82525050565b606082015f820151614bf05f850182614b92565b506020820151614c036020850182614baf565b506040820151614c166040850182614bcd565b50505050565b5f606082019050614c2f5f830184614bdc565b92915050565b614c3e81614bbe565b8114614c48575f80fd5b50565b5f81359050614c5981614c35565b92915050565b5f60208284031215614c7457614c73614a44565b5b5f614c8184828501614c4b565b91505092915050565b5f80fd5b5f80fd5b5f601f19601f8301169050919050565b7f4e487b71000000000000000000000000000000000000000000000000000000005f52604160045260245ffd5b614cd882614c92565b810181811067ffffffffffffffff82111715614cf757614cf6614ca2565b5b80604052505050565b5f614d09614a3b565b9050614d158282614ccf565b919050565b5f67ffffffffffffffff821115614d3457614d33614ca2565b5b614d3d82614c92565b9050602081019050919050565b828183375f83830152505050565b5f614d6a614d6584614d1a565b614d00565b905082815260208101848484011115614d8657614d85614c8e565b5b614d91848285614d4a565b509392505050565b5f82601f830112614dad57614dac614c8a565b5b8135614dbd848260208601614d58565b91505092915050565b5f8060408385031215614ddc57614ddb614a44565b5b5f614de985828601614b53565b925050602083013567ffffffffffffffff811115614e0a57614e09614a48565b5b614e1685828601614d99565b9150509250929050565b5f819050919050565b614e3281614e20565b82525050565b5f602082019050614e4b5f830184614e29565b92915050565b5f80fd5b5f80fd5b5f8083601f840112614e6e57614e6d614c8a565b5b8235905067ffffffffffffffff811115614e8b57614e8a614e51565b5b602083019150836001820283011115614ea757614ea6614e55565b5b9250929050565b5f805f8060408587031215614ec657614ec5614a44565b5b5f85013567ffffffffffffffff811115614ee357614ee2614a48565b5b614eef87828801614e59565b9450945050602085013567ffffffffffffffff811115614f1257614f11614a48565b5b614f1e87828801614e59565b925092505092959194509250565b5f8115159050919050565b614f4081614f2c565b82525050565b5f602082019050614f595f830184614f37565b92915050565b5f8060408385031215614f7557614f74614a44565b5b5f614f8285828601614b53565b9250506020614f9385828601614b53565b9150509250929050565b7f4e487b71000000000000000000000000000000000000000000000000000000005f52602160045260245ffd5b60048110614fdb57614fda614f9d565b5b50565b5f819050614feb82614fca565b919050565b5f614ffa82614fde565b9050919050565b61500a81614ff0565b82525050565b5f6020820190506150235f830184615001565b92915050565b5f60ff82169050919050565b61503e81615029565b8114615048575f80fd5b50565b5f8135905061505981615035565b92915050565b5f6020828403121561507457615073614a44565b5b5f6150818482850161504b565b91505092915050565b61509381614b2c565b82525050565b5f6020820190506150ac5f83018461508a565b92915050565b5f805f606084860312156150c9576150c8614a44565b5b5f6150d686828701614b53565b93505060206150e786828701614b53565b92505060406150f886828701614c4b565b9150509250925092565b5f819050919050565b61511481615102565b82525050565b5f60208201905061512d5f83018461510b565b92915050565b5f81519050919050565b5f82825260208201905092915050565b5f5b8381101561516a57808201518184015260208101905061514f565b5f8484015250505050565b5f61517f82615133565b615189818561513d565b935061519981856020860161514d565b6151a281614c92565b840191505092915050565b5f6020820190508181035f8301526151c58184615175565b905092915050565b6151d681614bbe565b82525050565b5f6020820190506151ef5f8301846151cd565b92915050565b6151fe81615029565b82525050565b5f6020820190506152175f8301846151f5565b92915050565b7f64657374696e6174696f6e213d300000000000000000000000000000000000005f82015250565b5f615251600e8361513d565b915061525c8261521d565b602082019050919050565b5f6020820190508181035f83015261527e81615245565b9050919050565b61528e81614ba1565b8114615298575f80fd5b50565b5f813590506152a981615285565b92915050565b5f602082840312156152c4576152c3614a44565b5b5f6152d18482850161529b565b91505092915050565b7f6d61784d62697073213d3e3130303030303030000000000000000000000000005f82015250565b5f61530e60138361513d565b9150615319826152da565b602082019050919050565b5f6020820190508181035f83015261533b81615302565b9050919050565b7f6d61784d62697073213d300000000000000000000000000000000000000000005f82015250565b5f615376600b8361513d565b915061538182615342565b602082019050919050565b5f6020820190508181035f8301526153a38161536a565b9050919050565b7f4f766572666c6f770000000000000000000000000000000000000000000000005f82015250565b5f6153de60088361513d565b91506153e9826153aa565b602082019050919050565b5f6020820190508181035f83015261540b816153d2565b9050919050565b5f813561541e81614b3d565b80915050919050565b5f815f1b9050919050565b5f73ffffffffffffffffffffffffffffffffffffffff61545184615427565b9350801983169250808416831791505092915050565b5f61547182614ae2565b9050919050565b5f819050919050565b61548a82615467565b61549d61549682615478565b8354615432565b8255505050565b5f81356154b081615285565b80915050919050565b5f8160a01b9050919050565b5f76ffffff00000000000000000000000000000000000000006154e7846154b9565b9350801983169250808416831791505092915050565b5f61551761551261550d84614ba1565b614ab8565b614ba1565b9050919050565b5f819050919050565b615530826154fd565b61554361553c8261551e565b83546154c5565b8255505050565b5f813561555681614c35565b80915050919050565b5f8160b81b9050919050565b5f7affffffff00000000000000000000000000000000000000000000006155918461555f565b9350801983169250808416831791505092915050565b5f6155c16155bc6155b784614bbe565b614ab8565b614bbe565b9050919050565b5f819050919050565b6155da826155a7565b6155ed6155e6826155c8565b835461556b565b8255505050565b5f81015f83018061560481615412565b90506156108184615481565b5050505f81016020830180615624816154a4565b90506156308184615527565b5050505f810160408301806156448161554a565b905061565081846155d1565b5050505050565b61566182826155f4565b5050565b61566e81614ba1565b82525050565b5f6060820190506156875f83018661508a565b6156946020830185615665565b6156a160408301846151cd565b949350505050565b5f67ffffffffffffffff82169050919050565b6156c5816156a9565b82525050565b5f6020820190506156de5f8301846156bc565b92915050565b7f536c617368696e67206e6f7420656e61626c65640000000000000000000000005f82015250565b5f61571860148361513d565b9150615723826156e4565b602082019050919050565b5f6020820190508181035f8301526157458161570c565b9050919050565b7f4e487b71000000000000000000000000000000000000000000000000000000005f52603260045260245ffd5b7f44656c6179206d757374206265206d6f7265207468616e2030000000000000005f82015250565b5f6157ad60198361513d565b91506157b882615779565b602082019050919050565b5f6020820190508181035f8301526157da816157a1565b9050919050565b7f536572766963652773206d696e696d756d207769746864726177616c2064656c5f8201527f6179206d757374206265206c657373207468616e206f7220657175616c20746f60208201527f20616374697665206f70657261746f722773207769746864726177616c20646560408201527f6c61790000000000000000000000000000000000000000000000000000000000606082015250565b5f61588760638361513d565b9150615892826157e1565b608082019050919050565b5f6020820190508181035f8301526158b48161587b565b9050919050565b7f4e6f7420726567697374657265640000000000000000000000000000000000005f82015250565b5f6158ef600e8361513d565b91506158fa826158bb565b602082019050919050565b5f6020820190508181035f83015261591c816158e3565b9050919050565b5f61592e838561513d565b935061593b838584614d4a565b61594483614c92565b840190509392505050565b5f6040820190508181035f830152615968818688615923565b9050818103602083015261597d818486615923565b905095945050505050565b7f44656c6179206d757374206265206174206c65617374206d6f7265207468616e5f8201527f206f7220657175616c20746f2064656661756c745769746864726177616c446560208201527f6c61790000000000000000000000000000000000000000000000000000000000604082015250565b5f615a0860438361513d565b9150615a1382615988565b606082019050919050565b5f6020820190508181035f830152615a35816159fc565b9050919050565b7f4f70657261746f72207769746864726177616c2064656c6179206d75737420625f8201527f65206d6f7265207468616e206f7220657175616c20746f20616374697665207360208201527f6572766963652773206d696e696d756d207769746864726177616c2064656c6160408201527f7900000000000000000000000000000000000000000000000000000000000000606082015250565b5f615ae260618361513d565b9150615aed82615a3c565b608082019050919050565b5f6020820190508181035f830152615b0f81615ad6565b9050919050565b7f52656c6174696f6e73686970206e6f74206163746976650000000000000000005f82015250565b5f615b4a60178361513d565b9150615b5582615b16565b602082019050919050565b5f6020820190508181035f830152615b7781615b3e565b9050919050565b7f536c617368696e67206e6f7420757064617465640000000000000000000000005f82015250565b5f615bb260148361513d565b9150615bbd82615b7e565b602082019050919050565b5f6020820190508181035f830152615bdf81615ba6565b9050919050565b7f4d6178206163746976652072656c6174696f6e7368697073206d7573742062655f8201527f2067726561746572207468616e20300000000000000000000000000000000000602082015250565b5f615c40602f8361513d565b9150615c4b82615be6565b604082019050919050565b5f6020820190508181035f830152615c6d81615c34565b9050919050565b7f4d6178206163746976652072656c6174696f6e7368697073206d7573742062655f8201527f2067726561746572207468616e2063757272656e740000000000000000000000602082015250565b5f615cce60358361513d565b9150615cd982615c74565b604082019050919050565b5f6020820190508181035f830152615cfb81615cc2565b9050919050565b5f604082019050615d155f8301856151f5565b615d2260208301846151f5565b9392505050565b5f819050919050565b5f615d4c615d47615d4284615d29565b614ab8565b614ba1565b9050919050565b615d5c81615d32565b82525050565b5f615d7c615d77615d7284615d29565b614ab8565b614bbe565b9050919050565b615d8c81615d62565b82525050565b5f606082019050615da55f83018661508a565b615db26020830185615d53565b615dbf6040830184615d83565b949350505050565b7f416c7265616479207265676973746572656400000000000000000000000000005f82015250565b5f615dfb60128361513d565b9150615e0682615dc7565b602082019050919050565b5f6020820190508181035f830152615e2881615def565b9050919050565b7f416c726561647920696e616374697665000000000000000000000000000000005f82015250565b5f615e6360108361513d565b9150615e6e82615e2f565b602082019050919050565b5f6020820190508181035f830152615e9081615e57565b9050919050565b7f416c7265616479206163746976650000000000000000000000000000000000005f82015250565b5f615ecb600e8361513d565b9150615ed682615e97565b602082019050919050565b5f6020820190508181035f830152615ef881615ebf565b9050919050565b7f416c726561647920696e697469617465640000000000000000000000000000005f82015250565b5f615f3360118361513d565b9150615f3e82615eff565b602082019050919050565b5f6020820190508181035f830152615f6081615f27565b9050919050565b7f496e76616c6964207374617475730000000000000000000000000000000000005f82015250565b5f615f9b600e8361513d565b9150615fa682615f67565b602082019050919050565b5f6020820190508181035f830152615fc881615f8f565b9050919050565b5f819050919050565b5f615ff2615fed615fe884615fcf565b614ab8565b6156a9565b9050919050565b61600281615fd8565b82525050565b5f60208201905061601b5f830184615ff9565b92915050565b7f44656c6179206d757374206265206174206c65617374206d6f7265207468616e5f8201527f206f7220657175616c20746f2031206461790000000000000000000000000000602082015250565b5f61607b60328361513d565b915061608682616021565b604082019050919050565b5f6020820190508181035f8301526160a88161606f565b9050919050565b5f6040820190506160c25f8301856151cd565b6160cf60208301846151cd565b9392505050565b6160df81614e20565b81146160e9575f80fd5b50565b5f815190506160fa816160d6565b92915050565b5f6020828403121561611557616114614a44565b5b5f616122848285016160ec565b91505092915050565b5f60408201905061613e5f830185615001565b61614b60208301846151cd565b9392505050565b5f6080820190506161655f83018761508a565b616172602083018661508a565b61617f60408301856151cd565b61618c60608301846151cd565b95945050505050565b5f81519050919050565b5f81905092915050565b5f6161b382616195565b6161bd818561619f565b93506161cd81856020860161514d565b80840191505092915050565b5f6161e482846161a9565b915081905092915050565b7f4e487b71000000000000000000000000000000000000000000000000000000005f52601160045260245ffd5b5f61622682615102565b915061623183615102565b9250828203905081811115616249576162486161ef565b5b92915050565b7f4e487b71000000000000000000000000000000000000000000000000000000005f52603160045260245ffd5b5f61628682615102565b915061629183615102565b92508282019050808211156162a9576162a86161ef565b5b92915050565b7f4e487b71000000000000000000000000000000000000000000000000000000005f52601260045260245ffd5b5f6162e682615102565b91506162f183615102565b925082616301576163006162af565b5b82820490509291505056fea2646970667358221220be45f59ee0bc07047e0d44042411139617b56d587b0e790d98ba0833b8f17b1364736f6c63430008180033","linkReferences":{}},"methodIdentifiers":{"ROUTER()":"32fe7b26","UPGRADE_INTERFACE_VERSION()":"ad3cb1cc","acceptOwnership()":"79ba5097","approveSlashingFor(address)":"7218c6a7","defaultWithdrawalDelay()":"ddcf017d","deregisterOperatorFromService(address)":"8e61af12","deregisterServiceFromOperator(address)":"dcef4403","disableSlashing()":"832025f9","enableSlashing((address,uint24,uint32))":"0793ae7b","getActiveOperatorCount(address)":"ab06f67e","getActiveServiceCount(address)":"be732721","getMaxActiveRelationshipsForOperator()":"fd864e5e","getMaxActiveRelationshipsForService()":"d1b9d6e2","getMinWithdrawalDelay(address)":"d2cad271","getRelationshipStatus(address,address)":"621e0299","getRelationshipStatusAt(address,address,uint32)":"b1ad5743","getSlashParameter(address)":"48694118","getSlashParameterAt(address,address,uint32)":"97c459c4","getWithdrawalDelay(address)":"b1e50829","initialize(address)":"c4d66de8","initialize2()":"472abf68","isOperator(address)":"6d70f7ae","isService(address)":"e9d8dbfd","owner()":"8da5cb5b","pause()":"8456cb59","paused()":"5c975abb","pendingOwner()":"e30c3978","proxiableUUID()":"52d1902d","registerAsOperator(string,string)":"891a081f","registerAsService(string,string)":"d12a833c","registerOperatorToService(address)":"bcac0a02","registerServiceToOperator(address)":"ca41e40c","renounceOwnership()":"715018a6","setDefaultWithdrawalDelay(uint32)":"dcc4605c","setMaxActiveRelationshipsForOperator(uint8)":"9e2d5ce8","setMaxActiveRelationshipsForService(uint8)":"81d18842","setMinWithdrawalDelay(uint32)":"4ad88989","setWithdrawalDelay(uint32)":"58715e3b","transferOwnership(address)":"f2fde38b","unpause()":"3f4ba83a","updateMetadata(string,string)":"56ce0e6c","upgradeToAndCall(address,bytes)":"4f1ef286"},"id":67}