{
  "abi": [
    {
      "type": "constructor",
      "inputs": [
        {
          "name": "beacon_",
          "type": "address",
          "internalType": "address"
        },
        {
          "name": "registry_",
          "type": "address",
          "internalType": "contract ISLAYRegistryV2"
        }
      ],
      "stateMutability": "nonpayable"
    },
    {
      "type": "function",
      "name": "BEACON",
      "inputs": [],
      "outputs": [
        {
          "name": "",
          "type": "address",
          "internalType": "address"
        }
      ],
      "stateMutability": "view"
    },
    {
      "type": "function",
      "name": "REGISTRY",
      "inputs": [],
      "outputs": [
        {
          "name": "",
          "type": "address",
          "internalType": "contract ISLAYRegistryV2"
        }
      ],
      "stateMutability": "view"
    },
    {
      "type": "function",
      "name": "UPGRADE_INTERFACE_VERSION",
      "inputs": [],
      "outputs": [
        {
          "name": "",
          "type": "string",
          "internalType": "string"
        }
      ],
      "stateMutability": "view"
    },
    {
      "type": "function",
      "name": "acceptOwnership",
      "inputs": [],
      "outputs": [],
      "stateMutability": "nonpayable"
    },
    {
      "type": "function",
      "name": "create",
      "inputs": [
        {
          "name": "asset",
          "type": "address",
          "internalType": "contract IERC20Metadata"
        },
        {
          "name": "name",
          "type": "string",
          "internalType": "string"
        },
        {
          "name": "symbol",
          "type": "string",
          "internalType": "string"
        }
      ],
      "outputs": [
        {
          "name": "",
          "type": "address",
          "internalType": "contract SLAYVaultV2"
        }
      ],
      "stateMutability": "nonpayable"
    },
    {
      "type": "function",
      "name": "create",
      "inputs": [
        {
          "name": "asset",
          "type": "address",
          "internalType": "contract IERC20"
        },
        {
          "name": "operator",
          "type": "address",
          "internalType": "address"
        },
        {
          "name": "name",
          "type": "string",
          "internalType": "string"
        },
        {
          "name": "symbol",
          "type": "string",
          "internalType": "string"
        }
      ],
      "outputs": [
        {
          "name": "",
          "type": "address",
          "internalType": "contract SLAYVaultV2"
        }
      ],
      "stateMutability": "nonpayable"
    },
    {
      "type": "function",
      "name": "initialize",
      "inputs": [
        {
          "name": "initialOwner",
          "type": "address",
          "internalType": "address"
        }
      ],
      "outputs": [],
      "stateMutability": "nonpayable"
    },
    {
      "type": "function",
      "name": "owner",
      "inputs": [],
      "outputs": [
        {
          "name": "",
          "type": "address",
          "internalType": "address"
        }
      ],
      "stateMutability": "view"
    },
    {
      "type": "function",
      "name": "pause",
      "inputs": [],
      "outputs": [],
      "stateMutability": "nonpayable"
    },
    {
      "type": "function",
      "name": "paused",
      "inputs": [],
      "outputs": [
        {
          "name": "",
          "type": "bool",
          "internalType": "bool"
        }
      ],
      "stateMutability": "view"
    },
    {
      "type": "function",
      "name": "pendingOwner",
      "inputs": [],
      "outputs": [
        {
          "name": "",
          "type": "address",
          "internalType": "address"
        }
      ],
      "stateMutability": "view"
    },
    {
      "type": "function",
      "name": "proxiableUUID",
      "inputs": [],
      "outputs": [
        {
          "name": "",
          "type": "bytes32",
          "internalType": "bytes32"
        }
      ],
      "stateMutability": "view"
    },
    {
      "type": "function",
      "name": "renounceOwnership",
      "inputs": [],
      "outputs": [],
      "stateMutability": "nonpayable"
    },
    {
      "type": "function",
      "name": "transferOwnership",
      "inputs": [
        {
          "name": "newOwner",
          "type": "address",
          "internalType": "address"
        }
      ],
      "outputs": [],
      "stateMutability": "nonpayable"
    },
    {
      "type": "function",
      "name": "unpause",
      "inputs": [],
      "outputs": [],
      "stateMutability": "nonpayable"
    },
    {
      "type": "function",
      "name": "upgradeToAndCall",
      "inputs": [
        {
          "name": "newImplementation",
          "type": "address",
          "internalType": "address"
        },
        {
          "name": "data",
          "type": "bytes",
          "internalType": "bytes"
        }
      ],
      "outputs": [],
      "stateMutability": "payable"
    },
    {
      "type": "event",
      "name": "Initialized",
      "inputs": [
        {
          "name": "version",
          "type": "uint64",
          "indexed": false,
          "internalType": "uint64"
        }
      ],
      "anonymous": false
    },
    {
      "type": "event",
      "name": "OwnershipTransferStarted",
      "inputs": [
        {
          "name": "previousOwner",
          "type": "address",
          "indexed": true,
          "internalType": "address"
        },
        {
          "name": "newOwner",
          "type": "address",
          "indexed": true,
          "internalType": "address"
        }
      ],
      "anonymous": false
    },
    {
      "type": "event",
      "name": "OwnershipTransferred",
      "inputs": [
        {
          "name": "previousOwner",
          "type": "address",
          "indexed": true,
          "internalType": "address"
        },
        {
          "name": "newOwner",
          "type": "address",
          "indexed": true,
          "internalType": "address"
        }
      ],
      "anonymous": false
    },
    {
      "type": "event",
      "name": "Paused",
      "inputs": [
        {
          "name": "account",
          "type": "address",
          "indexed": false,
          "internalType": "address"
        }
      ],
      "anonymous": false
    },
    {
      "type": "event",
      "name": "Unpaused",
      "inputs": [
        {
          "name": "account",
          "type": "address",
          "indexed": false,
          "internalType": "address"
        }
      ],
      "anonymous": false
    },
    {
      "type": "event",
      "name": "Upgraded",
      "inputs": [
        {
          "name": "implementation",
          "type": "address",
          "indexed": true,
          "internalType": "address"
        }
      ],
      "anonymous": false
    },
    {
      "type": "error",
      "name": "AddressEmptyCode",
      "inputs": [
        {
          "name": "target",
          "type": "address",
          "internalType": "address"
        }
      ]
    },
    {
      "type": "error",
      "name": "ERC1967InvalidImplementation",
      "inputs": [
        {
          "name": "implementation",
          "type": "address",
          "internalType": "address"
        }
      ]
    },
    {
      "type": "error",
      "name": "ERC1967NonPayable",
      "inputs": []
    },
    {
      "type": "error",
      "name": "EnforcedPause",
      "inputs": []
    },
    {
      "type": "error",
      "name": "ExpectedPause",
      "inputs": []
    },
    {
      "type": "error",
      "name": "FailedCall",
      "inputs": []
    },
    {
      "type": "error",
      "name": "InvalidInitialization",
      "inputs": []
    },
    {
      "type": "error",
      "name": "NotInitializing",
      "inputs": []
    },
    {
      "type": "error",
      "name": "NotOperator",
      "inputs": [
        {
          "name": "account",
          "type": "address",
          "internalType": "address"
        }
      ]
    },
    {
      "type": "error",
      "name": "OwnableInvalidOwner",
      "inputs": [
        {
          "name": "owner",
          "type": "address",
          "internalType": "address"
        }
      ]
    },
    {
      "type": "error",
      "name": "OwnableUnauthorizedAccount",
      "inputs": [
        {
          "name": "account",
          "type": "address",
          "internalType": "address"
        }
      ]
    },
    {
      "type": "error",
      "name": "UUPSUnauthorizedCallContext",
      "inputs": []
    },
    {
      "type": "error",
      "name": "UUPSUnsupportedProxiableUUID",
      "inputs": [
        {
          "name": "slot",
          "type": "bytes32",
          "internalType": "bytes32"
        }
      ]
    }
  ],
  "bytecode": {
    "object": "0x60e06040523060805234801562000014575f80fd5b5060405162001cac38038062001cac83398101604081905262000037916200012f565b6200004162000066565b6001600160a01b0380831660a052811660c0526200005e62000066565b50506200016c565b7ff0c57e16840df040f15088dc2f81fe391c3923bec73e23a9662efc9c229c6a00805468010000000000000000900460ff1615620000b75760405163f92ee8a960e01b815260040160405180910390fd5b80546001600160401b0390811614620001175780546001600160401b0319166001600160401b0390811782556040519081527fc7f505b2f371ae2175ee4913f4499e1f2633a7b5936321eed1cdaeb6115181d29060200160405180910390a15b50565b6001600160a01b038116811462000117575f80fd5b5f806040838503121562000141575f80fd5b82516200014e816200011a565b602084015190925062000161816200011a565b809150509250929050565b60805160a05160c051611af2620001ba5f395f818161011a0152610bd701525f81816101850152818161054701526106a701525f8181610990015281816109ba0152610b0d0152611af25ff3fe60806040526004361062000103575f3560e01c806379ba50971162000092578063c3477e98116200005e578063c3477e9814620002d6578063c4d66de814620002fa578063e30c3978146200031e578063f2fde38b1462000335575f80fd5b806379ba509714620002505780638456cb5914620002675780638da5cb5b146200027e578063ad3cb1cc1462000295575f80fd5b806352d1902d11620000d257806352d1902d14620001be5780635c975abb14620001e4578063715018a61462000215578063796d5836146200022c575f80fd5b806306433b1b14620001075780633f4ba83a146200015957806349493a4d14620001725780634f1ef28614620001a7575b5f80fd5b34801562000113575f80fd5b506200013c7f000000000000000000000000000000000000000000000000000000000000000081565b6040516001600160a01b0390911681526020015b60405180910390f35b34801562000165575f80fd5b506200017062000359565b005b3480156200017e575f80fd5b506200013c7f000000000000000000000000000000000000000000000000000000000000000081565b62000170620001b8366004620010b6565b6200036f565b348015620001ca575f80fd5b50620001d562000394565b60405190815260200162000150565b348015620001f0575f80fd5b505f8051602062001a9d8339815191525460ff16604051901515815260200162000150565b34801562000221575f80fd5b5062000170620003b2565b34801562000238575f80fd5b506200013c6200024a36600462001165565b620003c7565b3480156200025c575f80fd5b5062000170620005ab565b34801562000273575f80fd5b5062000170620005fd565b3480156200028a575f80fd5b506200013c62000611565b348015620002a1575f80fd5b50620002c7604051806040016040528060058152602001640352e302e360dc1b81525081565b6040516200015091906200123c565b348015620002e2575f80fd5b506200013c620002f436600462001271565b62000645565b34801562000306575f80fd5b50620001706200031836600462001300565b62000707565b3480156200032a575f80fd5b506200013c6200083b565b34801562000341575f80fd5b50620001706200035336600462001300565b62000864565b62000363620008ed565b6200036d62000923565b565b6200037962000985565b620003848262000a2d565b62000390828262000a37565b5050565b5f6200039f62000b02565b505f8051602062001a7d83398151915290565b620003bc620008ed565b6200036d5f62000b4c565b5f620003d262000b86565b620003dd3362000bb8565b5f3390505f8686896001600160a01b03166306fdde036040518163ffffffff1660e01b81526004015f60405180830381865afa15801562000420573d5f803e3d5ffd5b505050506040513d5f823e601f3d908101601f191682016040526200044991908101906200131e565b6040516020016200045d9392919062001390565b60405160208183030381529060405290505f85858a6001600160a01b03166395d89b416040518163ffffffff1660e01b81526004015f60405180830381865afa158015620004ad573d5f803e3d5ffd5b505050506040513d5f823e601f3d908101601f19168201604052620004d691908101906200131e565b604051602001620004ea93929190620013d6565b60405160208183030381529060405290505f8984848460405160240162000515949392919062001417565b60408051601f198184030181529181526020820180516001600160e01b031663100b506960e11b179052519091505f907f0000000000000000000000000000000000000000000000000000000000000000908390620005749062000fe1565b6200058192919062001463565b604051809103905ff0801580156200059b573d5f803e3d5ffd5b509b9a5050505050505050505050565b3380620005b76200083b565b6001600160a01b031614620005ef5760405163118cdaa760e01b81526001600160a01b03821660048201526024015b60405180910390fd5b620005fa8162000b4c565b50565b62000607620008ed565b6200036d62000c6d565b5f807f9016d09d72d40fdae2fd8ceac6b6234c7706214fd39c1cd1e609a0528c1993005b546001600160a01b031692915050565b5f62000650620008ed565b6200065b8462000bb8565b5f8585858560405160240162000675949392919062001417565b60408051601f198184030181529181526020820180516001600160e01b031663100b506960e11b179052519091505f907f0000000000000000000000000000000000000000000000000000000000000000908390620006d49062000fe1565b620006e192919062001463565b604051809103905ff080158015620006fb573d5f803e3d5ffd5b50979650505050505050565b7ff0c57e16840df040f15088dc2f81fe391c3923bec73e23a9662efc9c229c6a008054600160401b810460ff16159067ffffffffffffffff165f811580156200074d5750825b90505f8267ffffffffffffffff1660011480156200076a5750303b155b90508115801562000779575080155b15620007985760405163f92ee8a960e01b815260040160405180910390fd5b845467ffffffffffffffff191660011785558315620007c357845460ff60401b1916600160401b1785555b620007ce8662000cb9565b620007d862000cce565b620007e262000cce565b620007ec62000cce565b83156200083357845460ff60401b19168555604051600181527fc7f505b2f371ae2175ee4913f4499e1f2633a7b5936321eed1cdaeb6115181d29060200160405180910390a15b505050505050565b5f807f237e158222e3e6968b72b9db0d8043aacf074ad9f650f0d1606b4d82ee432c0062000635565b6200086e620008ed565b7f237e158222e3e6968b72b9db0d8043aacf074ad9f650f0d1606b4d82ee432c0080546001600160a01b0319166001600160a01b0383169081178255620008b462000611565b6001600160a01b03167f38d16b8cac22d99fc7c124b9cd0de2d3fa1faef420bfe791d8c362d765e2270060405160405180910390a35050565b33620008f862000611565b6001600160a01b0316146200036d5760405163118cdaa760e01b8152336004820152602401620005e6565b6200092d62000cd8565b5f8051602062001a9d833981519152805460ff191681557f5db9ee0a495bf2e6ff9c91a7834c1ba4fdd244a5e8aa4e537bd38aeae4b073aa335b6040516001600160a01b03909116815260200160405180910390a150565b306001600160a01b037f000000000000000000000000000000000000000000000000000000000000000016148062000a0e57507f00000000000000000000000000000000000000000000000000000000000000006001600160a01b031662000a025f8051602062001a7d833981519152546001600160a01b031690565b6001600160a01b031614155b156200036d5760405163703e46dd60e11b815260040160405180910390fd5b620005fa620008ed565b816001600160a01b03166352d1902d6040518163ffffffff1660e01b8152600401602060405180830381865afa92505050801562000a94575060408051601f3d908101601f1916820190925262000a919181019062001490565b60015b62000abe57604051634c9c8ce360e01b81526001600160a01b0383166004820152602401620005e6565b5f8051602062001a7d833981519152811462000af157604051632a87526960e21b815260048101829052602401620005e6565b62000afd838362000d09565b505050565b306001600160a01b037f000000000000000000000000000000000000000000000000000000000000000016146200036d5760405163703e46dd60e11b815260040160405180910390fd5b7f237e158222e3e6968b72b9db0d8043aacf074ad9f650f0d1606b4d82ee432c0080546001600160a01b0319168155620003908262000d65565b5f8051602062001a9d8339815191525460ff16156200036d5760405163d93c066560e01b815260040160405180910390fd5b6040516336b87bd760e11b81526001600160a01b0382811660048301527f00000000000000000000000000000000000000000000000000000000000000001690636d70f7ae90602401602060405180830381865afa15801562000c1d573d5f803e3d5ffd5b505050506040513d601f19601f8201168201806040525081019062000c439190620014a8565b620005fa57604051633b63649d60e11b81526001600160a01b0382166004820152602401620005e6565b62000c7762000b86565b5f8051602062001a9d833981519152805460ff191660011781557f62e78cea01bee320cd4e420270b5ea74000d11b0c9f74754ebdbfc544b05a2583362000967565b62000cc362000dd5565b620005fa8162000e1f565b6200036d62000dd5565b5f8051602062001a9d8339815191525460ff166200036d57604051638dfc202b60e01b815260040160405180910390fd5b62000d148262000e54565b6040516001600160a01b038316907fbc7cd75a20ee27fd9adebab32041f755214dbc6bffa90cc0225b39da2e5c2d3b905f90a280511562000d5b5762000afd828262000eba565b6200039062000f32565b7f9016d09d72d40fdae2fd8ceac6b6234c7706214fd39c1cd1e609a0528c19930080546001600160a01b031981166001600160a01b03848116918217845560405192169182907f8be0079c531659141344cd1fd0a4f28419497f9722a3daafe3b4186f6b6457e0905f90a3505050565b7ff0c57e16840df040f15088dc2f81fe391c3923bec73e23a9662efc9c229c6a0054600160401b900460ff166200036d57604051631afcd79f60e31b815260040160405180910390fd5b62000e2962000dd5565b6001600160a01b038116620005ef57604051631e4fbdf760e01b81525f6004820152602401620005e6565b806001600160a01b03163b5f0362000e8b57604051634c9c8ce360e01b81526001600160a01b0382166004820152602401620005e6565b5f8051602062001a7d83398151915280546001600160a01b0319166001600160a01b0392909216919091179055565b60605f80846001600160a01b03168460405162000ed89190620014c9565b5f60405180830381855af49150503d805f811462000f12576040519150601f19603f3d011682016040523d82523d5f602084013e62000f17565b606091505b509150915062000f2985838362000f52565b95945050505050565b34156200036d5760405163b398979f60e01b815260040160405180910390fd5b60608262000f6b5762000f658262000fb8565b62000fb1565b815115801562000f8357506001600160a01b0384163b155b1562000fae57604051639996b31560e01b81526001600160a01b0385166004820152602401620005e6565b50805b9392505050565b80511562000fc857805160208201fd5b60405163d6bda27560e01b815260040160405180910390fd5b61059680620014e783390190565b6001600160a01b0381168114620005fa575f80fd5b634e487b7160e01b5f52604160045260245ffd5b604051601f8201601f1916810167ffffffffffffffff8111828210171562001044576200104462001004565b604052919050565b5f67ffffffffffffffff82111562001068576200106862001004565b50601f01601f191660200190565b5f6200108c62001086846200104c565b62001018565b9050828152838383011115620010a0575f80fd5b828260208301375f602084830101529392505050565b5f8060408385031215620010c8575f80fd5b8235620010d58162000fef565b9150602083013567ffffffffffffffff811115620010f1575f80fd5b8301601f8101851362001102575f80fd5b620011138582356020840162001076565b9150509250929050565b5f8083601f8401126200112e575f80fd5b50813567ffffffffffffffff81111562001146575f80fd5b6020830191508360208285010111156200115e575f80fd5b9250929050565b5f805f805f606086880312156200117a575f80fd5b8535620011878162000fef565b9450602086013567ffffffffffffffff80821115620011a4575f80fd5b620011b289838a016200111d565b90965094506040880135915080821115620011cb575f80fd5b50620011da888289016200111d565b969995985093965092949392505050565b5f5b8381101562001207578181015183820152602001620011ed565b50505f910152565b5f815180845262001228816020860160208601620011eb565b601f01601f19169290920160200192915050565b602081525f62000fb160208301846200120f565b5f82601f83011262001260575f80fd5b62000fb18383356020850162001076565b5f805f806080858703121562001285575f80fd5b8435620012928162000fef565b93506020850135620012a48162000fef565b9250604085013567ffffffffffffffff80821115620012c1575f80fd5b620012cf8883890162001250565b93506060870135915080821115620012e5575f80fd5b50620012f48782880162001250565b91505092959194509250565b5f6020828403121562001311575f80fd5b813562000fb18162000fef565b5f602082840312156200132f575f80fd5b815167ffffffffffffffff81111562001346575f80fd5b8201601f8101841362001357575f80fd5b80516200136862001086826200104c565b8181528560208385010111156200137d575f80fd5b62000f29826020830160208601620011eb565b6802932b9ba30b5b2b2160bd1b8152828460098301375f838201600160fd1b60098201528351620013c981600a840160208801620011eb565b01600a0195945050505050565b6339b0ba1760e11b8152828460048301375f838201601760f91b600482015283516200140a816005840160208801620011eb565b0160050195945050505050565b6001600160a01b038581168252841660208201526080604082018190525f9062001444908301856200120f565b82810360608401526200145881856200120f565b979650505050505050565b6001600160a01b03831681526040602082018190525f9062001488908301846200120f565b949350505050565b5f60208284031215620014a1575f80fd5b5051919050565b5f60208284031215620014b9575f80fd5b8151801515811462000fb1575f80fd5b5f8251620014dc818460208701620011eb565b919091019291505056fe60a060405260405161059638038061059683398101604081905261002291610375565b61002c828261003e565b506001600160a01b0316608052610464565b610047826100fb565b6040516001600160a01b038316907f1cf3b03a6cf19fa2baba4df148e9dcabedea7f8a5c07840e207e5c089be95d3e905f90a28051156100ef576100ea826001600160a01b0316635c60da1b6040518163ffffffff1660e01b8152600401602060405180830381865afa1580156100c0573d5f803e3d5ffd5b505050506040513d601f19601f820116820180604052508101906100e49190610430565b82610209565b505050565b6100f761027c565b5050565b806001600160a01b03163b5f0361013557604051631933b43b60e21b81526001600160a01b03821660048201526024015b60405180910390fd5b807fa3f0ad74e5423aebfd80d3ef4346578335a9a72aeaee59ff6cb3582b35133d5080546001600160a01b0319166001600160a01b0392831617905560408051635c60da1b60e01b815290515f92841691635c60da1b9160048083019260209291908290030181865afa1580156101ae573d5f803e3d5ffd5b505050506040513d601f19601f820116820180604052508101906101d29190610430565b9050806001600160a01b03163b5f036100f757604051634c9c8ce360e01b81526001600160a01b038216600482015260240161012c565b60605f80846001600160a01b0316846040516102259190610449565b5f60405180830381855af49150503d805f811461025d576040519150601f19603f3d011682016040523d82523d5f602084013e610262565b606091505b50909250905061027385838361029d565b95945050505050565b341561029b5760405163b398979f60e01b815260040160405180910390fd5b565b6060826102b2576102ad826102fc565b6102f5565b81511580156102c957506001600160a01b0384163b155b156102f257604051639996b31560e01b81526001600160a01b038516600482015260240161012c565b50805b9392505050565b80511561030b57805160208201fd5b60405163d6bda27560e01b815260040160405180910390fd5b80516001600160a01b038116811461033a575f80fd5b919050565b634e487b7160e01b5f52604160045260245ffd5b5f5b8381101561036d578181015183820152602001610355565b50505f910152565b5f8060408385031215610386575f80fd5b61038f83610324565b60208401519092506001600160401b03808211156103ab575f80fd5b818501915085601f8301126103be575f80fd5b8151818111156103d0576103d061033f565b604051601f8201601f19908116603f011681019083821181831017156103f8576103f861033f565b81604052828152886020848701011115610410575f80fd5b610421836020830160208801610353565b80955050505050509250929050565b5f60208284031215610440575f80fd5b6102f582610324565b5f825161045a818460208701610353565b9190910192915050565b60805161011b61047b5f395f601d015261011b5ff3fe6080604052600a600c565b005b60186014601a565b609d565b565b5f7f00000000000000000000000000000000000000000000000000000000000000006001600160a01b0316635c60da1b6040518163ffffffff1660e01b8152600401602060405180830381865afa1580156076573d5f803e3d5ffd5b505050506040513d601f19601f820116820180604052508101906098919060ba565b905090565b365f80375f80365f845af43d5f803e80801560b6573d5ff35b3d5ffd5b5f6020828403121560c9575f80fd5b81516001600160a01b038116811460de575f80fd5b939250505056fea26469706673582212202f0906197967ccac7a412bcc4d0a64fbd96a9545518e318c31e125be1264a2af64736f6c63430008180033360894a13ba1a3210667c828492db98dca3e2076cc3735a920a3ca505d382bbccd5ed15c6e187e77e9aee88184c21f4f2182ab5827cb3b7e07fbedcd63f03300a26469706673582212201da8b3f0f7b42ec16d951270fb3d52b5ec0bd4384ffe06f3090fef52839eb10264736f6c63430008180033",
    "linkReferences": {}
  },
  "methodIdentifiers": {
    "BEACON()": "49493a4d",
    "REGISTRY()": "06433b1b",
    "UPGRADE_INTERFACE_VERSION()": "ad3cb1cc",
    "acceptOwnership()": "79ba5097",
    "create(address,address,string,string)": "c3477e98",
    "create(address,string,string)": "796d5836",
    "initialize(address)": "c4d66de8",
    "owner()": "8da5cb5b",
    "pause()": "8456cb59",
    "paused()": "5c975abb",
    "pendingOwner()": "e30c3978",
    "proxiableUUID()": "52d1902d",
    "renounceOwnership()": "715018a6",
    "transferOwnership(address)": "f2fde38b",
    "unpause()": "3f4ba83a",
    "upgradeToAndCall(address,bytes)": "4f1ef286"
  },
  "storageLayout": {
    "storage": [],
    "types": {}
  },
  "id": 78
}