{
  "abi": [
    {
      "type": "constructor",
      "inputs": [],
      "stateMutability": "nonpayable"
    },
    {
      "type": "function",
      "name": "UPGRADE_INTERFACE_VERSION",
      "inputs": [],
      "outputs": [
        {
          "name": "",
          "type": "string",
          "internalType": "string"
        }
      ],
      "stateMutability": "view"
    },
    {
      "type": "function",
      "name": "acceptOwnership",
      "inputs": [],
      "outputs": [],
      "stateMutability": "nonpayable"
    },
    {
      "type": "function",
      "name": "claimRewards",
      "inputs": [
        {
          "name": "params",
          "type": "tuple",
          "internalType": "struct ISLAYRewardsV2.ClaimableRewardProof",
          "components": [
            {
              "name": "provider",
              "type": "address",
              "internalType": "address"
            },
            {
              "name": "token",
              "type": "address",
              "internalType": "address"
            },
            {
              "name": "amount",
              "type": "uint256",
              "internalType": "uint256"
            },
            {
              "name": "recipient",
              "type": "address",
              "internalType": "address"
            },
            {
              "name": "merkleRoot",
              "type": "bytes32",
              "internalType": "bytes32"
            },
            {
              "name": "proof",
              "type": "bytes32[]",
              "internalType": "bytes32[]"
            },
            {
              "name": "leafIndex",
              "type": "uint32",
              "internalType": "uint32"
            },
            {
              "name": "totalLeaves",
              "type": "uint32",
              "internalType": "uint32"
            }
          ]
        }
      ],
      "outputs": [],
      "stateMutability": "nonpayable"
    },
    {
      "type": "function",
      "name": "distributeRewards",
      "inputs": [
        {
          "name": "token",
          "type": "address",
          "internalType": "address"
        },
        {
          "name": "amount",
          "type": "uint256",
          "internalType": "uint256"
        },
        {
          "name": "merkleRoot",
          "type": "bytes32",
          "internalType": "bytes32"
        }
      ],
      "outputs": [],
      "stateMutability": "nonpayable"
    },
    {
      "type": "function",
      "name": "getBalance",
      "inputs": [
        {
          "name": "provider",
          "type": "address",
          "internalType": "address"
        },
        {
          "name": "token",
          "type": "address",
          "internalType": "address"
        }
      ],
      "outputs": [
        {
          "name": "",
          "type": "uint256",
          "internalType": "uint256"
        }
      ],
      "stateMutability": "view"
    },
    {
      "type": "function",
      "name": "getClaimedRewards",
      "inputs": [
        {
          "name": "provider",
          "type": "address",
          "internalType": "address"
        },
        {
          "name": "token",
          "type": "address",
          "internalType": "address"
        },
        {
          "name": "earner",
          "type": "address",
          "internalType": "address"
        }
      ],
      "outputs": [
        {
          "name": "",
          "type": "uint256",
          "internalType": "uint256"
        }
      ],
      "stateMutability": "view"
    },
    {
      "type": "function",
      "name": "getDistributionRoots",
      "inputs": [
        {
          "name": "provider",
          "type": "address",
          "internalType": "address"
        },
        {
          "name": "token",
          "type": "address",
          "internalType": "address"
        }
      ],
      "outputs": [
        {
          "name": "",
          "type": "tuple",
          "internalType": "struct ISLAYRewardsV2.DistributionRoots",
          "components": [
            {
              "name": "prevRoot",
              "type": "bytes32",
              "internalType": "bytes32"
            },
            {
              "name": "currentRoot",
              "type": "bytes32",
              "internalType": "bytes32"
            }
          ]
        }
      ],
      "stateMutability": "view"
    },
    {
      "type": "function",
      "name": "initialize",
      "inputs": [
        {
          "name": "initialOwner",
          "type": "address",
          "internalType": "address"
        }
      ],
      "outputs": [],
      "stateMutability": "nonpayable"
    },
    {
      "type": "function",
      "name": "owner",
      "inputs": [],
      "outputs": [
        {
          "name": "",
          "type": "address",
          "internalType": "address"
        }
      ],
      "stateMutability": "view"
    },
    {
      "type": "function",
      "name": "pause",
      "inputs": [],
      "outputs": [],
      "stateMutability": "nonpayable"
    },
    {
      "type": "function",
      "name": "paused",
      "inputs": [],
      "outputs": [
        {
          "name": "",
          "type": "bool",
          "internalType": "bool"
        }
      ],
      "stateMutability": "view"
    },
    {
      "type": "function",
      "name": "pendingOwner",
      "inputs": [],
      "outputs": [
        {
          "name": "",
          "type": "address",
          "internalType": "address"
        }
      ],
      "stateMutability": "view"
    },
    {
      "type": "function",
      "name": "proxiableUUID",
      "inputs": [],
      "outputs": [
        {
          "name": "",
          "type": "bytes32",
          "internalType": "bytes32"
        }
      ],
      "stateMutability": "view"
    },
    {
      "type": "function",
      "name": "renounceOwnership",
      "inputs": [],
      "outputs": [],
      "stateMutability": "nonpayable"
    },
    {
      "type": "function",
      "name": "transferOwnership",
      "inputs": [
        {
          "name": "newOwner",
          "type": "address",
          "internalType": "address"
        }
      ],
      "outputs": [],
      "stateMutability": "nonpayable"
    },
    {
      "type": "function",
      "name": "unpause",
      "inputs": [],
      "outputs": [],
      "stateMutability": "nonpayable"
    },
    {
      "type": "function",
      "name": "upgradeToAndCall",
      "inputs": [
        {
          "name": "newImplementation",
          "type": "address",
          "internalType": "address"
        },
        {
          "name": "data",
          "type": "bytes",
          "internalType": "bytes"
        }
      ],
      "outputs": [],
      "stateMutability": "payable"
    },
    {
      "type": "event",
      "name": "Initialized",
      "inputs": [
        {
          "name": "version",
          "type": "uint64",
          "indexed": false,
          "internalType": "uint64"
        }
      ],
      "anonymous": false
    },
    {
      "type": "event",
      "name": "OwnershipTransferStarted",
      "inputs": [
        {
          "name": "previousOwner",
          "type": "address",
          "indexed": true,
          "internalType": "address"
        },
        {
          "name": "newOwner",
          "type": "address",
          "indexed": true,
          "internalType": "address"
        }
      ],
      "anonymous": false
    },
    {
      "type": "event",
      "name": "OwnershipTransferred",
      "inputs": [
        {
          "name": "previousOwner",
          "type": "address",
          "indexed": true,
          "internalType": "address"
        },
        {
          "name": "newOwner",
          "type": "address",
          "indexed": true,
          "internalType": "address"
        }
      ],
      "anonymous": false
    },
    {
      "type": "event",
      "name": "Paused",
      "inputs": [
        {
          "name": "account",
          "type": "address",
          "indexed": false,
          "internalType": "address"
        }
      ],
      "anonymous": false
    },
    {
      "type": "event",
      "name": "RewardsClaimed",
      "inputs": [
        {
          "name": "provider",
          "type": "address",
          "indexed": true,
          "internalType": "address"
        },
        {
          "name": "token",
          "type": "address",
          "indexed": true,
          "internalType": "address"
        },
        {
          "name": "earner",
          "type": "address",
          "indexed": true,
          "internalType": "address"
        },
        {
          "name": "recipient",
          "type": "address",
          "indexed": false,
          "internalType": "address"
        },
        {
          "name": "amount",
          "type": "uint256",
          "indexed": false,
          "internalType": "uint256"
        },
        {
          "name": "merkleRoot",
          "type": "bytes32",
          "indexed": false,
          "internalType": "bytes32"
        }
      ],
      "anonymous": false
    },
    {
      "type": "event",
      "name": "RewardsDistributed",
      "inputs": [
        {
          "name": "provider",
          "type": "address",
          "indexed": true,
          "internalType": "address"
        },
        {
          "name": "token",
          "type": "address",
          "indexed": true,
          "internalType": "address"
        },
        {
          "name": "amount",
          "type": "uint256",
          "indexed": false,
          "internalType": "uint256"
        },
        {
          "name": "merkleRoot",
          "type": "bytes32",
          "indexed": true,
          "internalType": "bytes32"
        }
      ],
      "anonymous": false
    },
    {
      "type": "event",
      "name": "Unpaused",
      "inputs": [
        {
          "name": "account",
          "type": "address",
          "indexed": false,
          "internalType": "address"
        }
      ],
      "anonymous": false
    },
    {
      "type": "event",
      "name": "Upgraded",
      "inputs": [
        {
          "name": "implementation",
          "type": "address",
          "indexed": true,
          "internalType": "address"
        }
      ],
      "anonymous": false
    },
    {
      "type": "error",
      "name": "AddressEmptyCode",
      "inputs": [
        {
          "name": "target",
          "type": "address",
          "internalType": "address"
        }
      ]
    },
    {
      "type": "error",
      "name": "AmountAlreadyClaimed",
      "inputs": [
        {
          "name": "provider",
          "type": "address",
          "internalType": "address"
        },
        {
          "name": "token",
          "type": "address",
          "internalType": "address"
        },
        {
          "name": "earner",
          "type": "address",
          "internalType": "address"
        },
        {
          "name": "amount",
          "type": "uint256",
          "internalType": "uint256"
        }
      ]
    },
    {
      "type": "error",
      "name": "ERC1967InvalidImplementation",
      "inputs": [
        {
          "name": "implementation",
          "type": "address",
          "internalType": "address"
        }
      ]
    },
    {
      "type": "error",
      "name": "ERC1967NonPayable",
      "inputs": []
    },
    {
      "type": "error",
      "name": "EnforcedPause",
      "inputs": []
    },
    {
      "type": "error",
      "name": "ExpectedPause",
      "inputs": []
    },
    {
      "type": "error",
      "name": "FailedCall",
      "inputs": []
    },
    {
      "type": "error",
      "name": "InsufficientBalance",
      "inputs": [
        {
          "name": "provider",
          "type": "address",
          "internalType": "address"
        },
        {
          "name": "token",
          "type": "address",
          "internalType": "address"
        }
      ]
    },
    {
      "type": "error",
      "name": "InvalidInitialization",
      "inputs": []
    },
    {
      "type": "error",
      "name": "InvalidMerkleProof",
      "inputs": []
    },
    {
      "type": "error",
      "name": "InvalidMerkleRoot",
      "inputs": [
        {
          "name": "provider",
          "type": "address",
          "internalType": "address"
        },
        {
          "name": "token",
          "type": "address",
          "internalType": "address"
        },
        {
          "name": "merkleRoot",
          "type": "bytes32",
          "internalType": "bytes32"
        }
      ]
    },
    {
      "type": "error",
      "name": "InvalidProofLength",
      "inputs": []
    },
    {
      "type": "error",
      "name": "NotInitializing",
      "inputs": []
    },
    {
      "type": "error",
      "name": "OwnableInvalidOwner",
      "inputs": [
        {
          "name": "owner",
          "type": "address",
          "internalType": "address"
        }
      ]
    },
    {
      "type": "error",
      "name": "OwnableUnauthorizedAccount",
      "inputs": [
        {
          "name": "account",
          "type": "address",
          "internalType": "address"
        }
      ]
    },
    {
      "type": "error",
      "name": "SafeERC20FailedOperation",
      "inputs": [
        {
          "name": "token",
          "type": "address",
          "internalType": "address"
        }
      ]
    },
    {
      "type": "error",
      "name": "StringsInsufficientHexLength",
      "inputs": [
        {
          "name": "value",
          "type": "uint256",
          "internalType": "uint256"
        },
        {
          "name": "length",
          "type": "uint256",
          "internalType": "uint256"
        }
      ]
    },
    {
      "type": "error",
      "name": "UUPSUnauthorizedCallContext",
      "inputs": []
    },
    {
      "type": "error",
      "name": "UUPSUnsupportedProxiableUUID",
      "inputs": [
        {
          "name": "slot",
          "type": "bytes32",
          "internalType": "bytes32"
        }
      ]
    }
  ],
  "bytecode": {
    "object": "0x60a06040523060805234801562000014575f80fd5b506200001f6200002f565b620000296200002f565b620000e3565b7ff0c57e16840df040f15088dc2f81fe391c3923bec73e23a9662efc9c229c6a00805468010000000000000000900460ff1615620000805760405163f92ee8a960e01b815260040160405180910390fd5b80546001600160401b0390811614620000e05780546001600160401b0319166001600160401b0390811782556040519081527fc7f505b2f371ae2175ee4913f4499e1f2633a7b5936321eed1cdaeb6115181d29060200160405180910390a15b50565b608051611f146200010a5f395f8181610f1901528181610f4201526110860152611f145ff3fe6080604052600436106100fa575f3560e01c80637733369c11610092578063ad3cb1cc11610062578063ad3cb1cc1461027b578063c4d66de8146102b8578063d4fac45d146102d7578063e30c39781461031b578063f2fde38b1461032f575f80fd5b80637733369c1461020857806379ba5097146102275780638456cb591461023b5780638da5cb5b1461024f575f80fd5b80635c975abb116100cd5780635c975abb1461016d5780635e04f87e1461019b5780636fdaf166146101d5578063715018a6146101f4575f80fd5b80633f4ba83a146100fe57806340b3a4bf146101145780634f1ef2861461013357806352d1902d14610146575b5f80fd5b348015610109575f80fd5b5061011261034e565b005b34801561011f575f80fd5b5061011261012e366004611add565b610360565b610112610141366004611b21565b6104cf565b348015610151575f80fd5b5061015a6104ee565b6040519081526020015b60405180910390f35b348015610178575f80fd5b505f80516020611ebf8339815191525460ff166040519015158152602001610164565b3480156101a6575f80fd5b506101ba6101b5366004611bdd565b610509565b60408051825181526020928301519281019290925201610164565b3480156101e0575f80fd5b506101126101ef366004611c0e565b610556565b3480156101ff575f80fd5b50610112610b4e565b348015610213575f80fd5b5061015a610222366004611c46565b610b5f565b348015610232575f80fd5b50610112610b96565b348015610246575f80fd5b50610112610bde565b34801561025a575f80fd5b50610263610bee565b6040516001600160a01b039091168152602001610164565b348015610286575f80fd5b506102ab604051806040016040528060058152602001640352e302e360dc1b81525081565b6040516101649190611ca8565b3480156102c3575f80fd5b506101126102d2366004611cda565b610c22565b3480156102e2575f80fd5b5061015a6102f1366004611bdd565b6001600160a01b039182165f90815260016020908152604080832093909416825291909152205490565b348015610326575f80fd5b50610263610d33565b34801561033a575f80fd5b50610112610349366004611cda565b610d5b565b610356610de0565b61035e610e12565b565b610368610e71565b806103ba5760405162461bcd60e51b815260206004820152601b60248201527f4d65726b6c6520726f6f742063616e6e6f7420626520656d707479000000000060448201526064015b60405180910390fd5b6001600160a01b0383166104105760405162461bcd60e51b815260206004820152601c60248201527f546f6b656e20616464726573732063616e6e6f74206265207a65726f0000000060448201526064016103b1565b33821561045f5761042384823086610ea1565b6001600160a01b038082165f90815260016020908152604080832093881683529290529081208054859290610459908490611d07565b90915550505b6001600160a01b038181165f81815260208181526040808320948916808452948252918290206001810180548255879055915187815291938693909290917f9b7287e3e899d95da564c38a8d18e3c3d2135143b3d53bd6fa257cd8a961afd9910160405180910390a45050505050565b6104d7610f0e565b6104e082610fb2565b6104ea8282610fba565b5050565b5f6104f761107b565b505f80516020611e9f83398151915290565b6040805180820182525f80825260209182018190526001600160a01b0385811682528183528382209085168252825282902082518084019093528054835260010154908201525b92915050565b61055e610e71565b5f61056f6040830160208401611cda565b6001600160a01b0316036105c55760405162461bcd60e51b815260206004820152601c60248201527f546f6b656e20616464726573732063616e6e6f74206265207a65726f0000000060448201526064016103b1565b5f8160400135116106185760405162461bcd60e51b815260206004820181905260248201527f416d6f756e74206d7573742062652067726561746572207468616e207a65726f60448201526064016103b1565b60808101356106695760405162461bcd60e51b815260206004820152601b60248201527f4d65726b6c6520726f6f742063616e6e6f7420626520656d707479000000000060448201526064016103b1565b5f80806106796020850185611cda565b6001600160a01b03166001600160a01b031681526020019081526020015f205f8360200160208101906106ac9190611cda565b6001600160a01b03166001600160a01b031681526020019081526020015f20905080600101548260800135141580156106ea57508054608083013514155b15610742576106fc6020830183611cda565b61070c6040840160208501611cda565b60405163c9f7e85160e01b81526001600160a01b03928316600482015291166024820152608083013560448201526064016103b1565b335f6002816107546020870187611cda565b6001600160a01b03166001600160a01b031681526020019081526020015f205f8560200160208101906107879190611cda565b6001600160a01b03166001600160a01b031681526020019081526020015f205f836001600160a01b03166001600160a01b031681526020019081526020015f2054905080846040013511610831576107e26020850185611cda565b6107f26040860160208701611cda565b6040805163ed7deb9d60e01b81526001600160a01b039384166004820152918316602483015291841660448201529085013560648201526084016103b1565b60408401358190035f60018161084a6020890189611cda565b6001600160a01b03166001600160a01b031681526020019081526020015f205f87602001602081019061087d9190611cda565b6001600160a01b03166001600160a01b031681526020019081526020015f20549050818110156108f0576108b46020870187611cda565b6108c46040880160208901611cda565b604051630a542ddd60e31b81526001600160a01b039283166004820152911660248201526044016103b1565b61096d61090060a0880188611d1a565b808060200260200160405190810160405280939291908181526020018383602002808284375f92019190915250505050608088013561094560e08a0160c08b01611d67565b63ffffffff1661095c6101008b0160e08c01611d67565b63ffffffff16888b604001356110c4565b61098a5760405163582f497d60e11b815260040160405180910390fd5b81810360015f61099d60208a018a611cda565b6001600160a01b03166001600160a01b031681526020019081526020015f205f8860200160208101906109d09190611cda565b6001600160a01b03166001600160a01b031681526020019081526020015f2081905550856040013560025f885f016020810190610a0d9190611cda565b6001600160a01b03166001600160a01b031681526020019081526020015f205f886020016020810190610a409190611cda565b6001600160a01b03166001600160a01b031681526020019081526020015f205f866001600160a01b03166001600160a01b031681526020019081526020015f2081905550610ab0866020016020810190610a9a9190611cda565b610aaa6080890160608a01611cda565b846110eb565b6001600160a01b038416610aca6040880160208901611cda565b6001600160a01b0316610ae06020890189611cda565b6001600160a01b03167f4ba395584971ca8c6ff7586af6bcfddf50b5c3cb179dd2be9cf9316578e24a16610b1a60808b0160608c01611cda565b604080516001600160a01b0390921682526020820188905260808c01359082015260600160405180910390a4505050505050565b610b56610de0565b61035e5f61111c565b6001600160a01b038084165f90815260026020908152604080832086851684528252808320938516835292905220545b9392505050565b3380610ba0610d33565b6001600160a01b031614610bd25760405163118cdaa760e01b81526001600160a01b03821660048201526024016103b1565b610bdb8161111c565b50565b610be6610de0565b61035e611154565b5f807f9016d09d72d40fdae2fd8ceac6b6234c7706214fd39c1cd1e609a0528c1993005b546001600160a01b031692915050565b5f610c2b61119c565b805490915060ff600160401b820416159067ffffffffffffffff165f81158015610c525750825b90505f8267ffffffffffffffff166001148015610c6e5750303b155b905081158015610c7c575080155b15610c9a5760405163f92ee8a960e01b815260040160405180910390fd5b845467ffffffffffffffff191660011785558315610cc457845460ff60401b1916600160401b1785555b610ccd866111c4565b610cd56111d5565b610cdd6111d5565b610ce56111d5565b8315610d2b57845460ff60401b19168555604051600181527fc7f505b2f371ae2175ee4913f4499e1f2633a7b5936321eed1cdaeb6115181d29060200160405180910390a15b505050505050565b5f807f237e158222e3e6968b72b9db0d8043aacf074ad9f650f0d1606b4d82ee432c00610c12565b610d63610de0565b7f237e158222e3e6968b72b9db0d8043aacf074ad9f650f0d1606b4d82ee432c0080546001600160a01b0319166001600160a01b0383169081178255610da7610bee565b6001600160a01b03167f38d16b8cac22d99fc7c124b9cd0de2d3fa1faef420bfe791d8c362d765e2270060405160405180910390a35050565b33610de9610bee565b6001600160a01b03161461035e5760405163118cdaa760e01b81523360048201526024016103b1565b610e1a6111dd565b5f80516020611ebf833981519152805460ff191681557f5db9ee0a495bf2e6ff9c91a7834c1ba4fdd244a5e8aa4e537bd38aeae4b073aa335b6040516001600160a01b03909116815260200160405180910390a150565b5f80516020611ebf8339815191525460ff161561035e5760405163d93c066560e01b815260040160405180910390fd5b6040516001600160a01b038481166024830152838116604483015260648201839052610f089186918216906323b872dd906084015b604051602081830303815290604052915060e01b6020820180516001600160e01b03838183161783525050505061120c565b50505050565b306001600160a01b037f0000000000000000000000000000000000000000000000000000000000000000161480610f9457507f00000000000000000000000000000000000000000000000000000000000000006001600160a01b0316610f885f80516020611e9f833981519152546001600160a01b031690565b6001600160a01b031614155b1561035e5760405163703e46dd60e11b815260040160405180910390fd5b610bdb610de0565b816001600160a01b03166352d1902d6040518163ffffffff1660e01b8152600401602060405180830381865afa925050508015611014575060408051601f3d908101601f1916820190925261101191810190611d8a565b60015b61103c57604051634c9c8ce360e01b81526001600160a01b03831660048201526024016103b1565b5f80516020611e9f833981519152811461106c57604051632a87526960e21b8152600481018290526024016103b1565b6110768383611278565b505050565b306001600160a01b037f0000000000000000000000000000000000000000000000000000000000000000161461035e5760405163703e46dd60e11b815260040160405180910390fd5b5f806110d084846112cd565b90506110df8888838989611336565b98975050505050505050565b6040516001600160a01b0383811660248301526044820183905261107691859182169063a9059cbb90606401610ed6565b7f237e158222e3e6968b72b9db0d8043aacf074ad9f650f0d1606b4d82ee432c0080546001600160a01b03191681556104ea8261134f565b61115c610e71565b5f80516020611ebf833981519152805460ff191660011781557f62e78cea01bee320cd4e420270b5ea74000d11b0c9f74754ebdbfc544b05a25833610e53565b5f807ff0c57e16840df040f15088dc2f81fe391c3923bec73e23a9662efc9c229c6a00610550565b6111cc6113bf565b610bdb816113e4565b61035e6113bf565b5f80516020611ebf8339815191525460ff1661035e57604051638dfc202b60e01b815260040160405180910390fd5b5f8060205f8451602086015f885af18061122b576040513d5f823e3d81fd5b50505f513d9150811561124257806001141561124f565b6001600160a01b0384163b155b15610f0857604051635274afe760e01b81526001600160a01b03851660048201526024016103b1565b61128182611415565b6040516001600160a01b038316907fbc7cd75a20ee27fd9adebab32041f755214dbc6bffa90cc0225b39da2e5c2d3b905f90a28051156112c5576110768282611478565b6104ea6114ea565b5f806112d884611509565b90505f6112e4846115b7565b905081816040516020016112f9929190611da1565b60408051601f1981840301815282825280516020918201209083015201604051602081830303815290604052805190602001209250505092915050565b5f8461134487868686611647565b149695505050505050565b7f9016d09d72d40fdae2fd8ceac6b6234c7706214fd39c1cd1e609a0528c19930080546001600160a01b031981166001600160a01b03848116918217845560405192169182907f8be0079c531659141344cd1fd0a4f28419497f9722a3daafe3b4186f6b6457e0905f90a3505050565b6113c76116e9565b61035e57604051631afcd79f60e31b815260040160405180910390fd5b6113ec6113bf565b6001600160a01b038116610bd257604051631e4fbdf760e01b81525f60048201526024016103b1565b806001600160a01b03163b5f0361144a57604051634c9c8ce360e01b81526001600160a01b03821660048201526024016103b1565b5f80516020611e9f83398151915280546001600160a01b0319166001600160a01b0392909216919091179055565b60605f80846001600160a01b0316846040516114949190611dcf565b5f60405180830381855af49150503d805f81146114cc576040519150601f19603f3d011682016040523d82523d5f602084013e6114d1565b606091505b50915091506114e1858383611702565b95945050505050565b341561035e5760405163b398979f60e01b815260040160405180910390fd5b60605f6115158361175e565b6028602282012090915060601c60295b60018111156115ae57600782600f1611801561155a5750606083828151811061155057611550611dea565b016020015160f81c115b1561159757602060f81b83828151811061157657611576611dea565b0160200180516001600160f81b0319908116909218909116905f82901a9053505b60049190911c906115a781611dfe565b9050611525565b50909392505050565b60605f6115c383611774565b60010190505f8167ffffffffffffffff8111156115e2576115e2611b0d565b6040519080825280601f01601f19166020018201604052801561160c576020820181803683370190505b5090508181016020015b5f19016f181899199a1a9b1b9c1cb0b131b232b360811b600a86061a8153600a850494508461161657509392505050565b5f8061165483600161184b565b905085518114611677576040516313717da960e21b815260040160405180910390fd5b8460015b875181116116de5761168e600287611e27565b5f036116b257815f526020810288015160205260405f2091506002860495506116cc565b602081028801515f528160205260405f2091506002860495505b806116d681611e3a565b91505061167b565b509695505050505050565b5f6116f261119c565b54600160401b900460ff16919050565b60608261171757611712826118f4565b610b8f565b815115801561172e57506001600160a01b0384163b155b1561175757604051639996b31560e01b81526001600160a01b03851660048201526024016103b1565b5080610b8f565b60606105506001600160a01b038316601461191c565b5f8072184f03e93ff9f4daa797ed6e38ed64bf6a1f0160401b83106117b25772184f03e93ff9f4daa797ed6e38ed64bf6a1f0160401b830492506040015b6d04ee2d6d415b85acef810000000083106117de576d04ee2d6d415b85acef8100000000830492506020015b662386f26fc1000083106117fc57662386f26fc10000830492506010015b6305f5e1008310611814576305f5e100830492506008015b612710831061182857612710830492506004015b6064831061183a576064830492506002015b600a83106105505760010192915050565b5f806118ca845f60076fffffffffffffffffffffffffffffffff8311901b9050600667ffffffffffffffff83831c11901b17600563ffffffff83831c11901b17600461ffff83831c11901b17600360ff83831c11901b176002600f83831c116d010102020202030303030303030360801b911b9190911791821c1a1790565b90506118ec6118d884611a96565b80156118e7575084826001901b105b151590565b019392505050565b80511561190357805160208201fd5b60405163d6bda27560e01b815260040160405180910390fd5b6060825f61192b846002611e52565b611936906002611d07565b67ffffffffffffffff81111561194e5761194e611b0d565b6040519080825280601f01601f191660200182016040528015611978576020820181803683370190505b509050600360fc1b815f8151811061199257611992611dea565b60200101906001600160f81b03191690815f1a905350600f60fb1b816001815181106119c0576119c0611dea565b60200101906001600160f81b03191690815f1a9053505f6119e2856002611e52565b6119ed906001611d07565b90505b6001811115611a64576f181899199a1a9b1b9c1cb0b131b232b360811b83600f1660108110611a2157611a21611dea565b1a60f81b828281518110611a3757611a37611dea565b60200101906001600160f81b03191690815f1a90535060049290921c91611a5d81611dfe565b90506119f0565b508115611a8e5760405163e22e27eb60e01b815260048101869052602481018590526044016103b1565b949350505050565b5f6002826003811115611aab57611aab611e69565b611ab59190611e7d565b60ff166001149050919050565b80356001600160a01b0381168114611ad8575f80fd5b919050565b5f805f60608486031215611aef575f80fd5b611af884611ac2565b95602085013595506040909401359392505050565b634e487b7160e01b5f52604160045260245ffd5b5f8060408385031215611b32575f80fd5b611b3b83611ac2565b9150602083013567ffffffffffffffff80821115611b57575f80fd5b818501915085601f830112611b6a575f80fd5b813581811115611b7c57611b7c611b0d565b604051601f8201601f19908116603f01168101908382118183101715611ba457611ba4611b0d565b81604052828152886020848701011115611bbc575f80fd5b826020860160208301375f6020848301015280955050505050509250929050565b5f8060408385031215611bee575f80fd5b611bf783611ac2565b9150611c0560208401611ac2565b90509250929050565b5f60208284031215611c1e575f80fd5b813567ffffffffffffffff811115611c34575f80fd5b82016101008185031215610b8f575f80fd5b5f805f60608486031215611c58575f80fd5b611c6184611ac2565b9250611c6f60208501611ac2565b9150611c7d60408501611ac2565b90509250925092565b5f5b83811015611ca0578181015183820152602001611c88565b50505f910152565b602081525f8251806020840152611cc6816040850160208701611c86565b601f01601f19169190910160400192915050565b5f60208284031215611cea575f80fd5b610b8f82611ac2565b634e487b7160e01b5f52601160045260245ffd5b8082018082111561055057610550611cf3565b5f808335601e19843603018112611d2f575f80fd5b83018035915067ffffffffffffffff821115611d49575f80fd5b6020019150600581901b3603821315611d60575f80fd5b9250929050565b5f60208284031215611d77575f80fd5b813563ffffffff81168114610b8f575f80fd5b5f60208284031215611d9a575f80fd5b5051919050565b5f8351611db2818460208801611c86565b835190830190611dc6818360208801611c86565b01949350505050565b5f8251611de0818460208701611c86565b9190910192915050565b634e487b7160e01b5f52603260045260245ffd5b5f81611e0c57611e0c611cf3565b505f190190565b634e487b7160e01b5f52601260045260245ffd5b5f82611e3557611e35611e13565b500690565b5f60018201611e4b57611e4b611cf3565b5060010190565b808202811582820484141761055057610550611cf3565b634e487b7160e01b5f52602160045260245ffd5b5f60ff831680611e8f57611e8f611e13565b8060ff8416069150509291505056fe360894a13ba1a3210667c828492db98dca3e2076cc3735a920a3ca505d382bbccd5ed15c6e187e77e9aee88184c21f4f2182ab5827cb3b7e07fbedcd63f03300a26469706673582212206a3ed852be7c0498a8e77e04bac3d43824a29f7bd0d71d11ee89e0297c0d205e64736f6c63430008180033",
    "linkReferences": {}
  },
  "methodIdentifiers": {
    "UPGRADE_INTERFACE_VERSION()": "ad3cb1cc",
    "acceptOwnership()": "79ba5097",
    "claimRewards((address,address,uint256,address,bytes32,bytes32[],uint32,uint32))": "6fdaf166",
    "distributeRewards(address,uint256,bytes32)": "40b3a4bf",
    "getBalance(address,address)": "d4fac45d",
    "getClaimedRewards(address,address,address)": "7733369c",
    "getDistributionRoots(address,address)": "5e04f87e",
    "initialize(address)": "c4d66de8",
    "owner()": "8da5cb5b",
    "pause()": "8456cb59",
    "paused()": "5c975abb",
    "pendingOwner()": "e30c3978",
    "proxiableUUID()": "52d1902d",
    "renounceOwnership()": "715018a6",
    "transferOwnership(address)": "f2fde38b",
    "unpause()": "3f4ba83a",
    "upgradeToAndCall(address,bytes)": "4f1ef286"
  },
  "storageLayout": {
    "storage": [
      {
        "astId": 24644,
        "contract": "node_modules/@satlayer/contracts/src/SLAYRewardsV2.sol:SLAYRewardsV2",
        "label": "_distributionRoots",
        "offset": 0,
        "slot": "0",
        "type": "t_mapping(t_address,t_mapping(t_address,t_struct(DistributionRoots)28216_storage))"
      },
      {
        "astId": 24651,
        "contract": "node_modules/@satlayer/contracts/src/SLAYRewardsV2.sol:SLAYRewardsV2",
        "label": "_balances",
        "offset": 0,
        "slot": "1",
        "type": "t_mapping(t_address,t_mapping(t_address,t_uint256))"
      },
      {
        "astId": 24660,
        "contract": "node_modules/@satlayer/contracts/src/SLAYRewardsV2.sol:SLAYRewardsV2",
        "label": "_claimedRewards",
        "offset": 0,
        "slot": "2",
        "type": "t_mapping(t_address,t_mapping(t_address,t_mapping(t_address,t_uint256)))"
      }
    ],
    "types": {
      "t_address": {
        "encoding": "inplace",
        "label": "address",
        "numberOfBytes": "20"
      },
      "t_bytes32": {
        "encoding": "inplace",
        "label": "bytes32",
        "numberOfBytes": "32"
      },
      "t_mapping(t_address,t_mapping(t_address,t_mapping(t_address,t_uint256)))": {
        "encoding": "mapping",
        "key": "t_address",
        "label": "mapping(address => mapping(address => mapping(address => uint256)))",
        "numberOfBytes": "32",
        "value": "t_mapping(t_address,t_mapping(t_address,t_uint256))"
      },
      "t_mapping(t_address,t_mapping(t_address,t_struct(DistributionRoots)28216_storage))": {
        "encoding": "mapping",
        "key": "t_address",
        "label": "mapping(address => mapping(address => struct ISLAYRewardsV2.DistributionRoots))",
        "numberOfBytes": "32",
        "value": "t_mapping(t_address,t_struct(DistributionRoots)28216_storage)"
      },
      "t_mapping(t_address,t_mapping(t_address,t_uint256))": {
        "encoding": "mapping",
        "key": "t_address",
        "label": "mapping(address => mapping(address => uint256))",
        "numberOfBytes": "32",
        "value": "t_mapping(t_address,t_uint256)"
      },
      "t_mapping(t_address,t_struct(DistributionRoots)28216_storage)": {
        "encoding": "mapping",
        "key": "t_address",
        "label": "mapping(address => struct ISLAYRewardsV2.DistributionRoots)",
        "numberOfBytes": "32",
        "value": "t_struct(DistributionRoots)28216_storage"
      },
      "t_mapping(t_address,t_uint256)": {
        "encoding": "mapping",
        "key": "t_address",
        "label": "mapping(address => uint256)",
        "numberOfBytes": "32",
        "value": "t_uint256"
      },
      "t_struct(DistributionRoots)28216_storage": {
        "encoding": "inplace",
        "label": "struct ISLAYRewardsV2.DistributionRoots",
        "numberOfBytes": "64",
        "members": [
          {
            "astId": 28212,
            "contract": "node_modules/@satlayer/contracts/src/SLAYRewardsV2.sol:SLAYRewardsV2",
            "label": "prevRoot",
            "offset": 0,
            "slot": "0",
            "type": "t_bytes32"
          },
          {
            "astId": 28215,
            "contract": "node_modules/@satlayer/contracts/src/SLAYRewardsV2.sol:SLAYRewardsV2",
            "label": "currentRoot",
            "offset": 0,
            "slot": "1",
            "type": "t_bytes32"
          }
        ]
      },
      "t_uint256": {
        "encoding": "inplace",
        "label": "uint256",
        "numberOfBytes": "32"
      }
    }
  },
  "id": 76
}