{"abi":[{"type":"constructor","inputs":[{"name":"router_","type":"address","internalType":"contract SLAYRouterV2"},{"name":"registry_","type":"address","internalType":"contract SLAYRegistryV2"}],"stateMutability":"nonpayable"},{"type":"function","name":"DOMAIN_SEPARATOR","inputs":[],"outputs":[{"name":"","type":"bytes32","internalType":"bytes32"}],"stateMutability":"view"},{"type":"function","name":"REGISTRY","inputs":[],"outputs":[{"name":"","type":"address","internalType":"contract SLAYRegistryV2"}],"stateMutability":"view"},{"type":"function","name":"ROUTER","inputs":[],"outputs":[{"name":"","type":"address","internalType":"contract SLAYRouterV2"}],"stateMutability":"view"},{"type":"function","name":"allowance","inputs":[{"name":"owner","type":"address","internalType":"address"},{"name":"spender","type":"address","internalType":"address"}],"outputs":[{"name":"","type":"uint256","internalType":"uint256"}],"stateMutability":"view"},{"type":"function","name":"approve","inputs":[{"name":"spender","type":"address","internalType":"address"},{"name":"value","type":"uint256","internalType":"uint256"}],"outputs":[{"name":"","type":"bool","internalType":"bool"}],"stateMutability":"nonpayable"},{"type":"function","name":"asset","inputs":[],"outputs":[{"name":"","type":"address","internalType":"address"}],"stateMutability":"view"},{"type":"function","name":"balanceOf","inputs":[{"name":"account","type":"address","internalType":"address"}],"outputs":[{"name":"","type":"uint256","internalType":"uint256"}],"stateMutability":"view"},{"type":"function","name":"claimableRedeemRequest","inputs":[{"name":"","type":"uint256","internalType":"uint256"},{"name":"controller","type":"address","internalType":"address"}],"outputs":[{"name":"claimableShares","type":"uint256","internalType":"uint256"}],"stateMutability":"view"},{"type":"function","name":"convertToAssets","inputs":[{"name":"shares","type":"uint256","internalType":"uint256"}],"outputs":[{"name":"","type":"uint256","internalType":"uint256"}],"stateMutability":"view"},{"type":"function","name":"convertToShares","inputs":[{"name":"assets","type":"uint256","internalType":"uint256"}],"outputs":[{"name":"","type":"uint256","internalType":"uint256"}],"stateMutability":"view"},{"type":"function","name":"decimals","inputs":[],"outputs":[{"name":"","type":"uint8","internalType":"uint8"}],"stateMutability":"view"},{"type":"function","name":"delegated","inputs":[],"outputs":[{"name":"","type":"address","internalType":"address"}],"stateMutability":"view"},{"type":"function","name":"deposit","inputs":[{"name":"assets","type":"uint256","internalType":"uint256"},{"name":"receiver","type":"address","internalType":"address"}],"outputs":[{"name":"","type":"uint256","internalType":"uint256"}],"stateMutability":"nonpayable"},{"type":"function","name":"eip712Domain","inputs":[],"outputs":[{"name":"fields","type":"bytes1","internalType":"bytes1"},{"name":"name","type":"string","internalType":"string"},{"name":"version","type":"string","internalType":"string"},{"name":"chainId","type":"uint256","internalType":"uint256"},{"name":"verifyingContract","type":"address","internalType":"address"},{"name":"salt","type":"bytes32","internalType":"bytes32"},{"name":"extensions","type":"uint256[]","internalType":"uint256[]"}],"stateMutability":"view"},{"type":"function","name":"initialize","inputs":[{"name":"asset_","type":"address","internalType":"contract IERC20"},{"name":"delegated_","type":"address","internalType":"address"},{"name":"name_","type":"string","internalType":"string"},{"name":"symbol_","type":"string","internalType":"string"}],"outputs":[],"stateMutability":"nonpayable"},{"type":"function","name":"isOperator","inputs":[{"name":"controller","type":"address","internalType":"address"},{"name":"operator","type":"address","internalType":"address"}],"outputs":[{"name":"status","type":"bool","internalType":"bool"}],"stateMutability":"view"},{"type":"function","name":"lockSlashing","inputs":[{"name":"amount","type":"uint256","internalType":"uint256"}],"outputs":[],"stateMutability":"nonpayable"},{"type":"function","name":"maxDeposit","inputs":[{"name":"","type":"address","internalType":"address"}],"outputs":[{"name":"","type":"uint256","internalType":"uint256"}],"stateMutability":"view"},{"type":"function","name":"maxMint","inputs":[{"name":"","type":"address","internalType":"address"}],"outputs":[{"name":"","type":"uint256","internalType":"uint256"}],"stateMutability":"view"},{"type":"function","name":"maxRedeem","inputs":[{"name":"controller","type":"address","internalType":"address"}],"outputs":[{"name":"","type":"uint256","internalType":"uint256"}],"stateMutability":"view"},{"type":"function","name":"maxWithdraw","inputs":[{"name":"controller","type":"address","internalType":"address"}],"outputs":[{"name":"","type":"uint256","internalType":"uint256"}],"stateMutability":"view"},{"type":"function","name":"mint","inputs":[{"name":"shares","type":"uint256","internalType":"uint256"},{"name":"receiver","type":"address","internalType":"address"}],"outputs":[{"name":"","type":"uint256","internalType":"uint256"}],"stateMutability":"nonpayable"},{"type":"function","name":"name","inputs":[],"outputs":[{"name":"","type":"string","internalType":"string"}],"stateMutability":"view"},{"type":"function","name":"nonces","inputs":[{"name":"owner","type":"address","internalType":"address"}],"outputs":[{"name":"","type":"uint256","internalType":"uint256"}],"stateMutability":"view"},{"type":"function","name":"pendingRedeemRequest","inputs":[{"name":"","type":"uint256","internalType":"uint256"},{"name":"controller","type":"address","internalType":"address"}],"outputs":[{"name":"pendingShares","type":"uint256","internalType":"uint256"}],"stateMutability":"view"},{"type":"function","name":"permit","inputs":[{"name":"owner","type":"address","internalType":"address"},{"name":"spender","type":"address","internalType":"address"},{"name":"value","type":"uint256","internalType":"uint256"},{"name":"deadline","type":"uint256","internalType":"uint256"},{"name":"v","type":"uint8","internalType":"uint8"},{"name":"r","type":"bytes32","internalType":"bytes32"},{"name":"s","type":"bytes32","internalType":"bytes32"}],"outputs":[],"stateMutability":"nonpayable"},{"type":"function","name":"previewDeposit","inputs":[{"name":"assets","type":"uint256","internalType":"uint256"}],"outputs":[{"name":"","type":"uint256","internalType":"uint256"}],"stateMutability":"view"},{"type":"function","name":"previewMint","inputs":[{"name":"shares","type":"uint256","internalType":"uint256"}],"outputs":[{"name":"","type":"uint256","internalType":"uint256"}],"stateMutability":"view"},{"type":"function","name":"previewRedeem","inputs":[{"name":"","type":"uint256","internalType":"uint256"}],"outputs":[{"name":"","type":"uint256","internalType":"uint256"}],"stateMutability":"pure"},{"type":"function","name":"previewWithdraw","inputs":[{"name":"","type":"uint256","internalType":"uint256"}],"outputs":[{"name":"","type":"uint256","internalType":"uint256"}],"stateMutability":"pure"},{"type":"function","name":"redeem","inputs":[{"name":"shares","type":"uint256","internalType":"uint256"},{"name":"receiver","type":"address","internalType":"address"},{"name":"controller","type":"address","internalType":"address"}],"outputs":[{"name":"assets","type":"uint256","internalType":"uint256"}],"stateMutability":"nonpayable"},{"type":"function","name":"requestRedeem","inputs":[{"name":"shares","type":"uint256","internalType":"uint256"},{"name":"controller","type":"address","internalType":"address"},{"name":"owner","type":"address","internalType":"address"}],"outputs":[{"name":"requestId","type":"uint256","internalType":"uint256"}],"stateMutability":"nonpayable"},{"type":"function","name":"setOperator","inputs":[{"name":"operator","type":"address","internalType":"address"},{"name":"approved","type":"bool","internalType":"bool"}],"outputs":[{"name":"success","type":"bool","internalType":"bool"}],"stateMutability":"nonpayable"},{"type":"function","name":"supportsInterface","inputs":[{"name":"interfaceId","type":"bytes4","internalType":"bytes4"}],"outputs":[{"name":"","type":"bool","internalType":"bool"}],"stateMutability":"view"},{"type":"function","name":"symbol","inputs":[],"outputs":[{"name":"","type":"string","internalType":"string"}],"stateMutability":"view"},{"type":"function","name":"totalActiveStaked","inputs":[],"outputs":[{"name":"","type":"uint256","internalType":"uint256"}],"stateMutability":"view"},{"type":"function","name":"totalAssets","inputs":[],"outputs":[{"name":"","type":"uint256","internalType":"uint256"}],"stateMutability":"view"},{"type":"function","name":"totalSupply","inputs":[],"outputs":[{"name":"","type":"uint256","internalType":"uint256"}],"stateMutability":"view"},{"type":"function","name":"transfer","inputs":[{"name":"to","type":"address","internalType":"address"},{"name":"value","type":"uint256","internalType":"uint256"}],"outputs":[{"name":"","type":"bool","internalType":"bool"}],"stateMutability":"nonpayable"},{"type":"function","name":"transferFrom","inputs":[{"name":"from","type":"address","internalType":"address"},{"name":"to","type":"address","internalType":"address"},{"name":"value","type":"uint256","internalType":"uint256"}],"outputs":[{"name":"","type":"bool","internalType":"bool"}],"stateMutability":"nonpayable"},{"type":"function","name":"withdraw","inputs":[{"name":"assets","type":"uint256","internalType":"uint256"},{"name":"receiver","type":"address","internalType":"address"},{"name":"controller","type":"address","internalType":"address"}],"outputs":[{"name":"shares","type":"uint256","internalType":"uint256"}],"stateMutability":"nonpayable"},{"type":"event","name":"Approval","inputs":[{"name":"owner","type":"address","indexed":true,"internalType":"address"},{"name":"spender","type":"address","indexed":true,"internalType":"address"},{"name":"value","type":"uint256","indexed":false,"internalType":"uint256"}],"anonymous":false},{"type":"event","name":"Deposit","inputs":[{"name":"sender","type":"address","indexed":true,"internalType":"address"},{"name":"owner","type":"address","indexed":true,"internalType":"address"},{"name":"assets","type":"uint256","indexed":false,"internalType":"uint256"},{"name":"shares","type":"uint256","indexed":false,"internalType":"uint256"}],"anonymous":false},{"type":"event","name":"EIP712DomainChanged","inputs":[],"anonymous":false},{"type":"event","name":"Initialized","inputs":[{"name":"version","type":"uint64","indexed":false,"internalType":"uint64"}],"anonymous":false},{"type":"event","name":"OperatorSet","inputs":[{"name":"controller","type":"address","indexed":true,"internalType":"address"},{"name":"operator","type":"address","indexed":true,"internalType":"address"},{"name":"approved","type":"bool","indexed":false,"internalType":"bool"}],"anonymous":false},{"type":"event","name":"RedeemRequest","inputs":[{"name":"controller","type":"address","indexed":true,"internalType":"address"},{"name":"owner","type":"address","indexed":true,"internalType":"address"},{"name":"requestId","type":"uint256","indexed":true,"internalType":"uint256"},{"name":"sender","type":"address","indexed":false,"internalType":"address"},{"name":"assets","type":"uint256","indexed":false,"internalType":"uint256"}],"anonymous":false},{"type":"event","name":"SlashingLocked","inputs":[{"name":"amount","type":"uint256","indexed":false,"internalType":"uint256"}],"anonymous":false},{"type":"event","name":"Transfer","inputs":[{"name":"from","type":"address","indexed":true,"internalType":"address"},{"name":"to","type":"address","indexed":true,"internalType":"address"},{"name":"value","type":"uint256","indexed":false,"internalType":"uint256"}],"anonymous":false},{"type":"event","name":"Withdraw","inputs":[{"name":"sender","type":"address","indexed":true,"internalType":"address"},{"name":"receiver","type":"address","indexed":true,"internalType":"address"},{"name":"owner","type":"address","indexed":true,"internalType":"address"},{"name":"assets","type":"uint256","indexed":false,"internalType":"uint256"},{"name":"shares","type":"uint256","indexed":false,"internalType":"uint256"}],"anonymous":false},{"type":"error","name":"ECDSAInvalidSignature","inputs":[]},{"type":"error","name":"ECDSAInvalidSignatureLength","inputs":[{"name":"length","type":"uint256","internalType":"uint256"}]},{"type":"error","name":"ECDSAInvalidSignatureS","inputs":[{"name":"s","type":"bytes32","internalType":"bytes32"}]},{"type":"error","name":"ERC20InsufficientAllowance","inputs":[{"name":"spender","type":"address","internalType":"address"},{"name":"allowance","type":"uint256","internalType":"uint256"},{"name":"needed","type":"uint256","internalType":"uint256"}]},{"type":"error","name":"ERC20InsufficientBalance","inputs":[{"name":"sender","type":"address","internalType":"address"},{"name":"balance","type":"uint256","internalType":"uint256"},{"name":"needed","type":"uint256","internalType":"uint256"}]},{"type":"error","name":"ERC20InvalidApprover","inputs":[{"name":"approver","type":"address","internalType":"address"}]},{"type":"error","name":"ERC20InvalidReceiver","inputs":[{"name":"receiver","type":"address","internalType":"address"}]},{"type":"error","name":"ERC20InvalidSender","inputs":[{"name":"sender","type":"address","internalType":"address"}]},{"type":"error","name":"ERC20InvalidSpender","inputs":[{"name":"spender","type":"address","internalType":"address"}]},{"type":"error","name":"ERC2612ExpiredSignature","inputs":[{"name":"deadline","type":"uint256","internalType":"uint256"}]},{"type":"error","name":"ERC2612InvalidSigner","inputs":[{"name":"signer","type":"address","internalType":"address"},{"name":"owner","type":"address","internalType":"address"}]},{"type":"error","name":"ERC4626ExceededMaxDeposit","inputs":[{"name":"receiver","type":"address","internalType":"address"},{"name":"assets","type":"uint256","internalType":"uint256"},{"name":"max","type":"uint256","internalType":"uint256"}]},{"type":"error","name":"ERC4626ExceededMaxMint","inputs":[{"name":"receiver","type":"address","internalType":"address"},{"name":"shares","type":"uint256","internalType":"uint256"},{"name":"max","type":"uint256","internalType":"uint256"}]},{"type":"error","name":"ERC4626ExceededMaxRedeem","inputs":[{"name":"owner","type":"address","internalType":"address"},{"name":"shares","type":"uint256","internalType":"uint256"},{"name":"max","type":"uint256","internalType":"uint256"}]},{"type":"error","name":"ERC4626ExceededMaxWithdraw","inputs":[{"name":"owner","type":"address","internalType":"address"},{"name":"assets","type":"uint256","internalType":"uint256"},{"name":"max","type":"uint256","internalType":"uint256"}]},{"type":"error","name":"EnforcedPause","inputs":[]},{"type":"error","name":"ExceededMaxRedeemable","inputs":[]},{"type":"error","name":"ExpectedWhitelisted","inputs":[]},{"type":"error","name":"InvalidAccountNonce","inputs":[{"name":"account","type":"address","internalType":"address"},{"name":"currentNonce","type":"uint256","internalType":"uint256"}]},{"type":"error","name":"InvalidInitialization","inputs":[]},{"type":"error","name":"MustClaimAll","inputs":[]},{"type":"error","name":"NotControllerOrOperator","inputs":[]},{"type":"error","name":"NotInitializing","inputs":[]},{"type":"error","name":"NotRouter","inputs":[]},{"type":"error","name":"PreviewNotSupported","inputs":[]},{"type":"error","name":"SafeERC20FailedOperation","inputs":[{"name":"token","type":"address","internalType":"address"}]},{"type":"error","name":"WithdrawRequestNotFound","inputs":[]},{"type":"error","name":"WithdrawalDelayHasNotPassed","inputs":[]},{"type":"error","name":"ZeroAmount","inputs":[]}],"bytecode":{"object":"0x60c060405234801562000010575f80fd5b5060405162005462380380620054628339818101604052810190620000369190620002b8565b8173ffffffffffffffffffffffffffffffffffffffff1660808173ffffffffffffffffffffffffffffffffffffffff16815250508073ffffffffffffffffffffffffffffffffffffffff1660a08173ffffffffffffffffffffffffffffffffffffffff1681525050620000ae620000b660201b60201c565b50506200033c565b5f620000c7620001ba60201b60201c565b9050805f0160089054906101000a900460ff161562000112576040517ff92ee8a900000000000000000000000000000000000000000000000000000000815260040160405180910390fd5b67ffffffffffffffff8016815f015f9054906101000a900467ffffffffffffffff1667ffffffffffffffff1614620001b75767ffffffffffffffff815f015f6101000a81548167ffffffffffffffff021916908367ffffffffffffffff1602179055507fc7f505b2f371ae2175ee4913f4499e1f2633a7b5936321eed1cdaeb6115181d267ffffffffffffffff604051620001ae919062000321565b60405180910390a15b50565b5f80620001cc620001d560201b60201c565b90508091505090565b5f7ff0c57e16840df040f15088dc2f81fe391c3923bec73e23a9662efc9c229c6a005f1b905090565b5f80fd5b5f73ffffffffffffffffffffffffffffffffffffffff82169050919050565b5f6200022d8262000202565b9050919050565b5f620002408262000221565b9050919050565b620002528162000234565b81146200025d575f80fd5b50565b5f81519050620002708162000247565b92915050565b5f620002828262000221565b9050919050565b620002948162000276565b81146200029f575f80fd5b50565b5f81519050620002b28162000289565b92915050565b5f8060408385031215620002d157620002d0620001fe565b5b5f620002e08582860162000260565b9250506020620002f385828601620002a2565b9150509250929050565b5f67ffffffffffffffff82169050919050565b6200031b81620002fd565b82525050565b5f602082019050620003365f83018462000310565b92915050565b60805160a0516150e1620003815f395f8181610bff015261153901525f8181610fbf0152818161223e015281816122d5015281816127b5015261386901526150e15ff3fe608060405234801561000f575f80fd5b5060043610610251575f3560e01c80637ecebe0011610144578063c6e6f592116100c1578063dd62ed3e11610085578063dd62ed3e146107fd578063dff81f7d1461082d578063e49d123214610849578063eaed1d0714610867578063ef8b30f714610897578063f5a23d8d146108c757610251565b8063c6e6f59214610733578063ce96cb7714610763578063cf8db86214610793578063d505accf146107b1578063d905777e146107cd57610251565b8063b3d7f6b911610108578063b3d7f6b914610643578063b460af9414610673578063b6363cf2146106a3578063ba087652146106d3578063c63d75b61461070357610251565b80637ecebe001461057157806384b0196e146105a157806394bf804d146105c557806395d89b41146105f5578063a9059cbb1461061357610251565b8063313ce567116101d25780634cdad506116101965780634cdad50614610481578063558a7297146104b15780636e553f65146104e157806370a08231146105115780637d41c86e1461054157610251565b8063313ce567146103d957806332fe7b26146103f75780633644e5151461041557806338d52e0f14610433578063402d267d1461045157610251565b8063095ea7b311610219578063095ea7b31461030f5780630a28a4771461033f57806318160ddd1461036f5780632016a0d21461038d57806323b872dd146103a957610251565b806301e1d1141461025557806301ffc9a71461027357806306433b1b146102a357806306fdde03146102c157806307a2d13a146102df575b5f80fd5b61025d6108f7565b60405161026a9190613cb2565b60405180910390f35b61028d60048036038101906102889190613d31565b61097c565b60405161029a9190613d76565b60405180910390f35b6102ab610bfd565b6040516102b89190613e09565b60405180910390f35b6102c9610c21565b6040516102d69190613eac565b60405180910390f35b6102f960048036038101906102f49190613ef6565b610cbf565b6040516103069190613cb2565b60405180910390f35b61032960048036038101906103249190613f5c565b610cd1565b6040516103369190613d76565b60405180910390f35b61035960048036038101906103549190613ef6565b610cf3565b6040516103669190613cb2565b60405180910390f35b610377610d26565b6040516103849190613cb2565b60405180910390f35b6103a760048036038101906103a29190614101565b610d3d565b005b6103c360048036038101906103be919061419d565b610f81565b6040516103d09190613d76565b60405180910390f35b6103e1610faf565b6040516103ee9190614208565b60405180910390f35b6103ff610fbd565b60405161040c9190614241565b60405180910390f35b61041d610fe1565b60405161042a9190614272565b60405180910390f35b61043b610fef565b604051610448919061429a565b60405180910390f35b61046b600480360381019061046691906142b3565b611024565b6040516104789190613cb2565b60405180910390f35b61049b60048036038101906104969190613ef6565b61104d565b6040516104a89190613cb2565b60405180910390f35b6104cb60048036038101906104c69190614308565b611080565b6040516104d89190613d76565b60405180910390f35b6104fb60048036038101906104f69190614346565b611201565b6040516105089190613cb2565b60405180910390f35b61052b600480360381019061052691906142b3565b611281565b6040516105389190613cb2565b60405180910390f35b61055b60048036038101906105569190614384565b6112d4565b6040516105689190613cb2565b60405180910390f35b61058b600480360381019061058691906142b3565b61168a565b6040516105989190613cb2565b60405180910390f35b6105a961169b565b6040516105bc97969594939291906144c5565b60405180910390f35b6105df60048036038101906105da9190614346565b6117a4565b6040516105ec9190613cb2565b60405180910390f35b6105fd611824565b60405161060a9190613eac565b60405180910390f35b61062d60048036038101906106289190613f5c565b6118c2565b60405161063a9190613d76565b60405180910390f35b61065d60048036038101906106589190613ef6565b6118e4565b60405161066a9190613cb2565b60405180910390f35b61068d60048036038101906106889190614384565b6118f7565b60405161069a9190613cb2565b60405180910390f35b6106bd60048036038101906106b89190614547565b611bb0565b6040516106ca9190613d76565b60405180910390f35b6106ed60048036038101906106e89190614384565b611c3e565b6040516106fa9190613cb2565b60405180910390f35b61071d600480360381019061071891906142b3565b611ef5565b60405161072a9190613cb2565b60405180910390f35b61074d60048036038101906107489190613ef6565b611f1e565b60405161075a9190613cb2565b60405180910390f35b61077d600480360381019061077891906142b3565b611f30565b60405161078a9190613cb2565b60405180910390f35b61079b611fb8565b6040516107a8919061429a565b60405180910390f35b6107cb60048036038101906107c691906145d9565b611fdf565b005b6107e760048036038101906107e291906142b3565b612124565b6040516107f49190613cb2565b60405180910390f35b61081760048036038101906108129190614547565b6121a4565b6040516108249190613cb2565b60405180910390f35b61084760048036038101906108429190613ef6565b612234565b005b610851612334565b60405161085e9190613cb2565b60405180910390f35b610881600480360381019061087c9190614346565b612355565b60405161088e9190613cb2565b60405180910390f35b6108b160048036038101906108ac9190613ef6565b6123c8565b6040516108be9190613cb2565b60405180910390f35b6108e160048036038101906108dc9190614346565b6123da565b6040516108ee9190613cb2565b60405180910390f35b5f610900610fef565b73ffffffffffffffffffffffffffffffffffffffff166370a08231306040518263ffffffff1660e01b8152600401610938919061429a565b602060405180830381865afa158015610953573d5f803e3d5ffd5b505050506040513d601f19601f82011682018060405250810190610977919061468a565b905090565b5f7f36372b07000000000000000000000000000000000000000000000000000000007bffffffffffffffffffffffffffffffffffffffffffffffffffffffff1916827bffffffffffffffffffffffffffffffffffffffffffffffffffffffff19161480610a4657507fa219a025000000000000000000000000000000000000000000000000000000007bffffffffffffffffffffffffffffffffffffffffffffffffffffffff1916827bffffffffffffffffffffffffffffffffffffffffffffffffffffffff1916145b80610aae57507f87dfe5a0000000000000000000000000000000000000000000000000000000007bffffffffffffffffffffffffffffffffffffffffffffffffffffffff1916827bffffffffffffffffffffffffffffffffffffffffffffffffffffffff1916145b80610b1657507f620ee8e4000000000000000000000000000000000000000000000000000000007bffffffffffffffffffffffffffffffffffffffffffffffffffffffff1916827bffffffffffffffffffffffffffffffffffffffffffffffffffffffff1916145b80610b7e57507fe3bc4e65000000000000000000000000000000000000000000000000000000007bffffffffffffffffffffffffffffffffffffffffffffffffffffffff1916827bffffffffffffffffffffffffffffffffffffffffffffffffffffffff1916145b80610be657507ff4e8b52d000000000000000000000000000000000000000000000000000000007bffffffffffffffffffffffffffffffffffffffffffffffffffffffff1916827bffffffffffffffffffffffffffffffffffffffffffffffffffffffff1916145b80610bf65750610bf58261243e565b5b9050919050565b7f000000000000000000000000000000000000000000000000000000000000000081565b60605f610c2c6124a7565b9050806003018054610c3d906146e2565b80601f0160208091040260200160405190810160405280929190818152602001828054610c69906146e2565b8015610cb45780601f10610c8b57610100808354040283529160200191610cb4565b820191905f5260205f20905b815481529060010190602001808311610c9757829003601f168201915b505050505091505090565b5f610cca825f6124ce565b9050919050565b5f80610cdb612526565b9050610ce881858561252d565b600191505092915050565b5f6040517f8d1da42200000000000000000000000000000000000000000000000000000000815260040160405180910390fd5b5f80610d306124a7565b9050806002015491505090565b5f610d4661253f565b90505f815f0160089054906101000a900460ff161590505f825f015f9054906101000a900467ffffffffffffffff1690505f808267ffffffffffffffff16148015610d8e5750825b90505f60018367ffffffffffffffff16148015610dc157505f3073ffffffffffffffffffffffffffffffffffffffff163b145b905081158015610dcf575080155b15610e06576040517ff92ee8a900000000000000000000000000000000000000000000000000000000815260040160405180910390fd5b6001855f015f6101000a81548167ffffffffffffffff021916908367ffffffffffffffff1602179055508315610e53576001855f0160086101000a81548160ff0219169083151502179055505b5f73ffffffffffffffffffffffffffffffffffffffff168873ffffffffffffffffffffffffffffffffffffffff1603610ec1576040517f08c379a0000000000000000000000000000000000000000000000000000000008152600401610eb89061475c565b60405180910390fd5b610ecb8787612552565b610ed489612568565b610edd8761257c565b875f806101000a81548173ffffffffffffffffffffffffffffffffffffffff021916908373ffffffffffffffffffffffffffffffffffffffff1602179055508315610f76575f855f0160086101000a81548160ff0219169083151502179055507fc7f505b2f371ae2175ee4913f4499e1f2633a7b5936321eed1cdaeb6115181d26001604051610f6d91906147c6565b60405180910390a15b505050505050505050565b5f80610f8b612526565b9050610f988582856125c6565b610fa3858585612659565b60019150509392505050565b5f610fb8612749565b905090565b7f000000000000000000000000000000000000000000000000000000000000000081565b5f610fea61277e565b905090565b5f80610ff961278c565b9050805f015f9054906101000a900473ffffffffffffffffffffffffffffffffffffffff1691505090565b5f7fffffffffffffffffffffffffffffffffffffffffffffffffffffffffffffffff9050919050565b5f6040517f8d1da42200000000000000000000000000000000000000000000000000000000815260040160405180910390fd5b5f6110896127b3565b5f73ffffffffffffffffffffffffffffffffffffffff168373ffffffffffffffffffffffffffffffffffffffff16036110f7576040517f08c379a00000000000000000000000000000000000000000000000000000000081526004016110ee90614829565b60405180910390fd5b5f611100612526565b90508260015f8373ffffffffffffffffffffffffffffffffffffffff1673ffffffffffffffffffffffffffffffffffffffff1681526020019081526020015f205f8673ffffffffffffffffffffffffffffffffffffffff1673ffffffffffffffffffffffffffffffffffffffff1681526020019081526020015f205f6101000a81548160ff0219169083151502179055508373ffffffffffffffffffffffffffffffffffffffff168173ffffffffffffffffffffffffffffffffffffffff167fceb576d9f15e4e200fdb5096d64d5dfd667e16def20c1eefd14256d8e3faa267856040516111ee9190613d76565b60405180910390a3600191505092915050565b5f8061120c83611024565b905080841115611257578284826040517f79012fb200000000000000000000000000000000000000000000000000000000815260040161124e93929190614847565b60405180910390fd5b5f611261856123c8565b905061127661126e612526565b858784612879565b809250505092915050565b5f8061128b6124a7565b9050805f015f8473ffffffffffffffffffffffffffffffffffffffff1673ffffffffffffffffffffffffffffffffffffffff1681526020019081526020015f2054915050919050565b5f806112de612526565b90505f8503611319576040517f1f2a200500000000000000000000000000000000000000000000000000000000815260040160405180910390fd5b8073ffffffffffffffffffffffffffffffffffffffff168373ffffffffffffffffffffffffffffffffffffffff16141580156113d7575060015f8473ffffffffffffffffffffffffffffffffffffffff1673ffffffffffffffffffffffffffffffffffffffff1681526020019081526020015f205f8273ffffffffffffffffffffffffffffffffffffffff1673ffffffffffffffffffffffffffffffffffffffff1681526020019081526020015f205f9054906101000a900460ff16155b156113e8576113e78382876125c6565b5b8073ffffffffffffffffffffffffffffffffffffffff168473ffffffffffffffffffffffffffffffffffffffff16141580156114a6575060015f8573ffffffffffffffffffffffffffffffffffffffff1673ffffffffffffffffffffffffffffffffffffffff1681526020019081526020015f205f8273ffffffffffffffffffffffffffffffffffffffff1673ffffffffffffffffffffffffffffffffffffffff1681526020019081526020015f205f9054906101000a900460ff16155b156114dd576040517fb8c8b79e00000000000000000000000000000000000000000000000000000000815260040160405180910390fd5b5f60025f8673ffffffffffffffffffffffffffffffffffffffff1673ffffffffffffffffffffffffffffffffffffffff1681526020019081526020015f20905085815f015f82825461152f91906148a9565b925050819055505f7f000000000000000000000000000000000000000000000000000000000000000073ffffffffffffffffffffffffffffffffffffffff1663b1e508295f8054906101000a900473ffffffffffffffffffffffffffffffffffffffff166040518263ffffffff1660e01b81526004016115af919061429a565b602060405180830381865afa1580156115ca573d5f803e3d5ffd5b505050506040513d601f19601f820116820180604052508101906115ee9190614915565b90508063ffffffff164261160291906148a9565b8260010181905550611615853089612659565b5f8573ffffffffffffffffffffffffffffffffffffffff168773ffffffffffffffffffffffffffffffffffffffff167f1fdc681a13d8c5da54e301c7ce6542dcde4581e4725043fdab2db12ddc574506868b604051611675929190614940565b60405180910390a45f93505050509392505050565b5f61169482612903565b9050919050565b5f6060805f805f60605f6116ad612956565b90505f801b815f01541480156116c857505f801b8160010154145b611707576040517f08c379a00000000000000000000000000000000000000000000000000000000081526004016116fe906149b1565b60405180910390fd5b61170f61297d565b611717612a1b565b46305f801b5f67ffffffffffffffff81111561173657611735613fdd565b5b6040519080825280602002602001820160405280156117645781602001602082028036833780820191505090505b507f0f0000000000000000000000000000000000000000000000000000000000000095949392919097509750975097509750975097505090919293949596565b5f806117af83611ef5565b9050808411156117fa578284826040517f284ff6670000000000000000000000000000000000000000000000000000000081526004016117f193929190614847565b60405180910390fd5b5f611804856118e4565b9050611819611811612526565b858388612879565b809250505092915050565b60605f61182f6124a7565b9050806004018054611840906146e2565b80601f016020809104026020016040519081016040528092919081815260200182805461186c906146e2565b80156118b75780601f1061188e576101008083540402835291602001916118b7565b820191905f5260205f20905b81548152906001019060200180831161189a57829003601f168201915b505050505091505090565b5f806118cc612526565b90506118d9818585612659565b600191505092915050565b5f6118f08260016124ce565b9050919050565b5f815f611902612526565b90508173ffffffffffffffffffffffffffffffffffffffff168173ffffffffffffffffffffffffffffffffffffffff16141580156119c2575060015f8373ffffffffffffffffffffffffffffffffffffffff1673ffffffffffffffffffffffffffffffffffffffff1681526020019081526020015f205f8273ffffffffffffffffffffffffffffffffffffffff1673ffffffffffffffffffffffffffffffffffffffff1681526020019081526020015f205f9054906101000a900460ff16155b156119f9576040517fb8c8b79e00000000000000000000000000000000000000000000000000000000815260040160405180910390fd5b5f8603611a32576040517f1f2a200500000000000000000000000000000000000000000000000000000000815260040160405180910390fd5b5f60025f8673ffffffffffffffffffffffffffffffffffffffff1673ffffffffffffffffffffffffffffffffffffffff1681526020019081526020015f206040518060400160405290815f820154815260200160018201548152505090505f816020015103611acd576040517f5771670a00000000000000000000000000000000000000000000000000000000815260040160405180910390fd5b4281602001511115611b0b576040517fc60b549800000000000000000000000000000000000000000000000000000000815260040160405180910390fd5b805f015193505f611b1b85610cbf565b905080881015611b57576040517fef47371800000000000000000000000000000000000000000000000000000000815260040160405180910390fd5b80881115611b91576040517f5766507200000000000000000000000000000000000000000000000000000000815260040160405180910390fd5b611ba5611b9c612526565b88888489612ab9565b505050509392505050565b5f60015f8473ffffffffffffffffffffffffffffffffffffffff1673ffffffffffffffffffffffffffffffffffffffff1681526020019081526020015f205f8373ffffffffffffffffffffffffffffffffffffffff1673ffffffffffffffffffffffffffffffffffffffff1681526020019081526020015f205f9054906101000a900460ff16905092915050565b5f815f611c49612526565b90508173ffffffffffffffffffffffffffffffffffffffff168173ffffffffffffffffffffffffffffffffffffffff1614158015611d09575060015f8373ffffffffffffffffffffffffffffffffffffffff1673ffffffffffffffffffffffffffffffffffffffff1681526020019081526020015f205f8273ffffffffffffffffffffffffffffffffffffffff1673ffffffffffffffffffffffffffffffffffffffff1681526020019081526020015f205f9054906101000a900460ff16155b15611d40576040517fb8c8b79e00000000000000000000000000000000000000000000000000000000815260040160405180910390fd5b5f8603611d79576040517f1f2a200500000000000000000000000000000000000000000000000000000000815260040160405180910390fd5b5f60025f8673ffffffffffffffffffffffffffffffffffffffff1673ffffffffffffffffffffffffffffffffffffffff1681526020019081526020015f206040518060400160405290815f820154815260200160018201548152505090505f816020015103611e14576040517f5771670a00000000000000000000000000000000000000000000000000000000815260040160405180910390fd5b4281602001511115611e52576040517fc60b549800000000000000000000000000000000000000000000000000000000815260040160405180910390fd5b805f0151871015611e8f576040517fef47371800000000000000000000000000000000000000000000000000000000815260040160405180910390fd5b805f0151871115611ecc576040517f5766507200000000000000000000000000000000000000000000000000000000815260040160405180910390fd5b611ed587610cbf565b9350611eeb611ee2612526565b8787878b612ab9565b5050509392505050565b5f7fffffffffffffffffffffffffffffffffffffffffffffffffffffffffffffffff9050919050565b5f611f29825f612ba7565b9050919050565b5f8060025f8473ffffffffffffffffffffffffffffffffffffffff1673ffffffffffffffffffffffffffffffffffffffff1681526020019081526020015f206040518060400160405290815f8201548152602001600182015481525050905042816020015111611fae57611fa6815f0151610cbf565b915050611fb3565b5f9150505b919050565b5f805f9054906101000a900473ffffffffffffffffffffffffffffffffffffffff16905090565b8342111561202457836040517f6279130200000000000000000000000000000000000000000000000000000000815260040161201b9190613cb2565b60405180910390fd5b5f7f6e71edae12b1b97f4d1f60370fef10105fa2faae0126114a169c64845d6126c98888886120528c612bff565b89604051602001612068969594939291906149cf565b6040516020818303038152906040528051906020012090505f61208a82612c5f565b90505f61209982878787612c78565b90508973ffffffffffffffffffffffffffffffffffffffff168173ffffffffffffffffffffffffffffffffffffffff161461210d57808a6040517f4b800e46000000000000000000000000000000000000000000000000000000008152600401612104929190614a2e565b60405180910390fd5b6121188a8a8a61252d565b50505050505050505050565b5f8060025f8473ffffffffffffffffffffffffffffffffffffffff1673ffffffffffffffffffffffffffffffffffffffff1681526020019081526020015f206040518060400160405290815f820154815260200160018201548152505090504281602001511161219a57805f015191505061219f565b5f9150505b919050565b5f806121ae6124a7565b9050806001015f8573ffffffffffffffffffffffffffffffffffffffff1673ffffffffffffffffffffffffffffffffffffffff1681526020019081526020015f205f8473ffffffffffffffffffffffffffffffffffffffff1673ffffffffffffffffffffffffffffffffffffffff1681526020019081526020015f205491505092915050565b61223c6127b3565b7f000000000000000000000000000000000000000000000000000000000000000073ffffffffffffffffffffffffffffffffffffffff1661227b612526565b73ffffffffffffffffffffffffffffffffffffffff16146122c8576040517f9165520100000000000000000000000000000000000000000000000000000000815260040160405180910390fd5b6122fa6122d3610fef565b7f000000000000000000000000000000000000000000000000000000000000000083612ca6565b7f4126d2da817d1aa12a3c086bf2fa8957ff31629479134de6ca77c014162c7732816040516123299190613cb2565b60405180910390a150565b5f61233e30611281565b612346610d26565b6123509190614a55565b905090565b5f8060025f8473ffffffffffffffffffffffffffffffffffffffff1673ffffffffffffffffffffffffffffffffffffffff1681526020019081526020015f209050428160010154111580156123ac57505f815f0154115b156123bd57805f01549150506123c2565b5f9150505b92915050565b5f6123d3825f612ba7565b9050919050565b5f8060025f8473ffffffffffffffffffffffffffffffffffffffff1673ffffffffffffffffffffffffffffffffffffffff1681526020019081526020015f209050428160010154111561243357805f0154915050612438565b5f9150505b92915050565b5f7f01ffc9a7000000000000000000000000000000000000000000000000000000007bffffffffffffffffffffffffffffffffffffffffffffffffffffffff1916827bffffffffffffffffffffffffffffffffffffffffffffffffffffffff1916149050919050565b5f7f52c63247e1f47db19d5ce0460030c497f067ca4cebf71ba98eeadabe20bace00905090565b5f61251e60016124dc6108f7565b6124e691906148a9565b6124ee612d25565b600a6124fa9190614bb7565b612502610d26565b61250c91906148a9565b8486612d29909392919063ffffffff16565b905092915050565b5f33905090565b61253a8383836001612d76565b505050565b5f80612549612f53565b90508091505090565b61255a612f7c565b6125648282612fbc565b5050565b612570612f7c565b61257981612ff8565b50565b612584612f7c565b6125c3816040518060400160405280600181526020017f310000000000000000000000000000000000000000000000000000000000000081525061308a565b50565b5f6125d184846121a4565b90507fffffffffffffffffffffffffffffffffffffffffffffffffffffffffffffffff8110156126535781811015612644578281836040517ffb8f41b200000000000000000000000000000000000000000000000000000000815260040161263b93929190614847565b60405180910390fd5b61265284848484035f612d76565b5b50505050565b5f73ffffffffffffffffffffffffffffffffffffffff168373ffffffffffffffffffffffffffffffffffffffff16036126c9575f6040517f96c6fd1e0000000000000000000000000000000000000000000000000000000081526004016126c0919061429a565b60405180910390fd5b5f73ffffffffffffffffffffffffffffffffffffffff168273ffffffffffffffffffffffffffffffffffffffff1603612739575f6040517fec442f05000000000000000000000000000000000000000000000000000000008152600401612730919061429a565b60405180910390fd5b6127448383836130db565b505050565b5f8061275361278c565b905061275d612d25565b815f0160149054906101000a900460ff166127789190614c01565b91505090565b5f6127876130fb565b905090565b5f7f0773e532dfede91f04b12a73d3d2acd361424f41f76b4fb79f090161e36b4e00905090565b7f000000000000000000000000000000000000000000000000000000000000000073ffffffffffffffffffffffffffffffffffffffff16635c975abb6040518163ffffffff1660e01b8152600401602060405180830381865afa15801561281c573d5f803e3d5ffd5b505050506040513d601f19601f820116820180604052508101906128409190614c49565b15612877576040517fd93c066500000000000000000000000000000000000000000000000000000000815260040160405180910390fd5b565b61288c612884610fef565b85308561315e565b61289683826131e0565b8273ffffffffffffffffffffffffffffffffffffffff168473ffffffffffffffffffffffffffffffffffffffff167fdcbc1c05240f31ff3ad067ef1ee35ce4997762752e3a095284754544f4c709d784846040516128f5929190614c74565b60405180910390a350505050565b5f8061290d61325f565b9050805f015f8473ffffffffffffffffffffffffffffffffffffffff1673ffffffffffffffffffffffffffffffffffffffff1681526020019081526020015f2054915050919050565b5f7fa16a46d94261c7517cc8ff89f61c0ce93598e3c849801011dee649a6a557d100905090565b60605f612988612956565b9050806002018054612999906146e2565b80601f01602080910402602001604051908101604052809291908181526020018280546129c5906146e2565b8015612a105780601f106129e757610100808354040283529160200191612a10565b820191905f5260205f20905b8154815290600101906020018083116129f357829003601f168201915b505050505091505090565b60605f612a26612956565b9050806003018054612a37906146e2565b80601f0160208091040260200160405190810160405280929190818152602001828054612a63906146e2565b8015612aae5780601f10612a8557610100808354040283529160200191612aae565b820191905f5260205f20905b815481529060010190602001808311612a9157829003601f168201915b505050505091505090565b60025f8473ffffffffffffffffffffffffffffffffffffffff1673ffffffffffffffffffffffffffffffffffffffff1681526020019081526020015f205f8082015f9055600182015f90555050612b103082613286565b612b22612b1b610fef565b8584612ca6565b8273ffffffffffffffffffffffffffffffffffffffff168473ffffffffffffffffffffffffffffffffffffffff168673ffffffffffffffffffffffffffffffffffffffff167ffbde797d201c681b91056529119e0b02407c7bb96a4a2c75c01fc9667232c8db8585604051612b98929190614c74565b60405180910390a45050505050565b5f612bf7612bb3612d25565b600a612bbf9190614bb7565b612bc7610d26565b612bd191906148a9565b6001612bdb6108f7565b612be591906148a9565b8486612d29909392919063ffffffff16565b905092915050565b5f80612c0961325f565b9050805f015f8473ffffffffffffffffffffffffffffffffffffffff1673ffffffffffffffffffffffffffffffffffffffff1681526020019081526020015f205f81548092919060010191905055915050919050565b5f612c71612c6b61277e565b83613305565b9050919050565b5f805f80612c8888888888613345565b925092509250612c98828261342c565b829350505050949350505050565b612d20838473ffffffffffffffffffffffffffffffffffffffff1663a9059cbb8585604051602401612cd9929190614940565b604051602081830303815290604052915060e01b6020820180517bffffffffffffffffffffffffffffffffffffffffffffffffffffffff838183161783525050505061358e565b505050565b5f90565b5f612d57612d3683613629565b8015612d5257505f8480612d4d57612d4c614c9b565b5b868809115b613656565b612d62868686613661565b612d6c91906148a9565b9050949350505050565b5f612d7f6124a7565b90505f73ffffffffffffffffffffffffffffffffffffffff168573ffffffffffffffffffffffffffffffffffffffff1603612df1575f6040517fe602df05000000000000000000000000000000000000000000000000000000008152600401612de8919061429a565b60405180910390fd5b5f73ffffffffffffffffffffffffffffffffffffffff168473ffffffffffffffffffffffffffffffffffffffff1603612e61575f6040517f94280d62000000000000000000000000000000000000000000000000000000008152600401612e58919061429a565b60405180910390fd5b82816001015f8773ffffffffffffffffffffffffffffffffffffffff1673ffffffffffffffffffffffffffffffffffffffff1681526020019081526020015f205f8673ffffffffffffffffffffffffffffffffffffffff1673ffffffffffffffffffffffffffffffffffffffff1681526020019081526020015f20819055508115612f4c578373ffffffffffffffffffffffffffffffffffffffff168573ffffffffffffffffffffffffffffffffffffffff167f8c5be1e5ebec7d5bd14f71427d1e84f3dd0314c0f7b2291e5b200ac8c7c3b92585604051612f439190613cb2565b60405180910390a35b5050505050565b5f7ff0c57e16840df040f15088dc2f81fe391c3923bec73e23a9662efc9c229c6a005f1b905090565b612f84613740565b612fba576040517fd7e6bcf800000000000000000000000000000000000000000000000000000000815260040160405180910390fd5b565b612fc4612f7c565b5f612fcd6124a7565b905082816003019081612fe09190614e5c565b5081816004019081612ff29190614e5c565b50505050565b613000612f7c565b5f61300961278c565b90505f806130168461375e565b9150915081613026576012613028565b805b835f0160146101000a81548160ff021916908360ff16021790555083835f015f6101000a81548173ffffffffffffffffffffffffffffffffffffffff021916908373ffffffffffffffffffffffffffffffffffffffff16021790555050505050565b613092612f7c565b5f61309b612956565b9050828160020190816130ae9190614e5c565b50818160030190816130c09190614e5c565b505f801b815f01819055505f801b8160010181905550505050565b6130e36127b3565b6130eb613867565b6130f6838383613937565b505050565b5f7f8b73c3c69bb8fe3d512ecc4cf759cc79239f7b179b0ffacaa9a75d522b39400f613125613b66565b61312d613bdc565b4630604051602001613143959493929190614f2b565b60405160208183030381529060405280519060200120905090565b6131da848573ffffffffffffffffffffffffffffffffffffffff166323b872dd86868660405160240161319393929190614f7c565b604051602081830303815290604052915060e01b6020820180517bffffffffffffffffffffffffffffffffffffffffffffffffffffffff838183161783525050505061358e565b50505050565b5f73ffffffffffffffffffffffffffffffffffffffff168273ffffffffffffffffffffffffffffffffffffffff1603613250575f6040517fec442f05000000000000000000000000000000000000000000000000000000008152600401613247919061429a565b60405180910390fd5b61325b5f83836130db565b5050565b5f7f5ab42ced628888259c08ac98db1eb0cf702fc1501344311d8b100cd1bfe4bb00905090565b5f73ffffffffffffffffffffffffffffffffffffffff168273ffffffffffffffffffffffffffffffffffffffff16036132f6575f6040517f96c6fd1e0000000000000000000000000000000000000000000000000000000081526004016132ed919061429a565b60405180910390fd5b613301825f836130db565b5050565b5f6040517f190100000000000000000000000000000000000000000000000000000000000081528360028201528260228201526042812091505092915050565b5f805f7f7fffffffffffffffffffffffffffffff5d576e7357a4501ddfe92f46681b20a0845f1c1115613381575f600385925092509250613422565b5f6001888888886040515f81526020016040526040516133a49493929190614fb1565b6020604051602081039080840390855afa1580156133c4573d5f803e3d5ffd5b5050506020604051035190505f73ffffffffffffffffffffffffffffffffffffffff168173ffffffffffffffffffffffffffffffffffffffff1603613415575f60015f801b93509350935050613422565b805f805f1b935093509350505b9450945094915050565b5f600381111561343f5761343e614ff4565b5b82600381111561345257613451614ff4565b5b031561358a576001600381111561346c5761346b614ff4565b5b82600381111561347f5761347e614ff4565b5b036134b6576040517ff645eedf00000000000000000000000000000000000000000000000000000000815260040160405180910390fd5b600260038111156134ca576134c9614ff4565b5b8260038111156134dd576134dc614ff4565b5b0361352157805f1c6040517ffce698f70000000000000000000000000000000000000000000000000000000081526004016135189190613cb2565b60405180910390fd5b60038081111561353457613533614ff4565b5b82600381111561354757613546614ff4565b5b0361358957806040517fd78bce0c0000000000000000000000000000000000000000000000000000000081526004016135809190614272565b60405180910390fd5b5b5050565b5f8060205f8451602086015f885af1806135ad576040513d5f823e3d81fd5b3d92505f519150505f82146135c65760018114156135e1565b5f8473ffffffffffffffffffffffffffffffffffffffff163b145b1561362357836040517f5274afe700000000000000000000000000000000000000000000000000000000815260040161361a919061429a565b60405180910390fd5b50505050565b5f6001600283600381111561364157613640614ff4565b5b61364b9190615021565b60ff16149050919050565b5f8115159050919050565b5f805f61366e8686613c53565b915091505f82036136935783818161368957613688614c9b565b5b0492505050613739565b8184116136b2576136b16136ac5f861460126011613c70565b613c89565b5b5f8486880990508181118303925080820391505f855f038616905080860495508083049250600181825f0304019050808402831792505f600287600302189050808702600203810290508087026002038102905080870260020381029050808702600203810290508087026002038102905080870260020381029050808402955050505050505b9392505050565b5f61374961253f565b5f0160089054906101000a900460ff16905090565b5f805f808473ffffffffffffffffffffffffffffffffffffffff1660405160240160405160208183030381529060405263313ce56760e01b6020820180517bffffffffffffffffffffffffffffffffffffffffffffffffffffffff83818316178352505050506040516137d19190615095565b5f60405180830381855afa9150503d805f8114613809576040519150601f19603f3d011682016040523d82523d5f602084013e61380e565b606091505b509150915081801561382257506020815110155b15613859575f8180602001905181019061383c919061468a565b905060ff801681116138575760018194509450505050613862565b505b5f809350935050505b915091565b7f000000000000000000000000000000000000000000000000000000000000000073ffffffffffffffffffffffffffffffffffffffff1663b2037480306040518263ffffffff1660e01b81526004016138c0919061429a565b602060405180830381865afa1580156138db573d5f803e3d5ffd5b505050506040513d601f19601f820116820180604052508101906138ff9190614c49565b613935576040517fc987100f00000000000000000000000000000000000000000000000000000000815260040160405180910390fd5b565b5f6139406124a7565b90505f73ffffffffffffffffffffffffffffffffffffffff168473ffffffffffffffffffffffffffffffffffffffff16036139945781816002015f82825461398891906148a9565b92505081905550613a66565b5f815f015f8673ffffffffffffffffffffffffffffffffffffffff1673ffffffffffffffffffffffffffffffffffffffff1681526020019081526020015f2054905082811015613a1f578481846040517fe450d38c000000000000000000000000000000000000000000000000000000008152600401613a1693929190614847565b60405180910390fd5b828103825f015f8773ffffffffffffffffffffffffffffffffffffffff1673ffffffffffffffffffffffffffffffffffffffff1681526020019081526020015f2081905550505b5f73ffffffffffffffffffffffffffffffffffffffff168373ffffffffffffffffffffffffffffffffffffffff1603613aaf5781816002015f8282540392505081905550613afb565b81815f015f8573ffffffffffffffffffffffffffffffffffffffff1673ffffffffffffffffffffffffffffffffffffffff1681526020019081526020015f205f82825401925050819055505b8273ffffffffffffffffffffffffffffffffffffffff168473ffffffffffffffffffffffffffffffffffffffff167fddf252ad1be2c89b69c2b068fc378daa952ba7f163c4a11628f55a4df523b3ef84604051613b589190613cb2565b60405180910390a350505050565b5f80613b70612956565b90505f613b7b61297d565b90505f81511115613b9757808051906020012092505050613bd9565b5f825f015490505f801b8114613bb257809350505050613bd9565b7fc5d2460186f7233c927e7db2dcc703c0e500b653ca82273b7bfad8045d85a47093505050505b90565b5f80613be6612956565b90505f613bf1612a1b565b90505f81511115613c0d57808051906020012092505050613c50565b5f826001015490505f801b8114613c2957809350505050613c50565b7fc5d2460186f7233c927e7db2dcc703c0e500b653ca82273b7bfad8045d85a47093505050505b90565b5f805f198385098385029150818110828203039250509250929050565b5f613c7a84613656565b82841802821890509392505050565b634e487b715f52806020526024601cfd5b5f819050919050565b613cac81613c9a565b82525050565b5f602082019050613cc55f830184613ca3565b92915050565b5f604051905090565b5f80fd5b5f80fd5b5f7fffffffff0000000000000000000000000000000000000000000000000000000082169050919050565b613d1081613cdc565b8114613d1a575f80fd5b50565b5f81359050613d2b81613d07565b92915050565b5f60208284031215613d4657613d45613cd4565b5b5f613d5384828501613d1d565b91505092915050565b5f8115159050919050565b613d7081613d5c565b82525050565b5f602082019050613d895f830184613d67565b92915050565b5f73ffffffffffffffffffffffffffffffffffffffff82169050919050565b5f819050919050565b5f613dd1613dcc613dc784613d8f565b613dae565b613d8f565b9050919050565b5f613de282613db7565b9050919050565b5f613df382613dd8565b9050919050565b613e0381613de9565b82525050565b5f602082019050613e1c5f830184613dfa565b92915050565b5f81519050919050565b5f82825260208201905092915050565b5f5b83811015613e59578082015181840152602081019050613e3e565b5f8484015250505050565b5f601f19601f8301169050919050565b5f613e7e82613e22565b613e888185613e2c565b9350613e98818560208601613e3c565b613ea181613e64565b840191505092915050565b5f6020820190508181035f830152613ec48184613e74565b905092915050565b613ed581613c9a565b8114613edf575f80fd5b50565b5f81359050613ef081613ecc565b92915050565b5f60208284031215613f0b57613f0a613cd4565b5b5f613f1884828501613ee2565b91505092915050565b5f613f2b82613d8f565b9050919050565b613f3b81613f21565b8114613f45575f80fd5b50565b5f81359050613f5681613f32565b92915050565b5f8060408385031215613f7257613f71613cd4565b5b5f613f7f85828601613f48565b9250506020613f9085828601613ee2565b9150509250929050565b5f613fa482613f21565b9050919050565b613fb481613f9a565b8114613fbe575f80fd5b50565b5f81359050613fcf81613fab565b92915050565b5f80fd5b5f80fd5b7f4e487b71000000000000000000000000000000000000000000000000000000005f52604160045260245ffd5b61401382613e64565b810181811067ffffffffffffffff8211171561403257614031613fdd565b5b80604052505050565b5f614044613ccb565b9050614050828261400a565b919050565b5f67ffffffffffffffff82111561406f5761406e613fdd565b5b61407882613e64565b9050602081019050919050565b828183375f83830152505050565b5f6140a56140a084614055565b61403b565b9050828152602081018484840111156140c1576140c0613fd9565b5b6140cc848285614085565b509392505050565b5f82601f8301126140e8576140e7613fd5565b5b81356140f8848260208601614093565b91505092915050565b5f805f806080858703121561411957614118613cd4565b5b5f61412687828801613fc1565b945050602061413787828801613f48565b935050604085013567ffffffffffffffff81111561415857614157613cd8565b5b614164878288016140d4565b925050606085013567ffffffffffffffff81111561418557614184613cd8565b5b614191878288016140d4565b91505092959194509250565b5f805f606084860312156141b4576141b3613cd4565b5b5f6141c186828701613f48565b93505060206141d286828701613f48565b92505060406141e386828701613ee2565b9150509250925092565b5f60ff82169050919050565b614202816141ed565b82525050565b5f60208201905061421b5f8301846141f9565b92915050565b5f61422b82613dd8565b9050919050565b61423b81614221565b82525050565b5f6020820190506142545f830184614232565b92915050565b5f819050919050565b61426c8161425a565b82525050565b5f6020820190506142855f830184614263565b92915050565b61429481613f21565b82525050565b5f6020820190506142ad5f83018461428b565b92915050565b5f602082840312156142c8576142c7613cd4565b5b5f6142d584828501613f48565b91505092915050565b6142e781613d5c565b81146142f1575f80fd5b50565b5f81359050614302816142de565b92915050565b5f806040838503121561431e5761431d613cd4565b5b5f61432b85828601613f48565b925050602061433c858286016142f4565b9150509250929050565b5f806040838503121561435c5761435b613cd4565b5b5f61436985828601613ee2565b925050602061437a85828601613f48565b9150509250929050565b5f805f6060848603121561439b5761439a613cd4565b5b5f6143a886828701613ee2565b93505060206143b986828701613f48565b92505060406143ca86828701613f48565b9150509250925092565b5f7fff0000000000000000000000000000000000000000000000000000000000000082169050919050565b614408816143d4565b82525050565b5f81519050919050565b5f82825260208201905092915050565b5f819050602082019050919050565b61444081613c9a565b82525050565b5f6144518383614437565b60208301905092915050565b5f602082019050919050565b5f6144738261440e565b61447d8185614418565b935061448883614428565b805f5b838110156144b857815161449f8882614446565b97506144aa8361445d565b92505060018101905061448b565b5085935050505092915050565b5f60e0820190506144d85f83018a6143ff565b81810360208301526144ea8189613e74565b905081810360408301526144fe8188613e74565b905061450d6060830187613ca3565b61451a608083018661428b565b61452760a0830185614263565b81810360c08301526145398184614469565b905098975050505050505050565b5f806040838503121561455d5761455c613cd4565b5b5f61456a85828601613f48565b925050602061457b85828601613f48565b9150509250929050565b61458e816141ed565b8114614598575f80fd5b50565b5f813590506145a981614585565b92915050565b6145b88161425a565b81146145c2575f80fd5b50565b5f813590506145d3816145af565b92915050565b5f805f805f805f60e0888a0312156145f4576145f3613cd4565b5b5f6146018a828b01613f48565b97505060206146128a828b01613f48565b96505060406146238a828b01613ee2565b95505060606146348a828b01613ee2565b94505060806146458a828b0161459b565b93505060a06146568a828b016145c5565b92505060c06146678a828b016145c5565b91505092959891949750929550565b5f8151905061468481613ecc565b92915050565b5f6020828403121561469f5761469e613cd4565b5b5f6146ac84828501614676565b91505092915050565b7f4e487b71000000000000000000000000000000000000000000000000000000005f52602260045260245ffd5b5f60028204905060018216806146f957607f821691505b60208210810361470c5761470b6146b5565b5b50919050565b7f44656c656761746564206973206e6f7420612076616c6964206163636f756e745f82015250565b5f614746602083613e2c565b915061475182614712565b602082019050919050565b5f6020820190508181035f8301526147738161473a565b9050919050565b5f819050919050565b5f67ffffffffffffffff82169050919050565b5f6147b06147ab6147a68461477a565b613dae565b614783565b9050919050565b6147c081614796565b82525050565b5f6020820190506147d95f8301846147b7565b92915050565b7f4f70657261746f72206973206e6f7420612076616c6964206163636f756e74005f82015250565b5f614813601f83613e2c565b915061481e826147df565b602082019050919050565b5f6020820190508181035f83015261484081614807565b9050919050565b5f60608201905061485a5f83018661428b565b6148676020830185613ca3565b6148746040830184613ca3565b949350505050565b7f4e487b71000000000000000000000000000000000000000000000000000000005f52601160045260245ffd5b5f6148b382613c9a565b91506148be83613c9a565b92508282019050808211156148d6576148d561487c565b5b92915050565b5f63ffffffff82169050919050565b6148f4816148dc565b81146148fe575f80fd5b50565b5f8151905061490f816148eb565b92915050565b5f6020828403121561492a57614929613cd4565b5b5f61493784828501614901565b91505092915050565b5f6040820190506149535f83018561428b565b6149606020830184613ca3565b9392505050565b7f4549503731323a20556e696e697469616c697a656400000000000000000000005f82015250565b5f61499b601583613e2c565b91506149a682614967565b602082019050919050565b5f6020820190508181035f8301526149c88161498f565b9050919050565b5f60c0820190506149e25f830189614263565b6149ef602083018861428b565b6149fc604083018761428b565b614a096060830186613ca3565b614a166080830185613ca3565b614a2360a0830184613ca3565b979650505050505050565b5f604082019050614a415f83018561428b565b614a4e602083018461428b565b9392505050565b5f614a5f82613c9a565b9150614a6a83613c9a565b9250828203905081811115614a8257614a8161487c565b5b92915050565b5f8160011c9050919050565b5f808291508390505b6001851115614add57808604811115614ab957614ab861487c565b5b6001851615614ac85780820291505b8081029050614ad685614a88565b9450614a9d565b94509492505050565b5f82614af55760019050614bb0565b81614b02575f9050614bb0565b8160018114614b185760028114614b2257614b51565b6001915050614bb0565b60ff841115614b3457614b3361487c565b5b8360020a915084821115614b4b57614b4a61487c565b5b50614bb0565b5060208310610133831016604e8410600b8410161715614b865782820a905083811115614b8157614b8061487c565b5b614bb0565b614b938484846001614a94565b92509050818404811115614baa57614ba961487c565b5b81810290505b9392505050565b5f614bc182613c9a565b9150614bcc836141ed565b9250614bf97fffffffffffffffffffffffffffffffffffffffffffffffffffffffffffffffff8484614ae6565b905092915050565b5f614c0b826141ed565b9150614c16836141ed565b9250828201905060ff811115614c2f57614c2e61487c565b5b92915050565b5f81519050614c43816142de565b92915050565b5f60208284031215614c5e57614c5d613cd4565b5b5f614c6b84828501614c35565b91505092915050565b5f604082019050614c875f830185613ca3565b614c946020830184613ca3565b9392505050565b7f4e487b71000000000000000000000000000000000000000000000000000000005f52601260045260245ffd5b5f819050815f5260205f209050919050565b5f6020601f8301049050919050565b5f82821b905092915050565b5f60088302614d247fffffffffffffffffffffffffffffffffffffffffffffffffffffffffffffffff82614ce9565b614d2e8683614ce9565b95508019841693508086168417925050509392505050565b5f614d60614d5b614d5684613c9a565b613dae565b613c9a565b9050919050565b5f819050919050565b614d7983614d46565b614d8d614d8582614d67565b848454614cf5565b825550505050565b5f90565b614da1614d95565b614dac818484614d70565b505050565b5b81811015614dcf57614dc45f82614d99565b600181019050614db2565b5050565b601f821115614e1457614de581614cc8565b614dee84614cda565b81016020851015614dfd578190505b614e11614e0985614cda565b830182614db1565b50505b505050565b5f82821c905092915050565b5f614e345f1984600802614e19565b1980831691505092915050565b5f614e4c8383614e25565b9150826002028217905092915050565b614e6582613e22565b67ffffffffffffffff811115614e7e57614e7d613fdd565b5b614e8882546146e2565b614e93828285614dd3565b5f60209050601f831160018114614ec4575f8415614eb2578287015190505b614ebc8582614e41565b865550614f23565b601f198416614ed286614cc8565b5f5b82811015614ef957848901518255600182019150602085019450602081019050614ed4565b86831015614f165784890151614f12601f891682614e25565b8355505b6001600288020188555050505b505050505050565b5f60a082019050614f3e5f830188614263565b614f4b6020830187614263565b614f586040830186614263565b614f656060830185613ca3565b614f72608083018461428b565b9695505050505050565b5f606082019050614f8f5f83018661428b565b614f9c602083018561428b565b614fa96040830184613ca3565b949350505050565b5f608082019050614fc45f830187614263565b614fd160208301866141f9565b614fde6040830185614263565b614feb6060830184614263565b95945050505050565b7f4e487b71000000000000000000000000000000000000000000000000000000005f52602160045260245ffd5b5f61502b826141ed565b9150615036836141ed565b92508261504657615045614c9b565b5b828206905092915050565b5f81519050919050565b5f81905092915050565b5f61506f82615051565b615079818561505b565b9350615089818560208601613e3c565b80840191505092915050565b5f6150a08284615065565b91508190509291505056fea264697066735822122005a512fe5f14ea60a78d8c34467ae579914f4767631bf4361fc9b5aea48867f964736f6c63430008180033","linkReferences":{}},"methodIdentifiers":{"DOMAIN_SEPARATOR()":"3644e515","REGISTRY()":"06433b1b","ROUTER()":"32fe7b26","allowance(address,address)":"dd62ed3e","approve(address,uint256)":"095ea7b3","asset()":"38d52e0f","balanceOf(address)":"70a08231","claimableRedeemRequest(uint256,address)":"eaed1d07","convertToAssets(uint256)":"07a2d13a","convertToShares(uint256)":"c6e6f592","decimals()":"313ce567","delegated()":"cf8db862","deposit(uint256,address)":"6e553f65","eip712Domain()":"84b0196e","initialize(address,address,string,string)":"2016a0d2","isOperator(address,address)":"b6363cf2","lockSlashing(uint256)":"dff81f7d","maxDeposit(address)":"402d267d","maxMint(address)":"c63d75b6","maxRedeem(address)":"d905777e","maxWithdraw(address)":"ce96cb77","mint(uint256,address)":"94bf804d","name()":"06fdde03","nonces(address)":"7ecebe00","pendingRedeemRequest(uint256,address)":"f5a23d8d","permit(address,address,uint256,uint256,uint8,bytes32,bytes32)":"d505accf","previewDeposit(uint256)":"ef8b30f7","previewMint(uint256)":"b3d7f6b9","previewRedeem(uint256)":"4cdad506","previewWithdraw(uint256)":"0a28a477","redeem(uint256,address,address)":"ba087652","requestRedeem(uint256,address,address)":"7d41c86e","setOperator(address,bool)":"558a7297","supportsInterface(bytes4)":"01ffc9a7","symbol()":"95d89b41","totalActiveStaked()":"e49d1232","totalAssets()":"01e1d114","totalSupply()":"18160ddd","transfer(address,uint256)":"a9059cbb","transferFrom(address,address,uint256)":"23b872dd","withdraw(uint256,address,address)":"b460af94"},"id":71}