{"abi":[{"type":"constructor","inputs":[{"name":"registry_","type":"address","internalType":"contract ISLAYRegistryV2"}],"stateMutability":"nonpayable"},{"type":"function","name":"REGISTRY","inputs":[],"outputs":[{"name":"","type":"address","internalType":"contract ISLAYRegistryV2"}],"stateMutability":"view"},{"type":"function","name":"SLASHING_REQUEST_EXPIRY_WINDOW","inputs":[],"outputs":[{"name":"","type":"uint32","internalType":"uint32"}],"stateMutability":"view"},{"type":"function","name":"UPGRADE_INTERFACE_VERSION","inputs":[],"outputs":[{"name":"","type":"string","internalType":"string"}],"stateMutability":"view"},{"type":"function","name":"acceptOwnership","inputs":[],"outputs":[],"stateMutability":"nonpayable"},{"type":"function","name":"cancelSlashing","inputs":[{"name":"slashId","type":"bytes32","internalType":"bytes32"}],"outputs":[],"stateMutability":"nonpayable"},{"type":"function","name":"finalizeSlashing","inputs":[{"name":"slashId","type":"bytes32","internalType":"bytes32"}],"outputs":[],"stateMutability":"nonpayable"},{"type":"function","name":"getLockedAssets","inputs":[{"name":"slashId","type":"bytes32","internalType":"bytes32"}],"outputs":[{"name":"","type":"tuple[]","internalType":"struct ISLAYRouterSlashingV2.LockedAssets[]","components":[{"name":"amount","type":"uint256","internalType":"uint256"},{"name":"vault","type":"address","internalType":"address"}]}],"stateMutability":"view"},{"type":"function","name":"getMaxVaultsPerOperator","inputs":[],"outputs":[{"name":"","type":"uint8","internalType":"uint8"}],"stateMutability":"view"},{"type":"function","name":"getPendingSlashingRequest","inputs":[{"name":"service","type":"address","internalType":"address"},{"name":"operator","type":"address","internalType":"address"}],"outputs":[{"name":"","type":"tuple","internalType":"struct ISLAYRouterSlashingV2.Request","components":[{"name":"status","type":"uint8","internalType":"enum ISLAYRouterSlashingV2.Status"},{"name":"service","type":"address","internalType":"address"},{"name":"mbips","type":"uint24","internalType":"uint24"},{"name":"timestamp","type":"uint32","internalType":"uint32"},{"name":"requestTime","type":"uint32","internalType":"uint32"},{"name":"operator","type":"address","internalType":"address"},{"name":"requestResolution","type":"uint32","internalType":"uint32"},{"name":"requestExpiry","type":"uint32","internalType":"uint32"}]}],"stateMutability":"view"},{"type":"function","name":"getPendingSlashingRequestId","inputs":[{"name":"service","type":"address","internalType":"address"},{"name":"operator","type":"address","internalType":"address"}],"outputs":[{"name":"","type":"bytes32","internalType":"bytes32"}],"stateMutability":"view"},{"type":"function","name":"getSlashingRequest","inputs":[{"name":"slashId","type":"bytes32","internalType":"bytes32"}],"outputs":[{"name":"","type":"tuple","internalType":"struct ISLAYRouterSlashingV2.Request","components":[{"name":"status","type":"uint8","internalType":"enum ISLAYRouterSlashingV2.Status"},{"name":"service","type":"address","internalType":"address"},{"name":"mbips","type":"uint24","internalType":"uint24"},{"name":"timestamp","type":"uint32","internalType":"uint32"},{"name":"requestTime","type":"uint32","internalType":"uint32"},{"name":"operator","type":"address","internalType":"address"},{"name":"requestResolution","type":"uint32","internalType":"uint32"},{"name":"requestExpiry","type":"uint32","internalType":"uint32"}]}],"stateMutability":"view"},{"type":"function","name":"guardrailApprove","inputs":[{"name":"slashId","type":"bytes32","internalType":"bytes32"},{"name":"approve","type":"bool","internalType":"bool"}],"outputs":[],"stateMutability":"nonpayable"},{"type":"function","name":"initialize","inputs":[{"name":"initialOwner","type":"address","internalType":"address"}],"outputs":[],"stateMutability":"nonpayable"},{"type":"function","name":"initialize2","inputs":[],"outputs":[],"stateMutability":"nonpayable"},{"type":"function","name":"initializeAll","inputs":[{"name":"initialOwner","type":"address","internalType":"address"}],"outputs":[],"stateMutability":"nonpayable"},{"type":"function","name":"isVaultWhitelisted","inputs":[{"name":"vault_","type":"address","internalType":"address"}],"outputs":[{"name":"","type":"bool","internalType":"bool"}],"stateMutability":"view"},{"type":"function","name":"lockSlashing","inputs":[{"name":"slashId","type":"bytes32","internalType":"bytes32"}],"outputs":[],"stateMutability":"nonpayable"},{"type":"function","name":"owner","inputs":[],"outputs":[{"name":"","type":"address","internalType":"address"}],"stateMutability":"view"},{"type":"function","name":"pause","inputs":[],"outputs":[],"stateMutability":"nonpayable"},{"type":"function","name":"paused","inputs":[],"outputs":[{"name":"","type":"bool","internalType":"bool"}],"stateMutability":"view"},{"type":"function","name":"pendingOwner","inputs":[],"outputs":[{"name":"","type":"address","internalType":"address"}],"stateMutability":"view"},{"type":"function","name":"proxiableUUID","inputs":[],"outputs":[{"name":"","type":"bytes32","internalType":"bytes32"}],"stateMutability":"view"},{"type":"function","name":"renounceOwnership","inputs":[],"outputs":[],"stateMutability":"nonpayable"},{"type":"function","name":"requestSlashing","inputs":[{"name":"payload","type":"tuple","internalType":"struct ISLAYRouterSlashingV2.Payload","components":[{"name":"operator","type":"address","internalType":"address"},{"name":"mbips","type":"uint24","internalType":"uint24"},{"name":"timestamp","type":"uint32","internalType":"uint32"},{"name":"reason","type":"string","internalType":"string"}]}],"outputs":[{"name":"","type":"bytes32","internalType":"bytes32"}],"stateMutability":"nonpayable"},{"type":"function","name":"setGuardrail","inputs":[{"name":"guardrail","type":"address","internalType":"address"}],"outputs":[],"stateMutability":"nonpayable"},{"type":"function","name":"setMaxVaultsPerOperator","inputs":[{"name":"count","type":"uint8","internalType":"uint8"}],"outputs":[],"stateMutability":"nonpayable"},{"type":"function","name":"setVaultWhitelist","inputs":[{"name":"vault_","type":"address","internalType":"address"},{"name":"isWhitelisted","type":"bool","internalType":"bool"}],"outputs":[],"stateMutability":"nonpayable"},{"type":"function","name":"transferOwnership","inputs":[{"name":"newOwner","type":"address","internalType":"address"}],"outputs":[],"stateMutability":"nonpayable"},{"type":"function","name":"unpause","inputs":[],"outputs":[],"stateMutability":"nonpayable"},{"type":"function","name":"upgradeToAndCall","inputs":[{"name":"newImplementation","type":"address","internalType":"address"},{"name":"data","type":"bytes","internalType":"bytes"}],"outputs":[],"stateMutability":"payable"},{"type":"event","name":"GuardrailApproval","inputs":[{"name":"slashId","type":"bytes32","indexed":true,"internalType":"bytes32"},{"name":"approval","type":"bool","indexed":false,"internalType":"bool"}],"anonymous":false},{"type":"event","name":"GuardrailUpdated","inputs":[{"name":"oldGuardrail","type":"address","indexed":true,"internalType":"address"},{"name":"guardrail","type":"address","indexed":true,"internalType":"address"}],"anonymous":false},{"type":"event","name":"Initialized","inputs":[{"name":"version","type":"uint64","indexed":false,"internalType":"uint64"}],"anonymous":false},{"type":"event","name":"MaxVaultsPerOperatorUpdated","inputs":[{"name":"oldCount","type":"uint8","indexed":false,"internalType":"uint8"},{"name":"count","type":"uint8","indexed":false,"internalType":"uint8"}],"anonymous":false},{"type":"event","name":"OwnershipTransferStarted","inputs":[{"name":"previousOwner","type":"address","indexed":true,"internalType":"address"},{"name":"newOwner","type":"address","indexed":true,"internalType":"address"}],"anonymous":false},{"type":"event","name":"OwnershipTransferred","inputs":[{"name":"previousOwner","type":"address","indexed":true,"internalType":"address"},{"name":"newOwner","type":"address","indexed":true,"internalType":"address"}],"anonymous":false},{"type":"event","name":"Paused","inputs":[{"name":"account","type":"address","indexed":false,"internalType":"address"}],"anonymous":false},{"type":"event","name":"SlashingCanceled","inputs":[{"name":"service","type":"address","indexed":true,"internalType":"address"},{"name":"operator","type":"address","indexed":true,"internalType":"address"},{"name":"slashId","type":"bytes32","indexed":true,"internalType":"bytes32"}],"anonymous":false},{"type":"event","name":"SlashingFinalized","inputs":[{"name":"service","type":"address","indexed":true,"internalType":"address"},{"name":"operator","type":"address","indexed":true,"internalType":"address"},{"name":"slashId","type":"bytes32","indexed":true,"internalType":"bytes32"},{"name":"destination","type":"address","indexed":false,"internalType":"address"}],"anonymous":false},{"type":"event","name":"SlashingLocked","inputs":[{"name":"service","type":"address","indexed":true,"internalType":"address"},{"name":"operator","type":"address","indexed":true,"internalType":"address"},{"name":"slashId","type":"bytes32","indexed":true,"internalType":"bytes32"}],"anonymous":false},{"type":"event","name":"SlashingRequested","inputs":[{"name":"service","type":"address","indexed":true,"internalType":"address"},{"name":"operator","type":"address","indexed":true,"internalType":"address"},{"name":"slashId","type":"bytes32","indexed":true,"internalType":"bytes32"},{"name":"request","type":"tuple","indexed":false,"internalType":"struct ISLAYRouterSlashingV2.Request","components":[{"name":"status","type":"uint8","internalType":"enum ISLAYRouterSlashingV2.Status"},{"name":"service","type":"address","internalType":"address"},{"name":"mbips","type":"uint24","internalType":"uint24"},{"name":"timestamp","type":"uint32","internalType":"uint32"},{"name":"requestTime","type":"uint32","internalType":"uint32"},{"name":"operator","type":"address","internalType":"address"},{"name":"requestResolution","type":"uint32","internalType":"uint32"},{"name":"requestExpiry","type":"uint32","internalType":"uint32"}]},{"name":"reason","type":"string","indexed":false,"internalType":"string"}],"anonymous":false},{"type":"event","name":"Unpaused","inputs":[{"name":"account","type":"address","indexed":false,"internalType":"address"}],"anonymous":false},{"type":"event","name":"Upgraded","inputs":[{"name":"implementation","type":"address","indexed":true,"internalType":"address"}],"anonymous":false},{"type":"event","name":"VaultWhitelisted","inputs":[{"name":"operator","type":"address","indexed":true,"internalType":"address"},{"name":"vault","type":"address","indexed":false,"internalType":"address"},{"name":"whitelisted","type":"bool","indexed":false,"internalType":"bool"}],"anonymous":false},{"type":"error","name":"AddressEmptyCode","inputs":[{"name":"target","type":"address","internalType":"address"}]},{"type":"error","name":"ERC1967InvalidImplementation","inputs":[{"name":"implementation","type":"address","internalType":"address"}]},{"type":"error","name":"ERC1967NonPayable","inputs":[]},{"type":"error","name":"EnforcedPause","inputs":[]},{"type":"error","name":"ExpectedPause","inputs":[]},{"type":"error","name":"FailedCall","inputs":[]},{"type":"error","name":"GuardrailAlreadyApproved","inputs":[]},{"type":"error","name":"GuardrailHaveNotApproved","inputs":[]},{"type":"error","name":"InvalidInitialization","inputs":[]},{"type":"error","name":"InvalidStatus","inputs":[]},{"type":"error","name":"NotInitializing","inputs":[]},{"type":"error","name":"OwnableInvalidOwner","inputs":[{"name":"owner","type":"address","internalType":"address"}]},{"type":"error","name":"OwnableUnauthorizedAccount","inputs":[{"name":"account","type":"address","internalType":"address"}]},{"type":"error","name":"ReentrancyGuardReentrantCall","inputs":[]},{"type":"error","name":"SafeERC20FailedOperation","inputs":[{"name":"token","type":"address","internalType":"address"}]},{"type":"error","name":"ServiceNotFound","inputs":[{"name":"account","type":"address","internalType":"address"}]},{"type":"error","name":"SlashingRequestExpired","inputs":[]},{"type":"error","name":"SlashingRequestNotFound","inputs":[]},{"type":"error","name":"SlashingResolutionNotReached","inputs":[]},{"type":"error","name":"UUPSUnauthorizedCallContext","inputs":[]},{"type":"error","name":"UUPSUnsupportedProxiableUUID","inputs":[{"name":"slot","type":"bytes32","internalType":"bytes32"}]},{"type":"error","name":"Unauthorized","inputs":[]}],"bytecode":{"object":"0x60c06040523060805234801562000014575f80fd5b506040516200449638038062004496833981016040819052620000379162000113565b620000416200005f565b6001600160a01b03811660a052620000586200005f565b5062000142565b7ff0c57e16840df040f15088dc2f81fe391c3923bec73e23a9662efc9c229c6a00805468010000000000000000900460ff1615620000b05760405163f92ee8a960e01b815260040160405180910390fd5b80546001600160401b0390811614620001105780546001600160401b0319166001600160401b0390811782556040519081527fc7f505b2f371ae2175ee4913f4499e1f2633a7b5936321eed1cdaeb6115181d29060200160405180910390a15b50565b5f6020828403121562000124575f80fd5b81516001600160a01b03811681146200013b575f80fd5b9392505050565b60805160a0516142f3620001a35f395f818161020b0152818161080b01528181610d1501528181610f4d015281816110e701528181611d3e01528181611f8801526129a001525f81816130d2015281816130fb015261331701526142f35ff3fe6080604052600436106101c4575f3560e01c806379ba5097116100f2578063ad3cb1cc11610092578063dd71764411610062578063dd7176441461057c578063deec65bc146105a8578063e30c3978146105c7578063f2fde38b146105db575f80fd5b8063ad3cb1cc146104a5578063b2037480146104fa578063b4867fe41461053e578063c4d66de81461055d575f80fd5b80638da5cb5b116100cd5780638da5cb5b1461042657806397da00561461043a5780639916fa021461045b578063acfad6281461047a575f80fd5b806379ba5097146103df5780638456cb59146103f35780638651060d14610407575f80fd5b80633f4ba83a1161016857806352d1902d1161013857806352d1902d1461035657806353dd91f51461036a5780635c975abb14610389578063715018a6146103cb575f80fd5b80633f4ba83a146102fc578063472abf68146103105780634eb30bc9146103245780634f1ef28614610343575f80fd5b806317afb65b116101a357806317afb65b1461027e5780631838efe51461029f5780633302a6a1146102be57806333410dc4146102dd575f80fd5b80622cf9a4146101c857806306433b1b146101fa5780630b78623b14610252575b5f80fd5b3480156101d3575f80fd5b506101e76101e2366004613b5d565b6105fa565b6040519081526020015b60405180910390f35b348015610205575f80fd5b5061022d7f000000000000000000000000000000000000000000000000000000000000000081565b60405173ffffffffffffffffffffffffffffffffffffffff90911681526020016101f1565b34801561025d575f80fd5b5061027161026c366004613b5d565b610633565b6040516101f19190613cc2565b348015610289575f80fd5b5061029d610298366004613cd1565b6107bd565b005b3480156102aa575f80fd5b506101e76102b9366004613ce8565b610cce565b3480156102c9575f80fd5b5061029d6102d8366004613d2c565b61184e565b3480156102e8575f80fd5b5061029d6102f7366004613d58565b611a8d565b348015610307575f80fd5b5061029d611bb5565b34801561031b575f80fd5b5061029d611bc7565b34801561032f575f80fd5b5061029d61033e366004613cd1565b611cf0565b61029d610351366004613def565b61220f565b348015610361575f80fd5b506101e761222a565b348015610375575f80fd5b50610271610384366004613cd1565b612258565b348015610394575f80fd5b507fcd5ed15c6e187e77e9aee88184c21f4f2182ab5827cb3b7e07fbedcd63f033005460ff165b60405190151581526020016101f1565b3480156103d6575f80fd5b5061029d6123b0565b3480156103ea575f80fd5b5061029d6123c1565b3480156103fe575f80fd5b5061029d61243c565b348015610412575f80fd5b5061029d610421366004613eaf565b61244c565b348015610431575f80fd5b5061022d612513565b348015610445575f80fd5b5060015460405160ff90911681526020016101f1565b348015610466575f80fd5b5061029d610475366004613d58565b612554565b348015610485575f80fd5b5061049062093a8081565b60405163ffffffff90911681526020016101f1565b3480156104b0575f80fd5b506104ed6040518060400160405280600581526020017f352e302e3000000000000000000000000000000000000000000000000000000081525081565b6040516101f19190613ef1565b348015610505575f80fd5b506103bb610514366004613d58565b73ffffffffffffffffffffffffffffffffffffffff165f9081526020819052604090205460ff1690565b348015610549575f80fd5b5061029d610558366004613f41565b612565565b348015610568575f80fd5b5061029d610577366004613d58565b612740565b348015610587575f80fd5b5061059b610596366004613cd1565b6128c1565b6040516101f19190613f64565b3480156105b3575f80fd5b5061029d6105c2366004613cd1565b612952565b3480156105d2575f80fd5b5061022d612b83565b3480156105e6575f80fd5b5061029d6105f5366004613d58565b612bab565b73ffffffffffffffffffffffffffffffffffffffff8083165f908152600360209081526040808320938516835292905220545b92915050565b6040805161010080820183525f8083526020808401829052838501829052606084018290526080840182905260a0840182905260c0840182905260e0840182905273ffffffffffffffffffffffffffffffffffffffff8781168352600380835286842091881684529082528583205480845260049092529185902085519384019095528454939490939091839160ff16908111156106d3576106d3613b94565b60038111156106e4576106e4613b94565b8152815473ffffffffffffffffffffffffffffffffffffffff61010082048116602084015262ffffff7501000000000000000000000000000000000000000000830416604084015263ffffffff7801000000000000000000000000000000000000000000000000808404821660608601527c01000000000000000000000000000000000000000000000000000000009093048116608085015260019094015490811660a0840152740100000000000000000000000000000000000000008104841660c08401520490911660e09091015291505092915050565b6107c5612c62565b336040517fe9d8dbfd00000000000000000000000000000000000000000000000000000000815273ffffffffffffffffffffffffffffffffffffffff82811660048301527f0000000000000000000000000000000000000000000000000000000000000000169063e9d8dbfd90602401602060405180830381865afa158015610850573d5f803e3d5ffd5b505050506040513d601f19601f820116820180604052508101906108749190613fc8565b6108c7576040517fb536580700000000000000000000000000000000000000000000000000000000815273ffffffffffffffffffffffffffffffffffffffff821660048201526024015b60405180910390fd5b6108cf612cbe565b5f828152600460205260409020805473ffffffffffffffffffffffffffffffffffffffff610100909104163314610932576040517f82b4290000000000000000000000000000000000000000000000000000000000815260040160405180910390fd5b5f815460ff16600381111561094957610949613b94565b14610980576040517ff525e32000000000000000000000000000000000000000000000000000000000815260040160405180910390fd5b600181015463ffffffff42811678010000000000000000000000000000000000000000000000009092041610156109e3576040517f31e24a9f00000000000000000000000000000000000000000000000000000000815260040160405180910390fd5b600181015463ffffffff42811674010000000000000000000000000000000000000000909204161115610a42576040517f7957063c00000000000000000000000000000000000000000000000000000000815260040160405180910390fd5b805460ff19166001908117825581015473ffffffffffffffffffffffffffffffffffffffff165f90815260026020526040812090610a7f82612d3f565b90505f5b81811015610c4c575f610a968483612d48565b90505f8190505f610b368273ffffffffffffffffffffffffffffffffffffffff166301e1d1146040518163ffffffff1660e01b8152600401602060405180830381865afa158015610ae9573d5f803e3d5ffd5b505050506040513d601f19601f82011682018060405250810190610b0d9190613fe3565b88547501000000000000000000000000000000000000000000900462ffffff1662989680612d5a565b90508015610c41576040517fdff81f7d0000000000000000000000000000000000000000000000000000000081526004810182905273ffffffffffffffffffffffffffffffffffffffff83169063dff81f7d906024015f604051808303815f87803b158015610ba3575f80fd5b505af1158015610bb5573d5f803e3d5ffd5b5050505f8a8152600560209081526040808320815180830190925285825273ffffffffffffffffffffffffffffffffffffffff888116838501908152825460018082018555938752949095209251600290940290920192835592519190920180547fffffffffffffffffffffffff00000000000000000000000000000000000000001691909216179055505b505050600101610a83565b5060018301548354604051879273ffffffffffffffffffffffffffffffffffffffff90811692610100900416907f6e141be0670106fb9241fc2d132fa5597d7decd0184d366414050b782c76ddda905f90a4505050610cca60017f9b779b17422d0df92223018b32b4d1fa46e071723d6817e2486d003becc55f0055565b5050565b5f336040517fe9d8dbfd00000000000000000000000000000000000000000000000000000000815273ffffffffffffffffffffffffffffffffffffffff82811660048301527f0000000000000000000000000000000000000000000000000000000000000000169063e9d8dbfd90602401602060405180830381865afa158015610d5a573d5f803e3d5ffd5b505050506040513d601f19601f82011682018060405250810190610d7e9190613fc8565b610dcc576040517fb536580700000000000000000000000000000000000000000000000000000000815273ffffffffffffffffffffffffffffffffffffffff821660048201526024016108be565b610dd4612c62565b60fa610de36060850185613ffa565b90501115610e4d576040517f08c379a000000000000000000000000000000000000000000000000000000000815260206004820152600f60248201527f726561736f6e20746f6f206c6f6e67000000000000000000000000000000000060448201526064016108be565b5f610e5e6040850160208601614072565b62ffffff1611610eca576040517f08c379a000000000000000000000000000000000000000000000000000000000815260206004820152601160248201527f6d62697073206d757374206265203e203000000000000000000000000000000060448201526064016108be565b42610edb606085016040860161409e565b63ffffffff161115610f49576040517f08c379a000000000000000000000000000000000000000000000000000000000815260206004820152601360248201527f74696d657374616d7020696e206675747572650000000000000000000000000060448201526064016108be565b335f7f000000000000000000000000000000000000000000000000000000000000000073ffffffffffffffffffffffffffffffffffffffff166397c459c483610f956020890189613d58565b610fa560608a0160408b0161409e565b6040517fffffffff0000000000000000000000000000000000000000000000000000000060e086901b16815273ffffffffffffffffffffffffffffffffffffffff938416600482015292909116602483015263ffffffff166044820152606401606060405180830381865afa158015611020573d5f803e3d5ffd5b505050506040513d601f19601f8201168201806040525081019061104491906140b9565b9050806020015162ffffff168560200160208101906110639190614072565b62ffffff1611156110d0576040517f08c379a000000000000000000000000000000000000000000000000000000000815260206004820152601960248201527f6d626970732065786365656473206d617820616c6c6f7765640000000000000060448201526064016108be565b73ffffffffffffffffffffffffffffffffffffffff7f00000000000000000000000000000000000000000000000000000000000000001663b1e508296111196020880188613d58565b6040517fffffffff0000000000000000000000000000000000000000000000000000000060e084901b16815273ffffffffffffffffffffffffffffffffffffffff9091166004820152602401602060405180830381865afa158015611180573d5f803e3d5ffd5b505050506040513d601f19601f820116820180604052508101906111a49190614129565b6111b49063ffffffff1642614171565b6111c4606087016040880161409e565b63ffffffff1611611231576040517f08c379a000000000000000000000000000000000000000000000000000000000815260206004820152601160248201527f74696d657374616d7020746f6f206f6c6400000000000000000000000000000060448201526064016108be565b73ffffffffffffffffffffffffffffffffffffffff82165f908152600360209081526040822090829061126690890189613d58565b73ffffffffffffffffffffffffffffffffffffffff16815260208101919091526040015f205490508015611490575f8181526004602052604090206001815460ff1660038111156112b9576112b9613b94565b03611346576040517f08c379a000000000000000000000000000000000000000000000000000000000815260206004820152603160248201527f50726576696f757320736c617368696e672072657175657374206c696665637960448201527f636c65206e6f7420636f6d706c6574656400000000000000000000000000000060648201526084016108be565b5f815460ff16600381111561135d5761135d613b94565b0361148e57600181015463ffffffff428116780100000000000000000000000000000000000000000000000090920416111561141b576040517f08c379a000000000000000000000000000000000000000000000000000000000815260206004820152603160248201527f50726576696f757320736c617368696e672072657175657374206c696665637960448201527f636c65206e6f7420636f6d706c6574656400000000000000000000000000000060648201526084016108be565b805460ff19166003178155816114346020890189613d58565b73ffffffffffffffffffffffffffffffffffffffff168573ffffffffffffffffffffffffffffffffffffffff167fe3884525a2d5f483253428531619e78f11f1af8cbd2d28311259fd31ef46018a60405160405180910390a45b505b5f8260400151426114a19190614184565b90505f6040518061010001604052805f60038111156114c2576114c2613b94565b81526020018673ffffffffffffffffffffffffffffffffffffffff1681526020018960200160208101906114f69190614072565b62ffffff16815260200161151060608b0160408c0161409e565b63ffffffff1681526020014263ffffffff168152602001895f0160208101906115399190613d58565b73ffffffffffffffffffffffffffffffffffffffff16815263ffffffff8416602082015260400161156d62093a8085614184565b63ffffffff169052905061158081612e30565b73ffffffffffffffffffffffffffffffffffffffff86165f9081526003602090815260408220929550859291906115b9908c018c613d58565b73ffffffffffffffffffffffffffffffffffffffff16815260208082019290925260409081015f90812093909355858352600490915290208151815483929190829060ff1916600183600381111561161357611613613b94565b0217905550602082810151825460408501516060860151608087015163ffffffff9081167c0100000000000000000000000000000000000000000000000000000000027bffffffffffffffffffffffffffffffffffffffffffffffffffffffff92821678010000000000000000000000000000000000000000000000009081029390931677ffffffffffffffffffffffffffffffffffffffffffffffff62ffffff9095167501000000000000000000000000000000000000000000027fffffffffffffffff000000ffffffffffffffffffffffffffffffffffffffffff73ffffffffffffffffffffffffffffffffffffffff98891661010002167fffffffffffffffff0000000000000000000000000000000000000000000000ff9097169690961795909517939093169390931791909117855560a08601516001909501805460c088015160e09098015184169092029690921674010000000000000000000000000000000000000000027fffffffffffffffff0000000000000000000000000000000000000000000000009091169490921693909317177fffffffff00000000ffffffffffffffffffffffffffffffffffffffffffffffff1692909217905583906117e1908a018a613d58565b73ffffffffffffffffffffffffffffffffffffffff9081169087167f1928f55cc7948e65b5fd8b65349e79b0970a639acc7f5f308bcd1808e0ecdb8e8461182b60608e018e613ffa565b60405161183a939291906141a1565b60405180910390a450909695505050505050565b611856612ed7565b73ffffffffffffffffffffffffffffffffffffffff82165f9081526020819052604090205481151560ff9091161515036118ec576040517f08c379a000000000000000000000000000000000000000000000000000000000815260206004820152601e60248201527f5661756c7420616c726561647920696e2064657369726564207374617465000060448201526064016108be565b5f8273ffffffffffffffffffffffffffffffffffffffff1663cf8db8626040518163ffffffff1660e01b8152600401602060405180830381865afa158015611936573d5f803e3d5ffd5b505050506040513d601f19601f8201168201806040525081019061195a9190614200565b73ffffffffffffffffffffffffffffffffffffffff81165f9081526002602052604090209091508215611a0d5760015460ff1661199682612d3f565b106119fd576040517f08c379a000000000000000000000000000000000000000000000000000000000815260206004820152601f60248201527f45786365656473206d6178207661756c747320706572206f70657261746f720060448201526064016108be565b611a078185612f2f565b50611a19565b611a178185612f50565b505b73ffffffffffffffffffffffffffffffffffffffff8481165f8181526020818152604091829020805460ff1916881515908117909155825193845290830152918416917f2ffaf20674bccc4ab0c9dd20b627f4ed9a43dc5232ed18a32410ad4207fc176b910160405180910390a250505050565b611a95612ed7565b73ffffffffffffffffffffffffffffffffffffffff8116611b38576040517f08c379a000000000000000000000000000000000000000000000000000000000815260206004820152602160248201527f47756172647261696c20616464726573732063616e6e6f7420626520656d707460448201527f790000000000000000000000000000000000000000000000000000000000000060648201526084016108be565b6001805473ffffffffffffffffffffffffffffffffffffffff8381166101008181027fffffffffffffffffffffff0000000000000000000000000000000000000000ff85161790945560405193909204169182907fe48a815386a6ba32bdcfe3b82f31e254f5e3e0549da4cddc175ff7d296ad5a5a905f90a35050565b611bbd612ed7565b611bc5612f71565b565b60025f611bd2612ff0565b805490915068010000000000000000900460ff1680611bff5750805467ffffffffffffffff808416911610155b15611c36576040517ff92ee8a900000000000000000000000000000000000000000000000000000000815260040160405180910390fd5b80547fffffffffffffffffffffffffffffffffffffffffffffff0000000000000000001667ffffffffffffffff83161768010000000000000000178155611c7b613018565b6001805460ff1916600a17905580547fffffffffffffffffffffffffffffffffffffffffffffff00ffffffffffffffff16815560405167ffffffffffffffff831681527fc7f505b2f371ae2175ee4913f4499e1f2633a7b5936321eed1cdaeb6115181d2906020015b60405180910390a15050565b611cf8612c62565b336040517fe9d8dbfd00000000000000000000000000000000000000000000000000000000815273ffffffffffffffffffffffffffffffffffffffff82811660048301527f0000000000000000000000000000000000000000000000000000000000000000169063e9d8dbfd90602401602060405180830381865afa158015611d83573d5f803e3d5ffd5b505050506040513d601f19601f82011682018060405250810190611da79190613fc8565b611df5576040517fb536580700000000000000000000000000000000000000000000000000000000815273ffffffffffffffffffffffffffffffffffffffff821660048201526024016108be565b611dfd612cbe565b5f828152600460205260409020805473ffffffffffffffffffffffffffffffffffffffff610100909104163314611e60576040517f82b4290000000000000000000000000000000000000000000000000000000000815260040160405180910390fd5b6001815460ff166003811115611e7857611e78613b94565b14611eaf576040517ff525e32000000000000000000000000000000000000000000000000000000000815260040160405180910390fd5b5f8381526006602052604090205460ff16600114611ef9576040517f05694d1d00000000000000000000000000000000000000000000000000000000815260040160405180910390fd5b805460ff191660021780825560018201546040517f97c459c400000000000000000000000000000000000000000000000000000000815273ffffffffffffffffffffffffffffffffffffffff610100840481166004830152918216602482015263ffffffff78010000000000000000000000000000000000000000000000009093049290921660448301525f917f0000000000000000000000000000000000000000000000000000000000000000909116906397c459c490606401606060405180830381865afa158015611fcf573d5f803e3d5ffd5b505050506040513d601f19601f82011682018060405250810190611ff391906140b9565b5f8581526005602052604081209192505b8154811015612145575f8282815481106120205761202061421b565b5f918252602090912060029091020160018101548154855492935073ffffffffffffffffffffffffffffffffffffffff909116918590859081106120665761206661421b565b5f91825260208083206002909202909101918255600190910180547fffffffffffffffffffffffff0000000000000000000000000000000000000000169055604080517f38d52e0f000000000000000000000000000000000000000000000000000000008152905161213a9273ffffffffffffffffffffffffffffffffffffffff8616926338d52e0f92600480830193928290030181865afa15801561210e573d5f803e3d5ffd5b505050506040513d601f19601f820116820180604052508101906121329190614200565b875183613028565b505050600101612004565b505f85815260056020526040812061215c91613ae1565b825473ffffffffffffffffffffffffffffffffffffffff6101009182900481165f9081526003602090815260408083206001890180548616855290835281842093909355915487548751935193851684528a959185169491900416917f82a1d74d3c1a7982ea75f5e68c0964c3309fc5ddfc6e1f1d2fb6b10eacce91e6910160405180910390a4505050610cca60017f9b779b17422d0df92223018b32b4d1fa46e071723d6817e2486d003becc55f0055565b6122176130ba565b612220826131be565b610cca82826131c6565b5f6122336132ff565b507f360894a13ba1a3210667c828492db98dca3e2076cc3735a920a3ca505d382bbc90565b60408051610100810182525f80825260208201819052918101829052606081018290526080810182905260a0810182905260c0810182905260e08101919091525f8281526004602052604090819020815161010081019092528054829060ff1660038111156122c9576122c9613b94565b60038111156122da576122da613b94565b8152815473ffffffffffffffffffffffffffffffffffffffff61010082048116602084015262ffffff7501000000000000000000000000000000000000000000830416604084015263ffffffff7801000000000000000000000000000000000000000000000000808404821660608601527c01000000000000000000000000000000000000000000000000000000009093048116608085015260019094015490811660a0840152740100000000000000000000000000000000000000008104841660c08401520490911660e09091015292915050565b6123b8612ed7565b611bc55f61336e565b33806123cb612b83565b73ffffffffffffffffffffffffffffffffffffffff1614612430576040517f118cdaa700000000000000000000000000000000000000000000000000000000815273ffffffffffffffffffffffffffffffffffffffff821660048201526024016108be565b6124398161336e565b50565b612444612ed7565b611bc56133be565b612454612ed7565b60015460ff90811690821681106124c7576040517f08c379a000000000000000000000000000000000000000000000000000000000815260206004820152601c60248201527f4d7573742062652067726561746572207468616e2063757272656e740000000060448201526064016108be565b6001805460ff191660ff84811691821790925560408051928416835260208301919091527f7f272733435a5c1171c60918325413034d8465dddd58e7830c74d20840f5a0c09101611ce4565b5f807f9016d09d72d40fdae2fd8ceac6b6234c7706214fd39c1cd1e609a0528c1993005b5473ffffffffffffffffffffffffffffffffffffffff1692915050565b61255d81612740565b612439611bc7565b61256d612c62565b600154610100900473ffffffffffffffffffffffffffffffffffffffff166125c1576040517f82b4290000000000000000000000000000000000000000000000000000000000815260040160405180910390fd5b600154610100900473ffffffffffffffffffffffffffffffffffffffff163373ffffffffffffffffffffffffffffffffffffffff161461262d576040517f82b4290000000000000000000000000000000000000000000000000000000000815260040160405180910390fd5b5f8281526004602052604090208054610100900473ffffffffffffffffffffffffffffffffffffffff1661268d576040517fc191eff900000000000000000000000000000000000000000000000000000000815260040160405180910390fd5b5f8381526006602052604090205460ff16156126d5576040517fd459285700000000000000000000000000000000000000000000000000000000815260040160405180910390fd5b816126e15760026126e4565b60015b5f84815260066020908152604091829020805460ff191660ff949094169390931790925551831515815284917f098a812d9d10a266b1a99ac5ec25f2cbf779f49d2cacf9c58eb35edea7df6842910160405180910390a2505050565b5f612749612ff0565b805490915060ff68010000000000000000820416159067ffffffffffffffff165f811580156127755750825b90505f8267ffffffffffffffff1660011480156127915750303b155b90508115801561279f575080155b156127d6576040517ff92ee8a900000000000000000000000000000000000000000000000000000000815260040160405180910390fd5b84547fffffffffffffffffffffffffffffffffffffffffffffffff000000000000000016600117855583156128375784547fffffffffffffffffffffffffffffffffffffffffffffff00ffffffffffffffff16680100000000000000001785555b61284086613419565b61284861342a565b61285061342a565b61285861342a565b83156128b95784547fffffffffffffffffffffffffffffffffffffffffffffff00ffffffffffffffff168555604051600181527fc7f505b2f371ae2175ee4913f4499e1f2633a7b5936321eed1cdaeb6115181d29060200160405180910390a15b505050505050565b606060055f8381526020019081526020015f20805480602002602001604051908101604052809291908181526020015f905b82821015612947575f84815260209081902060408051808201909152600285029091018054825260019081015473ffffffffffffffffffffffffffffffffffffffff168284015290835290920191016128f3565b505050509050919050565b61295a612c62565b336040517fe9d8dbfd00000000000000000000000000000000000000000000000000000000815273ffffffffffffffffffffffffffffffffffffffff82811660048301527f0000000000000000000000000000000000000000000000000000000000000000169063e9d8dbfd90602401602060405180830381865afa1580156129e5573d5f803e3d5ffd5b505050506040513d601f19601f82011682018060405250810190612a099190613fc8565b612a57576040517fb536580700000000000000000000000000000000000000000000000000000000815273ffffffffffffffffffffffffffffffffffffffff821660048201526024016108be565b5f8281526004602052604090208054339190610100900473ffffffffffffffffffffffffffffffffffffffff168214612abc576040517f82b4290000000000000000000000000000000000000000000000000000000000815260040160405180910390fd5b5f815460ff166003811115612ad357612ad3613b94565b14612b0a576040517ff525e32000000000000000000000000000000000000000000000000000000000815260040160405180910390fd5b805460ff19166003908117825573ffffffffffffffffffffffffffffffffffffffff8381165f81815260209384526040808220600187018054861684529552808220829055935493518894909316927fe3884525a2d5f483253428531619e78f11f1af8cbd2d28311259fd31ef46018a9190a450505050565b5f807f237e158222e3e6968b72b9db0d8043aacf074ad9f650f0d1606b4d82ee432c00612537565b612bb3612ed7565b7f237e158222e3e6968b72b9db0d8043aacf074ad9f650f0d1606b4d82ee432c0080547fffffffffffffffffffffffff00000000000000000000000000000000000000001673ffffffffffffffffffffffffffffffffffffffff83169081178255612c1c612513565b73ffffffffffffffffffffffffffffffffffffffff167f38d16b8cac22d99fc7c124b9cd0de2d3fa1faef420bfe791d8c362d765e2270060405160405180910390a35050565b7fcd5ed15c6e187e77e9aee88184c21f4f2182ab5827cb3b7e07fbedcd63f033005460ff1615611bc5576040517fd93c066500000000000000000000000000000000000000000000000000000000815260040160405180910390fd5b7f9b779b17422d0df92223018b32b4d1fa46e071723d6817e2486d003becc55f0080547ffffffffffffffffffffffffffffffffffffffffffffffffffffffffffffffffe01612d39576040517f3ee5aeb500000000000000000000000000000000000000000000000000000000815260040160405180910390fd5b60029055565b5f61062d825490565b5f612d538383613432565b9392505050565b5f805f612d678686613458565b91509150815f03612d8b57838181612d8157612d81614248565b0492505050612d53565b818411612da257612da26003851502601118613493565b5f848688095f868103871696879004966002600389028118808a02820302808a02820302808a02820302808a02820302808a02820302808a02909103029181900381900460010185841190960395909502919093039390930492909217029150509392505050565b60017f9b779b17422d0df92223018b32b4d1fa46e071723d6817e2486d003becc55f0055565b6020808201516040808401516060850151608086015160a087015160c088015160e089015195515f98612eba9897910173ffffffffffffffffffffffffffffffffffffffff978816815262ffffff96909616602087015263ffffffff948516604087015292841660608601529416608084015292811660a08301529190911660c082015260e00190565b604051602081830303815290604052805190602001209050919050565b33612ee0612513565b73ffffffffffffffffffffffffffffffffffffffff1614611bc5576040517f118cdaa70000000000000000000000000000000000000000000000000000000081523360048201526024016108be565b5f612d538373ffffffffffffffffffffffffffffffffffffffff84166134a4565b5f612d538373ffffffffffffffffffffffffffffffffffffffff84166134f0565b612f796135da565b7fcd5ed15c6e187e77e9aee88184c21f4f2182ab5827cb3b7e07fbedcd63f03300805460ff191681557f5db9ee0a495bf2e6ff9c91a7834c1ba4fdd244a5e8aa4e537bd38aeae4b073aa335b60405173ffffffffffffffffffffffffffffffffffffffff909116815260200160405180910390a150565b5f807ff0c57e16840df040f15088dc2f81fe391c3923bec73e23a9662efc9c229c6a0061062d565b613020613635565b611bc5613673565b6040805173ffffffffffffffffffffffffffffffffffffffff8416602482015260448082018490528251808303909101815260649091019091526020810180517bffffffffffffffffffffffffffffffffffffffffffffffffffffffff167fa9059cbb000000000000000000000000000000000000000000000000000000001790526130b590849061367b565b505050565b3073ffffffffffffffffffffffffffffffffffffffff7f000000000000000000000000000000000000000000000000000000000000000016148061318757507f000000000000000000000000000000000000000000000000000000000000000073ffffffffffffffffffffffffffffffffffffffff1661316e7f360894a13ba1a3210667c828492db98dca3e2076cc3735a920a3ca505d382bbc5473ffffffffffffffffffffffffffffffffffffffff1690565b73ffffffffffffffffffffffffffffffffffffffff1614155b15611bc5576040517fe07c8dba00000000000000000000000000000000000000000000000000000000815260040160405180910390fd5b612439612ed7565b8173ffffffffffffffffffffffffffffffffffffffff166352d1902d6040518163ffffffff1660e01b8152600401602060405180830381865afa92505050801561324b575060408051601f3d9081017fffffffffffffffffffffffffffffffffffffffffffffffffffffffffffffffe016820190925261324891810190613fe3565b60015b613299576040517f4c9c8ce300000000000000000000000000000000000000000000000000000000815273ffffffffffffffffffffffffffffffffffffffff831660048201526024016108be565b7f360894a13ba1a3210667c828492db98dca3e2076cc3735a920a3ca505d382bbc81146132f5576040517faa1d49a4000000000000000000000000000000000000000000000000000000008152600481018290526024016108be565b6130b58383613720565b3073ffffffffffffffffffffffffffffffffffffffff7f00000000000000000000000000000000000000000000000000000000000000001614611bc5576040517fe07c8dba00000000000000000000000000000000000000000000000000000000815260040160405180910390fd5b7f237e158222e3e6968b72b9db0d8043aacf074ad9f650f0d1606b4d82ee432c0080547fffffffffffffffffffffffff0000000000000000000000000000000000000000168155610cca82613782565b6133c6612c62565b7fcd5ed15c6e187e77e9aee88184c21f4f2182ab5827cb3b7e07fbedcd63f03300805460ff191660011781557f62e78cea01bee320cd4e420270b5ea74000d11b0c9f74754ebdbfc544b05a25833612fc5565b613421613635565b61243981613817565b611bc5613635565b5f825f0182815481106134475761344761421b565b905f5260205f200154905092915050565b5f807fffffffffffffffffffffffffffffffffffffffffffffffffffffffffffffffff83850993909202808410938190039390930393915050565b634e487b715f52806020526024601cfd5b5f8181526001830160205260408120546134e957508154600181810184555f84815260208082209093018490558454848252828601909352604090209190915561062d565b505f61062d565b5f81815260018301602052604081205480156135ca575f613512600183614171565b85549091505f9061352590600190614171565b9050808214613584575f865f0182815481106135435761354361421b565b905f5260205f200154905080875f0184815481106135635761356361421b565b5f918252602080832090910192909255918252600188019052604090208390555b855486908061359557613595614275565b600190038181905f5260205f20015f90559055856001015f8681526020019081526020015f205f90556001935050505061062d565b5f91505061062d565b5092915050565b7fcd5ed15c6e187e77e9aee88184c21f4f2182ab5827cb3b7e07fbedcd63f033005460ff16611bc5576040517f8dfc202b00000000000000000000000000000000000000000000000000000000815260040160405180910390fd5b61363d61386e565b611bc5576040517fd7e6bcf800000000000000000000000000000000000000000000000000000000815260040160405180910390fd5b612e0a613635565b5f8060205f8451602086015f885af18061369a576040513d5f823e3d81fd5b50505f513d915081156136b15780600114156136cb565b73ffffffffffffffffffffffffffffffffffffffff84163b155b1561371a576040517f5274afe700000000000000000000000000000000000000000000000000000000815273ffffffffffffffffffffffffffffffffffffffff851660048201526024016108be565b50505050565b6137298261388c565b60405173ffffffffffffffffffffffffffffffffffffffff8316907fbc7cd75a20ee27fd9adebab32041f755214dbc6bffa90cc0225b39da2e5c2d3b905f90a280511561377a576130b5828261395a565b610cca6139d9565b7f9016d09d72d40fdae2fd8ceac6b6234c7706214fd39c1cd1e609a0528c19930080547fffffffffffffffffffffffff0000000000000000000000000000000000000000811673ffffffffffffffffffffffffffffffffffffffff848116918217845560405192169182907f8be0079c531659141344cd1fd0a4f28419497f9722a3daafe3b4186f6b6457e0905f90a3505050565b61381f613635565b73ffffffffffffffffffffffffffffffffffffffff8116612430576040517f1e4fbdf70000000000000000000000000000000000000000000000000000000081525f60048201526024016108be565b5f613877612ff0565b5468010000000000000000900460ff16919050565b8073ffffffffffffffffffffffffffffffffffffffff163b5f036138f4576040517f4c9c8ce300000000000000000000000000000000000000000000000000000000815273ffffffffffffffffffffffffffffffffffffffff821660048201526024016108be565b7f360894a13ba1a3210667c828492db98dca3e2076cc3735a920a3ca505d382bbc80547fffffffffffffffffffffffff00000000000000000000000000000000000000001673ffffffffffffffffffffffffffffffffffffffff92909216919091179055565b60605f808473ffffffffffffffffffffffffffffffffffffffff168460405161398391906142a2565b5f60405180830381855af49150503d805f81146139bb576040519150601f19603f3d011682016040523d82523d5f602084013e6139c0565b606091505b50915091506139d0858383613a11565b95945050505050565b3415611bc5576040517fb398979f00000000000000000000000000000000000000000000000000000000815260040160405180910390fd5b606082613a2657613a2182613aa0565b612d53565b8151158015613a4a575073ffffffffffffffffffffffffffffffffffffffff84163b155b15613a99576040517f9996b31500000000000000000000000000000000000000000000000000000000815273ffffffffffffffffffffffffffffffffffffffff851660048201526024016108be565b5080612d53565b805115613aaf57805160208201fd5b6040517fd6bda27500000000000000000000000000000000000000000000000000000000815260040160405180910390fd5b5080545f8255600202905f5260205f209081019061243991905b80821115613b38575f81556001810180547fffffffffffffffffffffffff0000000000000000000000000000000000000000169055600201613afb565b5090565b73ffffffffffffffffffffffffffffffffffffffff81168114612439575f80fd5b5f8060408385031215613b6e575f80fd5b8235613b7981613b3c565b91506020830135613b8981613b3c565b809150509250929050565b7f4e487b71000000000000000000000000000000000000000000000000000000005f52602160045260245ffd5b805160048110613bf8577f4e487b71000000000000000000000000000000000000000000000000000000005f52602160045260245ffd5b808352506020810151613c23602084018273ffffffffffffffffffffffffffffffffffffffff169052565b506040810151613c3a604084018262ffffff169052565b506060810151613c52606084018263ffffffff169052565b506080810151613c6a608084018263ffffffff169052565b5060a0810151613c9260a084018273ffffffffffffffffffffffffffffffffffffffff169052565b5060c0810151613caa60c084018263ffffffff169052565b5060e08101516130b560e084018263ffffffff169052565b610100810161062d8284613bc1565b5f60208284031215613ce1575f80fd5b5035919050565b5f60208284031215613cf8575f80fd5b813567ffffffffffffffff811115613d0e575f80fd5b820160808185031215612d53575f80fd5b8015158114612439575f80fd5b5f8060408385031215613d3d575f80fd5b8235613d4881613b3c565b91506020830135613b8981613d1f565b5f60208284031215613d68575f80fd5b8135612d5381613b3c565b7f4e487b71000000000000000000000000000000000000000000000000000000005f52604160045260245ffd5b604051601f82017fffffffffffffffffffffffffffffffffffffffffffffffffffffffffffffffe016810167ffffffffffffffff81118282101715613de757613de7613d73565b604052919050565b5f8060408385031215613e00575f80fd5b8235613e0b81613b3c565b915060208381013567ffffffffffffffff80821115613e28575f80fd5b818601915086601f830112613e3b575f80fd5b813581811115613e4d57613e4d613d73565b613e7d847fffffffffffffffffffffffffffffffffffffffffffffffffffffffffffffffe0601f84011601613da0565b91508082528784828501011115613e92575f80fd5b80848401858401375f848284010152508093505050509250929050565b5f60208284031215613ebf575f80fd5b813560ff81168114612d53575f80fd5b5f5b83811015613ee9578181015183820152602001613ed1565b50505f910152565b602081525f8251806020840152613f0f816040850160208701613ecf565b601f017fffffffffffffffffffffffffffffffffffffffffffffffffffffffffffffffe0169190910160400192915050565b5f8060408385031215613f52575f80fd5b823591506020830135613b8981613d1f565b602080825282518282018190525f919060409081850190868401855b82811015613fbb5781518051855286015173ffffffffffffffffffffffffffffffffffffffff16868501529284019290850190600101613f80565b5091979650505050505050565b5f60208284031215613fd8575f80fd5b8151612d5381613d1f565b5f60208284031215613ff3575f80fd5b5051919050565b5f8083357fffffffffffffffffffffffffffffffffffffffffffffffffffffffffffffffe184360301811261402d575f80fd5b83018035915067ffffffffffffffff821115614047575f80fd5b60200191503681900382131561405b575f80fd5b9250929050565b62ffffff81168114612439575f80fd5b5f60208284031215614082575f80fd5b8135612d5381614062565b63ffffffff81168114612439575f80fd5b5f602082840312156140ae575f80fd5b8135612d538161408d565b5f606082840312156140c9575f80fd5b6040516060810181811067ffffffffffffffff821117156140ec576140ec613d73565b60405282516140fa81613b3c565b8152602083015161410a81614062565b6020820152604083015161411d8161408d565b60408201529392505050565b5f60208284031215614139575f80fd5b8151612d538161408d565b7f4e487b71000000000000000000000000000000000000000000000000000000005f52601160045260245ffd5b8181038181111561062d5761062d614144565b63ffffffff8181168382160190808211156135d3576135d3614144565b5f6101206141af8387613bc1565b806101008401528381840152506101408385828501375f838501820152601f9093017fffffffffffffffffffffffffffffffffffffffffffffffffffffffffffffffe0169091019091019392505050565b5f60208284031215614210575f80fd5b8151612d5381613b3c565b7f4e487b71000000000000000000000000000000000000000000000000000000005f52603260045260245ffd5b7f4e487b71000000000000000000000000000000000000000000000000000000005f52601260045260245ffd5b7f4e487b71000000000000000000000000000000000000000000000000000000005f52603160045260245ffd5b5f82516142b3818460208701613ecf565b919091019291505056fea26469706673582212203aaf5b59ea731068c94c8ad5d7f476a6860cd04e059c6bdf693de2cec8b90ad164736f6c63430008160033","linkReferences":{}},"methodIdentifiers":{"REGISTRY()":"06433b1b","SLASHING_REQUEST_EXPIRY_WINDOW()":"acfad628","UPGRADE_INTERFACE_VERSION()":"ad3cb1cc","acceptOwnership()":"79ba5097","cancelSlashing(bytes32)":"deec65bc","finalizeSlashing(bytes32)":"4eb30bc9","getLockedAssets(bytes32)":"dd717644","getMaxVaultsPerOperator()":"97da0056","getPendingSlashingRequest(address,address)":"0b78623b","getPendingSlashingRequestId(address,address)":"002cf9a4","getSlashingRequest(bytes32)":"53dd91f5","guardrailApprove(bytes32,bool)":"b4867fe4","initialize(address)":"c4d66de8","initialize2()":"472abf68","initializeAll(address)":"9916fa02","isVaultWhitelisted(address)":"b2037480","lockSlashing(bytes32)":"17afb65b","owner()":"8da5cb5b","pause()":"8456cb59","paused()":"5c975abb","pendingOwner()":"e30c3978","proxiableUUID()":"52d1902d","renounceOwnership()":"715018a6","requestSlashing((address,uint24,uint32,string))":"1838efe5","setGuardrail(address)":"33410dc4","setMaxVaultsPerOperator(uint8)":"8651060d","setVaultWhitelist(address,bool)":"3302a6a1","transferOwnership(address)":"f2fde38b","unpause()":"3f4ba83a","upgradeToAndCall(address,bytes)":"4f1ef286"},"id":91}