{"abi":[{"type":"constructor","inputs":[{"name":"router_","type":"address","internalType":"contract ISLAYRouterV2"}],"stateMutability":"nonpayable"},{"type":"function","name":"ROUTER","inputs":[],"outputs":[{"name":"","type":"address","internalType":"contract ISLAYRouterV2"}],"stateMutability":"view"},{"type":"function","name":"UPGRADE_INTERFACE_VERSION","inputs":[],"outputs":[{"name":"","type":"string","internalType":"string"}],"stateMutability":"view"},{"type":"function","name":"acceptOwnership","inputs":[],"outputs":[],"stateMutability":"nonpayable"},{"type":"function","name":"approveSlashingFor","inputs":[{"name":"service","type":"address","internalType":"address"}],"outputs":[],"stateMutability":"nonpayable"},{"type":"function","name":"defaultWithdrawalDelay","inputs":[],"outputs":[{"name":"","type":"uint32","internalType":"uint32"}],"stateMutability":"view"},{"type":"function","name":"deregisterOperatorFromService","inputs":[{"name":"operator","type":"address","internalType":"address"}],"outputs":[],"stateMutability":"nonpayable"},{"type":"function","name":"deregisterServiceFromOperator","inputs":[{"name":"service","type":"address","internalType":"address"}],"outputs":[],"stateMutability":"nonpayable"},{"type":"function","name":"disableSlashing","inputs":[],"outputs":[],"stateMutability":"nonpayable"},{"type":"function","name":"enableSlashing","inputs":[{"name":"parameter","type":"tuple","internalType":"struct ISLAYRegistryV2.SlashParameter","components":[{"name":"destination","type":"address","internalType":"address"},{"name":"maxMbips","type":"uint24","internalType":"uint24"},{"name":"resolutionWindow","type":"uint32","internalType":"uint32"}]}],"outputs":[],"stateMutability":"nonpayable"},{"type":"function","name":"getActiveOperatorCount","inputs":[{"name":"service","type":"address","internalType":"address"}],"outputs":[{"name":"","type":"uint256","internalType":"uint256"}],"stateMutability":"view"},{"type":"function","name":"getActiveServiceCount","inputs":[{"name":"operator","type":"address","internalType":"address"}],"outputs":[{"name":"","type":"uint256","internalType":"uint256"}],"stateMutability":"view"},{"type":"function","name":"getMaxActiveRelationships","inputs":[],"outputs":[{"name":"","type":"uint8","internalType":"uint8"}],"stateMutability":"view"},{"type":"function","name":"getMinWithdrawalDelay","inputs":[{"name":"service","type":"address","internalType":"address"}],"outputs":[{"name":"","type":"uint32","internalType":"uint32"}],"stateMutability":"view"},{"type":"function","name":"getRelationshipStatus","inputs":[{"name":"service","type":"address","internalType":"address"},{"name":"operator","type":"address","internalType":"address"}],"outputs":[{"name":"","type":"uint8","internalType":"enum RelationshipV2.Status"}],"stateMutability":"view"},{"type":"function","name":"getRelationshipStatusAt","inputs":[{"name":"service","type":"address","internalType":"address"},{"name":"operator","type":"address","internalType":"address"},{"name":"timestamp","type":"uint32","internalType":"uint32"}],"outputs":[{"name":"","type":"uint8","internalType":"enum RelationshipV2.Status"}],"stateMutability":"view"},{"type":"function","name":"getSlashParameter","inputs":[{"name":"service","type":"address","internalType":"address"}],"outputs":[{"name":"","type":"tuple","internalType":"struct ISLAYRegistryV2.SlashParameter","components":[{"name":"destination","type":"address","internalType":"address"},{"name":"maxMbips","type":"uint24","internalType":"uint24"},{"name":"resolutionWindow","type":"uint32","internalType":"uint32"}]}],"stateMutability":"view"},{"type":"function","name":"getSlashParameterAt","inputs":[{"name":"service","type":"address","internalType":"address"},{"name":"operator","type":"address","internalType":"address"},{"name":"timestamp","type":"uint32","internalType":"uint32"}],"outputs":[{"name":"","type":"tuple","internalType":"struct ISLAYRegistryV2.SlashParameter","components":[{"name":"destination","type":"address","internalType":"address"},{"name":"maxMbips","type":"uint24","internalType":"uint24"},{"name":"resolutionWindow","type":"uint32","internalType":"uint32"}]}],"stateMutability":"view"},{"type":"function","name":"getWithdrawalDelay","inputs":[{"name":"operator","type":"address","internalType":"address"}],"outputs":[{"name":"","type":"uint32","internalType":"uint32"}],"stateMutability":"view"},{"type":"function","name":"initialize","inputs":[{"name":"initialOwner","type":"address","internalType":"address"}],"outputs":[],"stateMutability":"nonpayable"},{"type":"function","name":"initialize2","inputs":[],"outputs":[],"stateMutability":"nonpayable"},{"type":"function","name":"isOperator","inputs":[{"name":"account","type":"address","internalType":"address"}],"outputs":[{"name":"","type":"bool","internalType":"bool"}],"stateMutability":"view"},{"type":"function","name":"isService","inputs":[{"name":"account","type":"address","internalType":"address"}],"outputs":[{"name":"","type":"bool","internalType":"bool"}],"stateMutability":"view"},{"type":"function","name":"owner","inputs":[],"outputs":[{"name":"","type":"address","internalType":"address"}],"stateMutability":"view"},{"type":"function","name":"pause","inputs":[],"outputs":[],"stateMutability":"nonpayable"},{"type":"function","name":"paused","inputs":[],"outputs":[{"name":"","type":"bool","internalType":"bool"}],"stateMutability":"view"},{"type":"function","name":"pendingOwner","inputs":[],"outputs":[{"name":"","type":"address","internalType":"address"}],"stateMutability":"view"},{"type":"function","name":"proxiableUUID","inputs":[],"outputs":[{"name":"","type":"bytes32","internalType":"bytes32"}],"stateMutability":"view"},{"type":"function","name":"registerAsOperator","inputs":[{"name":"uri","type":"string","internalType":"string"},{"name":"name","type":"string","internalType":"string"}],"outputs":[],"stateMutability":"nonpayable"},{"type":"function","name":"registerAsService","inputs":[{"name":"uri","type":"string","internalType":"string"},{"name":"name","type":"string","internalType":"string"}],"outputs":[],"stateMutability":"nonpayable"},{"type":"function","name":"registerOperatorToService","inputs":[{"name":"operator","type":"address","internalType":"address"}],"outputs":[],"stateMutability":"nonpayable"},{"type":"function","name":"registerServiceToOperator","inputs":[{"name":"service","type":"address","internalType":"address"}],"outputs":[],"stateMutability":"nonpayable"},{"type":"function","name":"renounceOwnership","inputs":[],"outputs":[],"stateMutability":"nonpayable"},{"type":"function","name":"setDefaultWithdrawalDelay","inputs":[{"name":"delay","type":"uint32","internalType":"uint32"}],"outputs":[],"stateMutability":"nonpayable"},{"type":"function","name":"setMaxActiveRelationships","inputs":[{"name":"max","type":"uint8","internalType":"uint8"}],"outputs":[],"stateMutability":"nonpayable"},{"type":"function","name":"setMinWithdrawalDelay","inputs":[{"name":"delay","type":"uint32","internalType":"uint32"}],"outputs":[],"stateMutability":"nonpayable"},{"type":"function","name":"setWithdrawalDelay","inputs":[{"name":"delay","type":"uint32","internalType":"uint32"}],"outputs":[],"stateMutability":"nonpayable"},{"type":"function","name":"transferOwnership","inputs":[{"name":"newOwner","type":"address","internalType":"address"}],"outputs":[],"stateMutability":"nonpayable"},{"type":"function","name":"unpause","inputs":[],"outputs":[],"stateMutability":"nonpayable"},{"type":"function","name":"updateMetadata","inputs":[{"name":"uri","type":"string","internalType":"string"},{"name":"name","type":"string","internalType":"string"}],"outputs":[],"stateMutability":"nonpayable"},{"type":"function","name":"upgradeToAndCall","inputs":[{"name":"newImplementation","type":"address","internalType":"address"},{"name":"data","type":"bytes","internalType":"bytes"}],"outputs":[],"stateMutability":"payable"},{"type":"event","name":"DefaultWithdrawalDelayUpdated","inputs":[{"name":"oldDelay","type":"uint32","indexed":false,"internalType":"uint32"},{"name":"newDelay","type":"uint32","indexed":false,"internalType":"uint32"}],"anonymous":false},{"type":"event","name":"Initialized","inputs":[{"name":"version","type":"uint64","indexed":false,"internalType":"uint64"}],"anonymous":false},{"type":"event","name":"MaxActiveRelationshipsUpdated","inputs":[{"name":"oldMaxActive","type":"uint8","indexed":false,"internalType":"uint8"},{"name":"maxActive","type":"uint8","indexed":false,"internalType":"uint8"}],"anonymous":false},{"type":"event","name":"MetadataUpdated","inputs":[{"name":"provider","type":"address","indexed":true,"internalType":"address"},{"name":"uri","type":"string","indexed":false,"internalType":"string"},{"name":"name","type":"string","indexed":false,"internalType":"string"}],"anonymous":false},{"type":"event","name":"MinWithdrawalDelayUpdated","inputs":[{"name":"service","type":"address","indexed":true,"internalType":"address"},{"name":"delay","type":"uint32","indexed":false,"internalType":"uint32"}],"anonymous":false},{"type":"event","name":"OperatorRegistered","inputs":[{"name":"operator","type":"address","indexed":true,"internalType":"address"}],"anonymous":false},{"type":"event","name":"OwnershipTransferStarted","inputs":[{"name":"previousOwner","type":"address","indexed":true,"internalType":"address"},{"name":"newOwner","type":"address","indexed":true,"internalType":"address"}],"anonymous":false},{"type":"event","name":"OwnershipTransferred","inputs":[{"name":"previousOwner","type":"address","indexed":true,"internalType":"address"},{"name":"newOwner","type":"address","indexed":true,"internalType":"address"}],"anonymous":false},{"type":"event","name":"Paused","inputs":[{"name":"account","type":"address","indexed":false,"internalType":"address"}],"anonymous":false},{"type":"event","name":"RelationshipUpdated","inputs":[{"name":"service","type":"address","indexed":true,"internalType":"address"},{"name":"operator","type":"address","indexed":true,"internalType":"address"},{"name":"status","type":"uint8","indexed":false,"internalType":"enum RelationshipV2.Status"},{"name":"slashParameterId","type":"uint32","indexed":false,"internalType":"uint32"}],"anonymous":false},{"type":"event","name":"ServiceRegistered","inputs":[{"name":"service","type":"address","indexed":true,"internalType":"address"}],"anonymous":false},{"type":"event","name":"SlashParameterUpdated","inputs":[{"name":"service","type":"address","indexed":true,"internalType":"address"},{"name":"destination","type":"address","indexed":false,"internalType":"address"},{"name":"maxMbips","type":"uint24","indexed":false,"internalType":"uint24"},{"name":"resolutionWindow","type":"uint32","indexed":false,"internalType":"uint32"}],"anonymous":false},{"type":"event","name":"Unpaused","inputs":[{"name":"account","type":"address","indexed":false,"internalType":"address"}],"anonymous":false},{"type":"event","name":"Upgraded","inputs":[{"name":"implementation","type":"address","indexed":true,"internalType":"address"}],"anonymous":false},{"type":"event","name":"WithdrawalDelayUpdated","inputs":[{"name":"operator","type":"address","indexed":true,"internalType":"address"},{"name":"delay","type":"uint32","indexed":false,"internalType":"uint32"}],"anonymous":false},{"type":"error","name":"AddressEmptyCode","inputs":[{"name":"target","type":"address","internalType":"address"}]},{"type":"error","name":"CheckpointUnorderedInsertion","inputs":[]},{"type":"error","name":"ERC1967InvalidImplementation","inputs":[{"name":"implementation","type":"address","internalType":"address"}]},{"type":"error","name":"ERC1967NonPayable","inputs":[]},{"type":"error","name":"EnforcedPause","inputs":[]},{"type":"error","name":"ExpectedPause","inputs":[]},{"type":"error","name":"FailedCall","inputs":[]},{"type":"error","name":"InvalidInitialization","inputs":[]},{"type":"error","name":"NotInitializing","inputs":[]},{"type":"error","name":"OperatorNotFound","inputs":[{"name":"account","type":"address","internalType":"address"}]},{"type":"error","name":"OperatorRelationshipsExceeded","inputs":[]},{"type":"error","name":"OwnableInvalidOwner","inputs":[{"name":"owner","type":"address","internalType":"address"}]},{"type":"error","name":"OwnableUnauthorizedAccount","inputs":[{"name":"account","type":"address","internalType":"address"}]},{"type":"error","name":"ServiceNotFound","inputs":[{"name":"account","type":"address","internalType":"address"}]},{"type":"error","name":"ServiceRelationshipsExceeded","inputs":[]},{"type":"error","name":"UUPSUnauthorizedCallContext","inputs":[]},{"type":"error","name":"UUPSUnsupportedProxiableUUID","inputs":[{"name":"slot","type":"bytes32","internalType":"bytes32"}]}],"bytecode":{"object":"0x60c06040523060805234801562000014575f80fd5b506040516200435d3803806200435d833981016040819052620000379162000113565b620000416200005f565b6001600160a01b03811660a052620000586200005f565b5062000142565b7ff0c57e16840df040f15088dc2f81fe391c3923bec73e23a9662efc9c229c6a00805468010000000000000000900460ff1615620000b05760405163f92ee8a960e01b815260040160405180910390fd5b80546001600160401b0390811614620001105780546001600160401b0319166001600160401b0390811782556040519081527fc7f505b2f371ae2175ee4913f4499e1f2633a7b5936321eed1cdaeb6115181d29060200160405180910390a15b50565b5f6020828403121562000124575f80fd5b81516001600160a01b03811681146200013b575f80fd5b9392505050565b60805160a0516141eb620001725f395f6102e101525f8181612a8e01528181612ab70152612cd801526141eb5ff3fe6080604052600436106102ab575f3560e01c80638e61af1211610165578063ca41e40c116100c6578063ddcf017d1161007c578063e9d8dbfd11610062578063e9d8dbfd14610854578063f24e651c14610898578063f2fde38b146108b7575f80fd5b8063ddcf017d14610824578063e30c397814610840575f80fd5b8063d2cad271116100ac578063d2cad27114610796578063dcc4605c146107e6578063dcef440314610805575f80fd5b8063ca41e40c14610758578063d12a833c14610777575f80fd5b8063b1e508291161011b578063be73272111610101578063be732721146106ee578063c00417121461070d578063c4d66de814610739575f80fd5b8063b1e508291461066e578063bcac0a02146106cf575f80fd5b8063ab06f67e1161014b578063ab06f67e146105db578063ad3cb1cc146105fa578063b1ad57431461064f575f80fd5b80638e61af121461059d57806397c459c4146105bc575f80fd5b80635c975abb1161020f57806379ba5097116101c55780638456cb59116101ab5780638456cb5914610556578063891a081f1461056a5780638da5cb5b14610589575f80fd5b806379ba50971461052e578063832025f914610542575f80fd5b80636d70f7ae116101f55780636d70f7ae146104b7578063715018a6146104fb5780637218c6a71461050f575f80fd5b80635c975abb14610449578063621e02991461048b575f80fd5b80634ad889891161026457806352d1902d1161024a57806352d1902d146103e957806356ce0e6c1461040b57806358715e3b1461042a575f80fd5b80634ad88989146103b75780634f1ef286146103d6575f80fd5b80633f4ba83a116102945780633f4ba83a1461032d578063472abf68146103415780634869411814610355575f80fd5b80630793ae7b146102af57806332fe7b26146102d0575b5f80fd5b3480156102ba575f80fd5b506102ce6102c9366004613b1e565b6108d6565b005b3480156102db575f80fd5b506103037f000000000000000000000000000000000000000000000000000000000000000081565b60405173ffffffffffffffffffffffffffffffffffffffff90911681526020015b60405180910390f35b348015610338575f80fd5b506102ce610c0b565b34801561034c575f80fd5b506102ce610c1d565b348015610360575f80fd5b5061037461036f366004613b55565b610d64565b60408051825173ffffffffffffffffffffffffffffffffffffffff16815260208084015162ffffff16908201529181015163ffffffff1690820152606001610324565b3480156103c2575f80fd5b506102ce6103d1366004613b81565b610e98565b6102ce6103e4366004613bc9565b61111f565b3480156103f4575f80fd5b506103fd61113e565b604051908152602001610324565b348015610416575f80fd5b506102ce610425366004613cea565b61116c565b348015610435575f80fd5b506102ce610444366004613b81565b61124d565b348015610454575f80fd5b507fcd5ed15c6e187e77e9aee88184c21f4f2182ab5827cb3b7e07fbedcd63f033005460ff165b6040519015158152602001610324565b348015610496575f80fd5b506104aa6104a5366004613d51565b611528565b6040516103249190613dee565b3480156104c2575f80fd5b5061047b6104d1366004613b55565b73ffffffffffffffffffffffffffffffffffffffff165f9081526001602052604090205460ff1690565b348015610506575f80fd5b506102ce61153f565b34801561051a575f80fd5b506102ce610529366004613b55565b611550565b348015610539575f80fd5b506102ce6116cd565b34801561054d575f80fd5b506102ce611748565b348015610561575f80fd5b506102ce61182a565b348015610575575f80fd5b506102ce610584366004613cea565b61183a565b348015610594575f80fd5b506103036119a2565b3480156105a8575f80fd5b506102ce6105b7366004613b55565b6119e3565b3480156105c7575f80fd5b506103746105d6366004613dfc565b611b5a565b3480156105e6575f80fd5b506103fd6105f5366004613b55565b611c7f565b348015610605575f80fd5b506106426040518060400160405280600581526020017f352e302e3000000000000000000000000000000000000000000000000000000081525081565b6040516103249190613e66565b34801561065a575f80fd5b506104aa610669366004613dfc565b611cac565b348015610679575f80fd5b506106ba610688366004613b55565b73ffffffffffffffffffffffffffffffffffffffff165f90815260016020526040902054610100900463ffffffff1690565b60405163ffffffff9091168152602001610324565b3480156106da575f80fd5b506102ce6106e9366004613b55565b611cc3565b3480156106f9575f80fd5b506103fd610708366004613b55565b611f3a565b348015610718575f80fd5b50600654640100000000900460ff1660405160ff9091168152602001610324565b348015610744575f80fd5b506102ce610753366004613b55565b611f67565b348015610763575f80fd5b506102ce610772366004613b55565b6120e8565b348015610782575f80fd5b506102ce610791366004613cea565b612313565b3480156107a1575f80fd5b506106ba6107b0366004613b55565b73ffffffffffffffffffffffffffffffffffffffff165f9081526020819052604090205465010000000000900463ffffffff1690565b3480156107f1575f80fd5b506102ce610800366004613b81565b612430565b348015610810575f80fd5b506102ce61081f366004613b55565b612526565b34801561082f575f80fd5b506006546106ba9063ffffffff1681565b34801561084b575f80fd5b5061030361268f565b34801561085f575f80fd5b5061047b61086e366004613b55565b73ffffffffffffffffffffffffffffffffffffffff165f9081526020819052604090205460ff1690565b3480156108a3575f80fd5b506102ce6108b2366004613eb6565b6126b7565b3480156108c2575f80fd5b506102ce6108d1366004613b55565b612832565b335f8181526020819052604090205460ff1661093b576040517fb536580700000000000000000000000000000000000000000000000000000000815273ffffffffffffffffffffffffffffffffffffffff821660048201526024015b60405180910390fd5b6109436128e9565b5f6109516020840184613b55565b73ffffffffffffffffffffffffffffffffffffffff16036109b45760405162461bcd60e51b815260206004820152600e60248201527f64657374696e6174696f6e213d300000000000000000000000000000000000006044820152606401610932565b629896806109c86040840160208501613ee6565b62ffffff161115610a1b5760405162461bcd60e51b815260206004820152601360248201527f6d61784d62697073213d3e3130303030303030000000000000000000000000006044820152606401610932565b5f610a2c6040840160208501613ee6565b62ffffff1611610a7e5760405162461bcd60e51b815260206004820152600b60248201527f6d61784d62697073213d300000000000000000000000000000000000000000006044820152606401610932565b60025463ffffffff811115610ad55760405162461bcd60e51b815260206004820152600860248201527f4f766572666c6f770000000000000000000000000000000000000000000000006044820152606401610932565b600280546001810182555f9190915283907f405787fa12a823e0f2b7631cc41b3ba8828b3321ca811111fa75cd3aa3bb5ace01610b128282613f01565b50505f610b1c3390565b73ffffffffffffffffffffffffffffffffffffffff81165f8181526020818152604090912080547fffffffffffffffffffffffffffffffffffffffffffffffffffffff00000000ff1661010063ffffffff8816021781559293507ff83560c52fae7525e369b176773b2388c82c3538dea009c1c5fca741d5d613a090610ba490880188613b55565b610bb46040890160208a01613ee6565b610bc460608a0160408b01613b81565b6040805173ffffffffffffffffffffffffffffffffffffffff909416845262ffffff909216602084015263ffffffff16908201526060015b60405180910390a25050505050565b610c13612945565b610c1b61299d565b565b60025f610c28612a3a565b805490915068010000000000000000900460ff1680610c555750805467ffffffffffffffff808416911610155b15610c8c576040517ff92ee8a900000000000000000000000000000000000000000000000000000000815260040160405180910390fd5b80546801000000000000000067ffffffffffffffff84167fffffffffffffffffffffffffffffffffffffffffffffff00000000000000000090921682171782556002805460010181555f52600680547fffffffffffffffffffffffffffffffffffffffffffffffffffffff000000000016640500093a8017905581547fffffffffffffffffffffffffffffffffffffffffffffff00ffffffffffffffff1682556040519081527fc7f505b2f371ae2175ee4913f4499e1f2633a7b5936321eed1cdaeb6115181d2906020015b60405180910390a15050565b604080516060810182525f808252602080830182905282840182905273ffffffffffffffffffffffffffffffffffffffff851682528190529190912054610100900463ffffffff1680610df95760405162461bcd60e51b815260206004820152601460248201527f536c617368696e67206e6f7420656e61626c65640000000000000000000000006044820152606401610932565b60028163ffffffff1681548110610e1257610e12614005565b5f91825260209182902060408051606081018252919092015473ffffffffffffffffffffffffffffffffffffffff8116825262ffffff740100000000000000000000000000000000000000008204169382019390935263ffffffff7701000000000000000000000000000000000000000000000090930492909216908201529392505050565b610ea06128e9565b335f8181526020819052604090205460ff16610f00576040517fb536580700000000000000000000000000000000000000000000000000000000815273ffffffffffffffffffffffffffffffffffffffff82166004820152602401610932565b5f8263ffffffff1611610f555760405162461bcd60e51b815260206004820152601960248201527f44656c6179206d757374206265206d6f7265207468616e2030000000000000006044820152606401610932565b335f81815260056020526040812090610f6d82612a62565b90505f5b8181101561108f578563ffffffff1660015f610f968487612a6b90919063ffffffff16565b73ffffffffffffffffffffffffffffffffffffffff16815260208101919091526040015f2054610100900463ffffffff1610156110875760405162461bcd60e51b815260206004820152606360248201527f536572766963652773206d696e696d756d207769746864726177616c2064656c60448201527f6179206d757374206265206c657373207468616e206f7220657175616c20746f60648201527f20616374697665206f70657261746f722773207769746864726177616c20646560848201527f6c6179000000000000000000000000000000000000000000000000000000000060a482015260c401610932565b600101610f71565b5073ffffffffffffffffffffffffffffffffffffffff83165f818152602081815260409182902080547fffffffffffffffffffffffffffffffffffffffffffffff00000000ffffffffff166501000000000063ffffffff8b169081029190911790915591519182527f12cae11e6575143dc91be041916646a29e4e9af609b96be54454d8ca825b16449101610bfc565b611127612a76565b61113082612b7a565b61113a8282612b82565b5050565b5f611147612cc0565b507f360894a13ba1a3210667c828492db98dca3e2076cc3735a920a3ca505d382bbc90565b6111746128e9565b335f8181526020819052604090205460ff16806111b5575073ffffffffffffffffffffffffffffffffffffffff81165f9081526001602052604090205460ff165b6112015760405162461bcd60e51b815260206004820152600e60248201527f4e6f7420726567697374657265640000000000000000000000000000000000006044820152606401610932565b8073ffffffffffffffffffffffffffffffffffffffff167f6c1850fce35387a891e82ca88e975790ab6f0709e9ed6842e01397f296012a7e86868686604051610bfc9493929190614079565b6112556128e9565b335f8181526001602052604090205460ff166112b5576040517fa3a66a1700000000000000000000000000000000000000000000000000000000815273ffffffffffffffffffffffffffffffffffffffff82166004820152602401610932565b60065463ffffffff908116908316101561135d5760405162461bcd60e51b815260206004820152604360248201527f44656c6179206d757374206265206174206c65617374206d6f7265207468616e60448201527f206f7220657175616c20746f2064656661756c745769746864726177616c446560648201527f6c61790000000000000000000000000000000000000000000000000000000000608482015260a401610932565b335f8181526004602052604081209061137582612a62565b90505f5b8181101561149a578563ffffffff165f8061139d8487612a6b90919063ffffffff16565b73ffffffffffffffffffffffffffffffffffffffff16815260208101919091526040015f205465010000000000900463ffffffff1611156114925760405162461bcd60e51b815260206004820152606160248201527f4f70657261746f72207769746864726177616c2064656c6179206d757374206260448201527f65206d6f7265207468616e206f7220657175616c20746f20616374697665207360648201527f6572766963652773206d696e696d756d207769746864726177616c2064656c6160848201527f790000000000000000000000000000000000000000000000000000000000000060a482015260c401610932565b600101611379565b5073ffffffffffffffffffffffffffffffffffffffff83165f8181526001602090815260409182902080547fffffffffffffffffffffffffffffffffffffffffffffffffffffff00000000ff1661010063ffffffff8b169081029190911790915591519182527f8accf516e9dcf834aa25a580b9beb0b2444e5a35b3162fc21cfd49565bed0a4a9101610bfc565b5f806115348484612d2f565b519150505b92915050565b611547612945565b610c1b5f612d74565b335f8181526001602052604090205460ff166115b0576040517fa3a66a1700000000000000000000000000000000000000000000000000000000815273ffffffffffffffffffffffffffffffffffffffff82166004820152602401610932565b6115b86128e9565b335f6115c48483612d2f565b90506001815160038111156115db576115db613d88565b146116285760405162461bcd60e51b815260206004820152601760248201527f52656c6174696f6e73686970206e6f74206163746976650000000000000000006044820152606401610932565b73ffffffffffffffffffffffffffffffffffffffff84165f90815260208181526040909120549082015163ffffffff6101009092048216911681036116af5760405162461bcd60e51b815260206004820152601460248201527f536c617368696e67206e6f7420757064617465640000000000000000000000006044820152606401610932565b63ffffffff811660208301526116c6858484612dc4565b5050505050565b33806116d761268f565b73ffffffffffffffffffffffffffffffffffffffff161461173c576040517f118cdaa700000000000000000000000000000000000000000000000000000000815273ffffffffffffffffffffffffffffffffffffffff82166004820152602401610932565b61174581612d74565b50565b335f8181526020819052604090205460ff166117a8576040517fb536580700000000000000000000000000000000000000000000000000000000815273ffffffffffffffffffffffffffffffffffffffff82166004820152602401610932565b6117b06128e9565b335f8181526020818152604080832080547fffffffffffffffffffffffffffffffffffffffffffffffffffffff00000000ff1681558151848152928301849052828201939093525183917ff83560c52fae7525e369b176773b2388c82c3538dea009c1c5fca741d5d613a0919081900360600190a2505050565b611832612945565b610c1b613049565b6118426128e9565b335f818152600160205260409020805460ff16156118a25760405162461bcd60e51b815260206004820152601260248201527f416c7265616479207265676973746572656400000000000000000000000000006044820152606401610932565b80547fffffffffffffffffffffffffffffffffffffffffffffffffffffffffffffff0081166001908117835560065463ffffffff16610100027fffffffffffffffffffffffffffffffffffffffffffffffffffffff00000000009092169190911717815560405173ffffffffffffffffffffffffffffffffffffffff8316907f4d0eb1f4bac8744fd2be119845e23b3befc88094b42bcda1204c65694a00f9e5905f90a28173ffffffffffffffffffffffffffffffffffffffff167f6c1850fce35387a891e82ca88e975790ab6f0709e9ed6842e01397f296012a7e878787876040516119929493929190614079565b60405180910390a2505050505050565b5f807f9016d09d72d40fdae2fd8ceac6b6234c7706214fd39c1cd1e609a0528c1993005b5473ffffffffffffffffffffffffffffffffffffffff1692915050565b335f8181526020819052604090205460ff16611a43576040517fb536580700000000000000000000000000000000000000000000000000000000815273ffffffffffffffffffffffffffffffffffffffff82166004820152602401610932565b73ffffffffffffffffffffffffffffffffffffffff82165f90815260016020526040902054829060ff16611abb576040517fa3a66a1700000000000000000000000000000000000000000000000000000000815273ffffffffffffffffffffffffffffffffffffffff82166004820152602401610932565b335f611ac78286612d2f565b90505f81516003811115611add57611add613d88565b03611b2a5760405162461bcd60e51b815260206004820152601060248201527f416c726561647920696e616374697665000000000000000000000000000000006044820152606401610932565b6116c6828660405180604001604052805f6003811115611b4c57611b4c613d88565b81525f602090910152612dc4565b604080516060810182525f8082526020820181905291810182905290611b818585856130c2565b6020015190505f8163ffffffff1611611bdc5760405162461bcd60e51b815260206004820152601460248201527f536c617368696e67206e6f7420656e61626c65640000000000000000000000006044820152606401610932565b60028163ffffffff1681548110611bf557611bf5614005565b5f91825260209182902060408051606081018252919092015473ffffffffffffffffffffffffffffffffffffffff8116825262ffffff740100000000000000000000000000000000000000008204169382019390935263ffffffff7701000000000000000000000000000000000000000000000090930492909216908201529150505b9392505050565b73ffffffffffffffffffffffffffffffffffffffff81165f90815260056020526040812061153990612a62565b5f80611cb98585856130c2565b5195945050505050565b335f8181526020819052604090205460ff16611d23576040517fb536580700000000000000000000000000000000000000000000000000000000815273ffffffffffffffffffffffffffffffffffffffff82166004820152602401610932565b73ffffffffffffffffffffffffffffffffffffffff82165f90815260016020526040902054829060ff16611d9b576040517fa3a66a1700000000000000000000000000000000000000000000000000000000815273ffffffffffffffffffffffffffffffffffffffff82166004820152602401610932565b335f611da78286612d2f565b9050600181516003811115611dbe57611dbe613d88565b03611e0b5760405162461bcd60e51b815260206004820152600e60248201527f416c7265616479206163746976650000000000000000000000000000000000006044820152606401610932565b600381516003811115611e2057611e20613d88565b03611e6d5760405162461bcd60e51b815260206004820152601160248201527f416c726561647920696e697469617465640000000000000000000000000000006044820152606401610932565b5f81516003811115611e8157611e81613d88565b03611e8f5760038152611f2f565b600281516003811115611ea457611ea4613d88565b03611ee7576001815273ffffffffffffffffffffffffffffffffffffffff82165f9081526020818152604090912054610100900463ffffffff1690820152611f2f565b60405162461bcd60e51b815260206004820152600e60248201527f496e76616c6964207374617475730000000000000000000000000000000000006044820152606401610932565b6116c6828683612dc4565b73ffffffffffffffffffffffffffffffffffffffff81165f90815260046020526040812061153990612a62565b5f611f70612a3a565b805490915060ff68010000000000000000820416159067ffffffffffffffff165f81158015611f9c5750825b90505f8267ffffffffffffffff166001148015611fb85750303b155b905081158015611fc6575080155b15611ffd576040517ff92ee8a900000000000000000000000000000000000000000000000000000000815260040160405180910390fd5b84547fffffffffffffffffffffffffffffffffffffffffffffffff0000000000000000166001178555831561205e5784547fffffffffffffffffffffffffffffffffffffffffffffff00ffffffffffffffff16680100000000000000001785555b61206786613109565b61206f61311a565b61207761311a565b61207f61311a565b83156120e05784547fffffffffffffffffffffffffffffffffffffffffffffff00ffffffffffffffff168555604051600181527fc7f505b2f371ae2175ee4913f4499e1f2633a7b5936321eed1cdaeb6115181d29060200160405180910390a15b505050505050565b335f8181526001602052604090205460ff16612148576040517fa3a66a1700000000000000000000000000000000000000000000000000000000815273ffffffffffffffffffffffffffffffffffffffff82166004820152602401610932565b73ffffffffffffffffffffffffffffffffffffffff82165f90815260208190526040902054829060ff166121c0576040517fb536580700000000000000000000000000000000000000000000000000000000815273ffffffffffffffffffffffffffffffffffffffff82166004820152602401610932565b335f6121cc8583612d2f565b90506001815160038111156121e3576121e3613d88565b036122305760405162461bcd60e51b815260206004820152600e60248201527f416c7265616479206163746976650000000000000000000000000000000000006044820152606401610932565b60028151600381111561224557612245613d88565b036122925760405162461bcd60e51b815260206004820152601160248201527f416c726561647920696e697469617465640000000000000000000000000000006044820152606401610932565b5f815160038111156122a6576122a6613d88565b036122b45760028152612308565b6003815160038111156122c9576122c9613d88565b03611ee7576001815273ffffffffffffffffffffffffffffffffffffffff85165f9081526020818152604090912054610100900463ffffffff16908201525b6116c6858383612dc4565b61231b6128e9565b335f818152602081905260409020805460ff161561237b5760405162461bcd60e51b815260206004820152601260248201527f416c7265616479207265676973746572656400000000000000000000000000006044820152606401610932565b80547fffffffffffffffffffffffffffffffffffffffffffffffffffffffffffffff0016600117815560405173ffffffffffffffffffffffffffffffffffffffff8316907f2fa31fbaacf5eaf61d648ea7528ada6efb69bfb06d2c3bd35ce511a820fce53e905f90a28173ffffffffffffffffffffffffffffffffffffffff167f6c1850fce35387a891e82ca88e975790ab6f0709e9ed6842e01397f296012a7e878787876040516119929493929190614079565b612438612945565b620151808163ffffffff1610156124b75760405162461bcd60e51b815260206004820152603260248201527f44656c6179206d757374206265206174206c65617374206d6f7265207468616e60448201527f206f7220657175616c20746f20312064617900000000000000000000000000006064820152608401610932565b6006805463ffffffff8381167fffffffffffffffffffffffffffffffffffffffffffffffffffffffff0000000083168117909355604080519190921680825260208201939093527f7d96978277a4acf1fa8af376bc53af1059e1b5e52b97732645e8bf570bd852fd9101610d58565b335f8181526001602052604090205460ff16612586576040517fa3a66a1700000000000000000000000000000000000000000000000000000000815273ffffffffffffffffffffffffffffffffffffffff82166004820152602401610932565b73ffffffffffffffffffffffffffffffffffffffff82165f90815260208190526040902054829060ff166125fe576040517fb536580700000000000000000000000000000000000000000000000000000000815273ffffffffffffffffffffffffffffffffffffffff82166004820152602401610932565b335f61260a8583612d2f565b90505f8151600381111561262057612620613d88565b0361266d5760405162461bcd60e51b815260206004820152601060248201527f416c726561647920696e616374697665000000000000000000000000000000006044820152606401610932565b6116c6858360405180604001604052805f6003811115611b4c57611b4c613d88565b5f807f237e158222e3e6968b72b9db0d8043aacf074ad9f650f0d1606b4d82ee432c006119c6565b6126bf612945565b5f8160ff16116127375760405162461bcd60e51b815260206004820152602f60248201527f4d6178206163746976652072656c6174696f6e7368697073206d75737420626560448201527f2067726561746572207468616e203000000000000000000000000000000000006064820152608401610932565b60065460ff640100000000909104811690821681106127be5760405162461bcd60e51b815260206004820152603560248201527f4d6178206163746976652072656c6174696f6e7368697073206d75737420626560448201527f2067726561746572207468616e2063757272656e7400000000000000000000006064820152608401610932565b600680547fffffffffffffffffffffffffffffffffffffffffffffffffffffff00ffffffff1664010000000060ff8581169182029290921790925560408051918416825260208201929092527ff828209ded7d687bb3230b9be1831cf6c914c77facc8c699f5f74d235e80302f9101610d58565b61283a612945565b7f237e158222e3e6968b72b9db0d8043aacf074ad9f650f0d1606b4d82ee432c0080547fffffffffffffffffffffffff00000000000000000000000000000000000000001673ffffffffffffffffffffffffffffffffffffffff831690811782556128a36119a2565b73ffffffffffffffffffffffffffffffffffffffff167f38d16b8cac22d99fc7c124b9cd0de2d3fa1faef420bfe791d8c362d765e2270060405160405180910390a35050565b7fcd5ed15c6e187e77e9aee88184c21f4f2182ab5827cb3b7e07fbedcd63f033005460ff1615610c1b576040517fd93c066500000000000000000000000000000000000000000000000000000000815260040160405180910390fd5b3361294e6119a2565b73ffffffffffffffffffffffffffffffffffffffff1614610c1b576040517f118cdaa7000000000000000000000000000000000000000000000000000000008152336004820152602401610932565b6129a5613122565b7fcd5ed15c6e187e77e9aee88184c21f4f2182ab5827cb3b7e07fbedcd63f0330080547fffffffffffffffffffffffffffffffffffffffffffffffffffffffffffffff001681557f5db9ee0a495bf2e6ff9c91a7834c1ba4fdd244a5e8aa4e537bd38aeae4b073aa335b60405173ffffffffffffffffffffffffffffffffffffffff909116815260200160405180910390a150565b5f807ff0c57e16840df040f15088dc2f81fe391c3923bec73e23a9662efc9c229c6a00611539565b5f611539825490565b5f611c78838361317d565b3073ffffffffffffffffffffffffffffffffffffffff7f0000000000000000000000000000000000000000000000000000000000000000161480612b4357507f000000000000000000000000000000000000000000000000000000000000000073ffffffffffffffffffffffffffffffffffffffff16612b2a7f360894a13ba1a3210667c828492db98dca3e2076cc3735a920a3ca505d382bbc5473ffffffffffffffffffffffffffffffffffffffff1690565b73ffffffffffffffffffffffffffffffffffffffff1614155b15610c1b576040517fe07c8dba00000000000000000000000000000000000000000000000000000000815260040160405180910390fd5b611745612945565b8173ffffffffffffffffffffffffffffffffffffffff166352d1902d6040518163ffffffff1660e01b8152600401602060405180830381865afa925050508015612c07575060408051601f3d9081017fffffffffffffffffffffffffffffffffffffffffffffffffffffffffffffffe0168201909252612c04918101906140aa565b60015b612c55576040517f4c9c8ce300000000000000000000000000000000000000000000000000000000815273ffffffffffffffffffffffffffffffffffffffff83166004820152602401610932565b7f360894a13ba1a3210667c828492db98dca3e2076cc3735a920a3ca505d382bbc8114612cb1576040517faa1d49a400000000000000000000000000000000000000000000000000000000815260048101829052602401610932565b612cbb83836131a3565b505050565b3073ffffffffffffffffffffffffffffffffffffffff7f00000000000000000000000000000000000000000000000000000000000000001614610c1b576040517fe07c8dba00000000000000000000000000000000000000000000000000000000815260040160405180910390fd5b604080518082019091525f8082526020820152606083811b5f9081529083901b6014526028812080825260036020526040909120612d6c90613205565b949350505050565b7f237e158222e3e6968b72b9db0d8043aacf074ad9f650f0d1606b4d82ee432c0080547fffffffffffffffffffffffff000000000000000000000000000000000000000016815561113a8261322d565b612dcc6128e9565b606083811b5f9081529083901b6014526028812080825260036020526040909120612df89042846132c2565b600182516003811115612e0d57612e0d613d88565b03612f5d5760065473ffffffffffffffffffffffffffffffffffffffff84165f90815260046020526040902064010000000090910460ff1690612e4f90612a62565b10612e86576040517fbd9b74ad00000000000000000000000000000000000000000000000000000000815260040160405180910390fd5b60065473ffffffffffffffffffffffffffffffffffffffff85165f90815260056020526040902064010000000090910460ff1690612ec390612a62565b10612efa576040517fba11b6e700000000000000000000000000000000000000000000000000000000815260040160405180910390fd5b73ffffffffffffffffffffffffffffffffffffffff83165f908152600460205260409020612f2890856132e1565b5073ffffffffffffffffffffffffffffffffffffffff84165f908152600560205260409020612f5790846132e1565b50612fd5565b5f82516003811115612f7157612f71613d88565b03612fd55773ffffffffffffffffffffffffffffffffffffffff83165f908152600460205260409020612fa49085613302565b5073ffffffffffffffffffffffffffffffffffffffff84165f908152600560205260409020612fd39084613302565b505b8273ffffffffffffffffffffffffffffffffffffffff168473ffffffffffffffffffffffffffffffffffffffff167f21765f04287d7845df78e83515630836500dd5e89d866d34751b5177a96da4c6845f0151856020015160405161303b9291906140c1565b60405180910390a350505050565b6130516128e9565b7fcd5ed15c6e187e77e9aee88184c21f4f2182ab5827cb3b7e07fbedcd63f0330080547fffffffffffffffffffffffffffffffffffffffffffffffffffffffffffffff001660011781557f62e78cea01bee320cd4e420270b5ea74000d11b0c9f74754ebdbfc544b05a25833612a0f565b604080518082019091525f8082526020820152606084811b5f9081529084901b60145260288120808252600360205260409091206131009084613323565b95945050505050565b61311161334c565b6117458161338a565b610c1b61334c565b7fcd5ed15c6e187e77e9aee88184c21f4f2182ab5827cb3b7e07fbedcd63f033005460ff16610c1b576040517f8dfc202b00000000000000000000000000000000000000000000000000000000815260040160405180910390fd5b5f825f01828154811061319257613192614005565b905f5260205f200154905092915050565b6131ac826133e1565b60405173ffffffffffffffffffffffffffffffffffffffff8316907fbc7cd75a20ee27fd9adebab32041f755214dbc6bffa90cc0225b39da2e5c2d3b905f90a28051156131fd57612cbb82826134af565b61113a613525565b604080518082019091525f80825260208201525f6132228361355d565b9050611c78816135b7565b7f9016d09d72d40fdae2fd8ceac6b6234c7706214fd39c1cd1e609a0528c19930080547fffffffffffffffffffffffff0000000000000000000000000000000000000000811673ffffffffffffffffffffffffffffffffffffffff848116918217845560405192169182907f8be0079c531659141344cd1fd0a4f28419497f9722a3daafe3b4186f6b6457e0905f90a3505050565b5f6132d4825f01518360200151613630565b90506120e084848361365f565b5f611c788373ffffffffffffffffffffffffffffffffffffffff8416613679565b5f611c788373ffffffffffffffffffffffffffffffffffffffff84166136c5565b604080518082019091525f80825260208201525f61334184846137a8565b9050612d6c816135b7565b613354613806565b610c1b576040517fd7e6bcf800000000000000000000000000000000000000000000000000000000815260040160405180910390fd5b61339261334c565b73ffffffffffffffffffffffffffffffffffffffff811661173c576040517f1e4fbdf70000000000000000000000000000000000000000000000000000000081525f6004820152602401610932565b8073ffffffffffffffffffffffffffffffffffffffff163b5f03613449576040517f4c9c8ce300000000000000000000000000000000000000000000000000000000815273ffffffffffffffffffffffffffffffffffffffff82166004820152602401610932565b7f360894a13ba1a3210667c828492db98dca3e2076cc3735a920a3ca505d382bbc80547fffffffffffffffffffffffff00000000000000000000000000000000000000001673ffffffffffffffffffffffffffffffffffffffff92909216919091179055565b60605f808473ffffffffffffffffffffffffffffffffffffffff16846040516134d891906140e2565b5f60405180830381855af49150503d805f8114613510576040519150601f19603f3d011682016040523d82523d5f602084013e613515565b606091505b5091509150613100858383613824565b3415610c1b576040517fb398979f00000000000000000000000000000000000000000000000000000000815260040160405180910390fd5b80545f9080156135af576135838361357660018461412a565b5f91825260209091200190565b5464010000000090047bffffffffffffffffffffffffffffffffffffffffffffffffffffffff16611c78565b5f9392505050565b604080518082019091525f8082526020820152604080518082019091525f80825260208201528260ff1660038111156135f2576135f2613d88565b8190600381111561360557613605613d88565b9081600381111561361857613618613d88565b90525060089290921c63ffffffff1660208301525090565b5f8083600381111561364457613644613d88565b60ff1660089390931b64ffffffff0016929092179392505050565b5f8061366c8585856138b3565b915091505b935093915050565b5f8181526001830160205260408120546136be57508154600181810184555f848152602080822090930184905584548482528286019093526040902091909155611539565b505f611539565b5f818152600183016020526040812054801561379f575f6136e760018361412a565b85549091505f906136fa9060019061412a565b9050808214613759575f865f01828154811061371857613718614005565b905f5260205f200154905080875f01848154811061373857613738614005565b5f918252602080832090910192909255918252600188019052604090208390555b855486908061376a5761376a61413d565b600190038181905f5260205f20015f90559055856001015f8681526020019081526020015f205f905560019350505050611539565b5f915050611539565b81545f90816137b985858385613a68565b905080156137fc576137d08561357660018461412a565b5464010000000090047bffffffffffffffffffffffffffffffffffffffffffffffffffffffff16613100565b505f949350505050565b5f61380f612a3a565b5468010000000000000000900460ff16919050565b6060826138395761383482613ac3565b611c78565b815115801561385d575073ffffffffffffffffffffffffffffffffffffffff84163b155b156138ac576040517f9996b31500000000000000000000000000000000000000000000000000000000815273ffffffffffffffffffffffffffffffffffffffff85166004820152602401610932565b5080611c78565b82545f90819080156139fa575f6138cf8761357660018561412a565b805490915063ffffffff8082169164010000000090047bffffffffffffffffffffffffffffffffffffffffffffffffffffffff1690881682111561393f576040517f2520601d00000000000000000000000000000000000000000000000000000000815260040160405180910390fd5b8763ffffffff168263ffffffff160361398857825463ffffffff166401000000007bffffffffffffffffffffffffffffffffffffffffffffffffffffffff8916021783556139ec565b6040805180820190915263ffffffff808a1682527bffffffffffffffffffffffffffffffffffffffffffffffffffffffff808a1660208085019182528d54600181018f555f8f81529190912094519151909216640100000000029216919091179101555b945085935061367192505050565b50506040805180820190915263ffffffff80851682527bffffffffffffffffffffffffffffffffffffffffffffffffffffffff80851660208085019182528854600181018a555f8a815291822095519251909316640100000000029190931617920191909155905081613671565b5f5b81831015613abb575f613a7d8484613b04565b5f8781526020902090915063ffffffff86169082015463ffffffff161115613aa757809250613ab5565b613ab281600161416a565b93505b50613a6a565b509392505050565b805115613ad257805160208201fd5b6040517fd6bda27500000000000000000000000000000000000000000000000000000000815260040160405180910390fd5b5f613b12600284841861417d565b611c789084841661416a565b5f60608284031215613b2e575f80fd5b50919050565b73ffffffffffffffffffffffffffffffffffffffff81168114611745575f80fd5b5f60208284031215613b65575f80fd5b8135611c7881613b34565b63ffffffff81168114611745575f80fd5b5f60208284031215613b91575f80fd5b8135611c7881613b70565b7f4e487b71000000000000000000000000000000000000000000000000000000005f52604160045260245ffd5b5f8060408385031215613bda575f80fd5b8235613be581613b34565b9150602083013567ffffffffffffffff80821115613c01575f80fd5b818501915085601f830112613c14575f80fd5b813581811115613c2657613c26613b9c565b604051601f82017fffffffffffffffffffffffffffffffffffffffffffffffffffffffffffffffe0908116603f01168101908382118183101715613c6c57613c6c613b9c565b81604052828152886020848701011115613c84575f80fd5b826020860160208301375f6020848301015280955050505050509250929050565b5f8083601f840112613cb5575f80fd5b50813567ffffffffffffffff811115613ccc575f80fd5b602083019150836020828501011115613ce3575f80fd5b9250929050565b5f805f8060408587031215613cfd575f80fd5b843567ffffffffffffffff80821115613d14575f80fd5b613d2088838901613ca5565b90965094506020870135915080821115613d38575f80fd5b50613d4587828801613ca5565b95989497509550505050565b5f8060408385031215613d62575f80fd5b8235613d6d81613b34565b91506020830135613d7d81613b34565b809150509250929050565b7f4e487b71000000000000000000000000000000000000000000000000000000005f52602160045260245ffd5b60048110613dea577f4e487b71000000000000000000000000000000000000000000000000000000005f52602160045260245ffd5b9052565b602081016115398284613db5565b5f805f60608486031215613e0e575f80fd5b8335613e1981613b34565b92506020840135613e2981613b34565b91506040840135613e3981613b70565b809150509250925092565b5f5b83811015613e5e578181015183820152602001613e46565b50505f910152565b602081525f8251806020840152613e84816040850160208701613e44565b601f017fffffffffffffffffffffffffffffffffffffffffffffffffffffffffffffffe0169190910160400192915050565b5f60208284031215613ec6575f80fd5b813560ff81168114611c78575f80fd5b62ffffff81168114611745575f80fd5b5f60208284031215613ef6575f80fd5b8135611c7881613ed6565b8135613f0c81613b34565b73ffffffffffffffffffffffffffffffffffffffff811690508154817fffffffffffffffffffffffff000000000000000000000000000000000000000082161783556020840135613f5c81613ed6565b76ffffff00000000000000000000000000000000000000008160a01b16905080837fffffffffffffffffff00000000000000000000000000000000000000000000008416171784556040850135613fb281613b70565b7affffffff00000000000000000000000000000000000000000000008160b81b16847fffffffffff0000000000000000000000000000000000000000000000000000008516178317178555505050505050565b7f4e487b71000000000000000000000000000000000000000000000000000000005f52603260045260245ffd5b81835281816020850137505f602082840101525f60207fffffffffffffffffffffffffffffffffffffffffffffffffffffffffffffffe0601f840116840101905092915050565b604081525f61408c604083018688614032565b828103602084015261409f818587614032565b979650505050505050565b5f602082840312156140ba575f80fd5b5051919050565b604081016140cf8285613db5565b63ffffffff831660208301529392505050565b5f82516140f3818460208701613e44565b9190910192915050565b7f4e487b71000000000000000000000000000000000000000000000000000000005f52601160045260245ffd5b81810381811115611539576115396140fd565b7f4e487b71000000000000000000000000000000000000000000000000000000005f52603160045260245ffd5b80820180821115611539576115396140fd565b5f826141b0577f4e487b71000000000000000000000000000000000000000000000000000000005f52601260045260245ffd5b50049056fea264697066735822122045e67b8f0559e55ed6a6cc0581ba341ff411660d2fd49bb5d601a11efb0ea16364736f6c63430008160033","linkReferences":{}},"methodIdentifiers":{"ROUTER()":"32fe7b26","UPGRADE_INTERFACE_VERSION()":"ad3cb1cc","acceptOwnership()":"79ba5097","approveSlashingFor(address)":"7218c6a7","defaultWithdrawalDelay()":"ddcf017d","deregisterOperatorFromService(address)":"8e61af12","deregisterServiceFromOperator(address)":"dcef4403","disableSlashing()":"832025f9","enableSlashing((address,uint24,uint32))":"0793ae7b","getActiveOperatorCount(address)":"ab06f67e","getActiveServiceCount(address)":"be732721","getMaxActiveRelationships()":"c0041712","getMinWithdrawalDelay(address)":"d2cad271","getRelationshipStatus(address,address)":"621e0299","getRelationshipStatusAt(address,address,uint32)":"b1ad5743","getSlashParameter(address)":"48694118","getSlashParameterAt(address,address,uint32)":"97c459c4","getWithdrawalDelay(address)":"b1e50829","initialize(address)":"c4d66de8","initialize2()":"472abf68","isOperator(address)":"6d70f7ae","isService(address)":"e9d8dbfd","owner()":"8da5cb5b","pause()":"8456cb59","paused()":"5c975abb","pendingOwner()":"e30c3978","proxiableUUID()":"52d1902d","registerAsOperator(string,string)":"891a081f","registerAsService(string,string)":"d12a833c","registerOperatorToService(address)":"bcac0a02","registerServiceToOperator(address)":"ca41e40c","renounceOwnership()":"715018a6","setDefaultWithdrawalDelay(uint32)":"dcc4605c","setMaxActiveRelationships(uint8)":"f24e651c","setMinWithdrawalDelay(uint32)":"4ad88989","setWithdrawalDelay(uint32)":"58715e3b","transferOwnership(address)":"f2fde38b","unpause()":"3f4ba83a","updateMetadata(string,string)":"56ce0e6c","upgradeToAndCall(address,bytes)":"4f1ef286"},"id":89}