{
  "abi": [
    {
      "type": "constructor",
      "inputs": [
        {
          "name": "governance",
          "type": "address",
          "internalType": "address"
        },
        {
          "name": "caller",
          "type": "address",
          "internalType": "address"
        },
        {
          "name": "pool_",
          "type": "address",
          "internalType": "address"
        }
      ],
      "stateMutability": "nonpayable"
    },
    {
      "type": "function",
      "name": "DEFAULT_ADMIN_ROLE",
      "inputs": [],
      "outputs": [
        {
          "name": "",
          "type": "bytes32",
          "internalType": "bytes32"
        }
      ],
      "stateMutability": "view"
    },
    {
      "type": "function",
      "name": "ROLE_CG",
      "inputs": [],
      "outputs": [
        {
          "name": "",
          "type": "bytes32",
          "internalType": "bytes32"
        }
      ],
      "stateMutability": "view"
    },
    {
      "type": "function",
      "name": "ROLE_GOV",
      "inputs": [],
      "outputs": [
        {
          "name": "",
          "type": "bytes32",
          "internalType": "bytes32"
        }
      ],
      "stateMutability": "view"
    },
    {
      "type": "function",
      "name": "VARIABLE",
      "inputs": [],
      "outputs": [
        {
          "name": "",
          "type": "uint256",
          "internalType": "uint256"
        }
      ],
      "stateMutability": "view"
    },
    {
      "type": "function",
      "name": "borrow",
      "inputs": [
        {
          "name": "debtAsset",
          "type": "address",
          "internalType": "address"
        },
        {
          "name": "amount",
          "type": "uint256",
          "internalType": "uint256"
        },
        {
          "name": "data",
          "type": "bytes",
          "internalType": "bytes"
        }
      ],
      "outputs": [],
      "stateMutability": "nonpayable"
    },
    {
      "type": "function",
      "name": "collateralBalance",
      "inputs": [
        {
          "name": "collateral",
          "type": "address",
          "internalType": "address"
        }
      ],
      "outputs": [
        {
          "name": "",
          "type": "uint256",
          "internalType": "uint256"
        }
      ],
      "stateMutability": "view"
    },
    {
      "type": "function",
      "name": "debtBalance",
      "inputs": [
        {
          "name": "debtAsset",
          "type": "address",
          "internalType": "address"
        }
      ],
      "outputs": [
        {
          "name": "",
          "type": "uint256",
          "internalType": "uint256"
        }
      ],
      "stateMutability": "view"
    },
    {
      "type": "function",
      "name": "getRiskSignals",
      "inputs": [
        {
          "name": "debtAsset",
          "type": "address",
          "internalType": "address"
        }
      ],
      "outputs": [
        {
          "name": "hasApr",
          "type": "bool",
          "internalType": "bool"
        },
        {
          "name": "aprBps",
          "type": "uint256",
          "internalType": "uint256"
        },
        {
          "name": "haveHf",
          "type": "bool",
          "internalType": "bool"
        },
        {
          "name": "hfBps",
          "type": "uint256",
          "internalType": "uint256"
        }
      ],
      "stateMutability": "view"
    },
    {
      "type": "function",
      "name": "getRoleAdmin",
      "inputs": [
        {
          "name": "role",
          "type": "bytes32",
          "internalType": "bytes32"
        }
      ],
      "outputs": [
        {
          "name": "",
          "type": "bytes32",
          "internalType": "bytes32"
        }
      ],
      "stateMutability": "view"
    },
    {
      "type": "function",
      "name": "grantRole",
      "inputs": [
        {
          "name": "role",
          "type": "bytes32",
          "internalType": "bytes32"
        },
        {
          "name": "account",
          "type": "address",
          "internalType": "address"
        }
      ],
      "outputs": [],
      "stateMutability": "nonpayable"
    },
    {
      "type": "function",
      "name": "hasRole",
      "inputs": [
        {
          "name": "role",
          "type": "bytes32",
          "internalType": "bytes32"
        },
        {
          "name": "account",
          "type": "address",
          "internalType": "address"
        }
      ],
      "outputs": [
        {
          "name": "",
          "type": "bool",
          "internalType": "bool"
        }
      ],
      "stateMutability": "view"
    },
    {
      "type": "function",
      "name": "paused",
      "inputs": [],
      "outputs": [
        {
          "name": "",
          "type": "bool",
          "internalType": "bool"
        }
      ],
      "stateMutability": "view"
    },
    {
      "type": "function",
      "name": "pool",
      "inputs": [],
      "outputs": [
        {
          "name": "",
          "type": "address",
          "internalType": "contract IPool"
        }
      ],
      "stateMutability": "view"
    },
    {
      "type": "function",
      "name": "renounceRole",
      "inputs": [
        {
          "name": "role",
          "type": "bytes32",
          "internalType": "bytes32"
        },
        {
          "name": "callerConfirmation",
          "type": "address",
          "internalType": "address"
        }
      ],
      "outputs": [],
      "stateMutability": "nonpayable"
    },
    {
      "type": "function",
      "name": "repay",
      "inputs": [
        {
          "name": "debtAsset",
          "type": "address",
          "internalType": "address"
        },
        {
          "name": "amount",
          "type": "uint256",
          "internalType": "uint256"
        },
        {
          "name": "data",
          "type": "bytes",
          "internalType": "bytes"
        }
      ],
      "outputs": [
        {
          "name": "repaid",
          "type": "uint256",
          "internalType": "uint256"
        }
      ],
      "stateMutability": "nonpayable"
    },
    {
      "type": "function",
      "name": "revokeRole",
      "inputs": [
        {
          "name": "role",
          "type": "bytes32",
          "internalType": "bytes32"
        },
        {
          "name": "account",
          "type": "address",
          "internalType": "address"
        }
      ],
      "outputs": [],
      "stateMutability": "nonpayable"
    },
    {
      "type": "function",
      "name": "setPaused",
      "inputs": [
        {
          "name": "on",
          "type": "bool",
          "internalType": "bool"
        }
      ],
      "outputs": [],
      "stateMutability": "nonpayable"
    },
    {
      "type": "function",
      "name": "supplyCollateral",
      "inputs": [
        {
          "name": "collateral",
          "type": "address",
          "internalType": "address"
        },
        {
          "name": "amount",
          "type": "uint256",
          "internalType": "uint256"
        },
        {
          "name": "data",
          "type": "bytes",
          "internalType": "bytes"
        }
      ],
      "outputs": [],
      "stateMutability": "nonpayable"
    },
    {
      "type": "function",
      "name": "supportsInterface",
      "inputs": [
        {
          "name": "interfaceId",
          "type": "bytes4",
          "internalType": "bytes4"
        }
      ],
      "outputs": [
        {
          "name": "",
          "type": "bool",
          "internalType": "bool"
        }
      ],
      "stateMutability": "view"
    },
    {
      "type": "function",
      "name": "withdrawCollateral",
      "inputs": [
        {
          "name": "collateral",
          "type": "address",
          "internalType": "address"
        },
        {
          "name": "amount",
          "type": "uint256",
          "internalType": "uint256"
        },
        {
          "name": "data",
          "type": "bytes",
          "internalType": "bytes"
        }
      ],
      "outputs": [
        {
          "name": "withdrawn",
          "type": "uint256",
          "internalType": "uint256"
        }
      ],
      "stateMutability": "nonpayable"
    },
    {
      "type": "event",
      "name": "Borrowed",
      "inputs": [
        {
          "name": "debtAsset",
          "type": "address",
          "indexed": true,
          "internalType": "address"
        },
        {
          "name": "amount",
          "type": "uint256",
          "indexed": false,
          "internalType": "uint256"
        }
      ],
      "anonymous": false
    },
    {
      "type": "event",
      "name": "Paused",
      "inputs": [
        {
          "name": "account",
          "type": "address",
          "indexed": false,
          "internalType": "address"
        }
      ],
      "anonymous": false
    },
    {
      "type": "event",
      "name": "Repaid",
      "inputs": [
        {
          "name": "debtAsset",
          "type": "address",
          "indexed": true,
          "internalType": "address"
        },
        {
          "name": "amount",
          "type": "uint256",
          "indexed": false,
          "internalType": "uint256"
        }
      ],
      "anonymous": false
    },
    {
      "type": "event",
      "name": "RoleAdminChanged",
      "inputs": [
        {
          "name": "role",
          "type": "bytes32",
          "indexed": true,
          "internalType": "bytes32"
        },
        {
          "name": "previousAdminRole",
          "type": "bytes32",
          "indexed": true,
          "internalType": "bytes32"
        },
        {
          "name": "newAdminRole",
          "type": "bytes32",
          "indexed": true,
          "internalType": "bytes32"
        }
      ],
      "anonymous": false
    },
    {
      "type": "event",
      "name": "RoleGranted",
      "inputs": [
        {
          "name": "role",
          "type": "bytes32",
          "indexed": true,
          "internalType": "bytes32"
        },
        {
          "name": "account",
          "type": "address",
          "indexed": true,
          "internalType": "address"
        },
        {
          "name": "sender",
          "type": "address",
          "indexed": true,
          "internalType": "address"
        }
      ],
      "anonymous": false
    },
    {
      "type": "event",
      "name": "RoleRevoked",
      "inputs": [
        {
          "name": "role",
          "type": "bytes32",
          "indexed": true,
          "internalType": "bytes32"
        },
        {
          "name": "account",
          "type": "address",
          "indexed": true,
          "internalType": "address"
        },
        {
          "name": "sender",
          "type": "address",
          "indexed": true,
          "internalType": "address"
        }
      ],
      "anonymous": false
    },
    {
      "type": "event",
      "name": "Supplied",
      "inputs": [
        {
          "name": "collateral",
          "type": "address",
          "indexed": true,
          "internalType": "address"
        },
        {
          "name": "amount",
          "type": "uint256",
          "indexed": false,
          "internalType": "uint256"
        }
      ],
      "anonymous": false
    },
    {
      "type": "event",
      "name": "Unpaused",
      "inputs": [
        {
          "name": "account",
          "type": "address",
          "indexed": false,
          "internalType": "address"
        }
      ],
      "anonymous": false
    },
    {
      "type": "event",
      "name": "Withdrawn",
      "inputs": [
        {
          "name": "collateral",
          "type": "address",
          "indexed": true,
          "internalType": "address"
        },
        {
          "name": "amount",
          "type": "uint256",
          "indexed": false,
          "internalType": "uint256"
        }
      ],
      "anonymous": false
    },
    {
      "type": "error",
      "name": "AccessControlBadConfirmation",
      "inputs": []
    },
    {
      "type": "error",
      "name": "AccessControlUnauthorizedAccount",
      "inputs": [
        {
          "name": "account",
          "type": "address",
          "internalType": "address"
        },
        {
          "name": "neededRole",
          "type": "bytes32",
          "internalType": "bytes32"
        }
      ]
    },
    {
      "type": "error",
      "name": "EnforcedPause",
      "inputs": []
    },
    {
      "type": "error",
      "name": "ExpectedPause",
      "inputs": []
    },
    {
      "type": "error",
      "name": "SafeERC20FailedOperation",
      "inputs": [
        {
          "name": "token",
          "type": "address",
          "internalType": "address"
        }
      ]
    }
  ],
  "bytecode": {
    "object": "0x60a060405234801562000010575f80fd5b506040516200172a3803806200172a8339810160408190526200003391620001b5565b8282620000617fb058f49d6462f3b1a3b260356aa683712ff15e590972bfac826dd6f0ac9f69cc83620000ed565b506200008e7f14d709f3f05686e62c95aa969cf0a78b04a197162d2e5b7a0b48f3c77bb2512482620000ed565b5050506001600160a01b038116620000d85760405162461bcd60e51b8152602060048201526009602482015268504f4f4c5f5a45524f60b81b604482015260640160405180910390fd5b6001600160a01b031660805250620001fc9050565b5f828152602081815260408083206001600160a01b038516845290915281205460ff1662000190575f838152602081815260408083206001600160a01b03861684529091529020805460ff19166001179055620001473390565b6001600160a01b0316826001600160a01b0316847f2f8788117e7eff1d82e926ec794901d17c78024a50270940304540a733656f0d60405160405180910390a450600162000193565b505f5b92915050565b80516001600160a01b0381168114620001b0575f80fd5b919050565b5f805f60608486031215620001c8575f80fd5b620001d38462000199565b9250620001e36020850162000199565b9150620001f36040850162000199565b90509250925092565b6080516114cf6200025b5f395f81816101a20152818161037e0152818161070c015281816108dd0152818161093401528181610ad601528181610ba201528181610c0001528181610c5801528181610c8e0152610d7b01526114cf5ff3fe608060405234801561000f575f80fd5b5060043610610127575f3560e01c80636a987c69116100a9578063a1bf28401161006e578063a1bf284014610296578063a217fddf146102a9578063a515ace3146102b0578063d547741f146102d7578063f80b6565146102ea575f80fd5b80636a987c69146102425780636e2246a7146102555780637553740f1461026857806386a5191e1461027057806391d1485414610283575f80fd5b806316f1aa30116100ef57806316f1aa30146101dc578063248a9ca3146101ef5780632f2ff15d1461021157806336568abe146102245780635c975abb14610237575f80fd5b806301ffc9a71461012b57806307c7ac1b1461015357806311005b071461017557806316c38b3c1461018857806316f0115b1461019d575b5f80fd5b61013e610139366004611062565b610325565b60405190151581526020015b60405180910390f35b6101675f8051602061147a83398151915281565b60405190815260200161014a565b61016761018336600461109d565b61035b565b61019b6101963660046110b8565b61045e565b005b6101c47f000000000000000000000000000000000000000000000000000000000000000081565b6040516001600160a01b03909116815260200161014a565b61019b6101ea3660046110d7565b6104a1565b6101676101fd366004611159565b5f9081526020819052604090206001015490565b61019b61021f366004611170565b610516565b61019b610232366004611170565b610540565b60015460ff1661013e565b6101676102503660046110d7565b610578565b61019b6102633660046110d7565b6105f2565b610167600281565b61016761027e3660046110d7565b610658565b61013e610291366004611170565b6106c1565b6101676102a436600461109d565b6106e9565b6101675f81565b6101677fb058f49d6462f3b1a3b260356aa683712ff15e590972bfac826dd6f0ac9f69cc81565b61019b6102e5366004611170565b6107aa565b6102fd6102f836600461109d565b6107ce565b604080519415158552602085019390935290151591830191909152606082015260800161014a565b5f6001600160e01b03198216637965db0b60e01b148061035557506301ffc9a760e01b6001600160e01b03198316145b92915050565b6040516335ea6a7560e01b81526001600160a01b0382811660048301525f9182917f000000000000000000000000000000000000000000000000000000000000000016906335ea6a75906024016101e060405180830381865afa1580156103c4573d5f803e3d5ffd5b505050506040513d601f19601f820116820180604052508101906103e8919061126b565b6101408101516040516370a0823160e01b81523060048201529192506001600160a01b0316906370a08231906024015b602060405180830381865afa158015610433573d5f803e3d5ffd5b505050506040513d601f19601f82011682018060405250810190610457919061138c565b9392505050565b7fb058f49d6462f3b1a3b260356aa683712ff15e590972bfac826dd6f0ac9f69cc610488816107e6565b81610499576104956107f3565b5050565b610495610845565b5f8051602061147a8339815191526104b8816107e6565b6104c0610880565b6104cc858585856108a6565b846001600160a01b03167f6473c9f7da8f23a3d810f05b3e8fb3945f0ad17deadcc09e302cdf5d58e48fe78560405161050791815260200190565b60405180910390a25050505050565b5f82815260208190526040902060010154610530816107e6565b61053a8383610992565b50505050565b6001600160a01b03811633146105695760405163334bd91960e11b815260040160405180910390fd5b6105738282610a21565b505050565b5f5f8051602061147a833981519152610590816107e6565b610598610880565b6105a486868686610a8a565b9150856001600160a01b03167f7084f5476618d8e60b11ef0d7d3f06914655adb8793e28ff7f018d4c76d505d5836040516105e191815260200190565b60405180910390a250949350505050565b5f8051602061147a833981519152610609816107e6565b610611610880565b61061d85858585610b4a565b846001600160a01b03167fac59582e5396aca512fa873a2047e7f4c80f8f55d4a06cb34a78a0187f62719f8560405161050791815260200190565b5f5f8051602061147a833981519152610670816107e6565b610678610880565b61068486868686610bd1565b9150856001600160a01b03167f0516911bcc3a0a7412a44601057c0a0a1ec628bde049a84284bc428866534488836040516105e191815260200190565b5f918252602082815260408084206001600160a01b0393909316845291905290205460ff1690565b6040516335ea6a7560e01b81526001600160a01b0382811660048301525f9182917f000000000000000000000000000000000000000000000000000000000000000016906335ea6a75906024016101e060405180830381865afa158015610752573d5f803e3d5ffd5b505050506040513d601f19601f82011682018060405250810190610776919061126b565b6101008101516040516370a0823160e01b81523060048201529192506001600160a01b0316906370a0823190602401610418565b5f828152602081905260409020600101546107c4816107e6565b61053a8383610a21565b5f805f806107db85610c87565b505050509193509193565b6107f08133610e1c565b50565b6107fb610e55565b6001805460ff191690557f5db9ee0a495bf2e6ff9c91a7834c1ba4fdd244a5e8aa4e537bd38aeae4b073aa335b6040516001600160a01b03909116815260200160405180910390a1565b61084d610880565b6001805460ff1916811790557f62e78cea01bee320cd4e420270b5ea74000d11b0c9f74754ebdbfc544b05a25833610828565b60015460ff16156108a45760405163d93c066560e01b815260040160405180910390fd5b565b5f83116108ce5760405162461bcd60e51b81526004016108c5906113a3565b60405180910390fd5b6109026001600160a01b0385167f000000000000000000000000000000000000000000000000000000000000000085610e78565b60405163617ba03760e01b81526001600160a01b038581166004830152602482018590523060448301525f60648301527f0000000000000000000000000000000000000000000000000000000000000000169063617ba037906084015b5f604051808303815f87803b158015610976575f80fd5b505af1158015610988573d5f803e3d5ffd5b5050505050505050565b5f61099d83836106c1565b610a1a575f838152602081815260408083206001600160a01b03861684529091529020805460ff191660011790556109d23390565b6001600160a01b0316826001600160a01b0316847f2f8788117e7eff1d82e926ec794901d17c78024a50270940304540a733656f0d60405160405180910390a4506001610355565b505f610355565b5f610a2c83836106c1565b15610a1a575f838152602081815260408083206001600160a01b0386168085529252808320805460ff1916905551339286917ff6391f5c32d9c69d2a47ea670b442974b53935d1edc7fd64eb21e047a839171b9190a4506001610355565b5f808411610aaa5760405162461bcd60e51b81526004016108c5906113a3565b604051631a4ca37b60e21b81526001600160a01b038681166004830152602482018690523360448301527f000000000000000000000000000000000000000000000000000000000000000016906369328dec906064015b6020604051808303815f875af1158015610b1d573d5f803e3d5ffd5b505050506040513d601f19601f82011682018060405250810190610b41919061138c565b95945050505050565b5f8311610b695760405162461bcd60e51b81526004016108c5906113a3565b60405163a415bcad60e01b81526001600160a01b03858116600483015260248201859052600260448301525f60648301523060848301527f0000000000000000000000000000000000000000000000000000000000000000169063a415bcad9060a40161095f565b5f808411610bf15760405162461bcd60e51b81526004016108c5906113a3565b610c256001600160a01b0386167f000000000000000000000000000000000000000000000000000000000000000086610e78565b60405163573ade8160e01b81526001600160a01b03868116600483015260248201869052600260448301523060648301527f0000000000000000000000000000000000000000000000000000000000000000169063573ade8190608401610b01565b5f805f805f7f00000000000000000000000000000000000000000000000000000000000000006001600160a01b03166335ea6a75876040518263ffffffff1660e01b8152600401610ce791906001600160a01b0391909116815260200190565b6101e060405180830381865afa158015610d03573d5f803e3d5ffd5b505050506040513d601f19601f82011682018060405250810190610d27919061126b565b90505f69152d02c7e14af68000008260800151610d4491906113dc565b604051632fe4a15f60e21b81523060048201526001600160801b039190911691505f90819081908190819081906001600160a01b037f0000000000000000000000000000000000000000000000000000000000000000169063bf92857c9060240160c060405180830381865afa158015610dc0573d5f803e3d5ffd5b505050506040513d601f19601f82011682018060405250810190610de49190611401565b9550955095509550955095505f655af3107a400082610e039190611447565b60019f989e508f9d509b50969950505050505050505050565b610e2682826106c1565b6104955760405163e2517d3f60e01b81526001600160a01b0382166004820152602481018390526044016108c5565b60015460ff166108a457604051638dfc202b60e01b815260040160405180910390fd5b604051636eb1769f60e11b81523060048201526001600160a01b0383811660248301525f919085169063dd62ed3e90604401602060405180830381865afa158015610ec5573d5f803e3d5ffd5b505050506040513d601f19601f82011682018060405250810190610ee9919061138c565b905061053a8484610efa858561145a565b604080516001600160a01b038416602482015260448082018490528251808303909101815260649091019091526020810180516001600160e01b031663095ea7b360e01b179052610f4b8482610fad565b61053a57604080516001600160a01b03851660248201525f6044808301919091528251808303909101815260649091019091526020810180516001600160e01b031663095ea7b360e01b179052610fa3908590610ff6565b61053a8482610ff6565b5f805f8060205f8651602088015f8a5af192503d91505f519050828015610fec57508115610fde5780600114610fec565b5f866001600160a01b03163b115b9695505050505050565b5f8060205f8451602086015f885af180611015576040513d5f823e3d81fd5b50505f513d9150811561102c578060011415611039565b6001600160a01b0384163b155b1561053a57604051635274afe760e01b81526001600160a01b03851660048201526024016108c5565b5f60208284031215611072575f80fd5b81356001600160e01b031981168114610457575f80fd5b6001600160a01b03811681146107f0575f80fd5b5f602082840312156110ad575f80fd5b813561045781611089565b5f602082840312156110c8575f80fd5b81358015158114610457575f80fd5b5f805f80606085870312156110ea575f80fd5b84356110f581611089565b935060208501359250604085013567ffffffffffffffff80821115611118575f80fd5b818701915087601f83011261112b575f80fd5b813581811115611139575f80fd5b88602082850101111561114a575f80fd5b95989497505060200194505050565b5f60208284031215611169575f80fd5b5035919050565b5f8060408385031215611181575f80fd5b82359150602083013561119381611089565b809150509250929050565b6040516101e0810167ffffffffffffffff811182821017156111ce57634e487b7160e01b5f52604160045260245ffd5b60405290565b5f602082840312156111e4575f80fd5b6040516020810181811067ffffffffffffffff8211171561121357634e487b7160e01b5f52604160045260245ffd5b6040529151825250919050565b80516001600160801b0381168114611236575f80fd5b919050565b805164ffffffffff81168114611236575f80fd5b805161ffff81168114611236575f80fd5b805161123681611089565b5f6101e0828403121561127c575f80fd5b61128461119e565b61128e84846111d4565b815261129c60208401611220565b60208201526112ad60408401611220565b60408201526112be60608401611220565b60608201526112cf60808401611220565b60808201526112e060a08401611220565b60a08201526112f160c0840161123b565b60c082015261130260e0840161124f565b60e0820152610100611315818501611260565b90820152610120611327848201611260565b90820152610140611339848201611260565b9082015261016061134b848201611260565b9082015261018061135d848201611220565b908201526101a061136f848201611220565b908201526101c0611381848201611220565b908201529392505050565b5f6020828403121561139c575f80fd5b5051919050565b6020808252600b908201526a16915493d7d05353d5539560aa1b604082015260600190565b634e487b7160e01b5f52601260045260245ffd5b5f6001600160801b03808416806113f5576113f56113c8565b92169190910492915050565b5f805f805f8060c08789031215611416575f80fd5b865195506020870151945060408701519350606087015192506080870151915060a087015190509295509295509295565b5f82611455576114556113c8565b500490565b8082018082111561035557634e487b7160e01b5f52601160045260245ffdfe14d709f3f05686e62c95aa969cf0a78b04a197162d2e5b7a0b48f3c77bb25124a264697066735822122078d5882d1176d45e02f10a16d61094dc2e0ff28a1beabbbd3448b879a226c20e64736f6c63430008180033",
    "linkReferences": {}
  },
  "methodIdentifiers": {
    "DEFAULT_ADMIN_ROLE()": "a217fddf",
    "ROLE_CG()": "07c7ac1b",
    "ROLE_GOV()": "a515ace3",
    "VARIABLE()": "7553740f",
    "borrow(address,uint256,bytes)": "6e2246a7",
    "collateralBalance(address)": "a1bf2840",
    "debtBalance(address)": "11005b07",
    "getRiskSignals(address)": "f80b6565",
    "getRoleAdmin(bytes32)": "248a9ca3",
    "grantRole(bytes32,address)": "2f2ff15d",
    "hasRole(bytes32,address)": "91d14854",
    "paused()": "5c975abb",
    "pool()": "16f0115b",
    "renounceRole(bytes32,address)": "36568abe",
    "repay(address,uint256,bytes)": "86a5191e",
    "revokeRole(bytes32,address)": "d547741f",
    "setPaused(bool)": "16c38b3c",
    "supplyCollateral(address,uint256,bytes)": "16f1aa30",
    "supportsInterface(bytes4)": "01ffc9a7",
    "withdrawCollateral(address,uint256,bytes)": "6a987c69"
  },
  "storageLayout": {
    "storage": [
      {
        "astId": 4377,
        "contract": "src/AaveV3BorrowAdapter.sol:AaveV3BorrowAdapter",
        "label": "_roles",
        "offset": 0,
        "slot": "0",
        "type": "t_mapping(t_bytes32,t_struct(RoleData)4372_storage)"
      },
      {
        "astId": 9234,
        "contract": "src/AaveV3BorrowAdapter.sol:AaveV3BorrowAdapter",
        "label": "_paused",
        "offset": 0,
        "slot": "1",
        "type": "t_bool"
      }
    ],
    "types": {
      "t_address": {
        "encoding": "inplace",
        "label": "address",
        "numberOfBytes": "20"
      },
      "t_bool": {
        "encoding": "inplace",
        "label": "bool",
        "numberOfBytes": "1"
      },
      "t_bytes32": {
        "encoding": "inplace",
        "label": "bytes32",
        "numberOfBytes": "32"
      },
      "t_mapping(t_address,t_bool)": {
        "encoding": "mapping",
        "key": "t_address",
        "label": "mapping(address => bool)",
        "numberOfBytes": "32",
        "value": "t_bool"
      },
      "t_mapping(t_bytes32,t_struct(RoleData)4372_storage)": {
        "encoding": "mapping",
        "key": "t_bytes32",
        "label": "mapping(bytes32 => struct AccessControl.RoleData)",
        "numberOfBytes": "32",
        "value": "t_struct(RoleData)4372_storage"
      },
      "t_struct(RoleData)4372_storage": {
        "encoding": "inplace",
        "label": "struct AccessControl.RoleData",
        "numberOfBytes": "64",
        "members": [
          {
            "astId": 4369,
            "contract": "src/AaveV3BorrowAdapter.sol:AaveV3BorrowAdapter",
            "label": "hasRole",
            "offset": 0,
            "slot": "0",
            "type": "t_mapping(t_address,t_bool)"
          },
          {
            "astId": 4371,
            "contract": "src/AaveV3BorrowAdapter.sol:AaveV3BorrowAdapter",
            "label": "adminRole",
            "offset": 0,
            "slot": "1",
            "type": "t_bytes32"
          }
        ]
      }
    }
  },
  "id": 110
}