{"abi":[{"type":"constructor","inputs":[{"name":"registry_","type":"address","internalType":"contract ISLAYRegistryV2"}],"stateMutability":"nonpayable"},{"type":"function","name":"REGISTRY","inputs":[],"outputs":[{"name":"","type":"address","internalType":"contract ISLAYRegistryV2"}],"stateMutability":"view"},{"type":"function","name":"SLASHING_REQUEST_EXPIRY_WINDOW","inputs":[],"outputs":[{"name":"","type":"uint32","internalType":"uint32"}],"stateMutability":"view"},{"type":"function","name":"UPGRADE_INTERFACE_VERSION","inputs":[],"outputs":[{"name":"","type":"string","internalType":"string"}],"stateMutability":"view"},{"type":"function","name":"acceptOwnership","inputs":[],"outputs":[],"stateMutability":"nonpayable"},{"type":"function","name":"cancelSlashing","inputs":[{"name":"slashId","type":"bytes32","internalType":"bytes32"}],"outputs":[],"stateMutability":"nonpayable"},{"type":"function","name":"finalizeSlashing","inputs":[{"name":"slashId","type":"bytes32","internalType":"bytes32"}],"outputs":[],"stateMutability":"nonpayable"},{"type":"function","name":"getLockedAssets","inputs":[{"name":"slashId","type":"bytes32","internalType":"bytes32"}],"outputs":[{"name":"","type":"tuple[]","internalType":"struct ISLAYRouterSlashingV2.LockedAssets[]","components":[{"name":"amount","type":"uint256","internalType":"uint256"},{"name":"vault","type":"address","internalType":"address"}]}],"stateMutability":"view"},{"type":"function","name":"getMaxVaultsPerOperator","inputs":[],"outputs":[{"name":"","type":"uint8","internalType":"uint8"}],"stateMutability":"view"},{"type":"function","name":"getPendingSlashingRequest","inputs":[{"name":"service","type":"address","internalType":"address"},{"name":"operator","type":"address","internalType":"address"}],"outputs":[{"name":"","type":"tuple","internalType":"struct ISLAYRouterSlashingV2.Request","components":[{"name":"status","type":"uint8","internalType":"enum ISLAYRouterSlashingV2.Status"},{"name":"service","type":"address","internalType":"address"},{"name":"mbips","type":"uint24","internalType":"uint24"},{"name":"timestamp","type":"uint32","internalType":"uint32"},{"name":"requestTime","type":"uint32","internalType":"uint32"},{"name":"operator","type":"address","internalType":"address"},{"name":"requestResolution","type":"uint32","internalType":"uint32"},{"name":"requestExpiry","type":"uint32","internalType":"uint32"}]}],"stateMutability":"view"},{"type":"function","name":"getPendingSlashingRequestId","inputs":[{"name":"service","type":"address","internalType":"address"},{"name":"operator","type":"address","internalType":"address"}],"outputs":[{"name":"","type":"bytes32","internalType":"bytes32"}],"stateMutability":"view"},{"type":"function","name":"getSlashingRequest","inputs":[{"name":"slashId","type":"bytes32","internalType":"bytes32"}],"outputs":[{"name":"","type":"tuple","internalType":"struct ISLAYRouterSlashingV2.Request","components":[{"name":"status","type":"uint8","internalType":"enum ISLAYRouterSlashingV2.Status"},{"name":"service","type":"address","internalType":"address"},{"name":"mbips","type":"uint24","internalType":"uint24"},{"name":"timestamp","type":"uint32","internalType":"uint32"},{"name":"requestTime","type":"uint32","internalType":"uint32"},{"name":"operator","type":"address","internalType":"address"},{"name":"requestResolution","type":"uint32","internalType":"uint32"},{"name":"requestExpiry","type":"uint32","internalType":"uint32"}]}],"stateMutability":"view"},{"type":"function","name":"guardrailApprove","inputs":[{"name":"slashId","type":"bytes32","internalType":"bytes32"},{"name":"approve","type":"bool","internalType":"bool"}],"outputs":[],"stateMutability":"nonpayable"},{"type":"function","name":"initialize","inputs":[{"name":"initialOwner","type":"address","internalType":"address"}],"outputs":[],"stateMutability":"nonpayable"},{"type":"function","name":"initialize2","inputs":[],"outputs":[],"stateMutability":"nonpayable"},{"type":"function","name":"initializeAll","inputs":[{"name":"initialOwner","type":"address","internalType":"address"}],"outputs":[],"stateMutability":"nonpayable"},{"type":"function","name":"isVaultWhitelisted","inputs":[{"name":"vault_","type":"address","internalType":"address"}],"outputs":[{"name":"","type":"bool","internalType":"bool"}],"stateMutability":"view"},{"type":"function","name":"lockSlashing","inputs":[{"name":"slashId","type":"bytes32","internalType":"bytes32"}],"outputs":[],"stateMutability":"nonpayable"},{"type":"function","name":"owner","inputs":[],"outputs":[{"name":"","type":"address","internalType":"address"}],"stateMutability":"view"},{"type":"function","name":"pause","inputs":[],"outputs":[],"stateMutability":"nonpayable"},{"type":"function","name":"paused","inputs":[],"outputs":[{"name":"","type":"bool","internalType":"bool"}],"stateMutability":"view"},{"type":"function","name":"pendingOwner","inputs":[],"outputs":[{"name":"","type":"address","internalType":"address"}],"stateMutability":"view"},{"type":"function","name":"proxiableUUID","inputs":[],"outputs":[{"name":"","type":"bytes32","internalType":"bytes32"}],"stateMutability":"view"},{"type":"function","name":"renounceOwnership","inputs":[],"outputs":[],"stateMutability":"nonpayable"},{"type":"function","name":"requestSlashing","inputs":[{"name":"payload","type":"tuple","internalType":"struct ISLAYRouterSlashingV2.Payload","components":[{"name":"operator","type":"address","internalType":"address"},{"name":"mbips","type":"uint24","internalType":"uint24"},{"name":"timestamp","type":"uint32","internalType":"uint32"},{"name":"reason","type":"string","internalType":"string"}]}],"outputs":[{"name":"","type":"bytes32","internalType":"bytes32"}],"stateMutability":"nonpayable"},{"type":"function","name":"setGuardrail","inputs":[{"name":"guardrail","type":"address","internalType":"address"}],"outputs":[],"stateMutability":"nonpayable"},{"type":"function","name":"setMaxVaultsPerOperator","inputs":[{"name":"count","type":"uint8","internalType":"uint8"}],"outputs":[],"stateMutability":"nonpayable"},{"type":"function","name":"setVaultWhitelist","inputs":[{"name":"vault_","type":"address","internalType":"address"},{"name":"isWhitelisted","type":"bool","internalType":"bool"}],"outputs":[],"stateMutability":"nonpayable"},{"type":"function","name":"transferOwnership","inputs":[{"name":"newOwner","type":"address","internalType":"address"}],"outputs":[],"stateMutability":"nonpayable"},{"type":"function","name":"unpause","inputs":[],"outputs":[],"stateMutability":"nonpayable"},{"type":"function","name":"upgradeToAndCall","inputs":[{"name":"newImplementation","type":"address","internalType":"address"},{"name":"data","type":"bytes","internalType":"bytes"}],"outputs":[],"stateMutability":"payable"},{"type":"event","name":"GuardrailApproval","inputs":[{"name":"slashId","type":"bytes32","indexed":true,"internalType":"bytes32"},{"name":"approval","type":"bool","indexed":false,"internalType":"bool"}],"anonymous":false},{"type":"event","name":"GuardrailUpdated","inputs":[{"name":"oldGuardrail","type":"address","indexed":true,"internalType":"address"},{"name":"guardrail","type":"address","indexed":true,"internalType":"address"}],"anonymous":false},{"type":"event","name":"Initialized","inputs":[{"name":"version","type":"uint64","indexed":false,"internalType":"uint64"}],"anonymous":false},{"type":"event","name":"MaxVaultsPerOperatorUpdated","inputs":[{"name":"oldCount","type":"uint8","indexed":false,"internalType":"uint8"},{"name":"count","type":"uint8","indexed":false,"internalType":"uint8"}],"anonymous":false},{"type":"event","name":"OwnershipTransferStarted","inputs":[{"name":"previousOwner","type":"address","indexed":true,"internalType":"address"},{"name":"newOwner","type":"address","indexed":true,"internalType":"address"}],"anonymous":false},{"type":"event","name":"OwnershipTransferred","inputs":[{"name":"previousOwner","type":"address","indexed":true,"internalType":"address"},{"name":"newOwner","type":"address","indexed":true,"internalType":"address"}],"anonymous":false},{"type":"event","name":"Paused","inputs":[{"name":"account","type":"address","indexed":false,"internalType":"address"}],"anonymous":false},{"type":"event","name":"SlashingCanceled","inputs":[{"name":"service","type":"address","indexed":true,"internalType":"address"},{"name":"operator","type":"address","indexed":true,"internalType":"address"},{"name":"slashId","type":"bytes32","indexed":true,"internalType":"bytes32"}],"anonymous":false},{"type":"event","name":"SlashingFinalized","inputs":[{"name":"service","type":"address","indexed":true,"internalType":"address"},{"name":"operator","type":"address","indexed":true,"internalType":"address"},{"name":"slashId","type":"bytes32","indexed":true,"internalType":"bytes32"},{"name":"destination","type":"address","indexed":false,"internalType":"address"}],"anonymous":false},{"type":"event","name":"SlashingLocked","inputs":[{"name":"service","type":"address","indexed":true,"internalType":"address"},{"name":"operator","type":"address","indexed":true,"internalType":"address"},{"name":"slashId","type":"bytes32","indexed":true,"internalType":"bytes32"}],"anonymous":false},{"type":"event","name":"SlashingRequested","inputs":[{"name":"service","type":"address","indexed":true,"internalType":"address"},{"name":"operator","type":"address","indexed":true,"internalType":"address"},{"name":"slashId","type":"bytes32","indexed":true,"internalType":"bytes32"},{"name":"request","type":"tuple","indexed":false,"internalType":"struct ISLAYRouterSlashingV2.Request","components":[{"name":"status","type":"uint8","internalType":"enum ISLAYRouterSlashingV2.Status"},{"name":"service","type":"address","internalType":"address"},{"name":"mbips","type":"uint24","internalType":"uint24"},{"name":"timestamp","type":"uint32","internalType":"uint32"},{"name":"requestTime","type":"uint32","internalType":"uint32"},{"name":"operator","type":"address","internalType":"address"},{"name":"requestResolution","type":"uint32","internalType":"uint32"},{"name":"requestExpiry","type":"uint32","internalType":"uint32"}]},{"name":"reason","type":"string","indexed":false,"internalType":"string"}],"anonymous":false},{"type":"event","name":"Unpaused","inputs":[{"name":"account","type":"address","indexed":false,"internalType":"address"}],"anonymous":false},{"type":"event","name":"Upgraded","inputs":[{"name":"implementation","type":"address","indexed":true,"internalType":"address"}],"anonymous":false},{"type":"event","name":"VaultWhitelisted","inputs":[{"name":"operator","type":"address","indexed":true,"internalType":"address"},{"name":"vault","type":"address","indexed":false,"internalType":"address"},{"name":"whitelisted","type":"bool","indexed":false,"internalType":"bool"}],"anonymous":false},{"type":"error","name":"AddressEmptyCode","inputs":[{"name":"target","type":"address","internalType":"address"}]},{"type":"error","name":"ERC1967InvalidImplementation","inputs":[{"name":"implementation","type":"address","internalType":"address"}]},{"type":"error","name":"ERC1967NonPayable","inputs":[]},{"type":"error","name":"EnforcedPause","inputs":[]},{"type":"error","name":"ExpectedPause","inputs":[]},{"type":"error","name":"FailedCall","inputs":[]},{"type":"error","name":"GuardrailHasDetermined","inputs":[]},{"type":"error","name":"GuardrailHaveNotApproved","inputs":[]},{"type":"error","name":"InvalidInitialization","inputs":[]},{"type":"error","name":"InvalidStatus","inputs":[]},{"type":"error","name":"NotInitializing","inputs":[]},{"type":"error","name":"OwnableInvalidOwner","inputs":[{"name":"owner","type":"address","internalType":"address"}]},{"type":"error","name":"OwnableUnauthorizedAccount","inputs":[{"name":"account","type":"address","internalType":"address"}]},{"type":"error","name":"ReentrancyGuardReentrantCall","inputs":[]},{"type":"error","name":"SafeERC20FailedOperation","inputs":[{"name":"token","type":"address","internalType":"address"}]},{"type":"error","name":"ServiceNotFound","inputs":[{"name":"account","type":"address","internalType":"address"}]},{"type":"error","name":"SlashingRequestExpired","inputs":[]},{"type":"error","name":"SlashingRequestNotFound","inputs":[]},{"type":"error","name":"SlashingResolutionNotReached","inputs":[]},{"type":"error","name":"UUPSUnauthorizedCallContext","inputs":[]},{"type":"error","name":"UUPSUnsupportedProxiableUUID","inputs":[{"name":"slot","type":"bytes32","internalType":"bytes32"}]},{"type":"error","name":"Unauthorized","inputs":[]}],"bytecode":{"object":"0x60c06040523073ffffffffffffffffffffffffffffffffffffffff1660809073ffffffffffffffffffffffffffffffffffffffff1681525034801562000043575f80fd5b5060405162005aa138038062005aa1833981810160405281019062000069919062000284565b62000079620000c460201b60201c565b8073ffffffffffffffffffffffffffffffffffffffff1660a08173ffffffffffffffffffffffffffffffffffffffff1681525050620000bd620000c460201b60201c565b50620002f3565b5f620000d5620001c860201b60201c565b9050805f0160089054906101000a900460ff161562000120576040517ff92ee8a900000000000000000000000000000000000000000000000000000000815260040160405180910390fd5b67ffffffffffffffff8016815f015f9054906101000a900467ffffffffffffffff1667ffffffffffffffff1614620001c55767ffffffffffffffff815f015f6101000a81548167ffffffffffffffff021916908367ffffffffffffffff1602179055507fc7f505b2f371ae2175ee4913f4499e1f2633a7b5936321eed1cdaeb6115181d267ffffffffffffffff604051620001bc9190620002d8565b60405180910390a15b50565b5f80620001da620001e360201b60201c565b90508091505090565b5f7ff0c57e16840df040f15088dc2f81fe391c3923bec73e23a9662efc9c229c6a005f1b905090565b5f80fd5b5f73ffffffffffffffffffffffffffffffffffffffff82169050919050565b5f6200023b8262000210565b9050919050565b5f6200024e826200022f565b9050919050565b620002608162000242565b81146200026b575f80fd5b50565b5f815190506200027e8162000255565b92915050565b5f602082840312156200029c576200029b6200020c565b5b5f620002ab848285016200026e565b91505092915050565b5f67ffffffffffffffff82169050919050565b620002d281620002b4565b82525050565b5f602082019050620002ed5f830184620002c7565b92915050565b60805160a05161574d620003545f395f81816107250152818161099e01528181610f7e015281816111740152818161129801528181611ecc015281816121430152612e2501525f8181613652015281816136a70152613861015261574d5ff3fe6080604052600436106101cb575f3560e01c806379ba5097116100f6578063ad3cb1cc11610094578063dd71764411610063578063dd717644146105eb578063deec65bc14610627578063e30c39781461064f578063f2fde38b14610679576101cb565b8063ad3cb1cc14610535578063b20374801461055f578063b4867fe41461059b578063c4d66de8146105c3576101cb565b80638da5cb5b116100d05780638da5cb5b1461048f57806397da0056146104b95780639916fa02146104e3578063acfad6281461050b576101cb565b806379ba50971461043b5780638456cb59146104515780638651060d14610467576101cb565b80633f4ba83a1161016e57806352d1902d1161013d57806352d1902d1461039557806353dd91f5146103bf5780635c975abb146103fb578063715018a614610425576101cb565b80633f4ba83a14610325578063472abf681461033b5780634eb30bc9146103515780634f1ef28614610379576101cb565b806317afb65b116101aa57806317afb65b146102715780631838efe5146102995780633302a6a1146102d557806333410dc4146102fd576101cb565b80622cf9a4146101cf57806306433b1b1461020b5780630b78623b14610235575b5f80fd5b3480156101da575f80fd5b506101f560048036038101906101f091906143cb565b6106a1565b6040516102029190614421565b60405180910390f35b348015610216575f80fd5b5061021f610723565b60405161022c9190614495565b60405180910390f35b348015610240575f80fd5b5061025b600480360381019061025691906143cb565b610747565b604051610268919061460b565b60405180910390f35b34801561027c575f80fd5b506102976004803603810190610292919061464f565b61098c565b005b3480156102a4575f80fd5b506102bf60048036038101906102ba919061469c565b610f73565b6040516102cc9190614421565b60405180910390f35b3480156102e0575f80fd5b506102fb60048036038101906102f69190614718565b6119aa565b005b348015610308575f80fd5b50610323600480360381019061031e9190614756565b611c28565b005b348015610330575f80fd5b50610339611d60565b005b348015610346575f80fd5b5061034f611d72565b005b34801561035c575f80fd5b506103776004803603810190610372919061464f565b611eba565b005b610393600480360381019061038e91906148bd565b61251e565b005b3480156103a0575f80fd5b506103a961253d565b6040516103b69190614421565b60405180910390f35b3480156103ca575f80fd5b506103e560048036038101906103e0919061464f565b61256e565b6040516103f2919061460b565b60405180910390f35b348015610406575f80fd5b5061040f612735565b60405161041c9190614926565b60405180910390f35b348015610430575f80fd5b50610439612757565b005b348015610446575f80fd5b5061044f61276a565b005b34801561045c575f80fd5b506104656127f8565b005b348015610472575f80fd5b5061048d60048036038101906104889190614975565b61280a565b005b34801561049a575f80fd5b506104a36128c3565b6040516104b091906149af565b60405180910390f35b3480156104c4575f80fd5b506104cd6128f8565b6040516104da91906149d7565b60405180910390f35b3480156104ee575f80fd5b5061050960048036038101906105049190614756565b61290d565b005b348015610516575f80fd5b5061051f612921565b60405161052c91906149ff565b60405180910390f35b348015610540575f80fd5b50610549612928565b6040516105569190614a92565b60405180910390f35b34801561056a575f80fd5b5061058560048036038101906105809190614756565b612961565b6040516105929190614926565b60405180910390f35b3480156105a6575f80fd5b506105c160048036038101906105bc9190614ab2565b6129b2565b005b3480156105ce575f80fd5b506105e960048036038101906105e49190614756565b612baf565b005b3480156105f6575f80fd5b50610611600480360381019061060c919061464f565b612d48565b60405161061e9190614bdd565b60405180910390f35b348015610632575f80fd5b5061064d6004803603810190610648919061464f565b612e13565b005b34801561065a575f80fd5b5061066361315c565b60405161067091906149af565b60405180910390f35b348015610684575f80fd5b5061069f600480360381019061069a9190614756565b613191565b005b5f60035f8473ffffffffffffffffffffffffffffffffffffffff1673ffffffffffffffffffffffffffffffffffffffff1681526020019081526020015f205f8373ffffffffffffffffffffffffffffffffffffffff1673ffffffffffffffffffffffffffffffffffffffff1681526020019081526020015f2054905092915050565b7f000000000000000000000000000000000000000000000000000000000000000081565b61074f614264565b5f60035f8573ffffffffffffffffffffffffffffffffffffffff1673ffffffffffffffffffffffffffffffffffffffff1681526020019081526020015f205f8473ffffffffffffffffffffffffffffffffffffffff1673ffffffffffffffffffffffffffffffffffffffff1681526020019081526020015f2054905060045f8281526020019081526020015f20604051806101000160405290815f82015f9054906101000a900460ff16600381111561080b5761080a6144ae565b5b600381111561081d5761081c6144ae565b5b81526020015f820160019054906101000a900473ffffffffffffffffffffffffffffffffffffffff1673ffffffffffffffffffffffffffffffffffffffff1673ffffffffffffffffffffffffffffffffffffffff1681526020015f820160159054906101000a900462ffffff1662ffffff1662ffffff1681526020015f820160189054906101000a900463ffffffff1663ffffffff1663ffffffff1681526020015f8201601c9054906101000a900463ffffffff1663ffffffff1663ffffffff168152602001600182015f9054906101000a900473ffffffffffffffffffffffffffffffffffffffff1673ffffffffffffffffffffffffffffffffffffffff1673ffffffffffffffffffffffffffffffffffffffff1681526020016001820160149054906101000a900463ffffffff1663ffffffff1663ffffffff1681526020016001820160189054906101000a900463ffffffff1663ffffffff1663ffffffff168152505091505092915050565b61099461324a565b61099c61328b565b7f000000000000000000000000000000000000000000000000000000000000000073ffffffffffffffffffffffffffffffffffffffff1663e9d8dbfd826040518263ffffffff1660e01b81526004016109f591906149af565b602060405180830381865afa158015610a10573d5f803e3d5ffd5b505050506040513d601f19601f82011682018060405250810190610a349190614c11565b610a7557806040517fb5365807000000000000000000000000000000000000000000000000000000008152600401610a6c91906149af565b60405180910390fd5b610a7d613292565b5f60045f8481526020019081526020015f209050610a9961328b565b73ffffffffffffffffffffffffffffffffffffffff16815f0160019054906101000a900473ffffffffffffffffffffffffffffffffffffffff1673ffffffffffffffffffffffffffffffffffffffff1614610b20576040517f82b4290000000000000000000000000000000000000000000000000000000000815260040160405180910390fd5b5f6003811115610b3357610b326144ae565b5b815f015f9054906101000a900460ff166003811115610b5557610b546144ae565b5b14610b8c576040517ff525e32000000000000000000000000000000000000000000000000000000000815260040160405180910390fd5b4263ffffffff168160010160189054906101000a900463ffffffff1663ffffffff161015610be6576040517f31e24a9f00000000000000000000000000000000000000000000000000000000815260040160405180910390fd5b4263ffffffff168160010160149054906101000a900463ffffffff1663ffffffff161115610c40576040517f7957063c00000000000000000000000000000000000000000000000000000000815260040160405180910390fd5b6001815f015f6101000a81548160ff02191690836003811115610c6657610c656144ae565b5b02179055505f60025f836001015f9054906101000a900473ffffffffffffffffffffffffffffffffffffffff1673ffffffffffffffffffffffffffffffffffffffff1673ffffffffffffffffffffffffffffffffffffffff1681526020019081526020015f2090505f610cd8826132e6565b90505f5b81811015610ec2575f610cf882856132f990919063ffffffff16565b90505f8190505f610d908273ffffffffffffffffffffffffffffffffffffffff166301e1d1146040518163ffffffff1660e01b8152600401602060405180830381865afa158015610d4b573d5f803e3d5ffd5b505050506040513d601f19601f82011682018060405250810190610d6f9190614c66565b885f0160159054906101000a900462ffffff1662ffffff1662989680613310565b90505f8114610eb2578173ffffffffffffffffffffffffffffffffffffffff1663dff81f7d826040518263ffffffff1660e01b8152600401610dd29190614ca0565b5f604051808303815f87803b158015610de9575f80fd5b505af1158015610dfb573d5f803e3d5ffd5b5050505060055f8a81526020019081526020015f2060405180604001604052808381526020018573ffffffffffffffffffffffffffffffffffffffff16815250908060018154018082558091505060019003905f5260205f2090600202015f909190919091505f820151815f01556020820151816001015f6101000a81548173ffffffffffffffffffffffffffffffffffffffff021916908373ffffffffffffffffffffffffffffffffffffffff16021790555050505b8380600101945050505050610cdc565b5084836001015f9054906101000a900473ffffffffffffffffffffffffffffffffffffffff1673ffffffffffffffffffffffffffffffffffffffff16845f0160019054906101000a900473ffffffffffffffffffffffffffffffffffffffff1673ffffffffffffffffffffffffffffffffffffffff167f6e141be0670106fb9241fc2d132fa5597d7decd0184d366414050b782c76ddda60405160405180910390a4505050610f6f6133ef565b5050565b5f610f7c61328b565b7f000000000000000000000000000000000000000000000000000000000000000073ffffffffffffffffffffffffffffffffffffffff1663e9d8dbfd826040518263ffffffff1660e01b8152600401610fd591906149af565b602060405180830381865afa158015610ff0573d5f803e3d5ffd5b505050506040513d601f19601f820116820180604052508101906110149190614c11565b61105557806040517fb536580700000000000000000000000000000000000000000000000000000000815260040161104c91906149af565b60405180910390fd5b61105d61324a565b60fa83806060019061106f9190614cc5565b905011156110b2576040517f08c379a00000000000000000000000000000000000000000000000000000000081526004016110a990614d71565b60405180910390fd5b5f8360200160208101906110c69190614db9565b62ffffff161161110b576040517f08c379a000000000000000000000000000000000000000000000000000000000815260040161110290614e2e565b60405180910390fd5b4283604001602081019061111f9190614e76565b63ffffffff161115611166576040517f08c379a000000000000000000000000000000000000000000000000000000000815260040161115d90614eeb565b60405180910390fd5b5f61116f61328b565b90505f7f000000000000000000000000000000000000000000000000000000000000000073ffffffffffffffffffffffffffffffffffffffff166397c459c483875f0160208101906111c19190614756565b8860400160208101906111d49190614e76565b6040518463ffffffff1660e01b81526004016111f293929190614f09565b606060405180830381865afa15801561120d573d5f803e3d5ffd5b505050506040513d601f19601f820116820180604052508101906112319190614fdf565b9050806020015162ffffff168560200160208101906112509190614db9565b62ffffff161115611296576040517f08c379a000000000000000000000000000000000000000000000000000000000815260040161128d90615054565b60405180910390fd5b7f000000000000000000000000000000000000000000000000000000000000000073ffffffffffffffffffffffffffffffffffffffff1663b1e50829865f0160208101906112e49190614756565b6040518263ffffffff1660e01b815260040161130091906149af565b602060405180830381865afa15801561131b573d5f803e3d5ffd5b505050506040513d601f19601f8201168201806040525081019061133f9190615072565b63ffffffff164261135091906150ca565b8560400160208101906113639190614e76565b63ffffffff16116113a9576040517f08c379a00000000000000000000000000000000000000000000000000000000081526004016113a090615147565b60405180910390fd5b5f60035f8473ffffffffffffffffffffffffffffffffffffffff1673ffffffffffffffffffffffffffffffffffffffff1681526020019081526020015f205f875f0160208101906113fa9190614756565b73ffffffffffffffffffffffffffffffffffffffff1673ffffffffffffffffffffffffffffffffffffffff1681526020019081526020015f205490505f801b8114611600575f60045f8381526020019081526020015f20905060016003811115611467576114666144ae565b5b815f015f9054906101000a900460ff166003811115611489576114886144ae565b5b036114c9576040517f08c379a00000000000000000000000000000000000000000000000000000000081526004016114c0906151d5565b60405180910390fd5b5f60038111156114dc576114db6144ae565b5b815f015f9054906101000a900460ff1660038111156114fe576114fd6144ae565b5b036115fe574263ffffffff168160010160189054906101000a900463ffffffff1663ffffffff161115611566576040517f08c379a000000000000000000000000000000000000000000000000000000000815260040161155d906151d5565b60405180910390fd5b6003815f015f6101000a81548160ff0219169083600381111561158c5761158b6144ae565b5b021790555081875f0160208101906115a49190614756565b73ffffffffffffffffffffffffffffffffffffffff168573ffffffffffffffffffffffffffffffffffffffff167fe3884525a2d5f483253428531619e78f11f1af8cbd2d28311259fd31ef46018a60405160405180910390a45b505b5f82604001514261161191906151f3565b90505f6040518061010001604052805f6003811115611633576116326144ae565b5b81526020018673ffffffffffffffffffffffffffffffffffffffff1681526020018960200160208101906116679190614db9565b62ffffff1681526020018960400160208101906116849190614e76565b63ffffffff1681526020014263ffffffff168152602001895f0160208101906116ad9190614756565b73ffffffffffffffffffffffffffffffffffffffff1681526020018363ffffffff16815260200162093a80846116e391906151f3565b63ffffffff1681525090506116f781613406565b92508260035f8773ffffffffffffffffffffffffffffffffffffffff1673ffffffffffffffffffffffffffffffffffffffff1681526020019081526020015f205f8a5f01602081019061174a9190614756565b73ffffffffffffffffffffffffffffffffffffffff1673ffffffffffffffffffffffffffffffffffffffff1681526020019081526020015f20819055508060045f8581526020019081526020015f205f820151815f015f6101000a81548160ff021916908360038111156117c1576117c06144ae565b5b02179055506020820151815f0160016101000a81548173ffffffffffffffffffffffffffffffffffffffff021916908373ffffffffffffffffffffffffffffffffffffffff1602179055506040820151815f0160156101000a81548162ffffff021916908362ffffff1602179055506060820151815f0160186101000a81548163ffffffff021916908363ffffffff1602179055506080820151815f01601c6101000a81548163ffffffff021916908363ffffffff16021790555060a0820151816001015f6101000a81548173ffffffffffffffffffffffffffffffffffffffff021916908373ffffffffffffffffffffffffffffffffffffffff16021790555060c08201518160010160146101000a81548163ffffffff021916908363ffffffff16021790555060e08201518160010160186101000a81548163ffffffff021916908363ffffffff16021790555090505082885f0160208101906119269190614756565b73ffffffffffffffffffffffffffffffffffffffff168673ffffffffffffffffffffffffffffffffffffffff167f1928f55cc7948e65b5fd8b65349e79b0970a639acc7f5f308bcd1808e0ecdb8e848c80606001906119859190614cc5565b60405161199493929190615256565b60405180910390a4829650505050505050919050565b6119b261345d565b8015155f808473ffffffffffffffffffffffffffffffffffffffff1673ffffffffffffffffffffffffffffffffffffffff1681526020019081526020015f205f9054906101000a900460ff16151503611a40576040517f08c379a0000000000000000000000000000000000000000000000000000000008152600401611a37906152d2565b60405180910390fd5b5f8273ffffffffffffffffffffffffffffffffffffffff1663cf8db8626040518163ffffffff1660e01b8152600401602060405180830381865afa158015611a8a573d5f803e3d5ffd5b505050506040513d601f19601f82011682018060405250810190611aae91906152f0565b90505f60025f8373ffffffffffffffffffffffffffffffffffffffff1673ffffffffffffffffffffffffffffffffffffffff1681526020019081526020015f2090508215611b6a5760015f9054906101000a900460ff1660ff16611b11826132e6565b10611b51576040517f08c379a0000000000000000000000000000000000000000000000000000000008152600401611b4890615365565b60405180910390fd5b611b6484826134e490919063ffffffff16565b50611b7f565b611b7d848261351190919063ffffffff16565b505b825f808673ffffffffffffffffffffffffffffffffffffffff1673ffffffffffffffffffffffffffffffffffffffff1681526020019081526020015f205f6101000a81548160ff0219169083151502179055508173ffffffffffffffffffffffffffffffffffffffff167f2ffaf20674bccc4ab0c9dd20b627f4ed9a43dc5232ed18a32410ad4207fc176b8585604051611c1a929190615383565b60405180910390a250505050565b611c3061345d565b5f73ffffffffffffffffffffffffffffffffffffffff168173ffffffffffffffffffffffffffffffffffffffff1603611c9e576040517f08c379a0000000000000000000000000000000000000000000000000000000008152600401611c959061541a565b60405180910390fd5b5f60018054906101000a900473ffffffffffffffffffffffffffffffffffffffff169050816001806101000a81548173ffffffffffffffffffffffffffffffffffffffff021916908373ffffffffffffffffffffffffffffffffffffffff1602179055508173ffffffffffffffffffffffffffffffffffffffff168173ffffffffffffffffffffffffffffffffffffffff167fe48a815386a6ba32bdcfe3b82f31e254f5e3e0549da4cddc175ff7d296ad5a5a60405160405180910390a35050565b611d6861345d565b611d7061353e565b565b60025f611d7d6135ac565b9050805f0160089054906101000a900460ff1680611dc557508167ffffffffffffffff16815f015f9054906101000a900467ffffffffffffffff1667ffffffffffffffff1610155b15611dfc576040517ff92ee8a900000000000000000000000000000000000000000000000000000000815260040160405180910390fd5b81815f015f6101000a81548167ffffffffffffffff021916908367ffffffffffffffff1602179055506001815f0160086101000a81548160ff021916908315150217905550611e496135bf565b600a60015f6101000a81548160ff021916908360ff1602179055505f815f0160086101000a81548160ff0219169083151502179055507fc7f505b2f371ae2175ee4913f4499e1f2633a7b5936321eed1cdaeb6115181d282604051611eae919061545a565b60405180910390a15050565b611ec261324a565b611eca61328b565b7f000000000000000000000000000000000000000000000000000000000000000073ffffffffffffffffffffffffffffffffffffffff1663e9d8dbfd826040518263ffffffff1660e01b8152600401611f2391906149af565b602060405180830381865afa158015611f3e573d5f803e3d5ffd5b505050506040513d601f19601f82011682018060405250810190611f629190614c11565b611fa357806040517fb5365807000000000000000000000000000000000000000000000000000000008152600401611f9a91906149af565b60405180910390fd5b611fab613292565b5f60045f8481526020019081526020015f209050611fc761328b565b73ffffffffffffffffffffffffffffffffffffffff16815f0160019054906101000a900473ffffffffffffffffffffffffffffffffffffffff1673ffffffffffffffffffffffffffffffffffffffff161461204e576040517f82b4290000000000000000000000000000000000000000000000000000000000815260040160405180910390fd5b60016003811115612062576120616144ae565b5b815f015f9054906101000a900460ff166003811115612084576120836144ae565b5b146120bb576040517ff525e32000000000000000000000000000000000000000000000000000000000815260040160405180910390fd5b600160065f8581526020019081526020015f205f9054906101000a900460ff1660ff1614612115576040517f05694d1d00000000000000000000000000000000000000000000000000000000815260040160405180910390fd5b6002815f015f6101000a81548160ff0219169083600381111561213b5761213a6144ae565b5b02179055505f7f000000000000000000000000000000000000000000000000000000000000000073ffffffffffffffffffffffffffffffffffffffff166397c459c4835f0160019054906101000a900473ffffffffffffffffffffffffffffffffffffffff16846001015f9054906101000a900473ffffffffffffffffffffffffffffffffffffffff16855f0160189054906101000a900463ffffffff166040518463ffffffff1660e01b81526004016121f793929190614f09565b606060405180830381865afa158015612212573d5f803e3d5ffd5b505050506040513d601f19601f820116820180604052508101906122369190614fdf565b90505f60055f8681526020019081526020015f2090505f5b8180549050811015612382575f82828154811061226e5761226d615473565b5b905f5260205f20906002020190505f816001015f9054906101000a900473ffffffffffffffffffffffffffffffffffffffff1690505f825f015490508484815481106122bd576122bc615473565b5b905f5260205f2090600202015f8082015f9055600182015f6101000a81549073ffffffffffffffffffffffffffffffffffffffff021916905550506123728273ffffffffffffffffffffffffffffffffffffffff166338d52e0f6040518163ffffffff1660e01b8152600401602060405180830381865afa158015612344573d5f803e3d5ffd5b505050506040513d601f19601f8201168201806040525081019061236891906152f0565b875f0151836135d1565b838060010194505050505061224e565b5060055f8681526020019081526020015f205f61239f91906142fc565b60035f845f0160019054906101000a900473ffffffffffffffffffffffffffffffffffffffff1673ffffffffffffffffffffffffffffffffffffffff1673ffffffffffffffffffffffffffffffffffffffff1681526020019081526020015f205f846001015f9054906101000a900473ffffffffffffffffffffffffffffffffffffffff1673ffffffffffffffffffffffffffffffffffffffff1673ffffffffffffffffffffffffffffffffffffffff1681526020019081526020015f205f905584836001015f9054906101000a900473ffffffffffffffffffffffffffffffffffffffff1673ffffffffffffffffffffffffffffffffffffffff16845f0160019054906101000a900473ffffffffffffffffffffffffffffffffffffffff1673ffffffffffffffffffffffffffffffffffffffff167f82a1d74d3c1a7982ea75f5e68c0964c3309fc5ddfc6e1f1d2fb6b10eacce91e6855f015160405161250791906149af565b60405180910390a450505061251a6133ef565b5050565b612526613650565b61252f82613736565b6125398282613741565b5050565b5f61254661385f565b7f360894a13ba1a3210667c828492db98dca3e2076cc3735a920a3ca505d382bbc5f1b905090565b612576614264565b60045f8381526020019081526020015f20604051806101000160405290815f82015f9054906101000a900460ff1660038111156125b6576125b56144ae565b5b60038111156125c8576125c76144ae565b5b81526020015f820160019054906101000a900473ffffffffffffffffffffffffffffffffffffffff1673ffffffffffffffffffffffffffffffffffffffff1673ffffffffffffffffffffffffffffffffffffffff1681526020015f820160159054906101000a900462ffffff1662ffffff1662ffffff1681526020015f820160189054906101000a900463ffffffff1663ffffffff1663ffffffff1681526020015f8201601c9054906101000a900463ffffffff1663ffffffff1663ffffffff168152602001600182015f9054906101000a900473ffffffffffffffffffffffffffffffffffffffff1673ffffffffffffffffffffffffffffffffffffffff1673ffffffffffffffffffffffffffffffffffffffff1681526020016001820160149054906101000a900463ffffffff1663ffffffff1663ffffffff1681526020016001820160189054906101000a900463ffffffff1663ffffffff1663ffffffff16815250509050919050565b5f8061273f6138e6565b9050805f015f9054906101000a900460ff1691505090565b61275f61345d565b6127685f61390d565b565b5f61277361328b565b90508073ffffffffffffffffffffffffffffffffffffffff1661279461315c565b73ffffffffffffffffffffffffffffffffffffffff16146127ec57806040517f118cdaa70000000000000000000000000000000000000000000000000000000081526004016127e391906149af565b60405180910390fd5b6127f58161390d565b50565b61280061345d565b61280861394a565b565b61281261345d565b5f60015f9054906101000a900460ff1690508060ff168260ff161161286c576040517f08c379a0000000000000000000000000000000000000000000000000000000008152600401612863906154ea565b60405180910390fd5b8160015f6101000a81548160ff021916908360ff1602179055507f7f272733435a5c1171c60918325413034d8465dddd58e7830c74d20840f5a0c081836040516128b7929190615508565b60405180910390a15050565b5f806128cd6139b9565b9050805f015f9054906101000a900473ffffffffffffffffffffffffffffffffffffffff1691505090565b5f60015f9054906101000a900460ff16905090565b61291681612baf565b61291e611d72565b50565b62093a8081565b6040518060400160405280600581526020017f352e302e3000000000000000000000000000000000000000000000000000000081525081565b5f805f8373ffffffffffffffffffffffffffffffffffffffff1673ffffffffffffffffffffffffffffffffffffffff1681526020019081526020015f205f9054906101000a900460ff169050919050565b6129ba61324a565b60018054906101000a900473ffffffffffffffffffffffffffffffffffffffff1673ffffffffffffffffffffffffffffffffffffffff166129f961328b565b73ffffffffffffffffffffffffffffffffffffffff1614612a46576040517f82b4290000000000000000000000000000000000000000000000000000000000815260040160405180910390fd5b5f60045f8481526020019081526020015f2090505f73ffffffffffffffffffffffffffffffffffffffff16815f0160019054906101000a900473ffffffffffffffffffffffffffffffffffffffff1673ffffffffffffffffffffffffffffffffffffffff1603612ae2576040517fc191eff900000000000000000000000000000000000000000000000000000000815260040160405180910390fd5b5f60065f8581526020019081526020015f205f9054906101000a900460ff1660ff1614612b3b576040517f93579aa300000000000000000000000000000000000000000000000000000000815260040160405180910390fd5b81612b47576002612b4a565b60015b60065f8581526020019081526020015f205f6101000a81548160ff021916908360ff160217905550827f098a812d9d10a266b1a99ac5ec25f2cbf779f49d2cacf9c58eb35edea7df684283604051612ba29190614926565b60405180910390a2505050565b5f612bb86135ac565b90505f815f0160089054906101000a900460ff161590505f825f015f9054906101000a900467ffffffffffffffff1690505f808267ffffffffffffffff16148015612c005750825b90505f60018367ffffffffffffffff16148015612c3357505f3073ffffffffffffffffffffffffffffffffffffffff163b145b905081158015612c41575080155b15612c78576040517ff92ee8a900000000000000000000000000000000000000000000000000000000815260040160405180910390fd5b6001855f015f6101000a81548167ffffffffffffffff021916908367ffffffffffffffff1602179055508315612cc5576001855f0160086101000a81548160ff0219169083151502179055505b612cce866139e0565b612cd66139f4565b612cde6139fe565b612ce6613a08565b8315612d40575f855f0160086101000a81548160ff0219169083151502179055507fc7f505b2f371ae2175ee4913f4499e1f2633a7b5936321eed1cdaeb6115181d26001604051612d379190615568565b60405180910390a15b505050505050565b606060055f8381526020019081526020015f20805480602002602001604051908101604052809291908181526020015f905b82821015612e08578382905f5260205f2090600202016040518060400160405290815f8201548152602001600182015f9054906101000a900473ffffffffffffffffffffffffffffffffffffffff1673ffffffffffffffffffffffffffffffffffffffff1673ffffffffffffffffffffffffffffffffffffffff168152505081526020019060010190612d7a565b505050509050919050565b612e1b61324a565b612e2361328b565b7f000000000000000000000000000000000000000000000000000000000000000073ffffffffffffffffffffffffffffffffffffffff1663e9d8dbfd826040518263ffffffff1660e01b8152600401612e7c91906149af565b602060405180830381865afa158015612e97573d5f803e3d5ffd5b505050506040513d601f19601f82011682018060405250810190612ebb9190614c11565b612efc57806040517fb5365807000000000000000000000000000000000000000000000000000000008152600401612ef391906149af565b60405180910390fd5b5f612f0561328b565b90505f60045f8581526020019081526020015f2090508173ffffffffffffffffffffffffffffffffffffffff16815f0160019054906101000a900473ffffffffffffffffffffffffffffffffffffffff1673ffffffffffffffffffffffffffffffffffffffff1614612fa3576040517f82b4290000000000000000000000000000000000000000000000000000000000815260040160405180910390fd5b5f6003811115612fb657612fb56144ae565b5b815f015f9054906101000a900460ff166003811115612fd857612fd76144ae565b5b1461300f576040517ff525e32000000000000000000000000000000000000000000000000000000000815260040160405180910390fd5b6003815f015f6101000a81548160ff02191690836003811115613035576130346144ae565b5b021790555060035f8373ffffffffffffffffffffffffffffffffffffffff1673ffffffffffffffffffffffffffffffffffffffff1681526020019081526020015f205f826001015f9054906101000a900473ffffffffffffffffffffffffffffffffffffffff1673ffffffffffffffffffffffffffffffffffffffff1673ffffffffffffffffffffffffffffffffffffffff1681526020019081526020015f205f905583816001015f9054906101000a900473ffffffffffffffffffffffffffffffffffffffff1673ffffffffffffffffffffffffffffffffffffffff168373ffffffffffffffffffffffffffffffffffffffff167fe3884525a2d5f483253428531619e78f11f1af8cbd2d28311259fd31ef46018a60405160405180910390a450505050565b5f80613166613a12565b9050805f015f9054906101000a900473ffffffffffffffffffffffffffffffffffffffff1691505090565b61319961345d565b5f6131a2613a12565b905081815f015f6101000a81548173ffffffffffffffffffffffffffffffffffffffff021916908373ffffffffffffffffffffffffffffffffffffffff1602179055508173ffffffffffffffffffffffffffffffffffffffff166132046128c3565b73ffffffffffffffffffffffffffffffffffffffff167f38d16b8cac22d99fc7c124b9cd0de2d3fa1faef420bfe791d8c362d765e2270060405160405180910390a35050565b613252612735565b15613289576040517fd93c066500000000000000000000000000000000000000000000000000000000815260040160405180910390fd5b565b5f33905090565b5f61329b613a39565b90506002815f0154036132da576040517f3ee5aeb500000000000000000000000000000000000000000000000000000000815260040160405180910390fd5b6002815f018190555050565b5f6132f2825f01613a60565b9050919050565b5f613306835f0183613a6f565b5f1c905092915050565b5f805f61331d8686613a96565b915091505f82036133425783818161333857613337615581565b5b04925050506133e8565b8184116133615761336061335b5f861460126011613ab3565b613acc565b5b5f8486880990508181118303925080820391505f855f038616905080860495508083049250600181825f0304019050808402831792505f600287600302189050808702600203810290508087026002038102905080870260020381029050808702600203810290508087026002038102905080870260020381029050808402955050505050505b9392505050565b5f6133f8613a39565b90506001815f018190555050565b5f81602001518260400151836060015184608001518560a001518660c001518760e0015160405160200161344097969594939291906155bd565b604051602081830303815290604052805190602001209050919050565b61346561328b565b73ffffffffffffffffffffffffffffffffffffffff166134836128c3565b73ffffffffffffffffffffffffffffffffffffffff16146134e2576134a661328b565b6040517f118cdaa70000000000000000000000000000000000000000000000000000000081526004016134d991906149af565b60405180910390fd5b565b5f613509835f018373ffffffffffffffffffffffffffffffffffffffff165f1b613add565b905092915050565b5f613536835f018373ffffffffffffffffffffffffffffffffffffffff165f1b613b44565b905092915050565b613546613c40565b5f61354f6138e6565b90505f815f015f6101000a81548160ff0219169083151502179055507f5db9ee0a495bf2e6ff9c91a7834c1ba4fdd244a5e8aa4e537bd38aeae4b073aa61359461328b565b6040516135a191906149af565b60405180910390a150565b5f806135b6613c80565b90508091505090565b6135c7613ca9565b6135cf613ce9565b565b61364b838473ffffffffffffffffffffffffffffffffffffffff1663a9059cbb858560405160240161360492919061562a565b604051602081830303815290604052915060e01b6020820180517bffffffffffffffffffffffffffffffffffffffffffffffffffffffff8381831617835250505050613d08565b505050565b7f000000000000000000000000000000000000000000000000000000000000000073ffffffffffffffffffffffffffffffffffffffff163073ffffffffffffffffffffffffffffffffffffffff1614806136fd57507f000000000000000000000000000000000000000000000000000000000000000073ffffffffffffffffffffffffffffffffffffffff166136e4613da3565b73ffffffffffffffffffffffffffffffffffffffff1614155b15613734576040517fe07c8dba00000000000000000000000000000000000000000000000000000000815260040160405180910390fd5b565b61373e61345d565b50565b8173ffffffffffffffffffffffffffffffffffffffff166352d1902d6040518163ffffffff1660e01b8152600401602060405180830381865afa9250505080156137a957506040513d601f19601f820116820180604052508101906137a69190615665565b60015b6137ea57816040517f4c9c8ce30000000000000000000000000000000000000000000000000000000081526004016137e191906149af565b60405180910390fd5b7f360894a13ba1a3210667c828492db98dca3e2076cc3735a920a3ca505d382bbc5f1b811461385057806040517faa1d49a40000000000000000000000000000000000000000000000000000000081526004016138479190614421565b60405180910390fd5b61385a8383613df6565b505050565b7f000000000000000000000000000000000000000000000000000000000000000073ffffffffffffffffffffffffffffffffffffffff163073ffffffffffffffffffffffffffffffffffffffff16146138e4576040517fe07c8dba00000000000000000000000000000000000000000000000000000000815260040160405180910390fd5b565b5f7fcd5ed15c6e187e77e9aee88184c21f4f2182ab5827cb3b7e07fbedcd63f03300905090565b5f613916613a12565b9050805f015f6101000a81549073ffffffffffffffffffffffffffffffffffffffff021916905561394682613e68565b5050565b61395261324a565b5f61395b6138e6565b90506001815f015f6101000a81548160ff0219169083151502179055507f62e78cea01bee320cd4e420270b5ea74000d11b0c9f74754ebdbfc544b05a2586139a161328b565b6040516139ae91906149af565b60405180910390a150565b5f7f9016d09d72d40fdae2fd8ceac6b6234c7706214fd39c1cd1e609a0528c199300905090565b6139e8613ca9565b6139f181613f39565b50565b6139fc613ca9565b565b613a06613ca9565b565b613a10613ca9565b565b5f7f237e158222e3e6968b72b9db0d8043aacf074ad9f650f0d1606b4d82ee432c00905090565b5f7f9b779b17422d0df92223018b32b4d1fa46e071723d6817e2486d003becc55f00905090565b5f815f01805490509050919050565b5f825f018281548110613a8557613a84615473565b5b905f5260205f200154905092915050565b5f805f198385098385029150818110828203039250509250929050565b5f613abd84613fbd565b82841802821890509392505050565b634e487b715f52806020526024601cfd5b5f613ae88383613fc8565b613b3a57825f0182908060018154018082558091505060019003905f5260205f20015f9091909190915055825f0180549050836001015f8481526020019081526020015f208190555060019050613b3e565b5f90505b92915050565b5f80836001015f8481526020019081526020015f205490505f8114613c35575f600182613b7191906150ca565b90505f6001865f0180549050613b8791906150ca565b9050808214613bed575f865f018281548110613ba657613ba5615473565b5b905f5260205f200154905080875f018481548110613bc757613bc6615473565b5b905f5260205f20018190555083876001015f8381526020019081526020015f2081905550505b855f01805480613c0057613bff615690565b5b600190038181905f5260205f20015f90559055856001015f8681526020019081526020015f205f905560019350505050613c3a565b5f9150505b92915050565b613c48612735565b613c7e576040517f8dfc202b00000000000000000000000000000000000000000000000000000000815260040160405180910390fd5b565b5f7ff0c57e16840df040f15088dc2f81fe391c3923bec73e23a9662efc9c229c6a005f1b905090565b613cb1613fe8565b613ce7576040517fd7e6bcf800000000000000000000000000000000000000000000000000000000815260040160405180910390fd5b565b613cf1613ca9565b5f613cfa613a39565b90506001815f018190555050565b5f8060205f8451602086015f885af180613d27576040513d5f823e3d81fd5b3d92505f519150505f8214613d40576001811415613d5b565b5f8473ffffffffffffffffffffffffffffffffffffffff163b145b15613d9d57836040517f5274afe7000000000000000000000000000000000000000000000000000000008152600401613d9491906149af565b60405180910390fd5b50505050565b5f613dcf7f360894a13ba1a3210667c828492db98dca3e2076cc3735a920a3ca505d382bbc5f1b614006565b5f015f9054906101000a900473ffffffffffffffffffffffffffffffffffffffff16905090565b613dff8261400f565b8173ffffffffffffffffffffffffffffffffffffffff167fbc7cd75a20ee27fd9adebab32041f755214dbc6bffa90cc0225b39da2e5c2d3b60405160405180910390a25f81511115613e5b57613e5582826140d8565b50613e64565b613e63614158565b5b5050565b5f613e716139b9565b90505f815f015f9054906101000a900473ffffffffffffffffffffffffffffffffffffffff16905082825f015f6101000a81548173ffffffffffffffffffffffffffffffffffffffff021916908373ffffffffffffffffffffffffffffffffffffffff1602179055508273ffffffffffffffffffffffffffffffffffffffff168173ffffffffffffffffffffffffffffffffffffffff167f8be0079c531659141344cd1fd0a4f28419497f9722a3daafe3b4186f6b6457e060405160405180910390a3505050565b613f41613ca9565b5f73ffffffffffffffffffffffffffffffffffffffff168173ffffffffffffffffffffffffffffffffffffffff1603613fb1575f6040517f1e4fbdf7000000000000000000000000000000000000000000000000000000008152600401613fa891906149af565b60405180910390fd5b613fba8161390d565b50565b5f8115159050919050565b5f80836001015f8481526020019081526020015f20541415905092915050565b5f613ff16135ac565b5f0160089054906101000a900460ff16905090565b5f819050919050565b5f8173ffffffffffffffffffffffffffffffffffffffff163b0361406a57806040517f4c9c8ce300000000000000000000000000000000000000000000000000000000815260040161406191906149af565b60405180910390fd5b806140967f360894a13ba1a3210667c828492db98dca3e2076cc3735a920a3ca505d382bbc5f1b614006565b5f015f6101000a81548173ffffffffffffffffffffffffffffffffffffffff021916908373ffffffffffffffffffffffffffffffffffffffff16021790555050565b60605f808473ffffffffffffffffffffffffffffffffffffffff16846040516141019190615701565b5f60405180830381855af49150503d805f8114614139576040519150601f19603f3d011682016040523d82523d5f602084013e61413e565b606091505b509150915061414e858383614194565b9250505092915050565b5f341115614192576040517fb398979f00000000000000000000000000000000000000000000000000000000815260040160405180910390fd5b565b6060826141a9576141a482614221565b614219565b5f82511480156141cf57505f8473ffffffffffffffffffffffffffffffffffffffff163b145b1561421157836040517f9996b31500000000000000000000000000000000000000000000000000000000815260040161420891906149af565b60405180910390fd5b81905061421a565b5b9392505050565b5f8151111561423257805160208201fd5b6040517fd6bda27500000000000000000000000000000000000000000000000000000000815260040160405180910390fd5b6040518061010001604052805f6003811115614283576142826144ae565b5b81526020015f73ffffffffffffffffffffffffffffffffffffffff1681526020015f62ffffff1681526020015f63ffffffff1681526020015f63ffffffff1681526020015f73ffffffffffffffffffffffffffffffffffffffff1681526020015f63ffffffff1681526020015f63ffffffff1681525090565b5080545f8255600202905f5260205f209081019061431a919061431d565b50565b5b8082111561435c575f8082015f9055600182015f6101000a81549073ffffffffffffffffffffffffffffffffffffffff02191690555060020161431e565b5090565b5f604051905090565b5f80fd5b5f80fd5b5f73ffffffffffffffffffffffffffffffffffffffff82169050919050565b5f61439a82614371565b9050919050565b6143aa81614390565b81146143b4575f80fd5b50565b5f813590506143c5816143a1565b92915050565b5f80604083850312156143e1576143e0614369565b5b5f6143ee858286016143b7565b92505060206143ff858286016143b7565b9150509250929050565b5f819050919050565b61441b81614409565b82525050565b5f6020820190506144345f830184614412565b92915050565b5f819050919050565b5f61445d61445861445384614371565b61443a565b614371565b9050919050565b5f61446e82614443565b9050919050565b5f61447f82614464565b9050919050565b61448f81614475565b82525050565b5f6020820190506144a85f830184614486565b92915050565b7f4e487b71000000000000000000000000000000000000000000000000000000005f52602160045260245ffd5b600481106144ec576144eb6144ae565b5b50565b5f8190506144fc826144db565b919050565b5f61450b826144ef565b9050919050565b61451b81614501565b82525050565b61452a81614390565b82525050565b5f62ffffff82169050919050565b61454781614530565b82525050565b5f63ffffffff82169050919050565b6145658161454d565b82525050565b61010082015f8201516145805f850182614512565b5060208201516145936020850182614521565b5060408201516145a6604085018261453e565b5060608201516145b9606085018261455c565b5060808201516145cc608085018261455c565b5060a08201516145df60a0850182614521565b5060c08201516145f260c085018261455c565b5060e082015161460560e085018261455c565b50505050565b5f6101008201905061461f5f83018461456b565b92915050565b61462e81614409565b8114614638575f80fd5b50565b5f8135905061464981614625565b92915050565b5f6020828403121561466457614663614369565b5b5f6146718482850161463b565b91505092915050565b5f80fd5b5f608082840312156146935761469261467a565b5b81905092915050565b5f602082840312156146b1576146b0614369565b5b5f82013567ffffffffffffffff8111156146ce576146cd61436d565b5b6146da8482850161467e565b91505092915050565b5f8115159050919050565b6146f7816146e3565b8114614701575f80fd5b50565b5f81359050614712816146ee565b92915050565b5f806040838503121561472e5761472d614369565b5b5f61473b858286016143b7565b925050602061474c85828601614704565b9150509250929050565b5f6020828403121561476b5761476a614369565b5b5f614778848285016143b7565b91505092915050565b5f80fd5b5f80fd5b5f601f19601f8301169050919050565b7f4e487b71000000000000000000000000000000000000000000000000000000005f52604160045260245ffd5b6147cf82614789565b810181811067ffffffffffffffff821117156147ee576147ed614799565b5b80604052505050565b5f614800614360565b905061480c82826147c6565b919050565b5f67ffffffffffffffff82111561482b5761482a614799565b5b61483482614789565b9050602081019050919050565b828183375f83830152505050565b5f61486161485c84614811565b6147f7565b90508281526020810184848401111561487d5761487c614785565b5b614888848285614841565b509392505050565b5f82601f8301126148a4576148a3614781565b5b81356148b484826020860161484f565b91505092915050565b5f80604083850312156148d3576148d2614369565b5b5f6148e0858286016143b7565b925050602083013567ffffffffffffffff8111156149015761490061436d565b5b61490d85828601614890565b9150509250929050565b614920816146e3565b82525050565b5f6020820190506149395f830184614917565b92915050565b5f60ff82169050919050565b6149548161493f565b811461495e575f80fd5b50565b5f8135905061496f8161494b565b92915050565b5f6020828403121561498a57614989614369565b5b5f61499784828501614961565b91505092915050565b6149a981614390565b82525050565b5f6020820190506149c25f8301846149a0565b92915050565b6149d18161493f565b82525050565b5f6020820190506149ea5f8301846149c8565b92915050565b6149f98161454d565b82525050565b5f602082019050614a125f8301846149f0565b92915050565b5f81519050919050565b5f82825260208201905092915050565b5f5b83811015614a4f578082015181840152602081019050614a34565b5f8484015250505050565b5f614a6482614a18565b614a6e8185614a22565b9350614a7e818560208601614a32565b614a8781614789565b840191505092915050565b5f6020820190508181035f830152614aaa8184614a5a565b905092915050565b5f8060408385031215614ac857614ac7614369565b5b5f614ad58582860161463b565b9250506020614ae685828601614704565b9150509250929050565b5f81519050919050565b5f82825260208201905092915050565b5f819050602082019050919050565b5f819050919050565b614b2b81614b19565b82525050565b604082015f820151614b455f850182614b22565b506020820151614b586020850182614521565b50505050565b5f614b698383614b31565b60408301905092915050565b5f602082019050919050565b5f614b8b82614af0565b614b958185614afa565b9350614ba083614b0a565b805f5b83811015614bd0578151614bb78882614b5e565b9750614bc283614b75565b925050600181019050614ba3565b5085935050505092915050565b5f6020820190508181035f830152614bf58184614b81565b905092915050565b5f81519050614c0b816146ee565b92915050565b5f60208284031215614c2657614c25614369565b5b5f614c3384828501614bfd565b91505092915050565b614c4581614b19565b8114614c4f575f80fd5b50565b5f81519050614c6081614c3c565b92915050565b5f60208284031215614c7b57614c7a614369565b5b5f614c8884828501614c52565b91505092915050565b614c9a81614b19565b82525050565b5f602082019050614cb35f830184614c91565b92915050565b5f80fd5b5f80fd5b5f80fd5b5f8083356001602003843603038112614ce157614ce0614cb9565b5b80840192508235915067ffffffffffffffff821115614d0357614d02614cbd565b5b602083019250600182023603831315614d1f57614d1e614cc1565b5b509250929050565b7f726561736f6e20746f6f206c6f6e6700000000000000000000000000000000005f82015250565b5f614d5b600f83614a22565b9150614d6682614d27565b602082019050919050565b5f6020820190508181035f830152614d8881614d4f565b9050919050565b614d9881614530565b8114614da2575f80fd5b50565b5f81359050614db381614d8f565b92915050565b5f60208284031215614dce57614dcd614369565b5b5f614ddb84828501614da5565b91505092915050565b7f6d62697073206d757374206265203e20300000000000000000000000000000005f82015250565b5f614e18601183614a22565b9150614e2382614de4565b602082019050919050565b5f6020820190508181035f830152614e4581614e0c565b9050919050565b614e558161454d565b8114614e5f575f80fd5b50565b5f81359050614e7081614e4c565b92915050565b5f60208284031215614e8b57614e8a614369565b5b5f614e9884828501614e62565b91505092915050565b7f74696d657374616d7020696e20667574757265000000000000000000000000005f82015250565b5f614ed5601383614a22565b9150614ee082614ea1565b602082019050919050565b5f6020820190508181035f830152614f0281614ec9565b9050919050565b5f606082019050614f1c5f8301866149a0565b614f2960208301856149a0565b614f3660408301846149f0565b949350505050565b5f80fd5b5f81519050614f50816143a1565b92915050565b5f81519050614f6481614d8f565b92915050565b5f81519050614f7881614e4c565b92915050565b5f60608284031215614f9357614f92614f3e565b5b614f9d60606147f7565b90505f614fac84828501614f42565b5f830152506020614fbf84828501614f56565b6020830152506040614fd384828501614f6a565b60408301525092915050565b5f60608284031215614ff457614ff3614369565b5b5f61500184828501614f7e565b91505092915050565b7f6d626970732065786365656473206d617820616c6c6f776564000000000000005f82015250565b5f61503e601983614a22565b91506150498261500a565b602082019050919050565b5f6020820190508181035f83015261506b81615032565b9050919050565b5f6020828403121561508757615086614369565b5b5f61509484828501614f6a565b91505092915050565b7f4e487b71000000000000000000000000000000000000000000000000000000005f52601160045260245ffd5b5f6150d482614b19565b91506150df83614b19565b92508282039050818111156150f7576150f661509d565b5b92915050565b7f74696d657374616d7020746f6f206f6c640000000000000000000000000000005f82015250565b5f615131601183614a22565b915061513c826150fd565b602082019050919050565b5f6020820190508181035f83015261515e81615125565b9050919050565b7f50726576696f757320736c617368696e672072657175657374206c69666563795f8201527f636c65206e6f7420636f6d706c65746564000000000000000000000000000000602082015250565b5f6151bf603183614a22565b91506151ca82615165565b604082019050919050565b5f6020820190508181035f8301526151ec816151b3565b9050919050565b5f6151fd8261454d565b91506152088361454d565b9250828201905063ffffffff8111156152245761522361509d565b5b92915050565b5f6152358385614a22565b9350615242838584614841565b61524b83614789565b840190509392505050565b5f6101208201905061526a5f83018661456b565b81810361010083015261527e81848661522a565b9050949350505050565b7f5661756c7420616c726561647920696e206465736972656420737461746500005f82015250565b5f6152bc601e83614a22565b91506152c782615288565b602082019050919050565b5f6020820190508181035f8301526152e9816152b0565b9050919050565b5f6020828403121561530557615304614369565b5b5f61531284828501614f42565b91505092915050565b7f45786365656473206d6178207661756c747320706572206f70657261746f72005f82015250565b5f61534f601f83614a22565b915061535a8261531b565b602082019050919050565b5f6020820190508181035f83015261537c81615343565b9050919050565b5f6040820190506153965f8301856149a0565b6153a36020830184614917565b9392505050565b7f47756172647261696c20616464726573732063616e6e6f7420626520656d70745f8201527f7900000000000000000000000000000000000000000000000000000000000000602082015250565b5f615404602183614a22565b915061540f826153aa565b604082019050919050565b5f6020820190508181035f830152615431816153f8565b9050919050565b5f67ffffffffffffffff82169050919050565b61545481615438565b82525050565b5f60208201905061546d5f83018461544b565b92915050565b7f4e487b71000000000000000000000000000000000000000000000000000000005f52603260045260245ffd5b7f4d7573742062652067726561746572207468616e2063757272656e74000000005f82015250565b5f6154d4601c83614a22565b91506154df826154a0565b602082019050919050565b5f6020820190508181035f830152615501816154c8565b9050919050565b5f60408201905061551b5f8301856149c8565b61552860208301846149c8565b9392505050565b5f819050919050565b5f61555261554d6155488461552f565b61443a565b615438565b9050919050565b61556281615538565b82525050565b5f60208201905061557b5f830184615559565b92915050565b7f4e487b71000000000000000000000000000000000000000000000000000000005f52601260045260245ffd5b6155b781614530565b82525050565b5f60e0820190506155d05f83018a6149a0565b6155dd60208301896155ae565b6155ea60408301886149f0565b6155f760608301876149f0565b61560460808301866149a0565b61561160a08301856149f0565b61561e60c08301846149f0565b98975050505050505050565b5f60408201905061563d5f8301856149a0565b61564a6020830184614c91565b9392505050565b5f8151905061565f81614625565b92915050565b5f6020828403121561567a57615679614369565b5b5f61568784828501615651565b91505092915050565b7f4e487b71000000000000000000000000000000000000000000000000000000005f52603160045260245ffd5b5f81519050919050565b5f81905092915050565b5f6156db826156bd565b6156e581856156c7565b93506156f5818560208601614a32565b80840191505092915050565b5f61570c82846156d1565b91508190509291505056fea264697066735822122022f7f895539e9b18ed8c449f4cbaf8d2407a340f78b209d71297243ea4adb8bc64736f6c63430008180033","linkReferences":{}},"methodIdentifiers":{"REGISTRY()":"06433b1b","SLASHING_REQUEST_EXPIRY_WINDOW()":"acfad628","UPGRADE_INTERFACE_VERSION()":"ad3cb1cc","acceptOwnership()":"79ba5097","cancelSlashing(bytes32)":"deec65bc","finalizeSlashing(bytes32)":"4eb30bc9","getLockedAssets(bytes32)":"dd717644","getMaxVaultsPerOperator()":"97da0056","getPendingSlashingRequest(address,address)":"0b78623b","getPendingSlashingRequestId(address,address)":"002cf9a4","getSlashingRequest(bytes32)":"53dd91f5","guardrailApprove(bytes32,bool)":"b4867fe4","initialize(address)":"c4d66de8","initialize2()":"472abf68","initializeAll(address)":"9916fa02","isVaultWhitelisted(address)":"b2037480","lockSlashing(bytes32)":"17afb65b","owner()":"8da5cb5b","pause()":"8456cb59","paused()":"5c975abb","pendingOwner()":"e30c3978","proxiableUUID()":"52d1902d","renounceOwnership()":"715018a6","requestSlashing((address,uint24,uint32,string))":"1838efe5","setGuardrail(address)":"33410dc4","setMaxVaultsPerOperator(uint8)":"8651060d","setVaultWhitelist(address,bool)":"3302a6a1","transferOwnership(address)":"f2fde38b","unpause()":"3f4ba83a","upgradeToAndCall(address,bytes)":"4f1ef286"},"id":69}