{"abi":[{"type":"constructor","inputs":[],"stateMutability":"nonpayable"},{"type":"function","name":"UPGRADE_INTERFACE_VERSION","inputs":[],"outputs":[{"name":"","type":"string","internalType":"string"}],"stateMutability":"view"},{"type":"function","name":"acceptOwnership","inputs":[],"outputs":[],"stateMutability":"nonpayable"},{"type":"function","name":"initialize","inputs":[{"name":"initialOwner","type":"address","internalType":"address"}],"outputs":[],"stateMutability":"nonpayable"},{"type":"function","name":"owner","inputs":[],"outputs":[{"name":"","type":"address","internalType":"address"}],"stateMutability":"view"},{"type":"function","name":"pause","inputs":[],"outputs":[],"stateMutability":"nonpayable"},{"type":"function","name":"paused","inputs":[],"outputs":[{"name":"","type":"bool","internalType":"bool"}],"stateMutability":"view"},{"type":"function","name":"pendingOwner","inputs":[],"outputs":[{"name":"","type":"address","internalType":"address"}],"stateMutability":"view"},{"type":"function","name":"proxiableUUID","inputs":[],"outputs":[{"name":"","type":"bytes32","internalType":"bytes32"}],"stateMutability":"view"},{"type":"function","name":"renounceOwnership","inputs":[],"outputs":[],"stateMutability":"nonpayable"},{"type":"function","name":"transferOwnership","inputs":[{"name":"newOwner","type":"address","internalType":"address"}],"outputs":[],"stateMutability":"nonpayable"},{"type":"function","name":"unpause","inputs":[],"outputs":[],"stateMutability":"nonpayable"},{"type":"function","name":"upgradeToAndCall","inputs":[{"name":"newImplementation","type":"address","internalType":"address"},{"name":"data","type":"bytes","internalType":"bytes"}],"outputs":[],"stateMutability":"payable"},{"type":"event","name":"Initialized","inputs":[{"name":"version","type":"uint64","indexed":false,"internalType":"uint64"}],"anonymous":false},{"type":"event","name":"OwnershipTransferStarted","inputs":[{"name":"previousOwner","type":"address","indexed":true,"internalType":"address"},{"name":"newOwner","type":"address","indexed":true,"internalType":"address"}],"anonymous":false},{"type":"event","name":"OwnershipTransferred","inputs":[{"name":"previousOwner","type":"address","indexed":true,"internalType":"address"},{"name":"newOwner","type":"address","indexed":true,"internalType":"address"}],"anonymous":false},{"type":"event","name":"Paused","inputs":[{"name":"account","type":"address","indexed":false,"internalType":"address"}],"anonymous":false},{"type":"event","name":"Unpaused","inputs":[{"name":"account","type":"address","indexed":false,"internalType":"address"}],"anonymous":false},{"type":"event","name":"Upgraded","inputs":[{"name":"implementation","type":"address","indexed":true,"internalType":"address"}],"anonymous":false},{"type":"error","name":"AddressEmptyCode","inputs":[{"name":"target","type":"address","internalType":"address"}]},{"type":"error","name":"ERC1967InvalidImplementation","inputs":[{"name":"implementation","type":"address","internalType":"address"}]},{"type":"error","name":"ERC1967NonPayable","inputs":[]},{"type":"error","name":"EnforcedPause","inputs":[]},{"type":"error","name":"ExpectedPause","inputs":[]},{"type":"error","name":"FailedCall","inputs":[]},{"type":"error","name":"InvalidInitialization","inputs":[]},{"type":"error","name":"NotInitializing","inputs":[]},{"type":"error","name":"OwnableInvalidOwner","inputs":[{"name":"owner","type":"address","internalType":"address"}]},{"type":"error","name":"OwnableUnauthorizedAccount","inputs":[{"name":"account","type":"address","internalType":"address"}]},{"type":"error","name":"UUPSUnauthorizedCallContext","inputs":[]},{"type":"error","name":"UUPSUnsupportedProxiableUUID","inputs":[{"name":"slot","type":"bytes32","internalType":"bytes32"}]}],"bytecode":{"object":"0x60a06040523073ffffffffffffffffffffffffffffffffffffffff1660809073ffffffffffffffffffffffffffffffffffffffff1681525034801562000043575f80fd5b50620000546200005a60201b60201c565b620001e1565b5f6200006b6200015e60201b60201c565b9050805f0160089054906101000a900460ff1615620000b6576040517ff92ee8a900000000000000000000000000000000000000000000000000000000815260040160405180910390fd5b67ffffffffffffffff8016815f015f9054906101000a900467ffffffffffffffff1667ffffffffffffffff16146200015b5767ffffffffffffffff815f015f6101000a81548167ffffffffffffffff021916908367ffffffffffffffff1602179055507fc7f505b2f371ae2175ee4913f4499e1f2633a7b5936321eed1cdaeb6115181d267ffffffffffffffff604051620001529190620001c6565b60405180910390a15b50565b5f80620001706200017960201b60201c565b90508091505090565b5f7ff0c57e16840df040f15088dc2f81fe391c3923bec73e23a9662efc9c229c6a005f1b905090565b5f67ffffffffffffffff82169050919050565b620001c081620001a2565b82525050565b5f602082019050620001db5f830184620001b5565b92915050565b608051611589620002085f395f8181610763015281816107b8015261097201526115895ff3fe6080604052600436106100a6575f3560e01c80638456cb59116100635780638456cb591461015c5780638da5cb5b14610172578063ad3cb1cc1461019c578063c4d66de8146101c6578063e30c3978146101ee578063f2fde38b14610218576100a6565b80633f4ba83a146100aa5780634f1ef286146100c057806352d1902d146100dc5780635c975abb14610106578063715018a61461013057806379ba509714610146575b5f80fd5b3480156100b5575f80fd5b506100be610240565b005b6100da60048036038101906100d5919061128b565b610252565b005b3480156100e7575f80fd5b506100f0610271565b6040516100fd91906112fd565b60405180910390f35b348015610111575f80fd5b5061011a6102a2565b6040516101279190611330565b60405180910390f35b34801561013b575f80fd5b506101446102c4565b005b348015610151575f80fd5b5061015a6102d7565b005b348015610167575f80fd5b50610170610365565b005b34801561017d575f80fd5b50610186610377565b6040516101939190611358565b60405180910390f35b3480156101a7575f80fd5b506101b06103ac565b6040516101bd91906113eb565b60405180910390f35b3480156101d1575f80fd5b506101ec60048036038101906101e7919061140b565b6103e5565b005b3480156101f9575f80fd5b5061020261057e565b60405161020f9190611358565b60405180910390f35b348015610223575f80fd5b5061023e6004803603810190610239919061140b565b6105b3565b005b61024861066c565b6102506106f3565b565b61025a610761565b61026382610847565b61026d8282610852565b5050565b5f61027a610970565b7f360894a13ba1a3210667c828492db98dca3e2076cc3735a920a3ca505d382bbc5f1b905090565b5f806102ac6109f7565b9050805f015f9054906101000a900460ff1691505090565b6102cc61066c565b6102d55f610a1e565b565b5f6102e0610a5b565b90508073ffffffffffffffffffffffffffffffffffffffff1661030161057e565b73ffffffffffffffffffffffffffffffffffffffff161461035957806040517f118cdaa70000000000000000000000000000000000000000000000000000000081526004016103509190611358565b60405180910390fd5b61036281610a1e565b50565b61036d61066c565b610375610a62565b565b5f80610381610ad1565b9050805f015f9054906101000a900473ffffffffffffffffffffffffffffffffffffffff1691505090565b6040518060400160405280600581526020017f352e302e3000000000000000000000000000000000000000000000000000000081525081565b5f6103ee610af8565b90505f815f0160089054906101000a900460ff161590505f825f015f9054906101000a900467ffffffffffffffff1690505f808267ffffffffffffffff161480156104365750825b90505f60018367ffffffffffffffff1614801561046957505f3073ffffffffffffffffffffffffffffffffffffffff163b145b905081158015610477575080155b156104ae576040517ff92ee8a900000000000000000000000000000000000000000000000000000000815260040160405180910390fd5b6001855f015f6101000a81548167ffffffffffffffff021916908367ffffffffffffffff16021790555083156104fb576001855f0160086101000a81548160ff0219169083151502179055505b61050486610b0b565b61050c610b1f565b610514610b29565b61051c610b33565b8315610576575f855f0160086101000a81548160ff0219169083151502179055507fc7f505b2f371ae2175ee4913f4499e1f2633a7b5936321eed1cdaeb6115181d2600160405161056d919061148b565b60405180910390a15b505050505050565b5f80610588610b3d565b9050805f015f9054906101000a900473ffffffffffffffffffffffffffffffffffffffff1691505090565b6105bb61066c565b5f6105c4610b3d565b905081815f015f6101000a81548173ffffffffffffffffffffffffffffffffffffffff021916908373ffffffffffffffffffffffffffffffffffffffff1602179055508173ffffffffffffffffffffffffffffffffffffffff16610626610377565b73ffffffffffffffffffffffffffffffffffffffff167f38d16b8cac22d99fc7c124b9cd0de2d3fa1faef420bfe791d8c362d765e2270060405160405180910390a35050565b610674610a5b565b73ffffffffffffffffffffffffffffffffffffffff16610692610377565b73ffffffffffffffffffffffffffffffffffffffff16146106f1576106b5610a5b565b6040517f118cdaa70000000000000000000000000000000000000000000000000000000081526004016106e89190611358565b60405180910390fd5b565b6106fb610b64565b5f6107046109f7565b90505f815f015f6101000a81548160ff0219169083151502179055507f5db9ee0a495bf2e6ff9c91a7834c1ba4fdd244a5e8aa4e537bd38aeae4b073aa610749610a5b565b6040516107569190611358565b60405180910390a150565b7f000000000000000000000000000000000000000000000000000000000000000073ffffffffffffffffffffffffffffffffffffffff163073ffffffffffffffffffffffffffffffffffffffff16148061080e57507f000000000000000000000000000000000000000000000000000000000000000073ffffffffffffffffffffffffffffffffffffffff166107f5610ba4565b73ffffffffffffffffffffffffffffffffffffffff1614155b15610845576040517fe07c8dba00000000000000000000000000000000000000000000000000000000815260040160405180910390fd5b565b61084f61066c565b50565b8173ffffffffffffffffffffffffffffffffffffffff166352d1902d6040518163ffffffff1660e01b8152600401602060405180830381865afa9250505080156108ba57506040513d601f19601f820116820180604052508101906108b791906114ce565b60015b6108fb57816040517f4c9c8ce30000000000000000000000000000000000000000000000000000000081526004016108f29190611358565b60405180910390fd5b7f360894a13ba1a3210667c828492db98dca3e2076cc3735a920a3ca505d382bbc5f1b811461096157806040517faa1d49a400000000000000000000000000000000000000000000000000000000815260040161095891906112fd565b60405180910390fd5b61096b8383610bf7565b505050565b7f000000000000000000000000000000000000000000000000000000000000000073ffffffffffffffffffffffffffffffffffffffff163073ffffffffffffffffffffffffffffffffffffffff16146109f5576040517fe07c8dba00000000000000000000000000000000000000000000000000000000815260040160405180910390fd5b565b5f7fcd5ed15c6e187e77e9aee88184c21f4f2182ab5827cb3b7e07fbedcd63f03300905090565b5f610a27610b3d565b9050805f015f6101000a81549073ffffffffffffffffffffffffffffffffffffffff0219169055610a5782610c69565b5050565b5f33905090565b610a6a610d3a565b5f610a736109f7565b90506001815f015f6101000a81548160ff0219169083151502179055507f62e78cea01bee320cd4e420270b5ea74000d11b0c9f74754ebdbfc544b05a258610ab9610a5b565b604051610ac69190611358565b60405180910390a150565b5f7f9016d09d72d40fdae2fd8ceac6b6234c7706214fd39c1cd1e609a0528c199300905090565b5f80610b02610d7b565b90508091505090565b610b13610da4565b610b1c81610de4565b50565b610b27610da4565b565b610b31610da4565b565b610b3b610da4565b565b5f7f237e158222e3e6968b72b9db0d8043aacf074ad9f650f0d1606b4d82ee432c00905090565b610b6c6102a2565b610ba2576040517f8dfc202b00000000000000000000000000000000000000000000000000000000815260040160405180910390fd5b565b5f610bd07f360894a13ba1a3210667c828492db98dca3e2076cc3735a920a3ca505d382bbc5f1b610e68565b5f015f9054906101000a900473ffffffffffffffffffffffffffffffffffffffff16905090565b610c0082610e71565b8173ffffffffffffffffffffffffffffffffffffffff167fbc7cd75a20ee27fd9adebab32041f755214dbc6bffa90cc0225b39da2e5c2d3b60405160405180910390a25f81511115610c5c57610c568282610f3a565b50610c65565b610c64610fba565b5b5050565b5f610c72610ad1565b90505f815f015f9054906101000a900473ffffffffffffffffffffffffffffffffffffffff16905082825f015f6101000a81548173ffffffffffffffffffffffffffffffffffffffff021916908373ffffffffffffffffffffffffffffffffffffffff1602179055508273ffffffffffffffffffffffffffffffffffffffff168173ffffffffffffffffffffffffffffffffffffffff167f8be0079c531659141344cd1fd0a4f28419497f9722a3daafe3b4186f6b6457e060405160405180910390a3505050565b610d426102a2565b15610d79576040517fd93c066500000000000000000000000000000000000000000000000000000000815260040160405180910390fd5b565b5f7ff0c57e16840df040f15088dc2f81fe391c3923bec73e23a9662efc9c229c6a005f1b905090565b610dac610ff6565b610de2576040517fd7e6bcf800000000000000000000000000000000000000000000000000000000815260040160405180910390fd5b565b610dec610da4565b5f73ffffffffffffffffffffffffffffffffffffffff168173ffffffffffffffffffffffffffffffffffffffff1603610e5c575f6040517f1e4fbdf7000000000000000000000000000000000000000000000000000000008152600401610e539190611358565b60405180910390fd5b610e6581610a1e565b50565b5f819050919050565b5f8173ffffffffffffffffffffffffffffffffffffffff163b03610ecc57806040517f4c9c8ce3000000000000000000000000000000000000000000000000000000008152600401610ec39190611358565b60405180910390fd5b80610ef87f360894a13ba1a3210667c828492db98dca3e2076cc3735a920a3ca505d382bbc5f1b610e68565b5f015f6101000a81548173ffffffffffffffffffffffffffffffffffffffff021916908373ffffffffffffffffffffffffffffffffffffffff16021790555050565b60605f808473ffffffffffffffffffffffffffffffffffffffff1684604051610f63919061153d565b5f60405180830381855af49150503d805f8114610f9b576040519150601f19603f3d011682016040523d82523d5f602084013e610fa0565b606091505b5091509150610fb0858383611014565b9250505092915050565b5f341115610ff4576040517fb398979f00000000000000000000000000000000000000000000000000000000815260040160405180910390fd5b565b5f610fff610af8565b5f0160089054906101000a900460ff16905090565b60608261102957611024826110a1565b611099565b5f825114801561104f57505f8473ffffffffffffffffffffffffffffffffffffffff163b145b1561109157836040517f9996b3150000000000000000000000000000000000000000000000000000000081526004016110889190611358565b60405180910390fd5b81905061109a565b5b9392505050565b5f815111156110b257805160208201fd5b6040517fd6bda27500000000000000000000000000000000000000000000000000000000815260040160405180910390fd5b5f604051905090565b5f80fd5b5f80fd5b5f73ffffffffffffffffffffffffffffffffffffffff82169050919050565b5f61111e826110f5565b9050919050565b61112e81611114565b8114611138575f80fd5b50565b5f8135905061114981611125565b92915050565b5f80fd5b5f80fd5b5f601f19601f8301169050919050565b7f4e487b71000000000000000000000000000000000000000000000000000000005f52604160045260245ffd5b61119d82611157565b810181811067ffffffffffffffff821117156111bc576111bb611167565b5b80604052505050565b5f6111ce6110e4565b90506111da8282611194565b919050565b5f67ffffffffffffffff8211156111f9576111f8611167565b5b61120282611157565b9050602081019050919050565b828183375f83830152505050565b5f61122f61122a846111df565b6111c5565b90508281526020810184848401111561124b5761124a611153565b5b61125684828561120f565b509392505050565b5f82601f8301126112725761127161114f565b5b813561128284826020860161121d565b91505092915050565b5f80604083850312156112a1576112a06110ed565b5b5f6112ae8582860161113b565b925050602083013567ffffffffffffffff8111156112cf576112ce6110f1565b5b6112db8582860161125e565b9150509250929050565b5f819050919050565b6112f7816112e5565b82525050565b5f6020820190506113105f8301846112ee565b92915050565b5f8115159050919050565b61132a81611316565b82525050565b5f6020820190506113435f830184611321565b92915050565b61135281611114565b82525050565b5f60208201905061136b5f830184611349565b92915050565b5f81519050919050565b5f82825260208201905092915050565b5f5b838110156113a857808201518184015260208101905061138d565b5f8484015250505050565b5f6113bd82611371565b6113c7818561137b565b93506113d781856020860161138b565b6113e081611157565b840191505092915050565b5f6020820190508181035f83015261140381846113b3565b905092915050565b5f602082840312156114205761141f6110ed565b5b5f61142d8482850161113b565b91505092915050565b5f819050919050565b5f67ffffffffffffffff82169050919050565b5f819050919050565b5f61147561147061146b84611436565b611452565b61143f565b9050919050565b6114858161145b565b82525050565b5f60208201905061149e5f83018461147c565b92915050565b6114ad816112e5565b81146114b7575f80fd5b50565b5f815190506114c8816114a4565b92915050565b5f602082840312156114e3576114e26110ed565b5b5f6114f0848285016114ba565b91505092915050565b5f81519050919050565b5f81905092915050565b5f611517826114f9565b6115218185611503565b935061153181856020860161138b565b80840191505092915050565b5f611548828461150d565b91508190509291505056fea2646970667358221220fce871ef394ae80c93fbc4b24dab4d2eb32b455091841ceae27620f5bcdf957464736f6c63430008180033","linkReferences":{}},"methodIdentifiers":{"UPGRADE_INTERFACE_VERSION()":"ad3cb1cc","acceptOwnership()":"79ba5097","initialize(address)":"c4d66de8","owner()":"8da5cb5b","pause()":"8456cb59","paused()":"5c975abb","pendingOwner()":"e30c3978","proxiableUUID()":"52d1902d","renounceOwnership()":"715018a6","transferOwnership(address)":"f2fde38b","unpause()":"3f4ba83a","upgradeToAndCall(address,bytes)":"4f1ef286"},"id":66}