{"abi":[{"type":"constructor","inputs":[{"name":"beacon_","type":"address","internalType":"address"},{"name":"registry_","type":"address","internalType":"contract ISLAYRegistryV2"}],"stateMutability":"nonpayable"},{"type":"function","name":"BEACON","inputs":[],"outputs":[{"name":"","type":"address","internalType":"address"}],"stateMutability":"view"},{"type":"function","name":"REGISTRY","inputs":[],"outputs":[{"name":"","type":"address","internalType":"contract ISLAYRegistryV2"}],"stateMutability":"view"},{"type":"function","name":"UPGRADE_INTERFACE_VERSION","inputs":[],"outputs":[{"name":"","type":"string","internalType":"string"}],"stateMutability":"view"},{"type":"function","name":"acceptOwnership","inputs":[],"outputs":[],"stateMutability":"nonpayable"},{"type":"function","name":"create","inputs":[{"name":"asset","type":"address","internalType":"contract IERC20Metadata"}],"outputs":[{"name":"","type":"address","internalType":"contract SLAYVaultV2"}],"stateMutability":"nonpayable"},{"type":"function","name":"create","inputs":[{"name":"asset","type":"address","internalType":"contract IERC20"},{"name":"operator","type":"address","internalType":"address"},{"name":"name","type":"string","internalType":"string"},{"name":"symbol","type":"string","internalType":"string"}],"outputs":[{"name":"","type":"address","internalType":"contract SLAYVaultV2"}],"stateMutability":"nonpayable"},{"type":"function","name":"initialize","inputs":[{"name":"initialOwner","type":"address","internalType":"address"}],"outputs":[],"stateMutability":"nonpayable"},{"type":"function","name":"owner","inputs":[],"outputs":[{"name":"","type":"address","internalType":"address"}],"stateMutability":"view"},{"type":"function","name":"pause","inputs":[],"outputs":[],"stateMutability":"nonpayable"},{"type":"function","name":"paused","inputs":[],"outputs":[{"name":"","type":"bool","internalType":"bool"}],"stateMutability":"view"},{"type":"function","name":"pendingOwner","inputs":[],"outputs":[{"name":"","type":"address","internalType":"address"}],"stateMutability":"view"},{"type":"function","name":"proxiableUUID","inputs":[],"outputs":[{"name":"","type":"bytes32","internalType":"bytes32"}],"stateMutability":"view"},{"type":"function","name":"renounceOwnership","inputs":[],"outputs":[],"stateMutability":"nonpayable"},{"type":"function","name":"transferOwnership","inputs":[{"name":"newOwner","type":"address","internalType":"address"}],"outputs":[],"stateMutability":"nonpayable"},{"type":"function","name":"unpause","inputs":[],"outputs":[],"stateMutability":"nonpayable"},{"type":"function","name":"upgradeToAndCall","inputs":[{"name":"newImplementation","type":"address","internalType":"address"},{"name":"data","type":"bytes","internalType":"bytes"}],"outputs":[],"stateMutability":"payable"},{"type":"event","name":"Initialized","inputs":[{"name":"version","type":"uint64","indexed":false,"internalType":"uint64"}],"anonymous":false},{"type":"event","name":"OwnershipTransferStarted","inputs":[{"name":"previousOwner","type":"address","indexed":true,"internalType":"address"},{"name":"newOwner","type":"address","indexed":true,"internalType":"address"}],"anonymous":false},{"type":"event","name":"OwnershipTransferred","inputs":[{"name":"previousOwner","type":"address","indexed":true,"internalType":"address"},{"name":"newOwner","type":"address","indexed":true,"internalType":"address"}],"anonymous":false},{"type":"event","name":"Paused","inputs":[{"name":"account","type":"address","indexed":false,"internalType":"address"}],"anonymous":false},{"type":"event","name":"Unpaused","inputs":[{"name":"account","type":"address","indexed":false,"internalType":"address"}],"anonymous":false},{"type":"event","name":"Upgraded","inputs":[{"name":"implementation","type":"address","indexed":true,"internalType":"address"}],"anonymous":false},{"type":"error","name":"AddressEmptyCode","inputs":[{"name":"target","type":"address","internalType":"address"}]},{"type":"error","name":"ERC1967InvalidImplementation","inputs":[{"name":"implementation","type":"address","internalType":"address"}]},{"type":"error","name":"ERC1967NonPayable","inputs":[]},{"type":"error","name":"EnforcedPause","inputs":[]},{"type":"error","name":"ExpectedPause","inputs":[]},{"type":"error","name":"FailedCall","inputs":[]},{"type":"error","name":"InvalidInitialization","inputs":[]},{"type":"error","name":"NotInitializing","inputs":[]},{"type":"error","name":"NotOperator","inputs":[{"name":"account","type":"address","internalType":"address"}]},{"type":"error","name":"OwnableInvalidOwner","inputs":[{"name":"owner","type":"address","internalType":"address"}]},{"type":"error","name":"OwnableUnauthorizedAccount","inputs":[{"name":"account","type":"address","internalType":"address"}]},{"type":"error","name":"UUPSUnauthorizedCallContext","inputs":[]},{"type":"error","name":"UUPSUnsupportedProxiableUUID","inputs":[{"name":"slot","type":"bytes32","internalType":"bytes32"}]}],"bytecode":{"object":"0x60e06040523060805234801562000014575f80fd5b50604051620021293803806200212983398101604081905262000037916200012f565b6200004162000066565b6001600160a01b0380831660a052811660c0526200005e62000066565b50506200016c565b7ff0c57e16840df040f15088dc2f81fe391c3923bec73e23a9662efc9c229c6a00805468010000000000000000900460ff1615620000b75760405163f92ee8a960e01b815260040160405180910390fd5b80546001600160401b0390811614620001175780546001600160401b0319166001600160401b0390811782556040519081527fc7f505b2f371ae2175ee4913f4499e1f2633a7b5936321eed1cdaeb6115181d29060200160405180910390a15b50565b6001600160a01b038116811462000117575f80fd5b5f806040838503121562000141575f80fd5b82516200014e816200011a565b602084015190925062000161816200011a565b809150509250929050565b60805160a05160c051611f76620001b35f395f818161011a0152610f4f01525f8181610192015261070401525f8181610b2f01528181610b590152610d870152611f765ff3fe60806040526004361062000103575f3560e01c80638456cb591162000092578063c3477e98116200005e578063c3477e98146200030d578063c4d66de81462000331578063e30c39781462000355578063f2fde38b146200036c575f80fd5b80638456cb5914620002625780638da5cb5b14620002795780639ed933181462000290578063ad3cb1cc14620002b4575f80fd5b806352d1902d11620000d257806352d1902d14620001cb5780635c975abb14620001f1578063715018a6146200023457806379ba5097146200024b575f80fd5b806306433b1b14620001075780633f4ba83a146200016657806349493a4d146200017f5780634f1ef28614620001b4575b5f80fd5b34801562000113575f80fd5b506200013c7f000000000000000000000000000000000000000000000000000000000000000081565b60405173ffffffffffffffffffffffffffffffffffffffff90911681526020015b60405180910390f35b34801562000172575f80fd5b506200017d62000390565b005b3480156200018b575f80fd5b506200013c7f000000000000000000000000000000000000000000000000000000000000000081565b6200017d620001c5366004620015e7565b620003a6565b348015620001d7575f80fd5b50620001e2620003cb565b6040519081526020016200015d565b348015620001fd575f80fd5b507fcd5ed15c6e187e77e9aee88184c21f4f2182ab5827cb3b7e07fbedcd63f033005460ff1660405190151581526020016200015d565b34801562000240575f80fd5b506200017d620003fb565b34801562000257575f80fd5b506200017d62000410565b3480156200026e575f80fd5b506200017d62000495565b34801562000285575f80fd5b506200013c620004a9565b3480156200029c575f80fd5b506200013c620002ae3660046200164e565b620004ea565b348015620002c0575f80fd5b50620002fe6040518060400160405280600581526020017f352e302e3000000000000000000000000000000000000000000000000000000081525081565b6040516200015d9190620016db565b34801562000319575f80fd5b506200013c6200032b36600462001710565b62000764565b3480156200033d575f80fd5b506200017d6200034f3660046200164e565b62000794565b34801562000361575f80fd5b506200013c62000938565b34801562000378575f80fd5b506200017d6200038a3660046200164e565b62000961565b6200039a62000a1c565b620003a462000a78565b565b620003b062000b17565b620003bb8262000c1e565b620003c7828262000c28565b5050565b5f620003d662000d6f565b507f360894a13ba1a3210667c828492db98dca3e2076cc3735a920a3ca505d382bbc90565b6200040562000a1c565b620003a45f62000ddf565b33806200041c62000938565b73ffffffffffffffffffffffffffffffffffffffff161462000487576040517f118cdaa700000000000000000000000000000000000000000000000000000000815273ffffffffffffffffffffffffffffffffffffffff821660048201526024015b60405180910390fd5b620004928162000ddf565b50565b6200049f62000a1c565b620003a462000e31565b5f807f9016d09d72d40fdae2fd8ceac6b6234c7706214fd39c1cd1e609a0528c1993005b5473ffffffffffffffffffffffffffffffffffffffff1692915050565b5f620004f562000ead565b620005003362000f0a565b5f3390505f8373ffffffffffffffffffffffffffffffffffffffff166306fdde036040518163ffffffff1660e01b81526004015f60405180830381865afa1580156200054e573d5f803e3d5ffd5b505050506040513d5f823e601f3d9081017fffffffffffffffffffffffffffffffffffffffffffffffffffffffffffffffe01682016040526200059591908101906200179f565b604051602001620005a7919062001811565b60405160208183030381529060405290505f8473ffffffffffffffffffffffffffffffffffffffff166395d89b416040518163ffffffff1660e01b81526004015f60405180830381865afa15801562000602573d5f803e3d5ffd5b505050506040513d5f823e601f3d9081017fffffffffffffffffffffffffffffffffffffffffffffffffffffffffffffffe01682016040526200064991908101906200179f565b6040516020016200065b919062001857565b60405160208183030381529060405290505f858484846040516024016200068694939291906200189d565b604080517fffffffffffffffffffffffffffffffffffffffffffffffffffffffffffffffe08184030181529181526020820180517bffffffffffffffffffffffffffffffffffffffffffffffffffffffff167f2016a0d200000000000000000000000000000000000000000000000000000000179052519091505f907f00000000000000000000000000000000000000000000000000000000000000009083906200073190620014b0565b6200073e929190620018f6565b604051809103905ff08015801562000758573d5f803e3d5ffd5b50979650505050505050565b5f6200076f62000a1c565b6200077a8462000f0a565b5f858585856040516024016200068694939291906200189d565b7ff0c57e16840df040f15088dc2f81fe391c3923bec73e23a9662efc9c229c6a00805468010000000000000000810460ff16159067ffffffffffffffff165f81158015620007df5750825b90505f8267ffffffffffffffff166001148015620007fc5750303b155b9050811580156200080b575080155b1562000843576040517ff92ee8a900000000000000000000000000000000000000000000000000000000815260040160405180910390fd5b84547fffffffffffffffffffffffffffffffffffffffffffffffff00000000000000001660011785558315620008a55784547fffffffffffffffffffffffffffffffffffffffffffffff00ffffffffffffffff16680100000000000000001785555b620008b0866200100b565b620008ba62001020565b620008c462001020565b620008ce62001020565b8315620009305784547fffffffffffffffffffffffffffffffffffffffffffffff00ffffffffffffffff168555604051600181527fc7f505b2f371ae2175ee4913f4499e1f2633a7b5936321eed1cdaeb6115181d29060200160405180910390a15b505050505050565b5f807f237e158222e3e6968b72b9db0d8043aacf074ad9f650f0d1606b4d82ee432c00620004cd565b6200096b62000a1c565b7f237e158222e3e6968b72b9db0d8043aacf074ad9f650f0d1606b4d82ee432c0080547fffffffffffffffffffffffff00000000000000000000000000000000000000001673ffffffffffffffffffffffffffffffffffffffff83169081178255620009d6620004a9565b73ffffffffffffffffffffffffffffffffffffffff167f38d16b8cac22d99fc7c124b9cd0de2d3fa1faef420bfe791d8c362d765e2270060405160405180910390a35050565b3362000a27620004a9565b73ffffffffffffffffffffffffffffffffffffffff1614620003a4576040517f118cdaa70000000000000000000000000000000000000000000000000000000081523360048201526024016200047e565b62000a826200102a565b7fcd5ed15c6e187e77e9aee88184c21f4f2182ab5827cb3b7e07fbedcd63f0330080547fffffffffffffffffffffffffffffffffffffffffffffffffffffffffffffff001681557f5db9ee0a495bf2e6ff9c91a7834c1ba4fdd244a5e8aa4e537bd38aeae4b073aa335b60405173ffffffffffffffffffffffffffffffffffffffff909116815260200160405180910390a150565b3073ffffffffffffffffffffffffffffffffffffffff7f000000000000000000000000000000000000000000000000000000000000000016148062000be657507f000000000000000000000000000000000000000000000000000000000000000073ffffffffffffffffffffffffffffffffffffffff1662000bcd7f360894a13ba1a3210667c828492db98dca3e2076cc3735a920a3ca505d382bbc5473ffffffffffffffffffffffffffffffffffffffff1690565b73ffffffffffffffffffffffffffffffffffffffff1614155b15620003a4576040517fe07c8dba00000000000000000000000000000000000000000000000000000000815260040160405180910390fd5b6200049262000a1c565b8173ffffffffffffffffffffffffffffffffffffffff166352d1902d6040518163ffffffff1660e01b8152600401602060405180830381865afa92505050801562000cb0575060408051601f3d9081017fffffffffffffffffffffffffffffffffffffffffffffffffffffffffffffffe016820190925262000cad918101906200192e565b60015b62000d00576040517f4c9c8ce300000000000000000000000000000000000000000000000000000000815273ffffffffffffffffffffffffffffffffffffffff831660048201526024016200047e565b7f360894a13ba1a3210667c828492db98dca3e2076cc3735a920a3ca505d382bbc811462000d5e576040517faa1d49a4000000000000000000000000000000000000000000000000000000008152600481018290526024016200047e565b62000d6a838362001086565b505050565b3073ffffffffffffffffffffffffffffffffffffffff7f00000000000000000000000000000000000000000000000000000000000000001614620003a4576040517fe07c8dba00000000000000000000000000000000000000000000000000000000815260040160405180910390fd5b7f237e158222e3e6968b72b9db0d8043aacf074ad9f650f0d1606b4d82ee432c0080547fffffffffffffffffffffffff0000000000000000000000000000000000000000168155620003c782620010ef565b62000e3b62000ead565b7fcd5ed15c6e187e77e9aee88184c21f4f2182ab5827cb3b7e07fbedcd63f0330080547fffffffffffffffffffffffffffffffffffffffffffffffffffffffffffffff001660011781557f62e78cea01bee320cd4e420270b5ea74000d11b0c9f74754ebdbfc544b05a2583362000aec565b7fcd5ed15c6e187e77e9aee88184c21f4f2182ab5827cb3b7e07fbedcd63f033005460ff1615620003a4576040517fd93c066500000000000000000000000000000000000000000000000000000000815260040160405180910390fd5b6040517f6d70f7ae00000000000000000000000000000000000000000000000000000000815273ffffffffffffffffffffffffffffffffffffffff82811660048301527f00000000000000000000000000000000000000000000000000000000000000001690636d70f7ae90602401602060405180830381865afa15801562000f95573d5f803e3d5ffd5b505050506040513d601f19601f8201168201806040525081019062000fbb919062001946565b62000492576040517f76c6c93a00000000000000000000000000000000000000000000000000000000815273ffffffffffffffffffffffffffffffffffffffff821660048201526024016200047e565b6200101562001184565b6200049281620011ec565b620003a462001184565b7fcd5ed15c6e187e77e9aee88184c21f4f2182ab5827cb3b7e07fbedcd63f033005460ff16620003a4576040517f8dfc202b00000000000000000000000000000000000000000000000000000000815260040160405180910390fd5b620010918262001247565b60405173ffffffffffffffffffffffffffffffffffffffff8316907fbc7cd75a20ee27fd9adebab32041f755214dbc6bffa90cc0225b39da2e5c2d3b905f90a2805115620010e55762000d6a828262001317565b620003c76200139c565b7f9016d09d72d40fdae2fd8ceac6b6234c7706214fd39c1cd1e609a0528c19930080547fffffffffffffffffffffffff0000000000000000000000000000000000000000811673ffffffffffffffffffffffffffffffffffffffff848116918217845560405192169182907f8be0079c531659141344cd1fd0a4f28419497f9722a3daafe3b4186f6b6457e0905f90a3505050565b7ff0c57e16840df040f15088dc2f81fe391c3923bec73e23a9662efc9c229c6a005468010000000000000000900460ff16620003a4576040517fd7e6bcf800000000000000000000000000000000000000000000000000000000815260040160405180910390fd5b620011f662001184565b73ffffffffffffffffffffffffffffffffffffffff811662000487576040517f1e4fbdf70000000000000000000000000000000000000000000000000000000081525f60048201526024016200047e565b8073ffffffffffffffffffffffffffffffffffffffff163b5f03620012b1576040517f4c9c8ce300000000000000000000000000000000000000000000000000000000815273ffffffffffffffffffffffffffffffffffffffff821660048201526024016200047e565b7f360894a13ba1a3210667c828492db98dca3e2076cc3735a920a3ca505d382bbc80547fffffffffffffffffffffffff00000000000000000000000000000000000000001673ffffffffffffffffffffffffffffffffffffffff92909216919091179055565b60605f808473ffffffffffffffffffffffffffffffffffffffff168460405162001342919062001967565b5f60405180830381855af49150503d805f81146200137c576040519150601f19603f3d011682016040523d82523d5f602084013e62001381565b606091505b509150915062001393858383620013d5565b95945050505050565b3415620003a4576040517fb398979f00000000000000000000000000000000000000000000000000000000815260040160405180910390fd5b606082620013ee57620013e8826200146e565b62001467565b815115801562001413575073ffffffffffffffffffffffffffffffffffffffff84163b155b1562001464576040517f9996b31500000000000000000000000000000000000000000000000000000000815273ffffffffffffffffffffffffffffffffffffffff851660048201526024016200047e565b50805b9392505050565b8051156200147e57805160208201fd5b6040517fd6bda27500000000000000000000000000000000000000000000000000000000815260040160405180910390fd5b6105bc806200198583390190565b73ffffffffffffffffffffffffffffffffffffffff8116811462000492575f80fd5b7f4e487b71000000000000000000000000000000000000000000000000000000005f52604160045260245ffd5b604051601f82017fffffffffffffffffffffffffffffffffffffffffffffffffffffffffffffffe016810167ffffffffffffffff81118282101715620015575762001557620014e0565b604052919050565b5f67ffffffffffffffff8211156200157b576200157b620014e0565b50601f017fffffffffffffffffffffffffffffffffffffffffffffffffffffffffffffffe01660200190565b5f620015bd620015b7846200155f565b6200150d565b9050828152838383011115620015d1575f80fd5b828260208301375f602084830101529392505050565b5f8060408385031215620015f9575f80fd5b82356200160681620014be565b9150602083013567ffffffffffffffff81111562001622575f80fd5b8301601f8101851362001633575f80fd5b6200164485823560208401620015a7565b9150509250929050565b5f602082840312156200165f575f80fd5b81356200146781620014be565b5f5b83811015620016885781810151838201526020016200166e565b50505f910152565b5f8151808452620016a98160208601602086016200166c565b601f017fffffffffffffffffffffffffffffffffffffffffffffffffffffffffffffffe0169290920160200192915050565b602081525f62001467602083018462001690565b5f82601f830112620016ff575f80fd5b6200146783833560208501620015a7565b5f805f806080858703121562001724575f80fd5b84356200173181620014be565b935060208501356200174381620014be565b9250604085013567ffffffffffffffff8082111562001760575f80fd5b6200176e88838901620016ef565b9350606087013591508082111562001784575f80fd5b506200179387828801620016ef565b91505092959194509250565b5f60208284031215620017b0575f80fd5b815167ffffffffffffffff811115620017c7575f80fd5b8201601f81018413620017d8575f80fd5b8051620017e9620015b7826200155f565b818152856020838501011115620017fe575f80fd5b620013938260208301602086016200166c565b7f5361744c6179657220000000000000000000000000000000000000000000000081525f82516200184a8160098501602087016200166c565b9190910160090192915050565b7f736174000000000000000000000000000000000000000000000000000000000081525f8251620018908160038501602087016200166c565b9190910160030192915050565b5f73ffffffffffffffffffffffffffffffffffffffff808716835280861660208401525060806040830152620018d7608083018562001690565b8281036060840152620018eb818562001690565b979650505050505050565b73ffffffffffffffffffffffffffffffffffffffff83168152604060208201525f62001926604083018462001690565b949350505050565b5f602082840312156200193f575f80fd5b5051919050565b5f6020828403121562001957575f80fd5b8151801515811462001467575f80fd5b5f82516200197a8184602087016200166c565b919091019291505056fe60a06040526040516105bc3803806105bc83398101604081905261002291610375565b61002c828261003e565b506001600160a01b0316608052610464565b610047826100fb565b6040516001600160a01b038316907f1cf3b03a6cf19fa2baba4df148e9dcabedea7f8a5c07840e207e5c089be95d3e905f90a28051156100ef576100ea826001600160a01b0316635c60da1b6040518163ffffffff1660e01b8152600401602060405180830381865afa1580156100c0573d5f803e3d5ffd5b505050506040513d601f19601f820116820180604052508101906100e49190610430565b82610209565b505050565b6100f761027c565b5050565b806001600160a01b03163b5f0361013557604051631933b43b60e21b81526001600160a01b03821660048201526024015b60405180910390fd5b807fa3f0ad74e5423aebfd80d3ef4346578335a9a72aeaee59ff6cb3582b35133d5080546001600160a01b0319166001600160a01b0392831617905560408051635c60da1b60e01b815290515f92841691635c60da1b9160048083019260209291908290030181865afa1580156101ae573d5f803e3d5ffd5b505050506040513d601f19601f820116820180604052508101906101d29190610430565b9050806001600160a01b03163b5f036100f757604051634c9c8ce360e01b81526001600160a01b038216600482015260240161012c565b60605f80846001600160a01b0316846040516102259190610449565b5f60405180830381855af49150503d805f811461025d576040519150601f19603f3d011682016040523d82523d5f602084013e610262565b606091505b50909250905061027385838361029d565b95945050505050565b341561029b5760405163b398979f60e01b815260040160405180910390fd5b565b6060826102b2576102ad826102fc565b6102f5565b81511580156102c957506001600160a01b0384163b155b156102f257604051639996b31560e01b81526001600160a01b038516600482015260240161012c565b50805b9392505050565b80511561030b57805160208201fd5b60405163d6bda27560e01b815260040160405180910390fd5b80516001600160a01b038116811461033a575f80fd5b919050565b634e487b7160e01b5f52604160045260245ffd5b5f5b8381101561036d578181015183820152602001610355565b50505f910152565b5f8060408385031215610386575f80fd5b61038f83610324565b60208401519092506001600160401b03808211156103ab575f80fd5b818501915085601f8301126103be575f80fd5b8151818111156103d0576103d061033f565b604051601f8201601f19908116603f011681019083821181831017156103f8576103f861033f565b81604052828152886020848701011115610410575f80fd5b610421836020830160208801610353565b80955050505050509250929050565b5f60208284031215610440575f80fd5b6102f582610324565b5f825161045a818460208701610353565b9190910192915050565b60805161014161047b5f395f602301526101415ff3fe608060405261000c61000e565b005b61001e610019610020565b6100b3565b565b5f7f000000000000000000000000000000000000000000000000000000000000000073ffffffffffffffffffffffffffffffffffffffff16635c60da1b6040518163ffffffff1660e01b8152600401602060405180830381865afa15801561008a573d5f803e3d5ffd5b505050506040513d601f19601f820116820180604052508101906100ae91906100d1565b905090565b365f80375f80365f845af43d5f803e8080156100cd573d5ff35b3d5ffd5b5f602082840312156100e1575f80fd5b815173ffffffffffffffffffffffffffffffffffffffff81168114610104575f80fd5b939250505056fea2646970667358221220123f3afbfd1aea5ff462c6f66592261f8e3b0813279ee88f8afac36ab562fb3b64736f6c63430008160033a264697066735822122067f8efdc21b50f47b8b9c41399c46bb37fddc4188c555da94ce5327294e579ca64736f6c63430008160033","linkReferences":{}},"methodIdentifiers":{"BEACON()":"49493a4d","REGISTRY()":"06433b1b","UPGRADE_INTERFACE_VERSION()":"ad3cb1cc","acceptOwnership()":"79ba5097","create(address)":"9ed93318","create(address,address,string,string)":"c3477e98","initialize(address)":"c4d66de8","owner()":"8da5cb5b","pause()":"8456cb59","paused()":"5c975abb","pendingOwner()":"e30c3978","proxiableUUID()":"52d1902d","renounceOwnership()":"715018a6","transferOwnership(address)":"f2fde38b","unpause()":"3f4ba83a","upgradeToAndCall(address,bytes)":"4f1ef286"},"id":92}