{"abi":[{"type":"constructor","inputs":[{"name":"router_","type":"address","internalType":"contract SLAYRouterV2"},{"name":"registry_","type":"address","internalType":"contract SLAYRegistryV2"}],"stateMutability":"nonpayable"},{"type":"function","name":"DOMAIN_SEPARATOR","inputs":[],"outputs":[{"name":"","type":"bytes32","internalType":"bytes32"}],"stateMutability":"view"},{"type":"function","name":"REGISTRY","inputs":[],"outputs":[{"name":"","type":"address","internalType":"contract SLAYRegistryV2"}],"stateMutability":"view"},{"type":"function","name":"ROUTER","inputs":[],"outputs":[{"name":"","type":"address","internalType":"contract SLAYRouterV2"}],"stateMutability":"view"},{"type":"function","name":"allowance","inputs":[{"name":"owner","type":"address","internalType":"address"},{"name":"spender","type":"address","internalType":"address"}],"outputs":[{"name":"","type":"uint256","internalType":"uint256"}],"stateMutability":"view"},{"type":"function","name":"approve","inputs":[{"name":"spender","type":"address","internalType":"address"},{"name":"value","type":"uint256","internalType":"uint256"}],"outputs":[{"name":"","type":"bool","internalType":"bool"}],"stateMutability":"nonpayable"},{"type":"function","name":"asset","inputs":[],"outputs":[{"name":"","type":"address","internalType":"address"}],"stateMutability":"view"},{"type":"function","name":"balanceOf","inputs":[{"name":"account","type":"address","internalType":"address"}],"outputs":[{"name":"","type":"uint256","internalType":"uint256"}],"stateMutability":"view"},{"type":"function","name":"claimableRedeemRequest","inputs":[{"name":"","type":"uint256","internalType":"uint256"},{"name":"controller","type":"address","internalType":"address"}],"outputs":[{"name":"claimableShares","type":"uint256","internalType":"uint256"}],"stateMutability":"view"},{"type":"function","name":"convertToAssets","inputs":[{"name":"shares","type":"uint256","internalType":"uint256"}],"outputs":[{"name":"","type":"uint256","internalType":"uint256"}],"stateMutability":"view"},{"type":"function","name":"convertToShares","inputs":[{"name":"assets","type":"uint256","internalType":"uint256"}],"outputs":[{"name":"","type":"uint256","internalType":"uint256"}],"stateMutability":"view"},{"type":"function","name":"decimals","inputs":[],"outputs":[{"name":"","type":"uint8","internalType":"uint8"}],"stateMutability":"view"},{"type":"function","name":"delegated","inputs":[],"outputs":[{"name":"","type":"address","internalType":"address"}],"stateMutability":"view"},{"type":"function","name":"deposit","inputs":[{"name":"assets","type":"uint256","internalType":"uint256"},{"name":"receiver","type":"address","internalType":"address"}],"outputs":[{"name":"","type":"uint256","internalType":"uint256"}],"stateMutability":"nonpayable"},{"type":"function","name":"eip712Domain","inputs":[],"outputs":[{"name":"fields","type":"bytes1","internalType":"bytes1"},{"name":"name","type":"string","internalType":"string"},{"name":"version","type":"string","internalType":"string"},{"name":"chainId","type":"uint256","internalType":"uint256"},{"name":"verifyingContract","type":"address","internalType":"address"},{"name":"salt","type":"bytes32","internalType":"bytes32"},{"name":"extensions","type":"uint256[]","internalType":"uint256[]"}],"stateMutability":"view"},{"type":"function","name":"initialize","inputs":[{"name":"asset_","type":"address","internalType":"contract IERC20"},{"name":"delegated_","type":"address","internalType":"address"},{"name":"name_","type":"string","internalType":"string"},{"name":"symbol_","type":"string","internalType":"string"}],"outputs":[],"stateMutability":"nonpayable"},{"type":"function","name":"isOperator","inputs":[{"name":"controller","type":"address","internalType":"address"},{"name":"operator","type":"address","internalType":"address"}],"outputs":[{"name":"status","type":"bool","internalType":"bool"}],"stateMutability":"view"},{"type":"function","name":"lockSlashing","inputs":[{"name":"amount","type":"uint256","internalType":"uint256"}],"outputs":[],"stateMutability":"nonpayable"},{"type":"function","name":"maxDeposit","inputs":[{"name":"","type":"address","internalType":"address"}],"outputs":[{"name":"","type":"uint256","internalType":"uint256"}],"stateMutability":"view"},{"type":"function","name":"maxMint","inputs":[{"name":"","type":"address","internalType":"address"}],"outputs":[{"name":"","type":"uint256","internalType":"uint256"}],"stateMutability":"view"},{"type":"function","name":"maxRedeem","inputs":[{"name":"controller","type":"address","internalType":"address"}],"outputs":[{"name":"","type":"uint256","internalType":"uint256"}],"stateMutability":"view"},{"type":"function","name":"maxWithdraw","inputs":[{"name":"controller","type":"address","internalType":"address"}],"outputs":[{"name":"","type":"uint256","internalType":"uint256"}],"stateMutability":"view"},{"type":"function","name":"mint","inputs":[{"name":"shares","type":"uint256","internalType":"uint256"},{"name":"receiver","type":"address","internalType":"address"}],"outputs":[{"name":"","type":"uint256","internalType":"uint256"}],"stateMutability":"nonpayable"},{"type":"function","name":"name","inputs":[],"outputs":[{"name":"","type":"string","internalType":"string"}],"stateMutability":"view"},{"type":"function","name":"nonces","inputs":[{"name":"owner","type":"address","internalType":"address"}],"outputs":[{"name":"","type":"uint256","internalType":"uint256"}],"stateMutability":"view"},{"type":"function","name":"pendingRedeemRequest","inputs":[{"name":"","type":"uint256","internalType":"uint256"},{"name":"controller","type":"address","internalType":"address"}],"outputs":[{"name":"pendingShares","type":"uint256","internalType":"uint256"}],"stateMutability":"view"},{"type":"function","name":"permit","inputs":[{"name":"owner","type":"address","internalType":"address"},{"name":"spender","type":"address","internalType":"address"},{"name":"value","type":"uint256","internalType":"uint256"},{"name":"deadline","type":"uint256","internalType":"uint256"},{"name":"v","type":"uint8","internalType":"uint8"},{"name":"r","type":"bytes32","internalType":"bytes32"},{"name":"s","type":"bytes32","internalType":"bytes32"}],"outputs":[],"stateMutability":"nonpayable"},{"type":"function","name":"previewDeposit","inputs":[{"name":"assets","type":"uint256","internalType":"uint256"}],"outputs":[{"name":"","type":"uint256","internalType":"uint256"}],"stateMutability":"view"},{"type":"function","name":"previewMint","inputs":[{"name":"shares","type":"uint256","internalType":"uint256"}],"outputs":[{"name":"","type":"uint256","internalType":"uint256"}],"stateMutability":"view"},{"type":"function","name":"previewRedeem","inputs":[{"name":"","type":"uint256","internalType":"uint256"}],"outputs":[{"name":"","type":"uint256","internalType":"uint256"}],"stateMutability":"pure"},{"type":"function","name":"previewWithdraw","inputs":[{"name":"","type":"uint256","internalType":"uint256"}],"outputs":[{"name":"","type":"uint256","internalType":"uint256"}],"stateMutability":"pure"},{"type":"function","name":"redeem","inputs":[{"name":"shares","type":"uint256","internalType":"uint256"},{"name":"receiver","type":"address","internalType":"address"},{"name":"controller","type":"address","internalType":"address"}],"outputs":[{"name":"assets","type":"uint256","internalType":"uint256"}],"stateMutability":"nonpayable"},{"type":"function","name":"requestRedeem","inputs":[{"name":"shares","type":"uint256","internalType":"uint256"},{"name":"controller","type":"address","internalType":"address"},{"name":"owner","type":"address","internalType":"address"}],"outputs":[{"name":"requestId","type":"uint256","internalType":"uint256"}],"stateMutability":"nonpayable"},{"type":"function","name":"setOperator","inputs":[{"name":"operator","type":"address","internalType":"address"},{"name":"approved","type":"bool","internalType":"bool"}],"outputs":[{"name":"success","type":"bool","internalType":"bool"}],"stateMutability":"nonpayable"},{"type":"function","name":"supportsInterface","inputs":[{"name":"interfaceId","type":"bytes4","internalType":"bytes4"}],"outputs":[{"name":"","type":"bool","internalType":"bool"}],"stateMutability":"view"},{"type":"function","name":"symbol","inputs":[],"outputs":[{"name":"","type":"string","internalType":"string"}],"stateMutability":"view"},{"type":"function","name":"totalActiveStaked","inputs":[],"outputs":[{"name":"","type":"uint256","internalType":"uint256"}],"stateMutability":"view"},{"type":"function","name":"totalAssets","inputs":[],"outputs":[{"name":"","type":"uint256","internalType":"uint256"}],"stateMutability":"view"},{"type":"function","name":"totalSupply","inputs":[],"outputs":[{"name":"","type":"uint256","internalType":"uint256"}],"stateMutability":"view"},{"type":"function","name":"transfer","inputs":[{"name":"to","type":"address","internalType":"address"},{"name":"value","type":"uint256","internalType":"uint256"}],"outputs":[{"name":"","type":"bool","internalType":"bool"}],"stateMutability":"nonpayable"},{"type":"function","name":"transferFrom","inputs":[{"name":"from","type":"address","internalType":"address"},{"name":"to","type":"address","internalType":"address"},{"name":"value","type":"uint256","internalType":"uint256"}],"outputs":[{"name":"","type":"bool","internalType":"bool"}],"stateMutability":"nonpayable"},{"type":"function","name":"withdraw","inputs":[{"name":"assets","type":"uint256","internalType":"uint256"},{"name":"receiver","type":"address","internalType":"address"},{"name":"controller","type":"address","internalType":"address"}],"outputs":[{"name":"shares","type":"uint256","internalType":"uint256"}],"stateMutability":"nonpayable"},{"type":"event","name":"Approval","inputs":[{"name":"owner","type":"address","indexed":true,"internalType":"address"},{"name":"spender","type":"address","indexed":true,"internalType":"address"},{"name":"value","type":"uint256","indexed":false,"internalType":"uint256"}],"anonymous":false},{"type":"event","name":"Deposit","inputs":[{"name":"sender","type":"address","indexed":true,"internalType":"address"},{"name":"owner","type":"address","indexed":true,"internalType":"address"},{"name":"assets","type":"uint256","indexed":false,"internalType":"uint256"},{"name":"shares","type":"uint256","indexed":false,"internalType":"uint256"}],"anonymous":false},{"type":"event","name":"EIP712DomainChanged","inputs":[],"anonymous":false},{"type":"event","name":"Initialized","inputs":[{"name":"version","type":"uint64","indexed":false,"internalType":"uint64"}],"anonymous":false},{"type":"event","name":"OperatorSet","inputs":[{"name":"controller","type":"address","indexed":true,"internalType":"address"},{"name":"operator","type":"address","indexed":true,"internalType":"address"},{"name":"approved","type":"bool","indexed":false,"internalType":"bool"}],"anonymous":false},{"type":"event","name":"RedeemRequest","inputs":[{"name":"controller","type":"address","indexed":true,"internalType":"address"},{"name":"owner","type":"address","indexed":true,"internalType":"address"},{"name":"requestId","type":"uint256","indexed":true,"internalType":"uint256"},{"name":"sender","type":"address","indexed":false,"internalType":"address"},{"name":"assets","type":"uint256","indexed":false,"internalType":"uint256"}],"anonymous":false},{"type":"event","name":"SlashingLocked","inputs":[{"name":"amount","type":"uint256","indexed":false,"internalType":"uint256"}],"anonymous":false},{"type":"event","name":"Transfer","inputs":[{"name":"from","type":"address","indexed":true,"internalType":"address"},{"name":"to","type":"address","indexed":true,"internalType":"address"},{"name":"value","type":"uint256","indexed":false,"internalType":"uint256"}],"anonymous":false},{"type":"event","name":"Withdraw","inputs":[{"name":"sender","type":"address","indexed":true,"internalType":"address"},{"name":"receiver","type":"address","indexed":true,"internalType":"address"},{"name":"owner","type":"address","indexed":true,"internalType":"address"},{"name":"assets","type":"uint256","indexed":false,"internalType":"uint256"},{"name":"shares","type":"uint256","indexed":false,"internalType":"uint256"}],"anonymous":false},{"type":"error","name":"ECDSAInvalidSignature","inputs":[]},{"type":"error","name":"ECDSAInvalidSignatureLength","inputs":[{"name":"length","type":"uint256","internalType":"uint256"}]},{"type":"error","name":"ECDSAInvalidSignatureS","inputs":[{"name":"s","type":"bytes32","internalType":"bytes32"}]},{"type":"error","name":"ERC20InsufficientAllowance","inputs":[{"name":"spender","type":"address","internalType":"address"},{"name":"allowance","type":"uint256","internalType":"uint256"},{"name":"needed","type":"uint256","internalType":"uint256"}]},{"type":"error","name":"ERC20InsufficientBalance","inputs":[{"name":"sender","type":"address","internalType":"address"},{"name":"balance","type":"uint256","internalType":"uint256"},{"name":"needed","type":"uint256","internalType":"uint256"}]},{"type":"error","name":"ERC20InvalidApprover","inputs":[{"name":"approver","type":"address","internalType":"address"}]},{"type":"error","name":"ERC20InvalidReceiver","inputs":[{"name":"receiver","type":"address","internalType":"address"}]},{"type":"error","name":"ERC20InvalidSender","inputs":[{"name":"sender","type":"address","internalType":"address"}]},{"type":"error","name":"ERC20InvalidSpender","inputs":[{"name":"spender","type":"address","internalType":"address"}]},{"type":"error","name":"ERC2612ExpiredSignature","inputs":[{"name":"deadline","type":"uint256","internalType":"uint256"}]},{"type":"error","name":"ERC2612InvalidSigner","inputs":[{"name":"signer","type":"address","internalType":"address"},{"name":"owner","type":"address","internalType":"address"}]},{"type":"error","name":"ERC4626ExceededMaxDeposit","inputs":[{"name":"receiver","type":"address","internalType":"address"},{"name":"assets","type":"uint256","internalType":"uint256"},{"name":"max","type":"uint256","internalType":"uint256"}]},{"type":"error","name":"ERC4626ExceededMaxMint","inputs":[{"name":"receiver","type":"address","internalType":"address"},{"name":"shares","type":"uint256","internalType":"uint256"},{"name":"max","type":"uint256","internalType":"uint256"}]},{"type":"error","name":"ERC4626ExceededMaxRedeem","inputs":[{"name":"owner","type":"address","internalType":"address"},{"name":"shares","type":"uint256","internalType":"uint256"},{"name":"max","type":"uint256","internalType":"uint256"}]},{"type":"error","name":"ERC4626ExceededMaxWithdraw","inputs":[{"name":"owner","type":"address","internalType":"address"},{"name":"assets","type":"uint256","internalType":"uint256"},{"name":"max","type":"uint256","internalType":"uint256"}]},{"type":"error","name":"EnforcedPause","inputs":[]},{"type":"error","name":"ExceededMaxRedeemable","inputs":[]},{"type":"error","name":"ExpectedWhitelisted","inputs":[]},{"type":"error","name":"InvalidAccountNonce","inputs":[{"name":"account","type":"address","internalType":"address"},{"name":"currentNonce","type":"uint256","internalType":"uint256"}]},{"type":"error","name":"InvalidInitialization","inputs":[]},{"type":"error","name":"MustClaimAll","inputs":[]},{"type":"error","name":"NotControllerOrOperator","inputs":[]},{"type":"error","name":"NotInitializing","inputs":[]},{"type":"error","name":"NotRouter","inputs":[]},{"type":"error","name":"PreviewNotSupported","inputs":[]},{"type":"error","name":"SafeERC20FailedOperation","inputs":[{"name":"token","type":"address","internalType":"address"}]},{"type":"error","name":"WithdrawRequestNotFound","inputs":[]},{"type":"error","name":"WithdrawalDelayHasNotPassed","inputs":[]},{"type":"error","name":"ZeroAmount","inputs":[]}],"bytecode":{"object":"0x60c060405234801562000010575f80fd5b5060405162003be138038062003be1833981016040819052620000339162000121565b6001600160a01b03808316608052811660a0526200005062000058565b50506200015e565b7ff0c57e16840df040f15088dc2f81fe391c3923bec73e23a9662efc9c229c6a00805468010000000000000000900460ff1615620000a95760405163f92ee8a960e01b815260040160405180910390fd5b80546001600160401b0390811614620001095780546001600160401b0319166001600160401b0390811782556040519081527fc7f505b2f371ae2175ee4913f4499e1f2633a7b5936321eed1cdaeb6115181d29060200160405180910390a15b50565b6001600160a01b038116811462000109575f80fd5b5f806040838503121562000133575f80fd5b825162000140816200010c565b602084015190925062000153816200010c565b809150509250929050565b60805160a051613a3e620001a35f395f818161030901526110dc01525f818161040c01528181611a2701528181611ad601528181611ee30152612d4e0152613a3e5ff3fe608060405234801561000f575f80fd5b50600436106102c2575f3560e01c80637ecebe001161017c578063c6e6f592116100dd578063dd62ed3e11610093578063eaed1d071161006e578063eaed1d07146106b7578063ef8b30f7146105cf578063f5a23d8d146106ca575f80fd5b8063dd62ed3e14610638578063dff81f7d1461069c578063e49d1232146106af575f80fd5b8063cf8db862116100c3578063cf8db862146105f5578063d505accf14610612578063d905777e14610625575f80fd5b8063c6e6f592146105cf578063ce96cb77146105e2575f80fd5b8063b3d7f6b911610132578063b6363cf211610118578063b6363cf214610574578063ba087652146105bc578063c63d75b614610473575f80fd5b8063b3d7f6b91461054e578063b460af9414610561575f80fd5b806394bf804d1161016257806394bf804d1461052057806395d89b4114610533578063a9059cbb1461053b575f80fd5b80637ecebe00146104f257806384b0196e14610505575f80fd5b8063313ce567116102265780634cdad506116101dc5780636e553f65116101c25780636e553f65146104b957806370a08231146104cc5780637d41c86e146104df575f80fd5b80634cdad5061461038b578063558a7297146104a6575f80fd5b80633644e5151161020c5780633644e5151461042e57806338d52e0f14610436578063402d267d14610473575f80fd5b8063313ce567146103ed57806332fe7b2614610407575f80fd5b8063095ea7b31161027b57806318160ddd1161026157806318160ddd1461039e5780632016a0d2146103c557806323b872dd146103da575f80fd5b8063095ea7b3146103785780630a28a4771461038b575f80fd5b806306433b1b116102ab57806306433b1b1461030457806306fdde031461035057806307a2d13a14610365575f80fd5b806301e1d114146102c657806301ffc9a7146102e1575b5f80fd5b6102ce6106dd565b6040519081526020015b60405180910390f35b6102f46102ef3660046130dd565b6107af565b60405190151581526020016102d8565b61032b7f000000000000000000000000000000000000000000000000000000000000000081565b60405173ffffffffffffffffffffffffffffffffffffffff90911681526020016102d8565b6103586109c3565b6040516102d89190613187565b6102ce610373366004613199565b610a7b565b6102f46103863660046131d1565b610a86565b6102ce610399366004613199565b610a9d565b7f52c63247e1f47db19d5ce0460030c497f067ca4cebf71ba98eeadabe20bace02546102ce565b6103d86103d33660046132cf565b610ad0565b005b6102f46103e8366004613353565b610d10565b6103f5610d35565b60405160ff90911681526020016102d8565b61032b7f000000000000000000000000000000000000000000000000000000000000000081565b6102ce610d3e565b7f0773e532dfede91f04b12a73d3d2acd361424f41f76b4fb79f090161e36b4e005473ffffffffffffffffffffffffffffffffffffffff1661032b565b6102ce610481366004613391565b507fffffffffffffffffffffffffffffffffffffffffffffffffffffffffffffffff90565b6102f46104b43660046133b9565b610d47565b6102ce6104c73660046133f0565b610e67565b6102ce6104da366004613391565b610ea9565b6102ce6104ed366004613413565b610ef9565b6102ce610500366004613391565b6111cf565b61050d6111d9565b6040516102d89796959493929190613452565b6102ce61052e3660046133f0565b6112d3565b61035861130d565b6102f46105493660046131d1565b61135e565b6102ce61055c366004613199565b61136b565b6102ce61056f366004613413565b611377565b6102f4610582366004613512565b73ffffffffffffffffffffffffffffffffffffffff9182165f90815260016020908152604080832093909416825291909152205460ff1690565b6102ce6105ca366004613413565b611591565b6102ce6105dd366004613199565b6117a7565b6102ce6105f0366004613391565b6117b2565b5f5473ffffffffffffffffffffffffffffffffffffffff1661032b565b6103d861062036600461353e565b611809565b6102ce610633366004613391565b6119d1565b6102ce610646366004613512565b73ffffffffffffffffffffffffffffffffffffffff9182165f9081527f52c63247e1f47db19d5ce0460030c497f067ca4cebf71ba98eeadabe20bace016020908152604080832093909416825291909152205490565b6103d86106aa366004613199565b611a1c565b6102ce611b31565b6102ce6106c53660046133f0565b611b67565b6102ce6106d83660046133f0565b611bb5565b5f61071c7f0773e532dfede91f04b12a73d3d2acd361424f41f76b4fb79f090161e36b4e005473ffffffffffffffffffffffffffffffffffffffff1690565b6040517f70a0823100000000000000000000000000000000000000000000000000000000815230600482015273ffffffffffffffffffffffffffffffffffffffff91909116906370a0823190602401602060405180830381865afa158015610786573d5f803e3d5ffd5b505050506040513d601f19601f820116820180604052508101906107aa91906135af565b905090565b5f7fffffffff0000000000000000000000000000000000000000000000000000000082167f36372b0700000000000000000000000000000000000000000000000000000000148061084157507fffffffff0000000000000000000000000000000000000000000000000000000082167fa219a02500000000000000000000000000000000000000000000000000000000145b8061088d57507fffffffff0000000000000000000000000000000000000000000000000000000082167f87dfe5a000000000000000000000000000000000000000000000000000000000145b806108d957507fffffffff0000000000000000000000000000000000000000000000000000000082167f620ee8e400000000000000000000000000000000000000000000000000000000145b8061092557507fffffffff0000000000000000000000000000000000000000000000000000000082167fe3bc4e6500000000000000000000000000000000000000000000000000000000145b8061097157507fffffffff0000000000000000000000000000000000000000000000000000000082167ff4e8b52d00000000000000000000000000000000000000000000000000000000145b806109bd57507f01ffc9a7000000000000000000000000000000000000000000000000000000007fffffffff000000000000000000000000000000000000000000000000000000008316145b92915050565b60605f7f52c63247e1f47db19d5ce0460030c497f067ca4cebf71ba98eeadabe20bace005b90508060030180546109f9906135c6565b80601f0160208091040260200160405190810160405280929190818152602001828054610a25906135c6565b8015610a705780601f10610a4757610100808354040283529160200191610a70565b820191905f5260205f20905b815481529060010190602001808311610a5357829003601f168201915b505050505091505090565b5f6109bd825f611bed565b5f33610a93818585611c44565b5060019392505050565b5f6040517f8d1da42200000000000000000000000000000000000000000000000000000000815260040160405180910390fd5b5f610ad9611c56565b805490915060ff68010000000000000000820416159067ffffffffffffffff165f81158015610b055750825b90505f8267ffffffffffffffff166001148015610b215750303b155b905081158015610b2f575080155b15610b66576040517ff92ee8a900000000000000000000000000000000000000000000000000000000815260040160405180910390fd5b84547fffffffffffffffffffffffffffffffffffffffffffffffff00000000000000001660011785558315610bc75784547fffffffffffffffffffffffffffffffffffffffffffffff00ffffffffffffffff16680100000000000000001785555b73ffffffffffffffffffffffffffffffffffffffff8816610c49576040517f08c379a000000000000000000000000000000000000000000000000000000000815260206004820181905260248201527f44656c656761746564206973206e6f7420612076616c6964206163636f756e7460448201526064015b60405180910390fd5b610c538787611c7e565b610c5c89611c94565b610c6587611ca8565b5f80547fffffffffffffffffffffffff00000000000000000000000000000000000000001673ffffffffffffffffffffffffffffffffffffffff8a161790558315610d055784547fffffffffffffffffffffffffffffffffffffffffffffff00ffffffffffffffff168555604051600181527fc7f505b2f371ae2175ee4913f4499e1f2633a7b5936321eed1cdaeb6115181d29060200160405180910390a15b505050505050505050565b5f33610d1d858285611cef565b610d28858585611ddc565b60019150505b9392505050565b5f6107aa611e85565b5f6107aa611ed8565b5f610d50611ee1565b73ffffffffffffffffffffffffffffffffffffffff8316610dcd576040517f08c379a000000000000000000000000000000000000000000000000000000000815260206004820152601f60248201527f4f70657261746f72206973206e6f7420612076616c6964206163636f756e74006044820152606401610c40565b335f81815260016020908152604080832073ffffffffffffffffffffffffffffffffffffffff88168085529083529281902080547fffffffffffffffffffffffffffffffffffffffffffffffffffffffffffffff00168715159081179091558151908152905184927fceb576d9f15e4e200fdb5096d64d5dfd667e16def20c1eefd14256d8e3faa267928290030190a35060019392505050565b5f7fffffffffffffffffffffffffffffffffffffffffffffffffffffffffffffffff5f610e93856117a7565b9050610ea133858784611fa7565b949350505050565b5f807f52c63247e1f47db19d5ce0460030c497f067ca4cebf71ba98eeadabe20bace005b73ffffffffffffffffffffffffffffffffffffffff9093165f9081526020939093525050604090205490565b5f33848203610f34576040517f1f2a200500000000000000000000000000000000000000000000000000000000815260040160405180910390fd5b8073ffffffffffffffffffffffffffffffffffffffff168373ffffffffffffffffffffffffffffffffffffffff1614158015610fa2575073ffffffffffffffffffffffffffffffffffffffff8084165f9081526001602090815260408083209385168352929052205460ff16155b15610fb257610fb2838287611cef565b8073ffffffffffffffffffffffffffffffffffffffff168473ffffffffffffffffffffffffffffffffffffffff1614158015611020575073ffffffffffffffffffffffffffffffffffffffff8085165f9081526001602090815260408083209385168352929052205460ff16155b15611057576040517fb8c8b79e00000000000000000000000000000000000000000000000000000000815260040160405180910390fd5b73ffffffffffffffffffffffffffffffffffffffff84165f90815260026020526040812080549091879183919061108f908490613644565b90915550505f80546040517fb1e5082900000000000000000000000000000000000000000000000000000000815273ffffffffffffffffffffffffffffffffffffffff91821660048201527f00000000000000000000000000000000000000000000000000000000000000009091169063b1e5082990602401602060405180830381865afa158015611123573d5f803e3d5ffd5b505050506040513d601f19601f820116820180604052508101906111479190613657565b905061115963ffffffff821642613644565b6001830155611169853089611ddc565b6040805173ffffffffffffffffffffffffffffffffffffffff8581168252602082018a90525f9281891692918a16917f1fdc681a13d8c5da54e301c7ce6542dcde4581e4725043fdab2db12ddc574506910160405180910390a4505f9695505050505050565b5f6109bd82612070565b5f60608082808083817fa16a46d94261c7517cc8ff89f61c0ce93598e3c849801011dee649a6a557d100805490915015801561121757506001810154155b61127d576040517f08c379a000000000000000000000000000000000000000000000000000000000815260206004820152601560248201527f4549503731323a20556e696e697469616c697a656400000000000000000000006044820152606401610c40565b611285612098565b61128d6120e9565b604080515f808252602082019092527f0f000000000000000000000000000000000000000000000000000000000000009c939b5091995046985030975095509350915050565b5f7fffffffffffffffffffffffffffffffffffffffffffffffffffffffffffffffff5f6112ff8561136b565b9050610ea133858388611fa7565b7f52c63247e1f47db19d5ce0460030c497f067ca4cebf71ba98eeadabe20bace0480546060917f52c63247e1f47db19d5ce0460030c497f067ca4cebf71ba98eeadabe20bace00916109f9906135c6565b5f33610a93818585611ddc565b5f6109bd826001611bed565b5f813373ffffffffffffffffffffffffffffffffffffffff821681148015906113d2575073ffffffffffffffffffffffffffffffffffffffff8083165f9081526001602090815260408083209385168352929052205460ff16155b15611409576040517fb8c8b79e00000000000000000000000000000000000000000000000000000000815260040160405180910390fd5b855f03611442576040517f1f2a200500000000000000000000000000000000000000000000000000000000815260040160405180910390fd5b73ffffffffffffffffffffffffffffffffffffffff84165f9081526002602090815260408083208151808301909252805482526001015491810182905291036114b7576040517f5771670a00000000000000000000000000000000000000000000000000000000815260040160405180910390fd5b42816020015111156114f5576040517fc60b549800000000000000000000000000000000000000000000000000000000815260040160405180910390fd5b805193505f61150385610a7b565b90508088101561153f576040517fef47371800000000000000000000000000000000000000000000000000000000815260040160405180910390fd5b80881115611579576040517f5766507200000000000000000000000000000000000000000000000000000000815260040160405180910390fd5b6115863388888489612112565b505050509392505050565b5f813373ffffffffffffffffffffffffffffffffffffffff821681148015906115ec575073ffffffffffffffffffffffffffffffffffffffff8083165f9081526001602090815260408083209385168352929052205460ff16155b15611623576040517fb8c8b79e00000000000000000000000000000000000000000000000000000000815260040160405180910390fd5b855f0361165c576040517f1f2a200500000000000000000000000000000000000000000000000000000000815260040160405180910390fd5b73ffffffffffffffffffffffffffffffffffffffff84165f9081526002602090815260408083208151808301909252805482526001015491810182905291036116d1576040517f5771670a00000000000000000000000000000000000000000000000000000000815260040160405180910390fd5b428160200151111561170f576040517fc60b549800000000000000000000000000000000000000000000000000000000815260040160405180910390fd5b805187101561174a576040517fef47371800000000000000000000000000000000000000000000000000000000815260040160405180910390fd5b8051871115611785576040517f5766507200000000000000000000000000000000000000000000000000000000815260040160405180910390fd5b61178e87610a7b565b935061179d338787878b612112565b5050509392505050565b5f6109bd825f61221d565b73ffffffffffffffffffffffffffffffffffffffff81165f90815260026020908152604080832081518083019092528054825260010154918101829052904210611801578051610d2e90610a7b565b505f92915050565b83421115611846576040517f6279130200000000000000000000000000000000000000000000000000000000815260048101859052602401610c40565b5f7f6e71edae12b1b97f4d1f60370fef10105fa2faae0126114a169c64845d6126c98888886118bd8c73ffffffffffffffffffffffffffffffffffffffff165f9081527f5ab42ced628888259c08ac98db1eb0cf702fc1501344311d8b100cd1bfe4bb006020526040902080546001810190915590565b60408051602081019690965273ffffffffffffffffffffffffffffffffffffffff94851690860152929091166060840152608083015260a082015260c0810186905260e0016040516020818303038152906040528051906020012090505f6119248261226b565b90505f611933828787876122b2565b90508973ffffffffffffffffffffffffffffffffffffffff168173ffffffffffffffffffffffffffffffffffffffff16146119ba576040517f4b800e4600000000000000000000000000000000000000000000000000000000815273ffffffffffffffffffffffffffffffffffffffff80831660048301528b166024820152604401610c40565b6119c58a8a8a611c44565b50505050505050505050565b73ffffffffffffffffffffffffffffffffffffffff81165f90815260026020908152604080832081518083019092528054825260010154918101829052904210611801575192915050565b611a24611ee1565b337f000000000000000000000000000000000000000000000000000000000000000073ffffffffffffffffffffffffffffffffffffffff1614611a93576040517f9165520100000000000000000000000000000000000000000000000000000000815260040160405180910390fd5b611afb611ad47f0773e532dfede91f04b12a73d3d2acd361424f41f76b4fb79f090161e36b4e005473ffffffffffffffffffffffffffffffffffffffff1690565b7f0000000000000000000000000000000000000000000000000000000000000000836122de565b6040518181527f4126d2da817d1aa12a3c086bf2fa8957ff31629479134de6ca77c014162c77329060200160405180910390a150565b5f611b3b30610ea9565b7f52c63247e1f47db19d5ce0460030c497f067ca4cebf71ba98eeadabe20bace02546107aa919061367a565b73ffffffffffffffffffffffffffffffffffffffff81165f90815260026020526040812060018101544210801590611b9f5750805415155b15611bac575490506109bd565b505f9392505050565b73ffffffffffffffffffffffffffffffffffffffff81165f9081526002602052604081206001810154421015611bac575490506109bd565b5f610d2e611bf96106dd565b611c04906001613644565b611c0f5f600a6137ab565b7f52c63247e1f47db19d5ce0460030c497f067ca4cebf71ba98eeadabe20bace0254611c3b9190613644565b8591908561235f565b611c5183838360016123aa565b505050565b5f807ff0c57e16840df040f15088dc2f81fe391c3923bec73e23a9662efc9c229c6a006109bd565b611c86612514565b611c908282612552565b5050565b611c9c612514565b611ca5816125b5565b50565b611cb0612514565b611ca5816040518060400160405280600181526020017f3100000000000000000000000000000000000000000000000000000000000000815250612686565b73ffffffffffffffffffffffffffffffffffffffff8381165f9081527f52c63247e1f47db19d5ce0460030c497f067ca4cebf71ba98eeadabe20bace0160209081526040808320938616835292905220547fffffffffffffffffffffffffffffffffffffffffffffffffffffffffffffffff811015611dd65781811015611dc8576040517ffb8f41b200000000000000000000000000000000000000000000000000000000815273ffffffffffffffffffffffffffffffffffffffff841660048201526024810182905260448101839052606401610c40565b611dd684848484035f6123aa565b50505050565b73ffffffffffffffffffffffffffffffffffffffff8316611e2b576040517f96c6fd1e0000000000000000000000000000000000000000000000000000000081525f6004820152602401610c40565b73ffffffffffffffffffffffffffffffffffffffff8216611e7a576040517fec442f050000000000000000000000000000000000000000000000000000000081525f6004820152602401610c40565b611c518383836126f8565b5f807f0773e532dfede91f04b12a73d3d2acd361424f41f76b4fb79f090161e36b4e0090505f8154611ed2919074010000000000000000000000000000000000000000900460ff166137b9565b91505090565b5f6107aa612713565b7f000000000000000000000000000000000000000000000000000000000000000073ffffffffffffffffffffffffffffffffffffffff16635c975abb6040518163ffffffff1660e01b8152600401602060405180830381865afa158015611f4a573d5f803e3d5ffd5b505050506040513d601f19601f82011682018060405250810190611f6e91906137d2565b15611fa5576040517fd93c066500000000000000000000000000000000000000000000000000000000815260040160405180910390fd5b565b611ff0611fe87f0773e532dfede91f04b12a73d3d2acd361424f41f76b4fb79f090161e36b4e005473ffffffffffffffffffffffffffffffffffffffff1690565b853085612786565b611ffa83826127cc565b8273ffffffffffffffffffffffffffffffffffffffff168473ffffffffffffffffffffffffffffffffffffffff167fdcbc1c05240f31ff3ad067ef1ee35ce4997762752e3a095284754544f4c709d78484604051612062929190918252602082015260400190565b60405180910390a350505050565b5f807f5ab42ced628888259c08ac98db1eb0cf702fc1501344311d8b100cd1bfe4bb00610ecd565b7fa16a46d94261c7517cc8ff89f61c0ce93598e3c849801011dee649a6a557d10280546060917fa16a46d94261c7517cc8ff89f61c0ce93598e3c849801011dee649a6a557d100916109f9906135c6565b60605f7fa16a46d94261c7517cc8ff89f61c0ce93598e3c849801011dee649a6a557d1006109e8565b73ffffffffffffffffffffffffffffffffffffffff83165f908152600260205260408120818155600101556121473082612826565b61218f6121887f0773e532dfede91f04b12a73d3d2acd361424f41f76b4fb79f090161e36b4e005473ffffffffffffffffffffffffffffffffffffffff1690565b85846122de565b8273ffffffffffffffffffffffffffffffffffffffff168473ffffffffffffffffffffffffffffffffffffffff168673ffffffffffffffffffffffffffffffffffffffff167ffbde797d201c681b91056529119e0b02407c7bb96a4a2c75c01fc9667232c8db858560405161220e929190918252602082015260400190565b60405180910390a45050505050565b5f610d2e61222c82600a6137ab565b7f52c63247e1f47db19d5ce0460030c497f067ca4cebf71ba98eeadabe20bace02546122589190613644565b6122606106dd565b611c3b906001613644565b5f6109bd612277611ed8565b836040517f19010000000000000000000000000000000000000000000000000000000000008152600281019290925260228201526042902090565b5f805f806122c288888888612880565b9250925092506122d28282612973565b50909695505050505050565b60405173ffffffffffffffffffffffffffffffffffffffff838116602483015260448201839052611c5191859182169063a9059cbb906064015b604051602081830303815290604052915060e01b6020820180517bffffffffffffffffffffffffffffffffffffffffffffffffffffffff8381831617835250505050612a76565b5f61238c61236c83612b15565b801561238757505f8480612382576123826137ed565b868809115b151590565b612397868686612b41565b6123a19190613644565b95945050505050565b7f52c63247e1f47db19d5ce0460030c497f067ca4cebf71ba98eeadabe20bace0073ffffffffffffffffffffffffffffffffffffffff851661241a576040517fe602df050000000000000000000000000000000000000000000000000000000081525f6004820152602401610c40565b73ffffffffffffffffffffffffffffffffffffffff8416612469576040517f94280d620000000000000000000000000000000000000000000000000000000081525f6004820152602401610c40565b73ffffffffffffffffffffffffffffffffffffffff8086165f9081526001830160209081526040808320938816835292905220839055811561250d578373ffffffffffffffffffffffffffffffffffffffff168573ffffffffffffffffffffffffffffffffffffffff167f8c5be1e5ebec7d5bd14f71427d1e84f3dd0314c0f7b2291e5b200ac8c7c3b9258560405161250491815260200190565b60405180910390a35b5050505050565b61251c612bf1565b611fa5576040517fd7e6bcf800000000000000000000000000000000000000000000000000000000815260040160405180910390fd5b61255a612514565b7f52c63247e1f47db19d5ce0460030c497f067ca4cebf71ba98eeadabe20bace007f52c63247e1f47db19d5ce0460030c497f067ca4cebf71ba98eeadabe20bace036125a6848261385e565b5060048101611dd6838261385e565b6125bd612514565b7f0773e532dfede91f04b12a73d3d2acd361424f41f76b4fb79f090161e36b4e005f806125e984612c0f565b91509150816125f95760126125fb565b805b83547fffffffffffffffffffffff000000000000000000000000000000000000000000167401000000000000000000000000000000000000000060ff92909216919091027fffffffffffffffffffffffff0000000000000000000000000000000000000000161773ffffffffffffffffffffffffffffffffffffffff94909416939093179091555050565b61268e612514565b7fa16a46d94261c7517cc8ff89f61c0ce93598e3c849801011dee649a6a557d1007fa16a46d94261c7517cc8ff89f61c0ce93598e3c849801011dee649a6a557d1026126da848261385e565b50600381016126e9838261385e565b505f8082556001909101555050565b612700611ee1565b612708612d20565b611c51838383612e02565b5f7f8b73c3c69bb8fe3d512ecc4cf759cc79239f7b179b0ffacaa9a75d522b39400f61273d612fc1565b61274561303c565b60408051602081019490945283019190915260608201524660808201523060a082015260c00160405160208183030381529060405280519060200120905090565b60405173ffffffffffffffffffffffffffffffffffffffff8481166024830152838116604483015260648201839052611dd69186918216906323b872dd90608401612318565b73ffffffffffffffffffffffffffffffffffffffff821661281b576040517fec442f050000000000000000000000000000000000000000000000000000000081525f6004820152602401610c40565b611c905f83836126f8565b73ffffffffffffffffffffffffffffffffffffffff8216612875576040517f96c6fd1e0000000000000000000000000000000000000000000000000000000081525f6004820152602401610c40565b611c90825f836126f8565b5f80807f7fffffffffffffffffffffffffffffff5d576e7357a4501ddfe92f46681b20a08411156128b957505f91506003905082612969565b604080515f808252602082018084528a905260ff891692820192909252606081018790526080810186905260019060a0016020604051602081039080840390855afa15801561290a573d5f803e3d5ffd5b50506040517fffffffffffffffffffffffffffffffffffffffffffffffffffffffffffffffe0015191505073ffffffffffffffffffffffffffffffffffffffff811661296057505f925060019150829050612969565b92505f91508190505b9450945094915050565b5f8260038111156129865761298661397a565b0361298f575050565b60018260038111156129a3576129a361397a565b036129da576040517ff645eedf00000000000000000000000000000000000000000000000000000000815260040160405180910390fd5b60028260038111156129ee576129ee61397a565b03612a28576040517ffce698f700000000000000000000000000000000000000000000000000000000815260048101829052602401610c40565b6003826003811115612a3c57612a3c61397a565b03611c90576040517fd78bce0c00000000000000000000000000000000000000000000000000000000815260048101829052602401610c40565b5f8060205f8451602086015f885af180612a95576040513d5f823e3d81fd5b50505f513d91508115612aac578060011415612ac6565b73ffffffffffffffffffffffffffffffffffffffff84163b155b15611dd6576040517f5274afe700000000000000000000000000000000000000000000000000000000815273ffffffffffffffffffffffffffffffffffffffff85166004820152602401610c40565b5f6002826003811115612b2a57612b2a61397a565b612b3491906139a7565b60ff166001149050919050565b5f805f612b4e8686613091565b91509150815f03612b7257838181612b6857612b686137ed565b0492505050610d2e565b818411612b8957612b8960038515026011186130cc565b5f848688095f868103871696879004966002600389028118808a02820302808a02820302808a02820302808a02820302808a02820302808a02909103029181900381900460010185841190960395909502919093039390930492909217029150509392505050565b5f612bfa611c56565b5468010000000000000000900460ff16919050565b60408051600481526024810182526020810180517bffffffffffffffffffffffffffffffffffffffffffffffffffffffff167f313ce5670000000000000000000000000000000000000000000000000000000017905290515f9182918291829173ffffffffffffffffffffffffffffffffffffffff871691612c90916139ed565b5f60405180830381855afa9150503d805f8114612cc8576040519150601f19603f3d011682016040523d82523d5f602084013e612ccd565b606091505b5091509150818015612ce157506020815110155b15612d14575f81806020019051810190612cfb91906135af565b905060ff8111612d12576001969095509350505050565b505b505f9485945092505050565b6040517fb20374800000000000000000000000000000000000000000000000000000000081523060048201527f000000000000000000000000000000000000000000000000000000000000000073ffffffffffffffffffffffffffffffffffffffff169063b203748090602401602060405180830381865afa158015612da8573d5f803e3d5ffd5b505050506040513d601f19601f82011682018060405250810190612dcc91906137d2565b611fa5576040517fc987100f00000000000000000000000000000000000000000000000000000000815260040160405180910390fd5b7f52c63247e1f47db19d5ce0460030c497f067ca4cebf71ba98eeadabe20bace0073ffffffffffffffffffffffffffffffffffffffff8416612e5c5781816002015f828254612e519190613644565b90915550612f0c9050565b73ffffffffffffffffffffffffffffffffffffffff84165f9081526020829052604090205482811015612ee1576040517fe450d38c00000000000000000000000000000000000000000000000000000000815273ffffffffffffffffffffffffffffffffffffffff861660048201526024810182905260448101849052606401610c40565b73ffffffffffffffffffffffffffffffffffffffff85165f9081526020839052604090209083900390555b73ffffffffffffffffffffffffffffffffffffffff8316612f37576002810180548390039055612f62565b73ffffffffffffffffffffffffffffffffffffffff83165f9081526020829052604090208054830190555b8273ffffffffffffffffffffffffffffffffffffffff168473ffffffffffffffffffffffffffffffffffffffff167fddf252ad1be2c89b69c2b068fc378daa952ba7f163c4a11628f55a4df523b3ef8460405161206291815260200190565b5f7fa16a46d94261c7517cc8ff89f61c0ce93598e3c849801011dee649a6a557d10081612fec612098565b80519091501561300457805160209091012092915050565b81548015613013579392505050565b7fc5d2460186f7233c927e7db2dcc703c0e500b653ca82273b7bfad8045d85a470935050505090565b5f7fa16a46d94261c7517cc8ff89f61c0ce93598e3c849801011dee649a6a557d100816130676120e9565b80519091501561307f57805160209091012092915050565b60018201548015613013579392505050565b5f807fffffffffffffffffffffffffffffffffffffffffffffffffffffffffffffffff83850993909202808410938190039390930393915050565b634e487b715f52806020526024601cfd5b5f602082840312156130ed575f80fd5b81357fffffffff0000000000000000000000000000000000000000000000000000000081168114610d2e575f80fd5b5f5b8381101561313657818101518382015260200161311e565b50505f910152565b5f815180845261315581602086016020860161311c565b601f017fffffffffffffffffffffffffffffffffffffffffffffffffffffffffffffffe0169290920160200192915050565b602081525f610d2e602083018461313e565b5f602082840312156131a9575f80fd5b5035919050565b73ffffffffffffffffffffffffffffffffffffffff81168114611ca5575f80fd5b5f80604083850312156131e2575f80fd5b82356131ed816131b0565b946020939093013593505050565b7f4e487b71000000000000000000000000000000000000000000000000000000005f52604160045260245ffd5b5f82601f830112613237575f80fd5b813567ffffffffffffffff80821115613252576132526131fb565b604051601f83017fffffffffffffffffffffffffffffffffffffffffffffffffffffffffffffffe0908116603f01168101908282118183101715613298576132986131fb565b816040528381528660208588010111156132b0575f80fd5b836020870160208301375f602085830101528094505050505092915050565b5f805f80608085870312156132e2575f80fd5b84356132ed816131b0565b935060208501356132fd816131b0565b9250604085013567ffffffffffffffff80821115613319575f80fd5b61332588838901613228565b9350606087013591508082111561333a575f80fd5b5061334787828801613228565b91505092959194509250565b5f805f60608486031215613365575f80fd5b8335613370816131b0565b92506020840135613380816131b0565b929592945050506040919091013590565b5f602082840312156133a1575f80fd5b8135610d2e816131b0565b8015158114611ca5575f80fd5b5f80604083850312156133ca575f80fd5b82356133d5816131b0565b915060208301356133e5816133ac565b809150509250929050565b5f8060408385031215613401575f80fd5b8235915060208301356133e5816131b0565b5f805f60608486031215613425575f80fd5b833592506020840135613437816131b0565b91506040840135613447816131b0565b809150509250925092565b7fff00000000000000000000000000000000000000000000000000000000000000881681525f602060e0602084015261348e60e084018a61313e565b83810360408501526134a0818a61313e565b6060850189905273ffffffffffffffffffffffffffffffffffffffff8816608086015260a0850187905284810360c0860152855180825260208088019350909101905f5b81811015613500578351835292840192918401916001016134e4565b50909c9b505050505050505050505050565b5f8060408385031215613523575f80fd5b823561352e816131b0565b915060208301356133e5816131b0565b5f805f805f805f60e0888a031215613554575f80fd5b873561355f816131b0565b9650602088013561356f816131b0565b95506040880135945060608801359350608088013560ff81168114613592575f80fd5b9699959850939692959460a0840135945060c09093013592915050565b5f602082840312156135bf575f80fd5b5051919050565b600181811c908216806135da57607f821691505b602082108103613611577f4e487b71000000000000000000000000000000000000000000000000000000005f52602260045260245ffd5b50919050565b7f4e487b71000000000000000000000000000000000000000000000000000000005f52601160045260245ffd5b808201808211156109bd576109bd613617565b5f60208284031215613667575f80fd5b815163ffffffff81168114610d2e575f80fd5b818103818111156109bd576109bd613617565b600181815b808511156136e657817fffffffffffffffffffffffffffffffffffffffffffffffffffffffffffffffff048211156136cc576136cc613617565b808516156136d957918102915b93841c9390800290613692565b509250929050565b5f826136fc575060016109bd565b8161370857505f6109bd565b816001811461371e576002811461372857613744565b60019150506109bd565b60ff84111561373957613739613617565b50506001821b6109bd565b5060208310610133831016604e8410600b8410161715613767575081810a6109bd565b613771838361368d565b807fffffffffffffffffffffffffffffffffffffffffffffffffffffffffffffffff048211156137a3576137a3613617565b029392505050565b5f610d2e60ff8416836136ee565b60ff81811683821601908111156109bd576109bd613617565b5f602082840312156137e2575f80fd5b8151610d2e816133ac565b7f4e487b71000000000000000000000000000000000000000000000000000000005f52601260045260245ffd5b601f821115611c5157805f5260205f20601f840160051c8101602085101561383f5750805b601f840160051c820191505b8181101561250d575f815560010161384b565b815167ffffffffffffffff811115613878576138786131fb565b61388c8161388684546135c6565b8461381a565b602080601f8311600181146138de575f84156138a85750858301515b7fffffffffffffffffffffffffffffffffffffffffffffffffffffffffffffffff600386901b1c1916600185901b178555613972565b5f858152602081207fffffffffffffffffffffffffffffffffffffffffffffffffffffffffffffffe08616915b8281101561392a5788860151825594840194600190910190840161390b565b508582101561396657878501517fffffffffffffffffffffffffffffffffffffffffffffffffffffffffffffffff600388901b60f8161c191681555b505060018460011b0185555b505050505050565b7f4e487b71000000000000000000000000000000000000000000000000000000005f52602160045260245ffd5b5f60ff8316806139de577f4e487b71000000000000000000000000000000000000000000000000000000005f52601260045260245ffd5b8060ff84160691505092915050565b5f82516139fe81846020870161311c565b919091019291505056fea2646970667358221220d90b5bebb56943cc15e79215bcd8f4daf8ac729102accce79f2ea814e7aa62c064736f6c63430008160033","linkReferences":{}},"methodIdentifiers":{"DOMAIN_SEPARATOR()":"3644e515","REGISTRY()":"06433b1b","ROUTER()":"32fe7b26","allowance(address,address)":"dd62ed3e","approve(address,uint256)":"095ea7b3","asset()":"38d52e0f","balanceOf(address)":"70a08231","claimableRedeemRequest(uint256,address)":"eaed1d07","convertToAssets(uint256)":"07a2d13a","convertToShares(uint256)":"c6e6f592","decimals()":"313ce567","delegated()":"cf8db862","deposit(uint256,address)":"6e553f65","eip712Domain()":"84b0196e","initialize(address,address,string,string)":"2016a0d2","isOperator(address,address)":"b6363cf2","lockSlashing(uint256)":"dff81f7d","maxDeposit(address)":"402d267d","maxMint(address)":"c63d75b6","maxRedeem(address)":"d905777e","maxWithdraw(address)":"ce96cb77","mint(uint256,address)":"94bf804d","name()":"06fdde03","nonces(address)":"7ecebe00","pendingRedeemRequest(uint256,address)":"f5a23d8d","permit(address,address,uint256,uint256,uint8,bytes32,bytes32)":"d505accf","previewDeposit(uint256)":"ef8b30f7","previewMint(uint256)":"b3d7f6b9","previewRedeem(uint256)":"4cdad506","previewWithdraw(uint256)":"0a28a477","redeem(uint256,address,address)":"ba087652","requestRedeem(uint256,address,address)":"7d41c86e","setOperator(address,bool)":"558a7297","supportsInterface(bytes4)":"01ffc9a7","symbol()":"95d89b41","totalActiveStaked()":"e49d1232","totalAssets()":"01e1d114","totalSupply()":"18160ddd","transfer(address,uint256)":"a9059cbb","transferFrom(address,address,uint256)":"23b872dd","withdraw(uint256,address,address)":"b460af94"},"id":93}