{
  "abi": [
    {
      "type": "constructor",
      "inputs": [
        {
          "name": "router_",
          "type": "address",
          "internalType": "contract ISLAYRouterV2"
        }
      ],
      "stateMutability": "nonpayable"
    },
    {
      "type": "function",
      "name": "ROUTER",
      "inputs": [],
      "outputs": [
        {
          "name": "",
          "type": "address",
          "internalType": "contract ISLAYRouterV2"
        }
      ],
      "stateMutability": "view"
    },
    {
      "type": "function",
      "name": "UPGRADE_INTERFACE_VERSION",
      "inputs": [],
      "outputs": [
        {
          "name": "",
          "type": "string",
          "internalType": "string"
        }
      ],
      "stateMutability": "view"
    },
    {
      "type": "function",
      "name": "acceptOwnership",
      "inputs": [],
      "outputs": [],
      "stateMutability": "nonpayable"
    },
    {
      "type": "function",
      "name": "approveSlashingFor",
      "inputs": [
        {
          "name": "service",
          "type": "address",
          "internalType": "address"
        }
      ],
      "outputs": [],
      "stateMutability": "nonpayable"
    },
    {
      "type": "function",
      "name": "defaultWithdrawalDelay",
      "inputs": [],
      "outputs": [
        {
          "name": "",
          "type": "uint32",
          "internalType": "uint32"
        }
      ],
      "stateMutability": "view"
    },
    {
      "type": "function",
      "name": "deregisterOperatorFromService",
      "inputs": [
        {
          "name": "operator",
          "type": "address",
          "internalType": "address"
        }
      ],
      "outputs": [],
      "stateMutability": "nonpayable"
    },
    {
      "type": "function",
      "name": "deregisterServiceFromOperator",
      "inputs": [
        {
          "name": "service",
          "type": "address",
          "internalType": "address"
        }
      ],
      "outputs": [],
      "stateMutability": "nonpayable"
    },
    {
      "type": "function",
      "name": "disableSlashing",
      "inputs": [],
      "outputs": [],
      "stateMutability": "nonpayable"
    },
    {
      "type": "function",
      "name": "enableSlashing",
      "inputs": [
        {
          "name": "parameter",
          "type": "tuple",
          "internalType": "struct ISLAYRegistryV2.SlashParameter",
          "components": [
            {
              "name": "destination",
              "type": "address",
              "internalType": "address"
            },
            {
              "name": "maxMbips",
              "type": "uint24",
              "internalType": "uint24"
            },
            {
              "name": "resolutionWindow",
              "type": "uint32",
              "internalType": "uint32"
            }
          ]
        }
      ],
      "outputs": [],
      "stateMutability": "nonpayable"
    },
    {
      "type": "function",
      "name": "getActiveOperatorCount",
      "inputs": [
        {
          "name": "service",
          "type": "address",
          "internalType": "address"
        }
      ],
      "outputs": [
        {
          "name": "",
          "type": "uint256",
          "internalType": "uint256"
        }
      ],
      "stateMutability": "view"
    },
    {
      "type": "function",
      "name": "getActiveServiceCount",
      "inputs": [
        {
          "name": "operator",
          "type": "address",
          "internalType": "address"
        }
      ],
      "outputs": [
        {
          "name": "",
          "type": "uint256",
          "internalType": "uint256"
        }
      ],
      "stateMutability": "view"
    },
    {
      "type": "function",
      "name": "getMaxActiveRelationshipsForOperator",
      "inputs": [],
      "outputs": [
        {
          "name": "",
          "type": "uint8",
          "internalType": "uint8"
        }
      ],
      "stateMutability": "view"
    },
    {
      "type": "function",
      "name": "getMaxActiveRelationshipsForService",
      "inputs": [],
      "outputs": [
        {
          "name": "",
          "type": "uint8",
          "internalType": "uint8"
        }
      ],
      "stateMutability": "view"
    },
    {
      "type": "function",
      "name": "getMinWithdrawalDelay",
      "inputs": [
        {
          "name": "service",
          "type": "address",
          "internalType": "address"
        }
      ],
      "outputs": [
        {
          "name": "",
          "type": "uint32",
          "internalType": "uint32"
        }
      ],
      "stateMutability": "view"
    },
    {
      "type": "function",
      "name": "getRelationshipStatus",
      "inputs": [
        {
          "name": "service",
          "type": "address",
          "internalType": "address"
        },
        {
          "name": "operator",
          "type": "address",
          "internalType": "address"
        }
      ],
      "outputs": [
        {
          "name": "",
          "type": "uint8",
          "internalType": "enum RelationshipV2.Status"
        }
      ],
      "stateMutability": "view"
    },
    {
      "type": "function",
      "name": "getRelationshipStatusAt",
      "inputs": [
        {
          "name": "service",
          "type": "address",
          "internalType": "address"
        },
        {
          "name": "operator",
          "type": "address",
          "internalType": "address"
        },
        {
          "name": "timestamp",
          "type": "uint32",
          "internalType": "uint32"
        }
      ],
      "outputs": [
        {
          "name": "",
          "type": "uint8",
          "internalType": "enum RelationshipV2.Status"
        }
      ],
      "stateMutability": "view"
    },
    {
      "type": "function",
      "name": "getSlashParameter",
      "inputs": [
        {
          "name": "service",
          "type": "address",
          "internalType": "address"
        }
      ],
      "outputs": [
        {
          "name": "",
          "type": "tuple",
          "internalType": "struct ISLAYRegistryV2.SlashParameter",
          "components": [
            {
              "name": "destination",
              "type": "address",
              "internalType": "address"
            },
            {
              "name": "maxMbips",
              "type": "uint24",
              "internalType": "uint24"
            },
            {
              "name": "resolutionWindow",
              "type": "uint32",
              "internalType": "uint32"
            }
          ]
        }
      ],
      "stateMutability": "view"
    },
    {
      "type": "function",
      "name": "getSlashParameterAt",
      "inputs": [
        {
          "name": "service",
          "type": "address",
          "internalType": "address"
        },
        {
          "name": "operator",
          "type": "address",
          "internalType": "address"
        },
        {
          "name": "timestamp",
          "type": "uint32",
          "internalType": "uint32"
        }
      ],
      "outputs": [
        {
          "name": "",
          "type": "tuple",
          "internalType": "struct ISLAYRegistryV2.SlashParameter",
          "components": [
            {
              "name": "destination",
              "type": "address",
              "internalType": "address"
            },
            {
              "name": "maxMbips",
              "type": "uint24",
              "internalType": "uint24"
            },
            {
              "name": "resolutionWindow",
              "type": "uint32",
              "internalType": "uint32"
            }
          ]
        }
      ],
      "stateMutability": "view"
    },
    {
      "type": "function",
      "name": "getWithdrawalDelay",
      "inputs": [
        {
          "name": "operator",
          "type": "address",
          "internalType": "address"
        }
      ],
      "outputs": [
        {
          "name": "",
          "type": "uint32",
          "internalType": "uint32"
        }
      ],
      "stateMutability": "view"
    },
    {
      "type": "function",
      "name": "initialize",
      "inputs": [
        {
          "name": "initialOwner",
          "type": "address",
          "internalType": "address"
        }
      ],
      "outputs": [],
      "stateMutability": "nonpayable"
    },
    {
      "type": "function",
      "name": "initialize2",
      "inputs": [],
      "outputs": [],
      "stateMutability": "nonpayable"
    },
    {
      "type": "function",
      "name": "isOperator",
      "inputs": [
        {
          "name": "account",
          "type": "address",
          "internalType": "address"
        }
      ],
      "outputs": [
        {
          "name": "",
          "type": "bool",
          "internalType": "bool"
        }
      ],
      "stateMutability": "view"
    },
    {
      "type": "function",
      "name": "isService",
      "inputs": [
        {
          "name": "account",
          "type": "address",
          "internalType": "address"
        }
      ],
      "outputs": [
        {
          "name": "",
          "type": "bool",
          "internalType": "bool"
        }
      ],
      "stateMutability": "view"
    },
    {
      "type": "function",
      "name": "owner",
      "inputs": [],
      "outputs": [
        {
          "name": "",
          "type": "address",
          "internalType": "address"
        }
      ],
      "stateMutability": "view"
    },
    {
      "type": "function",
      "name": "pause",
      "inputs": [],
      "outputs": [],
      "stateMutability": "nonpayable"
    },
    {
      "type": "function",
      "name": "paused",
      "inputs": [],
      "outputs": [
        {
          "name": "",
          "type": "bool",
          "internalType": "bool"
        }
      ],
      "stateMutability": "view"
    },
    {
      "type": "function",
      "name": "pendingOwner",
      "inputs": [],
      "outputs": [
        {
          "name": "",
          "type": "address",
          "internalType": "address"
        }
      ],
      "stateMutability": "view"
    },
    {
      "type": "function",
      "name": "proxiableUUID",
      "inputs": [],
      "outputs": [
        {
          "name": "",
          "type": "bytes32",
          "internalType": "bytes32"
        }
      ],
      "stateMutability": "view"
    },
    {
      "type": "function",
      "name": "registerAsOperator",
      "inputs": [
        {
          "name": "uri",
          "type": "string",
          "internalType": "string"
        },
        {
          "name": "name",
          "type": "string",
          "internalType": "string"
        }
      ],
      "outputs": [],
      "stateMutability": "nonpayable"
    },
    {
      "type": "function",
      "name": "registerAsService",
      "inputs": [
        {
          "name": "uri",
          "type": "string",
          "internalType": "string"
        },
        {
          "name": "name",
          "type": "string",
          "internalType": "string"
        }
      ],
      "outputs": [],
      "stateMutability": "nonpayable"
    },
    {
      "type": "function",
      "name": "registerOperatorToService",
      "inputs": [
        {
          "name": "operator",
          "type": "address",
          "internalType": "address"
        }
      ],
      "outputs": [],
      "stateMutability": "nonpayable"
    },
    {
      "type": "function",
      "name": "registerServiceToOperator",
      "inputs": [
        {
          "name": "service",
          "type": "address",
          "internalType": "address"
        }
      ],
      "outputs": [],
      "stateMutability": "nonpayable"
    },
    {
      "type": "function",
      "name": "renounceOwnership",
      "inputs": [],
      "outputs": [],
      "stateMutability": "nonpayable"
    },
    {
      "type": "function",
      "name": "setDefaultWithdrawalDelay",
      "inputs": [
        {
          "name": "delay",
          "type": "uint32",
          "internalType": "uint32"
        }
      ],
      "outputs": [],
      "stateMutability": "nonpayable"
    },
    {
      "type": "function",
      "name": "setMaxActiveRelationshipsForOperator",
      "inputs": [
        {
          "name": "max",
          "type": "uint8",
          "internalType": "uint8"
        }
      ],
      "outputs": [],
      "stateMutability": "nonpayable"
    },
    {
      "type": "function",
      "name": "setMaxActiveRelationshipsForService",
      "inputs": [
        {
          "name": "max",
          "type": "uint8",
          "internalType": "uint8"
        }
      ],
      "outputs": [],
      "stateMutability": "nonpayable"
    },
    {
      "type": "function",
      "name": "setMinWithdrawalDelay",
      "inputs": [
        {
          "name": "delay",
          "type": "uint32",
          "internalType": "uint32"
        }
      ],
      "outputs": [],
      "stateMutability": "nonpayable"
    },
    {
      "type": "function",
      "name": "setWithdrawalDelay",
      "inputs": [
        {
          "name": "delay",
          "type": "uint32",
          "internalType": "uint32"
        }
      ],
      "outputs": [],
      "stateMutability": "nonpayable"
    },
    {
      "type": "function",
      "name": "transferOwnership",
      "inputs": [
        {
          "name": "newOwner",
          "type": "address",
          "internalType": "address"
        }
      ],
      "outputs": [],
      "stateMutability": "nonpayable"
    },
    {
      "type": "function",
      "name": "unpause",
      "inputs": [],
      "outputs": [],
      "stateMutability": "nonpayable"
    },
    {
      "type": "function",
      "name": "updateMetadata",
      "inputs": [
        {
          "name": "uri",
          "type": "string",
          "internalType": "string"
        },
        {
          "name": "name",
          "type": "string",
          "internalType": "string"
        }
      ],
      "outputs": [],
      "stateMutability": "nonpayable"
    },
    {
      "type": "function",
      "name": "upgradeToAndCall",
      "inputs": [
        {
          "name": "newImplementation",
          "type": "address",
          "internalType": "address"
        },
        {
          "name": "data",
          "type": "bytes",
          "internalType": "bytes"
        }
      ],
      "outputs": [],
      "stateMutability": "payable"
    },
    {
      "type": "event",
      "name": "DefaultWithdrawalDelayUpdated",
      "inputs": [
        {
          "name": "oldDelay",
          "type": "uint32",
          "indexed": false,
          "internalType": "uint32"
        },
        {
          "name": "newDelay",
          "type": "uint32",
          "indexed": false,
          "internalType": "uint32"
        }
      ],
      "anonymous": false
    },
    {
      "type": "event",
      "name": "Initialized",
      "inputs": [
        {
          "name": "version",
          "type": "uint64",
          "indexed": false,
          "internalType": "uint64"
        }
      ],
      "anonymous": false
    },
    {
      "type": "event",
      "name": "MaxActiveRelationshipsForOperatorUpdated",
      "inputs": [
        {
          "name": "oldMaxActive",
          "type": "uint8",
          "indexed": false,
          "internalType": "uint8"
        },
        {
          "name": "maxActive",
          "type": "uint8",
          "indexed": false,
          "internalType": "uint8"
        }
      ],
      "anonymous": false
    },
    {
      "type": "event",
      "name": "MaxActiveRelationshipsForServiceUpdated",
      "inputs": [
        {
          "name": "oldMaxActive",
          "type": "uint8",
          "indexed": false,
          "internalType": "uint8"
        },
        {
          "name": "maxActive",
          "type": "uint8",
          "indexed": false,
          "internalType": "uint8"
        }
      ],
      "anonymous": false
    },
    {
      "type": "event",
      "name": "MetadataUpdated",
      "inputs": [
        {
          "name": "provider",
          "type": "address",
          "indexed": true,
          "internalType": "address"
        },
        {
          "name": "uri",
          "type": "string",
          "indexed": false,
          "internalType": "string"
        },
        {
          "name": "name",
          "type": "string",
          "indexed": false,
          "internalType": "string"
        }
      ],
      "anonymous": false
    },
    {
      "type": "event",
      "name": "MinWithdrawalDelayUpdated",
      "inputs": [
        {
          "name": "service",
          "type": "address",
          "indexed": true,
          "internalType": "address"
        },
        {
          "name": "delay",
          "type": "uint32",
          "indexed": false,
          "internalType": "uint32"
        }
      ],
      "anonymous": false
    },
    {
      "type": "event",
      "name": "OperatorRegistered",
      "inputs": [
        {
          "name": "operator",
          "type": "address",
          "indexed": true,
          "internalType": "address"
        }
      ],
      "anonymous": false
    },
    {
      "type": "event",
      "name": "OwnershipTransferStarted",
      "inputs": [
        {
          "name": "previousOwner",
          "type": "address",
          "indexed": true,
          "internalType": "address"
        },
        {
          "name": "newOwner",
          "type": "address",
          "indexed": true,
          "internalType": "address"
        }
      ],
      "anonymous": false
    },
    {
      "type": "event",
      "name": "OwnershipTransferred",
      "inputs": [
        {
          "name": "previousOwner",
          "type": "address",
          "indexed": true,
          "internalType": "address"
        },
        {
          "name": "newOwner",
          "type": "address",
          "indexed": true,
          "internalType": "address"
        }
      ],
      "anonymous": false
    },
    {
      "type": "event",
      "name": "Paused",
      "inputs": [
        {
          "name": "account",
          "type": "address",
          "indexed": false,
          "internalType": "address"
        }
      ],
      "anonymous": false
    },
    {
      "type": "event",
      "name": "RelationshipUpdated",
      "inputs": [
        {
          "name": "service",
          "type": "address",
          "indexed": true,
          "internalType": "address"
        },
        {
          "name": "operator",
          "type": "address",
          "indexed": true,
          "internalType": "address"
        },
        {
          "name": "status",
          "type": "uint8",
          "indexed": false,
          "internalType": "enum RelationshipV2.Status"
        },
        {
          "name": "slashParameterId",
          "type": "uint32",
          "indexed": false,
          "internalType": "uint32"
        }
      ],
      "anonymous": false
    },
    {
      "type": "event",
      "name": "ServiceRegistered",
      "inputs": [
        {
          "name": "service",
          "type": "address",
          "indexed": true,
          "internalType": "address"
        }
      ],
      "anonymous": false
    },
    {
      "type": "event",
      "name": "SlashParameterUpdated",
      "inputs": [
        {
          "name": "service",
          "type": "address",
          "indexed": true,
          "internalType": "address"
        },
        {
          "name": "destination",
          "type": "address",
          "indexed": false,
          "internalType": "address"
        },
        {
          "name": "maxMbips",
          "type": "uint24",
          "indexed": false,
          "internalType": "uint24"
        },
        {
          "name": "resolutionWindow",
          "type": "uint32",
          "indexed": false,
          "internalType": "uint32"
        }
      ],
      "anonymous": false
    },
    {
      "type": "event",
      "name": "Unpaused",
      "inputs": [
        {
          "name": "account",
          "type": "address",
          "indexed": false,
          "internalType": "address"
        }
      ],
      "anonymous": false
    },
    {
      "type": "event",
      "name": "Upgraded",
      "inputs": [
        {
          "name": "implementation",
          "type": "address",
          "indexed": true,
          "internalType": "address"
        }
      ],
      "anonymous": false
    },
    {
      "type": "event",
      "name": "WithdrawalDelayUpdated",
      "inputs": [
        {
          "name": "operator",
          "type": "address",
          "indexed": true,
          "internalType": "address"
        },
        {
          "name": "delay",
          "type": "uint32",
          "indexed": false,
          "internalType": "uint32"
        }
      ],
      "anonymous": false
    },
    {
      "type": "error",
      "name": "AddressEmptyCode",
      "inputs": [
        {
          "name": "target",
          "type": "address",
          "internalType": "address"
        }
      ]
    },
    {
      "type": "error",
      "name": "CheckpointUnorderedInsertion",
      "inputs": []
    },
    {
      "type": "error",
      "name": "ERC1967InvalidImplementation",
      "inputs": [
        {
          "name": "implementation",
          "type": "address",
          "internalType": "address"
        }
      ]
    },
    {
      "type": "error",
      "name": "ERC1967NonPayable",
      "inputs": []
    },
    {
      "type": "error",
      "name": "EnforcedPause",
      "inputs": []
    },
    {
      "type": "error",
      "name": "ExpectedPause",
      "inputs": []
    },
    {
      "type": "error",
      "name": "FailedCall",
      "inputs": []
    },
    {
      "type": "error",
      "name": "InvalidInitialization",
      "inputs": []
    },
    {
      "type": "error",
      "name": "NotInitializing",
      "inputs": []
    },
    {
      "type": "error",
      "name": "OperatorNotFound",
      "inputs": [
        {
          "name": "account",
          "type": "address",
          "internalType": "address"
        }
      ]
    },
    {
      "type": "error",
      "name": "OperatorRelationshipsExceeded",
      "inputs": []
    },
    {
      "type": "error",
      "name": "OwnableInvalidOwner",
      "inputs": [
        {
          "name": "owner",
          "type": "address",
          "internalType": "address"
        }
      ]
    },
    {
      "type": "error",
      "name": "OwnableUnauthorizedAccount",
      "inputs": [
        {
          "name": "account",
          "type": "address",
          "internalType": "address"
        }
      ]
    },
    {
      "type": "error",
      "name": "ServiceNotFound",
      "inputs": [
        {
          "name": "account",
          "type": "address",
          "internalType": "address"
        }
      ]
    },
    {
      "type": "error",
      "name": "ServiceRelationshipsExceeded",
      "inputs": []
    },
    {
      "type": "error",
      "name": "UUPSUnauthorizedCallContext",
      "inputs": []
    },
    {
      "type": "error",
      "name": "UUPSUnsupportedProxiableUUID",
      "inputs": [
        {
          "name": "slot",
          "type": "bytes32",
          "internalType": "bytes32"
        }
      ]
    },
    {
      "type": "error",
      "name": "WithdrawalDelayIncompatible",
      "inputs": [
        {
          "name": "service",
          "type": "address",
          "internalType": "address"
        },
        {
          "name": "operator",
          "type": "address",
          "internalType": "address"
        },
        {
          "name": "withdrawalDelay",
          "type": "uint32",
          "internalType": "uint32"
        },
        {
          "name": "minWithdrawalDelay",
          "type": "uint32",
          "internalType": "uint32"
        }
      ]
    }
  ],
  "bytecode": {
    "object": "0x60c06040523060805234801562000014575f80fd5b506040516200370038038062003700833981016040819052620000379162000113565b620000416200005f565b6001600160a01b03811660a052620000586200005f565b5062000142565b7ff0c57e16840df040f15088dc2f81fe391c3923bec73e23a9662efc9c229c6a00805468010000000000000000900460ff1615620000b05760405163f92ee8a960e01b815260040160405180910390fd5b80546001600160401b0390811614620001105780546001600160401b0319166001600160401b0390811782556040519081527fc7f505b2f371ae2175ee4913f4499e1f2633a7b5936321eed1cdaeb6115181d29060200160405180910390a15b50565b5f6020828403121562000124575f80fd5b81516001600160a01b03811681146200013b575f80fd5b9392505050565b60805160a05161358e620001725f395f61027f01525f818161225f0152818161228801526123cc015261358e5ff3fe608060405260043610610249575f3560e01c80638e61af1211610134578063ca41e40c116100b3578063dcef440311610078578063dcef440314610773578063ddcf017d14610792578063e30c3978146107ae578063e9d8dbfd146107c2578063f2fde38b146107f9578063fd864e5e14610818575f80fd5b8063ca41e40c146106a9578063d12a833c146106c8578063d1b9d6e2146106e7578063d2cad27114610713578063dcc4605c14610754575f80fd5b8063b1ad5743116100f9578063b1ad5743146105d9578063b1e50829146105f8578063bcac0a021461064c578063be7327211461066b578063c4d66de81461068a575f80fd5b80638e61af121461052057806397c459c41461053f5780639e2d5ce81461055e578063ab06f67e1461057d578063ad3cb1cc1461059c575f80fd5b80635c975abb116101cb57806379ba50971161019057806379ba50971461049257806381d18842146104a6578063832025f9146104c55780638456cb59146104d9578063891a081f146104ed5780638da5cb5b1461050c575f80fd5b80635c975abb146103cd578063621e0299146103fc5780636d70f7ae14610428578063715018a61461045f5780637218c6a714610473575f80fd5b80634ad88989116102115780634ad889891461033b5780634f1ef2861461035a57806352d1902d1461036d57806356ce0e6c1461038f57806358715e3b146103ae575f80fd5b80630793ae7b1461024d57806332fe7b261461026e5780633f4ba83a146102be578063472abf68146102d257806348694118146102e6575b5f80fd5b348015610258575f80fd5b5061026c610267366004612f6b565b610836565b005b348015610279575f80fd5b506102a17f000000000000000000000000000000000000000000000000000000000000000081565b6040516001600160a01b0390911681526020015b60405180910390f35b3480156102c9575f80fd5b5061026c610ac4565b3480156102dd575f80fd5b5061026c610ad6565b3480156102f1575f80fd5b50610305610300366004612f95565b610bb1565b6040805182516001600160a01b0316815260208084015162ffffff16908201529181015163ffffffff16908201526060016102b5565b348015610346575f80fd5b5061026c610355366004612fc1565b610c9d565b61026c610368366004612ff0565b610eb2565b348015610378575f80fd5b50610381610ed1565b6040519081526020016102b5565b34801561039a575f80fd5b5061026c6103a93660046130f3565b610eec565b3480156103b9575f80fd5b5061026c6103c8366004612fc1565b610fa4565b3480156103d8575f80fd5b505f805160206135398339815191525460ff165b60405190151581526020016102b5565b348015610407575f80fd5b5061041b61041636600461315a565b6111ed565b6040516102b591906131c5565b348015610433575f80fd5b506103ec610442366004612f95565b6001600160a01b03165f9081526001602052604090205460ff1690565b34801561046a575f80fd5b5061026c611204565b34801561047e575f80fd5b5061026c61048d366004612f95565b611215565b34801561049d575f80fd5b5061026c611356565b3480156104b1575f80fd5b5061026c6104c03660046131d3565b61139e565b3480156104d0575f80fd5b5061026c611451565b3480156104e4575f80fd5b5061026c6114f3565b3480156104f8575f80fd5b5061026c6105073660046130f3565b611503565b348015610517575f80fd5b506102a161160e565b34801561052b575f80fd5b5061026c61053a366004612f95565b611642565b34801561054a575f80fd5b506103056105593660046131f3565b611753565b348015610569575f80fd5b5061026c6105783660046131d3565b61183d565b348015610588575f80fd5b50610381610597366004612f95565b6118f1565b3480156105a7575f80fd5b506105cc604051806040016040528060058152602001640352e302e360dc1b81525081565b6040516102b5919061325d565b3480156105e4575f80fd5b5061041b6105f33660046131f3565b611911565b348015610603575f80fd5b50610637610612366004612f95565b6001600160a01b03165f90815260016020526040902054610100900463ffffffff1690565b60405163ffffffff90911681526020016102b5565b348015610657575f80fd5b5061026c610666366004612f95565b611928565b348015610676575f80fd5b50610381610685366004612f95565b611b19565b348015610695575f80fd5b5061026c6106a4366004612f95565b611b39565b3480156106b4575f80fd5b5061026c6106c3366004612f95565b611c4a565b3480156106d3575f80fd5b5061026c6106e23660046130f3565b611dfd565b3480156106f2575f80fd5b50600654600160201b900460ff165b60405160ff90911681526020016102b5565b34801561071e575f80fd5b5061063761072d366004612f95565b6001600160a01b03165f90815260208190526040902054600160281b900463ffffffff1690565b34801561075f575f80fd5b5061026c61076e366004612fc1565b611ed7565b34801561077e575f80fd5b5061026c61078d366004612f95565b611fa7565b34801561079d575f80fd5b506006546106379063ffffffff1681565b3480156107b9575f80fd5b506102a16120aa565b3480156107cd575f80fd5b506103ec6107dc366004612f95565b6001600160a01b03165f9081526020819052604090205460ff1690565b348015610804575f80fd5b5061026c610813366004612f95565b6120d2565b348015610823575f80fd5b50600654600160281b900460ff16610701565b335f8181526020819052604090205460ff166108755760405163b536580760e01b81526001600160a01b03821660048201526024015b60405180910390fd5b61087d612157565b5f61088b6020840184612f95565b6001600160a01b0316036108d25760405162461bcd60e51b815260206004820152600e60248201526d064657374696e6174696f6e213d360941b604482015260640161086c565b629896806108e6604084016020850161329f565b62ffffff16111561092f5760405162461bcd60e51b815260206004820152601360248201527206d61784d62697073213d3e313030303030303606c1b604482015260640161086c565b5f610940604084016020850161329f565b62ffffff16116109805760405162461bcd60e51b815260206004820152600b60248201526a06d61784d62697073213d360ac1b604482015260640161086c565b60025463ffffffff8111156109c25760405162461bcd60e51b81526020600482015260086024820152674f766572666c6f7760c01b604482015260640161086c565b600280546001810182555f9190915283907f405787fa12a823e0f2b7631cc41b3ba8828b3321ca811111fa75cd3aa3bb5ace016109ff82826132ba565b50505f610a093390565b6001600160a01b0381165f81815260208181526040909120805464ffffffff00191661010063ffffffff8816021781559293507ff83560c52fae7525e369b176773b2388c82c3538dea009c1c5fca741d5d613a090610a6a90880188612f95565b610a7a6040890160208a0161329f565b610a8a60608a0160408b01612fc1565b604080516001600160a01b03909416845262ffffff909216602084015263ffffffff16908201526060015b60405180910390a25050505050565b610acc612187565b610ad46121b9565b565b60025f610ae1612218565b8054909150600160401b900460ff1680610b095750805467ffffffffffffffff808416911610155b15610b275760405163f92ee8a960e01b815260040160405180910390fd5b8054600160401b67ffffffffffffffff841668ffffffffffffffffff1990921682171782556002805460010181555f526006805465ffffffffffff191665050500093a80179055815460ff60401b191682556040519081527fc7f505b2f371ae2175ee4913f4499e1f2633a7b5936321eed1cdaeb6115181d2906020015b60405180910390a15050565b604080516060810182525f80825260208083018290528284018290526001600160a01b03851682528190529190912054610100900463ffffffff1680610c305760405162461bcd60e51b815260206004820152601460248201527314db185cda1a5b99c81b9bdd08195b98589b195960621b604482015260640161086c565b60028163ffffffff1681548110610c4957610c49613347565b5f9182526020918290206040805160608101825291909201546001600160a01b038116825262ffffff600160a01b8204169382019390935263ffffffff600160b81b90930492909216908201529392505050565b610ca5612157565b335f8181526020819052604090205460ff16610cdf5760405163b536580760e01b81526001600160a01b038216600482015260240161086c565b5f8263ffffffff1611610d345760405162461bcd60e51b815260206004820152601960248201527f44656c6179206d757374206265206d6f7265207468616e203000000000000000604482015260640161086c565b335f81815260056020526040812090610d4c82612240565b90505f5b81811015610e47578563ffffffff1660015f610d75848761224990919063ffffffff16565b6001600160a01b0316815260208101919091526040015f2054610100900463ffffffff161015610e3f5760405162461bcd60e51b815260206004820152606360248201527f536572766963652773206d696e696d756d207769746864726177616c2064656c60448201527f6179206d757374206265206c657373207468616e206f7220657175616c20746f60648201527f20616374697665206f70657261746f722773207769746864726177616c2064656084820152626c617960e81b60a482015260c40161086c565b600101610d50565b506001600160a01b0383165f8181526020818152604091829020805468ffffffff00000000001916600160281b63ffffffff8b169081029190911790915591519182527f12cae11e6575143dc91be041916646a29e4e9af609b96be54454d8ca825b16449101610ab5565b610eba612254565b610ec3826122f8565b610ecd8282612300565b5050565b5f610eda6123c1565b505f8051602061351983398151915290565b610ef4612157565b335f8181526020819052604090205460ff1680610f2857506001600160a01b0381165f9081526001602052604090205460ff165b610f655760405162461bcd60e51b815260206004820152600e60248201526d139bdd081c9959da5cdd195c995960921b604482015260640161086c565b806001600160a01b03167f6c1850fce35387a891e82ca88e975790ab6f0709e9ed6842e01397f296012a7e86868686604051610ab59493929190613383565b610fac612157565b335f8181526001602052604090205460ff16610fe65760405163a3a66a1760e01b81526001600160a01b038216600482015260240161086c565b60065463ffffffff90811690831610156110745760405162461bcd60e51b815260206004820152604360248201527f44656c6179206d757374206265206174206c65617374206d6f7265207468616e60448201527f206f7220657175616c20746f2064656661756c745769746864726177616c44656064820152626c617960e81b608482015260a40161086c565b335f8181526004602052604081209061108c82612240565b90505f5b81811015611186578563ffffffff165f806110b4848761224990919063ffffffff16565b6001600160a01b0316815260208101919091526040015f2054600160281b900463ffffffff16111561117e5760405162461bcd60e51b815260206004820152606160248201527f4f70657261746f72207769746864726177616c2064656c6179206d757374206260448201527f65206d6f7265207468616e206f7220657175616c20746f20616374697665207360648201527f6572766963652773206d696e696d756d207769746864726177616c2064656c616084820152607960f81b60a482015260c40161086c565b600101611090565b506001600160a01b0383165f81815260016020908152604091829020805464ffffffff00191661010063ffffffff8b169081029190911790915591519182527f8accf516e9dcf834aa25a580b9beb0b2444e5a35b3162fc21cfd49565bed0a4a9101610ab5565b5f806111f9848461240a565b519150505b92915050565b61120c612187565b610ad45f61244f565b335f8181526001602052604090205460ff1661124f5760405163a3a66a1760e01b81526001600160a01b038216600482015260240161086c565b611257612157565b335f611263848361240a565b905060018151600381111561127a5761127a613191565b146112c75760405162461bcd60e51b815260206004820152601760248201527f52656c6174696f6e73686970206e6f7420616374697665000000000000000000604482015260640161086c565b6001600160a01b0384165f90815260208181526040909120549082015163ffffffff6101009092048216911681036113385760405162461bcd60e51b815260206004820152601460248201527314db185cda1a5b99c81b9bdd081d5c19185d195960621b604482015260640161086c565b63ffffffff8116602083015261134f858484612487565b5050505050565b33806113606120aa565b6001600160a01b0316146113925760405163118cdaa760e01b81526001600160a01b038216600482015260240161086c565b61139b8161244f565b50565b6113a6612187565b5f8160ff16116113c85760405162461bcd60e51b815260040161086c906133b4565b60065460ff600160201b909104811690821681106113f85760405162461bcd60e51b815260040161086c90613403565b6006805464ff000000001916600160201b60ff8581169182029290921790925560408051918416825260208201929092527f9970a620521c7aa30265e01b9d490c9e9802074a8b9015fed1af3665bbc083aa9101610ba5565b335f8181526020819052604090205460ff1661148b5760405163b536580760e01b81526001600160a01b038216600482015260240161086c565b611493612157565b335f81815260208181526040808320805464ffffffff00191681558151848152928301849052828201939093525183917ff83560c52fae7525e369b176773b2388c82c3538dea009c1c5fca741d5d613a0919081900360600190a2505050565b6114fb612187565b610ad4612670565b61150b612157565b335f818152600160205260409020805460ff16156115605760405162461bcd60e51b8152602060048201526012602482015271105b1c9958591e481c9959da5cdd195c995960721b604482015260640161086c565b805460ff1981166001908117835560065463ffffffff166101000264ffffffffff19909216919091171781556040516001600160a01b038316907f4d0eb1f4bac8744fd2be119845e23b3befc88094b42bcda1204c65694a00f9e5905f90a2816001600160a01b03167f6c1850fce35387a891e82ca88e975790ab6f0709e9ed6842e01397f296012a7e878787876040516115fe9493929190613383565b60405180910390a2505050505050565b5f807f9016d09d72d40fdae2fd8ceac6b6234c7706214fd39c1cd1e609a0528c1993005b546001600160a01b031692915050565b335f8181526020819052604090205460ff1661167c5760405163b536580760e01b81526001600160a01b038216600482015260240161086c565b6001600160a01b0382165f90815260016020526040902054829060ff166116c15760405163a3a66a1760e01b81526001600160a01b038216600482015260240161086c565b335f6116cd828661240a565b90505f815160038111156116e3576116e3613191565b036117235760405162461bcd60e51b815260206004820152601060248201526f416c726561647920696e61637469766560801b604482015260640161086c565b61134f828660405180604001604052805f600381111561174557611745613191565b81525f602090910152612487565b604080516060810182525f808252602082018190529181018290529061177a8585856126b8565b6020015190505f8163ffffffff16116117cc5760405162461bcd60e51b815260206004820152601460248201527314db185cda1a5b99c81b9bdd08195b98589b195960621b604482015260640161086c565b60028163ffffffff16815481106117e5576117e5613347565b5f9182526020918290206040805160608101825291909201546001600160a01b038116825262ffffff600160a01b8204169382019390935263ffffffff600160b81b90930492909216908201529150505b9392505050565b611845612187565b5f8160ff16116118675760405162461bcd60e51b815260040161086c906133b4565b60065460ff600160281b909104811690821681106118975760405162461bcd60e51b815260040161086c90613403565b6006805465ff00000000001916600160281b60ff8581169182029290921790925560408051918416825260208201929092527f4e2399155205fd27a6de74fcaa614db3a3bc3edaf989234fb34032f0920f39cd9101610ba5565b6001600160a01b0381165f9081526005602052604081206111fe90612240565b5f8061191e8585856126b8565b5195945050505050565b335f8181526020819052604090205460ff166119625760405163b536580760e01b81526001600160a01b038216600482015260240161086c565b6001600160a01b0382165f90815260016020526040902054829060ff166119a75760405163a3a66a1760e01b81526001600160a01b038216600482015260240161086c565b335f6119b3828661240a565b90506001815160038111156119ca576119ca613191565b03611a085760405162461bcd60e51b815260206004820152600e60248201526d416c72656164792061637469766560901b604482015260640161086c565b600381516003811115611a1d57611a1d613191565b03611a5e5760405162461bcd60e51b8152602060048201526011602482015270105b1c9958591e481a5b9a5d1a585d1959607a1b604482015260640161086c565b5f81516003811115611a7257611a72613191565b03611a805760038152611b0e565b600281516003811115611a9557611a95613191565b03611ad557600181526001600160a01b0382165f9081526020818152604090912054610100900463ffffffff1690820152611ad082866126ff565b611b0e565b60405162461bcd60e51b815260206004820152600e60248201526d496e76616c69642073746174757360901b604482015260640161086c565b61134f828683612487565b6001600160a01b0381165f9081526004602052604081206111fe90612240565b5f611b42612218565b805490915060ff600160401b820416159067ffffffffffffffff165f81158015611b695750825b90505f8267ffffffffffffffff166001148015611b855750303b155b905081158015611b93575080155b15611bb15760405163f92ee8a960e01b815260040160405180910390fd5b845467ffffffffffffffff191660011785558315611bdb57845460ff60401b1916600160401b1785555b611be48661278c565b611bec61279d565b611bf461279d565b611bfc61279d565b8315611c4257845460ff60401b19168555604051600181527fc7f505b2f371ae2175ee4913f4499e1f2633a7b5936321eed1cdaeb6115181d29060200160405180910390a15b505050505050565b335f8181526001602052604090205460ff16611c845760405163a3a66a1760e01b81526001600160a01b038216600482015260240161086c565b6001600160a01b0382165f90815260208190526040902054829060ff16611cc95760405163b536580760e01b81526001600160a01b038216600482015260240161086c565b335f611cd5858361240a565b9050600181516003811115611cec57611cec613191565b03611d2a5760405162461bcd60e51b815260206004820152600e60248201526d416c72656164792061637469766560901b604482015260640161086c565b600281516003811115611d3f57611d3f613191565b03611d805760405162461bcd60e51b8152602060048201526011602482015270105b1c9958591e481a5b9a5d1a585d1959607a1b604482015260640161086c565b5f81516003811115611d9457611d94613191565b03611da25760028152611df2565b600381516003811115611db757611db7613191565b03611ad557600181526001600160a01b0385165f9081526020818152604090912054610100900463ffffffff1690820152611df285836126ff565b61134f858383612487565b611e05612157565b335f818152602081905260409020805460ff1615611e5a5760405162461bcd60e51b8152602060048201526012602482015271105b1c9958591e481c9959da5cdd195c995960721b604482015260640161086c565b805460ff191660011781556040516001600160a01b038316907f2fa31fbaacf5eaf61d648ea7528ada6efb69bfb06d2c3bd35ce511a820fce53e905f90a2816001600160a01b03167f6c1850fce35387a891e82ca88e975790ab6f0709e9ed6842e01397f296012a7e878787876040516115fe9493929190613383565b611edf612187565b620151808163ffffffff161015611f535760405162461bcd60e51b815260206004820152603260248201527f44656c6179206d757374206265206174206c65617374206d6f7265207468616e604482015271206f7220657175616c20746f20312064617960701b606482015260840161086c565b6006805463ffffffff83811663ffffffff1983168117909355604080519190921680825260208201939093527f7d96978277a4acf1fa8af376bc53af1059e1b5e52b97732645e8bf570bd852fd9101610ba5565b335f8181526001602052604090205460ff16611fe15760405163a3a66a1760e01b81526001600160a01b038216600482015260240161086c565b6001600160a01b0382165f90815260208190526040902054829060ff166120265760405163b536580760e01b81526001600160a01b038216600482015260240161086c565b335f612032858361240a565b90505f8151600381111561204857612048613191565b036120885760405162461bcd60e51b815260206004820152601060248201526f416c726561647920696e61637469766560801b604482015260640161086c565b61134f858360405180604001604052805f600381111561174557611745613191565b5f807f237e158222e3e6968b72b9db0d8043aacf074ad9f650f0d1606b4d82ee432c00611632565b6120da612187565b7f237e158222e3e6968b72b9db0d8043aacf074ad9f650f0d1606b4d82ee432c0080546001600160a01b0319166001600160a01b038316908117825561211e61160e565b6001600160a01b03167f38d16b8cac22d99fc7c124b9cd0de2d3fa1faef420bfe791d8c362d765e2270060405160405180910390a35050565b5f805160206135398339815191525460ff1615610ad45760405163d93c066560e01b815260040160405180910390fd5b3361219061160e565b6001600160a01b031614610ad45760405163118cdaa760e01b815233600482015260240161086c565b6121c16127a5565b5f80516020613539833981519152805460ff191681557f5db9ee0a495bf2e6ff9c91a7834c1ba4fdd244a5e8aa4e537bd38aeae4b073aa335b6040516001600160a01b03909116815260200160405180910390a150565b5f807ff0c57e16840df040f15088dc2f81fe391c3923bec73e23a9662efc9c229c6a006111fe565b5f6111fe825490565b5f61183683836127d4565b306001600160a01b037f00000000000000000000000000000000000000000000000000000000000000001614806122da57507f00000000000000000000000000000000000000000000000000000000000000006001600160a01b03166122ce5f80516020613519833981519152546001600160a01b031690565b6001600160a01b031614155b15610ad45760405163703e46dd60e11b815260040160405180910390fd5b61139b612187565b816001600160a01b03166352d1902d6040518163ffffffff1660e01b8152600401602060405180830381865afa92505050801561235a575060408051601f3d908101601f1916820190925261235791810190613458565b60015b61238257604051634c9c8ce360e01b81526001600160a01b038316600482015260240161086c565b5f8051602061351983398151915281146123b257604051632a87526960e21b81526004810182905260240161086c565b6123bc83836127fa565b505050565b306001600160a01b037f00000000000000000000000000000000000000000000000000000000000000001614610ad45760405163703e46dd60e11b815260040160405180910390fd5b604080518082019091525f8082526020820152606083811b5f9081529083901b60145260288120808252600360205260409091206124479061284f565b949350505050565b7f237e158222e3e6968b72b9db0d8043aacf074ad9f650f0d1606b4d82ee432c0080546001600160a01b0319168155610ecd82612877565b61248f612157565b606083811b5f9081529083901b60145260288120808252600360205260409091206124bb9042846128e7565b6001825160038111156124d0576124d0613191565b036125b8576006546001600160a01b0384165f908152600460205260409020600160281b90910460ff169061250490612240565b106125225760405163bd9b74ad60e01b815260040160405180910390fd5b6006546001600160a01b0385165f908152600560205260409020600160201b90910460ff169061255190612240565b1061256f5760405163ba11b6e760e01b815260040160405180910390fd5b6001600160a01b0383165f9081526004602052604090206125909085612906565b506001600160a01b0384165f9081526005602052604090206125b29084612906565b50612616565b5f825160038111156125cc576125cc613191565b03612616576001600160a01b0383165f9081526004602052604090206125f2908561291a565b506001600160a01b0384165f908152600560205260409020612614908461291a565b505b826001600160a01b0316846001600160a01b03167f21765f04287d7845df78e83515630836500dd5e89d866d34751b5177a96da4c6845f0151856020015160405161266292919061346f565b60405180910390a350505050565b612678612157565b5f80516020613539833981519152805460ff191660011781557f62e78cea01bee320cd4e420270b5ea74000d11b0c9f74754ebdbfc544b05a258336121fa565b604080518082019091525f8082526020820152606084811b5f9081529084901b60145260288120808252600360205260409091206126f6908461292e565b95945050505050565b6001600160a01b038082165f9081526001602090815260408083205493861683529082905290205463ffffffff610100909204821691600160281b90910416808210156127865760405163650a1a9160e01b81526001600160a01b0380861660048301528416602482015263ffffffff80841660448301528216606482015260840161086c565b50505050565b612794612957565b61139b8161297c565b610ad4612957565b5f805160206135398339815191525460ff16610ad457604051638dfc202b60e01b815260040160405180910390fd5b5f825f0182815481106127e9576127e9613347565b905f5260205f200154905092915050565b612803826129ad565b6040516001600160a01b038316907fbc7cd75a20ee27fd9adebab32041f755214dbc6bffa90cc0225b39da2e5c2d3b905f90a2805115612847576123bc8282612a10565b610ecd612a79565b604080518082019091525f80825260208201525f61286c83612a98565b905061183681612adc565b7f9016d09d72d40fdae2fd8ceac6b6234c7706214fd39c1cd1e609a0528c19930080546001600160a01b031981166001600160a01b03848116918217845560405192169182907f8be0079c531659141344cd1fd0a4f28419497f9722a3daafe3b4186f6b6457e0905f90a3505050565b5f6128f9825f01518360200151612b55565b9050611c42848483612b84565b5f611836836001600160a01b038416612b9e565b5f611836836001600160a01b038416612bea565b604080518082019091525f80825260208201525f61294c8484612ccd565b905061244781612adc565b61295f612d15565b610ad457604051631afcd79f60e31b815260040160405180910390fd5b612984612957565b6001600160a01b03811661139257604051631e4fbdf760e01b81525f600482015260240161086c565b806001600160a01b03163b5f036129e257604051634c9c8ce360e01b81526001600160a01b038216600482015260240161086c565b5f8051602061351983398151915280546001600160a01b0319166001600160a01b0392909216919091179055565b60605f80846001600160a01b031684604051612a2c9190613490565b5f60405180830381855af49150503d805f8114612a64576040519150601f19603f3d011682016040523d82523d5f602084013e612a69565b606091505b50915091506126f6858383612d2e565b3415610ad45760405163b398979f60e01b815260040160405180910390fd5b80545f908015612ad457612abe83612ab16001846134bf565b5f91825260209091200190565b54600160201b90046001600160e01b0316611836565b5f9392505050565b604080518082019091525f8082526020820152604080518082019091525f80825260208201528260ff166003811115612b1757612b17613191565b81906003811115612b2a57612b2a613191565b90816003811115612b3d57612b3d613191565b90525060089290921c63ffffffff1660208301525090565b5f80836003811115612b6957612b69613191565b60ff1660089390931b64ffffffff0016929092179392505050565b5f80612b91858585612d8a565b915091505b935093915050565b5f818152600183016020526040812054612be357508154600181810184555f8481526020808220909301849055845484825282860190935260409020919091556111fe565b505f6111fe565b5f8181526001830160205260408120548015612cc4575f612c0c6001836134bf565b85549091505f90612c1f906001906134bf565b9050808214612c7e575f865f018281548110612c3d57612c3d613347565b905f5260205f200154905080875f018481548110612c5d57612c5d613347565b5f918252602080832090910192909255918252600188019052604090208390555b8554869080612c8f57612c8f6134d2565b600190038181905f5260205f20015f90559055856001015f8681526020019081526020015f205f9055600193505050506111fe565b5f9150506111fe565b81545f9081612cde85858385612ece565b90508015612d0b57612cf585612ab16001846134bf565b54600160201b90046001600160e01b03166126f6565b505f949350505050565b5f612d1e612218565b54600160401b900460ff16919050565b606082612d4357612d3e82612f29565b611836565b8151158015612d5a57506001600160a01b0384163b155b15612d8357604051639996b31560e01b81526001600160a01b038516600482015260240161086c565b5080611836565b82545f9081908015612e76575f612da687612ab16001856134bf565b805490915063ffffffff80821691600160201b90046001600160e01b0316908816821115612de757604051632520601d60e01b815260040160405180910390fd5b8763ffffffff168263ffffffff1603612e1a57825463ffffffff16600160201b6001600160e01b03891602178355612e68565b6040805180820190915263ffffffff808a1682526001600160e01b03808a1660208085019182528d54600181018f555f8f81529190912094519151909216600160201b029216919091179101555b9450859350612b9692505050565b50506040805180820190915263ffffffff80851682526001600160e01b0380851660208085019182528854600181018a555f8a815291822095519251909316600160201b029190931617920191909155905081612b96565b5f5b81831015612f21575f612ee38484612f51565b5f8781526020902090915063ffffffff86169082015463ffffffff161115612f0d57809250612f1b565b612f188160016134e6565b93505b50612ed0565b509392505050565b805115612f3857805160208201fd5b60405163d6bda27560e01b815260040160405180910390fd5b5f612f5f60028484186134f9565b611836908484166134e6565b5f60608284031215612f7b575f80fd5b50919050565b6001600160a01b038116811461139b575f80fd5b5f60208284031215612fa5575f80fd5b813561183681612f81565b63ffffffff8116811461139b575f80fd5b5f60208284031215612fd1575f80fd5b813561183681612fb0565b634e487b7160e01b5f52604160045260245ffd5b5f8060408385031215613001575f80fd5b823561300c81612f81565b9150602083013567ffffffffffffffff80821115613028575f80fd5b818501915085601f83011261303b575f80fd5b81358181111561304d5761304d612fdc565b604051601f8201601f19908116603f0116810190838211818310171561307557613075612fdc565b8160405282815288602084870101111561308d575f80fd5b826020860160208301375f6020848301015280955050505050509250929050565b5f8083601f8401126130be575f80fd5b50813567ffffffffffffffff8111156130d5575f80fd5b6020830191508360208285010111156130ec575f80fd5b9250929050565b5f805f8060408587031215613106575f80fd5b843567ffffffffffffffff8082111561311d575f80fd5b613129888389016130ae565b90965094506020870135915080821115613141575f80fd5b5061314e878288016130ae565b95989497509550505050565b5f806040838503121561316b575f80fd5b823561317681612f81565b9150602083013561318681612f81565b809150509250929050565b634e487b7160e01b5f52602160045260245ffd5b600481106131c157634e487b7160e01b5f52602160045260245ffd5b9052565b602081016111fe82846131a5565b5f602082840312156131e3575f80fd5b813560ff81168114611836575f80fd5b5f805f60608486031215613205575f80fd5b833561321081612f81565b9250602084013561322081612f81565b9150604084013561323081612fb0565b809150509250925092565b5f5b8381101561325557818101518382015260200161323d565b50505f910152565b602081525f825180602084015261327b81604085016020870161323b565b601f01601f19169190910160400192915050565b62ffffff8116811461139b575f80fd5b5f602082840312156132af575f80fd5b81356118368161328f565b81356132c581612f81565b81546001600160a01b031981166001600160a01b0392909216918217835560208401356132f18161328f565b62ffffff60a01b60a09190911b166001600160b81b03198216831781178455604085013561331e81612fb0565b6001600160d81b0319929092169092179190911760b89190911b63ffffffff60b81b1617905550565b634e487b7160e01b5f52603260045260245ffd5b81835281816020850137505f828201602090810191909152601f909101601f19169091010190565b604081525f61339660408301868861335b565b82810360208401526133a981858761335b565b979650505050505050565b6020808252602f908201527f4d6178206163746976652072656c6174696f6e7368697073206d75737420626560408201526e02067726561746572207468616e203608c1b606082015260800190565b60208082526035908201527f4d6178206163746976652072656c6174696f6e7368697073206d7573742062656040820152740819dc99585d195c881d1a185b8818dd5c9c995b9d605a1b606082015260800190565b5f60208284031215613468575f80fd5b5051919050565b6040810161347d82856131a5565b63ffffffff831660208301529392505050565b5f82516134a181846020870161323b565b9190910192915050565b634e487b7160e01b5f52601160045260245ffd5b818103818111156111fe576111fe6134ab565b634e487b7160e01b5f52603160045260245ffd5b808201808211156111fe576111fe6134ab565b5f8261351357634e487b7160e01b5f52601260045260245ffd5b50049056fe360894a13ba1a3210667c828492db98dca3e2076cc3735a920a3ca505d382bbccd5ed15c6e187e77e9aee88184c21f4f2182ab5827cb3b7e07fbedcd63f03300a2646970667358221220b3aa22cfd764d7ba3a1e2fc4c13799d0c104f4dce909d9df14e9f4ba0c315a1864736f6c63430008180033",
    "linkReferences": {}
  },
  "methodIdentifiers": {
    "ROUTER()": "32fe7b26",
    "UPGRADE_INTERFACE_VERSION()": "ad3cb1cc",
    "acceptOwnership()": "79ba5097",
    "approveSlashingFor(address)": "7218c6a7",
    "defaultWithdrawalDelay()": "ddcf017d",
    "deregisterOperatorFromService(address)": "8e61af12",
    "deregisterServiceFromOperator(address)": "dcef4403",
    "disableSlashing()": "832025f9",
    "enableSlashing((address,uint24,uint32))": "0793ae7b",
    "getActiveOperatorCount(address)": "ab06f67e",
    "getActiveServiceCount(address)": "be732721",
    "getMaxActiveRelationshipsForOperator()": "fd864e5e",
    "getMaxActiveRelationshipsForService()": "d1b9d6e2",
    "getMinWithdrawalDelay(address)": "d2cad271",
    "getRelationshipStatus(address,address)": "621e0299",
    "getRelationshipStatusAt(address,address,uint32)": "b1ad5743",
    "getSlashParameter(address)": "48694118",
    "getSlashParameterAt(address,address,uint32)": "97c459c4",
    "getWithdrawalDelay(address)": "b1e50829",
    "initialize(address)": "c4d66de8",
    "initialize2()": "472abf68",
    "isOperator(address)": "6d70f7ae",
    "isService(address)": "e9d8dbfd",
    "owner()": "8da5cb5b",
    "pause()": "8456cb59",
    "paused()": "5c975abb",
    "pendingOwner()": "e30c3978",
    "proxiableUUID()": "52d1902d",
    "registerAsOperator(string,string)": "891a081f",
    "registerAsService(string,string)": "d12a833c",
    "registerOperatorToService(address)": "bcac0a02",
    "registerServiceToOperator(address)": "ca41e40c",
    "renounceOwnership()": "715018a6",
    "setDefaultWithdrawalDelay(uint32)": "dcc4605c",
    "setMaxActiveRelationshipsForOperator(uint8)": "9e2d5ce8",
    "setMaxActiveRelationshipsForService(uint8)": "81d18842",
    "setMinWithdrawalDelay(uint32)": "4ad88989",
    "setWithdrawalDelay(uint32)": "58715e3b",
    "transferOwnership(address)": "f2fde38b",
    "unpause()": "3f4ba83a",
    "updateMetadata(string,string)": "56ce0e6c",
    "upgradeToAndCall(address,bytes)": "4f1ef286"
  },
  "storageLayout": {
    "storage": [
      {
        "astId": 23127,
        "contract": "node_modules/@satlayer/contracts/src/SLAYRegistryV2.sol:SLAYRegistryV2",
        "label": "_services",
        "offset": 0,
        "slot": "0",
        "type": "t_mapping(t_address,t_struct(ServiceEntry)27798_storage)"
      },
      {
        "astId": 23133,
        "contract": "node_modules/@satlayer/contracts/src/SLAYRegistryV2.sol:SLAYRegistryV2",
        "label": "_operators",
        "offset": 0,
        "slot": "1",
        "type": "t_mapping(t_address,t_struct(OperatorEntry)27805_storage)"
      },
      {
        "astId": 23138,
        "contract": "node_modules/@satlayer/contracts/src/SLAYRegistryV2.sol:SLAYRegistryV2",
        "label": "_slashParameters",
        "offset": 0,
        "slot": "2",
        "type": "t_array(t_struct(SlashParameter)27816_storage)dyn_storage"
      },
      {
        "astId": 23144,
        "contract": "node_modules/@satlayer/contracts/src/SLAYRegistryV2.sol:SLAYRegistryV2",
        "label": "_relationships",
        "offset": 0,
        "slot": "3",
        "type": "t_mapping(t_bytes32,t_struct(Trace224)15071_storage)"
      },
      {
        "astId": 23150,
        "contract": "node_modules/@satlayer/contracts/src/SLAYRegistryV2.sol:SLAYRegistryV2",
        "label": "_operatorsActiveRelationships",
        "offset": 0,
        "slot": "4",
        "type": "t_mapping(t_address,t_struct(AddressSet)17140_storage)"
      },
      {
        "astId": 23156,
        "contract": "node_modules/@satlayer/contracts/src/SLAYRegistryV2.sol:SLAYRegistryV2",
        "label": "_servicesActiveRelationships",
        "offset": 0,
        "slot": "5",
        "type": "t_mapping(t_address,t_struct(AddressSet)17140_storage)"
      },
      {
        "astId": 23159,
        "contract": "node_modules/@satlayer/contracts/src/SLAYRegistryV2.sol:SLAYRegistryV2",
        "label": "defaultWithdrawalDelay",
        "offset": 0,
        "slot": "6",
        "type": "t_uint32"
      },
      {
        "astId": 23162,
        "contract": "node_modules/@satlayer/contracts/src/SLAYRegistryV2.sol:SLAYRegistryV2",
        "label": "_maxActiveRelationshipsForService",
        "offset": 4,
        "slot": "6",
        "type": "t_uint8"
      },
      {
        "astId": 23165,
        "contract": "node_modules/@satlayer/contracts/src/SLAYRegistryV2.sol:SLAYRegistryV2",
        "label": "_maxActiveRelationshipsForOperator",
        "offset": 5,
        "slot": "6",
        "type": "t_uint8"
      }
    ],
    "types": {
      "t_address": {
        "encoding": "inplace",
        "label": "address",
        "numberOfBytes": "20"
      },
      "t_array(t_bytes32)dyn_storage": {
        "encoding": "dynamic_array",
        "label": "bytes32[]",
        "numberOfBytes": "32",
        "base": "t_bytes32"
      },
      "t_array(t_struct(Checkpoint224)15076_storage)dyn_storage": {
        "encoding": "dynamic_array",
        "label": "struct Checkpoints.Checkpoint224[]",
        "numberOfBytes": "32",
        "base": "t_struct(Checkpoint224)15076_storage"
      },
      "t_array(t_struct(SlashParameter)27816_storage)dyn_storage": {
        "encoding": "dynamic_array",
        "label": "struct ISLAYRegistryV2.SlashParameter[]",
        "numberOfBytes": "32",
        "base": "t_struct(SlashParameter)27816_storage"
      },
      "t_bool": {
        "encoding": "inplace",
        "label": "bool",
        "numberOfBytes": "1"
      },
      "t_bytes32": {
        "encoding": "inplace",
        "label": "bytes32",
        "numberOfBytes": "32"
      },
      "t_mapping(t_address,t_struct(AddressSet)17140_storage)": {
        "encoding": "mapping",
        "key": "t_address",
        "label": "mapping(address => struct EnumerableSet.AddressSet)",
        "numberOfBytes": "32",
        "value": "t_struct(AddressSet)17140_storage"
      },
      "t_mapping(t_address,t_struct(OperatorEntry)27805_storage)": {
        "encoding": "mapping",
        "key": "t_address",
        "label": "mapping(address => struct ISLAYRegistryV2.OperatorEntry)",
        "numberOfBytes": "32",
        "value": "t_struct(OperatorEntry)27805_storage"
      },
      "t_mapping(t_address,t_struct(ServiceEntry)27798_storage)": {
        "encoding": "mapping",
        "key": "t_address",
        "label": "mapping(address => struct ISLAYRegistryV2.ServiceEntry)",
        "numberOfBytes": "32",
        "value": "t_struct(ServiceEntry)27798_storage"
      },
      "t_mapping(t_bytes32,t_struct(Trace224)15071_storage)": {
        "encoding": "mapping",
        "key": "t_bytes32",
        "label": "mapping(bytes32 => struct Checkpoints.Trace224)",
        "numberOfBytes": "32",
        "value": "t_struct(Trace224)15071_storage"
      },
      "t_mapping(t_bytes32,t_uint256)": {
        "encoding": "mapping",
        "key": "t_bytes32",
        "label": "mapping(bytes32 => uint256)",
        "numberOfBytes": "32",
        "value": "t_uint256"
      },
      "t_struct(AddressSet)17140_storage": {
        "encoding": "inplace",
        "label": "struct EnumerableSet.AddressSet",
        "numberOfBytes": "64",
        "members": [
          {
            "astId": 17139,
            "contract": "node_modules/@satlayer/contracts/src/SLAYRegistryV2.sol:SLAYRegistryV2",
            "label": "_inner",
            "offset": 0,
            "slot": "0",
            "type": "t_struct(Set)16654_storage"
          }
        ]
      },
      "t_struct(Checkpoint224)15076_storage": {
        "encoding": "inplace",
        "label": "struct Checkpoints.Checkpoint224",
        "numberOfBytes": "32",
        "members": [
          {
            "astId": 15073,
            "contract": "node_modules/@satlayer/contracts/src/SLAYRegistryV2.sol:SLAYRegistryV2",
            "label": "_key",
            "offset": 0,
            "slot": "0",
            "type": "t_uint32"
          },
          {
            "astId": 15075,
            "contract": "node_modules/@satlayer/contracts/src/SLAYRegistryV2.sol:SLAYRegistryV2",
            "label": "_value",
            "offset": 4,
            "slot": "0",
            "type": "t_uint224"
          }
        ]
      },
      "t_struct(OperatorEntry)27805_storage": {
        "encoding": "inplace",
        "label": "struct ISLAYRegistryV2.OperatorEntry",
        "numberOfBytes": "32",
        "members": [
          {
            "astId": 27801,
            "contract": "node_modules/@satlayer/contracts/src/SLAYRegistryV2.sol:SLAYRegistryV2",
            "label": "registered",
            "offset": 0,
            "slot": "0",
            "type": "t_bool"
          },
          {
            "astId": 27804,
            "contract": "node_modules/@satlayer/contracts/src/SLAYRegistryV2.sol:SLAYRegistryV2",
            "label": "withdrawalDelay",
            "offset": 1,
            "slot": "0",
            "type": "t_uint32"
          }
        ]
      },
      "t_struct(ServiceEntry)27798_storage": {
        "encoding": "inplace",
        "label": "struct ISLAYRegistryV2.ServiceEntry",
        "numberOfBytes": "32",
        "members": [
          {
            "astId": 27791,
            "contract": "node_modules/@satlayer/contracts/src/SLAYRegistryV2.sol:SLAYRegistryV2",
            "label": "registered",
            "offset": 0,
            "slot": "0",
            "type": "t_bool"
          },
          {
            "astId": 27794,
            "contract": "node_modules/@satlayer/contracts/src/SLAYRegistryV2.sol:SLAYRegistryV2",
            "label": "slashParameterId",
            "offset": 1,
            "slot": "0",
            "type": "t_uint32"
          },
          {
            "astId": 27797,
            "contract": "node_modules/@satlayer/contracts/src/SLAYRegistryV2.sol:SLAYRegistryV2",
            "label": "minWithdrawalDelay",
            "offset": 5,
            "slot": "0",
            "type": "t_uint32"
          }
        ]
      },
      "t_struct(Set)16654_storage": {
        "encoding": "inplace",
        "label": "struct EnumerableSet.Set",
        "numberOfBytes": "64",
        "members": [
          {
            "astId": 16649,
            "contract": "node_modules/@satlayer/contracts/src/SLAYRegistryV2.sol:SLAYRegistryV2",
            "label": "_values",
            "offset": 0,
            "slot": "0",
            "type": "t_array(t_bytes32)dyn_storage"
          },
          {
            "astId": 16653,
            "contract": "node_modules/@satlayer/contracts/src/SLAYRegistryV2.sol:SLAYRegistryV2",
            "label": "_positions",
            "offset": 0,
            "slot": "1",
            "type": "t_mapping(t_bytes32,t_uint256)"
          }
        ]
      },
      "t_struct(SlashParameter)27816_storage": {
        "encoding": "inplace",
        "label": "struct ISLAYRegistryV2.SlashParameter",
        "numberOfBytes": "32",
        "members": [
          {
            "astId": 27809,
            "contract": "node_modules/@satlayer/contracts/src/SLAYRegistryV2.sol:SLAYRegistryV2",
            "label": "destination",
            "offset": 0,
            "slot": "0",
            "type": "t_address"
          },
          {
            "astId": 27812,
            "contract": "node_modules/@satlayer/contracts/src/SLAYRegistryV2.sol:SLAYRegistryV2",
            "label": "maxMbips",
            "offset": 20,
            "slot": "0",
            "type": "t_uint24"
          },
          {
            "astId": 27815,
            "contract": "node_modules/@satlayer/contracts/src/SLAYRegistryV2.sol:SLAYRegistryV2",
            "label": "resolutionWindow",
            "offset": 23,
            "slot": "0",
            "type": "t_uint32"
          }
        ]
      },
      "t_struct(Trace224)15071_storage": {
        "encoding": "inplace",
        "label": "struct Checkpoints.Trace224",
        "numberOfBytes": "32",
        "members": [
          {
            "astId": 15070,
            "contract": "node_modules/@satlayer/contracts/src/SLAYRegistryV2.sol:SLAYRegistryV2",
            "label": "_checkpoints",
            "offset": 0,
            "slot": "0",
            "type": "t_array(t_struct(Checkpoint224)15076_storage)dyn_storage"
          }
        ]
      },
      "t_uint224": {
        "encoding": "inplace",
        "label": "uint224",
        "numberOfBytes": "28"
      },
      "t_uint24": {
        "encoding": "inplace",
        "label": "uint24",
        "numberOfBytes": "3"
      },
      "t_uint256": {
        "encoding": "inplace",
        "label": "uint256",
        "numberOfBytes": "32"
      },
      "t_uint32": {
        "encoding": "inplace",
        "label": "uint32",
        "numberOfBytes": "4"
      },
      "t_uint8": {
        "encoding": "inplace",
        "label": "uint8",
        "numberOfBytes": "1"
      }
    }
  },
  "id": 75
}