{"abi":[{"type":"constructor","inputs":[{"name":"beacon_","type":"address","internalType":"address"},{"name":"registry_","type":"address","internalType":"contract ISLAYRegistryV2"}],"stateMutability":"nonpayable"},{"type":"function","name":"BEACON","inputs":[],"outputs":[{"name":"","type":"address","internalType":"address"}],"stateMutability":"view"},{"type":"function","name":"REGISTRY","inputs":[],"outputs":[{"name":"","type":"address","internalType":"contract ISLAYRegistryV2"}],"stateMutability":"view"},{"type":"function","name":"UPGRADE_INTERFACE_VERSION","inputs":[],"outputs":[{"name":"","type":"string","internalType":"string"}],"stateMutability":"view"},{"type":"function","name":"acceptOwnership","inputs":[],"outputs":[],"stateMutability":"nonpayable"},{"type":"function","name":"create","inputs":[{"name":"asset","type":"address","internalType":"contract IERC20Metadata"}],"outputs":[{"name":"","type":"address","internalType":"contract SLAYVaultV2"}],"stateMutability":"nonpayable"},{"type":"function","name":"create","inputs":[{"name":"asset","type":"address","internalType":"contract IERC20"},{"name":"operator","type":"address","internalType":"address"},{"name":"name","type":"string","internalType":"string"},{"name":"symbol","type":"string","internalType":"string"}],"outputs":[{"name":"","type":"address","internalType":"contract SLAYVaultV2"}],"stateMutability":"nonpayable"},{"type":"function","name":"initialize","inputs":[{"name":"initialOwner","type":"address","internalType":"address"}],"outputs":[],"stateMutability":"nonpayable"},{"type":"function","name":"owner","inputs":[],"outputs":[{"name":"","type":"address","internalType":"address"}],"stateMutability":"view"},{"type":"function","name":"pause","inputs":[],"outputs":[],"stateMutability":"nonpayable"},{"type":"function","name":"paused","inputs":[],"outputs":[{"name":"","type":"bool","internalType":"bool"}],"stateMutability":"view"},{"type":"function","name":"pendingOwner","inputs":[],"outputs":[{"name":"","type":"address","internalType":"address"}],"stateMutability":"view"},{"type":"function","name":"proxiableUUID","inputs":[],"outputs":[{"name":"","type":"bytes32","internalType":"bytes32"}],"stateMutability":"view"},{"type":"function","name":"renounceOwnership","inputs":[],"outputs":[],"stateMutability":"nonpayable"},{"type":"function","name":"transferOwnership","inputs":[{"name":"newOwner","type":"address","internalType":"address"}],"outputs":[],"stateMutability":"nonpayable"},{"type":"function","name":"unpause","inputs":[],"outputs":[],"stateMutability":"nonpayable"},{"type":"function","name":"upgradeToAndCall","inputs":[{"name":"newImplementation","type":"address","internalType":"address"},{"name":"data","type":"bytes","internalType":"bytes"}],"outputs":[],"stateMutability":"payable"},{"type":"event","name":"Initialized","inputs":[{"name":"version","type":"uint64","indexed":false,"internalType":"uint64"}],"anonymous":false},{"type":"event","name":"OwnershipTransferStarted","inputs":[{"name":"previousOwner","type":"address","indexed":true,"internalType":"address"},{"name":"newOwner","type":"address","indexed":true,"internalType":"address"}],"anonymous":false},{"type":"event","name":"OwnershipTransferred","inputs":[{"name":"previousOwner","type":"address","indexed":true,"internalType":"address"},{"name":"newOwner","type":"address","indexed":true,"internalType":"address"}],"anonymous":false},{"type":"event","name":"Paused","inputs":[{"name":"account","type":"address","indexed":false,"internalType":"address"}],"anonymous":false},{"type":"event","name":"Unpaused","inputs":[{"name":"account","type":"address","indexed":false,"internalType":"address"}],"anonymous":false},{"type":"event","name":"Upgraded","inputs":[{"name":"implementation","type":"address","indexed":true,"internalType":"address"}],"anonymous":false},{"type":"error","name":"AddressEmptyCode","inputs":[{"name":"target","type":"address","internalType":"address"}]},{"type":"error","name":"ERC1967InvalidImplementation","inputs":[{"name":"implementation","type":"address","internalType":"address"}]},{"type":"error","name":"ERC1967NonPayable","inputs":[]},{"type":"error","name":"EnforcedPause","inputs":[]},{"type":"error","name":"ExpectedPause","inputs":[]},{"type":"error","name":"FailedCall","inputs":[]},{"type":"error","name":"InvalidInitialization","inputs":[]},{"type":"error","name":"NotInitializing","inputs":[]},{"type":"error","name":"NotOperator","inputs":[{"name":"account","type":"address","internalType":"address"}]},{"type":"error","name":"OwnableInvalidOwner","inputs":[{"name":"owner","type":"address","internalType":"address"}]},{"type":"error","name":"OwnableUnauthorizedAccount","inputs":[{"name":"account","type":"address","internalType":"address"}]},{"type":"error","name":"UUPSUnauthorizedCallContext","inputs":[]},{"type":"error","name":"UUPSUnsupportedProxiableUUID","inputs":[{"name":"slot","type":"bytes32","internalType":"bytes32"}]}],"bytecode":{"object":"0x60e06040523073ffffffffffffffffffffffffffffffffffffffff1660809073ffffffffffffffffffffffffffffffffffffffff1681525034801562000043575f80fd5b5060405162002fb938038062002fb98339818101604052810190620000699190620002e8565b62000079620000f960201b60201c565b8173ffffffffffffffffffffffffffffffffffffffff1660a08173ffffffffffffffffffffffffffffffffffffffff16815250508073ffffffffffffffffffffffffffffffffffffffff1660c08173ffffffffffffffffffffffffffffffffffffffff1681525050620000f1620000f960201b60201c565b50506200036c565b5f6200010a620001fd60201b60201c565b9050805f0160089054906101000a900460ff161562000155576040517ff92ee8a900000000000000000000000000000000000000000000000000000000815260040160405180910390fd5b67ffffffffffffffff8016815f015f9054906101000a900467ffffffffffffffff1667ffffffffffffffff1614620001fa5767ffffffffffffffff815f015f6101000a81548167ffffffffffffffff021916908367ffffffffffffffff1602179055507fc7f505b2f371ae2175ee4913f4499e1f2633a7b5936321eed1cdaeb6115181d267ffffffffffffffff604051620001f1919062000351565b60405180910390a15b50565b5f806200020f6200021860201b60201c565b90508091505090565b5f7ff0c57e16840df040f15088dc2f81fe391c3923bec73e23a9662efc9c229c6a005f1b905090565b5f80fd5b5f73ffffffffffffffffffffffffffffffffffffffff82169050919050565b5f620002708262000245565b9050919050565b620002828162000264565b81146200028d575f80fd5b50565b5f81519050620002a08162000277565b92915050565b5f620002b28262000264565b9050919050565b620002c481620002a6565b8114620002cf575f80fd5b50565b5f81519050620002e281620002b9565b92915050565b5f806040838503121562000301576200030062000241565b5b5f620003108582860162000290565b92505060206200032385828601620002d2565b9150509250929050565b5f67ffffffffffffffff82169050919050565b6200034b816200032d565b82525050565b5f602082019050620003665f83018462000340565b92915050565b60805160a05160c051612bff620003ba5f395f81816103bc015261106c01525f81816103f60152818161074d015261086501525f8181610c7301528181610cc90152610e930152612bff5ff3fe60806040526004361062000109575f3560e01c80638456cb591162000096578063c3477e981162000060578063c3477e9814620002ee578063c4d66de81462000331578063e30c3978146200035e578063f2fde38b146200038d5762000109565b80638456cb5914620002345780638da5cb5b146200024d5780639ed93318146200027c578063ad3cb1cc14620002bf5762000109565b806352d1902d11620000d857806352d1902d14620001a45780635c975abb14620001d3578063715018a6146200020257806379ba5097146200021b5762000109565b806306433b1b146200010d5780633f4ba83a146200013c57806349493a4d14620001555780634f1ef2861462000184575b5f80fd5b34801562000119575f80fd5b5062000124620003ba565b604051620001339190620017ca565b60405180910390f35b34801562000148575f80fd5b5062000153620003de565b005b34801562000161575f80fd5b506200016c620003f4565b6040516200017b919062001809565b60405180910390f35b620001a260048036038101906200019c9190620019bc565b62000418565b005b348015620001b0575f80fd5b50620001bb6200043d565b604051620001ca919062001a3a565b60405180910390f35b348015620001df575f80fd5b50620001ea62000470565b604051620001f9919062001a71565b60405180910390f35b3480156200020e575f80fd5b506200021962000494565b005b34801562000227575f80fd5b5062000232620004ab565b005b34801562000240575f80fd5b506200024b62000542565b005b34801562000259575f80fd5b506200026462000558565b60405162000273919062001809565b60405180910390f35b34801562000288575f80fd5b50620002a76004803603810190620002a1919062001ace565b6200058f565b604051620002b6919062001b22565b60405180910390f35b348015620002cb575f80fd5b50620002d6620007b2565b604051620002e5919062001bc1565b60405180910390f35b348015620002fa575f80fd5b5062000319600480360381019062000313919062001cd6565b620007eb565b60405162000328919062001b22565b60405180910390f35b3480156200033d575f80fd5b506200035c600480360381019062000356919062001d83565b620008ca565b005b3480156200036a575f80fd5b506200037562000a75565b60405162000384919062001809565b60405180910390f35b34801562000399575f80fd5b50620003b86004803603810190620003b2919062001d83565b62000aac565b005b7f000000000000000000000000000000000000000000000000000000000000000081565b620003e862000b6b565b620003f262000bfb565b565b7f000000000000000000000000000000000000000000000000000000000000000081565b6200042262000c71565b6200042d8262000d5b565b62000439828262000d68565b5050565b5f6200044862000e91565b7f360894a13ba1a3210667c828492db98dca3e2076cc3735a920a3ca505d382bbc5f1b905090565b5f806200047c62000f19565b9050805f015f9054906101000a900460ff1691505090565b6200049e62000b6b565b620004a95f62000f40565b565b5f620004b662000f81565b90508073ffffffffffffffffffffffffffffffffffffffff16620004d962000a75565b73ffffffffffffffffffffffffffffffffffffffff16146200053457806040517f118cdaa70000000000000000000000000000000000000000000000000000000081526004016200052b919062001809565b60405180910390fd5b6200053f8162000f40565b50565b6200054c62000b6b565b6200055662000f88565b565b5f806200056462000fff565b9050805f015f9054906101000a900473ffffffffffffffffffffffffffffffffffffffff1691505090565b5f6200059a62001026565b620005ae620005a862000f81565b6200106a565b5f620005b962000f81565b90505f8373ffffffffffffffffffffffffffffffffffffffff166306fdde036040518163ffffffff1660e01b81526004015f60405180830381865afa15801562000605573d5f803e3d5ffd5b505050506040513d5f823e3d601f19601f820116820180604052508101906200062f919062001e2f565b60405160200162000641919062001f0c565b60405160208183030381529060405290505f8473ffffffffffffffffffffffffffffffffffffffff166395d89b416040518163ffffffff1660e01b81526004015f60405180830381865afa1580156200069c573d5f803e3d5ffd5b505050506040513d5f823e3d601f19601f82011682018060405250810190620006c6919062001e2f565b604051602001620006d8919062001f7f565b60405160208183030381529060405290505f8584848460405160240162000703949392919062001fc8565b604051602081830303815290604052632016a0d260e01b6020820180517bffffffffffffffffffffffffffffffffffffffffffffffffffffffff838183161783525050505090505f7f0000000000000000000000000000000000000000000000000000000000000000826040516200077b9062001736565b620007889291906200207b565b604051809103905ff080158015620007a2573d5f803e3d5ffd5b5090508095505050505050919050565b6040518060400160405280600581526020017f352e302e3000000000000000000000000000000000000000000000000000000081525081565b5f620007f662000b6b565b62000801846200106a565b5f858585856040516024016200081b9493929190620020d1565b604051602081830303815290604052632016a0d260e01b6020820180517bffffffffffffffffffffffffffffffffffffffffffffffffffffffff838183161783525050505090505f7f000000000000000000000000000000000000000000000000000000000000000082604051620008939062001736565b620008a09291906200207b565b604051809103905ff080158015620008ba573d5f803e3d5ffd5b5090508092505050949350505050565b5f620008d56200114e565b90505f815f0160089054906101000a900460ff161590505f825f015f9054906101000a900467ffffffffffffffff1690505f808267ffffffffffffffff161480156200091e5750825b90505f60018367ffffffffffffffff161480156200095257505f3073ffffffffffffffffffffffffffffffffffffffff163b145b90508115801562000961575080155b1562000999576040517ff92ee8a900000000000000000000000000000000000000000000000000000000815260040160405180910390fd5b6001855f015f6101000a81548167ffffffffffffffff021916908367ffffffffffffffff1602179055508315620009e7576001855f0160086101000a81548160ff0219169083151502179055505b620009f28662001163565b620009fc6200117b565b62000a0662001187565b62000a1062001193565b831562000a6d575f855f0160086101000a81548160ff0219169083151502179055507fc7f505b2f371ae2175ee4913f4499e1f2633a7b5936321eed1cdaeb6115181d2600160405162000a6491906200217e565b60405180910390a15b505050505050565b5f8062000a816200119f565b9050805f015f9054906101000a900473ffffffffffffffffffffffffffffffffffffffff1691505090565b62000ab662000b6b565b5f62000ac16200119f565b905081815f015f6101000a81548173ffffffffffffffffffffffffffffffffffffffff021916908373ffffffffffffffffffffffffffffffffffffffff1602179055508173ffffffffffffffffffffffffffffffffffffffff1662000b2562000558565b73ffffffffffffffffffffffffffffffffffffffff167f38d16b8cac22d99fc7c124b9cd0de2d3fa1faef420bfe791d8c362d765e2270060405160405180910390a35050565b62000b7562000f81565b73ffffffffffffffffffffffffffffffffffffffff1662000b9562000558565b73ffffffffffffffffffffffffffffffffffffffff161462000bf95762000bbb62000f81565b6040517f118cdaa700000000000000000000000000000000000000000000000000000000815260040162000bf0919062001809565b60405180910390fd5b565b62000c05620011c6565b5f62000c1062000f19565b90505f815f015f6101000a81548160ff0219169083151502179055507f5db9ee0a495bf2e6ff9c91a7834c1ba4fdd244a5e8aa4e537bd38aeae4b073aa62000c5762000f81565b60405162000c66919062001809565b60405180910390a150565b7f000000000000000000000000000000000000000000000000000000000000000073ffffffffffffffffffffffffffffffffffffffff163073ffffffffffffffffffffffffffffffffffffffff16148062000d2157507f000000000000000000000000000000000000000000000000000000000000000073ffffffffffffffffffffffffffffffffffffffff1662000d0862001209565b73ffffffffffffffffffffffffffffffffffffffff1614155b1562000d59576040517fe07c8dba00000000000000000000000000000000000000000000000000000000815260040160405180910390fd5b565b62000d6562000b6b565b50565b8173ffffffffffffffffffffffffffffffffffffffff166352d1902d6040518163ffffffff1660e01b8152600401602060405180830381865afa92505050801562000dd357506040513d601f19601f8201168201806040525081019062000dd09190620021c8565b60015b62000e1757816040517f4c9c8ce300000000000000000000000000000000000000000000000000000000815260040162000e0e919062001809565b60405180910390fd5b7f360894a13ba1a3210667c828492db98dca3e2076cc3735a920a3ca505d382bbc5f1b811462000e8057806040517faa1d49a400000000000000000000000000000000000000000000000000000000815260040162000e77919062001a3a565b60405180910390fd5b62000e8c83836200125e565b505050565b7f000000000000000000000000000000000000000000000000000000000000000073ffffffffffffffffffffffffffffffffffffffff163073ffffffffffffffffffffffffffffffffffffffff161462000f17576040517fe07c8dba00000000000000000000000000000000000000000000000000000000815260040160405180910390fd5b565b5f7fcd5ed15c6e187e77e9aee88184c21f4f2182ab5827cb3b7e07fbedcd63f03300905090565b5f62000f4b6200119f565b9050805f015f6101000a81549073ffffffffffffffffffffffffffffffffffffffff021916905562000f7d82620012d8565b5050565b5f33905090565b62000f9262001026565b5f62000f9d62000f19565b90506001815f015f6101000a81548160ff0219169083151502179055507f62e78cea01bee320cd4e420270b5ea74000d11b0c9f74754ebdbfc544b05a25862000fe562000f81565b60405162000ff4919062001809565b60405180910390a150565b5f7f9016d09d72d40fdae2fd8ceac6b6234c7706214fd39c1cd1e609a0528c199300905090565b6200103062000470565b1562001068576040517fd93c066500000000000000000000000000000000000000000000000000000000815260040160405180910390fd5b565b7f000000000000000000000000000000000000000000000000000000000000000073ffffffffffffffffffffffffffffffffffffffff16636d70f7ae826040518263ffffffff1660e01b8152600401620010c5919062001809565b602060405180830381865afa158015620010e1573d5f803e3d5ffd5b505050506040513d601f19601f8201168201806040525081019062001107919062002227565b6200114b57806040517f76c6c93a00000000000000000000000000000000000000000000000000000000815260040162001142919062001809565b60405180910390fd5b50565b5f806200115a620013ab565b90508091505090565b6200116d620013d4565b620011788162001417565b50565b62001185620013d4565b565b62001191620013d4565b565b6200119d620013d4565b565b5f7f237e158222e3e6968b72b9db0d8043aacf074ad9f650f0d1606b4d82ee432c00905090565b620011d062000470565b62001207576040517f8dfc202b00000000000000000000000000000000000000000000000000000000815260040160405180910390fd5b565b5f620012377f360894a13ba1a3210667c828492db98dca3e2076cc3735a920a3ca505d382bbc5f1b620014a2565b5f015f9054906101000a900473ffffffffffffffffffffffffffffffffffffffff16905090565b6200126982620014ab565b8173ffffffffffffffffffffffffffffffffffffffff167fbc7cd75a20ee27fd9adebab32041f755214dbc6bffa90cc0225b39da2e5c2d3b60405160405180910390a25f81511115620012c957620012c2828262001579565b50620012d4565b620012d3620015ff565b5b5050565b5f620012e362000fff565b90505f815f015f9054906101000a900473ffffffffffffffffffffffffffffffffffffffff16905082825f015f6101000a81548173ffffffffffffffffffffffffffffffffffffffff021916908373ffffffffffffffffffffffffffffffffffffffff1602179055508273ffffffffffffffffffffffffffffffffffffffff168173ffffffffffffffffffffffffffffffffffffffff167f8be0079c531659141344cd1fd0a4f28419497f9722a3daafe3b4186f6b6457e060405160405180910390a3505050565b5f7ff0c57e16840df040f15088dc2f81fe391c3923bec73e23a9662efc9c229c6a005f1b905090565b620013de6200163c565b62001415576040517fd7e6bcf800000000000000000000000000000000000000000000000000000000815260040160405180910390fd5b565b62001421620013d4565b5f73ffffffffffffffffffffffffffffffffffffffff168173ffffffffffffffffffffffffffffffffffffffff160362001494575f6040517f1e4fbdf70000000000000000000000000000000000000000000000000000000081526004016200148b919062001809565b60405180910390fd5b6200149f8162000f40565b50565b5f819050919050565b5f8173ffffffffffffffffffffffffffffffffffffffff163b036200150957806040517f4c9c8ce300000000000000000000000000000000000000000000000000000000815260040162001500919062001809565b60405180910390fd5b80620015377f360894a13ba1a3210667c828492db98dca3e2076cc3735a920a3ca505d382bbc5f1b620014a2565b5f015f6101000a81548173ffffffffffffffffffffffffffffffffffffffff021916908373ffffffffffffffffffffffffffffffffffffffff16021790555050565b60605f808473ffffffffffffffffffffffffffffffffffffffff1684604051620015a4919062002297565b5f60405180830381855af49150503d805f8114620015de576040519150601f19603f3d011682016040523d82523d5f602084013e620015e3565b606091505b5091509150620015f58583836200165c565b9250505092915050565b5f3411156200163a576040517fb398979f00000000000000000000000000000000000000000000000000000000815260040160405180910390fd5b565b5f620016476200114e565b5f0160089054906101000a900460ff16905090565b60608262001675576200166f82620016f2565b620016ea565b5f82511480156200169c57505f8473ffffffffffffffffffffffffffffffffffffffff163b145b15620016e157836040517f9996b315000000000000000000000000000000000000000000000000000000008152600401620016d8919062001809565b60405180910390fd5b819050620016eb565b5b9392505050565b5f815111156200170457805160208201fd5b6040517fd6bda27500000000000000000000000000000000000000000000000000000000815260040160405180910390fd5b61091a80620022b083390190565b5f73ffffffffffffffffffffffffffffffffffffffff82169050919050565b5f819050919050565b5f6200178c62001786620017808462001744565b62001763565b62001744565b9050919050565b5f6200179f826200176c565b9050919050565b5f620017b28262001793565b9050919050565b620017c481620017a6565b82525050565b5f602082019050620017df5f830184620017b9565b92915050565b5f620017f18262001744565b9050919050565b6200180381620017e5565b82525050565b5f6020820190506200181e5f830184620017f8565b92915050565b5f604051905090565b5f80fd5b5f80fd5b6200184081620017e5565b81146200184b575f80fd5b50565b5f813590506200185e8162001835565b92915050565b5f80fd5b5f80fd5b5f601f19601f8301169050919050565b7f4e487b71000000000000000000000000000000000000000000000000000000005f52604160045260245ffd5b620018b4826200186c565b810181811067ffffffffffffffff82111715620018d657620018d56200187c565b5b80604052505050565b5f620018ea62001824565b9050620018f88282620018a9565b919050565b5f67ffffffffffffffff8211156200191a57620019196200187c565b5b62001925826200186c565b9050602081019050919050565b828183375f83830152505050565b5f620019566200195084620018fd565b620018df565b90508281526020810184848401111562001975576200197462001868565b5b6200198284828562001932565b509392505050565b5f82601f830112620019a157620019a062001864565b5b8135620019b384826020860162001940565b91505092915050565b5f8060408385031215620019d557620019d46200182d565b5b5f620019e4858286016200184e565b925050602083013567ffffffffffffffff81111562001a085762001a0762001831565b5b62001a16858286016200198a565b9150509250929050565b5f819050919050565b62001a348162001a20565b82525050565b5f60208201905062001a4f5f83018462001a29565b92915050565b5f8115159050919050565b62001a6b8162001a55565b82525050565b5f60208201905062001a865f83018462001a60565b92915050565b5f62001a9882620017e5565b9050919050565b62001aaa8162001a8c565b811462001ab5575f80fd5b50565b5f8135905062001ac88162001a9f565b92915050565b5f6020828403121562001ae65762001ae56200182d565b5b5f62001af58482850162001ab8565b91505092915050565b5f62001b0a8262001793565b9050919050565b62001b1c8162001afe565b82525050565b5f60208201905062001b375f83018462001b11565b92915050565b5f81519050919050565b5f82825260208201905092915050565b5f5b8381101562001b7657808201518184015260208101905062001b59565b5f8484015250505050565b5f62001b8d8262001b3d565b62001b99818562001b47565b935062001bab81856020860162001b57565b62001bb6816200186c565b840191505092915050565b5f6020820190508181035f83015262001bdb818462001b81565b905092915050565b5f62001bef82620017e5565b9050919050565b62001c018162001be3565b811462001c0c575f80fd5b50565b5f8135905062001c1f8162001bf6565b92915050565b5f67ffffffffffffffff82111562001c425762001c416200187c565b5b62001c4d826200186c565b9050602081019050919050565b5f62001c7062001c6a8462001c25565b620018df565b90508281526020810184848401111562001c8f5762001c8e62001868565b5b62001c9c84828562001932565b509392505050565b5f82601f83011262001cbb5762001cba62001864565b5b813562001ccd84826020860162001c5a565b91505092915050565b5f805f806080858703121562001cf15762001cf06200182d565b5b5f62001d008782880162001c0f565b945050602062001d13878288016200184e565b935050604085013567ffffffffffffffff81111562001d375762001d3662001831565b5b62001d458782880162001ca4565b925050606085013567ffffffffffffffff81111562001d695762001d6862001831565b5b62001d778782880162001ca4565b91505092959194509250565b5f6020828403121562001d9b5762001d9a6200182d565b5b5f62001daa848285016200184e565b91505092915050565b5f62001dc962001dc38462001c25565b620018df565b90508281526020810184848401111562001de85762001de762001868565b5b62001df584828562001b57565b509392505050565b5f82601f83011262001e145762001e1362001864565b5b815162001e2684826020860162001db3565b91505092915050565b5f6020828403121562001e475762001e466200182d565b5b5f82015167ffffffffffffffff81111562001e675762001e6662001831565b5b62001e758482850162001dfd565b91505092915050565b5f81905092915050565b7f5361744c617965722000000000000000000000000000000000000000000000005f82015250565b5f62001ebe60098362001e7e565b915062001ecb8262001e88565b600982019050919050565b5f62001ee28262001b3d565b62001eee818562001e7e565b935062001f0081856020860162001b57565b80840191505092915050565b5f62001f188262001eb0565b915062001f26828462001ed6565b915081905092915050565b7f73617400000000000000000000000000000000000000000000000000000000005f82015250565b5f62001f6760038362001e7e565b915062001f748262001f31565b600382019050919050565b5f62001f8b8262001f59565b915062001f99828462001ed6565b915081905092915050565b5f62001fb08262001793565b9050919050565b62001fc28162001fa4565b82525050565b5f60808201905062001fdd5f83018762001fb7565b62001fec6020830186620017f8565b818103604083015262002000818562001b81565b9050818103606083015262002016818462001b81565b905095945050505050565b5f81519050919050565b5f82825260208201905092915050565b5f620020478262002021565b6200205381856200202b565b93506200206581856020860162001b57565b62002070816200186c565b840191505092915050565b5f604082019050620020905f830185620017f8565b8181036020830152620020a481846200203b565b90509392505050565b5f620020b98262001793565b9050919050565b620020cb81620020ad565b82525050565b5f608082019050620020e65f830187620020c0565b620020f56020830186620017f8565b818103604083015262002109818562001b81565b905081810360608301526200211f818462001b81565b905095945050505050565b5f819050919050565b5f67ffffffffffffffff82169050919050565b5f62002166620021606200215a846200212a565b62001763565b62002133565b9050919050565b620021788162002146565b82525050565b5f602082019050620021935f8301846200216d565b92915050565b620021a48162001a20565b8114620021af575f80fd5b50565b5f81519050620021c28162002199565b92915050565b5f60208284031215620021e057620021df6200182d565b5b5f620021ef84828501620021b2565b91505092915050565b620022038162001a55565b81146200220e575f80fd5b50565b5f815190506200222181620021f8565b92915050565b5f602082840312156200223f576200223e6200182d565b5b5f6200224e8482850162002211565b91505092915050565b5f81905092915050565b5f6200226d8262002021565b62002279818562002257565b93506200228b81856020860162001b57565b80840191505092915050565b5f620022a4828462002261565b91508190509291505056fe60a060405260405161091a38038061091a8339818101604052810190610025919061065d565b610035828261007060201b60201c565b8173ffffffffffffffffffffffffffffffffffffffff1660808173ffffffffffffffffffffffffffffffffffffffff16815250505050610764565b61007f8261016060201b60201c565b8173ffffffffffffffffffffffffffffffffffffffff167f1cf3b03a6cf19fa2baba4df148e9dcabedea7f8a5c07840e207e5c089be95d3e60405160405180910390a25f8151111561014d576101478273ffffffffffffffffffffffffffffffffffffffff16635c60da1b6040518163ffffffff1660e01b8152600401602060405180830381865afa158015610117573d5f803e3d5ffd5b505050506040513d601f19601f8201168201806040525081019061013b91906106b7565b826102fb60201b60201c565b5061015c565b61015b61038160201b60201c565b5b5050565b5f8173ffffffffffffffffffffffffffffffffffffffff163b036101bb57806040517f64ced0ec0000000000000000000000000000000000000000000000000000000081526004016101b291906106f1565b60405180910390fd5b806101ed7fa3f0ad74e5423aebfd80d3ef4346578335a9a72aeaee59ff6cb3582b35133d505f1b6103bd60201b60201c565b5f015f6101000a81548173ffffffffffffffffffffffffffffffffffffffff021916908373ffffffffffffffffffffffffffffffffffffffff1602179055505f8173ffffffffffffffffffffffffffffffffffffffff16635c60da1b6040518163ffffffff1660e01b8152600401602060405180830381865afa158015610276573d5f803e3d5ffd5b505050506040513d601f19601f8201168201806040525081019061029a91906106b7565b90505f8173ffffffffffffffffffffffffffffffffffffffff163b036102f757806040517f4c9c8ce30000000000000000000000000000000000000000000000000000000081526004016102ee91906106f1565b60405180910390fd5b5050565b60605f808473ffffffffffffffffffffffffffffffffffffffff1684604051610324919061074e565b5f60405180830381855af49150503d805f811461035c576040519150601f19603f3d011682016040523d82523d5f602084013e610361565b606091505b50915091506103778583836103c660201b60201c565b9250505092915050565b5f3411156103bb576040517fb398979f00000000000000000000000000000000000000000000000000000000815260040160405180910390fd5b565b5f819050919050565b6060826103e1576103dc8261045960201b60201c565b610451565b5f825114801561040757505f8473ffffffffffffffffffffffffffffffffffffffff163b145b1561044957836040517f9996b31500000000000000000000000000000000000000000000000000000000815260040161044091906106f1565b60405180910390fd5b819050610452565b5b9392505050565b5f8151111561046a57805160208201fd5b6040517fd6bda27500000000000000000000000000000000000000000000000000000000815260040160405180910390fd5b5f604051905090565b5f80fd5b5f80fd5b5f73ffffffffffffffffffffffffffffffffffffffff82169050919050565b5f6104d6826104ad565b9050919050565b6104e6816104cc565b81146104f0575f80fd5b50565b5f81519050610501816104dd565b92915050565b5f80fd5b5f80fd5b5f601f19601f8301169050919050565b7f4e487b71000000000000000000000000000000000000000000000000000000005f52604160045260245ffd5b6105558261050f565b810181811067ffffffffffffffff821117156105745761057361051f565b5b80604052505050565b5f61058661049c565b9050610592828261054c565b919050565b5f67ffffffffffffffff8211156105b1576105b061051f565b5b6105ba8261050f565b9050602081019050919050565b5f5b838110156105e45780820151818401526020810190506105c9565b5f8484015250505050565b5f6106016105fc84610597565b61057d565b90508281526020810184848401111561061d5761061c61050b565b5b6106288482856105c7565b509392505050565b5f82601f83011261064457610643610507565b5b81516106548482602086016105ef565b91505092915050565b5f8060408385031215610673576106726104a5565b5b5f610680858286016104f3565b925050602083015167ffffffffffffffff8111156106a1576106a06104a9565b5b6106ad85828601610630565b9150509250929050565b5f602082840312156106cc576106cb6104a5565b5b5f6106d9848285016104f3565b91505092915050565b6106eb816104cc565b82525050565b5f6020820190506107045f8301846106e2565b92915050565b5f81519050919050565b5f81905092915050565b5f6107288261070a565b6107328185610714565b93506107428185602086016105c7565b80840191505092915050565b5f610759828461071e565b915081905092915050565b60805161019f61077b5f395f60bc015261019f5ff3fe608060405261000c61000e565b005b61001e610019610020565b61009a565b565b5f6100296100b9565b73ffffffffffffffffffffffffffffffffffffffff16635c60da1b6040518163ffffffff1660e01b8152600401602060405180830381865afa158015610071573d5f803e3d5ffd5b505050506040513d601f19601f82011682018060405250810190610095919061013e565b905090565b365f80375f80365f845af43d5f803e805f81146100b5573d5ff35b3d5ffd5b5f7f0000000000000000000000000000000000000000000000000000000000000000905090565b5f80fd5b5f73ffffffffffffffffffffffffffffffffffffffff82169050919050565b5f61010d826100e4565b9050919050565b61011d81610103565b8114610127575f80fd5b50565b5f8151905061013881610114565b92915050565b5f60208284031215610153576101526100e0565b5b5f6101608482850161012a565b9150509291505056fea26469706673582212202c79d097a3b5352e791b39c94ee0933f3ad71de5e79666147f0140baa4f6d0c764736f6c63430008180033a2646970667358221220ec8d04e88b01d6040630029568db6411d1fa32001ee406a78b3296e93aaf4f3364736f6c63430008180033","linkReferences":{}},"methodIdentifiers":{"BEACON()":"49493a4d","REGISTRY()":"06433b1b","UPGRADE_INTERFACE_VERSION()":"ad3cb1cc","acceptOwnership()":"79ba5097","create(address)":"9ed93318","create(address,address,string,string)":"c3477e98","initialize(address)":"c4d66de8","owner()":"8da5cb5b","pause()":"8456cb59","paused()":"5c975abb","pendingOwner()":"e30c3978","proxiableUUID()":"52d1902d","renounceOwnership()":"715018a6","transferOwnership(address)":"f2fde38b","unpause()":"3f4ba83a","upgradeToAndCall(address,bytes)":"4f1ef286"},"id":70}