{
  "abi": [
    {
      "type": "constructor",
      "inputs": [],
      "stateMutability": "nonpayable"
    },
    {
      "type": "function",
      "name": "UPGRADE_INTERFACE_VERSION",
      "inputs": [],
      "outputs": [
        {
          "name": "",
          "type": "string",
          "internalType": "string"
        }
      ],
      "stateMutability": "view"
    },
    {
      "type": "function",
      "name": "acceptOwnership",
      "inputs": [],
      "outputs": [],
      "stateMutability": "nonpayable"
    },
    {
      "type": "function",
      "name": "initialize",
      "inputs": [
        {
          "name": "initialOwner",
          "type": "address",
          "internalType": "address"
        }
      ],
      "outputs": [],
      "stateMutability": "nonpayable"
    },
    {
      "type": "function",
      "name": "owner",
      "inputs": [],
      "outputs": [
        {
          "name": "",
          "type": "address",
          "internalType": "address"
        }
      ],
      "stateMutability": "view"
    },
    {
      "type": "function",
      "name": "pause",
      "inputs": [],
      "outputs": [],
      "stateMutability": "nonpayable"
    },
    {
      "type": "function",
      "name": "paused",
      "inputs": [],
      "outputs": [
        {
          "name": "",
          "type": "bool",
          "internalType": "bool"
        }
      ],
      "stateMutability": "view"
    },
    {
      "type": "function",
      "name": "pendingOwner",
      "inputs": [],
      "outputs": [
        {
          "name": "",
          "type": "address",
          "internalType": "address"
        }
      ],
      "stateMutability": "view"
    },
    {
      "type": "function",
      "name": "proxiableUUID",
      "inputs": [],
      "outputs": [
        {
          "name": "",
          "type": "bytes32",
          "internalType": "bytes32"
        }
      ],
      "stateMutability": "view"
    },
    {
      "type": "function",
      "name": "renounceOwnership",
      "inputs": [],
      "outputs": [],
      "stateMutability": "nonpayable"
    },
    {
      "type": "function",
      "name": "transferOwnership",
      "inputs": [
        {
          "name": "newOwner",
          "type": "address",
          "internalType": "address"
        }
      ],
      "outputs": [],
      "stateMutability": "nonpayable"
    },
    {
      "type": "function",
      "name": "unpause",
      "inputs": [],
      "outputs": [],
      "stateMutability": "nonpayable"
    },
    {
      "type": "function",
      "name": "upgradeToAndCall",
      "inputs": [
        {
          "name": "newImplementation",
          "type": "address",
          "internalType": "address"
        },
        {
          "name": "data",
          "type": "bytes",
          "internalType": "bytes"
        }
      ],
      "outputs": [],
      "stateMutability": "payable"
    },
    {
      "type": "event",
      "name": "Initialized",
      "inputs": [
        {
          "name": "version",
          "type": "uint64",
          "indexed": false,
          "internalType": "uint64"
        }
      ],
      "anonymous": false
    },
    {
      "type": "event",
      "name": "OwnershipTransferStarted",
      "inputs": [
        {
          "name": "previousOwner",
          "type": "address",
          "indexed": true,
          "internalType": "address"
        },
        {
          "name": "newOwner",
          "type": "address",
          "indexed": true,
          "internalType": "address"
        }
      ],
      "anonymous": false
    },
    {
      "type": "event",
      "name": "OwnershipTransferred",
      "inputs": [
        {
          "name": "previousOwner",
          "type": "address",
          "indexed": true,
          "internalType": "address"
        },
        {
          "name": "newOwner",
          "type": "address",
          "indexed": true,
          "internalType": "address"
        }
      ],
      "anonymous": false
    },
    {
      "type": "event",
      "name": "Paused",
      "inputs": [
        {
          "name": "account",
          "type": "address",
          "indexed": false,
          "internalType": "address"
        }
      ],
      "anonymous": false
    },
    {
      "type": "event",
      "name": "Unpaused",
      "inputs": [
        {
          "name": "account",
          "type": "address",
          "indexed": false,
          "internalType": "address"
        }
      ],
      "anonymous": false
    },
    {
      "type": "event",
      "name": "Upgraded",
      "inputs": [
        {
          "name": "implementation",
          "type": "address",
          "indexed": true,
          "internalType": "address"
        }
      ],
      "anonymous": false
    },
    {
      "type": "error",
      "name": "AddressEmptyCode",
      "inputs": [
        {
          "name": "target",
          "type": "address",
          "internalType": "address"
        }
      ]
    },
    {
      "type": "error",
      "name": "ERC1967InvalidImplementation",
      "inputs": [
        {
          "name": "implementation",
          "type": "address",
          "internalType": "address"
        }
      ]
    },
    {
      "type": "error",
      "name": "ERC1967NonPayable",
      "inputs": []
    },
    {
      "type": "error",
      "name": "EnforcedPause",
      "inputs": []
    },
    {
      "type": "error",
      "name": "ExpectedPause",
      "inputs": []
    },
    {
      "type": "error",
      "name": "FailedCall",
      "inputs": []
    },
    {
      "type": "error",
      "name": "InvalidInitialization",
      "inputs": []
    },
    {
      "type": "error",
      "name": "NotInitializing",
      "inputs": []
    },
    {
      "type": "error",
      "name": "OwnableInvalidOwner",
      "inputs": [
        {
          "name": "owner",
          "type": "address",
          "internalType": "address"
        }
      ]
    },
    {
      "type": "error",
      "name": "OwnableUnauthorizedAccount",
      "inputs": [
        {
          "name": "account",
          "type": "address",
          "internalType": "address"
        }
      ]
    },
    {
      "type": "error",
      "name": "UUPSUnauthorizedCallContext",
      "inputs": []
    },
    {
      "type": "error",
      "name": "UUPSUnsupportedProxiableUUID",
      "inputs": [
        {
          "name": "slot",
          "type": "bytes32",
          "internalType": "bytes32"
        }
      ]
    }
  ],
  "bytecode": {
    "object": "0x60a060405230608052348015610013575f80fd5b5061001c610021565b6100d3565b7ff0c57e16840df040f15088dc2f81fe391c3923bec73e23a9662efc9c229c6a00805468010000000000000000900460ff16156100715760405163f92ee8a960e01b815260040160405180910390fd5b80546001600160401b03908116146100d05780546001600160401b0319166001600160401b0390811782556040519081527fc7f505b2f371ae2175ee4913f4499e1f2633a7b5936321eed1cdaeb6115181d29060200160405180910390a15b50565b608051610cd86100f95f395f818161057b015281816105a401526106e80152610cd85ff3fe6080604052600436106100a5575f3560e01c80638456cb59116100625780638456cb591461014f5780638da5cb5b14610163578063ad3cb1cc1461018f578063c4d66de8146101cc578063e30c3978146101eb578063f2fde38b146101ff575f80fd5b80633f4ba83a146100a95780634f1ef286146100bf57806352d1902d146100d25780635c975abb146100f9578063715018a61461012757806379ba50971461013b575b5f80fd5b3480156100b4575f80fd5b506100bd61021e565b005b6100bd6100cd366004610b07565b610230565b3480156100dd575f80fd5b506100e661024f565b6040519081526020015b60405180910390f35b348015610104575f80fd5b505f80516020610c838339815191525460ff1660405190151581526020016100f0565b348015610132575f80fd5b506100bd61026a565b348015610146575f80fd5b506100bd61027b565b34801561015a575f80fd5b506100bd6102c8565b34801561016e575f80fd5b506101776102d8565b6040516001600160a01b0390911681526020016100f0565b34801561019a575f80fd5b506101bf604051806040016040528060058152602001640352e302e360dc1b81525081565b6040516100f09190610be5565b3480156101d7575f80fd5b506100bd6101e6366004610c17565b61030c565b3480156101f6575f80fd5b50610177610432565b34801561020a575f80fd5b506100bd610219366004610c17565b61045a565b6102266104df565b61022e610511565b565b610238610570565b61024182610614565b61024b828261061c565b5050565b5f6102586106dd565b505f80516020610c6383398151915290565b6102726104df565b61022e5f610726565b3380610285610432565b6001600160a01b0316146102bc5760405163118cdaa760e01b81526001600160a01b03821660048201526024015b60405180910390fd5b6102c581610726565b50565b6102d06104df565b61022e61075e565b5f807f9016d09d72d40fdae2fd8ceac6b6234c7706214fd39c1cd1e609a0528c1993005b546001600160a01b031692915050565b7ff0c57e16840df040f15088dc2f81fe391c3923bec73e23a9662efc9c229c6a008054600160401b810460ff16159067ffffffffffffffff165f811580156103515750825b90505f8267ffffffffffffffff16600114801561036d5750303b155b90508115801561037b575080155b156103995760405163f92ee8a960e01b815260040160405180910390fd5b845467ffffffffffffffff1916600117855583156103c357845460ff60401b1916600160401b1785555b6103cc866107a6565b6103d46107b7565b6103dc6107b7565b6103e46107b7565b831561042a57845460ff60401b19168555604051600181527fc7f505b2f371ae2175ee4913f4499e1f2633a7b5936321eed1cdaeb6115181d29060200160405180910390a15b505050505050565b5f807f237e158222e3e6968b72b9db0d8043aacf074ad9f650f0d1606b4d82ee432c006102fc565b6104626104df565b7f237e158222e3e6968b72b9db0d8043aacf074ad9f650f0d1606b4d82ee432c0080546001600160a01b0319166001600160a01b03831690811782556104a66102d8565b6001600160a01b03167f38d16b8cac22d99fc7c124b9cd0de2d3fa1faef420bfe791d8c362d765e2270060405160405180910390a35050565b336104e86102d8565b6001600160a01b03161461022e5760405163118cdaa760e01b81523360048201526024016102b3565b6105196107bf565b5f80516020610c83833981519152805460ff191681557f5db9ee0a495bf2e6ff9c91a7834c1ba4fdd244a5e8aa4e537bd38aeae4b073aa335b6040516001600160a01b03909116815260200160405180910390a150565b306001600160a01b037f00000000000000000000000000000000000000000000000000000000000000001614806105f657507f00000000000000000000000000000000000000000000000000000000000000006001600160a01b03166105ea5f80516020610c63833981519152546001600160a01b031690565b6001600160a01b031614155b1561022e5760405163703e46dd60e11b815260040160405180910390fd5b6102c56104df565b816001600160a01b03166352d1902d6040518163ffffffff1660e01b8152600401602060405180830381865afa925050508015610676575060408051601f3d908101601f1916820190925261067391810190610c30565b60015b61069e57604051634c9c8ce360e01b81526001600160a01b03831660048201526024016102b3565b5f80516020610c6383398151915281146106ce57604051632a87526960e21b8152600481018290526024016102b3565b6106d883836107ee565b505050565b306001600160a01b037f0000000000000000000000000000000000000000000000000000000000000000161461022e5760405163703e46dd60e11b815260040160405180910390fd5b7f237e158222e3e6968b72b9db0d8043aacf074ad9f650f0d1606b4d82ee432c0080546001600160a01b031916815561024b82610843565b6107666108b3565b5f80516020610c83833981519152805460ff191660011781557f62e78cea01bee320cd4e420270b5ea74000d11b0c9f74754ebdbfc544b05a25833610552565b6107ae6108e3565b6102c58161092c565b61022e6108e3565b5f80516020610c838339815191525460ff1661022e57604051638dfc202b60e01b815260040160405180910390fd5b6107f78261095d565b6040516001600160a01b038316907fbc7cd75a20ee27fd9adebab32041f755214dbc6bffa90cc0225b39da2e5c2d3b905f90a280511561083b576106d882826109c0565b61024b610a32565b7f9016d09d72d40fdae2fd8ceac6b6234c7706214fd39c1cd1e609a0528c19930080546001600160a01b031981166001600160a01b03848116918217845560405192169182907f8be0079c531659141344cd1fd0a4f28419497f9722a3daafe3b4186f6b6457e0905f90a3505050565b5f80516020610c838339815191525460ff161561022e5760405163d93c066560e01b815260040160405180910390fd5b7ff0c57e16840df040f15088dc2f81fe391c3923bec73e23a9662efc9c229c6a0054600160401b900460ff1661022e57604051631afcd79f60e31b815260040160405180910390fd5b6109346108e3565b6001600160a01b0381166102bc57604051631e4fbdf760e01b81525f60048201526024016102b3565b806001600160a01b03163b5f0361099257604051634c9c8ce360e01b81526001600160a01b03821660048201526024016102b3565b5f80516020610c6383398151915280546001600160a01b0319166001600160a01b0392909216919091179055565b60605f80846001600160a01b0316846040516109dc9190610c47565b5f60405180830381855af49150503d805f8114610a14576040519150601f19603f3d011682016040523d82523d5f602084013e610a19565b606091505b5091509150610a29858383610a51565b95945050505050565b341561022e5760405163b398979f60e01b815260040160405180910390fd5b606082610a6657610a6182610ab0565b610aa9565b8151158015610a7d57506001600160a01b0384163b155b15610aa657604051639996b31560e01b81526001600160a01b03851660048201526024016102b3565b50805b9392505050565b805115610abf57805160208201fd5b60405163d6bda27560e01b815260040160405180910390fd5b80356001600160a01b0381168114610aee575f80fd5b919050565b634e487b7160e01b5f52604160045260245ffd5b5f8060408385031215610b18575f80fd5b610b2183610ad8565b9150602083013567ffffffffffffffff80821115610b3d575f80fd5b818501915085601f830112610b50575f80fd5b813581811115610b6257610b62610af3565b604051601f8201601f19908116603f01168101908382118183101715610b8a57610b8a610af3565b81604052828152886020848701011115610ba2575f80fd5b826020860160208301375f6020848301015280955050505050509250929050565b5f5b83811015610bdd578181015183820152602001610bc5565b50505f910152565b602081525f8251806020840152610c03816040850160208701610bc3565b601f01601f19169190910160400192915050565b5f60208284031215610c27575f80fd5b610aa982610ad8565b5f60208284031215610c40575f80fd5b5051919050565b5f8251610c58818460208701610bc3565b919091019291505056fe360894a13ba1a3210667c828492db98dca3e2076cc3735a920a3ca505d382bbccd5ed15c6e187e77e9aee88184c21f4f2182ab5827cb3b7e07fbedcd63f03300a26469706673582212209c111882e070af9e0c9d92977cbb7ed9c9d374e469010461729f671198d2b16364736f6c63430008180033",
    "linkReferences": {}
  },
  "methodIdentifiers": {
    "UPGRADE_INTERFACE_VERSION()": "ad3cb1cc",
    "acceptOwnership()": "79ba5097",
    "initialize(address)": "c4d66de8",
    "owner()": "8da5cb5b",
    "pause()": "8456cb59",
    "paused()": "5c975abb",
    "pendingOwner()": "e30c3978",
    "proxiableUUID()": "52d1902d",
    "renounceOwnership()": "715018a6",
    "transferOwnership(address)": "f2fde38b",
    "unpause()": "3f4ba83a",
    "upgradeToAndCall(address,bytes)": "4f1ef286"
  },
  "storageLayout": {
    "storage": [],
    "types": {}
  },
  "id": 74
}