{
  "abi": [
    {
      "type": "constructor",
      "inputs": [
        {
          "name": "governance",
          "type": "address",
          "internalType": "address"
        },
        {
          "name": "caller",
          "type": "address",
          "internalType": "address"
        }
      ],
      "stateMutability": "nonpayable"
    },
    {
      "type": "function",
      "name": "DEFAULT_ADMIN_ROLE",
      "inputs": [],
      "outputs": [
        {
          "name": "",
          "type": "bytes32",
          "internalType": "bytes32"
        }
      ],
      "stateMutability": "view"
    },
    {
      "type": "function",
      "name": "ROLE_CG",
      "inputs": [],
      "outputs": [
        {
          "name": "",
          "type": "bytes32",
          "internalType": "bytes32"
        }
      ],
      "stateMutability": "view"
    },
    {
      "type": "function",
      "name": "ROLE_GOV",
      "inputs": [],
      "outputs": [
        {
          "name": "",
          "type": "bytes32",
          "internalType": "bytes32"
        }
      ],
      "stateMutability": "view"
    },
    {
      "type": "function",
      "name": "borrow",
      "inputs": [
        {
          "name": "debtAsset",
          "type": "address",
          "internalType": "address"
        },
        {
          "name": "amount",
          "type": "uint256",
          "internalType": "uint256"
        },
        {
          "name": "data",
          "type": "bytes",
          "internalType": "bytes"
        }
      ],
      "outputs": [],
      "stateMutability": "nonpayable"
    },
    {
      "type": "function",
      "name": "collateralBalance",
      "inputs": [
        {
          "name": "collateral",
          "type": "address",
          "internalType": "address"
        }
      ],
      "outputs": [
        {
          "name": "",
          "type": "uint256",
          "internalType": "uint256"
        }
      ],
      "stateMutability": "view"
    },
    {
      "type": "function",
      "name": "collateralOf",
      "inputs": [
        {
          "name": "",
          "type": "address",
          "internalType": "address"
        }
      ],
      "outputs": [
        {
          "name": "",
          "type": "uint256",
          "internalType": "uint256"
        }
      ],
      "stateMutability": "view"
    },
    {
      "type": "function",
      "name": "debtBalance",
      "inputs": [
        {
          "name": "debtAsset",
          "type": "address",
          "internalType": "address"
        }
      ],
      "outputs": [
        {
          "name": "",
          "type": "uint256",
          "internalType": "uint256"
        }
      ],
      "stateMutability": "view"
    },
    {
      "type": "function",
      "name": "debtOf",
      "inputs": [
        {
          "name": "",
          "type": "address",
          "internalType": "address"
        }
      ],
      "outputs": [
        {
          "name": "",
          "type": "uint256",
          "internalType": "uint256"
        }
      ],
      "stateMutability": "view"
    },
    {
      "type": "function",
      "name": "getRiskSignals",
      "inputs": [
        {
          "name": "debtAsset",
          "type": "address",
          "internalType": "address"
        }
      ],
      "outputs": [
        {
          "name": "hasApr",
          "type": "bool",
          "internalType": "bool"
        },
        {
          "name": "aprBps",
          "type": "uint256",
          "internalType": "uint256"
        },
        {
          "name": "haveHf",
          "type": "bool",
          "internalType": "bool"
        },
        {
          "name": "hfBps",
          "type": "uint256",
          "internalType": "uint256"
        }
      ],
      "stateMutability": "view"
    },
    {
      "type": "function",
      "name": "getRoleAdmin",
      "inputs": [
        {
          "name": "role",
          "type": "bytes32",
          "internalType": "bytes32"
        }
      ],
      "outputs": [
        {
          "name": "",
          "type": "bytes32",
          "internalType": "bytes32"
        }
      ],
      "stateMutability": "view"
    },
    {
      "type": "function",
      "name": "grantRole",
      "inputs": [
        {
          "name": "role",
          "type": "bytes32",
          "internalType": "bytes32"
        },
        {
          "name": "account",
          "type": "address",
          "internalType": "address"
        }
      ],
      "outputs": [],
      "stateMutability": "nonpayable"
    },
    {
      "type": "function",
      "name": "hasRole",
      "inputs": [
        {
          "name": "role",
          "type": "bytes32",
          "internalType": "bytes32"
        },
        {
          "name": "account",
          "type": "address",
          "internalType": "address"
        }
      ],
      "outputs": [
        {
          "name": "",
          "type": "bool",
          "internalType": "bool"
        }
      ],
      "stateMutability": "view"
    },
    {
      "type": "function",
      "name": "paused",
      "inputs": [],
      "outputs": [
        {
          "name": "",
          "type": "bool",
          "internalType": "bool"
        }
      ],
      "stateMutability": "view"
    },
    {
      "type": "function",
      "name": "renounceRole",
      "inputs": [
        {
          "name": "role",
          "type": "bytes32",
          "internalType": "bytes32"
        },
        {
          "name": "callerConfirmation",
          "type": "address",
          "internalType": "address"
        }
      ],
      "outputs": [],
      "stateMutability": "nonpayable"
    },
    {
      "type": "function",
      "name": "repay",
      "inputs": [
        {
          "name": "debtAsset",
          "type": "address",
          "internalType": "address"
        },
        {
          "name": "amount",
          "type": "uint256",
          "internalType": "uint256"
        },
        {
          "name": "data",
          "type": "bytes",
          "internalType": "bytes"
        }
      ],
      "outputs": [
        {
          "name": "repaid",
          "type": "uint256",
          "internalType": "uint256"
        }
      ],
      "stateMutability": "nonpayable"
    },
    {
      "type": "function",
      "name": "revokeRole",
      "inputs": [
        {
          "name": "role",
          "type": "bytes32",
          "internalType": "bytes32"
        },
        {
          "name": "account",
          "type": "address",
          "internalType": "address"
        }
      ],
      "outputs": [],
      "stateMutability": "nonpayable"
    },
    {
      "type": "function",
      "name": "setPaused",
      "inputs": [
        {
          "name": "on",
          "type": "bool",
          "internalType": "bool"
        }
      ],
      "outputs": [],
      "stateMutability": "nonpayable"
    },
    {
      "type": "function",
      "name": "supplyCollateral",
      "inputs": [
        {
          "name": "collateral",
          "type": "address",
          "internalType": "address"
        },
        {
          "name": "amount",
          "type": "uint256",
          "internalType": "uint256"
        },
        {
          "name": "data",
          "type": "bytes",
          "internalType": "bytes"
        }
      ],
      "outputs": [],
      "stateMutability": "nonpayable"
    },
    {
      "type": "function",
      "name": "supportsInterface",
      "inputs": [
        {
          "name": "interfaceId",
          "type": "bytes4",
          "internalType": "bytes4"
        }
      ],
      "outputs": [
        {
          "name": "",
          "type": "bool",
          "internalType": "bool"
        }
      ],
      "stateMutability": "view"
    },
    {
      "type": "function",
      "name": "withdrawCollateral",
      "inputs": [
        {
          "name": "collateral",
          "type": "address",
          "internalType": "address"
        },
        {
          "name": "amount",
          "type": "uint256",
          "internalType": "uint256"
        },
        {
          "name": "data",
          "type": "bytes",
          "internalType": "bytes"
        }
      ],
      "outputs": [
        {
          "name": "withdrawn",
          "type": "uint256",
          "internalType": "uint256"
        }
      ],
      "stateMutability": "nonpayable"
    },
    {
      "type": "event",
      "name": "Borrowed",
      "inputs": [
        {
          "name": "debtAsset",
          "type": "address",
          "indexed": true,
          "internalType": "address"
        },
        {
          "name": "amount",
          "type": "uint256",
          "indexed": false,
          "internalType": "uint256"
        }
      ],
      "anonymous": false
    },
    {
      "type": "event",
      "name": "Paused",
      "inputs": [
        {
          "name": "account",
          "type": "address",
          "indexed": false,
          "internalType": "address"
        }
      ],
      "anonymous": false
    },
    {
      "type": "event",
      "name": "Repaid",
      "inputs": [
        {
          "name": "debtAsset",
          "type": "address",
          "indexed": true,
          "internalType": "address"
        },
        {
          "name": "amount",
          "type": "uint256",
          "indexed": false,
          "internalType": "uint256"
        }
      ],
      "anonymous": false
    },
    {
      "type": "event",
      "name": "RoleAdminChanged",
      "inputs": [
        {
          "name": "role",
          "type": "bytes32",
          "indexed": true,
          "internalType": "bytes32"
        },
        {
          "name": "previousAdminRole",
          "type": "bytes32",
          "indexed": true,
          "internalType": "bytes32"
        },
        {
          "name": "newAdminRole",
          "type": "bytes32",
          "indexed": true,
          "internalType": "bytes32"
        }
      ],
      "anonymous": false
    },
    {
      "type": "event",
      "name": "RoleGranted",
      "inputs": [
        {
          "name": "role",
          "type": "bytes32",
          "indexed": true,
          "internalType": "bytes32"
        },
        {
          "name": "account",
          "type": "address",
          "indexed": true,
          "internalType": "address"
        },
        {
          "name": "sender",
          "type": "address",
          "indexed": true,
          "internalType": "address"
        }
      ],
      "anonymous": false
    },
    {
      "type": "event",
      "name": "RoleRevoked",
      "inputs": [
        {
          "name": "role",
          "type": "bytes32",
          "indexed": true,
          "internalType": "bytes32"
        },
        {
          "name": "account",
          "type": "address",
          "indexed": true,
          "internalType": "address"
        },
        {
          "name": "sender",
          "type": "address",
          "indexed": true,
          "internalType": "address"
        }
      ],
      "anonymous": false
    },
    {
      "type": "event",
      "name": "Supplied",
      "inputs": [
        {
          "name": "collateral",
          "type": "address",
          "indexed": true,
          "internalType": "address"
        },
        {
          "name": "amount",
          "type": "uint256",
          "indexed": false,
          "internalType": "uint256"
        }
      ],
      "anonymous": false
    },
    {
      "type": "event",
      "name": "Unpaused",
      "inputs": [
        {
          "name": "account",
          "type": "address",
          "indexed": false,
          "internalType": "address"
        }
      ],
      "anonymous": false
    },
    {
      "type": "event",
      "name": "Withdrawn",
      "inputs": [
        {
          "name": "collateral",
          "type": "address",
          "indexed": true,
          "internalType": "address"
        },
        {
          "name": "amount",
          "type": "uint256",
          "indexed": false,
          "internalType": "uint256"
        }
      ],
      "anonymous": false
    },
    {
      "type": "error",
      "name": "AccessControlBadConfirmation",
      "inputs": []
    },
    {
      "type": "error",
      "name": "AccessControlUnauthorizedAccount",
      "inputs": [
        {
          "name": "account",
          "type": "address",
          "internalType": "address"
        },
        {
          "name": "neededRole",
          "type": "bytes32",
          "internalType": "bytes32"
        }
      ]
    },
    {
      "type": "error",
      "name": "EnforcedPause",
      "inputs": []
    },
    {
      "type": "error",
      "name": "ExpectedPause",
      "inputs": []
    }
  ],
  "bytecode": {
    "object": "0x608060405234801561000f575f80fd5b5060405162000f6e38038062000f6e83398101604081905261003091610155565b818161005c7fb058f49d6462f3b1a3b260356aa683712ff15e590972bfac826dd6f0ac9f69cc83610091565b506100877f14d709f3f05686e62c95aa969cf0a78b04a197162d2e5b7a0b48f3c77bb2512482610091565b5050505050610186565b5f828152602081815260408083206001600160a01b038516845290915281205460ff16610131575f838152602081815260408083206001600160a01b03861684529091529020805460ff191660011790556100e93390565b6001600160a01b0316826001600160a01b0316847f2f8788117e7eff1d82e926ec794901d17c78024a50270940304540a733656f0d60405160405180910390a4506001610134565b505f5b92915050565b80516001600160a01b0381168114610150575f80fd5b919050565b5f8060408385031215610166575f80fd5b61016f8361013a565b915061017d6020840161013a565b90509250929050565b610dda80620001945f395ff3fe608060405234801561000f575f80fd5b5060043610610127575f3560e01c80636a987c69116100a9578063a217fddf1161006e578063a217fddf146102ab578063a515ace3146102b2578063d283e75f146102d9578063d547741f146102f8578063f80b65651461030b575f80fd5b80636a987c69146102375780636e2246a71461024a57806386a5191e1461025d57806391d1485414610270578063a1bf284014610283575f80fd5b80631aefb107116100ef5780631aefb107146101c5578063248a9ca3146101e45780632f2ff15d1461020657806336568abe146102195780635c975abb1461022c575f80fd5b806301ffc9a71461012b57806307c7ac1b1461015357806311005b071461017557806316c38b3c1461019d57806316f1aa30146101b2575b5f80fd5b61013e610139366004610bbf565b61034c565b60405190151581526020015b60405180910390f35b6101675f80516020610d8583398151915281565b60405190815260200161014a565b610167610183366004610c08565b6001600160a01b03165f9081526003602052604090205490565b6101b06101ab366004610c2e565b610382565b005b6101b06101c0366004610c49565b6103c5565b6101676101d3366004610c08565b60026020525f908152604090205481565b6101676101f2366004610cc9565b5f9081526020819052604090206001015490565b6101b0610214366004610ce0565b61043a565b6101b0610227366004610ce0565b610464565b60015460ff1661013e565b610167610245366004610c49565b61049c565b6101b0610258366004610c49565b610516565b61016761026b366004610c49565b61057c565b61013e61027e366004610ce0565b6105e5565b610167610291366004610c08565b6001600160a01b03165f9081526002602052604090205490565b6101675f81565b6101677fb058f49d6462f3b1a3b260356aa683712ff15e590972bfac826dd6f0ac9f69cc81565b6101676102e7366004610c08565b60036020525f908152604090205481565b6101b0610306366004610ce0565b61060d565b610324610319366004610c08565b5f8080809193509193565b604080519415158552602085019390935290151591830191909152606082015260800161014a565b5f6001600160e01b03198216637965db0b60e01b148061037c57506301ffc9a760e01b6001600160e01b03198316145b92915050565b7fb058f49d6462f3b1a3b260356aa683712ff15e590972bfac826dd6f0ac9f69cc6103ac81610631565b816103bd576103b961063e565b5050565b6103b9610690565b5f80516020610d858339815191526103dc81610631565b6103e46106cb565b6103f0858585856106f1565b846001600160a01b03167f6473c9f7da8f23a3d810f05b3e8fb3945f0ad17deadcc09e302cdf5d58e48fe78560405161042b91815260200190565b60405180910390a25050505050565b5f8281526020819052604090206001015461045481610631565b61045e83836107c0565b50505050565b6001600160a01b038116331461048d5760405163334bd91960e11b815260040160405180910390fd5b610497828261084f565b505050565b5f5f80516020610d858339815191526104b481610631565b6104bc6106cb565b6104c8868686866108b8565b9150856001600160a01b03167f7084f5476618d8e60b11ef0d7d3f06914655adb8793e28ff7f018d4c76d505d58360405161050591815260200190565b60405180910390a250949350505050565b5f80516020610d8583398151915261052d81610631565b6105356106cb565b610541858585856109ca565b846001600160a01b03167fac59582e5396aca512fa873a2047e7f4c80f8f55d4a06cb34a78a0187f62719f8560405161042b91815260200190565b5f5f80516020610d8583398151915261059481610631565b61059c6106cb565b6105a886868686610a76565b9150856001600160a01b03167f0516911bcc3a0a7412a44601057c0a0a1ec628bde049a84284bc4288665344888360405161050591815260200190565b5f918252602082815260408084206001600160a01b0393909316845291905290205460ff1690565b5f8281526020819052604090206001015461062781610631565b61045e838361084f565b61063b8133610b63565b50565b610646610b9c565b6001805460ff191690557f5db9ee0a495bf2e6ff9c91a7834c1ba4fdd244a5e8aa4e537bd38aeae4b073aa335b6040516001600160a01b03909116815260200160405180910390a1565b6106986106cb565b6001805460ff1916811790557f62e78cea01bee320cd4e420270b5ea74000d11b0c9f74754ebdbfc544b05a25833610673565b60015460ff16156106ef5760405163d93c066560e01b815260040160405180910390fd5b565b5f83116107195760405162461bcd60e51b815260040161071090610d0a565b60405180910390fd5b6040516323b872dd60e01b8152336004820152306024820152604481018490526001600160a01b038516906323b872dd906064016020604051808303815f875af1158015610769573d5f803e3d5ffd5b505050506040513d601f19601f8201168201806040525081019061078d9190610d2f565b506001600160a01b0384165f90815260026020526040812080548592906107b5908490610d5e565b909155505050505050565b5f6107cb83836105e5565b610848575f838152602081815260408083206001600160a01b03861684529091529020805460ff191660011790556108003390565b6001600160a01b0316826001600160a01b0316847f2f8788117e7eff1d82e926ec794901d17c78024a50270940304540a733656f0d60405160405180910390a450600161037c565b505f61037c565b5f61085a83836105e5565b15610848575f838152602081815260408083206001600160a01b0386168085529252808320805460ff1916905551339286917ff6391f5c32d9c69d2a47ea670b442974b53935d1edc7fd64eb21e047a839171b9190a450600161037c565b5f8084116108d85760405162461bcd60e51b815260040161071090610d0a565b6001600160a01b0385165f90815260026020526040902054848110156109365760405162461bcd60e51b8152602060048201526013602482015272125394d551919250d251539517d0d3d3131055606a1b6044820152606401610710565b6109408582610d71565b6001600160a01b0387165f818152600260205260409081902092909255905163a9059cbb60e01b81523360048201526024810187905263a9059cbb906044016020604051808303815f875af115801561099b573d5f803e3d5ffd5b505050506040513d601f19601f820116820180604052508101906109bf9190610d2f565b509395945050505050565b5f83116109e95760405162461bcd60e51b815260040161071090610d0a565b6001600160a01b0384165f9081526003602052604081208054859290610a10908490610d5e565b90915550506040516340c10f1960e01b8152336004820152602481018490526001600160a01b038516906340c10f19906044015f604051808303815f87803b158015610a5a575f80fd5b505af1158015610a6c573d5f803e3d5ffd5b5050505050505050565b5f808411610a965760405162461bcd60e51b815260040161071090610d0a565b6001600160a01b0385165f9081526003602052604081205490818611610abc5785610abe565b815b6040516323b872dd60e01b8152336004820152306024820152604481018290529091506001600160a01b038816906323b872dd906064016020604051808303815f875af1158015610b11573d5f803e3d5ffd5b505050506040513d601f19601f82011682018060405250810190610b359190610d2f565b50610b408183610d71565b6001600160a01b0388165f90815260036020526040902055915050949350505050565b610b6d82826105e5565b6103b95760405163e2517d3f60e01b81526001600160a01b038216600482015260248101839052604401610710565b60015460ff166106ef57604051638dfc202b60e01b815260040160405180910390fd5b5f60208284031215610bcf575f80fd5b81356001600160e01b031981168114610be6575f80fd5b9392505050565b80356001600160a01b0381168114610c03575f80fd5b919050565b5f60208284031215610c18575f80fd5b610be682610bed565b801515811461063b575f80fd5b5f60208284031215610c3e575f80fd5b8135610be681610c21565b5f805f8060608587031215610c5c575f80fd5b610c6585610bed565b935060208501359250604085013567ffffffffffffffff80821115610c88575f80fd5b818701915087601f830112610c9b575f80fd5b813581811115610ca9575f80fd5b886020828501011115610cba575f80fd5b95989497505060200194505050565b5f60208284031215610cd9575f80fd5b5035919050565b5f8060408385031215610cf1575f80fd5b82359150610d0160208401610bed565b90509250929050565b6020808252600b908201526a16915493d7d05353d5539560aa1b604082015260600190565b5f60208284031215610d3f575f80fd5b8151610be681610c21565b634e487b7160e01b5f52601160045260245ffd5b8082018082111561037c5761037c610d4a565b8181038181111561037c5761037c610d4a56fe14d709f3f05686e62c95aa969cf0a78b04a197162d2e5b7a0b48f3c77bb25124a26469706673582212205a604256dea9301e520be55be55bbd31056c5c6c0c883465cbc3c9d402ac86d964736f6c63430008180033",
    "linkReferences": {}
  },
  "methodIdentifiers": {
    "DEFAULT_ADMIN_ROLE()": "a217fddf",
    "ROLE_CG()": "07c7ac1b",
    "ROLE_GOV()": "a515ace3",
    "borrow(address,uint256,bytes)": "6e2246a7",
    "collateralBalance(address)": "a1bf2840",
    "collateralOf(address)": "1aefb107",
    "debtBalance(address)": "11005b07",
    "debtOf(address)": "d283e75f",
    "getRiskSignals(address)": "f80b6565",
    "getRoleAdmin(bytes32)": "248a9ca3",
    "grantRole(bytes32,address)": "2f2ff15d",
    "hasRole(bytes32,address)": "91d14854",
    "paused()": "5c975abb",
    "renounceRole(bytes32,address)": "36568abe",
    "repay(address,uint256,bytes)": "86a5191e",
    "revokeRole(bytes32,address)": "d547741f",
    "setPaused(bool)": "16c38b3c",
    "supplyCollateral(address,uint256,bytes)": "16f1aa30",
    "supportsInterface(bytes4)": "01ffc9a7",
    "withdrawCollateral(address,uint256,bytes)": "6a987c69"
  },
  "storageLayout": {
    "storage": [
      {
        "astId": 4377,
        "contract": "test/MockBorrowAdapter.sol:MockBorrowAdapter",
        "label": "_roles",
        "offset": 0,
        "slot": "0",
        "type": "t_mapping(t_bytes32,t_struct(RoleData)4372_storage)"
      },
      {
        "astId": 9234,
        "contract": "test/MockBorrowAdapter.sol:MockBorrowAdapter",
        "label": "_paused",
        "offset": 0,
        "slot": "1",
        "type": "t_bool"
      },
      {
        "astId": 79766,
        "contract": "test/MockBorrowAdapter.sol:MockBorrowAdapter",
        "label": "collateralOf",
        "offset": 0,
        "slot": "2",
        "type": "t_mapping(t_address,t_uint256)"
      },
      {
        "astId": 79770,
        "contract": "test/MockBorrowAdapter.sol:MockBorrowAdapter",
        "label": "debtOf",
        "offset": 0,
        "slot": "3",
        "type": "t_mapping(t_address,t_uint256)"
      }
    ],
    "types": {
      "t_address": {
        "encoding": "inplace",
        "label": "address",
        "numberOfBytes": "20"
      },
      "t_bool": {
        "encoding": "inplace",
        "label": "bool",
        "numberOfBytes": "1"
      },
      "t_bytes32": {
        "encoding": "inplace",
        "label": "bytes32",
        "numberOfBytes": "32"
      },
      "t_mapping(t_address,t_bool)": {
        "encoding": "mapping",
        "key": "t_address",
        "label": "mapping(address => bool)",
        "numberOfBytes": "32",
        "value": "t_bool"
      },
      "t_mapping(t_address,t_uint256)": {
        "encoding": "mapping",
        "key": "t_address",
        "label": "mapping(address => uint256)",
        "numberOfBytes": "32",
        "value": "t_uint256"
      },
      "t_mapping(t_bytes32,t_struct(RoleData)4372_storage)": {
        "encoding": "mapping",
        "key": "t_bytes32",
        "label": "mapping(bytes32 => struct AccessControl.RoleData)",
        "numberOfBytes": "32",
        "value": "t_struct(RoleData)4372_storage"
      },
      "t_struct(RoleData)4372_storage": {
        "encoding": "inplace",
        "label": "struct AccessControl.RoleData",
        "numberOfBytes": "64",
        "members": [
          {
            "astId": 4369,
            "contract": "test/MockBorrowAdapter.sol:MockBorrowAdapter",
            "label": "hasRole",
            "offset": 0,
            "slot": "0",
            "type": "t_mapping(t_address,t_bool)"
          },
          {
            "astId": 4371,
            "contract": "test/MockBorrowAdapter.sol:MockBorrowAdapter",
            "label": "adminRole",
            "offset": 0,
            "slot": "1",
            "type": "t_bytes32"
          }
        ]
      },
      "t_uint256": {
        "encoding": "inplace",
        "label": "uint256",
        "numberOfBytes": "32"
      }
    }
  },
  "id": 120
}