{"abi":[{"type":"constructor","inputs":[{"name":"_owners","type":"address[]","internalType":"address[]"},{"name":"_threshold","type":"uint256","internalType":"uint256"},{"name":"_registryAddress","type":"address","internalType":"address"},{"name":"_routerAddress","type":"address","internalType":"address"}],"stateMutability":"payable"},{"type":"receive","stateMutability":"payable"},{"type":"function","name":"confirmProposal","inputs":[{"name":"_proposalId","type":"uint256","internalType":"uint256"}],"outputs":[],"stateMutability":"nonpayable"},{"type":"function","name":"confirmations","inputs":[{"name":"","type":"uint256","internalType":"uint256"},{"name":"","type":"address","internalType":"address"}],"outputs":[{"name":"","type":"bool","internalType":"bool"}],"stateMutability":"view"},{"type":"function","name":"executeProposal","inputs":[{"name":"_proposalId","type":"uint256","internalType":"uint256"}],"outputs":[],"stateMutability":"nonpayable"},{"type":"function","name":"isOwner","inputs":[{"name":"","type":"address","internalType":"address"}],"outputs":[{"name":"","type":"bool","internalType":"bool"}],"stateMutability":"view"},{"type":"function","name":"owners","inputs":[{"name":"","type":"uint256","internalType":"uint256"}],"outputs":[{"name":"","type":"address","internalType":"address"}],"stateMutability":"view"},{"type":"function","name":"proposalCount","inputs":[],"outputs":[{"name":"","type":"uint256","internalType":"uint256"}],"stateMutability":"view"},{"type":"function","name":"proposals","inputs":[{"name":"","type":"uint256","internalType":"uint256"}],"outputs":[{"name":"destination","type":"address","internalType":"address"},{"name":"value","type":"uint256","internalType":"uint256"},{"name":"data","type":"bytes","internalType":"bytes"},{"name":"executed","type":"bool","internalType":"bool"},{"name":"confirmationsCount","type":"uint256","internalType":"uint256"}],"stateMutability":"view"},{"type":"function","name":"registryAddress","inputs":[],"outputs":[{"name":"","type":"address","internalType":"address"}],"stateMutability":"view"},{"type":"function","name":"routerAddress","inputs":[],"outputs":[{"name":"","type":"address","internalType":"address"}],"stateMutability":"view"},{"type":"function","name":"submitProposal","inputs":[{"name":"_destination","type":"address","internalType":"address"},{"name":"_value","type":"uint256","internalType":"uint256"},{"name":"_data","type":"bytes","internalType":"bytes"}],"outputs":[{"name":"proposalId","type":"uint256","internalType":"uint256"}],"stateMutability":"nonpayable"},{"type":"function","name":"threshold","inputs":[],"outputs":[{"name":"","type":"uint256","internalType":"uint256"}],"stateMutability":"view"},{"type":"event","name":"Confirmation","inputs":[{"name":"owner","type":"address","indexed":true,"internalType":"address"},{"name":"proposalId","type":"uint256","indexed":true,"internalType":"uint256"}],"anonymous":false},{"type":"event","name":"Execution","inputs":[{"name":"proposalId","type":"uint256","indexed":true,"internalType":"uint256"}],"anonymous":false},{"type":"event","name":"Revocation","inputs":[{"name":"owner","type":"address","indexed":true,"internalType":"address"},{"name":"proposalId","type":"uint256","indexed":true,"internalType":"uint256"}],"anonymous":false},{"type":"event","name":"Submission","inputs":[{"name":"proposalId","type":"uint256","indexed":true,"internalType":"uint256"}],"anonymous":false},{"type":"error","name":"ReentrancyGuardReentrantCall","inputs":[]}],"bytecode":{"object":"0x6080604052604051620014e3380380620014e383398101604081905262000026916200034c565b60015f5583516200007e5760405162461bcd60e51b815260206004820181905260248201527f4256533a206f776e657273206c6973742063616e6e6f7420626520656d70747960448201526064015b60405180910390fd5b5f831180156200008f575083518311155b620000dd5760405162461bcd60e51b815260206004820152601660248201527f4256533a20696e76616c6964207468726573686f6c6400000000000000000000604482015260640162000075565b5f5b845181101562000225575f6001600160a01b031685828151811062000108576200010862000449565b60200260200101516001600160a01b031603620001725760405162461bcd60e51b815260206004820152602160248201527f4256533a206f776e657220616464726573732063616e6e6f74206265207a65726044820152606f60f81b606482015260840162000075565b600160045f8784815181106200018c576200018c62000449565b60200260200101516001600160a01b03166001600160a01b031681526020019081526020015f205f6101000a81548160ff0219169083151502179055506001858281518110620001e057620001e062000449565b6020908102919091018101518254600180820185555f9485529290932090920180546001600160a01b0319166001600160a01b039093169290921790915501620000df565b506005839055600280546001600160a01b038085166001600160a01b03199283168117909355600380549185169190921617905560405163344aa0cf60e21b815263d12a833c90620002e3906004016040808252600b908201526a7777772e64616f2e636f6d60a81b6060820152608060208201819052602c908201527f4120676f7665726e616e636520626173656420426974636f696e2056616c696460a08201526b61746564205365727669636560a01b60c082015260e00190565b5f604051808303815f87803b158015620002fb575f80fd5b505af11580156200030e573d5f803e3d5ffd5b50505050505050506200045d565b634e487b7160e01b5f52604160045260245ffd5b80516001600160a01b038116811462000347575f80fd5b919050565b5f805f806080858703121562000360575f80fd5b84516001600160401b038082111562000377575f80fd5b818701915087601f8301126200038b575f80fd5b8151602082821115620003a257620003a26200031c565b8160051b604051601f19603f83011681018181108682111715620003ca57620003ca6200031c565b60405292835281830193508481018201928b841115620003e8575f80fd5b948201945b838610156200041157620004018662000330565b85529482019493820193620003ed565b8099505050808901519650505050506200042e6040860162000330565b91506200043e6060860162000330565b905092959194509250565b634e487b7160e01b5f52603260045260245ffd5b611078806200046b5f395ff3fe6080604052600436106100bb575f3560e01c80633268cc5611610071578063da35c6641161004c578063da35c66414610249578063ed9aab511461025e578063f4a4f4d21461028a575f80fd5b80633268cc56146101cf5780633411c81c146101fb57806342cde4e814610234575f80fd5b80630d61b519116100a15780630d61b5191461014357806311d03015146101645780632f54bf6e14610191575f80fd5b8063013cf08b146100c6578063025e7c27146100ff575f80fd5b366100c257005b5f80fd5b3480156100d1575f80fd5b506100e56100e0366004610b68565b6102a9565b6040516100f6959493929190610b7f565b60405180910390f35b34801561010a575f80fd5b5061011e610119366004610b68565b610378565b60405173ffffffffffffffffffffffffffffffffffffffff90911681526020016100f6565b34801561014e575f80fd5b5061016261015d366004610b68565b6103ad565b005b34801561016f575f80fd5b5061018361017e366004610c79565b6106eb565b6040519081526020016100f6565b34801561019c575f80fd5b506101bf6101ab366004610d5b565b60046020525f908152604090205460ff1681565b60405190151581526020016100f6565b3480156101da575f80fd5b5060035461011e9073ffffffffffffffffffffffffffffffffffffffff1681565b348015610206575f80fd5b506101bf610215366004610d74565b600760209081525f928352604080842090915290825290205460ff1681565b34801561023f575f80fd5b5061018360055481565b348015610254575f80fd5b5061018360085481565b348015610269575f80fd5b5060025461011e9073ffffffffffffffffffffffffffffffffffffffff1681565b348015610295575f80fd5b506101626102a4366004610b68565b61088d565b60066020525f908152604090208054600182015460028301805473ffffffffffffffffffffffffffffffffffffffff9093169391926102e790610d9e565b80601f016020809104026020016040519081016040528092919081815260200182805461031390610d9e565b801561035e5780601f106103355761010080835404028352916020019161035e565b820191905f5260205f20905b81548152906001019060200180831161034157829003601f168201915b505050506003830154600490930154919260ff1691905085565b60018181548110610387575f80fd5b5f9182526020909120015473ffffffffffffffffffffffffffffffffffffffff16905081565b335f9081526004602052604090205460ff1661042a576040517f08c379a000000000000000000000000000000000000000000000000000000000815260206004820152601160248201527f4256533a206e6f7420616e206f776e657200000000000000000000000000000060448201526064015b60405180910390fd5b806008548110610496576040517f08c379a000000000000000000000000000000000000000000000000000000000815260206004820152601c60248201527f4256533a2070726f706f73616c20646f6573206e6f74206578697374000000006044820152606401610421565b5f82815260066020526040902060030154829060ff1615610513576040517f08c379a000000000000000000000000000000000000000000000000000000000815260206004820152601e60248201527f4256533a2070726f706f73616c20616c726561647920657865637574656400006044820152606401610421565b61051b610b27565b6005545f848152600660205260409020600401541015610597576040517f08c379a000000000000000000000000000000000000000000000000000000000815260206004820152601d60248201527f4256533a206e6f7420656e6f75676820636f6e6669726d6174696f6e730000006044820152606401610421565b5f838152600660205260408082206003810180547fffffffffffffffffffffffffffffffffffffffffffffffffffffffffffffff00166001908117909155815490820154925191939273ffffffffffffffffffffffffffffffffffffffff90911691610607906002860190610def565b5f6040518083038185875af1925050503d805f8114610641576040519150601f19603f3d011682016040523d82523d5f602084013e610646565b606091505b50509050806106b1576040517f08c379a000000000000000000000000000000000000000000000000000000000815260206004820152601e60248201527f4256533a2070726f706f73616c20657865637574696f6e206661696c656400006044820152606401610421565b60405185907f33e13ecb54c3076d8e8bb8c2881800a4d972b792045ffae98fdf46df365fed75905f90a250506106e660015f55565b505050565b335f9081526004602052604081205460ff16610763576040517f08c379a000000000000000000000000000000000000000000000000000000000815260206004820152601160248201527f4256533a206e6f7420616e206f776e65720000000000000000000000000000006044820152606401610421565b506008546040805160a08101825273ffffffffffffffffffffffffffffffffffffffff868116825260208083018781528385018781525f6060860181905260808601819052878152600690935294909120835181547fffffffffffffffffffffffff0000000000000000000000000000000000000000169316929092178255516001820155915190919060028201906107fc9082610eca565b5060608201516003820180547fffffffffffffffffffffffffffffffffffffffffffffffffffffffffffffff001691151591909117905560809091015160049091015560088054905f61084e83610fe6565b909155505060405181907fc0ba8fe4b176c1714197d43b9cc6bcf797a4a7461c5fe8d0ef6e184ae7601e51905f90a26108868161088d565b9392505050565b335f9081526004602052604090205460ff16610905576040517f08c379a000000000000000000000000000000000000000000000000000000000815260206004820152601160248201527f4256533a206e6f7420616e206f776e65720000000000000000000000000000006044820152606401610421565b806008548110610971576040517f08c379a000000000000000000000000000000000000000000000000000000000815260206004820152601c60248201527f4256533a2070726f706f73616c20646f6573206e6f74206578697374000000006044820152606401610421565b5f82815260066020526040902060030154829060ff16156109ee576040517f08c379a000000000000000000000000000000000000000000000000000000000815260206004820152601e60248201527f4256533a2070726f706f73616c20616c726561647920657865637574656400006044820152606401610421565b5f83815260076020908152604080832033845290915290205460ff1615610a97576040517f08c379a000000000000000000000000000000000000000000000000000000000815260206004820152602d60248201527f4256533a2070726f706f73616c20616c726561647920636f6e6669726d65642060448201527f62792074686973206f776e6572000000000000000000000000000000000000006064820152608401610421565b5f838152600760209081526040808320338452825280832080547fffffffffffffffffffffffffffffffffffffffffffffffffffffffffffffff0016600117905585835260069091528120600401805491610af183610fe6565b9091555050604051839033907f4a504a94899432a9846e1aa406dceb1bcfd538bb839071d49d1e5e23f5be30ef905f90a3505050565b60025f5403610b62576040517f3ee5aeb500000000000000000000000000000000000000000000000000000000815260040160405180910390fd5b60025f55565b5f60208284031215610b78575f80fd5b5035919050565b73ffffffffffffffffffffffffffffffffffffffff861681525f602086602084015260a0604084015285518060a08501525f5b81811015610bce5787810183015185820160c001528201610bb2565b505f60c0828601015260c07fffffffffffffffffffffffffffffffffffffffffffffffffffffffffffffffe0601f83011685010192505050610c14606083018515159052565b8260808301529695505050505050565b803573ffffffffffffffffffffffffffffffffffffffff81168114610c47575f80fd5b919050565b7f4e487b71000000000000000000000000000000000000000000000000000000005f52604160045260245ffd5b5f805f60608486031215610c8b575f80fd5b610c9484610c24565b925060208401359150604084013567ffffffffffffffff80821115610cb7575f80fd5b818601915086601f830112610cca575f80fd5b813581811115610cdc57610cdc610c4c565b604051601f82017fffffffffffffffffffffffffffffffffffffffffffffffffffffffffffffffe0908116603f01168101908382118183101715610d2257610d22610c4c565b81604052828152896020848701011115610d3a575f80fd5b826020860160208301375f6020848301015280955050505050509250925092565b5f60208284031215610d6b575f80fd5b61088682610c24565b5f8060408385031215610d85575f80fd5b82359150610d9560208401610c24565b90509250929050565b600181811c90821680610db257607f821691505b602082108103610de9577f4e487b71000000000000000000000000000000000000000000000000000000005f52602260045260245ffd5b50919050565b5f808354610dfc81610d9e565b60018281168015610e145760018114610e4757610e73565b7fffffffffffffffffffffffffffffffffffffffffffffffffffffffffffffff0084168752821515830287019450610e73565b875f526020805f205f5b85811015610e6a5781548a820152908401908201610e51565b50505082870194505b50929695505050505050565b601f8211156106e657805f5260205f20601f840160051c81016020851015610ea45750805b601f840160051c820191505b81811015610ec3575f8155600101610eb0565b5050505050565b815167ffffffffffffffff811115610ee457610ee4610c4c565b610ef881610ef28454610d9e565b84610e7f565b602080601f831160018114610f4a575f8415610f145750858301515b7fffffffffffffffffffffffffffffffffffffffffffffffffffffffffffffffff600386901b1c1916600185901b178555610fde565b5f858152602081207fffffffffffffffffffffffffffffffffffffffffffffffffffffffffffffffe08616915b82811015610f9657888601518255948401946001909101908401610f77565b5085821015610fd257878501517fffffffffffffffffffffffffffffffffffffffffffffffffffffffffffffffff600388901b60f8161c191681555b505060018460011b0185555b505050505050565b5f7fffffffffffffffffffffffffffffffffffffffffffffffffffffffffffffffff820361103b577f4e487b71000000000000000000000000000000000000000000000000000000005f52601160045260245ffd5b506001019056fea26469706673582212207c458885aaf711877e656b0e4594c1e135b622f48d1591ae4cebb6e710e0c5bf64736f6c63430008160033","linkReferences":{}},"methodIdentifiers":{"confirmProposal(uint256)":"f4a4f4d2","confirmations(uint256,address)":"3411c81c","executeProposal(uint256)":"0d61b519","isOwner(address)":"2f54bf6e","owners(uint256)":"025e7c27","proposalCount()":"da35c664","proposals(uint256)":"013cf08b","registryAddress()":"ed9aab51","routerAddress()":"3268cc56","submitProposal(address,uint256,bytes)":"11d03015","threshold()":"42cde4e8"},"id":100}