{"abi":[{"type":"constructor","inputs":[],"stateMutability":"nonpayable"},{"type":"function","name":"UPGRADE_INTERFACE_VERSION","inputs":[],"outputs":[{"name":"","type":"string","internalType":"string"}],"stateMutability":"view"},{"type":"function","name":"acceptOwnership","inputs":[],"outputs":[],"stateMutability":"nonpayable"},{"type":"function","name":"claimRewards","inputs":[{"name":"params","type":"tuple","internalType":"struct ISLAYRewardsV2.ClaimableRewardProof","components":[{"name":"provider","type":"address","internalType":"address"},{"name":"token","type":"address","internalType":"address"},{"name":"amount","type":"uint256","internalType":"uint256"},{"name":"recipient","type":"address","internalType":"address"},{"name":"merkleRoot","type":"bytes32","internalType":"bytes32"},{"name":"proof","type":"bytes32[]","internalType":"bytes32[]"},{"name":"leafIndex","type":"uint32","internalType":"uint32"},{"name":"totalLeaves","type":"uint32","internalType":"uint32"}]}],"outputs":[],"stateMutability":"nonpayable"},{"type":"function","name":"distributeRewards","inputs":[{"name":"token","type":"address","internalType":"address"},{"name":"amount","type":"uint256","internalType":"uint256"},{"name":"merkleRoot","type":"bytes32","internalType":"bytes32"}],"outputs":[],"stateMutability":"nonpayable"},{"type":"function","name":"getBalance","inputs":[{"name":"provider","type":"address","internalType":"address"},{"name":"token","type":"address","internalType":"address"}],"outputs":[{"name":"","type":"uint256","internalType":"uint256"}],"stateMutability":"view"},{"type":"function","name":"getClaimedRewards","inputs":[{"name":"provider","type":"address","internalType":"address"},{"name":"token","type":"address","internalType":"address"},{"name":"earner","type":"address","internalType":"address"}],"outputs":[{"name":"","type":"uint256","internalType":"uint256"}],"stateMutability":"view"},{"type":"function","name":"getDistributionRoots","inputs":[{"name":"provider","type":"address","internalType":"address"},{"name":"token","type":"address","internalType":"address"}],"outputs":[{"name":"","type":"tuple","internalType":"struct ISLAYRewardsV2.DistributionRoots","components":[{"name":"prevRoot","type":"bytes32","internalType":"bytes32"},{"name":"currentRoot","type":"bytes32","internalType":"bytes32"}]}],"stateMutability":"view"},{"type":"function","name":"initialize","inputs":[{"name":"initialOwner","type":"address","internalType":"address"}],"outputs":[],"stateMutability":"nonpayable"},{"type":"function","name":"owner","inputs":[],"outputs":[{"name":"","type":"address","internalType":"address"}],"stateMutability":"view"},{"type":"function","name":"pause","inputs":[],"outputs":[],"stateMutability":"nonpayable"},{"type":"function","name":"paused","inputs":[],"outputs":[{"name":"","type":"bool","internalType":"bool"}],"stateMutability":"view"},{"type":"function","name":"pendingOwner","inputs":[],"outputs":[{"name":"","type":"address","internalType":"address"}],"stateMutability":"view"},{"type":"function","name":"proxiableUUID","inputs":[],"outputs":[{"name":"","type":"bytes32","internalType":"bytes32"}],"stateMutability":"view"},{"type":"function","name":"renounceOwnership","inputs":[],"outputs":[],"stateMutability":"nonpayable"},{"type":"function","name":"transferOwnership","inputs":[{"name":"newOwner","type":"address","internalType":"address"}],"outputs":[],"stateMutability":"nonpayable"},{"type":"function","name":"unpause","inputs":[],"outputs":[],"stateMutability":"nonpayable"},{"type":"function","name":"upgradeToAndCall","inputs":[{"name":"newImplementation","type":"address","internalType":"address"},{"name":"data","type":"bytes","internalType":"bytes"}],"outputs":[],"stateMutability":"payable"},{"type":"event","name":"Initialized","inputs":[{"name":"version","type":"uint64","indexed":false,"internalType":"uint64"}],"anonymous":false},{"type":"event","name":"OwnershipTransferStarted","inputs":[{"name":"previousOwner","type":"address","indexed":true,"internalType":"address"},{"name":"newOwner","type":"address","indexed":true,"internalType":"address"}],"anonymous":false},{"type":"event","name":"OwnershipTransferred","inputs":[{"name":"previousOwner","type":"address","indexed":true,"internalType":"address"},{"name":"newOwner","type":"address","indexed":true,"internalType":"address"}],"anonymous":false},{"type":"event","name":"Paused","inputs":[{"name":"account","type":"address","indexed":false,"internalType":"address"}],"anonymous":false},{"type":"event","name":"RewardsClaimed","inputs":[{"name":"provider","type":"address","indexed":true,"internalType":"address"},{"name":"token","type":"address","indexed":true,"internalType":"address"},{"name":"earner","type":"address","indexed":true,"internalType":"address"},{"name":"recipient","type":"address","indexed":false,"internalType":"address"},{"name":"amount","type":"uint256","indexed":false,"internalType":"uint256"},{"name":"merkleRoot","type":"bytes32","indexed":false,"internalType":"bytes32"}],"anonymous":false},{"type":"event","name":"RewardsDistributed","inputs":[{"name":"provider","type":"address","indexed":true,"internalType":"address"},{"name":"token","type":"address","indexed":true,"internalType":"address"},{"name":"amount","type":"uint256","indexed":false,"internalType":"uint256"},{"name":"merkleRoot","type":"bytes32","indexed":true,"internalType":"bytes32"}],"anonymous":false},{"type":"event","name":"Unpaused","inputs":[{"name":"account","type":"address","indexed":false,"internalType":"address"}],"anonymous":false},{"type":"event","name":"Upgraded","inputs":[{"name":"implementation","type":"address","indexed":true,"internalType":"address"}],"anonymous":false},{"type":"error","name":"AddressEmptyCode","inputs":[{"name":"target","type":"address","internalType":"address"}]},{"type":"error","name":"AmountAlreadyClaimed","inputs":[{"name":"provider","type":"address","internalType":"address"},{"name":"token","type":"address","internalType":"address"},{"name":"earner","type":"address","internalType":"address"},{"name":"amount","type":"uint256","internalType":"uint256"}]},{"type":"error","name":"ERC1967InvalidImplementation","inputs":[{"name":"implementation","type":"address","internalType":"address"}]},{"type":"error","name":"ERC1967NonPayable","inputs":[]},{"type":"error","name":"EnforcedPause","inputs":[]},{"type":"error","name":"ExpectedPause","inputs":[]},{"type":"error","name":"FailedCall","inputs":[]},{"type":"error","name":"InsufficientBalance","inputs":[{"name":"provider","type":"address","internalType":"address"},{"name":"token","type":"address","internalType":"address"}]},{"type":"error","name":"InvalidInitialization","inputs":[]},{"type":"error","name":"InvalidMerkleProof","inputs":[]},{"type":"error","name":"InvalidMerkleRoot","inputs":[{"name":"provider","type":"address","internalType":"address"},{"name":"token","type":"address","internalType":"address"},{"name":"merkleRoot","type":"bytes32","internalType":"bytes32"}]},{"type":"error","name":"InvalidProofLength","inputs":[]},{"type":"error","name":"NotInitializing","inputs":[]},{"type":"error","name":"OwnableInvalidOwner","inputs":[{"name":"owner","type":"address","internalType":"address"}]},{"type":"error","name":"OwnableUnauthorizedAccount","inputs":[{"name":"account","type":"address","internalType":"address"}]},{"type":"error","name":"SafeERC20FailedOperation","inputs":[{"name":"token","type":"address","internalType":"address"}]},{"type":"error","name":"StringsInsufficientHexLength","inputs":[{"name":"value","type":"uint256","internalType":"uint256"},{"name":"length","type":"uint256","internalType":"uint256"}]},{"type":"error","name":"UUPSUnauthorizedCallContext","inputs":[]},{"type":"error","name":"UUPSUnsupportedProxiableUUID","inputs":[{"name":"slot","type":"bytes32","internalType":"bytes32"}]}],"bytecode":{"object":"0x60a06040523060805234801562000014575f80fd5b506200001f6200002f565b620000296200002f565b620000e3565b7ff0c57e16840df040f15088dc2f81fe391c3923bec73e23a9662efc9c229c6a00805468010000000000000000900460ff1615620000805760405163f92ee8a960e01b815260040160405180910390fd5b80546001600160401b0390811614620000e05780546001600160401b0319166001600160401b0390811782556040519081527fc7f505b2f371ae2175ee4913f4499e1f2633a7b5936321eed1cdaeb6115181d29060200160405180910390a15b50565b6080516129086200010a5f395f81816113e801528181611411015261163201526129085ff3fe608060405260043610610109575f3560e01c80637733369c116100a1578063ad3cb1cc11610071578063d4fac45d11610057578063d4fac45d1461031e578063e30c39781461036f578063f2fde38b14610383575f80fd5b8063ad3cb1cc146102aa578063c4d66de8146102ff575f80fd5b80637733369c1461022a57806379ba5097146102495780638456cb591461025d5780638da5cb5b14610271575f80fd5b80635c975abb116100dc5780635c975abb1461017c5780635e04f87e146101bd5780636fdaf166146101f7578063715018a614610216575f80fd5b80633f4ba83a1461010d57806340b3a4bf146101235780634f1ef2861461014257806352d1902d14610155575b5f80fd5b348015610118575f80fd5b506101216103a2565b005b34801561012e575f80fd5b5061012161013d3660046123fc565b6103b4565b610121610150366004612459565b61057e565b348015610160575f80fd5b5061016961059d565b6040519081526020015b60405180910390f35b348015610187575f80fd5b507fcd5ed15c6e187e77e9aee88184c21f4f2182ab5827cb3b7e07fbedcd63f033005460ff166040519015158152602001610173565b3480156101c8575f80fd5b506101dc6101d7366004612533565b6105cb565b60408051825181526020928301519281019290925201610173565b348015610202575f80fd5b50610121610211366004612564565b610625565b348015610221575f80fd5b50610121610e6f565b348015610235575f80fd5b5061016961024436600461259c565b610e80565b348015610254575f80fd5b50610121610ec4565b348015610268575f80fd5b50610121610f3f565b34801561027c575f80fd5b50610285610f4f565b60405173ffffffffffffffffffffffffffffffffffffffff9091168152602001610173565b3480156102b5575f80fd5b506102f26040518060400160405280600581526020017f352e302e3000000000000000000000000000000000000000000000000000000081525081565b60405161017391906125fe565b34801561030a575f80fd5b5061012161031936600461264e565b610f90565b348015610329575f80fd5b50610169610338366004612533565b73ffffffffffffffffffffffffffffffffffffffff9182165f90815260016020908152604080832093909416825291909152205490565b34801561037a575f80fd5b50610285611111565b34801561038e575f80fd5b5061012161039d36600461264e565b611139565b6103aa6111f0565b6103b2611248565b565b6103bc6112e5565b80610428576040517f08c379a000000000000000000000000000000000000000000000000000000000815260206004820152601b60248201527f4d65726b6c6520726f6f742063616e6e6f7420626520656d707479000000000060448201526064015b60405180910390fd5b73ffffffffffffffffffffffffffffffffffffffff83166104a5576040517f08c379a000000000000000000000000000000000000000000000000000000000815260206004820152601c60248201527f546f6b656e20616464726573732063616e6e6f74206265207a65726f00000000604482015260640161041f565b338215610501576104b884823086611341565b73ffffffffffffffffffffffffffffffffffffffff8082165f908152600160209081526040808320938816835292905290812080548592906104fb908490612694565b90915550505b73ffffffffffffffffffffffffffffffffffffffff8181165f81815260208181526040808320948916808452948252918290206001810180548255879055915187815291938693909290917f9b7287e3e899d95da564c38a8d18e3c3d2135143b3d53bd6fa257cd8a961afd9910160405180910390a45050505050565b6105866113d0565b61058f826114d4565b61059982826114dc565b5050565b5f6105a661161a565b507f360894a13ba1a3210667c828492db98dca3e2076cc3735a920a3ca505d382bbc90565b6040805180820182525f808252602091820181905273ffffffffffffffffffffffffffffffffffffffff85811682528183528382209085168252825282902082518084019093528054835260010154908201525b92915050565b61062d6112e5565b5f61063e604083016020840161264e565b73ffffffffffffffffffffffffffffffffffffffff16036106bb576040517f08c379a000000000000000000000000000000000000000000000000000000000815260206004820152601c60248201527f546f6b656e20616464726573732063616e6e6f74206265207a65726f00000000604482015260640161041f565b5f816040013511610728576040517f08c379a000000000000000000000000000000000000000000000000000000000815260206004820181905260248201527f416d6f756e74206d7573742062652067726561746572207468616e207a65726f604482015260640161041f565b6080810135610793576040517f08c379a000000000000000000000000000000000000000000000000000000000815260206004820152601b60248201527f4d65726b6c6520726f6f742063616e6e6f7420626520656d7074790000000000604482015260640161041f565b5f80806107a3602085018561264e565b73ffffffffffffffffffffffffffffffffffffffff1673ffffffffffffffffffffffffffffffffffffffff1681526020019081526020015f205f8360200160208101906107f0919061264e565b73ffffffffffffffffffffffffffffffffffffffff1673ffffffffffffffffffffffffffffffffffffffff1681526020019081526020015f209050806001015482608001351415801561084857508054608083013514155b156108c65761085a602083018361264e565b61086a604084016020850161264e565b6040517fc9f7e85100000000000000000000000000000000000000000000000000000000815273ffffffffffffffffffffffffffffffffffffffff9283166004820152911660248201526080830135604482015260640161041f565b335f6002816108d8602087018761264e565b73ffffffffffffffffffffffffffffffffffffffff1673ffffffffffffffffffffffffffffffffffffffff1681526020019081526020015f205f856020016020810190610925919061264e565b73ffffffffffffffffffffffffffffffffffffffff1673ffffffffffffffffffffffffffffffffffffffff1681526020019081526020015f205f8373ffffffffffffffffffffffffffffffffffffffff1673ffffffffffffffffffffffffffffffffffffffff1681526020019081526020015f2054905080846040013511610a29576109b4602085018561264e565b6109c4604086016020870161264e565b604080517fed7deb9d00000000000000000000000000000000000000000000000000000000815273ffffffffffffffffffffffffffffffffffffffff93841660048201529183166024830152918416604482015290850135606482015260840161041f565b60408401358190035f600181610a42602089018961264e565b73ffffffffffffffffffffffffffffffffffffffff1673ffffffffffffffffffffffffffffffffffffffff1681526020019081526020015f205f876020016020810190610a8f919061264e565b73ffffffffffffffffffffffffffffffffffffffff1673ffffffffffffffffffffffffffffffffffffffff1681526020019081526020015f2054905081811015610b4257610ae0602087018761264e565b610af0604088016020890161264e565b6040517f52a16ee800000000000000000000000000000000000000000000000000000000815273ffffffffffffffffffffffffffffffffffffffff92831660048201529116602482015260440161041f565b610bbf610b5260a08801886126a7565b808060200260200160405190810160405280939291908181526020018383602002808284375f920191909152505050506080880135610b9760e08a0160c08b01612712565b63ffffffff16610bae6101008b0160e08c01612712565b63ffffffff16888b60400135611689565b610bf5576040517fb05e92fa00000000000000000000000000000000000000000000000000000000815260040160405180910390fd5b81810360015f610c0860208a018a61264e565b73ffffffffffffffffffffffffffffffffffffffff1673ffffffffffffffffffffffffffffffffffffffff1681526020019081526020015f205f886020016020810190610c55919061264e565b73ffffffffffffffffffffffffffffffffffffffff1673ffffffffffffffffffffffffffffffffffffffff1681526020019081526020015f2081905550856040013560025f885f016020810190610cac919061264e565b73ffffffffffffffffffffffffffffffffffffffff1673ffffffffffffffffffffffffffffffffffffffff1681526020019081526020015f205f886020016020810190610cf9919061264e565b73ffffffffffffffffffffffffffffffffffffffff1673ffffffffffffffffffffffffffffffffffffffff1681526020019081526020015f205f8673ffffffffffffffffffffffffffffffffffffffff1673ffffffffffffffffffffffffffffffffffffffff1681526020019081526020015f2081905550610d9d866020016020810190610d87919061264e565b610d976080890160608a0161264e565b846116b0565b73ffffffffffffffffffffffffffffffffffffffff8416610dc4604088016020890161264e565b73ffffffffffffffffffffffffffffffffffffffff16610de7602089018961264e565b73ffffffffffffffffffffffffffffffffffffffff167f4ba395584971ca8c6ff7586af6bcfddf50b5c3cb179dd2be9cf9316578e24a16610e2e60808b0160608c0161264e565b6040805173ffffffffffffffffffffffffffffffffffffffff90921682526020820188905260808c01359082015260600160405180910390a4505050505050565b610e776111f0565b6103b25f6116ee565b73ffffffffffffffffffffffffffffffffffffffff8084165f90815260026020908152604080832086851684528252808320938516835292905220545b9392505050565b3380610ece611111565b73ffffffffffffffffffffffffffffffffffffffff1614610f33576040517f118cdaa700000000000000000000000000000000000000000000000000000000815273ffffffffffffffffffffffffffffffffffffffff8216600482015260240161041f565b610f3c816116ee565b50565b610f476111f0565b6103b261173e565b5f807f9016d09d72d40fdae2fd8ceac6b6234c7706214fd39c1cd1e609a0528c1993005b5473ffffffffffffffffffffffffffffffffffffffff1692915050565b5f610f996117b7565b805490915060ff68010000000000000000820416159067ffffffffffffffff165f81158015610fc55750825b90505f8267ffffffffffffffff166001148015610fe15750303b155b905081158015610fef575080155b15611026576040517ff92ee8a900000000000000000000000000000000000000000000000000000000815260040160405180910390fd5b84547fffffffffffffffffffffffffffffffffffffffffffffffff000000000000000016600117855583156110875784547fffffffffffffffffffffffffffffffffffffffffffffff00ffffffffffffffff16680100000000000000001785555b611090866117df565b6110986117f0565b6110a06117f0565b6110a86117f0565b83156111095784547fffffffffffffffffffffffffffffffffffffffffffffff00ffffffffffffffff168555604051600181527fc7f505b2f371ae2175ee4913f4499e1f2633a7b5936321eed1cdaeb6115181d29060200160405180910390a15b505050505050565b5f807f237e158222e3e6968b72b9db0d8043aacf074ad9f650f0d1606b4d82ee432c00610f73565b6111416111f0565b7f237e158222e3e6968b72b9db0d8043aacf074ad9f650f0d1606b4d82ee432c0080547fffffffffffffffffffffffff00000000000000000000000000000000000000001673ffffffffffffffffffffffffffffffffffffffff831690811782556111aa610f4f565b73ffffffffffffffffffffffffffffffffffffffff167f38d16b8cac22d99fc7c124b9cd0de2d3fa1faef420bfe791d8c362d765e2270060405160405180910390a35050565b336111f9610f4f565b73ffffffffffffffffffffffffffffffffffffffff16146103b2576040517f118cdaa700000000000000000000000000000000000000000000000000000000815233600482015260240161041f565b6112506117f8565b7fcd5ed15c6e187e77e9aee88184c21f4f2182ab5827cb3b7e07fbedcd63f0330080547fffffffffffffffffffffffffffffffffffffffffffffffffffffffffffffff001681557f5db9ee0a495bf2e6ff9c91a7834c1ba4fdd244a5e8aa4e537bd38aeae4b073aa335b60405173ffffffffffffffffffffffffffffffffffffffff909116815260200160405180910390a150565b7fcd5ed15c6e187e77e9aee88184c21f4f2182ab5827cb3b7e07fbedcd63f033005460ff16156103b2576040517fd93c066500000000000000000000000000000000000000000000000000000000815260040160405180910390fd5b60405173ffffffffffffffffffffffffffffffffffffffff84811660248301528381166044830152606482018390526113ca9186918216906323b872dd906084015b604051602081830303815290604052915060e01b6020820180517bffffffffffffffffffffffffffffffffffffffffffffffffffffffff8381831617835250505050611853565b50505050565b3073ffffffffffffffffffffffffffffffffffffffff7f000000000000000000000000000000000000000000000000000000000000000016148061149d57507f000000000000000000000000000000000000000000000000000000000000000073ffffffffffffffffffffffffffffffffffffffff166114847f360894a13ba1a3210667c828492db98dca3e2076cc3735a920a3ca505d382bbc5473ffffffffffffffffffffffffffffffffffffffff1690565b73ffffffffffffffffffffffffffffffffffffffff1614155b156103b2576040517fe07c8dba00000000000000000000000000000000000000000000000000000000815260040160405180910390fd5b610f3c6111f0565b8173ffffffffffffffffffffffffffffffffffffffff166352d1902d6040518163ffffffff1660e01b8152600401602060405180830381865afa925050508015611561575060408051601f3d9081017fffffffffffffffffffffffffffffffffffffffffffffffffffffffffffffffe016820190925261155e91810190612735565b60015b6115af576040517f4c9c8ce300000000000000000000000000000000000000000000000000000000815273ffffffffffffffffffffffffffffffffffffffff8316600482015260240161041f565b7f360894a13ba1a3210667c828492db98dca3e2076cc3735a920a3ca505d382bbc811461160b576040517faa1d49a40000000000000000000000000000000000000000000000000000000081526004810182905260240161041f565b61161583836118f2565b505050565b3073ffffffffffffffffffffffffffffffffffffffff7f000000000000000000000000000000000000000000000000000000000000000016146103b2576040517fe07c8dba00000000000000000000000000000000000000000000000000000000815260040160405180910390fd5b5f806116958484611954565b90506116a488888389896119db565b98975050505050505050565b60405173ffffffffffffffffffffffffffffffffffffffff83811660248301526044820183905261161591859182169063a9059cbb90606401611383565b7f237e158222e3e6968b72b9db0d8043aacf074ad9f650f0d1606b4d82ee432c0080547fffffffffffffffffffffffff0000000000000000000000000000000000000000168155610599826119f4565b6117466112e5565b7fcd5ed15c6e187e77e9aee88184c21f4f2182ab5827cb3b7e07fbedcd63f0330080547fffffffffffffffffffffffffffffffffffffffffffffffffffffffffffffff001660011781557f62e78cea01bee320cd4e420270b5ea74000d11b0c9f74754ebdbfc544b05a258336112ba565b5f807ff0c57e16840df040f15088dc2f81fe391c3923bec73e23a9662efc9c229c6a0061061f565b6117e7611a89565b610f3c81611ac7565b6103b2611a89565b7fcd5ed15c6e187e77e9aee88184c21f4f2182ab5827cb3b7e07fbedcd63f033005460ff166103b2576040517f8dfc202b00000000000000000000000000000000000000000000000000000000815260040160405180910390fd5b5f8060205f8451602086015f885af180611872576040513d5f823e3d81fd5b50505f513d915081156118895780600114156118a3565b73ffffffffffffffffffffffffffffffffffffffff84163b155b156113ca576040517f5274afe700000000000000000000000000000000000000000000000000000000815273ffffffffffffffffffffffffffffffffffffffff8516600482015260240161041f565b6118fb82611b1e565b60405173ffffffffffffffffffffffffffffffffffffffff8316907fbc7cd75a20ee27fd9adebab32041f755214dbc6bffa90cc0225b39da2e5c2d3b905f90a280511561194c576116158282611bec565b610599611c6b565b5f8061195f84611ca3565b90505f61196b84611d69565b9050818160405160200161198092919061274c565b604080517fffffffffffffffffffffffffffffffffffffffffffffffffffffffffffffffe081840301815282825280516020918201209083015201604051602081830303815290604052805190602001209250505092915050565b5f846119e987868686611e25565b149695505050505050565b7f9016d09d72d40fdae2fd8ceac6b6234c7706214fd39c1cd1e609a0528c19930080547fffffffffffffffffffffffff0000000000000000000000000000000000000000811673ffffffffffffffffffffffffffffffffffffffff848116918217845560405192169182907f8be0079c531659141344cd1fd0a4f28419497f9722a3daafe3b4186f6b6457e0905f90a3505050565b611a91611ee0565b6103b2576040517fd7e6bcf800000000000000000000000000000000000000000000000000000000815260040160405180910390fd5b611acf611a89565b73ffffffffffffffffffffffffffffffffffffffff8116610f33576040517f1e4fbdf70000000000000000000000000000000000000000000000000000000081525f600482015260240161041f565b8073ffffffffffffffffffffffffffffffffffffffff163b5f03611b86576040517f4c9c8ce300000000000000000000000000000000000000000000000000000000815273ffffffffffffffffffffffffffffffffffffffff8216600482015260240161041f565b7f360894a13ba1a3210667c828492db98dca3e2076cc3735a920a3ca505d382bbc80547fffffffffffffffffffffffff00000000000000000000000000000000000000001673ffffffffffffffffffffffffffffffffffffffff92909216919091179055565b60605f808473ffffffffffffffffffffffffffffffffffffffff1684604051611c15919061277a565b5f60405180830381855af49150503d805f8114611c4d576040519150601f19603f3d011682016040523d82523d5f602084013e611c52565b606091505b5091509150611c62858383611efe565b95945050505050565b34156103b2576040517fb398979f00000000000000000000000000000000000000000000000000000000815260040160405180910390fd5b60605f611caf83611f8d565b6028602282012090915060601c60295b6001811115611d6057600782600f16118015611cf457506060838281518110611cea57611cea612795565b016020015160f81c115b15611d4957602060f81b838281518110611d1057611d10612795565b0160200180517fff00000000000000000000000000000000000000000000000000000000000000908116909218909116905f82901a9053505b60049190911c90611d59816127c2565b9050611cbf565b50909392505050565b60605f611d7583611fb0565b60010190505f8167ffffffffffffffff811115611d9457611d9461242c565b6040519080825280601f01601f191660200182016040528015611dbe576020820181803683370190505b5090508181016020015b7fffffffffffffffffffffffffffffffffffffffffffffffffffffffffffffffff017f3031323334353637383961626364656600000000000000000000000000000000600a86061a8153600a8504945084611dc857509392505050565b5f80611e32836001612091565b905085518114611e6e576040517f4dc5f6a400000000000000000000000000000000000000000000000000000000815260040160405180910390fd5b8460015b87518111611ed557611e85600287612823565b5f03611ea957815f526020810288015160205260405f209150600286049550611ec3565b602081028801515f528160205260405f2091506002860495505b80611ecd81612836565b915050611e72565b509695505050505050565b5f611ee96117b7565b5468010000000000000000900460ff16919050565b606082611f1357611f0e82612147565b610ebd565b8151158015611f37575073ffffffffffffffffffffffffffffffffffffffff84163b155b15611f86576040517f9996b31500000000000000000000000000000000000000000000000000000000815273ffffffffffffffffffffffffffffffffffffffff8516600482015260240161041f565b5080610ebd565b606061061f73ffffffffffffffffffffffffffffffffffffffff83166014612188565b5f807a184f03e93ff9f4daa797ed6e38ed64bf6a1f0100000000000000008310611ff8577a184f03e93ff9f4daa797ed6e38ed64bf6a1f010000000000000000830492506040015b6d04ee2d6d415b85acef81000000008310612024576d04ee2d6d415b85acef8100000000830492506020015b662386f26fc10000831061204257662386f26fc10000830492506010015b6305f5e100831061205a576305f5e100830492506008015b612710831061206e57612710830492506004015b60648310612080576064830492506002015b600a831061061f5760010192915050565b5f8061211d845f60076fffffffffffffffffffffffffffffffff8311901b9050600667ffffffffffffffff83831c11901b17600563ffffffff83831c11901b17600461ffff83831c11901b17600360ff83831c11901b176002600f83831c117d010102020202030303030303030300000000000000000000000000000000911b9190911791821c1a1790565b905061213f61212b846123a8565b801561213a575084826001901b105b151590565b019392505050565b80511561215657805160208201fd5b6040517fd6bda27500000000000000000000000000000000000000000000000000000000815260040160405180910390fd5b6060825f61219784600261286d565b6121a2906002612694565b67ffffffffffffffff8111156121ba576121ba61242c565b6040519080825280601f01601f1916602001820160405280156121e4576020820181803683370190505b5090507f3000000000000000000000000000000000000000000000000000000000000000815f8151811061221a5761221a612795565b60200101907effffffffffffffffffffffffffffffffffffffffffffffffffffffffffffff191690815f1a9053507f78000000000000000000000000000000000000000000000000000000000000008160018151811061227c5761227c612795565b60200101907effffffffffffffffffffffffffffffffffffffffffffffffffffffffffffff191690815f1a9053505f6122b685600261286d565b6122c1906001612694565b90505b600181111561235d577f303132333435363738396162636465660000000000000000000000000000000083600f166010811061230257612302612795565b1a60f81b82828151811061231857612318612795565b60200101907effffffffffffffffffffffffffffffffffffffffffffffffffffffffffffff191690815f1a90535060049290921c91612356816127c2565b90506122c4565b5081156123a0576040517fe22e27eb000000000000000000000000000000000000000000000000000000008152600481018690526024810185905260440161041f565b949350505050565b5f60028260038111156123bd576123bd612884565b6123c791906128b1565b60ff166001149050919050565b803573ffffffffffffffffffffffffffffffffffffffff811681146123f7575f80fd5b919050565b5f805f6060848603121561240e575f80fd5b612417846123d4565b95602085013595506040909401359392505050565b7f4e487b71000000000000000000000000000000000000000000000000000000005f52604160045260245ffd5b5f806040838503121561246a575f80fd5b612473836123d4565b9150602083013567ffffffffffffffff8082111561248f575f80fd5b818501915085601f8301126124a2575f80fd5b8135818111156124b4576124b461242c565b604051601f82017fffffffffffffffffffffffffffffffffffffffffffffffffffffffffffffffe0908116603f011681019083821181831017156124fa576124fa61242c565b81604052828152886020848701011115612512575f80fd5b826020860160208301375f6020848301015280955050505050509250929050565b5f8060408385031215612544575f80fd5b61254d836123d4565b915061255b602084016123d4565b90509250929050565b5f60208284031215612574575f80fd5b813567ffffffffffffffff81111561258a575f80fd5b82016101008185031215610ebd575f80fd5b5f805f606084860312156125ae575f80fd5b6125b7846123d4565b92506125c5602085016123d4565b91506125d3604085016123d4565b90509250925092565b5f5b838110156125f65781810151838201526020016125de565b50505f910152565b602081525f825180602084015261261c8160408501602087016125dc565b601f017fffffffffffffffffffffffffffffffffffffffffffffffffffffffffffffffe0169190910160400192915050565b5f6020828403121561265e575f80fd5b610ebd826123d4565b7f4e487b71000000000000000000000000000000000000000000000000000000005f52601160045260245ffd5b8082018082111561061f5761061f612667565b5f8083357fffffffffffffffffffffffffffffffffffffffffffffffffffffffffffffffe18436030181126126da575f80fd5b83018035915067ffffffffffffffff8211156126f4575f80fd5b6020019150600581901b360382131561270b575f80fd5b9250929050565b5f60208284031215612722575f80fd5b813563ffffffff81168114610ebd575f80fd5b5f60208284031215612745575f80fd5b5051919050565b5f835161275d8184602088016125dc565b8351908301906127718183602088016125dc565b01949350505050565b5f825161278b8184602087016125dc565b9190910192915050565b7f4e487b71000000000000000000000000000000000000000000000000000000005f52603260045260245ffd5b5f816127d0576127d0612667565b507fffffffffffffffffffffffffffffffffffffffffffffffffffffffffffffffff0190565b7f4e487b71000000000000000000000000000000000000000000000000000000005f52601260045260245ffd5b5f82612831576128316127f6565b500690565b5f7fffffffffffffffffffffffffffffffffffffffffffffffffffffffffffffffff820361286657612866612667565b5060010190565b808202811582820484141761061f5761061f612667565b7f4e487b71000000000000000000000000000000000000000000000000000000005f52602160045260245ffd5b5f60ff8316806128c3576128c36127f6565b8060ff8416069150509291505056fea264697066735822122026147c21a97a6cb64e5e9865b0cd1525aeb4df5b672538f43766faab26c8ea5264736f6c63430008160033","linkReferences":{}},"methodIdentifiers":{"UPGRADE_INTERFACE_VERSION()":"ad3cb1cc","acceptOwnership()":"79ba5097","claimRewards((address,address,uint256,address,bytes32,bytes32[],uint32,uint32))":"6fdaf166","distributeRewards(address,uint256,bytes32)":"40b3a4bf","getBalance(address,address)":"d4fac45d","getClaimedRewards(address,address,address)":"7733369c","getDistributionRoots(address,address)":"5e04f87e","initialize(address)":"c4d66de8","owner()":"8da5cb5b","pause()":"8456cb59","paused()":"5c975abb","pendingOwner()":"e30c3978","proxiableUUID()":"52d1902d","renounceOwnership()":"715018a6","transferOwnership(address)":"f2fde38b","unpause()":"3f4ba83a","upgradeToAndCall(address,bytes)":"4f1ef286"},"id":90}