{
  "abi": [
    {
      "type": "constructor",
      "inputs": [
        {
          "name": "registry_",
          "type": "address",
          "internalType": "contract ISLAYRegistryV2"
        }
      ],
      "stateMutability": "nonpayable"
    },
    {
      "type": "function",
      "name": "REGISTRY",
      "inputs": [],
      "outputs": [
        {
          "name": "",
          "type": "address",
          "internalType": "contract ISLAYRegistryV2"
        }
      ],
      "stateMutability": "view"
    },
    {
      "type": "function",
      "name": "SLASHING_REQUEST_EXPIRY_WINDOW",
      "inputs": [],
      "outputs": [
        {
          "name": "",
          "type": "uint32",
          "internalType": "uint32"
        }
      ],
      "stateMutability": "view"
    },
    {
      "type": "function",
      "name": "UPGRADE_INTERFACE_VERSION",
      "inputs": [],
      "outputs": [
        {
          "name": "",
          "type": "string",
          "internalType": "string"
        }
      ],
      "stateMutability": "view"
    },
    {
      "type": "function",
      "name": "acceptOwnership",
      "inputs": [],
      "outputs": [],
      "stateMutability": "nonpayable"
    },
    {
      "type": "function",
      "name": "cancelSlashing",
      "inputs": [
        {
          "name": "slashId",
          "type": "bytes32",
          "internalType": "bytes32"
        }
      ],
      "outputs": [],
      "stateMutability": "nonpayable"
    },
    {
      "type": "function",
      "name": "finalizeSlashing",
      "inputs": [
        {
          "name": "slashId",
          "type": "bytes32",
          "internalType": "bytes32"
        }
      ],
      "outputs": [],
      "stateMutability": "nonpayable"
    },
    {
      "type": "function",
      "name": "getLockedAssets",
      "inputs": [
        {
          "name": "slashId",
          "type": "bytes32",
          "internalType": "bytes32"
        }
      ],
      "outputs": [
        {
          "name": "",
          "type": "tuple[]",
          "internalType": "struct ISLAYRouterSlashingV2.LockedAssets[]",
          "components": [
            {
              "name": "amount",
              "type": "uint256",
              "internalType": "uint256"
            },
            {
              "name": "vault",
              "type": "address",
              "internalType": "address"
            }
          ]
        }
      ],
      "stateMutability": "view"
    },
    {
      "type": "function",
      "name": "getMaxVaultsPerOperator",
      "inputs": [],
      "outputs": [
        {
          "name": "",
          "type": "uint8",
          "internalType": "uint8"
        }
      ],
      "stateMutability": "view"
    },
    {
      "type": "function",
      "name": "getOperatorVaults",
      "inputs": [
        {
          "name": "operator",
          "type": "address",
          "internalType": "address"
        }
      ],
      "outputs": [
        {
          "name": "",
          "type": "address[]",
          "internalType": "address[]"
        }
      ],
      "stateMutability": "view"
    },
    {
      "type": "function",
      "name": "getPendingSlashingRequest",
      "inputs": [
        {
          "name": "service",
          "type": "address",
          "internalType": "address"
        },
        {
          "name": "operator",
          "type": "address",
          "internalType": "address"
        }
      ],
      "outputs": [
        {
          "name": "",
          "type": "tuple",
          "internalType": "struct ISLAYRouterSlashingV2.Request",
          "components": [
            {
              "name": "status",
              "type": "uint8",
              "internalType": "enum ISLAYRouterSlashingV2.Status"
            },
            {
              "name": "service",
              "type": "address",
              "internalType": "address"
            },
            {
              "name": "mbips",
              "type": "uint24",
              "internalType": "uint24"
            },
            {
              "name": "timestamp",
              "type": "uint32",
              "internalType": "uint32"
            },
            {
              "name": "requestTime",
              "type": "uint32",
              "internalType": "uint32"
            },
            {
              "name": "operator",
              "type": "address",
              "internalType": "address"
            },
            {
              "name": "requestResolution",
              "type": "uint32",
              "internalType": "uint32"
            },
            {
              "name": "requestExpiry",
              "type": "uint32",
              "internalType": "uint32"
            }
          ]
        }
      ],
      "stateMutability": "view"
    },
    {
      "type": "function",
      "name": "getPendingSlashingRequestId",
      "inputs": [
        {
          "name": "service",
          "type": "address",
          "internalType": "address"
        },
        {
          "name": "operator",
          "type": "address",
          "internalType": "address"
        }
      ],
      "outputs": [
        {
          "name": "",
          "type": "bytes32",
          "internalType": "bytes32"
        }
      ],
      "stateMutability": "view"
    },
    {
      "type": "function",
      "name": "getSlashingRequest",
      "inputs": [
        {
          "name": "slashId",
          "type": "bytes32",
          "internalType": "bytes32"
        }
      ],
      "outputs": [
        {
          "name": "",
          "type": "tuple",
          "internalType": "struct ISLAYRouterSlashingV2.Request",
          "components": [
            {
              "name": "status",
              "type": "uint8",
              "internalType": "enum ISLAYRouterSlashingV2.Status"
            },
            {
              "name": "service",
              "type": "address",
              "internalType": "address"
            },
            {
              "name": "mbips",
              "type": "uint24",
              "internalType": "uint24"
            },
            {
              "name": "timestamp",
              "type": "uint32",
              "internalType": "uint32"
            },
            {
              "name": "requestTime",
              "type": "uint32",
              "internalType": "uint32"
            },
            {
              "name": "operator",
              "type": "address",
              "internalType": "address"
            },
            {
              "name": "requestResolution",
              "type": "uint32",
              "internalType": "uint32"
            },
            {
              "name": "requestExpiry",
              "type": "uint32",
              "internalType": "uint32"
            }
          ]
        }
      ],
      "stateMutability": "view"
    },
    {
      "type": "function",
      "name": "guardrailApprove",
      "inputs": [
        {
          "name": "slashId",
          "type": "bytes32",
          "internalType": "bytes32"
        },
        {
          "name": "approve",
          "type": "bool",
          "internalType": "bool"
        }
      ],
      "outputs": [],
      "stateMutability": "nonpayable"
    },
    {
      "type": "function",
      "name": "initialize",
      "inputs": [
        {
          "name": "initialOwner",
          "type": "address",
          "internalType": "address"
        }
      ],
      "outputs": [],
      "stateMutability": "nonpayable"
    },
    {
      "type": "function",
      "name": "initialize2",
      "inputs": [],
      "outputs": [],
      "stateMutability": "nonpayable"
    },
    {
      "type": "function",
      "name": "initializeAll",
      "inputs": [
        {
          "name": "initialOwner",
          "type": "address",
          "internalType": "address"
        }
      ],
      "outputs": [],
      "stateMutability": "nonpayable"
    },
    {
      "type": "function",
      "name": "isVaultWhitelisted",
      "inputs": [
        {
          "name": "vault_",
          "type": "address",
          "internalType": "address"
        }
      ],
      "outputs": [
        {
          "name": "",
          "type": "bool",
          "internalType": "bool"
        }
      ],
      "stateMutability": "view"
    },
    {
      "type": "function",
      "name": "lockSlashing",
      "inputs": [
        {
          "name": "slashId",
          "type": "bytes32",
          "internalType": "bytes32"
        }
      ],
      "outputs": [],
      "stateMutability": "nonpayable"
    },
    {
      "type": "function",
      "name": "owner",
      "inputs": [],
      "outputs": [
        {
          "name": "",
          "type": "address",
          "internalType": "address"
        }
      ],
      "stateMutability": "view"
    },
    {
      "type": "function",
      "name": "pause",
      "inputs": [],
      "outputs": [],
      "stateMutability": "nonpayable"
    },
    {
      "type": "function",
      "name": "paused",
      "inputs": [],
      "outputs": [
        {
          "name": "",
          "type": "bool",
          "internalType": "bool"
        }
      ],
      "stateMutability": "view"
    },
    {
      "type": "function",
      "name": "pendingOwner",
      "inputs": [],
      "outputs": [
        {
          "name": "",
          "type": "address",
          "internalType": "address"
        }
      ],
      "stateMutability": "view"
    },
    {
      "type": "function",
      "name": "proxiableUUID",
      "inputs": [],
      "outputs": [
        {
          "name": "",
          "type": "bytes32",
          "internalType": "bytes32"
        }
      ],
      "stateMutability": "view"
    },
    {
      "type": "function",
      "name": "renounceOwnership",
      "inputs": [],
      "outputs": [],
      "stateMutability": "nonpayable"
    },
    {
      "type": "function",
      "name": "requestSlashing",
      "inputs": [
        {
          "name": "payload",
          "type": "tuple",
          "internalType": "struct ISLAYRouterSlashingV2.Payload",
          "components": [
            {
              "name": "operator",
              "type": "address",
              "internalType": "address"
            },
            {
              "name": "mbips",
              "type": "uint24",
              "internalType": "uint24"
            },
            {
              "name": "timestamp",
              "type": "uint32",
              "internalType": "uint32"
            },
            {
              "name": "reason",
              "type": "string",
              "internalType": "string"
            }
          ]
        }
      ],
      "outputs": [
        {
          "name": "",
          "type": "bytes32",
          "internalType": "bytes32"
        }
      ],
      "stateMutability": "nonpayable"
    },
    {
      "type": "function",
      "name": "setGuardrail",
      "inputs": [
        {
          "name": "guardrail",
          "type": "address",
          "internalType": "address"
        }
      ],
      "outputs": [],
      "stateMutability": "nonpayable"
    },
    {
      "type": "function",
      "name": "setMaxVaultsPerOperator",
      "inputs": [
        {
          "name": "count",
          "type": "uint8",
          "internalType": "uint8"
        }
      ],
      "outputs": [],
      "stateMutability": "nonpayable"
    },
    {
      "type": "function",
      "name": "setVaultWhitelist",
      "inputs": [
        {
          "name": "vault_",
          "type": "address",
          "internalType": "address"
        },
        {
          "name": "isWhitelisted",
          "type": "bool",
          "internalType": "bool"
        }
      ],
      "outputs": [],
      "stateMutability": "nonpayable"
    },
    {
      "type": "function",
      "name": "transferOwnership",
      "inputs": [
        {
          "name": "newOwner",
          "type": "address",
          "internalType": "address"
        }
      ],
      "outputs": [],
      "stateMutability": "nonpayable"
    },
    {
      "type": "function",
      "name": "unpause",
      "inputs": [],
      "outputs": [],
      "stateMutability": "nonpayable"
    },
    {
      "type": "function",
      "name": "upgradeToAndCall",
      "inputs": [
        {
          "name": "newImplementation",
          "type": "address",
          "internalType": "address"
        },
        {
          "name": "data",
          "type": "bytes",
          "internalType": "bytes"
        }
      ],
      "outputs": [],
      "stateMutability": "payable"
    },
    {
      "type": "event",
      "name": "GuardrailApproval",
      "inputs": [
        {
          "name": "slashId",
          "type": "bytes32",
          "indexed": true,
          "internalType": "bytes32"
        },
        {
          "name": "approval",
          "type": "bool",
          "indexed": false,
          "internalType": "bool"
        }
      ],
      "anonymous": false
    },
    {
      "type": "event",
      "name": "GuardrailUpdated",
      "inputs": [
        {
          "name": "oldGuardrail",
          "type": "address",
          "indexed": true,
          "internalType": "address"
        },
        {
          "name": "guardrail",
          "type": "address",
          "indexed": true,
          "internalType": "address"
        }
      ],
      "anonymous": false
    },
    {
      "type": "event",
      "name": "Initialized",
      "inputs": [
        {
          "name": "version",
          "type": "uint64",
          "indexed": false,
          "internalType": "uint64"
        }
      ],
      "anonymous": false
    },
    {
      "type": "event",
      "name": "MaxVaultsPerOperatorUpdated",
      "inputs": [
        {
          "name": "oldCount",
          "type": "uint8",
          "indexed": false,
          "internalType": "uint8"
        },
        {
          "name": "count",
          "type": "uint8",
          "indexed": false,
          "internalType": "uint8"
        }
      ],
      "anonymous": false
    },
    {
      "type": "event",
      "name": "OwnershipTransferStarted",
      "inputs": [
        {
          "name": "previousOwner",
          "type": "address",
          "indexed": true,
          "internalType": "address"
        },
        {
          "name": "newOwner",
          "type": "address",
          "indexed": true,
          "internalType": "address"
        }
      ],
      "anonymous": false
    },
    {
      "type": "event",
      "name": "OwnershipTransferred",
      "inputs": [
        {
          "name": "previousOwner",
          "type": "address",
          "indexed": true,
          "internalType": "address"
        },
        {
          "name": "newOwner",
          "type": "address",
          "indexed": true,
          "internalType": "address"
        }
      ],
      "anonymous": false
    },
    {
      "type": "event",
      "name": "Paused",
      "inputs": [
        {
          "name": "account",
          "type": "address",
          "indexed": false,
          "internalType": "address"
        }
      ],
      "anonymous": false
    },
    {
      "type": "event",
      "name": "SlashingCanceled",
      "inputs": [
        {
          "name": "service",
          "type": "address",
          "indexed": true,
          "internalType": "address"
        },
        {
          "name": "operator",
          "type": "address",
          "indexed": true,
          "internalType": "address"
        },
        {
          "name": "slashId",
          "type": "bytes32",
          "indexed": true,
          "internalType": "bytes32"
        }
      ],
      "anonymous": false
    },
    {
      "type": "event",
      "name": "SlashingFinalized",
      "inputs": [
        {
          "name": "service",
          "type": "address",
          "indexed": true,
          "internalType": "address"
        },
        {
          "name": "operator",
          "type": "address",
          "indexed": true,
          "internalType": "address"
        },
        {
          "name": "slashId",
          "type": "bytes32",
          "indexed": true,
          "internalType": "bytes32"
        },
        {
          "name": "destination",
          "type": "address",
          "indexed": false,
          "internalType": "address"
        }
      ],
      "anonymous": false
    },
    {
      "type": "event",
      "name": "SlashingLocked",
      "inputs": [
        {
          "name": "service",
          "type": "address",
          "indexed": true,
          "internalType": "address"
        },
        {
          "name": "operator",
          "type": "address",
          "indexed": true,
          "internalType": "address"
        },
        {
          "name": "slashId",
          "type": "bytes32",
          "indexed": true,
          "internalType": "bytes32"
        }
      ],
      "anonymous": false
    },
    {
      "type": "event",
      "name": "SlashingRequested",
      "inputs": [
        {
          "name": "service",
          "type": "address",
          "indexed": true,
          "internalType": "address"
        },
        {
          "name": "operator",
          "type": "address",
          "indexed": true,
          "internalType": "address"
        },
        {
          "name": "slashId",
          "type": "bytes32",
          "indexed": true,
          "internalType": "bytes32"
        },
        {
          "name": "request",
          "type": "tuple",
          "indexed": false,
          "internalType": "struct ISLAYRouterSlashingV2.Request",
          "components": [
            {
              "name": "status",
              "type": "uint8",
              "internalType": "enum ISLAYRouterSlashingV2.Status"
            },
            {
              "name": "service",
              "type": "address",
              "internalType": "address"
            },
            {
              "name": "mbips",
              "type": "uint24",
              "internalType": "uint24"
            },
            {
              "name": "timestamp",
              "type": "uint32",
              "internalType": "uint32"
            },
            {
              "name": "requestTime",
              "type": "uint32",
              "internalType": "uint32"
            },
            {
              "name": "operator",
              "type": "address",
              "internalType": "address"
            },
            {
              "name": "requestResolution",
              "type": "uint32",
              "internalType": "uint32"
            },
            {
              "name": "requestExpiry",
              "type": "uint32",
              "internalType": "uint32"
            }
          ]
        },
        {
          "name": "reason",
          "type": "string",
          "indexed": false,
          "internalType": "string"
        }
      ],
      "anonymous": false
    },
    {
      "type": "event",
      "name": "Unpaused",
      "inputs": [
        {
          "name": "account",
          "type": "address",
          "indexed": false,
          "internalType": "address"
        }
      ],
      "anonymous": false
    },
    {
      "type": "event",
      "name": "Upgraded",
      "inputs": [
        {
          "name": "implementation",
          "type": "address",
          "indexed": true,
          "internalType": "address"
        }
      ],
      "anonymous": false
    },
    {
      "type": "event",
      "name": "VaultWhitelisted",
      "inputs": [
        {
          "name": "operator",
          "type": "address",
          "indexed": true,
          "internalType": "address"
        },
        {
          "name": "vault",
          "type": "address",
          "indexed": false,
          "internalType": "address"
        },
        {
          "name": "whitelisted",
          "type": "bool",
          "indexed": false,
          "internalType": "bool"
        }
      ],
      "anonymous": false
    },
    {
      "type": "error",
      "name": "AddressEmptyCode",
      "inputs": [
        {
          "name": "target",
          "type": "address",
          "internalType": "address"
        }
      ]
    },
    {
      "type": "error",
      "name": "ERC1967InvalidImplementation",
      "inputs": [
        {
          "name": "implementation",
          "type": "address",
          "internalType": "address"
        }
      ]
    },
    {
      "type": "error",
      "name": "ERC1967NonPayable",
      "inputs": []
    },
    {
      "type": "error",
      "name": "EnforcedPause",
      "inputs": []
    },
    {
      "type": "error",
      "name": "ExpectedPause",
      "inputs": []
    },
    {
      "type": "error",
      "name": "FailedCall",
      "inputs": []
    },
    {
      "type": "error",
      "name": "GuardrailHasDetermined",
      "inputs": []
    },
    {
      "type": "error",
      "name": "GuardrailHaveNotApproved",
      "inputs": []
    },
    {
      "type": "error",
      "name": "InvalidInitialization",
      "inputs": []
    },
    {
      "type": "error",
      "name": "InvalidStatus",
      "inputs": []
    },
    {
      "type": "error",
      "name": "NotInitializing",
      "inputs": []
    },
    {
      "type": "error",
      "name": "OwnableInvalidOwner",
      "inputs": [
        {
          "name": "owner",
          "type": "address",
          "internalType": "address"
        }
      ]
    },
    {
      "type": "error",
      "name": "OwnableUnauthorizedAccount",
      "inputs": [
        {
          "name": "account",
          "type": "address",
          "internalType": "address"
        }
      ]
    },
    {
      "type": "error",
      "name": "ReentrancyGuardReentrantCall",
      "inputs": []
    },
    {
      "type": "error",
      "name": "SafeERC20FailedOperation",
      "inputs": [
        {
          "name": "token",
          "type": "address",
          "internalType": "address"
        }
      ]
    },
    {
      "type": "error",
      "name": "ServiceNotFound",
      "inputs": [
        {
          "name": "account",
          "type": "address",
          "internalType": "address"
        }
      ]
    },
    {
      "type": "error",
      "name": "SlashingRequestExpired",
      "inputs": []
    },
    {
      "type": "error",
      "name": "SlashingRequestNotFound",
      "inputs": []
    },
    {
      "type": "error",
      "name": "SlashingResolutionNotReached",
      "inputs": []
    },
    {
      "type": "error",
      "name": "UUPSUnauthorizedCallContext",
      "inputs": []
    },
    {
      "type": "error",
      "name": "UUPSUnsupportedProxiableUUID",
      "inputs": [
        {
          "name": "slot",
          "type": "bytes32",
          "internalType": "bytes32"
        }
      ]
    },
    {
      "type": "error",
      "name": "Unauthorized",
      "inputs": []
    }
  ],
  "bytecode": {
    "object": "0x60c06040523060805234801562000014575f80fd5b506040516200353b3803806200353b833981016040819052620000379162000113565b620000416200005f565b6001600160a01b03811660a052620000586200005f565b5062000142565b7ff0c57e16840df040f15088dc2f81fe391c3923bec73e23a9662efc9c229c6a00805468010000000000000000900460ff1615620000b05760405163f92ee8a960e01b815260040160405180910390fd5b80546001600160401b0390811614620001105780546001600160401b0319166001600160401b0390811782556040519081527fc7f505b2f371ae2175ee4913f4499e1f2633a7b5936321eed1cdaeb6115181d29060200160405180910390a15b50565b5f6020828403121562000124575f80fd5b81516001600160a01b03811681146200013b575f80fd5b9392505050565b60805160a051613398620001a35f395f81816102160152818161075001528181610adf01528181610c7f01528181610dc001528181611635015281816117c50152611f0501525f81816124600152818161248901526125c801526133985ff3fe6080604052600436106101cf575f3560e01c8063715018a6116100fd578063ad3cb1cc11610092578063dd71764411610062578063dd7176441461056e578063deec65bc1461059a578063e30c3978146105b9578063f2fde38b146105cd575f80fd5b8063ad3cb1cc146104bc578063b2037480146104f9578063b4867fe414610530578063c4d66de81461054f575f80fd5b80638da5cb5b116100cd5780638da5cb5b1461043d57806397da0056146104515780639916fa0214610472578063acfad62814610491575f80fd5b8063715018a6146103e257806379ba5097146103f65780638456cb591461040a5780638651060d1461041e575f80fd5b806333410dc4116101735780634f1ef286116101435780634f1ef2861461036d57806352d1902d1461038057806353dd91f5146103945780635c975abb146103b3575f80fd5b806333410dc4146103075780633f4ba83a14610326578063472abf681461033a5780634eb30bc91461034e575f80fd5b806314d7e25b116101ae57806314d7e25b1461027c57806317afb65b146102a85780631838efe5146102c95780633302a6a1146102e8575f80fd5b80622cf9a4146101d357806306433b1b146102055780630b78623b14610250575b5f80fd5b3480156101de575f80fd5b506101f26101ed366004612c71565b6105ec565b6040519081526020015b60405180910390f35b348015610210575f80fd5b506102387f000000000000000000000000000000000000000000000000000000000000000081565b6040516001600160a01b0390911681526020016101fc565b34801561025b575f80fd5b5061026f61026a366004612c71565b610618565b6040516101fc9190612d8a565b348015610287575f80fd5b5061029b610296366004612d99565b610705565b6040516101fc9190612db4565b3480156102b3575f80fd5b506102c76102c2366004612e00565b610728565b005b3480156102d4575f80fd5b506101f26102e3366004612e17565b610abe565b3480156102f3575f80fd5b506102c7610302366004612e5b565b61128e565b348015610312575f80fd5b506102c7610321366004612d99565b611465565b348015610331575f80fd5b506102c7611526565b348015610345575f80fd5b506102c7611538565b348015610359575f80fd5b506102c7610368366004612e00565b61160d565b6102c761037b366004612ecc565b6119e1565b34801561038b575f80fd5b506101f26119fc565b34801561039f575f80fd5b5061026f6103ae366004612e00565b611a17565b3480156103be575f80fd5b505f805160206133238339815191525460ff165b60405190151581526020016101fc565b3480156103ed575f80fd5b506102c7611ad9565b348015610401575f80fd5b506102c7611aea565b348015610415575f80fd5b506102c7611b32565b348015610429575f80fd5b506102c7610438366004612f6e565b611b42565b348015610448575f80fd5b50610238611bef565b34801561045c575f80fd5b5060015460405160ff90911681526020016101fc565b34801561047d575f80fd5b506102c761048c366004612d99565b611c23565b34801561049c575f80fd5b506104a762093a8081565b60405163ffffffff90911681526020016101fc565b3480156104c7575f80fd5b506104ec604051806040016040528060058152602001640352e302e360dc1b81525081565b6040516101fc9190612fb0565b348015610504575f80fd5b506103d2610513366004612d99565b6001600160a01b03165f9081526020819052604090205460ff1690565b34801561053b575f80fd5b506102c761054a366004612fe2565b611c34565b34801561055a575f80fd5b506102c7610569366004612d99565b611d48565b348015610579575f80fd5b5061058d610588366004612e00565b611e59565b6040516101fc9190613005565b3480156105a5575f80fd5b506102c76105b4366004612e00565b611edd565b3480156105c4575f80fd5b50610238612075565b3480156105d8575f80fd5b506102c76105e7366004612d99565b61209d565b6001600160a01b038083165f908152600360209081526040808320938516835292905220545b92915050565b610620612bd6565b6001600160a01b038084165f9081526003602081815260408084209487168452938152838320548084526004909152918390208351610100810190945280549293929091839160ff169081111561067957610679612ca8565b600381111561068a5761068a612ca8565b815281546001600160a01b0361010082048116602084015262ffffff600160a81b830416604084015263ffffffff600160c01b80840482166060860152600160e01b9093048116608085015260019094015490811660a0840152600160a01b8104841660c08401520490911660e09091015291505092915050565b6001600160a01b0381165f90815260026020526040902060609061061290612122565b610730612135565b3360405163e9d8dbfd60e01b81526001600160a01b0382811660048301527f0000000000000000000000000000000000000000000000000000000000000000169063e9d8dbfd90602401602060405180830381865afa158015610795573d5f803e3d5ffd5b505050506040513d601f19601f820116820180604052508101906107b9919061305c565b6107e65760405163b536580760e01b81526001600160a01b03821660048201526024015b60405180910390fd5b6107ee612165565b5f82815260046020526040902080546001600160a01b0361010090910416331461082a576040516282b42960e81b815260040160405180910390fd5b5f815460ff16600381111561084157610841612ca8565b1461085f576040516307a92f1960e51b815260040160405180910390fd5b600181015463ffffffff428116600160c01b909204161015610894576040516331e24a9f60e01b815260040160405180910390fd5b600181015463ffffffff428116600160a01b9092041611156108c957604051631e55c18f60e21b815260040160405180910390fd5b805460ff1916600190811782558101546001600160a01b03165f908152600260205260408120906108f98261219c565b90505f5b81811015610a5c575f61091084836121a5565b90505f8190505f610991826001600160a01b03166301e1d1146040518163ffffffff1660e01b8152600401602060405180830381865afa158015610956573d5f803e3d5ffd5b505050506040513d601f19601f8201168201806040525081019061097a9190613077565b8854600160a81b900462ffffff16629896806121b0565b90508015610a515760405163dff81f7d60e01b8152600481018290526001600160a01b0383169063dff81f7d906024015f604051808303815f87803b1580156109d8575f80fd5b505af11580156109ea573d5f803e3d5ffd5b5050505f8a815260056020908152604080832081518083019092528582526001600160a01b03888116838501908152825460018082018555938752949095209251600290940290920192835592519190920180546001600160a01b03191691909216179055505b5050506001016108fd565b506001830154835460405187926001600160a01b0390811692610100900416907f6e141be0670106fb9241fc2d132fa5597d7decd0184d366414050b782c76ddda905f90a4505050610aba60015f8051602061334383398151915255565b5050565b5f3360405163e9d8dbfd60e01b81526001600160a01b0382811660048301527f0000000000000000000000000000000000000000000000000000000000000000169063e9d8dbfd90602401602060405180830381865afa158015610b24573d5f803e3d5ffd5b505050506040513d601f19601f82011682018060405250810190610b48919061305c565b610b705760405163b536580760e01b81526001600160a01b03821660048201526024016107dd565b610b78612135565b60fa610b87606085018561308e565b90501115610bc95760405162461bcd60e51b815260206004820152600f60248201526e726561736f6e20746f6f206c6f6e6760881b60448201526064016107dd565b5f610bda60408501602086016130e8565b62ffffff1611610c205760405162461bcd60e51b815260206004820152601160248201527006d62697073206d757374206265203e203607c1b60448201526064016107dd565b42610c316060850160408601613114565b63ffffffff161115610c7b5760405162461bcd60e51b815260206004820152601360248201527274696d657374616d7020696e2066757475726560681b60448201526064016107dd565b335f7f00000000000000000000000000000000000000000000000000000000000000006001600160a01b03166397c459c483610cba6020890189612d99565b610cca60608a0160408b01613114565b6040516001600160e01b031960e086901b1681526001600160a01b03938416600482015292909116602483015263ffffffff166044820152606401606060405180830381865afa158015610d20573d5f803e3d5ffd5b505050506040513d601f19601f82011682018060405250810190610d44919061312f565b9050806020015162ffffff16856020016020810190610d6391906130e8565b62ffffff161115610db65760405162461bcd60e51b815260206004820152601960248201527f6d626970732065786365656473206d617820616c6c6f7765640000000000000060448201526064016107dd565b6001600160a01b037f00000000000000000000000000000000000000000000000000000000000000001663b1e50829610df26020880188612d99565b6040516001600160e01b031960e084901b1681526001600160a01b039091166004820152602401602060405180830381865afa158015610e34573d5f803e3d5ffd5b505050506040513d601f19601f82011682018060405250810190610e58919061319f565b610e689063ffffffff16426131ce565b610e786060870160408801613114565b63ffffffff1611610ebf5760405162461bcd60e51b81526020600482015260116024820152701d1a5b595cdd185b5c081d1bdbc81bdb19607a1b60448201526064016107dd565b6001600160a01b0382165f9081526003602090815260408220908290610ee790890189612d99565b6001600160a01b0316815260208101919091526040015f205490508015610ff5575f8181526004602052604090206001815460ff166003811115610f2d57610f2d612ca8565b03610f4a5760405162461bcd60e51b81526004016107dd906131e1565b5f815460ff166003811115610f6157610f61612ca8565b03610ff357600181015463ffffffff428116600160c01b909204161115610f9a5760405162461bcd60e51b81526004016107dd906131e1565b805460ff1916600317815581610fb36020890189612d99565b6001600160a01b0316856001600160a01b03167fe3884525a2d5f483253428531619e78f11f1af8cbd2d28311259fd31ef46018a60405160405180910390a45b505b5f8260400151426110069190613232565b90505f6040518061010001604052805f600381111561102757611027612ca8565b8152602001866001600160a01b0316815260200189602001602081019061104e91906130e8565b62ffffff16815260200161106860608b0160408c01613114565b63ffffffff1681526020014263ffffffff168152602001895f0160208101906110919190612d99565b6001600160a01b0316815263ffffffff841660208201526040016110b862093a8085613232565b63ffffffff16905290506110cb81612273565b6001600160a01b0386165f9081526003602090815260408220929550859291906110f7908c018c612d99565b6001600160a01b0316815260208082019290925260409081015f90812093909355858352600490915290208151815483929190829060ff1916600183600381111561114457611144612ca8565b0217905550602082810151825460408501516060860151608087015163ffffffff908116600160e01b026001600160e01b03928216600160c01b908102939093166001600160c01b0362ffffff909516600160a81b0262ffffff60a81b196001600160a01b039889166101000216610100600160c01b03199097169690961795909517939093169390931791909117855560a08601516001909501805460c088015160e090980151841690920296909216600160a01b026001600160c01b031990911694909216939093171763ffffffff60c01b1916929092179055839061122e908a018a612d99565b6001600160a01b039081169087167f1928f55cc7948e65b5fd8b65349e79b0970a639acc7f5f308bcd1808e0ecdb8e8461126b60608e018e61308e565b60405161127a9392919061324f565b60405180910390a450909695505050505050565b61129661230d565b6001600160a01b0382165f9081526020819052604090205481151560ff9091161515036113055760405162461bcd60e51b815260206004820152601e60248201527f5661756c7420616c726561647920696e2064657369726564207374617465000060448201526064016107dd565b5f826001600160a01b031663cf8db8626040518163ffffffff1660e01b8152600401602060405180830381865afa158015611342573d5f803e3d5ffd5b505050506040513d601f19601f820116820180604052508101906113669190613290565b6001600160a01b0381165f90815260026020526040902090915082156113f25760015460ff166113958261219c565b106113e25760405162461bcd60e51b815260206004820152601f60248201527f45786365656473206d6178207661756c747320706572206f70657261746f720060448201526064016107dd565b6113ec818561233f565b506113fe565b6113fc8185612353565b505b6001600160a01b038481165f8181526020818152604091829020805460ff1916881515908117909155825193845290830152918416917f2ffaf20674bccc4ab0c9dd20b627f4ed9a43dc5232ed18a32410ad4207fc176b910160405180910390a250505050565b61146d61230d565b6001600160a01b0381166114cd5760405162461bcd60e51b815260206004820152602160248201527f47756172647261696c20616464726573732063616e6e6f7420626520656d70746044820152607960f81b60648201526084016107dd565b600180546001600160a01b03838116610100818102610100600160a81b031985161790945560405193909204169182907fe48a815386a6ba32bdcfe3b82f31e254f5e3e0549da4cddc175ff7d296ad5a5a905f90a35050565b61152e61230d565b611536612367565b565b60025f6115436123c6565b8054909150600160401b900460ff168061156b5750805467ffffffffffffffff808416911610155b156115895760405163f92ee8a960e01b815260040160405180910390fd5b805468ffffffffffffffffff191667ffffffffffffffff831617600160401b1781556115b36123ee565b6001805460ff1916600a179055805460ff60401b1916815560405167ffffffffffffffff831681527fc7f505b2f371ae2175ee4913f4499e1f2633a7b5936321eed1cdaeb6115181d2906020015b60405180910390a15050565b611615612135565b3360405163e9d8dbfd60e01b81526001600160a01b0382811660048301527f0000000000000000000000000000000000000000000000000000000000000000169063e9d8dbfd90602401602060405180830381865afa15801561167a573d5f803e3d5ffd5b505050506040513d601f19601f8201168201806040525081019061169e919061305c565b6116c65760405163b536580760e01b81526001600160a01b03821660048201526024016107dd565b6116ce612165565b5f82815260046020526040902080546001600160a01b0361010090910416331461170a576040516282b42960e81b815260040160405180910390fd5b6001815460ff16600381111561172257611722612ca8565b14611740576040516307a92f1960e51b815260040160405180910390fd5b5f8381526006602052604090205460ff16600114611771576040516305694d1d60e01b815260040160405180910390fd5b805460ff191660021780825560018201546040516325f1167160e21b81526001600160a01b03610100840481166004830152918216602482015263ffffffff600160c01b9093049290921660448301525f917f0000000000000000000000000000000000000000000000000000000000000000909116906397c459c490606401606060405180830381865afa15801561180c573d5f803e3d5ffd5b505050506040513d601f19601f82011682018060405250810190611830919061312f565b5f8581526005602052604081209192505b8154811015611937575f82828154811061185d5761185d6132ab565b5f91825260209091206002909102016001810154815485549293506001600160a01b0390911691859085908110611896576118966132ab565b5f91825260208083206002909202909101918255600190910180546001600160a01b0319169055604080516338d52e0f60e01b8152905161192c926001600160a01b038616926338d52e0f92600480830193928290030181865afa158015611900573d5f803e3d5ffd5b505050506040513d601f19601f820116820180604052508101906119249190613290565b8751836123fe565b505050600101611841565b505f85815260056020526040812061194e91612c1a565b82546001600160a01b036101009182900481165f9081526003602090815260408083206001890180548616855290835281842093909355915487548751935193851684528a959185169491900416917f82a1d74d3c1a7982ea75f5e68c0964c3309fc5ddfc6e1f1d2fb6b10eacce91e6910160405180910390a4505050610aba60015f8051602061334383398151915255565b6119e9612455565b6119f2826124f9565b610aba8282612501565b5f611a056125bd565b505f8051602061330383398151915290565b611a1f612bd6565b5f8281526004602052604090819020815161010081019092528054829060ff166003811115611a5057611a50612ca8565b6003811115611a6157611a61612ca8565b815281546001600160a01b0361010082048116602084015262ffffff600160a81b830416604084015263ffffffff600160c01b80840482166060860152600160e01b9093048116608085015260019094015490811660a0840152600160a01b8104841660c08401520490911660e09091015292915050565b611ae161230d565b6115365f612606565b3380611af4612075565b6001600160a01b031614611b265760405163118cdaa760e01b81526001600160a01b03821660048201526024016107dd565b611b2f81612606565b50565b611b3a61230d565b61153661263e565b611b4a61230d565b60015460ff9081169082168110611ba35760405162461bcd60e51b815260206004820152601c60248201527f4d7573742062652067726561746572207468616e2063757272656e740000000060448201526064016107dd565b6001805460ff191660ff84811691821790925560408051928416835260208301919091527f7f272733435a5c1171c60918325413034d8465dddd58e7830c74d20840f5a0c09101611601565b5f807f9016d09d72d40fdae2fd8ceac6b6234c7706214fd39c1cd1e609a0528c1993005b546001600160a01b031692915050565b611c2c81611d48565b611b2f611538565b611c3c612135565b60015461010090046001600160a01b0316336001600160a01b031614611c74576040516282b42960e81b815260040160405180910390fd5b5f828152600460205260409020805461010090046001600160a01b0316611cae5760405163c191eff960e01b815260040160405180910390fd5b5f8381526006602052604090205460ff1615611cdd576040516393579aa360e01b815260040160405180910390fd5b81611ce9576002611cec565b60015b5f84815260066020908152604091829020805460ff191660ff949094169390931790925551831515815284917f098a812d9d10a266b1a99ac5ec25f2cbf779f49d2cacf9c58eb35edea7df6842910160405180910390a2505050565b5f611d516123c6565b805490915060ff600160401b820416159067ffffffffffffffff165f81158015611d785750825b90505f8267ffffffffffffffff166001148015611d945750303b155b905081158015611da2575080155b15611dc05760405163f92ee8a960e01b815260040160405180910390fd5b845467ffffffffffffffff191660011785558315611dea57845460ff60401b1916600160401b1785555b611df386612686565b611dfb612697565b611e03612697565b611e0b612697565b8315611e5157845460ff60401b19168555604051600181527fc7f505b2f371ae2175ee4913f4499e1f2633a7b5936321eed1cdaeb6115181d29060200160405180910390a15b505050505050565b606060055f8381526020019081526020015f20805480602002602001604051908101604052809291908181526020015f905b82821015611ed2575f8481526020908190206040805180820190915260028502909101805482526001908101546001600160a01b0316828401529083529092019101611e8b565b505050509050919050565b611ee5612135565b3360405163e9d8dbfd60e01b81526001600160a01b0382811660048301527f0000000000000000000000000000000000000000000000000000000000000000169063e9d8dbfd90602401602060405180830381865afa158015611f4a573d5f803e3d5ffd5b505050506040513d601f19601f82011682018060405250810190611f6e919061305c565b611f965760405163b536580760e01b81526001600160a01b03821660048201526024016107dd565b5f828152600460205260409020805433919061010090046001600160a01b03168214611fd4576040516282b42960e81b815260040160405180910390fd5b5f815460ff166003811115611feb57611feb612ca8565b14612009576040516307a92f1960e51b815260040160405180910390fd5b805460ff1916600390811782556001600160a01b038381165f81815260209384526040808220600187018054861684529552808220829055935493518894909316927fe3884525a2d5f483253428531619e78f11f1af8cbd2d28311259fd31ef46018a9190a450505050565b5f807f237e158222e3e6968b72b9db0d8043aacf074ad9f650f0d1606b4d82ee432c00611c13565b6120a561230d565b7f237e158222e3e6968b72b9db0d8043aacf074ad9f650f0d1606b4d82ee432c0080546001600160a01b0319166001600160a01b03831690811782556120e9611bef565b6001600160a01b03167f38d16b8cac22d99fc7c124b9cd0de2d3fa1faef420bfe791d8c362d765e2270060405160405180910390a35050565b60605f61212e8361269f565b9392505050565b5f805160206133238339815191525460ff16156115365760405163d93c066560e01b815260040160405180910390fd5b5f8051602061334383398151915280546001190161219657604051633ee5aeb560e01b815260040160405180910390fd5b60029055565b5f610612825490565b5f61212e83836126f8565b5f805f6121bd868661271e565b91509150815f036121e1578381816121d7576121d76132bf565b049250505061212e565b8184116121f8576121f8600385150260111861273a565b5f848688095f868103871696879004966002600389028118808a02820302808a02820302808a02820302808a02820302808a02820302808a02909103029181900381900460010185841190960395909502919093039390930492909217029150509392505050565b60015f8051602061334383398151915255565b6020808201516040808401516060850151608086015160a087015160c088015160e089015195515f986122f0989791016001600160a01b03978816815262ffffff96909616602087015263ffffffff948516604087015292841660608601529416608084015292811660a08301529190911660c082015260e00190565b604051602081830303815290604052805190602001209050919050565b33612316611bef565b6001600160a01b0316146115365760405163118cdaa760e01b81523360048201526024016107dd565b5f61212e836001600160a01b03841661274b565b5f61212e836001600160a01b038416612797565b61236f612881565b5f80516020613323833981519152805460ff191681557f5db9ee0a495bf2e6ff9c91a7834c1ba4fdd244a5e8aa4e537bd38aeae4b073aa335b6040516001600160a01b03909116815260200160405180910390a150565b5f807ff0c57e16840df040f15088dc2f81fe391c3923bec73e23a9662efc9c229c6a00610612565b6123f66128b0565b6115366128d5565b604080516001600160a01b038416602482015260448082018490528251808303909101815260649091019091526020810180516001600160e01b031663a9059cbb60e01b1790526124509084906128dd565b505050565b306001600160a01b037f00000000000000000000000000000000000000000000000000000000000000001614806124db57507f00000000000000000000000000000000000000000000000000000000000000006001600160a01b03166124cf5f80516020613303833981519152546001600160a01b031690565b6001600160a01b031614155b156115365760405163703e46dd60e11b815260040160405180910390fd5b611b2f61230d565b816001600160a01b03166352d1902d6040518163ffffffff1660e01b8152600401602060405180830381865afa92505050801561255b575060408051601f3d908101601f1916820190925261255891810190613077565b60015b61258357604051634c9c8ce360e01b81526001600160a01b03831660048201526024016107dd565b5f8051602061330383398151915281146125b357604051632a87526960e21b8152600481018290526024016107dd565b612450838361294f565b306001600160a01b037f000000000000000000000000000000000000000000000000000000000000000016146115365760405163703e46dd60e11b815260040160405180910390fd5b7f237e158222e3e6968b72b9db0d8043aacf074ad9f650f0d1606b4d82ee432c0080546001600160a01b0319168155610aba826129a4565b612646612135565b5f80516020613323833981519152805460ff191660011781557f62e78cea01bee320cd4e420270b5ea74000d11b0c9f74754ebdbfc544b05a258336123a8565b61268e6128b0565b611b2f81612a14565b6115366128b0565b6060815f018054806020026020016040519081016040528092919081815260200182805480156126ec57602002820191905f5260205f20905b8154815260200190600101908083116126d8575b50505050509050919050565b5f825f01828154811061270d5761270d6132ab565b905f5260205f200154905092915050565b5f805f1983850993909202808410938190039390930393915050565b634e487b715f52806020526024601cfd5b5f81815260018301602052604081205461279057508154600181810184555f848152602080822090930184905584548482528286019093526040902091909155610612565b505f610612565b5f8181526001830160205260408120548015612871575f6127b96001836131ce565b85549091505f906127cc906001906131ce565b905080821461282b575f865f0182815481106127ea576127ea6132ab565b905f5260205f200154905080875f01848154811061280a5761280a6132ab565b5f918252602080832090910192909255918252600188019052604090208390555b855486908061283c5761283c6132d3565b600190038181905f5260205f20015f90559055856001015f8681526020019081526020015f205f905560019350505050610612565b5f915050610612565b5092915050565b5f805160206133238339815191525460ff1661153657604051638dfc202b60e01b815260040160405180910390fd5b6128b8612a45565b61153657604051631afcd79f60e31b815260040160405180910390fd5b6122606128b0565b5f8060205f8451602086015f885af1806128fc576040513d5f823e3d81fd5b50505f513d91508115612913578060011415612920565b6001600160a01b0384163b155b1561294957604051635274afe760e01b81526001600160a01b03851660048201526024016107dd565b50505050565b61295882612a5e565b6040516001600160a01b038316907fbc7cd75a20ee27fd9adebab32041f755214dbc6bffa90cc0225b39da2e5c2d3b905f90a280511561299c576124508282612ac1565b610aba612b33565b7f9016d09d72d40fdae2fd8ceac6b6234c7706214fd39c1cd1e609a0528c19930080546001600160a01b031981166001600160a01b03848116918217845560405192169182907f8be0079c531659141344cd1fd0a4f28419497f9722a3daafe3b4186f6b6457e0905f90a3505050565b612a1c6128b0565b6001600160a01b038116611b2657604051631e4fbdf760e01b81525f60048201526024016107dd565b5f612a4e6123c6565b54600160401b900460ff16919050565b806001600160a01b03163b5f03612a9357604051634c9c8ce360e01b81526001600160a01b03821660048201526024016107dd565b5f8051602061330383398151915280546001600160a01b0319166001600160a01b0392909216919091179055565b60605f80846001600160a01b031684604051612add91906132e7565b5f60405180830381855af49150503d805f8114612b15576040519150601f19603f3d011682016040523d82523d5f602084013e612b1a565b606091505b5091509150612b2a858383612b52565b95945050505050565b34156115365760405163b398979f60e01b815260040160405180910390fd5b606082612b6757612b6282612bae565b61212e565b8151158015612b7e57506001600160a01b0384163b155b15612ba757604051639996b31560e01b81526001600160a01b03851660048201526024016107dd565b508061212e565b805115612bbd57805160208201fd5b60405163d6bda27560e01b815260040160405180910390fd5b604080516101008101909152805f81525f6020820181905260408201819052606082018190526080820181905260a0820181905260c0820181905260e09091015290565b5080545f8255600202905f5260205f2090810190611b2f91905b80821115612c59575f81556001810180546001600160a01b0319169055600201612c34565b5090565b6001600160a01b0381168114611b2f575f80fd5b5f8060408385031215612c82575f80fd5b8235612c8d81612c5d565b91506020830135612c9d81612c5d565b809150509250929050565b634e487b7160e01b5f52602160045260245ffd5b805160048110612cda57634e487b7160e01b5f52602160045260245ffd5b808352506020810151612cf860208401826001600160a01b03169052565b506040810151612d0f604084018262ffffff169052565b506060810151612d27606084018263ffffffff169052565b506080810151612d3f608084018263ffffffff169052565b5060a0810151612d5a60a08401826001600160a01b03169052565b5060c0810151612d7260c084018263ffffffff169052565b5060e081015161245060e084018263ffffffff169052565b61010081016106128284612cbc565b5f60208284031215612da9575f80fd5b813561212e81612c5d565b602080825282518282018190525f9190848201906040850190845b81811015612df45783516001600160a01b031683529284019291840191600101612dcf565b50909695505050505050565b5f60208284031215612e10575f80fd5b5035919050565b5f60208284031215612e27575f80fd5b813567ffffffffffffffff811115612e3d575f80fd5b82016080818503121561212e575f80fd5b8015158114611b2f575f80fd5b5f8060408385031215612e6c575f80fd5b8235612e7781612c5d565b91506020830135612c9d81612e4e565b634e487b7160e01b5f52604160045260245ffd5b604051601f8201601f1916810167ffffffffffffffff81118282101715612ec457612ec4612e87565b604052919050565b5f8060408385031215612edd575f80fd5b8235612ee881612c5d565b915060208381013567ffffffffffffffff80821115612f05575f80fd5b818601915086601f830112612f18575f80fd5b813581811115612f2a57612f2a612e87565b612f3c601f8201601f19168501612e9b565b91508082528784828501011115612f51575f80fd5b80848401858401375f848284010152508093505050509250929050565b5f60208284031215612f7e575f80fd5b813560ff8116811461212e575f80fd5b5f5b83811015612fa8578181015183820152602001612f90565b50505f910152565b602081525f8251806020840152612fce816040850160208701612f8e565b601f01601f19169190910160400192915050565b5f8060408385031215612ff3575f80fd5b823591506020830135612c9d81612e4e565b602080825282518282018190525f919060409081850190868401855b8281101561304f578151805185528601516001600160a01b0316868501529284019290850190600101613021565b5091979650505050505050565b5f6020828403121561306c575f80fd5b815161212e81612e4e565b5f60208284031215613087575f80fd5b5051919050565b5f808335601e198436030181126130a3575f80fd5b83018035915067ffffffffffffffff8211156130bd575f80fd5b6020019150368190038213156130d1575f80fd5b9250929050565b62ffffff81168114611b2f575f80fd5b5f602082840312156130f8575f80fd5b813561212e816130d8565b63ffffffff81168114611b2f575f80fd5b5f60208284031215613124575f80fd5b813561212e81613103565b5f6060828403121561313f575f80fd5b6040516060810181811067ffffffffffffffff8211171561316257613162612e87565b604052825161317081612c5d565b81526020830151613180816130d8565b6020820152604083015161319381613103565b60408201529392505050565b5f602082840312156131af575f80fd5b815161212e81613103565b634e487b7160e01b5f52601160045260245ffd5b81810381811115610612576106126131ba565b60208082526031908201527f50726576696f757320736c617368696e672072657175657374206c696665637960408201527018db19481b9bdd0818dbdb5c1b195d1959607a1b606082015260800190565b63ffffffff81811683821601908082111561287a5761287a6131ba565b5f61012061325d8387612cbc565b806101008401528381840152506101408385828501375f838501820152601f909301601f19169091019091019392505050565b5f602082840312156132a0575f80fd5b815161212e81612c5d565b634e487b7160e01b5f52603260045260245ffd5b634e487b7160e01b5f52601260045260245ffd5b634e487b7160e01b5f52603160045260245ffd5b5f82516132f8818460208701612f8e565b919091019291505056fe360894a13ba1a3210667c828492db98dca3e2076cc3735a920a3ca505d382bbccd5ed15c6e187e77e9aee88184c21f4f2182ab5827cb3b7e07fbedcd63f033009b779b17422d0df92223018b32b4d1fa46e071723d6817e2486d003becc55f00a26469706673582212200ff39bb3417e829e8482ad67c9fd8c267353d3d1fef088b713b75b552adcd60f64736f6c63430008180033",
    "linkReferences": {}
  },
  "methodIdentifiers": {
    "REGISTRY()": "06433b1b",
    "SLASHING_REQUEST_EXPIRY_WINDOW()": "acfad628",
    "UPGRADE_INTERFACE_VERSION()": "ad3cb1cc",
    "acceptOwnership()": "79ba5097",
    "cancelSlashing(bytes32)": "deec65bc",
    "finalizeSlashing(bytes32)": "4eb30bc9",
    "getLockedAssets(bytes32)": "dd717644",
    "getMaxVaultsPerOperator()": "97da0056",
    "getOperatorVaults(address)": "14d7e25b",
    "getPendingSlashingRequest(address,address)": "0b78623b",
    "getPendingSlashingRequestId(address,address)": "002cf9a4",
    "getSlashingRequest(bytes32)": "53dd91f5",
    "guardrailApprove(bytes32,bool)": "b4867fe4",
    "initialize(address)": "c4d66de8",
    "initialize2()": "472abf68",
    "initializeAll(address)": "9916fa02",
    "isVaultWhitelisted(address)": "b2037480",
    "lockSlashing(bytes32)": "17afb65b",
    "owner()": "8da5cb5b",
    "pause()": "8456cb59",
    "paused()": "5c975abb",
    "pendingOwner()": "e30c3978",
    "proxiableUUID()": "52d1902d",
    "renounceOwnership()": "715018a6",
    "requestSlashing((address,uint24,uint32,string))": "1838efe5",
    "setGuardrail(address)": "33410dc4",
    "setMaxVaultsPerOperator(uint8)": "8651060d",
    "setVaultWhitelist(address,bool)": "3302a6a1",
    "transferOwnership(address)": "f2fde38b",
    "unpause()": "3f4ba83a",
    "upgradeToAndCall(address,bytes)": "4f1ef286"
  },
  "storageLayout": {
    "storage": [
      {
        "astId": 25155,
        "contract": "node_modules/@satlayer/contracts/src/SLAYRouterV2.sol:SLAYRouterV2",
        "label": "_whitelisted",
        "offset": 0,
        "slot": "0",
        "type": "t_mapping(t_address,t_bool)"
      },
      {
        "astId": 25158,
        "contract": "node_modules/@satlayer/contracts/src/SLAYRouterV2.sol:SLAYRouterV2",
        "label": "_maxVaultsPerOperator",
        "offset": 0,
        "slot": "1",
        "type": "t_uint8"
      },
      {
        "astId": 25161,
        "contract": "node_modules/@satlayer/contracts/src/SLAYRouterV2.sol:SLAYRouterV2",
        "label": "_guardrail",
        "offset": 1,
        "slot": "1",
        "type": "t_address"
      },
      {
        "astId": 25167,
        "contract": "node_modules/@satlayer/contracts/src/SLAYRouterV2.sol:SLAYRouterV2",
        "label": "_operatorVaults",
        "offset": 0,
        "slot": "2",
        "type": "t_mapping(t_address,t_struct(AddressSet)17140_storage)"
      },
      {
        "astId": 25174,
        "contract": "node_modules/@satlayer/contracts/src/SLAYRouterV2.sol:SLAYRouterV2",
        "label": "_pendingSlashingRequestIds",
        "offset": 0,
        "slot": "3",
        "type": "t_mapping(t_address,t_mapping(t_address,t_bytes32))"
      },
      {
        "astId": 25180,
        "contract": "node_modules/@satlayer/contracts/src/SLAYRouterV2.sol:SLAYRouterV2",
        "label": "_slashingRequests",
        "offset": 0,
        "slot": "4",
        "type": "t_mapping(t_bytes32,t_struct(Request)28388_storage)"
      },
      {
        "astId": 25187,
        "contract": "node_modules/@satlayer/contracts/src/SLAYRouterV2.sol:SLAYRouterV2",
        "label": "_lockedAssets",
        "offset": 0,
        "slot": "5",
        "type": "t_mapping(t_bytes32,t_array(t_struct(LockedAssets)28396_storage)dyn_storage)"
      },
      {
        "astId": 25192,
        "contract": "node_modules/@satlayer/contracts/src/SLAYRouterV2.sol:SLAYRouterV2",
        "label": "_guardrailApproval",
        "offset": 0,
        "slot": "6",
        "type": "t_mapping(t_bytes32,t_uint8)"
      }
    ],
    "types": {
      "t_address": {
        "encoding": "inplace",
        "label": "address",
        "numberOfBytes": "20"
      },
      "t_array(t_bytes32)dyn_storage": {
        "encoding": "dynamic_array",
        "label": "bytes32[]",
        "numberOfBytes": "32",
        "base": "t_bytes32"
      },
      "t_array(t_struct(LockedAssets)28396_storage)dyn_storage": {
        "encoding": "dynamic_array",
        "label": "struct ISLAYRouterSlashingV2.LockedAssets[]",
        "numberOfBytes": "32",
        "base": "t_struct(LockedAssets)28396_storage"
      },
      "t_bool": {
        "encoding": "inplace",
        "label": "bool",
        "numberOfBytes": "1"
      },
      "t_bytes32": {
        "encoding": "inplace",
        "label": "bytes32",
        "numberOfBytes": "32"
      },
      "t_enum(Status)28347": {
        "encoding": "inplace",
        "label": "enum ISLAYRouterSlashingV2.Status",
        "numberOfBytes": "1"
      },
      "t_mapping(t_address,t_bool)": {
        "encoding": "mapping",
        "key": "t_address",
        "label": "mapping(address => bool)",
        "numberOfBytes": "32",
        "value": "t_bool"
      },
      "t_mapping(t_address,t_bytes32)": {
        "encoding": "mapping",
        "key": "t_address",
        "label": "mapping(address => bytes32)",
        "numberOfBytes": "32",
        "value": "t_bytes32"
      },
      "t_mapping(t_address,t_mapping(t_address,t_bytes32))": {
        "encoding": "mapping",
        "key": "t_address",
        "label": "mapping(address => mapping(address => bytes32))",
        "numberOfBytes": "32",
        "value": "t_mapping(t_address,t_bytes32)"
      },
      "t_mapping(t_address,t_struct(AddressSet)17140_storage)": {
        "encoding": "mapping",
        "key": "t_address",
        "label": "mapping(address => struct EnumerableSet.AddressSet)",
        "numberOfBytes": "32",
        "value": "t_struct(AddressSet)17140_storage"
      },
      "t_mapping(t_bytes32,t_array(t_struct(LockedAssets)28396_storage)dyn_storage)": {
        "encoding": "mapping",
        "key": "t_bytes32",
        "label": "mapping(bytes32 => struct ISLAYRouterSlashingV2.LockedAssets[])",
        "numberOfBytes": "32",
        "value": "t_array(t_struct(LockedAssets)28396_storage)dyn_storage"
      },
      "t_mapping(t_bytes32,t_struct(Request)28388_storage)": {
        "encoding": "mapping",
        "key": "t_bytes32",
        "label": "mapping(bytes32 => struct ISLAYRouterSlashingV2.Request)",
        "numberOfBytes": "32",
        "value": "t_struct(Request)28388_storage"
      },
      "t_mapping(t_bytes32,t_uint256)": {
        "encoding": "mapping",
        "key": "t_bytes32",
        "label": "mapping(bytes32 => uint256)",
        "numberOfBytes": "32",
        "value": "t_uint256"
      },
      "t_mapping(t_bytes32,t_uint8)": {
        "encoding": "mapping",
        "key": "t_bytes32",
        "label": "mapping(bytes32 => uint8)",
        "numberOfBytes": "32",
        "value": "t_uint8"
      },
      "t_struct(AddressSet)17140_storage": {
        "encoding": "inplace",
        "label": "struct EnumerableSet.AddressSet",
        "numberOfBytes": "64",
        "members": [
          {
            "astId": 17139,
            "contract": "node_modules/@satlayer/contracts/src/SLAYRouterV2.sol:SLAYRouterV2",
            "label": "_inner",
            "offset": 0,
            "slot": "0",
            "type": "t_struct(Set)16654_storage"
          }
        ]
      },
      "t_struct(LockedAssets)28396_storage": {
        "encoding": "inplace",
        "label": "struct ISLAYRouterSlashingV2.LockedAssets",
        "numberOfBytes": "64",
        "members": [
          {
            "astId": 28392,
            "contract": "node_modules/@satlayer/contracts/src/SLAYRouterV2.sol:SLAYRouterV2",
            "label": "amount",
            "offset": 0,
            "slot": "0",
            "type": "t_uint256"
          },
          {
            "astId": 28395,
            "contract": "node_modules/@satlayer/contracts/src/SLAYRouterV2.sol:SLAYRouterV2",
            "label": "vault",
            "offset": 0,
            "slot": "1",
            "type": "t_address"
          }
        ]
      },
      "t_struct(Request)28388_storage": {
        "encoding": "inplace",
        "label": "struct ISLAYRouterSlashingV2.Request",
        "numberOfBytes": "64",
        "members": [
          {
            "astId": 28366,
            "contract": "node_modules/@satlayer/contracts/src/SLAYRouterV2.sol:SLAYRouterV2",
            "label": "status",
            "offset": 0,
            "slot": "0",
            "type": "t_enum(Status)28347"
          },
          {
            "astId": 28369,
            "contract": "node_modules/@satlayer/contracts/src/SLAYRouterV2.sol:SLAYRouterV2",
            "label": "service",
            "offset": 1,
            "slot": "0",
            "type": "t_address"
          },
          {
            "astId": 28372,
            "contract": "node_modules/@satlayer/contracts/src/SLAYRouterV2.sol:SLAYRouterV2",
            "label": "mbips",
            "offset": 21,
            "slot": "0",
            "type": "t_uint24"
          },
          {
            "astId": 28375,
            "contract": "node_modules/@satlayer/contracts/src/SLAYRouterV2.sol:SLAYRouterV2",
            "label": "timestamp",
            "offset": 24,
            "slot": "0",
            "type": "t_uint32"
          },
          {
            "astId": 28378,
            "contract": "node_modules/@satlayer/contracts/src/SLAYRouterV2.sol:SLAYRouterV2",
            "label": "requestTime",
            "offset": 28,
            "slot": "0",
            "type": "t_uint32"
          },
          {
            "astId": 28381,
            "contract": "node_modules/@satlayer/contracts/src/SLAYRouterV2.sol:SLAYRouterV2",
            "label": "operator",
            "offset": 0,
            "slot": "1",
            "type": "t_address"
          },
          {
            "astId": 28384,
            "contract": "node_modules/@satlayer/contracts/src/SLAYRouterV2.sol:SLAYRouterV2",
            "label": "requestResolution",
            "offset": 20,
            "slot": "1",
            "type": "t_uint32"
          },
          {
            "astId": 28387,
            "contract": "node_modules/@satlayer/contracts/src/SLAYRouterV2.sol:SLAYRouterV2",
            "label": "requestExpiry",
            "offset": 24,
            "slot": "1",
            "type": "t_uint32"
          }
        ]
      },
      "t_struct(Set)16654_storage": {
        "encoding": "inplace",
        "label": "struct EnumerableSet.Set",
        "numberOfBytes": "64",
        "members": [
          {
            "astId": 16649,
            "contract": "node_modules/@satlayer/contracts/src/SLAYRouterV2.sol:SLAYRouterV2",
            "label": "_values",
            "offset": 0,
            "slot": "0",
            "type": "t_array(t_bytes32)dyn_storage"
          },
          {
            "astId": 16653,
            "contract": "node_modules/@satlayer/contracts/src/SLAYRouterV2.sol:SLAYRouterV2",
            "label": "_positions",
            "offset": 0,
            "slot": "1",
            "type": "t_mapping(t_bytes32,t_uint256)"
          }
        ]
      },
      "t_uint24": {
        "encoding": "inplace",
        "label": "uint24",
        "numberOfBytes": "3"
      },
      "t_uint256": {
        "encoding": "inplace",
        "label": "uint256",
        "numberOfBytes": "32"
      },
      "t_uint32": {
        "encoding": "inplace",
        "label": "uint32",
        "numberOfBytes": "4"
      },
      "t_uint8": {
        "encoding": "inplace",
        "label": "uint8",
        "numberOfBytes": "1"
      }
    }
  },
  "id": 77
}