{
  "abi": [
    {
      "type": "constructor",
      "inputs": [
        {
          "name": "governance",
          "type": "address",
          "internalType": "address"
        },
        {
          "name": "keeper",
          "type": "address",
          "internalType": "address"
        },
        {
          "name": "pauser",
          "type": "address",
          "internalType": "address"
        },
        {
          "name": "_pl",
          "type": "address",
          "internalType": "address"
        },
        {
          "name": "_oracle",
          "type": "address",
          "internalType": "contract IPriceOracle"
        },
        {
          "name": "_base",
          "type": "address",
          "internalType": "contract IERC20"
        }
      ],
      "stateMutability": "nonpayable"
    },
    {
      "type": "function",
      "name": "DEFAULT_ADMIN_ROLE",
      "inputs": [],
      "outputs": [
        {
          "name": "",
          "type": "bytes32",
          "internalType": "bytes32"
        }
      ],
      "stateMutability": "view"
    },
    {
      "type": "function",
      "name": "ROLE_GOVERNANCE",
      "inputs": [],
      "outputs": [
        {
          "name": "",
          "type": "bytes32",
          "internalType": "bytes32"
        }
      ],
      "stateMutability": "view"
    },
    {
      "type": "function",
      "name": "ROLE_KEEPER",
      "inputs": [],
      "outputs": [
        {
          "name": "",
          "type": "bytes32",
          "internalType": "bytes32"
        }
      ],
      "stateMutability": "view"
    },
    {
      "type": "function",
      "name": "ROLE_PAUSER",
      "inputs": [],
      "outputs": [
        {
          "name": "",
          "type": "bytes32",
          "internalType": "bytes32"
        }
      ],
      "stateMutability": "view"
    },
    {
      "type": "function",
      "name": "ROLE_PL",
      "inputs": [],
      "outputs": [
        {
          "name": "",
          "type": "bytes32",
          "internalType": "bytes32"
        }
      ],
      "stateMutability": "view"
    },
    {
      "type": "function",
      "name": "baseAsset",
      "inputs": [],
      "outputs": [
        {
          "name": "",
          "type": "address",
          "internalType": "contract IERC20"
        }
      ],
      "stateMutability": "view"
    },
    {
      "type": "function",
      "name": "borrowSafety",
      "inputs": [
        {
          "name": "",
          "type": "bytes32",
          "internalType": "bytes32"
        }
      ],
      "outputs": [
        {
          "name": "redeemToleranceBps",
          "type": "uint16",
          "internalType": "uint16"
        },
        {
          "name": "withdrawSlippageBps",
          "type": "uint16",
          "internalType": "uint16"
        },
        {
          "name": "maxAprBps",
          "type": "uint256",
          "internalType": "uint256"
        },
        {
          "name": "minHfBps",
          "type": "uint256",
          "internalType": "uint256"
        },
        {
          "name": "emergencyMode",
          "type": "bool",
          "internalType": "bool"
        },
        {
          "name": "emergencyRedeemBps",
          "type": "uint16",
          "internalType": "uint16"
        },
        {
          "name": "emergencyWithdrawBps",
          "type": "uint16",
          "internalType": "uint16"
        }
      ],
      "stateMutability": "view"
    },
    {
      "type": "function",
      "name": "borrowedAllowlist",
      "inputs": [
        {
          "name": "",
          "type": "address",
          "internalType": "address"
        }
      ],
      "outputs": [
        {
          "name": "",
          "type": "bool",
          "internalType": "bool"
        }
      ],
      "stateMutability": "view"
    },
    {
      "type": "function",
      "name": "depositEmergency",
      "inputs": [
        {
          "name": "",
          "type": "bytes32",
          "internalType": "bytes32"
        }
      ],
      "outputs": [
        {
          "name": "redeemToleranceBps",
          "type": "uint16",
          "internalType": "uint16"
        },
        {
          "name": "unwrapMinOutBps",
          "type": "uint16",
          "internalType": "uint16"
        },
        {
          "name": "emergencyMode",
          "type": "bool",
          "internalType": "bool"
        },
        {
          "name": "emergencyRedeemBps",
          "type": "uint16",
          "internalType": "uint16"
        },
        {
          "name": "emergencyUnwrapBps",
          "type": "uint16",
          "internalType": "uint16"
        }
      ],
      "stateMutability": "view"
    },
    {
      "type": "function",
      "name": "getRoleAdmin",
      "inputs": [
        {
          "name": "role",
          "type": "bytes32",
          "internalType": "bytes32"
        }
      ],
      "outputs": [
        {
          "name": "",
          "type": "bytes32",
          "internalType": "bytes32"
        }
      ],
      "stateMutability": "view"
    },
    {
      "type": "function",
      "name": "grantKeeper",
      "inputs": [
        {
          "name": "k",
          "type": "address",
          "internalType": "address"
        }
      ],
      "outputs": [],
      "stateMutability": "nonpayable"
    },
    {
      "type": "function",
      "name": "grantRole",
      "inputs": [
        {
          "name": "role",
          "type": "bytes32",
          "internalType": "bytes32"
        },
        {
          "name": "account",
          "type": "address",
          "internalType": "address"
        }
      ],
      "outputs": [],
      "stateMutability": "nonpayable"
    },
    {
      "type": "function",
      "name": "hasRole",
      "inputs": [
        {
          "name": "role",
          "type": "bytes32",
          "internalType": "bytes32"
        },
        {
          "name": "account",
          "type": "address",
          "internalType": "address"
        }
      ],
      "outputs": [
        {
          "name": "",
          "type": "bool",
          "internalType": "bool"
        }
      ],
      "stateMutability": "view"
    },
    {
      "type": "function",
      "name": "onClaimWithStrategy",
      "inputs": [
        {
          "name": "user",
          "type": "address",
          "internalType": "address"
        },
        {
          "name": "baseIn",
          "type": "uint256",
          "internalType": "uint256"
        },
        {
          "name": "strat_id",
          "type": "bytes32",
          "internalType": "bytes32"
        },
        {
          "name": "params",
          "type": "bytes",
          "internalType": "bytes"
        }
      ],
      "outputs": [],
      "stateMutability": "nonpayable"
    },
    {
      "type": "function",
      "name": "oracle",
      "inputs": [],
      "outputs": [
        {
          "name": "",
          "type": "address",
          "internalType": "contract IPriceOracle"
        }
      ],
      "stateMutability": "view"
    },
    {
      "type": "function",
      "name": "pl",
      "inputs": [],
      "outputs": [
        {
          "name": "",
          "type": "address",
          "internalType": "address"
        }
      ],
      "stateMutability": "view"
    },
    {
      "type": "function",
      "name": "renounceRole",
      "inputs": [
        {
          "name": "role",
          "type": "bytes32",
          "internalType": "bytes32"
        },
        {
          "name": "callerConfirmation",
          "type": "address",
          "internalType": "address"
        }
      ],
      "outputs": [],
      "stateMutability": "nonpayable"
    },
    {
      "type": "function",
      "name": "revokeRole",
      "inputs": [
        {
          "name": "role",
          "type": "bytes32",
          "internalType": "bytes32"
        },
        {
          "name": "account",
          "type": "address",
          "internalType": "address"
        }
      ],
      "outputs": [],
      "stateMutability": "nonpayable"
    },
    {
      "type": "function",
      "name": "setBorrowEmergency",
      "inputs": [
        {
          "name": "strat",
          "type": "bytes32",
          "internalType": "bytes32"
        },
        {
          "name": "on",
          "type": "bool",
          "internalType": "bool"
        }
      ],
      "outputs": [],
      "stateMutability": "nonpayable"
    },
    {
      "type": "function",
      "name": "setBorrowSafety",
      "inputs": [
        {
          "name": "strat",
          "type": "bytes32",
          "internalType": "bytes32"
        },
        {
          "name": "redeemToleranceBps",
          "type": "uint16",
          "internalType": "uint16"
        },
        {
          "name": "withdrawSlippageBps",
          "type": "uint16",
          "internalType": "uint16"
        },
        {
          "name": "maxAprBps",
          "type": "uint256",
          "internalType": "uint256"
        },
        {
          "name": "minHfBps",
          "type": "uint256",
          "internalType": "uint256"
        },
        {
          "name": "emergencyRedeemBps",
          "type": "uint16",
          "internalType": "uint16"
        },
        {
          "name": "emergencyWithdrawBps",
          "type": "uint16",
          "internalType": "uint16"
        }
      ],
      "outputs": [],
      "stateMutability": "nonpayable"
    },
    {
      "type": "function",
      "name": "setDepositEmergency",
      "inputs": [
        {
          "name": "strat",
          "type": "bytes32",
          "internalType": "bytes32"
        },
        {
          "name": "on",
          "type": "bool",
          "internalType": "bool"
        }
      ],
      "outputs": [],
      "stateMutability": "nonpayable"
    },
    {
      "type": "function",
      "name": "setDepositSafety",
      "inputs": [
        {
          "name": "strat",
          "type": "bytes32",
          "internalType": "bytes32"
        },
        {
          "name": "redeemToleranceBps",
          "type": "uint16",
          "internalType": "uint16"
        },
        {
          "name": "unwrapMinOutBps",
          "type": "uint16",
          "internalType": "uint16"
        },
        {
          "name": "emergencyRedeemBps",
          "type": "uint16",
          "internalType": "uint16"
        },
        {
          "name": "emergencyUnwrapBps",
          "type": "uint16",
          "internalType": "uint16"
        }
      ],
      "outputs": [],
      "stateMutability": "nonpayable"
    },
    {
      "type": "function",
      "name": "setOracle",
      "inputs": [
        {
          "name": "_oracle",
          "type": "address",
          "internalType": "contract IPriceOracle"
        }
      ],
      "outputs": [],
      "stateMutability": "nonpayable"
    },
    {
      "type": "function",
      "name": "setPauser",
      "inputs": [
        {
          "name": "p",
          "type": "address",
          "internalType": "address"
        }
      ],
      "outputs": [],
      "stateMutability": "nonpayable"
    },
    {
      "type": "function",
      "name": "setStrategy",
      "inputs": [
        {
          "name": "id",
          "type": "bytes32",
          "internalType": "bytes32"
        },
        {
          "name": "s",
          "type": "tuple",
          "internalType": "struct ConversionGateway.StrategyCfg",
          "components": [
            {
              "name": "kind",
              "type": "uint8",
              "internalType": "enum ConversionGateway.RouteKind"
            },
            {
              "name": "deposit",
              "type": "tuple",
              "internalType": "struct ConversionGateway.DepositCfg",
              "components": [
                {
                  "name": "wrapper",
                  "type": "address",
                  "internalType": "address"
                },
                {
                  "name": "connector",
                  "type": "address",
                  "internalType": "address"
                },
                {
                  "name": "safety",
                  "type": "tuple",
                  "internalType": "struct ConversionGateway.DepositSafety",
                  "components": [
                    {
                      "name": "redeemToleranceBps",
                      "type": "uint16",
                      "internalType": "uint16"
                    },
                    {
                      "name": "unwrapMinOutBps",
                      "type": "uint16",
                      "internalType": "uint16"
                    },
                    {
                      "name": "emergencyMode",
                      "type": "bool",
                      "internalType": "bool"
                    },
                    {
                      "name": "emergencyRedeemBps",
                      "type": "uint16",
                      "internalType": "uint16"
                    },
                    {
                      "name": "emergencyUnwrapBps",
                      "type": "uint16",
                      "internalType": "uint16"
                    }
                  ]
                }
              ]
            },
            {
              "name": "borrow",
              "type": "tuple",
              "internalType": "struct ConversionGateway.BorrowCfg",
              "components": [
                {
                  "name": "adapter",
                  "type": "address",
                  "internalType": "address"
                },
                {
                  "name": "debtAsset",
                  "type": "address",
                  "internalType": "address"
                },
                {
                  "name": "borrowedConnector",
                  "type": "address",
                  "internalType": "address"
                },
                {
                  "name": "maxBorrowBps",
                  "type": "uint16",
                  "internalType": "uint16"
                },
                {
                  "name": "safety",
                  "type": "tuple",
                  "internalType": "struct ConversionGateway.BorrowSafety",
                  "components": [
                    {
                      "name": "redeemToleranceBps",
                      "type": "uint16",
                      "internalType": "uint16"
                    },
                    {
                      "name": "withdrawSlippageBps",
                      "type": "uint16",
                      "internalType": "uint16"
                    },
                    {
                      "name": "maxAprBps",
                      "type": "uint256",
                      "internalType": "uint256"
                    },
                    {
                      "name": "minHfBps",
                      "type": "uint256",
                      "internalType": "uint256"
                    },
                    {
                      "name": "emergencyMode",
                      "type": "bool",
                      "internalType": "bool"
                    },
                    {
                      "name": "emergencyRedeemBps",
                      "type": "uint16",
                      "internalType": "uint16"
                    },
                    {
                      "name": "emergencyWithdrawBps",
                      "type": "uint16",
                      "internalType": "uint16"
                    }
                  ]
                }
              ]
            }
          ]
        }
      ],
      "outputs": [],
      "stateMutability": "nonpayable"
    },
    {
      "type": "function",
      "name": "strategies",
      "inputs": [
        {
          "name": "",
          "type": "bytes32",
          "internalType": "bytes32"
        }
      ],
      "outputs": [
        {
          "name": "kind",
          "type": "uint8",
          "internalType": "enum ConversionGateway.RouteKind"
        },
        {
          "name": "deposit",
          "type": "tuple",
          "internalType": "struct ConversionGateway.DepositCfg",
          "components": [
            {
              "name": "wrapper",
              "type": "address",
              "internalType": "address"
            },
            {
              "name": "connector",
              "type": "address",
              "internalType": "address"
            },
            {
              "name": "safety",
              "type": "tuple",
              "internalType": "struct ConversionGateway.DepositSafety",
              "components": [
                {
                  "name": "redeemToleranceBps",
                  "type": "uint16",
                  "internalType": "uint16"
                },
                {
                  "name": "unwrapMinOutBps",
                  "type": "uint16",
                  "internalType": "uint16"
                },
                {
                  "name": "emergencyMode",
                  "type": "bool",
                  "internalType": "bool"
                },
                {
                  "name": "emergencyRedeemBps",
                  "type": "uint16",
                  "internalType": "uint16"
                },
                {
                  "name": "emergencyUnwrapBps",
                  "type": "uint16",
                  "internalType": "uint16"
                }
              ]
            }
          ]
        },
        {
          "name": "borrow",
          "type": "tuple",
          "internalType": "struct ConversionGateway.BorrowCfg",
          "components": [
            {
              "name": "adapter",
              "type": "address",
              "internalType": "address"
            },
            {
              "name": "debtAsset",
              "type": "address",
              "internalType": "address"
            },
            {
              "name": "borrowedConnector",
              "type": "address",
              "internalType": "address"
            },
            {
              "name": "maxBorrowBps",
              "type": "uint16",
              "internalType": "uint16"
            },
            {
              "name": "safety",
              "type": "tuple",
              "internalType": "struct ConversionGateway.BorrowSafety",
              "components": [
                {
                  "name": "redeemToleranceBps",
                  "type": "uint16",
                  "internalType": "uint16"
                },
                {
                  "name": "withdrawSlippageBps",
                  "type": "uint16",
                  "internalType": "uint16"
                },
                {
                  "name": "maxAprBps",
                  "type": "uint256",
                  "internalType": "uint256"
                },
                {
                  "name": "minHfBps",
                  "type": "uint256",
                  "internalType": "uint256"
                },
                {
                  "name": "emergencyMode",
                  "type": "bool",
                  "internalType": "bool"
                },
                {
                  "name": "emergencyRedeemBps",
                  "type": "uint16",
                  "internalType": "uint16"
                },
                {
                  "name": "emergencyWithdrawBps",
                  "type": "uint16",
                  "internalType": "uint16"
                }
              ]
            }
          ]
        }
      ],
      "stateMutability": "view"
    },
    {
      "type": "function",
      "name": "supportsInterface",
      "inputs": [
        {
          "name": "interfaceId",
          "type": "bytes4",
          "internalType": "bytes4"
        }
      ],
      "outputs": [
        {
          "name": "",
          "type": "bool",
          "internalType": "bool"
        }
      ],
      "stateMutability": "view"
    },
    {
      "type": "function",
      "name": "unwindBorrow",
      "inputs": [
        {
          "name": "user",
          "type": "address",
          "internalType": "address"
        },
        {
          "name": "strategy",
          "type": "bytes32",
          "internalType": "bytes32"
        },
        {
          "name": "requestedDebtIn",
          "type": "uint256",
          "internalType": "uint256"
        },
        {
          "name": "minCollateralOut",
          "type": "uint256",
          "internalType": "uint256"
        },
        {
          "name": "adapterData",
          "type": "bytes",
          "internalType": "bytes"
        },
        {
          "name": "connectorMinOut",
          "type": "uint256",
          "internalType": "uint256"
        }
      ],
      "outputs": [
        {
          "name": "collateralOut",
          "type": "uint256",
          "internalType": "uint256"
        },
        {
          "name": "repaidDebt",
          "type": "uint256",
          "internalType": "uint256"
        },
        {
          "name": "redeemedDebt",
          "type": "uint256",
          "internalType": "uint256"
        }
      ],
      "stateMutability": "nonpayable"
    },
    {
      "type": "function",
      "name": "unwindDepositAny",
      "inputs": [
        {
          "name": "user",
          "type": "address",
          "internalType": "address"
        },
        {
          "name": "strategy",
          "type": "bytes32",
          "internalType": "bytes32"
        },
        {
          "name": "requestedBaseOrWrapped",
          "type": "uint256",
          "internalType": "uint256"
        }
      ],
      "outputs": [],
      "stateMutability": "nonpayable"
    },
    {
      "type": "function",
      "name": "violatesCeilings",
      "inputs": [
        {
          "name": "S",
          "type": "tuple",
          "internalType": "struct ConversionGateway.BorrowSafety",
          "components": [
            {
              "name": "redeemToleranceBps",
              "type": "uint16",
              "internalType": "uint16"
            },
            {
              "name": "withdrawSlippageBps",
              "type": "uint16",
              "internalType": "uint16"
            },
            {
              "name": "maxAprBps",
              "type": "uint256",
              "internalType": "uint256"
            },
            {
              "name": "minHfBps",
              "type": "uint256",
              "internalType": "uint256"
            },
            {
              "name": "emergencyMode",
              "type": "bool",
              "internalType": "bool"
            },
            {
              "name": "emergencyRedeemBps",
              "type": "uint16",
              "internalType": "uint16"
            },
            {
              "name": "emergencyWithdrawBps",
              "type": "uint16",
              "internalType": "uint16"
            }
          ]
        },
        {
          "name": "adapter",
          "type": "address",
          "internalType": "contract IBorrowVenueAdapter"
        },
        {
          "name": "debtAsset",
          "type": "address",
          "internalType": "address"
        }
      ],
      "outputs": [
        {
          "name": "ok",
          "type": "bool",
          "internalType": "bool"
        },
        {
          "name": "reason",
          "type": "uint8",
          "internalType": "uint8"
        }
      ],
      "stateMutability": "view"
    },
    {
      "type": "function",
      "name": "violatesCeilings",
      "inputs": [
        {
          "name": "strat",
          "type": "bytes32",
          "internalType": "bytes32"
        }
      ],
      "outputs": [
        {
          "name": "",
          "type": "bool",
          "internalType": "bool"
        }
      ],
      "stateMutability": "view"
    },
    {
      "type": "event",
      "name": "BorrowOpened",
      "inputs": [
        {
          "name": "user",
          "type": "address",
          "indexed": true,
          "internalType": "address"
        },
        {
          "name": "strategy",
          "type": "bytes32",
          "indexed": true,
          "internalType": "bytes32"
        },
        {
          "name": "baseIn",
          "type": "uint256",
          "indexed": false,
          "internalType": "uint256"
        },
        {
          "name": "maxBorrowBps",
          "type": "uint16",
          "indexed": false,
          "internalType": "uint16"
        },
        {
          "name": "borrowedBorrowed",
          "type": "uint256",
          "indexed": false,
          "internalType": "uint256"
        }
      ],
      "anonymous": false
    },
    {
      "type": "event",
      "name": "BorrowRepaid",
      "inputs": [
        {
          "name": "user",
          "type": "address",
          "indexed": true,
          "internalType": "address"
        },
        {
          "name": "strategy",
          "type": "bytes32",
          "indexed": true,
          "internalType": "bytes32"
        },
        {
          "name": "borrowedRepaid",
          "type": "uint256",
          "indexed": false,
          "internalType": "uint256"
        },
        {
          "name": "baseWithdrawn",
          "type": "uint256",
          "indexed": false,
          "internalType": "uint256"
        }
      ],
      "anonymous": false
    },
    {
      "type": "event",
      "name": "BorrowSuppliedAndDrawn",
      "inputs": [
        {
          "name": "user",
          "type": "address",
          "indexed": true,
          "internalType": "address"
        },
        {
          "name": "strategy",
          "type": "bytes32",
          "indexed": true,
          "internalType": "bytes32"
        },
        {
          "name": "baseIn",
          "type": "uint256",
          "indexed": false,
          "internalType": "uint256"
        },
        {
          "name": "debtOut",
          "type": "uint256",
          "indexed": false,
          "internalType": "uint256"
        }
      ],
      "anonymous": false
    },
    {
      "type": "event",
      "name": "DepositedWrap",
      "inputs": [
        {
          "name": "user",
          "type": "address",
          "indexed": true,
          "internalType": "address"
        },
        {
          "name": "strategy",
          "type": "bytes32",
          "indexed": true,
          "internalType": "bytes32"
        },
        {
          "name": "baseIn",
          "type": "uint256",
          "indexed": false,
          "internalType": "uint256"
        },
        {
          "name": "wrappedDeposited",
          "type": "uint256",
          "indexed": false,
          "internalType": "uint256"
        }
      ],
      "anonymous": false
    },
    {
      "type": "event",
      "name": "RoleAdminChanged",
      "inputs": [
        {
          "name": "role",
          "type": "bytes32",
          "indexed": true,
          "internalType": "bytes32"
        },
        {
          "name": "previousAdminRole",
          "type": "bytes32",
          "indexed": true,
          "internalType": "bytes32"
        },
        {
          "name": "newAdminRole",
          "type": "bytes32",
          "indexed": true,
          "internalType": "bytes32"
        }
      ],
      "anonymous": false
    },
    {
      "type": "event",
      "name": "RoleGranted",
      "inputs": [
        {
          "name": "role",
          "type": "bytes32",
          "indexed": true,
          "internalType": "bytes32"
        },
        {
          "name": "account",
          "type": "address",
          "indexed": true,
          "internalType": "address"
        },
        {
          "name": "sender",
          "type": "address",
          "indexed": true,
          "internalType": "address"
        }
      ],
      "anonymous": false
    },
    {
      "type": "event",
      "name": "RoleRevoked",
      "inputs": [
        {
          "name": "role",
          "type": "bytes32",
          "indexed": true,
          "internalType": "bytes32"
        },
        {
          "name": "account",
          "type": "address",
          "indexed": true,
          "internalType": "address"
        },
        {
          "name": "sender",
          "type": "address",
          "indexed": true,
          "internalType": "address"
        }
      ],
      "anonymous": false
    },
    {
      "type": "event",
      "name": "StrategyBorrowEmergencySet",
      "inputs": [
        {
          "name": "strategy",
          "type": "bytes32",
          "indexed": true,
          "internalType": "bytes32"
        },
        {
          "name": "on",
          "type": "bool",
          "indexed": false,
          "internalType": "bool"
        }
      ],
      "anonymous": false
    },
    {
      "type": "event",
      "name": "StrategyBorrowSafetySet",
      "inputs": [
        {
          "name": "strategy",
          "type": "bytes32",
          "indexed": true,
          "internalType": "bytes32"
        },
        {
          "name": "redeemToleranceBps",
          "type": "uint16",
          "indexed": false,
          "internalType": "uint16"
        },
        {
          "name": "withdrawSlippageBps",
          "type": "uint16",
          "indexed": false,
          "internalType": "uint16"
        }
      ],
      "anonymous": false
    },
    {
      "type": "event",
      "name": "StrategyDepositEmergencySet",
      "inputs": [
        {
          "name": "strategy",
          "type": "bytes32",
          "indexed": true,
          "internalType": "bytes32"
        },
        {
          "name": "on",
          "type": "bool",
          "indexed": false,
          "internalType": "bool"
        }
      ],
      "anonymous": false
    },
    {
      "type": "event",
      "name": "StrategyDepositSafetySet",
      "inputs": [
        {
          "name": "strategy",
          "type": "bytes32",
          "indexed": true,
          "internalType": "bytes32"
        },
        {
          "name": "redeemToleranceBps",
          "type": "uint16",
          "indexed": false,
          "internalType": "uint16"
        },
        {
          "name": "unwrapMinOutBps",
          "type": "uint16",
          "indexed": false,
          "internalType": "uint16"
        }
      ],
      "anonymous": false
    },
    {
      "type": "event",
      "name": "StrategySet",
      "inputs": [
        {
          "name": "id",
          "type": "bytes32",
          "indexed": true,
          "internalType": "bytes32"
        },
        {
          "name": "kind",
          "type": "uint8",
          "indexed": false,
          "internalType": "enum ConversionGateway.RouteKind"
        },
        {
          "name": "depositWrapper",
          "type": "address",
          "indexed": false,
          "internalType": "address"
        },
        {
          "name": "depositConnector",
          "type": "address",
          "indexed": false,
          "internalType": "address"
        },
        {
          "name": "borrowAdapter",
          "type": "address",
          "indexed": false,
          "internalType": "address"
        },
        {
          "name": "debtAsset",
          "type": "address",
          "indexed": false,
          "internalType": "address"
        },
        {
          "name": "borrowedConnector",
          "type": "address",
          "indexed": false,
          "internalType": "address"
        }
      ],
      "anonymous": false
    },
    {
      "type": "event",
      "name": "UnwoundBorrow",
      "inputs": [
        {
          "name": "user",
          "type": "address",
          "indexed": true,
          "internalType": "address"
        },
        {
          "name": "strategy",
          "type": "bytes32",
          "indexed": true,
          "internalType": "bytes32"
        },
        {
          "name": "debtRedeemed",
          "type": "uint256",
          "indexed": false,
          "internalType": "uint256"
        },
        {
          "name": "debtRepaid",
          "type": "uint256",
          "indexed": false,
          "internalType": "uint256"
        },
        {
          "name": "collateralRestaked",
          "type": "uint256",
          "indexed": false,
          "internalType": "uint256"
        }
      ],
      "anonymous": false
    },
    {
      "type": "event",
      "name": "UnwoundDeposit",
      "inputs": [
        {
          "name": "user",
          "type": "address",
          "indexed": true,
          "internalType": "address"
        },
        {
          "name": "strategy",
          "type": "bytes32",
          "indexed": true,
          "internalType": "bytes32"
        },
        {
          "name": "baseOut",
          "type": "uint256",
          "indexed": false,
          "internalType": "uint256"
        }
      ],
      "anonymous": false
    },
    {
      "type": "error",
      "name": "AccessControlBadConfirmation",
      "inputs": []
    },
    {
      "type": "error",
      "name": "AccessControlUnauthorizedAccount",
      "inputs": [
        {
          "name": "account",
          "type": "address",
          "internalType": "address"
        },
        {
          "name": "neededRole",
          "type": "bytes32",
          "internalType": "bytes32"
        }
      ]
    },
    {
      "type": "error",
      "name": "ReentrancyGuardReentrantCall",
      "inputs": []
    }
  ],
  "bytecode": {
    "object": "0x60c060405234801562000010575f80fd5b50604051620054bc380380620054bc83398101604081905262000033916200024c565b600180556001600160a01b038116158015906200005857506001600160a01b03831615155b620000955760405162461bcd60e51b81526020600482015260096024820152682d22a927afa0a2222960b91b604482015260640160405180910390fd5b6001600160a01b0381811660805283811660a052600280546001600160a01b031916918416919091179055620000ec7fdf058f017018cec776721a5a8df2a193f80faf9c7b8bbf29a37c17b2cf0a7a6a8762000188565b50620001197f061671c5d9c2848c4e78f3cfd7efc04c5d793e746efab769b3416aa5bbfb40cc8662000188565b50620001467f372d55e37651a7c6e1940a3fb8628e4b6122a3c1a8b2b70aee13e072286045678562000188565b506200017b7faa7928cf07feced9a83ea7cfbed4c4d0a65fcdd513fad1d88617046db8c3710460a0516200018860201b60201c565b50505050505050620002dc565b5f828152602081815260408083206001600160a01b038516845290915281205460ff166200022b575f838152602081815260408083206001600160a01b03861684529091529020805460ff19166001179055620001e23390565b6001600160a01b0316826001600160a01b0316847f2f8788117e7eff1d82e926ec794901d17c78024a50270940304540a733656f0d60405160405180910390a45060016200022e565b505f5b92915050565b6001600160a01b038116811462000249575f80fd5b50565b5f805f805f8060c0878903121562000262575f80fd5b86516200026f8162000234565b6020880151909650620002828162000234565b6040880151909550620002958162000234565b6060880151909450620002a88162000234565b6080880151909350620002bb8162000234565b60a0880151909250620002ce8162000234565b809150509295509295509295565b60805160a051615139620003835f395f8181610596015281816118a10152818161192301528181611a17015281816120b80152818161212501526122b001525f81816106240152818161086101528181610af8015281816118740152818161208b01528181612d3901528181612dc001528181612f0d0152818161303d01528181613a5601528181613b9a01528181613ca601528181613d490152613df101526151395ff3fe608060405234801561000f575f80fd5b50600436106101dc575f3560e01c80636bc84c33116101095780639a5eecb91161009e578063d547741f1161006e578063d547741f14610646578063d80eff2014610659578063e0eb70991461066d578063fd2881c01461068f575f80fd5b80639a5eecb9146105de578063a217fddf146105f1578063b047eb02146105f8578063cdf456e11461061f575f80fd5b8063895ec75f116100d9578063895ec75f1461057d57806390e1437c1461059157806391d14854146105b857806394793bf9146105cb575f80fd5b80636bc84c33146105195780637adbf9731461052c5780637dc0d1d01461053f578063820216351461056a575f80fd5b80632f2ff15d1161017f5780633ff34eb91161014f5780633ff34eb9146103555780634700bcbe146104ac578063476b4c1d146104d857806361dd0c93146104eb575f80fd5b80632f2ff15d14610309578063346cc2c01461031c57806336568abe1461032f5780633d07e8fb14610342575f80fd5b806322aa0e5a116101ba57806322aa0e5a1461023f578063248a9ca3146102c157806325870fc7146102e35780632d88af4a146102f6575f80fd5b806301ffc9a7146101e05780631c8c4c02146102085780631f4930781461022a575b5f80fd5b6101f36101ee36600461428e565b610728565b60405190151581526020015b60405180910390f35b61021c5f805160206150e483398151915281565b6040519081526020016101ff565b61023d6102383660046142bc565b61075e565b005b61028c61024d3660046142f3565b60066020525f908152604090205461ffff8082169162010000810482169160ff600160201b83041691600160281b8104821691600160381b9091041685565b6040805161ffff968716815294861660208601529215159284019290925283166060830152909116608082015260a0016101ff565b61021c6102cf3660046142f3565b5f9081526020819052604090206001015490565b61023d6102f136600461431e565b6110ef565b61023d61030436600461431e565b611122565b61023d610317366004614339565b611163565b61023d61032a366004614367565b61118d565b61023d61033d366004614339565b611ad1565b61023d6103503660046143a6565b611b04565b61049d6103633660046142f3565b600460208181525f928352604092839020805484516060808201875260018401546001600160a01b0390811683526002850154811683870152875160a08082018a52600387015461ffff8082168452620100008083048216858c015260ff600160201b840481161515868f0152600160281b8404831686890152600160381b9093048216608080870191909152888e01959095528c518085018e529b8a015486168c5260058a015486168c8c015260068a01549586168c8e0152600160a01b90950481168b8701528b5160e081018d5260078a015480831682529590950481169985019990995260088801549a84019a909a52600987015493830193909352600a909501548089161515828701526101008104871692820192909252630100000090910490941660c0850152918401929092529216919083565b6040516101ff939291906143fd565b6104bf6104ba3660046145e8565b611b79565b60408051921515835260ff9091166020830152016101ff565b61023d6104e6366004614676565b611c84565b6104fe6104f93660046146db565b611ecf565b604080519384526020840192909252908201526060016101ff565b61023d6105273660046143a6565b612391565b61023d61053a36600461431e565b6123fa565b600254610552906001600160a01b031681565b6040516001600160a01b0390911681526020016101ff565b61023d610578366004614751565b612434565b61021c5f805160206150a483398151915281565b6105527f000000000000000000000000000000000000000000000000000000000000000081565b6101f36105c6366004614339565b6124ea565b6101f36105d93660046142f3565b612512565b61023d6105ec3660046147b5565b612842565b61021c5f81565b61021c7f372d55e37651a7c6e1940a3fb8628e4b6122a3c1a8b2b70aee13e0722860456781565b6105527f000000000000000000000000000000000000000000000000000000000000000081565b61023d610654366004614339565b612915565b61021c5f805160206150c483398151915281565b6101f361067b36600461431e565b60056020525f908152604090205460ff1681565b6106e861069d3660046142f3565b600360208190525f9182526040909120805460018201546002830154929093015461ffff80831694620100009093048116939160ff8116916101008204811691630100000090041687565b6040805161ffff98891681529688166020880152860194909452606085019290925215156080840152831660a083015290911660c082015260e0016101ff565b5f6001600160e01b03198216637965db0b60e01b148061075857506301ffc9a760e01b6001600160e01b03198316145b92915050565b5f805160206150c483398151915261077581612939565b5f6107836020840184614837565b6002811115610794576107946143c9565b03610a0f575f6107aa604084016020850161431e565b6001600160a01b0316146107f85760405162461bcd60e51b815260206004820152601060248201526f24a222a72a2fa727afaba920a82822a960811b60448201526064015b60405180910390fd5b5f610809606084016040850161431e565b6001600160a01b0316036108575760405162461bcd60e51b815260206004820152601560248201527424a222a72a2fa722a2a229afa1a7a72722a1aa27a960591b60448201526064016107ef565b6001600160a01b037f000000000000000000000000000000000000000000000000000000000000000016610891606084016040850161431e565b6001600160a01b03166338d52e0f6040518163ffffffff1660e01b8152600401602060405180830381865afa1580156108cc573d5f803e3d5ffd5b505050506040513d601f19601f820116820180604052508101906108f09190614852565b6001600160a01b0316146109465760405162461bcd60e51b815260206004820152601a60248201527f434f4e4e4543544f525f4e454544535f424153455f415353455400000000000060448201526064016107ef565b61096061095b3684900384016060850161486d565b612946565b5f6109736101208401610100850161431e565b6001600160a01b03161480156109a257505f6109976101408401610120850161431e565b6001600160a01b0316145b80156109c757505f6109bc6101608401610140850161431e565b6001600160a01b0316145b610a0a5760405162461bcd60e51b8152602060048201526014602482015273424f52524f575f4346475f4e4f545f454d50545960601b60448201526064016107ef565b61102f565b6001610a1e6020840184614837565b6002811115610a2f57610a2f6143c9565b03610d0f575f610a45604084016020850161431e565b6001600160a01b031603610a905760405162461bcd60e51b81526020600482015260126024820152712ba920a82fa722a2a229afaba920a82822a960711b60448201526064016107ef565b5f610aa1606084016040850161431e565b6001600160a01b031603610aee5760405162461bcd60e51b81526020600482015260146024820152732ba920a82fa722a2a229afa1a7a72722a1aa27a960611b60448201526064016107ef565b6001600160a01b037f000000000000000000000000000000000000000000000000000000000000000016610b28604084016020850161431e565b6001600160a01b0316635001f3b56040518163ffffffff1660e01b8152600401602060405180830381865afa158015610b63573d5f803e3d5ffd5b505050506040513d601f19601f82011682018060405250810190610b879190614852565b6001600160a01b031614610bd25760405162461bcd60e51b81526020600482015260126024820152710aea482a0be8482a68abe9a92a69a82a886960731b60448201526064016107ef565b610be2604083016020840161431e565b6001600160a01b03166350e70d486040518163ffffffff1660e01b8152600401602060405180830381865afa158015610c1d573d5f803e3d5ffd5b505050506040513d601f19601f82011682018060405250810190610c419190614852565b6001600160a01b0316610c5a606084016040850161431e565b6001600160a01b03166338d52e0f6040518163ffffffff1660e01b8152600401602060405180830381865afa158015610c95573d5f803e3d5ffd5b505050506040513d601f19601f82011682018060405250810190610cb99190614852565b6001600160a01b0316146109465760405162461bcd60e51b815260206004820152601860248201527f434f4e4e4543544f525f41535345545f4d49534d41544348000000000000000060448201526064016107ef565b6002610d1e6020840184614837565b6002811115610d2f57610d2f6143c9565b03610ff8575f610d476101208401610100850161431e565b6001600160a01b031603610d945760405162461bcd60e51b81526020600482015260146024820152732127a92927abafa722a2a229afa0a220a82a22a960611b60448201526064016107ef565b5f610da76101408401610120850161431e565b6001600160a01b031603610dfd5760405162461bcd60e51b815260206004820152601760248201527f424f52524f575f4e454544535f444542545f415353455400000000000000000060448201526064016107ef565b5f610e106101608401610140850161431e565b6001600160a01b031603610e5f5760405162461bcd60e51b81526020600482015260166024820152752127a92927abafa722a2a229afa1a7a72722a1aa27a960511b60448201526064016107ef565b610e716101408301610120840161431e565b6001600160a01b0316610e8c6101608401610140850161431e565b6001600160a01b03166338d52e0f6040518163ffffffff1660e01b8152600401602060405180830381865afa158015610ec7573d5f803e3d5ffd5b505050506040513d601f19601f82011682018060405250810190610eeb9190614852565b6001600160a01b031614610f415760405162461bcd60e51b815260206004820152601b60248201527f434f4e4e4543544f525f626f72726f7765645f4d49534d41544348000000000060448201526064016107ef565b610f5b610f5661018084016101608501614903565b612974565b610f76610f71368490038401610180850161491e565b6129b5565b5f610f87604084016020850161431e565b6001600160a01b0316148015610fb457505f610fa9606084016040850161431e565b6001600160a01b0316145b610a0a5760405162461bcd60e51b81526020600482015260156024820152744445504f5349545f4346475f4e4f545f454d50545960581b60448201526064016107ef565b60405162461bcd60e51b815260206004820152600c60248201526b155392d393d5d397d2d2539160a21b60448201526064016107ef565b5f83815260046020526040902082906110488282614ab1565b508390507f632829a877476ba0498e8f4a1ca7697b2f82a7494e01e709aba7f5422a0016b561107a6020850185614837565b61108a604086016020870161431e565b61109a606087016040880161431e565b6110ac6101208801610100890161431e565b6110be61014089016101208a0161431e565b6110d06101608a016101408b0161431e565b6040516110e296959493929190614bf3565b60405180910390a2505050565b5f805160206150c483398151915261110681612939565b61111d5f805160206150a4833981519152836129e7565b505050565b5f805160206150c483398151915261113981612939565b61111d7f372d55e37651a7c6e1940a3fb8628e4b6122a3c1a8b2b70aee13e07228604567836129e7565b5f8281526020819052604090206001015461117d81612939565b61118783836129e7565b50505050565b611195612a76565b6111ac5f805160206150a4833981519152336124ea565b806111c957506111c95f805160206150e4833981519152336124ea565b6112095760405162461bcd60e51b815260206004820152601160248201527013d393164812d1515411548813d4881413607a1b60448201526064016107ef565b5f828152600460205260408082208151606081019092528054829060ff166002811115611238576112386143c9565b6002811115611249576112496143c9565b8152604080516060808201835260018501546001600160a01b03908116835260028601548116602084810191909152845160a08082018752600389015461ffff80821684526201000080830482168587015260ff600160201b840481161515868c0152600160281b84048316868a0152600160381b9093048216608080870191909152898b0195909552858b019890985288518084018a5260048c01548716815260058c015487168187015260068c0154968716818b0152600160a01b909604811686880152885160e081018a5260078c015480831682529890980481168886015260088b0154888a015260098b015496880196909652600a909901549889161515868301526101008904851690860152630100000090970490921660c0840152948501919091529181019290925282015101519091505f82516002811115611394576113946143c9565b14806113b257506001825160028111156113b0576113b06143c9565b145b6113f15760405162461bcd60e51b815260206004820152601060248201526f1393d517d1115413d4d25517d2d2539160821b60448201526064016107ef565b60208083015101516001600160a01b031661141e5760405162461bcd60e51b81526004016107ef90614c3a565b60208281015101516040516302c62fa160e41b81526001600160a01b0387811660048301525f921690632c62fa1090602401602060405180830381865afa15801561146b573d5f803e3d5ffd5b505050506040513d601f19601f8201168201806040525081019061148f9190614c62565b90505f81116114d15760405162461bcd60e51b815260206004820152600e60248201526d1393d7d15395125513115351539560921b60448201526064016107ef565b5f5f1985146114ee57818511156114e857816114f0565b846114f0565b815b90505f81116115355760405162461bcd60e51b81526020600482015260116024820152704e4f5448494e475f544f5f52454445454d60781b60448201526064016107ef565b5f836040015161154657835161154c565b83606001515b90505f61271061155c8382614c8d565b61156a9061ffff1685614caf565b6115749190614cc6565b90505f8660200151602001516001600160a01b031663b426b8258b86856040518463ffffffff1660e01b81526004016115af93929190614ce5565b60408051808303815f875af11580156115ca573d5f803e3d5ffd5b505050506040513d601f19601f820116820180604052508101906115ee9190614d06565b509050818110156116345760405162461bcd60e51b815260206004820152601060248201526f14915111515357d4d213d4951190531360821b60448201526064016107ef565b8060018851600281111561164a5761164a6143c9565b0361185d576020880151516001600160a01b03811661169a5760405162461bcd60e51b815260206004820152600c60248201526b15d4905417d393d517d4d15560a21b60448201526064016107ef565b5f816001600160a01b03166350e70d486040518163ffffffff1660e01b8152600401602060405180830381865afa1580156116d7573d5f803e3d5ffd5b505050506040513d601f19601f820116820180604052508101906116fb9190614852565b60405163095ea7b360e01b81529091506001600160a01b0382169063095ea7b39061172c9085908890600401614d28565b6020604051808303815f875af1158015611748573d5f803e3d5ffd5b505050506040513d601f19601f8201168201806040525081019061176c9190614d41565b505f8960400151611781578960200151611787565b89608001515b90505f61271061179b61ffff841688614caf565b6117a59190614cc6565b604051636f074d1f60e11b8152600481018890529091505f906001600160a01b0386169063de0e9a3e906024016020604051808303815f875af11580156117ee573d5f803e3d5ffd5b505050506040513d601f19601f820116820180604052508101906118129190614c62565b9050818110156118565760405162461bcd60e51b815260206004820152600f60248201526e554e575241505f534c49505041474560881b60448201526064016107ef565b9450505050505b60405163095ea7b360e01b81526001600160a01b037f0000000000000000000000000000000000000000000000000000000000000000169063095ea7b3906118cb907f0000000000000000000000000000000000000000000000000000000000000000908590600401614d28565b6020604051808303815f875af11580156118e7573d5f803e3d5ffd5b505050506040513d601f19601f8201168201806040525081019061190b9190614d41565b506040516308ad9ed760e21b81526001600160a01b037f000000000000000000000000000000000000000000000000000000000000000016906322b67b5c9061195c908e9085908f90600401614ce5565b5f604051808303815f87803b158015611973575f80fd5b505af1158015611985573d5f803e3d5ffd5b5050506020808a015101516040516302c62fa160e41b81526001600160a01b038e811660048301529091169150632c62fa1090602401602060405180830381865afa1580156119d6573d5f803e3d5ffd5b505050506040513d601f19601f820116820180604052508101906119fa9190614c62565b5f03611a7c57604051631904547560e21b81526001600160a01b037f0000000000000000000000000000000000000000000000000000000000000000169063641151d490611a4e908e908e90600401614d28565b5f604051808303815f87803b158015611a65575f80fd5b505af1158015611a77573d5f803e3d5ffd5b505050505b898b6001600160a01b03167f490bf3846dd347fe2c06e6ab3cec012b6777612fe7312cd0d26e9d51d3f171ce83604051611ab891815260200190565b60405180910390a3505050505050505061111d60018055565b6001600160a01b0381163314611afa5760405163334bd91960e11b815260040160405180910390fd5b61111d8282612aa0565b5f805160206150c4833981519152611b1b81612939565b5f83815260046020526040908190206003018054841515600160201b0264ff00000000199091161790555183907f1a00eac50c4add93371fbba51ce853d0514d5e93b8ef82d494f783a74f33fe34906110e290851515815260200190565b5f80846080015115611b9057505f90506001611c7c565b60405163f80b656560e01b81526001600160a01b0384811660048301525f9182918291829189169063f80b656590602401608060405180830381865afa158015611bdc573d5f803e3d5ffd5b505050506040513d601f19601f82011682018060405250810190611c009190614d5c565b93509350935093505f8960400151118015611c185750835b8015611c275750886040015183115b15611c3c575f60029550955050505050611c7c565b5f8960600151118015611c4c5750815b8015611c5b5750886060015181105b15611c70575f60039550955050505050611c7c565b60015f95509550505050505b935093915050565b611c8c612a76565b5f805160206150e4833981519152611ca381612939565b5f848152600460205260408082208151606081019092528054829060ff166002811115611cd257611cd26143c9565b6002811115611ce357611ce36143c9565b8152604080516060808201835260018501546001600160a01b03908116835260028601548116602084810191909152845160a08082018752600389015461ffff80821684526201000080830482168587015260ff600160201b840481161515868c0152600160281b84048316868a0152600160381b9093048216608080870191909152898b0195909552858b019890985288518084018a5260048c01548716815260058c015487168187015260068c0154968716818b0152600160a01b909604811686880152885160e081018a5260078c015480831682529890980481169488019490945260088a01548789015260098a015495870195909552600a909801549384161515858201526101008404821697850197909752630100000090920490911660c083015293840152015290505f81516002811115611e2657611e266143c9565b1480611e445750600181516002811115611e4257611e426143c9565b145b15611e5957611e54878787612b09565b611ebd565b600281516002811115611e6e57611e6e6143c9565b03611e8057611e548787878787613285565b60405162461bcd60e51b8152602060048201526012602482015271155392d393d5d397d4d514905517d2d2539160721b60448201526064016107ef565b5050611ec860018055565b5050505050565b5f805f611eda612a76565b611ef15f805160206150a4833981519152336124ea565b80611f0e5750611f0e5f805160206150e4833981519152336124ea565b611f4e5760405162461bcd60e51b815260206004820152601160248201527013d393164812d1515411548813d4881413607a1b60448201526064016107ef565b5f8981526004602052604090206002815460ff166002811115611f7357611f736143c9565b14611fad5760405162461bcd60e51b815260206004820152600a60248201526914d514905517d2d2539160b21b60448201526064016107ef565b6004810180546001600160a01b031615801590611fd6575060018101546001600160a01b031615155b8015611fee575060028101546001600160a01b031615155b6120285760405162461bcd60e51b815260206004820152600b60248201526a4346475f4d495353494e4760a81b60448201526064016107ef565b6120348c828c8961351e565b815460018301549194505f916001600160a01b03918216911661205a8282888e8e6137e2565b909750925061207191508390508a8a84898f613a3d565b60405163095ea7b360e01b81529096506001600160a01b037f0000000000000000000000000000000000000000000000000000000000000000169063095ea7b3906120e2907f0000000000000000000000000000000000000000000000000000000000000000908a90600401614d28565b6020604051808303815f875af11580156120fe573d5f803e3d5ffd5b505050506040513d601f19601f820116820180604052508101906121229190614d41565b507f00000000000000000000000000000000000000000000000000000000000000006001600160a01b03166322b67b5c8e888f6040518463ffffffff1660e01b815260040161217393929190614ce5565b5f604051808303815f87803b15801561218a575f80fd5b505af115801561219c573d5f803e3d5ffd5b50505050816002015f9054906101000a90046001600160a01b03166001600160a01b0316632c62fa108e6040518263ffffffff1660e01b81526004016121f191906001600160a01b0391909116815260200190565b602060405180830381865afa15801561220c573d5f803e3d5ffd5b505050506040513d601f19601f820116820180604052508101906122309190614c62565b1580156122a95750815460018301546040516311005b0760e01b81526001600160a01b0391821660048201529116906311005b0790602401602060405180830381865afa158015612283573d5f803e3d5ffd5b505050506040513d601f19601f820116820180604052508101906122a79190614c62565b155b1561232a577f00000000000000000000000000000000000000000000000000000000000000006001600160a01b031663641151d48e8e6040518363ffffffff1660e01b81526004016122fc929190614d28565b5f604051808303815f87803b158015612313575f80fd5b505af1158015612325573d5f803e3d5ffd5b505050505b60408051858152602081018790529081018790528c906001600160a01b038f16907f0a1db12eec413a7ba2a35d944ede0ba6ce93d10359f00307d8b83d476241170c9060600160405180910390a350505061238460018055565b9750975097945050505050565b5f805160206150c48339815191526123a881612939565b5f83815260046020908152604091829020600a01805460ff1916851515908117909155915191825284917fd751460dfa37a649939ce06a0850c35d37260e33cb88cf09361d891bb7ab87f091016110e2565b5f805160206150c483398151915261241181612939565b50600280546001600160a01b0319166001600160a01b0392909216919091179055565b5f805160206150c483398151915261244b81612939565b5f86815260046020908152604091829020600301805461ffff868116600160381b0261ffff60381b19898316600160281b021668ffffffff0000000000198b841662010000810263ffffffff19909616948e169485179590951716171783558451908152928301529188917f82ea984af33e4323de9425a623c76267c0030ef8d8ede50f189c6ee4639988cb910160405180910390a250505050505050565b5f918252602082815260408084206001600160a01b0393909316845291905290205460ff1690565b5f818152600360208181526040808420815160e081018352815461ffff80821683526201000090910481169482019490945260018201549281018390526002820154606082015293015460ff8116151560808501526101008104831660a08501526301000000900490911660c083015215801561259157506060810151155b1561259e57505f92915050565b5f838152600460205260408082208151606081019092528054829060ff1660028111156125cd576125cd6143c9565b60028111156125de576125de6143c9565b8152604080516060808201835260018501546001600160a01b03908116835260028601548116602084810191909152845160a08082018752600389015461ffff80821684526201000080830482168587015260ff600160201b840481161515868c0152600160281b84048316868a0152600160381b9093048216608080870191909152898b0195909552858b019890985288518084018a5260048c01548716815260058c015487168187015260068c0154968716818b0152600160a01b909604811686880152885160e081018a5260078c015480831682529890980481169488019490945260088a01548789015260098a015495870195909552600a909801549384161515858201526101008404821697850197909752630100000090920490911660c0830152938401529081019190915281810151519084015191925090156127b157604082810151602001519051631faf920160e11b81526001600160a01b03918216600482015290821690633f5f240290602401602060405180830381865afa92505050801561278e575060408051601f3d908101601f1916820190925261278b91810190614da2565b60015b156127b15783604001518161ffff1611156127af5750600195945050505050565b505b60608301511561283857806001600160a01b03166349f47b916040518163ffffffff1660e01b8152600401602060405180830381865afa925050508015612815575060408051601f3d908101601f1916820190925261281291810190614da2565b60015b156128385783606001518161ffff1610156128365750600195945050505050565b505b505f949350505050565b5f805160206150c483398151915261285981612939565b5f8881526004602090815260409182902060078101805461ffff8c811663ffffffff199092168217620100008d8316908102919091178455600885018c9055600985018b9055600a909401805464ffffffff0019166101008b84160264ffff0000001916176301000000928a1692909202919091179055845190815292830191909152918a917f4d81643471296ec367e6beb7d3d4c022b6b72e9aa116b960013c7bfdec423135910160405180910390a2505050505050505050565b5f8281526020819052604090206001015461292f81612939565b6111878383612aa0565b6129438133613c5e565b50565b805161295190612974565b61295e8160200151612974565b61296b8160600151612974565b61294381608001515b61271061ffff821611156129435760405162461bcd60e51b81526020600482015260086024820152674250533e3130302560c01b60448201526064016107ef565b80516129c090612974565b6129cd8160200151612974565b6129da8160a00151612974565b6129438160c00151612974565b5f6129f283836124ea565b612a6f575f838152602081815260408083206001600160a01b03861684529091529020805460ff19166001179055612a273390565b6001600160a01b0316826001600160a01b0316847f2f8788117e7eff1d82e926ec794901d17c78024a50270940304540a733656f0d60405160405180910390a4506001610758565b505f610758565b600260015403612a9957604051633ee5aeb560e01b815260040160405180910390fd5b6002600155565b5f612aab83836124ea565b15612a6f575f838152602081815260408083206001600160a01b0386168085529252808320805460ff1916905551339286917ff6391f5c32d9c69d2a47ea670b442974b53935d1edc7fd64eb21e047a839171b9190a4506001610758565b6001600160a01b03831615801590612b2057505f82115b612b575760405162461bcd60e51b81526020600482015260086024820152674241445f4152475360c01b60448201526064016107ef565b5f818152600460205260408082208151606081019092528054829060ff166002811115612b8657612b866143c9565b6002811115612b9757612b976143c9565b8152604080516060808201835260018501546001600160a01b03908116835260028601548116602084810191909152845160a08082018752600389015461ffff80821684526201000080830482168587015260ff600160201b840481161515868c0152600160281b84048316868a0152600160381b9093048216608080870191909152898b0195909552858b019890985288518084018a5260048c01548716815260058c015487168187015260068c0154968716818b0152600160a01b909604811686880152885160e081018a5260078c015480831682529890980481169488019490945260088a01548789015260098a015495870195909552600a909801549384161515858201526101008404821697850197909752630100000090920490911660c083015293840152015290505f81516002811115612cda57612cda6143c9565b1480612cf85750600181516002811115612cf657612cf66143c9565b145b612d375760405162461bcd60e51b815260206004820152601060248201526f1393d517d1115413d4d25517d2d2539160821b60448201526064016107ef565b7f000000000000000000000000000000000000000000000000000000000000000083600183516002811115612d6e57612d6e6143c9565b0361303b576020830151516001600160a01b038116612dbe5760405162461bcd60e51b815260206004820152600c60248201526b15d4905417d393d517d4d15560a21b60448201526064016107ef565b7f00000000000000000000000000000000000000000000000000000000000000006001600160a01b0316816001600160a01b0316635001f3b56040518163ffffffff1660e01b8152600401602060405180830381865afa158015612e24573d5f803e3d5ffd5b505050506040513d601f19601f82011682018060405250810190612e489190614852565b6001600160a01b031614612e935760405162461bcd60e51b81526020600482015260126024820152710aea482a0be8482a68abe9a92a69a82a886960731b60448201526064016107ef565b806001600160a01b03166350e70d486040518163ffffffff1660e01b8152600401602060405180830381865afa158015612ecf573d5f803e3d5ffd5b505050506040513d601f19601f82011682018060405250810190612ef39190614852565b60405163095ea7b360e01b81529093506001600160a01b037f0000000000000000000000000000000000000000000000000000000000000000169063095ea7b390612f449084908a90600401614d28565b6020604051808303815f875af1158015612f60573d5f803e3d5ffd5b505050506040513d601f19601f82011682018060405250810190612f849190614d41565b50604051630ea598cb60e41b8152600481018790525f906001600160a01b0383169063ea598cb0906024016020604051808303815f875af1158015612fcb573d5f803e3d5ffd5b505050506040513d601f19601f82011682018060405250810190612fef9190614c62565b90508681146130325760405162461bcd60e51b815260206004820152600f60248201526e575241505f4e4f545f315f544f5f3160881b60448201526064016107ef565b915061305f9050565b7f000000000000000000000000000000000000000000000000000000000000000091505b60208084015101516001600160a01b031661308c5760405162461bcd60e51b81526004016107ef90614c3a565b816001600160a01b03168360200151602001516001600160a01b03166338d52e0f6040518163ffffffff1660e01b8152600401602060405180830381865afa1580156130da573d5f803e3d5ffd5b505050506040513d601f19601f820116820180604052508101906130fe9190614852565b6001600160a01b03161461314a5760405162461bcd60e51b81526020600482015260136024820152720869e9c9cbe82a6a68aa8be9a92a69a82a8869606b1b60448201526064016107ef565b602080840151015160405163095ea7b360e01b81526001600160a01b0384169163095ea7b39161317f91908590600401614d28565b6020604051808303815f875af115801561319b573d5f803e3d5ffd5b505050506040513d601f19601f820116820180604052508101906131bf9190614d41565b508260200151602001516001600160a01b0316632f4f21e287836040518363ffffffff1660e01b81526004016131f6929190614d28565b6020604051808303815f875af1158015613212573d5f803e3d5ffd5b505050506040513d601f19601f820116820180604052508101906132369190614c62565b50604080518681526020810183905285916001600160a01b038916917f392a03d846f1f19b33118acaf0453b883b9248cd04040e3893089bcbfc4524f0910160405180910390a3505050505050565b6001600160a01b0385161580159061329c57505f84115b6132d35760405162461bcd60e51b81526020600482015260086024820152674241445f4152475360c01b60448201526064016107ef565b5f8381526004602052604090206002815460ff1660028111156132f8576132f86143c9565b146133325760405162461bcd60e51b815260206004820152600a60248201526914d514905517d2d2539160b21b60448201526064016107ef565b60048101546040805160e081018252600784015461ffff8082168352620100009091048116602083015260088501549282019290925260098401546060820152600a84015460ff8116151560808301526101008104831660a08301526301000000900490911660c082015260058301546001600160a01b03928316925f9283926133be92869116611b79565b91509150816134005760405162461bcd60e51b815260206004820152600e60248201526d1093d49493d5d7d09313d0d2d15160921b60448201526064016107ef565b6004840180546001600160a01b031615801590613429575060018101546001600160a01b031615155b6134635760405162461bcd60e51b815260206004820152600b60248201526a4346475f4d495353494e4760a81b60448201526064016107ef565b5f61347087890189614e46565b5050915050613480828b83613c8d565b505f8080613490898b018b614e46565b9350505091506134a2848d8484613da7565b92505f91508190506134b6898b018b614e46565b5092509250506134c9848e858585613e99565b5050604080518b8152602081018390528a916001600160a01b038e16917f0c19a869705042e48abbca264b5462f933047c983dcf445d5d52bd14275eb1cc910160405180910390a35050505050505050505050565b6040805160e081018252600385015461ffff8082168352620100009091048116602083015260048601549282019290925260058501546060820152600685015460ff8116151560808301526101008104831660a08301526301000000900490911660c082015260028401545f91906001600160a01b03166135b15760405162461bcd60e51b81526004016107ef90614c3a565b60028501546040516302c62fa160e41b81526001600160a01b0388811660048301525f921690632c62fa1090602401602060405180830381865afa1580156135fb573d5f803e3d5ffd5b505050506040513d601f19601f8201168201806040525081019061361f9190614c62565b90505f81116136615760405162461bcd60e51b815260206004820152600e60248201526d1393d7d15395125513115351539560921b60448201526064016107ef565b5f5f19861461367e57818611156136785781613680565b85613680565b815b90505f81116136c05760405162461bcd60e51b815260206004820152600c60248201526b16915493d7d49154555154d560a21b60448201526064016107ef565b5f83608001516136d15783516136d7565b8360a001515b90505f6127106136e78382614c8d565b6136f59061ffff1685614caf565b6136ff9190614cc6565b90505f81881161370f5781613711565b875b60028b015460405163b426b82560e01b81529192505f916001600160a01b039091169063b426b8259061374c908f9089908790600401614ce5565b60408051808303815f875af1158015613767573d5f803e3d5ffd5b505050506040513d601f19601f8201168201806040525081019061378b9190614d06565b509050818110156137d15760405162461bcd60e51b815260206004820152601060248201526f14915111515357d4d213d4951190531360821b60448201526064016107ef565b96505050505050505b949350505050565b6040516311005b0760e01b81526001600160a01b0385811660048301525f9182918816906311005b0790602401602060405180830381865afa15801561382a573d5f803e3d5ffd5b505050506040513d601f19601f8201168201806040525081019061384e9190614c62565b60405163095ea7b360e01b81529091506001600160a01b0387169063095ea7b39061387f908a908990600401614d28565b6020604051808303815f875af115801561389b573d5f803e3d5ffd5b505050506040513d601f19601f820116820180604052508101906138bf9190614d41565b506040516343528c8f60e11b81526001600160a01b038816906386a5191e906138f2908990899089908990600401614ebf565b6020604051808303815f875af115801561390e573d5f803e3d5ffd5b505050506040513d601f19601f820116820180604052508101906139329190614c62565b91505f82116139705760405162461bcd60e51b815260206004820152600a60248201526952455041595f5a45524f60b01b60448201526064016107ef565b6040516311005b0760e01b81526001600160a01b0387811660048301525f91908916906311005b0790602401602060405180830381865afa1580156139b7573d5f803e3d5ffd5b505050506040513d601f19601f820116820180604052508101906139db9190614c62565b90508082101580156139f65750826139f38284614f06565b10155b613a325760405162461bcd60e51b815260206004820152600d60248201526c0888a84a8be9a92a69a82a8869609b1b60448201526064016107ef565b509550959350505050565b8554604051630286fca160e61b81526001600160a01b037f0000000000000000000000000000000000000000000000000000000000000000811660048301525f9216908290829063a1bf284090602401602060405180830381865afa158015613aa8573d5f803e3d5ffd5b505050506040513d601f19601f82011682018060405250810190613acc9190614c62565b90505f8615613aef5786613ae08784614caf565b613aea9190614cc6565b613af1565b5f5b60038b015490915062010000900461ffff168015613b3157612710613b1a61ffff831684614caf565b613b249190614cc6565b613b2e9083614f06565b91505b5f8211613b765760405162461bcd60e51b81526020600482015260136024820152724e4f5448494e475f544f5f574954484452415760681b60448201526064016107ef565b604051636a987c6960e01b81526001600160a01b03851690636a987c6990613bc8907f00000000000000000000000000000000000000000000000000000000000000009086908f908f90600401614ebf565b6020604051808303815f875af1158015613be4573d5f803e3d5ffd5b505050506040513d601f19601f82011682018060405250810190613c089190614c62565b945085851015613c505760405162461bcd60e51b8152602060048201526013602482015272434f4c4c41544552414c5f534c49505041474560681b60448201526064016107ef565b505050509695505050505050565b613c6882826124ea565b613c8957808260405163e2517d3f60e01b81526004016107ef929190614d28565b5050565b825460405163095ea7b360e01b81526001600160a01b037f000000000000000000000000000000000000000000000000000000000000000081169263095ea7b392613ce19291909116908690600401614d28565b6020604051808303815f875af1158015613cfd573d5f803e3d5ffd5b505050506040513d601f19601f82011682018060405250810190613d219190614d41565b50825460405163016f1aa360e41b81526001600160a01b03909116906316f1aa3090613d75907f00000000000000000000000000000000000000000000000000000000000000009086908690600401614f19565b5f604051808303815f87803b158015613d8c575f80fd5b505af1158015613d9e573d5f803e3d5ffd5b50505050505050565b5f805f8461ffff16118015613dce5750600286015461ffff600160a01b9091048116908516105b613de7576002860154600160a01b900461ffff16613de9565b835b90505f613e167f000000000000000000000000000000000000000000000000000000000000000087614046565b90505f612710613e2a61ffff851684614caf565b613e349190614cc6565b6001890154909150613e4f906001600160a01b031682614168565b935084841015613e8e5760405162461bcd60e51b815260206004820152600a6024820152692127a92927abafa6a4a760b11b60448201526064016107ef565b505050949350505050565b8215611ec85784546001860154604051636e2246a760e01b81526001600160a01b0392831692636e2246a792613ed89291169087908790600401614f19565b5f604051808303815f87803b158015613eef575f80fd5b505af1158015613f01573d5f803e3d5ffd5b5050505060028501546001600160a01b03161561400d576001850154600286015460405163095ea7b360e01b81526001600160a01b039283169263095ea7b392613f52929116908790600401614d28565b6020604051808303815f875af1158015613f6e573d5f803e3d5ffd5b505050506040513d601f19601f82011682018060405250810190613f929190614d41565b5060028501546040516317a790f160e11b81526001600160a01b0390911690632f4f21e290613fc79087908790600401614d28565b6020604051808303815f875af1158015613fe3573d5f803e3d5ffd5b505050506040513d601f19601f820116820180604052508101906140079190614c62565b50611ec8565b60405162461bcd60e51b815260206004820152600e60248201526d1393d7d093d49493d5d7d11154d560921b60448201526064016107ef565b5f815f0361405557505f610758565b6002546040516315d5220f60e31b81526001600160a01b0385811660048301525f92169063aea9107890602401602060405180830381865afa15801561409d573d5f803e3d5ffd5b505050506040513d601f19601f820116820180604052508101906140c19190614c62565b90505f846001600160a01b031663313ce5676040518163ffffffff1660e01b8152600401602060405180830381865afa158015614100573d5f803e3d5ffd5b505050506040513d601f19601f820116820180604052508101906141249190614f7c565b90506305f5e100614136826012614f9c565b61414190600a615095565b61414b8487614caf565b6141559190614caf565b61415f9190614cc6565b95945050505050565b5f815f0361417757505f610758565b6002546040516315d5220f60e31b81526001600160a01b0385811660048301525f92169063aea9107890602401602060405180830381865afa1580156141bf573d5f803e3d5ffd5b505050506040513d601f19601f820116820180604052508101906141e39190614c62565b90505f846001600160a01b031663313ce5676040518163ffffffff1660e01b8152600401602060405180830381865afa158015614222573d5f803e3d5ffd5b505050506040513d601f19601f820116820180604052508101906142469190614f7c565b90505f826142586305f5e10087614caf565b6142629190614cc6565b905061426f826012614f9c565b61427a90600a615095565b6142849082614cc6565b9695505050505050565b5f6020828403121561429e575f80fd5b81356001600160e01b0319811681146142b5575f80fd5b9392505050565b5f808284036102808112156142cf575f80fd5b83359250610260601f19820112156142e5575f80fd5b506020830190509250929050565b5f60208284031215614303575f80fd5b5035919050565b6001600160a01b0381168114612943575f80fd5b5f6020828403121561432e575f80fd5b81356142b58161430a565b5f806040838503121561434a575f80fd5b82359150602083013561435c8161430a565b809150509250929050565b5f805f60608486031215614379575f80fd5b83356143848161430a565b95602085013595506040909401359392505050565b8015158114612943575f80fd5b5f80604083850312156143b7575f80fd5b82359150602083013561435c81614399565b634e487b7160e01b5f52602160045260245ffd5b600381106143f957634e487b7160e01b5f52602160045260245ffd5b9052565b610260810161440c82866143dd565b60018060a01b0380855116602084015280602086015116604084015250604084015161ffff8082511660608501528060208301511660808501526040820151151560a08501528060608301511660c08501528060808301511660e085015250506137da61010083018460018060a01b0380825116835280602083015116602084015280604083015116604084015250606081015161ffff8082166060850152608083015191508082511660808501528060208301511660a0850152604082015160c0850152606082015160e0850152608082015115156101008501528060a0830151166101208501528060c08301511661014085015250505050565b634e487b7160e01b5f52604160045260245ffd5b61ffff81168114612943575f80fd5b80356145368161451c565b919050565b5f60e0828403121561454b575f80fd5b60405160e0810181811067ffffffffffffffff8211171561456e5761456e614508565b604052905080823561457f8161451c565b8152602083013561458f8161451c565b80602083015250604083013560408201526060830135606082015260808301356145b881614399565b608082015260a08301356145cb8161451c565b60a08201526145dc60c0840161452b565b60c08201525092915050565b5f805f61012084860312156145fb575f80fd5b614605858561453b565b925060e08401356146158161430a565b91506101008401356146268161430a565b809150509250925092565b5f8083601f840112614641575f80fd5b50813567ffffffffffffffff811115614658575f80fd5b60208301915083602082850101111561466f575f80fd5b9250929050565b5f805f805f6080868803121561468a575f80fd5b85356146958161430a565b94506020860135935060408601359250606086013567ffffffffffffffff8111156146be575f80fd5b6146ca88828901614631565b969995985093965092949392505050565b5f805f805f805f60c0888a0312156146f1575f80fd5b87356146fc8161430a565b9650602088013595506040880135945060608801359350608088013567ffffffffffffffff81111561472c575f80fd5b6147388a828b01614631565b989b979a5095989497959660a090950135949350505050565b5f805f805f60a08688031215614765575f80fd5b8535945060208601356147778161451c565b935060408601356147878161451c565b925060608601356147978161451c565b915060808601356147a78161451c565b809150509295509295909350565b5f805f805f805f60e0888a0312156147cb575f80fd5b8735965060208801356147dd8161451c565b955060408801356147ed8161451c565b9450606088013593506080880135925060a088013561480b8161451c565b915060c088013561481b8161451c565b8091505092959891949750929550565b60038110612943575f80fd5b5f60208284031215614847575f80fd5b81356142b58161482b565b5f60208284031215614862575f80fd5b81516142b58161430a565b5f60a0828403121561487d575f80fd5b60405160a0810181811067ffffffffffffffff821117156148a0576148a0614508565b60405282356148ae8161451c565b815260208301356148be8161451c565b602082015260408301356148d181614399565b604082015260608301356148e48161451c565b606082015260808301356148f78161451c565b60808201529392505050565b5f60208284031215614913575f80fd5b81356142b58161451c565b5f60e0828403121561492e575f80fd5b6142b5838361453b565b80546001600160a01b0319166001600160a01b0392909216919091179055565b5f81356107588161451c565b813561496f8161430a565b6149798183614938565b5060208201356149888161430a565b6149958160018401614938565b506002810160408301356149a88161430a565b6149b28183614938565b5060608301356149c18161451c565b815461ffff60a01b191660a09190911b61ffff60a01b161790556003810160808301356149ed8161451c565b815461ffff191661ffff82161782555060a0830135614a0b8161451c565b815463ffff00001916601082901b63ffff000016178255505060c0820135600482015560e0820135600582015560068101610100830135614a4b81614399565b815490151560ff1660ff1991909116178155614a85614a6d6101208501614958565b825462ffff00191660089190911b62ffff0016178255565b61111d614a956101408501614958565b825464ffff000000191660189190911b64ffff00000016178255565b8135614abc8161482b565b60038110614ad857634e487b7160e01b5f52602160045260245ffd5b60ff1982541660ff82168117835550506020820135614af68161430a565b614b038160018401614938565b506040820135614b128161430a565b614b1f8160028401614938565b50600381016060830135614b328161451c565b815461ffff191661ffff8216178255506080830135614b508161451c565b815463ffff00001916601082901b63ffff0000161782555060a0830135614b7681614399565b815460c0850135614b868161451c565b66ffff00000000008160281b1664ff0000000084151560201b1666ffffff0000000019841617178455505050614be1614bc160e08501614958565b825461ffff60381b191660389190911b68ffff0000000000000016178255565b50613c89610100830160048301614964565b60c08101614c0182896143dd565b6001600160a01b03968716602083015294861660408201529285166060840152908416608083015290921660a090920191909152919050565b6020808252600e908201526d434f4e4e4543544f525f5a45524f60901b604082015260600190565b5f60208284031215614c72575f80fd5b5051919050565b634e487b7160e01b5f52601160045260245ffd5b61ffff828116828216039080821115614ca857614ca8614c79565b5092915050565b808202811582820484141761075857610758614c79565b5f82614ce057634e487b7160e01b5f52601260045260245ffd5b500490565b6001600160a01b039390931683526020830191909152604082015260600190565b5f8060408385031215614d17575f80fd5b505080516020909101519092909150565b6001600160a01b03929092168252602082015260400190565b5f60208284031215614d51575f80fd5b81516142b581614399565b5f805f8060808587031215614d6f575f80fd5b8451614d7a81614399565b602086015160408701519195509350614d9281614399565b6060959095015193969295505050565b5f60208284031215614db2575f80fd5b81516142b58161451c565b5f82601f830112614dcc575f80fd5b813567ffffffffffffffff80821115614de757614de7614508565b604051601f8301601f19908116603f01168101908282118183101715614e0f57614e0f614508565b81604052838152866020858801011115614e27575f80fd5b836020870160208301375f602085830101528094505050505092915050565b5f805f8060808587031215614e59575f80fd5b8435614e648161451c565b9350602085013567ffffffffffffffff80821115614e80575f80fd5b614e8c88838901614dbd565b94506040870135915080821115614ea1575f80fd5b50614eae87828801614dbd565b949793965093946060013593505050565b6001600160a01b0385168152602081018490526060604082018190528101829052818360808301375f818301608090810191909152601f909201601f191601019392505050565b8181038181111561075857610758614c79565b60018060a01b03841681525f60208460208401526060604084015283518060608501525f5b81811015614f5a57858101830151858201608001528201614f3e565b505f608082860101526080601f19601f83011685010192505050949350505050565b5f60208284031215614f8c575f80fd5b815160ff811681146142b5575f80fd5b60ff828116828216039081111561075857610758614c79565b600181815b80851115614fef57815f1904821115614fd557614fd5614c79565b80851615614fe257918102915b93841c9390800290614fba565b509250929050565b5f8261500557506001610758565b8161501157505f610758565b816001811461502757600281146150315761504d565b6001915050610758565b60ff84111561504257615042614c79565b50506001821b610758565b5060208310610133831016604e8410600b8410161715615070575081810a610758565b61507a8383614fb5565b805f190482111561508d5761508d614c79565b029392505050565b5f6142b560ff841683614ff756fe061671c5d9c2848c4e78f3cfd7efc04c5d793e746efab769b3416aa5bbfb40ccdf058f017018cec776721a5a8df2a193f80faf9c7b8bbf29a37c17b2cf0a7a6aaa7928cf07feced9a83ea7cfbed4c4d0a65fcdd513fad1d88617046db8c37104a2646970667358221220d164a88174f26e045a3dc46525c3017358f0ef0019d2d631ed29dcbd9b8a828e64736f6c63430008180033",
    "linkReferences": {}
  },
  "methodIdentifiers": {
    "DEFAULT_ADMIN_ROLE()": "a217fddf",
    "ROLE_GOVERNANCE()": "d80eff20",
    "ROLE_KEEPER()": "895ec75f",
    "ROLE_PAUSER()": "b047eb02",
    "ROLE_PL()": "1c8c4c02",
    "baseAsset()": "cdf456e1",
    "borrowSafety(bytes32)": "fd2881c0",
    "borrowedAllowlist(address)": "e0eb7099",
    "depositEmergency(bytes32)": "22aa0e5a",
    "getRoleAdmin(bytes32)": "248a9ca3",
    "grantKeeper(address)": "25870fc7",
    "grantRole(bytes32,address)": "2f2ff15d",
    "hasRole(bytes32,address)": "91d14854",
    "onClaimWithStrategy(address,uint256,bytes32,bytes)": "476b4c1d",
    "oracle()": "7dc0d1d0",
    "pl()": "90e1437c",
    "renounceRole(bytes32,address)": "36568abe",
    "revokeRole(bytes32,address)": "d547741f",
    "setBorrowEmergency(bytes32,bool)": "6bc84c33",
    "setBorrowSafety(bytes32,uint16,uint16,uint256,uint256,uint16,uint16)": "9a5eecb9",
    "setDepositEmergency(bytes32,bool)": "3d07e8fb",
    "setDepositSafety(bytes32,uint16,uint16,uint16,uint16)": "82021635",
    "setOracle(address)": "7adbf973",
    "setPauser(address)": "2d88af4a",
    "setStrategy(bytes32,(uint8,(address,address,(uint16,uint16,bool,uint16,uint16)),(address,address,address,uint16,(uint16,uint16,uint256,uint256,bool,uint16,uint16))))": "1f493078",
    "strategies(bytes32)": "3ff34eb9",
    "supportsInterface(bytes4)": "01ffc9a7",
    "unwindBorrow(address,bytes32,uint256,uint256,bytes,uint256)": "61dd0c93",
    "unwindDepositAny(address,bytes32,uint256)": "346cc2c0",
    "violatesCeilings((uint16,uint16,uint256,uint256,bool,uint16,uint16),address,address)": "4700bcbe",
    "violatesCeilings(bytes32)": "94793bf9"
  },
  "storageLayout": {
    "storage": [
      {
        "astId": 4377,
        "contract": "src/ConversionGateway.sol:ConversionGateway",
        "label": "_roles",
        "offset": 0,
        "slot": "0",
        "type": "t_mapping(t_bytes32,t_struct(RoleData)4372_storage)"
      },
      {
        "astId": 9344,
        "contract": "src/ConversionGateway.sol:ConversionGateway",
        "label": "_status",
        "offset": 0,
        "slot": "1",
        "type": "t_uint256"
      },
      {
        "astId": 69095,
        "contract": "src/ConversionGateway.sol:ConversionGateway",
        "label": "oracle",
        "offset": 0,
        "slot": "2",
        "type": "t_contract(IPriceOracle)69067"
      },
      {
        "astId": 69180,
        "contract": "src/ConversionGateway.sol:ConversionGateway",
        "label": "borrowSafety",
        "offset": 0,
        "slot": "3",
        "type": "t_mapping(t_bytes32,t_struct(BorrowSafety)69175_storage)"
      },
      {
        "astId": 69185,
        "contract": "src/ConversionGateway.sol:ConversionGateway",
        "label": "strategies",
        "offset": 0,
        "slot": "4",
        "type": "t_mapping(t_bytes32,t_struct(StrategyCfg)69149_storage)"
      },
      {
        "astId": 69189,
        "contract": "src/ConversionGateway.sol:ConversionGateway",
        "label": "borrowedAllowlist",
        "offset": 0,
        "slot": "5",
        "type": "t_mapping(t_address,t_bool)"
      },
      {
        "astId": 69194,
        "contract": "src/ConversionGateway.sol:ConversionGateway",
        "label": "depositEmergency",
        "offset": 0,
        "slot": "6",
        "type": "t_mapping(t_bytes32,t_struct(DepositSafety)69160_storage)"
      }
    ],
    "types": {
      "t_address": {
        "encoding": "inplace",
        "label": "address",
        "numberOfBytes": "20"
      },
      "t_bool": {
        "encoding": "inplace",
        "label": "bool",
        "numberOfBytes": "1"
      },
      "t_bytes32": {
        "encoding": "inplace",
        "label": "bytes32",
        "numberOfBytes": "32"
      },
      "t_contract(IPriceOracle)69067": {
        "encoding": "inplace",
        "label": "contract IPriceOracle",
        "numberOfBytes": "20"
      },
      "t_enum(RouteKind)69119": {
        "encoding": "inplace",
        "label": "enum ConversionGateway.RouteKind",
        "numberOfBytes": "1"
      },
      "t_mapping(t_address,t_bool)": {
        "encoding": "mapping",
        "key": "t_address",
        "label": "mapping(address => bool)",
        "numberOfBytes": "32",
        "value": "t_bool"
      },
      "t_mapping(t_bytes32,t_struct(BorrowSafety)69175_storage)": {
        "encoding": "mapping",
        "key": "t_bytes32",
        "label": "mapping(bytes32 => struct ConversionGateway.BorrowSafety)",
        "numberOfBytes": "32",
        "value": "t_struct(BorrowSafety)69175_storage"
      },
      "t_mapping(t_bytes32,t_struct(DepositSafety)69160_storage)": {
        "encoding": "mapping",
        "key": "t_bytes32",
        "label": "mapping(bytes32 => struct ConversionGateway.DepositSafety)",
        "numberOfBytes": "32",
        "value": "t_struct(DepositSafety)69160_storage"
      },
      "t_mapping(t_bytes32,t_struct(RoleData)4372_storage)": {
        "encoding": "mapping",
        "key": "t_bytes32",
        "label": "mapping(bytes32 => struct AccessControl.RoleData)",
        "numberOfBytes": "32",
        "value": "t_struct(RoleData)4372_storage"
      },
      "t_mapping(t_bytes32,t_struct(StrategyCfg)69149_storage)": {
        "encoding": "mapping",
        "key": "t_bytes32",
        "label": "mapping(bytes32 => struct ConversionGateway.StrategyCfg)",
        "numberOfBytes": "32",
        "value": "t_struct(StrategyCfg)69149_storage"
      },
      "t_struct(BorrowCfg)69139_storage": {
        "encoding": "inplace",
        "label": "struct ConversionGateway.BorrowCfg",
        "numberOfBytes": "224",
        "members": [
          {
            "astId": 69129,
            "contract": "src/ConversionGateway.sol:ConversionGateway",
            "label": "adapter",
            "offset": 0,
            "slot": "0",
            "type": "t_address"
          },
          {
            "astId": 69131,
            "contract": "src/ConversionGateway.sol:ConversionGateway",
            "label": "debtAsset",
            "offset": 0,
            "slot": "1",
            "type": "t_address"
          },
          {
            "astId": 69133,
            "contract": "src/ConversionGateway.sol:ConversionGateway",
            "label": "borrowedConnector",
            "offset": 0,
            "slot": "2",
            "type": "t_address"
          },
          {
            "astId": 69135,
            "contract": "src/ConversionGateway.sol:ConversionGateway",
            "label": "maxBorrowBps",
            "offset": 20,
            "slot": "2",
            "type": "t_uint16"
          },
          {
            "astId": 69138,
            "contract": "src/ConversionGateway.sol:ConversionGateway",
            "label": "safety",
            "offset": 0,
            "slot": "3",
            "type": "t_struct(BorrowSafety)69175_storage"
          }
        ]
      },
      "t_struct(BorrowSafety)69175_storage": {
        "encoding": "inplace",
        "label": "struct ConversionGateway.BorrowSafety",
        "numberOfBytes": "128",
        "members": [
          {
            "astId": 69162,
            "contract": "src/ConversionGateway.sol:ConversionGateway",
            "label": "redeemToleranceBps",
            "offset": 0,
            "slot": "0",
            "type": "t_uint16"
          },
          {
            "astId": 69164,
            "contract": "src/ConversionGateway.sol:ConversionGateway",
            "label": "withdrawSlippageBps",
            "offset": 2,
            "slot": "0",
            "type": "t_uint16"
          },
          {
            "astId": 69166,
            "contract": "src/ConversionGateway.sol:ConversionGateway",
            "label": "maxAprBps",
            "offset": 0,
            "slot": "1",
            "type": "t_uint256"
          },
          {
            "astId": 69168,
            "contract": "src/ConversionGateway.sol:ConversionGateway",
            "label": "minHfBps",
            "offset": 0,
            "slot": "2",
            "type": "t_uint256"
          },
          {
            "astId": 69170,
            "contract": "src/ConversionGateway.sol:ConversionGateway",
            "label": "emergencyMode",
            "offset": 0,
            "slot": "3",
            "type": "t_bool"
          },
          {
            "astId": 69172,
            "contract": "src/ConversionGateway.sol:ConversionGateway",
            "label": "emergencyRedeemBps",
            "offset": 1,
            "slot": "3",
            "type": "t_uint16"
          },
          {
            "astId": 69174,
            "contract": "src/ConversionGateway.sol:ConversionGateway",
            "label": "emergencyWithdrawBps",
            "offset": 3,
            "slot": "3",
            "type": "t_uint16"
          }
        ]
      },
      "t_struct(DepositCfg)69127_storage": {
        "encoding": "inplace",
        "label": "struct ConversionGateway.DepositCfg",
        "numberOfBytes": "96",
        "members": [
          {
            "astId": 69121,
            "contract": "src/ConversionGateway.sol:ConversionGateway",
            "label": "wrapper",
            "offset": 0,
            "slot": "0",
            "type": "t_address"
          },
          {
            "astId": 69123,
            "contract": "src/ConversionGateway.sol:ConversionGateway",
            "label": "connector",
            "offset": 0,
            "slot": "1",
            "type": "t_address"
          },
          {
            "astId": 69126,
            "contract": "src/ConversionGateway.sol:ConversionGateway",
            "label": "safety",
            "offset": 0,
            "slot": "2",
            "type": "t_struct(DepositSafety)69160_storage"
          }
        ]
      },
      "t_struct(DepositSafety)69160_storage": {
        "encoding": "inplace",
        "label": "struct ConversionGateway.DepositSafety",
        "numberOfBytes": "32",
        "members": [
          {
            "astId": 69151,
            "contract": "src/ConversionGateway.sol:ConversionGateway",
            "label": "redeemToleranceBps",
            "offset": 0,
            "slot": "0",
            "type": "t_uint16"
          },
          {
            "astId": 69153,
            "contract": "src/ConversionGateway.sol:ConversionGateway",
            "label": "unwrapMinOutBps",
            "offset": 2,
            "slot": "0",
            "type": "t_uint16"
          },
          {
            "astId": 69155,
            "contract": "src/ConversionGateway.sol:ConversionGateway",
            "label": "emergencyMode",
            "offset": 4,
            "slot": "0",
            "type": "t_bool"
          },
          {
            "astId": 69157,
            "contract": "src/ConversionGateway.sol:ConversionGateway",
            "label": "emergencyRedeemBps",
            "offset": 5,
            "slot": "0",
            "type": "t_uint16"
          },
          {
            "astId": 69159,
            "contract": "src/ConversionGateway.sol:ConversionGateway",
            "label": "emergencyUnwrapBps",
            "offset": 7,
            "slot": "0",
            "type": "t_uint16"
          }
        ]
      },
      "t_struct(RoleData)4372_storage": {
        "encoding": "inplace",
        "label": "struct AccessControl.RoleData",
        "numberOfBytes": "64",
        "members": [
          {
            "astId": 4369,
            "contract": "src/ConversionGateway.sol:ConversionGateway",
            "label": "hasRole",
            "offset": 0,
            "slot": "0",
            "type": "t_mapping(t_address,t_bool)"
          },
          {
            "astId": 4371,
            "contract": "src/ConversionGateway.sol:ConversionGateway",
            "label": "adminRole",
            "offset": 0,
            "slot": "1",
            "type": "t_bytes32"
          }
        ]
      },
      "t_struct(StrategyCfg)69149_storage": {
        "encoding": "inplace",
        "label": "struct ConversionGateway.StrategyCfg",
        "numberOfBytes": "352",
        "members": [
          {
            "astId": 69142,
            "contract": "src/ConversionGateway.sol:ConversionGateway",
            "label": "kind",
            "offset": 0,
            "slot": "0",
            "type": "t_enum(RouteKind)69119"
          },
          {
            "astId": 69145,
            "contract": "src/ConversionGateway.sol:ConversionGateway",
            "label": "deposit",
            "offset": 0,
            "slot": "1",
            "type": "t_struct(DepositCfg)69127_storage"
          },
          {
            "astId": 69148,
            "contract": "src/ConversionGateway.sol:ConversionGateway",
            "label": "borrow",
            "offset": 0,
            "slot": "4",
            "type": "t_struct(BorrowCfg)69139_storage"
          }
        ]
      },
      "t_uint16": {
        "encoding": "inplace",
        "label": "uint16",
        "numberOfBytes": "2"
      },
      "t_uint256": {
        "encoding": "inplace",
        "label": "uint256",
        "numberOfBytes": "32"
      }
    }
  },
  "id": 112
}