{
  "abi": [
    {
      "type": "constructor",
      "inputs": [
        {
          "name": "router_",
          "type": "address",
          "internalType": "contract SLAYRouterV2"
        },
        {
          "name": "registry_",
          "type": "address",
          "internalType": "contract SLAYRegistryV2"
        }
      ],
      "stateMutability": "nonpayable"
    },
    {
      "type": "function",
      "name": "DOMAIN_SEPARATOR",
      "inputs": [],
      "outputs": [
        {
          "name": "",
          "type": "bytes32",
          "internalType": "bytes32"
        }
      ],
      "stateMutability": "view"
    },
    {
      "type": "function",
      "name": "REGISTRY",
      "inputs": [],
      "outputs": [
        {
          "name": "",
          "type": "address",
          "internalType": "contract SLAYRegistryV2"
        }
      ],
      "stateMutability": "view"
    },
    {
      "type": "function",
      "name": "ROUTER",
      "inputs": [],
      "outputs": [
        {
          "name": "",
          "type": "address",
          "internalType": "contract SLAYRouterV2"
        }
      ],
      "stateMutability": "view"
    },
    {
      "type": "function",
      "name": "allowance",
      "inputs": [
        {
          "name": "owner",
          "type": "address",
          "internalType": "address"
        },
        {
          "name": "spender",
          "type": "address",
          "internalType": "address"
        }
      ],
      "outputs": [
        {
          "name": "",
          "type": "uint256",
          "internalType": "uint256"
        }
      ],
      "stateMutability": "view"
    },
    {
      "type": "function",
      "name": "approve",
      "inputs": [
        {
          "name": "spender",
          "type": "address",
          "internalType": "address"
        },
        {
          "name": "value",
          "type": "uint256",
          "internalType": "uint256"
        }
      ],
      "outputs": [
        {
          "name": "",
          "type": "bool",
          "internalType": "bool"
        }
      ],
      "stateMutability": "nonpayable"
    },
    {
      "type": "function",
      "name": "asset",
      "inputs": [],
      "outputs": [
        {
          "name": "",
          "type": "address",
          "internalType": "address"
        }
      ],
      "stateMutability": "view"
    },
    {
      "type": "function",
      "name": "balanceOf",
      "inputs": [
        {
          "name": "account",
          "type": "address",
          "internalType": "address"
        }
      ],
      "outputs": [
        {
          "name": "",
          "type": "uint256",
          "internalType": "uint256"
        }
      ],
      "stateMutability": "view"
    },
    {
      "type": "function",
      "name": "claimableRedeemRequest",
      "inputs": [
        {
          "name": "",
          "type": "uint256",
          "internalType": "uint256"
        },
        {
          "name": "controller",
          "type": "address",
          "internalType": "address"
        }
      ],
      "outputs": [
        {
          "name": "claimableShares",
          "type": "uint256",
          "internalType": "uint256"
        }
      ],
      "stateMutability": "view"
    },
    {
      "type": "function",
      "name": "convertToAssets",
      "inputs": [
        {
          "name": "shares",
          "type": "uint256",
          "internalType": "uint256"
        }
      ],
      "outputs": [
        {
          "name": "",
          "type": "uint256",
          "internalType": "uint256"
        }
      ],
      "stateMutability": "view"
    },
    {
      "type": "function",
      "name": "convertToShares",
      "inputs": [
        {
          "name": "assets",
          "type": "uint256",
          "internalType": "uint256"
        }
      ],
      "outputs": [
        {
          "name": "",
          "type": "uint256",
          "internalType": "uint256"
        }
      ],
      "stateMutability": "view"
    },
    {
      "type": "function",
      "name": "decimals",
      "inputs": [],
      "outputs": [
        {
          "name": "",
          "type": "uint8",
          "internalType": "uint8"
        }
      ],
      "stateMutability": "view"
    },
    {
      "type": "function",
      "name": "delegated",
      "inputs": [],
      "outputs": [
        {
          "name": "",
          "type": "address",
          "internalType": "address"
        }
      ],
      "stateMutability": "view"
    },
    {
      "type": "function",
      "name": "deposit",
      "inputs": [
        {
          "name": "assets",
          "type": "uint256",
          "internalType": "uint256"
        },
        {
          "name": "receiver",
          "type": "address",
          "internalType": "address"
        }
      ],
      "outputs": [
        {
          "name": "",
          "type": "uint256",
          "internalType": "uint256"
        }
      ],
      "stateMutability": "nonpayable"
    },
    {
      "type": "function",
      "name": "eip712Domain",
      "inputs": [],
      "outputs": [
        {
          "name": "fields",
          "type": "bytes1",
          "internalType": "bytes1"
        },
        {
          "name": "name",
          "type": "string",
          "internalType": "string"
        },
        {
          "name": "version",
          "type": "string",
          "internalType": "string"
        },
        {
          "name": "chainId",
          "type": "uint256",
          "internalType": "uint256"
        },
        {
          "name": "verifyingContract",
          "type": "address",
          "internalType": "address"
        },
        {
          "name": "salt",
          "type": "bytes32",
          "internalType": "bytes32"
        },
        {
          "name": "extensions",
          "type": "uint256[]",
          "internalType": "uint256[]"
        }
      ],
      "stateMutability": "view"
    },
    {
      "type": "function",
      "name": "getWithdrawalDelay",
      "inputs": [],
      "outputs": [
        {
          "name": "",
          "type": "uint32",
          "internalType": "uint32"
        }
      ],
      "stateMutability": "view"
    },
    {
      "type": "function",
      "name": "initialize",
      "inputs": [
        {
          "name": "asset_",
          "type": "address",
          "internalType": "contract IERC20"
        },
        {
          "name": "delegated_",
          "type": "address",
          "internalType": "address"
        },
        {
          "name": "name_",
          "type": "string",
          "internalType": "string"
        },
        {
          "name": "symbol_",
          "type": "string",
          "internalType": "string"
        }
      ],
      "outputs": [],
      "stateMutability": "nonpayable"
    },
    {
      "type": "function",
      "name": "isOperator",
      "inputs": [
        {
          "name": "controller",
          "type": "address",
          "internalType": "address"
        },
        {
          "name": "operator",
          "type": "address",
          "internalType": "address"
        }
      ],
      "outputs": [
        {
          "name": "status",
          "type": "bool",
          "internalType": "bool"
        }
      ],
      "stateMutability": "view"
    },
    {
      "type": "function",
      "name": "lockSlashing",
      "inputs": [
        {
          "name": "amount",
          "type": "uint256",
          "internalType": "uint256"
        }
      ],
      "outputs": [],
      "stateMutability": "nonpayable"
    },
    {
      "type": "function",
      "name": "maxDeposit",
      "inputs": [
        {
          "name": "",
          "type": "address",
          "internalType": "address"
        }
      ],
      "outputs": [
        {
          "name": "",
          "type": "uint256",
          "internalType": "uint256"
        }
      ],
      "stateMutability": "view"
    },
    {
      "type": "function",
      "name": "maxMint",
      "inputs": [
        {
          "name": "",
          "type": "address",
          "internalType": "address"
        }
      ],
      "outputs": [
        {
          "name": "",
          "type": "uint256",
          "internalType": "uint256"
        }
      ],
      "stateMutability": "view"
    },
    {
      "type": "function",
      "name": "maxRedeem",
      "inputs": [
        {
          "name": "controller",
          "type": "address",
          "internalType": "address"
        }
      ],
      "outputs": [
        {
          "name": "",
          "type": "uint256",
          "internalType": "uint256"
        }
      ],
      "stateMutability": "view"
    },
    {
      "type": "function",
      "name": "maxWithdraw",
      "inputs": [
        {
          "name": "controller",
          "type": "address",
          "internalType": "address"
        }
      ],
      "outputs": [
        {
          "name": "",
          "type": "uint256",
          "internalType": "uint256"
        }
      ],
      "stateMutability": "view"
    },
    {
      "type": "function",
      "name": "mint",
      "inputs": [
        {
          "name": "shares",
          "type": "uint256",
          "internalType": "uint256"
        },
        {
          "name": "receiver",
          "type": "address",
          "internalType": "address"
        }
      ],
      "outputs": [
        {
          "name": "",
          "type": "uint256",
          "internalType": "uint256"
        }
      ],
      "stateMutability": "nonpayable"
    },
    {
      "type": "function",
      "name": "name",
      "inputs": [],
      "outputs": [
        {
          "name": "",
          "type": "string",
          "internalType": "string"
        }
      ],
      "stateMutability": "view"
    },
    {
      "type": "function",
      "name": "nonces",
      "inputs": [
        {
          "name": "owner",
          "type": "address",
          "internalType": "address"
        }
      ],
      "outputs": [
        {
          "name": "",
          "type": "uint256",
          "internalType": "uint256"
        }
      ],
      "stateMutability": "view"
    },
    {
      "type": "function",
      "name": "pendingRedeemRequest",
      "inputs": [
        {
          "name": "",
          "type": "uint256",
          "internalType": "uint256"
        },
        {
          "name": "controller",
          "type": "address",
          "internalType": "address"
        }
      ],
      "outputs": [
        {
          "name": "pendingShares",
          "type": "uint256",
          "internalType": "uint256"
        }
      ],
      "stateMutability": "view"
    },
    {
      "type": "function",
      "name": "permit",
      "inputs": [
        {
          "name": "owner",
          "type": "address",
          "internalType": "address"
        },
        {
          "name": "spender",
          "type": "address",
          "internalType": "address"
        },
        {
          "name": "value",
          "type": "uint256",
          "internalType": "uint256"
        },
        {
          "name": "deadline",
          "type": "uint256",
          "internalType": "uint256"
        },
        {
          "name": "v",
          "type": "uint8",
          "internalType": "uint8"
        },
        {
          "name": "r",
          "type": "bytes32",
          "internalType": "bytes32"
        },
        {
          "name": "s",
          "type": "bytes32",
          "internalType": "bytes32"
        }
      ],
      "outputs": [],
      "stateMutability": "nonpayable"
    },
    {
      "type": "function",
      "name": "previewDeposit",
      "inputs": [
        {
          "name": "assets",
          "type": "uint256",
          "internalType": "uint256"
        }
      ],
      "outputs": [
        {
          "name": "",
          "type": "uint256",
          "internalType": "uint256"
        }
      ],
      "stateMutability": "view"
    },
    {
      "type": "function",
      "name": "previewMint",
      "inputs": [
        {
          "name": "shares",
          "type": "uint256",
          "internalType": "uint256"
        }
      ],
      "outputs": [
        {
          "name": "",
          "type": "uint256",
          "internalType": "uint256"
        }
      ],
      "stateMutability": "view"
    },
    {
      "type": "function",
      "name": "previewRedeem",
      "inputs": [
        {
          "name": "",
          "type": "uint256",
          "internalType": "uint256"
        }
      ],
      "outputs": [
        {
          "name": "",
          "type": "uint256",
          "internalType": "uint256"
        }
      ],
      "stateMutability": "pure"
    },
    {
      "type": "function",
      "name": "previewWithdraw",
      "inputs": [
        {
          "name": "",
          "type": "uint256",
          "internalType": "uint256"
        }
      ],
      "outputs": [
        {
          "name": "",
          "type": "uint256",
          "internalType": "uint256"
        }
      ],
      "stateMutability": "pure"
    },
    {
      "type": "function",
      "name": "redeem",
      "inputs": [
        {
          "name": "shares",
          "type": "uint256",
          "internalType": "uint256"
        },
        {
          "name": "receiver",
          "type": "address",
          "internalType": "address"
        },
        {
          "name": "controller",
          "type": "address",
          "internalType": "address"
        }
      ],
      "outputs": [
        {
          "name": "assets",
          "type": "uint256",
          "internalType": "uint256"
        }
      ],
      "stateMutability": "nonpayable"
    },
    {
      "type": "function",
      "name": "requestRedeem",
      "inputs": [
        {
          "name": "shares",
          "type": "uint256",
          "internalType": "uint256"
        },
        {
          "name": "controller",
          "type": "address",
          "internalType": "address"
        },
        {
          "name": "owner",
          "type": "address",
          "internalType": "address"
        }
      ],
      "outputs": [
        {
          "name": "requestId",
          "type": "uint256",
          "internalType": "uint256"
        }
      ],
      "stateMutability": "nonpayable"
    },
    {
      "type": "function",
      "name": "setOperator",
      "inputs": [
        {
          "name": "operator",
          "type": "address",
          "internalType": "address"
        },
        {
          "name": "approved",
          "type": "bool",
          "internalType": "bool"
        }
      ],
      "outputs": [
        {
          "name": "success",
          "type": "bool",
          "internalType": "bool"
        }
      ],
      "stateMutability": "nonpayable"
    },
    {
      "type": "function",
      "name": "supportsInterface",
      "inputs": [
        {
          "name": "interfaceId",
          "type": "bytes4",
          "internalType": "bytes4"
        }
      ],
      "outputs": [
        {
          "name": "",
          "type": "bool",
          "internalType": "bool"
        }
      ],
      "stateMutability": "view"
    },
    {
      "type": "function",
      "name": "symbol",
      "inputs": [],
      "outputs": [
        {
          "name": "",
          "type": "string",
          "internalType": "string"
        }
      ],
      "stateMutability": "view"
    },
    {
      "type": "function",
      "name": "totalActiveStaked",
      "inputs": [],
      "outputs": [
        {
          "name": "",
          "type": "uint256",
          "internalType": "uint256"
        }
      ],
      "stateMutability": "view"
    },
    {
      "type": "function",
      "name": "totalAssets",
      "inputs": [],
      "outputs": [
        {
          "name": "",
          "type": "uint256",
          "internalType": "uint256"
        }
      ],
      "stateMutability": "view"
    },
    {
      "type": "function",
      "name": "totalSupply",
      "inputs": [],
      "outputs": [
        {
          "name": "",
          "type": "uint256",
          "internalType": "uint256"
        }
      ],
      "stateMutability": "view"
    },
    {
      "type": "function",
      "name": "transfer",
      "inputs": [
        {
          "name": "to",
          "type": "address",
          "internalType": "address"
        },
        {
          "name": "value",
          "type": "uint256",
          "internalType": "uint256"
        }
      ],
      "outputs": [
        {
          "name": "",
          "type": "bool",
          "internalType": "bool"
        }
      ],
      "stateMutability": "nonpayable"
    },
    {
      "type": "function",
      "name": "transferFrom",
      "inputs": [
        {
          "name": "from",
          "type": "address",
          "internalType": "address"
        },
        {
          "name": "to",
          "type": "address",
          "internalType": "address"
        },
        {
          "name": "value",
          "type": "uint256",
          "internalType": "uint256"
        }
      ],
      "outputs": [
        {
          "name": "",
          "type": "bool",
          "internalType": "bool"
        }
      ],
      "stateMutability": "nonpayable"
    },
    {
      "type": "function",
      "name": "withdraw",
      "inputs": [
        {
          "name": "assets",
          "type": "uint256",
          "internalType": "uint256"
        },
        {
          "name": "receiver",
          "type": "address",
          "internalType": "address"
        },
        {
          "name": "controller",
          "type": "address",
          "internalType": "address"
        }
      ],
      "outputs": [
        {
          "name": "shares",
          "type": "uint256",
          "internalType": "uint256"
        }
      ],
      "stateMutability": "nonpayable"
    },
    {
      "type": "event",
      "name": "Approval",
      "inputs": [
        {
          "name": "owner",
          "type": "address",
          "indexed": true,
          "internalType": "address"
        },
        {
          "name": "spender",
          "type": "address",
          "indexed": true,
          "internalType": "address"
        },
        {
          "name": "value",
          "type": "uint256",
          "indexed": false,
          "internalType": "uint256"
        }
      ],
      "anonymous": false
    },
    {
      "type": "event",
      "name": "Deposit",
      "inputs": [
        {
          "name": "sender",
          "type": "address",
          "indexed": true,
          "internalType": "address"
        },
        {
          "name": "owner",
          "type": "address",
          "indexed": true,
          "internalType": "address"
        },
        {
          "name": "assets",
          "type": "uint256",
          "indexed": false,
          "internalType": "uint256"
        },
        {
          "name": "shares",
          "type": "uint256",
          "indexed": false,
          "internalType": "uint256"
        }
      ],
      "anonymous": false
    },
    {
      "type": "event",
      "name": "EIP712DomainChanged",
      "inputs": [],
      "anonymous": false
    },
    {
      "type": "event",
      "name": "Initialized",
      "inputs": [
        {
          "name": "version",
          "type": "uint64",
          "indexed": false,
          "internalType": "uint64"
        }
      ],
      "anonymous": false
    },
    {
      "type": "event",
      "name": "OperatorSet",
      "inputs": [
        {
          "name": "controller",
          "type": "address",
          "indexed": true,
          "internalType": "address"
        },
        {
          "name": "operator",
          "type": "address",
          "indexed": true,
          "internalType": "address"
        },
        {
          "name": "approved",
          "type": "bool",
          "indexed": false,
          "internalType": "bool"
        }
      ],
      "anonymous": false
    },
    {
      "type": "event",
      "name": "RedeemRequest",
      "inputs": [
        {
          "name": "controller",
          "type": "address",
          "indexed": true,
          "internalType": "address"
        },
        {
          "name": "owner",
          "type": "address",
          "indexed": true,
          "internalType": "address"
        },
        {
          "name": "requestId",
          "type": "uint256",
          "indexed": true,
          "internalType": "uint256"
        },
        {
          "name": "sender",
          "type": "address",
          "indexed": false,
          "internalType": "address"
        },
        {
          "name": "assets",
          "type": "uint256",
          "indexed": false,
          "internalType": "uint256"
        }
      ],
      "anonymous": false
    },
    {
      "type": "event",
      "name": "SlashingLocked",
      "inputs": [
        {
          "name": "amount",
          "type": "uint256",
          "indexed": false,
          "internalType": "uint256"
        }
      ],
      "anonymous": false
    },
    {
      "type": "event",
      "name": "Transfer",
      "inputs": [
        {
          "name": "from",
          "type": "address",
          "indexed": true,
          "internalType": "address"
        },
        {
          "name": "to",
          "type": "address",
          "indexed": true,
          "internalType": "address"
        },
        {
          "name": "value",
          "type": "uint256",
          "indexed": false,
          "internalType": "uint256"
        }
      ],
      "anonymous": false
    },
    {
      "type": "event",
      "name": "Withdraw",
      "inputs": [
        {
          "name": "sender",
          "type": "address",
          "indexed": true,
          "internalType": "address"
        },
        {
          "name": "receiver",
          "type": "address",
          "indexed": true,
          "internalType": "address"
        },
        {
          "name": "owner",
          "type": "address",
          "indexed": true,
          "internalType": "address"
        },
        {
          "name": "assets",
          "type": "uint256",
          "indexed": false,
          "internalType": "uint256"
        },
        {
          "name": "shares",
          "type": "uint256",
          "indexed": false,
          "internalType": "uint256"
        }
      ],
      "anonymous": false
    },
    {
      "type": "error",
      "name": "ECDSAInvalidSignature",
      "inputs": []
    },
    {
      "type": "error",
      "name": "ECDSAInvalidSignatureLength",
      "inputs": [
        {
          "name": "length",
          "type": "uint256",
          "internalType": "uint256"
        }
      ]
    },
    {
      "type": "error",
      "name": "ECDSAInvalidSignatureS",
      "inputs": [
        {
          "name": "s",
          "type": "bytes32",
          "internalType": "bytes32"
        }
      ]
    },
    {
      "type": "error",
      "name": "ERC20InsufficientAllowance",
      "inputs": [
        {
          "name": "spender",
          "type": "address",
          "internalType": "address"
        },
        {
          "name": "allowance",
          "type": "uint256",
          "internalType": "uint256"
        },
        {
          "name": "needed",
          "type": "uint256",
          "internalType": "uint256"
        }
      ]
    },
    {
      "type": "error",
      "name": "ERC20InsufficientBalance",
      "inputs": [
        {
          "name": "sender",
          "type": "address",
          "internalType": "address"
        },
        {
          "name": "balance",
          "type": "uint256",
          "internalType": "uint256"
        },
        {
          "name": "needed",
          "type": "uint256",
          "internalType": "uint256"
        }
      ]
    },
    {
      "type": "error",
      "name": "ERC20InvalidApprover",
      "inputs": [
        {
          "name": "approver",
          "type": "address",
          "internalType": "address"
        }
      ]
    },
    {
      "type": "error",
      "name": "ERC20InvalidReceiver",
      "inputs": [
        {
          "name": "receiver",
          "type": "address",
          "internalType": "address"
        }
      ]
    },
    {
      "type": "error",
      "name": "ERC20InvalidSender",
      "inputs": [
        {
          "name": "sender",
          "type": "address",
          "internalType": "address"
        }
      ]
    },
    {
      "type": "error",
      "name": "ERC20InvalidSpender",
      "inputs": [
        {
          "name": "spender",
          "type": "address",
          "internalType": "address"
        }
      ]
    },
    {
      "type": "error",
      "name": "ERC2612ExpiredSignature",
      "inputs": [
        {
          "name": "deadline",
          "type": "uint256",
          "internalType": "uint256"
        }
      ]
    },
    {
      "type": "error",
      "name": "ERC2612InvalidSigner",
      "inputs": [
        {
          "name": "signer",
          "type": "address",
          "internalType": "address"
        },
        {
          "name": "owner",
          "type": "address",
          "internalType": "address"
        }
      ]
    },
    {
      "type": "error",
      "name": "ERC4626ExceededMaxDeposit",
      "inputs": [
        {
          "name": "receiver",
          "type": "address",
          "internalType": "address"
        },
        {
          "name": "assets",
          "type": "uint256",
          "internalType": "uint256"
        },
        {
          "name": "max",
          "type": "uint256",
          "internalType": "uint256"
        }
      ]
    },
    {
      "type": "error",
      "name": "ERC4626ExceededMaxMint",
      "inputs": [
        {
          "name": "receiver",
          "type": "address",
          "internalType": "address"
        },
        {
          "name": "shares",
          "type": "uint256",
          "internalType": "uint256"
        },
        {
          "name": "max",
          "type": "uint256",
          "internalType": "uint256"
        }
      ]
    },
    {
      "type": "error",
      "name": "ERC4626ExceededMaxRedeem",
      "inputs": [
        {
          "name": "owner",
          "type": "address",
          "internalType": "address"
        },
        {
          "name": "shares",
          "type": "uint256",
          "internalType": "uint256"
        },
        {
          "name": "max",
          "type": "uint256",
          "internalType": "uint256"
        }
      ]
    },
    {
      "type": "error",
      "name": "ERC4626ExceededMaxWithdraw",
      "inputs": [
        {
          "name": "owner",
          "type": "address",
          "internalType": "address"
        },
        {
          "name": "assets",
          "type": "uint256",
          "internalType": "uint256"
        },
        {
          "name": "max",
          "type": "uint256",
          "internalType": "uint256"
        }
      ]
    },
    {
      "type": "error",
      "name": "EnforcedPause",
      "inputs": []
    },
    {
      "type": "error",
      "name": "ExceededMaxRedeemable",
      "inputs": []
    },
    {
      "type": "error",
      "name": "ExpectedWhitelisted",
      "inputs": []
    },
    {
      "type": "error",
      "name": "InvalidAccountNonce",
      "inputs": [
        {
          "name": "account",
          "type": "address",
          "internalType": "address"
        },
        {
          "name": "currentNonce",
          "type": "uint256",
          "internalType": "uint256"
        }
      ]
    },
    {
      "type": "error",
      "name": "InvalidInitialization",
      "inputs": []
    },
    {
      "type": "error",
      "name": "MustClaimAll",
      "inputs": []
    },
    {
      "type": "error",
      "name": "NotControllerOrOperator",
      "inputs": []
    },
    {
      "type": "error",
      "name": "NotInitializing",
      "inputs": []
    },
    {
      "type": "error",
      "name": "NotRouter",
      "inputs": []
    },
    {
      "type": "error",
      "name": "PreviewNotSupported",
      "inputs": []
    },
    {
      "type": "error",
      "name": "SafeERC20FailedOperation",
      "inputs": [
        {
          "name": "token",
          "type": "address",
          "internalType": "address"
        }
      ]
    },
    {
      "type": "error",
      "name": "WithdrawRequestNotFound",
      "inputs": []
    },
    {
      "type": "error",
      "name": "WithdrawalDelayHasNotPassed",
      "inputs": []
    },
    {
      "type": "error",
      "name": "ZeroAmount",
      "inputs": []
    }
  ],
  "bytecode": {
    "object": "0x60c060405234801562000010575f80fd5b5060405162002d8c38038062002d8c833981016040819052620000339162000121565b6001600160a01b03808316608052811660a0526200005062000058565b50506200015e565b7ff0c57e16840df040f15088dc2f81fe391c3923bec73e23a9662efc9c229c6a00805468010000000000000000900460ff1615620000a95760405163f92ee8a960e01b815260040160405180910390fd5b80546001600160401b0390811614620001095780546001600160401b0319166001600160401b0390811782556040519081527fc7f505b2f371ae2175ee4913f4499e1f2633a7b5936321eed1cdaeb6115181d29060200160405180910390a15b50565b6001600160a01b038116811462000109575f80fd5b5f806040838503121562000133575f80fd5b825162000140816200010c565b602084015190925062000153816200010c565b809150509250929050565b60805160a051612be2620001aa5f395f81816102b9015281816107030152610c8901525f818161039c01528181611386015281816113d9015281816116a4015261214b0152612be25ff3fe608060405234801561000f575f80fd5b5060043610610255575f3560e01c80637ecebe0011610140578063c6e6f592116100bf578063dd62ed3e11610084578063dd62ed3e1461055a578063dff81f7d1461056d578063e49d123214610580578063eaed1d0714610588578063ef8b30f7146104fe578063f5a23d8d1461059b575f80fd5b8063c6e6f592146104fe578063ce96cb7714610511578063cf8db86214610524578063d505accf14610534578063d905777e14610547575f80fd5b8063b3d7f6b911610105578063b3d7f6b91461048a578063b460af941461049d578063b6363cf2146104b0578063ba087652146104eb578063c63d75b6146103ce575f80fd5b80637ecebe001461042e57806384b0196e1461044157806394bf804d1461045c57806395d89b411461046f578063a9059cbb14610477575f80fd5b806323b872dd116101d7578063402d267d1161019c578063402d267d146103ce5780634cdad5061461032e578063558a7297146103e25780636e553f65146103f557806370a08231146104085780637d41c86e1461041b575f80fd5b806323b872dd1461036a578063313ce5671461037d57806332fe7b26146103975780633644e515146103be57806338d52e0f146103c6575f80fd5b806307a2d13a1161021d57806307a2d13a14610308578063095ea7b31461031b5780630a28a4771461032e57806318160ddd146103415780632016a0d214610355575f80fd5b806301e1d1141461025957806301ffc9a714610274578063031609401461029757806306433b1b146102b457806306fdde03146102f3575b5f80fd5b6102616105ae565b6040519081526020015b60405180910390f35b6102876102823660046123db565b610624565b604051901515815260200161026b565b61029f6106e1565b60405163ffffffff909116815260200161026b565b6102db7f000000000000000000000000000000000000000000000000000000000000000081565b6040516001600160a01b03909116815260200161026b565b6102fb61076e565b60405161026b919061244f565b610261610316366004612461565b610813565b61028761032936600461248c565b61081e565b61026161033c366004612461565b610835565b5f80516020612b6d83398151915254610261565b610368610363366004612553565b61084f565b005b6102876103783660046125d7565b6109d3565b6103856109f8565b60405160ff909116815260200161026b565b6102db7f000000000000000000000000000000000000000000000000000000000000000081565b610261610a01565b6102db610a0a565b6102616103dc366004612615565b505f1990565b6102876103f036600461263d565b610a38565b610261610403366004612674565b610b06565b610261610416366004612615565b610b29565b610261610429366004612697565b610b59565b61026161043c366004612615565b610d6f565b610449610d79565b60405161026b97969594939291906126d6565b61026161046a366004612674565b610e22565b6102fb610e3d565b61028761048536600461248c565b610e7b565b610261610498366004612461565b610e88565b6102616104ab366004612697565b610e94565b6102876104be36600461276d565b6001600160a01b039182165f90815260016020908152604080832093909416825291909152205460ff1690565b6102616104f9366004612697565b610ff1565b61026161050c366004612461565b61114a565b61026161051f366004612615565b611155565b5f546001600160a01b03166102db565b610368610542366004612799565b61119f565b610261610555366004612615565b6112f4565b61026161056836600461276d565b611332565b61036861057b366004612461565b61137b565b610261611434565b610261610596366004612674565b611457565b6102616105a9366004612674565b611498565b5f6105b7610a0a565b6040516370a0823160e01b81523060048201526001600160a01b0391909116906370a0823190602401602060405180830381865afa1580156105fb573d5f803e3d5ffd5b505050506040513d601f19601f8201168201806040525081019061061f919061280a565b905090565b5f6001600160e01b031982166336372b0760e01b148061065457506001600160e01b0319821663a219a02560e01b145b8061066f57506001600160e01b0319821663043eff2d60e51b145b8061068a57506001600160e01b03198216631883ba3960e21b145b806106a557506001600160e01b0319821663e3bc4e6560e01b145b806106c057506001600160e01b0319821663f7febc6d60e01b145b806106db57506301ffc9a760e01b6001600160e01b03198316145b92915050565b5f805460405163b1e5082960e01b81526001600160a01b0391821660048201527f00000000000000000000000000000000000000000000000000000000000000009091169063b1e5082990602401602060405180830381865afa15801561074a573d5f803e3d5ffd5b505050506040513d601f19601f8201168201806040525081019061061f9190612821565b60605f5f80516020612b4d8339815191525b905080600301805461079190612844565b80601f01602080910402602001604051908101604052809291908181526020018280546107bd90612844565b80156108085780601f106107df57610100808354040283529160200191610808565b820191905f5260205f20905b8154815290600101906020018083116107eb57829003601f168201915b505050505091505090565b5f6106db825f6114c3565b5f3361082b818585611507565b5060019392505050565b5f60405163468ed21160e11b815260040160405180910390fd5b5f610858611519565b805490915060ff600160401b820416159067ffffffffffffffff165f8115801561087f5750825b90505f8267ffffffffffffffff16600114801561089b5750303b155b9050811580156108a9575080155b156108c75760405163f92ee8a960e01b815260040160405180910390fd5b845467ffffffffffffffff1916600117855583156108f157845460ff60401b1916600160401b1785555b6001600160a01b03881661094c5760405162461bcd60e51b815260206004820181905260248201527f44656c656761746564206973206e6f7420612076616c6964206163636f756e7460448201526064015b60405180910390fd5b6109568787611541565b61095f89611557565b6109688761156b565b5f80546001600160a01b0319166001600160a01b038a1617905583156109c857845460ff60401b19168555604051600181527fc7f505b2f371ae2175ee4913f4499e1f2633a7b5936321eed1cdaeb6115181d29060200160405180910390a15b505050505050505050565b5f336109e0858285611596565b6109eb8585856115fa565b60019150505b9392505050565b5f61061f611657565b5f61061f611699565b7f0773e532dfede91f04b12a73d3d2acd361424f41f76b4fb79f090161e36b4e00546001600160a01b031690565b5f610a416116a2565b6001600160a01b038316610a975760405162461bcd60e51b815260206004820152601f60248201527f4f70657261746f72206973206e6f7420612076616c6964206163636f756e74006044820152606401610943565b335f8181526001602090815260408083206001600160a01b03881680855290835292819020805460ff19168715159081179091558151908152905184927fceb576d9f15e4e200fdb5096d64d5dfd667e16def20c1eefd14256d8e3faa267928290030190a35060019392505050565b5f5f195f610b138561114a565b9050610b2133858784611742565b949350505050565b5f805f80516020612b4d8339815191525b6001600160a01b039093165f9081526020939093525050604090205490565b5f33848203610b7b57604051631f2a200560e01b815260040160405180910390fd5b806001600160a01b0316836001600160a01b031614158015610bc257506001600160a01b038084165f9081526001602090815260408083209385168352929052205460ff16155b15610bd257610bd2838287611596565b806001600160a01b0316846001600160a01b031614158015610c1957506001600160a01b038085165f9081526001602090815260408083209385168352929052205460ff16155b15610c3757604051635c645bcf60e11b815260040160405180910390fd5b6001600160a01b0384165f908152600260205260408120805490918791839190610c62908490612890565b90915550505f805460405163b1e5082960e01b81526001600160a01b0391821660048201527f00000000000000000000000000000000000000000000000000000000000000009091169063b1e5082990602401602060405180830381865afa158015610cd0573d5f803e3d5ffd5b505050506040513d601f19601f82011682018060405250810190610cf49190612821565b9050610d0663ffffffff821642612890565b6001830155610d168530896115fa565b604080516001600160a01b038581168252602082018a90525f9281891692918a16917f1fdc681a13d8c5da54e301c7ce6542dcde4581e4725043fdab2db12ddc574506910160405180910390a4505f9695505050505050565b5f6106db826117bb565b5f60608082808083815f80516020612b8d8339815191528054909150158015610da457506001810154155b610de85760405162461bcd60e51b81526020600482015260156024820152741152540dcc4c8e88155b9a5b9a5d1a585b1a5e9959605a1b6044820152606401610943565b610df06117e3565b610df8611821565b604080515f80825260208201909252600f60f81b9c939b5091995046985030975095509350915050565b5f5f195f610e2f85610e88565b9050610b2133858388611742565b7f52c63247e1f47db19d5ce0460030c497f067ca4cebf71ba98eeadabe20bace0480546060915f80516020612b4d8339815191529161079190612844565b5f3361082b8185856115fa565b5f6106db8260016114c3565b5f81336001600160a01b0382168114801590610ed557506001600160a01b038083165f9081526001602090815260408083209385168352929052205460ff16155b15610ef357604051635c645bcf60e11b815260040160405180910390fd5b855f03610f1357604051631f2a200560e01b815260040160405180910390fd5b6001600160a01b0384165f908152600260209081526040808320815180830190925280548252600101549181018290529103610f6257604051632bb8b38560e11b815260040160405180910390fd5b4281602001511115610f87576040516318c16a9360e31b815260040160405180910390fd5b805193505f610f9585610813565b905080881015610fb857604051631de8e6e360e31b815260040160405180910390fd5b80881115610fd957604051632bb3283960e11b815260040160405180910390fd5b610fe63388888489611837565b505050509392505050565b5f81336001600160a01b038216811480159061103257506001600160a01b038083165f9081526001602090815260408083209385168352929052205460ff16155b1561105057604051635c645bcf60e11b815260040160405180910390fd5b855f0361107057604051631f2a200560e01b815260040160405180910390fd5b6001600160a01b0384165f9081526002602090815260408083208151808301909252805482526001015491810182905291036110bf57604051632bb8b38560e11b815260040160405180910390fd5b42816020015111156110e4576040516318c16a9360e31b815260040160405180910390fd5b805187101561110657604051631de8e6e360e31b815260040160405180910390fd5b805187111561112857604051632bb3283960e11b815260040160405180910390fd5b61113187610813565b9350611140338787878b611837565b5050509392505050565b5f6106db825f6118d8565b6001600160a01b0381165f908152600260209081526040808320815180830190925280548252600101549181018290529042106111975780516109f190610813565b505f92915050565b834211156111c35760405163313c898160e11b815260048101859052602401610943565b5f7f6e71edae12b1b97f4d1f60370fef10105fa2faae0126114a169c64845d6126c988888861122d8c6001600160a01b03165f9081527f5ab42ced628888259c08ac98db1eb0cf702fc1501344311d8b100cd1bfe4bb006020526040902080546001810190915590565b6040805160208101969096526001600160a01b0394851690860152929091166060840152608083015260a082015260c0810186905260e0016040516020818303038152906040528051906020012090505f61128782611913565b90505f6112968287878761193f565b9050896001600160a01b0316816001600160a01b0316146112dd576040516325c0072360e11b81526001600160a01b0380831660048301528b166024820152604401610943565b6112e88a8a8a611507565b50505050505050505050565b6001600160a01b0381165f90815260026020908152604080832081518083019092528054825260010154918101829052904210611197575192915050565b6001600160a01b039182165f9081527f52c63247e1f47db19d5ce0460030c497f067ca4cebf71ba98eeadabe20bace016020908152604080832093909416825291909152205490565b6113836116a2565b337f00000000000000000000000000000000000000000000000000000000000000006001600160a01b0316146113cc57604051639165520160e01b815260040160405180910390fd5b6113fe6113d7610a0a565b7f00000000000000000000000000000000000000000000000000000000000000008361196b565b6040518181527f4126d2da817d1aa12a3c086bf2fa8957ff31629479134de6ca77c014162c77329060200160405180910390a150565b5f61143e30610b29565b5f80516020612b6d8339815191525461061f91906128a3565b6001600160a01b0381165f908152600260205260408120600181015442108015906114825750805415155b1561148f575490506106db565b505f9392505050565b6001600160a01b0381165f908152600260205260408120600181015442101561148f575490506106db565b5f6109f16114cf6105ae565b6114da906001612890565b6114e55f600a612996565b5f80516020612b6d833981519152546114fe9190612890565b859190856119ca565b6115148383836001611a15565b505050565b5f807ff0c57e16840df040f15088dc2f81fe391c3923bec73e23a9662efc9c229c6a006106db565b611549611af9565b6115538282611b1e565b5050565b61155f611af9565b61156881611b6e565b50565b611573611af9565b61156881604051806040016040528060018152602001603160f81b815250611bf1565b5f6115a18484611332565b90505f198110156115f457818110156115e657604051637dc7a0d960e11b81526001600160a01b03841660048201526024810182905260448101839052606401610943565b6115f484848484035f611a15565b50505050565b6001600160a01b03831661162357604051634b637e8f60e11b81525f6004820152602401610943565b6001600160a01b03821661164c5760405163ec442f0560e01b81525f6004820152602401610943565b611514838383611c50565b5f807f0773e532dfede91f04b12a73d3d2acd361424f41f76b4fb79f090161e36b4e0090505f81546116939190600160a01b900460ff166129a4565b91505090565b5f61061f611c6b565b7f00000000000000000000000000000000000000000000000000000000000000006001600160a01b0316635c975abb6040518163ffffffff1660e01b8152600401602060405180830381865afa1580156116fe573d5f803e3d5ffd5b505050506040513d601f19601f8201168201806040525081019061172291906129bd565b156117405760405163d93c066560e01b815260040160405180910390fd5b565b61175561174d610a0a565b853085611cde565b61175f8382611d17565b826001600160a01b0316846001600160a01b03167fdcbc1c05240f31ff3ad067ef1ee35ce4997762752e3a095284754544f4c709d784846040516117ad929190918252602082015260400190565b60405180910390a350505050565b5f807f5ab42ced628888259c08ac98db1eb0cf702fc1501344311d8b100cd1bfe4bb00610b3a565b7fa16a46d94261c7517cc8ff89f61c0ce93598e3c849801011dee649a6a557d10280546060915f80516020612b8d8339815191529161079190612844565b60605f5f80516020612b8d833981519152610780565b6001600160a01b0383165f9081526002602052604081208181556001015561185f3082611d4b565b61187161186a610a0a565b858461196b565b826001600160a01b0316846001600160a01b0316866001600160a01b03167ffbde797d201c681b91056529119e0b02407c7bb96a4a2c75c01fc9667232c8db85856040516118c9929190918252602082015260400190565b60405180910390a45050505050565b5f6109f16118e782600a612996565b5f80516020612b6d833981519152546119009190612890565b6119086105ae565b6114fe906001612890565b5f6106db61191f611699565b8360405161190160f01b8152600281019290925260228201526042902090565b5f805f8061194f88888888611d7f565b92509250925061195f8282611e47565b50909695505050505050565b6040516001600160a01b0383811660248301526044820183905261151491859182169063a9059cbb906064015b604051602081830303815290604052915060e01b6020820180516001600160e01b038381831617835250505050611eff565b5f6119f76119d783611f6b565b80156119f257505f84806119ed576119ed6129d8565b868809115b151590565b611a02868686611f97565b611a0c9190612890565b95945050505050565b5f80516020612b4d8339815191526001600160a01b038516611a4c5760405163e602df0560e01b81525f6004820152602401610943565b6001600160a01b038416611a7557604051634a1406b160e11b81525f6004820152602401610943565b6001600160a01b038086165f90815260018301602090815260408083209388168352929052208390558115611af257836001600160a01b0316856001600160a01b03167f8c5be1e5ebec7d5bd14f71427d1e84f3dd0314c0f7b2291e5b200ac8c7c3b92585604051611ae991815260200190565b60405180910390a35b5050505050565b611b01612047565b61174057604051631afcd79f60e31b815260040160405180910390fd5b611b26611af9565b5f80516020612b4d8339815191527f52c63247e1f47db19d5ce0460030c497f067ca4cebf71ba98eeadabe20bace03611b5f8482612a30565b50600481016115f48382612a30565b611b76611af9565b7f0773e532dfede91f04b12a73d3d2acd361424f41f76b4fb79f090161e36b4e005f80611ba284612060565b9150915081611bb2576012611bb4565b805b83546001600160a81b031916600160a01b60ff92909216919091026001600160a01b031916176001600160a01b0394909416939093179091555050565b611bf9611af9565b5f80516020612b8d8339815191527fa16a46d94261c7517cc8ff89f61c0ce93598e3c849801011dee649a6a557d102611c328482612a30565b5060038101611c418382612a30565b505f8082556001909101555050565b611c586116a2565b611c60612136565b6115148383836121d9565b5f7f8b73c3c69bb8fe3d512ecc4cf759cc79239f7b179b0ffacaa9a75d522b39400f611c95612304565b611c9d61236c565b60408051602081019490945283019190915260608201524660808201523060a082015260c00160405160208183030381529060405280519060200120905090565b6040516001600160a01b0384811660248301528381166044830152606482018390526115f49186918216906323b872dd90608401611998565b6001600160a01b038216611d405760405163ec442f0560e01b81525f6004820152602401610943565b6115535f8383611c50565b6001600160a01b038216611d7457604051634b637e8f60e11b81525f6004820152602401610943565b611553825f83611c50565b5f80807f7fffffffffffffffffffffffffffffff5d576e7357a4501ddfe92f46681b20a0841115611db857505f91506003905082611e3d565b604080515f808252602082018084528a905260ff891692820192909252606081018790526080810186905260019060a0016020604051602081039080840390855afa158015611e09573d5f803e3d5ffd5b5050604051601f1901519150506001600160a01b038116611e3457505f925060019150829050611e3d565b92505f91508190505b9450945094915050565b5f826003811115611e5a57611e5a612af0565b03611e63575050565b6001826003811115611e7757611e77612af0565b03611e955760405163f645eedf60e01b815260040160405180910390fd5b6002826003811115611ea957611ea9612af0565b03611eca5760405163fce698f760e01b815260048101829052602401610943565b6003826003811115611ede57611ede612af0565b03611553576040516335e2f38360e21b815260048101829052602401610943565b5f8060205f8451602086015f885af180611f1e576040513d5f823e3d81fd5b50505f513d91508115611f35578060011415611f42565b6001600160a01b0384163b155b156115f457604051635274afe760e01b81526001600160a01b0385166004820152602401610943565b5f6002826003811115611f8057611f80612af0565b611f8a9190612b04565b60ff166001149050919050565b5f805f611fa486866123ae565b91509150815f03611fc857838181611fbe57611fbe6129d8565b04925050506109f1565b818411611fdf57611fdf60038515026011186123ca565b5f848688095f868103871696879004966002600389028118808a02820302808a02820302808a02820302808a02820302808a02820302808a02909103029181900381900460010185841190960395909502919093039390930492909217029150509392505050565b5f612050611519565b54600160401b900460ff16919050565b60408051600481526024810182526020810180516001600160e01b031663313ce56760e01b17905290515f918291829182916001600160a01b038716916120a691612b31565b5f60405180830381855afa9150503d805f81146120de576040519150601f19603f3d011682016040523d82523d5f602084013e6120e3565b606091505b50915091508180156120f757506020815110155b1561212a575f81806020019051810190612111919061280a565b905060ff8111612128576001969095509350505050565b505b505f9485945092505050565b60405163016406e960e71b81523060048201527f00000000000000000000000000000000000000000000000000000000000000006001600160a01b03169063b203748090602401602060405180830381865afa158015612198573d5f803e3d5ffd5b505050506040513d601f19601f820116820180604052508101906121bc91906129bd565b6117405760405163c987100f60e01b815260040160405180910390fd5b5f80516020612b4d8339815191526001600160a01b0384166122135781816002015f8282546122089190612890565b909155506122839050565b6001600160a01b0384165f90815260208290526040902054828110156122655760405163391434e360e21b81526001600160a01b03861660048201526024810182905260448101849052606401610943565b6001600160a01b0385165f9081526020839052604090209083900390555b6001600160a01b0383166122a15760028101805483900390556122bf565b6001600160a01b0383165f9081526020829052604090208054830190555b826001600160a01b0316846001600160a01b03167fddf252ad1be2c89b69c2b068fc378daa952ba7f163c4a11628f55a4df523b3ef846040516117ad91815260200190565b5f5f80516020612b8d8339815191528161231c6117e3565b80519091501561233457805160209091012092915050565b81548015612343579392505050565b7fc5d2460186f7233c927e7db2dcc703c0e500b653ca82273b7bfad8045d85a470935050505090565b5f5f80516020612b8d83398151915281612384611821565b80519091501561239c57805160209091012092915050565b60018201548015612343579392505050565b5f805f1983850993909202808410938190039390930393915050565b634e487b715f52806020526024601cfd5b5f602082840312156123eb575f80fd5b81356001600160e01b0319811681146109f1575f80fd5b5f5b8381101561241c578181015183820152602001612404565b50505f910152565b5f815180845261243b816020860160208601612402565b601f01601f19169290920160200192915050565b602081525f6109f16020830184612424565b5f60208284031215612471575f80fd5b5035919050565b6001600160a01b0381168114611568575f80fd5b5f806040838503121561249d575f80fd5b82356124a881612478565b946020939093013593505050565b634e487b7160e01b5f52604160045260245ffd5b5f82601f8301126124d9575f80fd5b813567ffffffffffffffff808211156124f4576124f46124b6565b604051601f8301601f19908116603f0116810190828211818310171561251c5761251c6124b6565b81604052838152866020858801011115612534575f80fd5b836020870160208301375f602085830101528094505050505092915050565b5f805f8060808587031215612566575f80fd5b843561257181612478565b9350602085013561258181612478565b9250604085013567ffffffffffffffff8082111561259d575f80fd5b6125a9888389016124ca565b935060608701359150808211156125be575f80fd5b506125cb878288016124ca565b91505092959194509250565b5f805f606084860312156125e9575f80fd5b83356125f481612478565b9250602084013561260481612478565b929592945050506040919091013590565b5f60208284031215612625575f80fd5b81356109f181612478565b8015158114611568575f80fd5b5f806040838503121561264e575f80fd5b823561265981612478565b9150602083013561266981612630565b809150509250929050565b5f8060408385031215612685575f80fd5b82359150602083013561266981612478565b5f805f606084860312156126a9575f80fd5b8335925060208401356126bb81612478565b915060408401356126cb81612478565b809150509250925092565b60ff60f81b881681525f602060e060208401526126f660e084018a612424565b8381036040850152612708818a612424565b606085018990526001600160a01b038816608086015260a0850187905284810360c0860152855180825260208088019350909101905f5b8181101561275b5783518352928401929184019160010161273f565b50909c9b505050505050505050505050565b5f806040838503121561277e575f80fd5b823561278981612478565b9150602083013561266981612478565b5f805f805f805f60e0888a0312156127af575f80fd5b87356127ba81612478565b965060208801356127ca81612478565b95506040880135945060608801359350608088013560ff811681146127ed575f80fd5b9699959850939692959460a0840135945060c09093013592915050565b5f6020828403121561281a575f80fd5b5051919050565b5f60208284031215612831575f80fd5b815163ffffffff811681146109f1575f80fd5b600181811c9082168061285857607f821691505b60208210810361287657634e487b7160e01b5f52602260045260245ffd5b50919050565b634e487b7160e01b5f52601160045260245ffd5b808201808211156106db576106db61287c565b818103818111156106db576106db61287c565b600181815b808511156128f057815f19048211156128d6576128d661287c565b808516156128e357918102915b93841c93908002906128bb565b509250929050565b5f82612906575060016106db565b8161291257505f6106db565b816001811461292857600281146129325761294e565b60019150506106db565b60ff8411156129435761294361287c565b50506001821b6106db565b5060208310610133831016604e8410600b8410161715612971575081810a6106db565b61297b83836128b6565b805f190482111561298e5761298e61287c565b029392505050565b5f6109f160ff8416836128f8565b60ff81811683821601908111156106db576106db61287c565b5f602082840312156129cd575f80fd5b81516109f181612630565b634e487b7160e01b5f52601260045260245ffd5b601f82111561151457805f5260205f20601f840160051c81016020851015612a115750805b601f840160051c820191505b81811015611af2575f8155600101612a1d565b815167ffffffffffffffff811115612a4a57612a4a6124b6565b612a5e81612a588454612844565b846129ec565b602080601f831160018114612a91575f8415612a7a5750858301515b5f19600386901b1c1916600185901b178555612ae8565b5f85815260208120601f198616915b82811015612abf57888601518255948401946001909101908401612aa0565b5085821015612adc57878501515f19600388901b60f8161c191681555b505060018460011b0185555b505050505050565b634e487b7160e01b5f52602160045260245ffd5b5f60ff831680612b2257634e487b7160e01b5f52601260045260245ffd5b8060ff84160691505092915050565b5f8251612b42818460208701612402565b919091019291505056fe52c63247e1f47db19d5ce0460030c497f067ca4cebf71ba98eeadabe20bace0052c63247e1f47db19d5ce0460030c497f067ca4cebf71ba98eeadabe20bace02a16a46d94261c7517cc8ff89f61c0ce93598e3c849801011dee649a6a557d100a26469706673582212203444a917955f95a1b79da153a7fa4a1d6c9ecb65bdd3fa737a5951d1b4e030bd64736f6c63430008180033",
    "linkReferences": {}
  },
  "methodIdentifiers": {
    "DOMAIN_SEPARATOR()": "3644e515",
    "REGISTRY()": "06433b1b",
    "ROUTER()": "32fe7b26",
    "allowance(address,address)": "dd62ed3e",
    "approve(address,uint256)": "095ea7b3",
    "asset()": "38d52e0f",
    "balanceOf(address)": "70a08231",
    "claimableRedeemRequest(uint256,address)": "eaed1d07",
    "convertToAssets(uint256)": "07a2d13a",
    "convertToShares(uint256)": "c6e6f592",
    "decimals()": "313ce567",
    "delegated()": "cf8db862",
    "deposit(uint256,address)": "6e553f65",
    "eip712Domain()": "84b0196e",
    "getWithdrawalDelay()": "03160940",
    "initialize(address,address,string,string)": "2016a0d2",
    "isOperator(address,address)": "b6363cf2",
    "lockSlashing(uint256)": "dff81f7d",
    "maxDeposit(address)": "402d267d",
    "maxMint(address)": "c63d75b6",
    "maxRedeem(address)": "d905777e",
    "maxWithdraw(address)": "ce96cb77",
    "mint(uint256,address)": "94bf804d",
    "name()": "06fdde03",
    "nonces(address)": "7ecebe00",
    "pendingRedeemRequest(uint256,address)": "f5a23d8d",
    "permit(address,address,uint256,uint256,uint8,bytes32,bytes32)": "d505accf",
    "previewDeposit(uint256)": "ef8b30f7",
    "previewMint(uint256)": "b3d7f6b9",
    "previewRedeem(uint256)": "4cdad506",
    "previewWithdraw(uint256)": "0a28a477",
    "redeem(uint256,address,address)": "ba087652",
    "requestRedeem(uint256,address,address)": "7d41c86e",
    "setOperator(address,bool)": "558a7297",
    "supportsInterface(bytes4)": "01ffc9a7",
    "symbol()": "95d89b41",
    "totalActiveStaked()": "e49d1232",
    "totalAssets()": "01e1d114",
    "totalSupply()": "18160ddd",
    "transfer(address,uint256)": "a9059cbb",
    "transferFrom(address,address,uint256)": "23b872dd",
    "withdraw(uint256,address,address)": "b460af94"
  },
  "storageLayout": {
    "storage": [
      {
        "astId": 26533,
        "contract": "node_modules/@satlayer/contracts/src/SLAYVaultV2.sol:SLAYVaultV2",
        "label": "_delegated",
        "offset": 0,
        "slot": "0",
        "type": "t_address"
      },
      {
        "astId": 26540,
        "contract": "node_modules/@satlayer/contracts/src/SLAYVaultV2.sol:SLAYVaultV2",
        "label": "_isOperator",
        "offset": 0,
        "slot": "1",
        "type": "t_mapping(t_address,t_mapping(t_address,t_bool))"
      },
      {
        "astId": 26546,
        "contract": "node_modules/@satlayer/contracts/src/SLAYVaultV2.sol:SLAYVaultV2",
        "label": "_pendingRedemption",
        "offset": 0,
        "slot": "2",
        "type": "t_mapping(t_address,t_struct(RedeemRequestStruct)28684_storage)"
      }
    ],
    "types": {
      "t_address": {
        "encoding": "inplace",
        "label": "address",
        "numberOfBytes": "20"
      },
      "t_bool": {
        "encoding": "inplace",
        "label": "bool",
        "numberOfBytes": "1"
      },
      "t_mapping(t_address,t_bool)": {
        "encoding": "mapping",
        "key": "t_address",
        "label": "mapping(address => bool)",
        "numberOfBytes": "32",
        "value": "t_bool"
      },
      "t_mapping(t_address,t_mapping(t_address,t_bool))": {
        "encoding": "mapping",
        "key": "t_address",
        "label": "mapping(address => mapping(address => bool))",
        "numberOfBytes": "32",
        "value": "t_mapping(t_address,t_bool)"
      },
      "t_mapping(t_address,t_struct(RedeemRequestStruct)28684_storage)": {
        "encoding": "mapping",
        "key": "t_address",
        "label": "mapping(address => struct ISLAYVaultV2.RedeemRequestStruct)",
        "numberOfBytes": "32",
        "value": "t_struct(RedeemRequestStruct)28684_storage"
      },
      "t_struct(RedeemRequestStruct)28684_storage": {
        "encoding": "inplace",
        "label": "struct ISLAYVaultV2.RedeemRequestStruct",
        "numberOfBytes": "64",
        "members": [
          {
            "astId": 28680,
            "contract": "node_modules/@satlayer/contracts/src/SLAYVaultV2.sol:SLAYVaultV2",
            "label": "shares",
            "offset": 0,
            "slot": "0",
            "type": "t_uint256"
          },
          {
            "astId": 28683,
            "contract": "node_modules/@satlayer/contracts/src/SLAYVaultV2.sol:SLAYVaultV2",
            "label": "claimableAt",
            "offset": 0,
            "slot": "1",
            "type": "t_uint256"
          }
        ]
      },
      "t_uint256": {
        "encoding": "inplace",
        "label": "uint256",
        "numberOfBytes": "32"
      }
    }
  },
  "id": 79
}