{
  "abi": [
    {
      "type": "constructor",
      "inputs": [
        {
          "name": "registry",
          "type": "address",
          "internalType": "contract ISLAYRegistryV2"
        },
        {
          "name": "owner_",
          "type": "address",
          "internalType": "address"
        }
      ],
      "stateMutability": "nonpayable"
    },
    {
      "type": "function",
      "name": "MAX_EXPECTED_ARGS",
      "inputs": [],
      "outputs": [
        {
          "name": "",
          "type": "uint256",
          "internalType": "uint256"
        }
      ],
      "stateMutability": "view"
    },
    {
      "type": "function",
      "name": "MAX_EXTRA",
      "inputs": [],
      "outputs": [
        {
          "name": "",
          "type": "uint256",
          "internalType": "uint256"
        }
      ],
      "stateMutability": "view"
    },
    {
      "type": "function",
      "name": "actionAttestCount",
      "inputs": [
        {
          "name": "",
          "type": "uint256",
          "internalType": "uint256"
        },
        {
          "name": "",
          "type": "uint256",
          "internalType": "uint256"
        }
      ],
      "outputs": [
        {
          "name": "",
          "type": "uint16",
          "internalType": "uint16"
        }
      ],
      "stateMutability": "view"
    },
    {
      "type": "function",
      "name": "actionCount",
      "inputs": [
        {
          "name": "requestId",
          "type": "uint256",
          "internalType": "uint256"
        }
      ],
      "outputs": [
        {
          "name": "",
          "type": "uint256",
          "internalType": "uint256"
        }
      ],
      "stateMutability": "view"
    },
    {
      "type": "function",
      "name": "activeOperatorCount",
      "inputs": [],
      "outputs": [
        {
          "name": "",
          "type": "uint256",
          "internalType": "uint256"
        }
      ],
      "stateMutability": "view"
    },
    {
      "type": "function",
      "name": "attest",
      "inputs": [
        {
          "name": "requestId",
          "type": "uint256",
          "internalType": "uint256"
        },
        {
          "name": "actionIndex",
          "type": "uint256",
          "internalType": "uint256"
        },
        {
          "name": "txHash",
          "type": "bytes32",
          "internalType": "bytes32"
        },
        {
          "name": "extraData",
          "type": "bytes",
          "internalType": "bytes"
        }
      ],
      "outputs": [],
      "stateMutability": "nonpayable"
    },
    {
      "type": "function",
      "name": "attestedTxHash",
      "inputs": [
        {
          "name": "",
          "type": "uint256",
          "internalType": "uint256"
        },
        {
          "name": "",
          "type": "uint256",
          "internalType": "uint256"
        },
        {
          "name": "",
          "type": "address",
          "internalType": "address"
        }
      ],
      "outputs": [
        {
          "name": "",
          "type": "bytes32",
          "internalType": "bytes32"
        }
      ],
      "stateMutability": "view"
    },
    {
      "type": "function",
      "name": "canFinalize",
      "inputs": [
        {
          "name": "requestId",
          "type": "uint256",
          "internalType": "uint256"
        }
      ],
      "outputs": [
        {
          "name": "ok",
          "type": "bool",
          "internalType": "bool"
        },
        {
          "name": "required",
          "type": "uint16",
          "internalType": "uint16"
        },
        {
          "name": "counts",
          "type": "uint16[]",
          "internalType": "uint16[]"
        },
        {
          "name": "satisfied",
          "type": "uint256",
          "internalType": "uint256"
        }
      ],
      "stateMutability": "view"
    },
    {
      "type": "function",
      "name": "cancelRequest",
      "inputs": [
        {
          "name": "requestId",
          "type": "uint256",
          "internalType": "uint256"
        },
        {
          "name": "reason",
          "type": "string",
          "internalType": "string"
        }
      ],
      "outputs": [],
      "stateMutability": "nonpayable"
    },
    {
      "type": "function",
      "name": "checkRequestStatus",
      "inputs": [
        {
          "name": "requestId",
          "type": "uint256",
          "internalType": "uint256"
        }
      ],
      "outputs": [
        {
          "name": "status",
          "type": "uint8",
          "internalType": "enum StablecoinCollateralBVS.ReqStatus"
        }
      ],
      "stateMutability": "view"
    },
    {
      "type": "function",
      "name": "deregisterOperator",
      "inputs": [
        {
          "name": "op",
          "type": "address",
          "internalType": "address"
        }
      ],
      "outputs": [],
      "stateMutability": "nonpayable"
    },
    {
      "type": "function",
      "name": "finalizeRequest",
      "inputs": [
        {
          "name": "requestId",
          "type": "uint256",
          "internalType": "uint256"
        }
      ],
      "outputs": [],
      "stateMutability": "nonpayable"
    },
    {
      "type": "function",
      "name": "getAction",
      "inputs": [
        {
          "name": "requestId",
          "type": "uint256",
          "internalType": "uint256"
        },
        {
          "name": "index",
          "type": "uint256",
          "internalType": "uint256"
        }
      ],
      "outputs": [
        {
          "name": "target",
          "type": "address",
          "internalType": "address"
        },
        {
          "name": "selector",
          "type": "bytes4",
          "internalType": "bytes4"
        },
        {
          "name": "expectedArgs",
          "type": "bytes",
          "internalType": "bytes"
        },
        {
          "name": "expectedArgsHash",
          "type": "bytes32",
          "internalType": "bytes32"
        },
        {
          "name": "extraData",
          "type": "bytes",
          "internalType": "bytes"
        },
        {
          "name": "matchMode",
          "type": "uint8",
          "internalType": "enum StablecoinCollateralBVS.MatchMode"
        }
      ],
      "stateMutability": "view"
    },
    {
      "type": "function",
      "name": "getRequest",
      "inputs": [
        {
          "name": "requestId",
          "type": "uint256",
          "internalType": "uint256"
        }
      ],
      "outputs": [
        {
          "name": "",
          "type": "tuple",
          "internalType": "struct StablecoinCollateralBVS.Request",
          "components": [
            {
              "name": "chainId",
              "type": "uint64",
              "internalType": "uint64"
            },
            {
              "name": "completion",
              "type": "uint8",
              "internalType": "enum StablecoinCollateralBVS.CompletionMode"
            },
            {
              "name": "kRequired",
              "type": "uint16",
              "internalType": "uint16"
            },
            {
              "name": "quorumBps",
              "type": "uint16",
              "internalType": "uint16"
            },
            {
              "name": "minCount",
              "type": "uint16",
              "internalType": "uint16"
            },
            {
              "name": "createdAt",
              "type": "uint48",
              "internalType": "uint48"
            },
            {
              "name": "expiresAt",
              "type": "uint48",
              "internalType": "uint48"
            },
            {
              "name": "status",
              "type": "uint8",
              "internalType": "enum StablecoinCollateralBVS.ReqStatus"
            },
            {
              "name": "attestedCount",
              "type": "uint16",
              "internalType": "uint16"
            },
            {
              "name": "finalizedAt",
              "type": "uint32",
              "internalType": "uint32"
            },
            {
              "name": "hasOperatorAllowlist",
              "type": "bool",
              "internalType": "bool"
            }
          ]
        }
      ],
      "stateMutability": "view"
    },
    {
      "type": "function",
      "name": "hasAttested",
      "inputs": [
        {
          "name": "",
          "type": "uint256",
          "internalType": "uint256"
        },
        {
          "name": "",
          "type": "uint256",
          "internalType": "uint256"
        },
        {
          "name": "",
          "type": "address",
          "internalType": "address"
        }
      ],
      "outputs": [
        {
          "name": "",
          "type": "bool",
          "internalType": "bool"
        }
      ],
      "stateMutability": "view"
    },
    {
      "type": "function",
      "name": "isActiveOperatorAt",
      "inputs": [
        {
          "name": "op",
          "type": "address",
          "internalType": "address"
        },
        {
          "name": "ts",
          "type": "uint256",
          "internalType": "uint256"
        }
      ],
      "outputs": [
        {
          "name": "",
          "type": "bool",
          "internalType": "bool"
        }
      ],
      "stateMutability": "view"
    },
    {
      "type": "function",
      "name": "nextRequestId",
      "inputs": [],
      "outputs": [
        {
          "name": "",
          "type": "uint256",
          "internalType": "uint256"
        }
      ],
      "stateMutability": "view"
    },
    {
      "type": "function",
      "name": "notifyUnsolicited",
      "inputs": [
        {
          "name": "chainId",
          "type": "uint64",
          "internalType": "uint64"
        },
        {
          "name": "target",
          "type": "address",
          "internalType": "address"
        },
        {
          "name": "selector",
          "type": "bytes4",
          "internalType": "bytes4"
        },
        {
          "name": "txHash",
          "type": "bytes32",
          "internalType": "bytes32"
        },
        {
          "name": "args",
          "type": "bytes",
          "internalType": "bytes"
        }
      ],
      "outputs": [],
      "stateMutability": "nonpayable"
    },
    {
      "type": "function",
      "name": "openRequest",
      "inputs": [
        {
          "name": "chainId",
          "type": "uint64",
          "internalType": "uint64"
        },
        {
          "name": "actions",
          "type": "tuple[]",
          "internalType": "struct StablecoinCollateralBVS.Action[]",
          "components": [
            {
              "name": "target",
              "type": "address",
              "internalType": "address"
            },
            {
              "name": "selector",
              "type": "bytes4",
              "internalType": "bytes4"
            },
            {
              "name": "expectedArgs",
              "type": "bytes",
              "internalType": "bytes"
            },
            {
              "name": "expectedArgsHash",
              "type": "bytes32",
              "internalType": "bytes32"
            },
            {
              "name": "extraData",
              "type": "bytes",
              "internalType": "bytes"
            },
            {
              "name": "matchMode",
              "type": "uint8",
              "internalType": "enum StablecoinCollateralBVS.MatchMode"
            }
          ]
        },
        {
          "name": "completion",
          "type": "uint8",
          "internalType": "enum StablecoinCollateralBVS.CompletionMode"
        },
        {
          "name": "kRequired",
          "type": "uint16",
          "internalType": "uint16"
        },
        {
          "name": "quorumBps",
          "type": "uint16",
          "internalType": "uint16"
        },
        {
          "name": "minCount",
          "type": "uint16",
          "internalType": "uint16"
        },
        {
          "name": "ttlSeconds",
          "type": "uint48",
          "internalType": "uint48"
        },
        {
          "name": "allowedOps",
          "type": "address[]",
          "internalType": "address[]"
        }
      ],
      "outputs": [
        {
          "name": "id",
          "type": "uint256",
          "internalType": "uint256"
        }
      ],
      "stateMutability": "nonpayable"
    },
    {
      "type": "function",
      "name": "operatorAllowed",
      "inputs": [
        {
          "name": "",
          "type": "uint256",
          "internalType": "uint256"
        },
        {
          "name": "",
          "type": "address",
          "internalType": "address"
        }
      ],
      "outputs": [
        {
          "name": "",
          "type": "bool",
          "internalType": "bool"
        }
      ],
      "stateMutability": "view"
    },
    {
      "type": "function",
      "name": "owner",
      "inputs": [],
      "outputs": [
        {
          "name": "",
          "type": "address",
          "internalType": "address"
        }
      ],
      "stateMutability": "view"
    },
    {
      "type": "function",
      "name": "registerOperator",
      "inputs": [
        {
          "name": "op",
          "type": "address",
          "internalType": "address"
        }
      ],
      "outputs": [],
      "stateMutability": "nonpayable"
    },
    {
      "type": "function",
      "name": "renounceOwnership",
      "inputs": [],
      "outputs": [],
      "stateMutability": "nonpayable"
    },
    {
      "type": "function",
      "name": "requestActions",
      "inputs": [
        {
          "name": "",
          "type": "uint256",
          "internalType": "uint256"
        },
        {
          "name": "",
          "type": "uint256",
          "internalType": "uint256"
        }
      ],
      "outputs": [
        {
          "name": "target",
          "type": "address",
          "internalType": "address"
        },
        {
          "name": "selector",
          "type": "bytes4",
          "internalType": "bytes4"
        },
        {
          "name": "expectedArgs",
          "type": "bytes",
          "internalType": "bytes"
        },
        {
          "name": "expectedArgsHash",
          "type": "bytes32",
          "internalType": "bytes32"
        },
        {
          "name": "extraData",
          "type": "bytes",
          "internalType": "bytes"
        },
        {
          "name": "matchMode",
          "type": "uint8",
          "internalType": "enum StablecoinCollateralBVS.MatchMode"
        }
      ],
      "stateMutability": "view"
    },
    {
      "type": "function",
      "name": "requests",
      "inputs": [
        {
          "name": "",
          "type": "uint256",
          "internalType": "uint256"
        }
      ],
      "outputs": [
        {
          "name": "chainId",
          "type": "uint64",
          "internalType": "uint64"
        },
        {
          "name": "completion",
          "type": "uint8",
          "internalType": "enum StablecoinCollateralBVS.CompletionMode"
        },
        {
          "name": "kRequired",
          "type": "uint16",
          "internalType": "uint16"
        },
        {
          "name": "quorumBps",
          "type": "uint16",
          "internalType": "uint16"
        },
        {
          "name": "minCount",
          "type": "uint16",
          "internalType": "uint16"
        },
        {
          "name": "createdAt",
          "type": "uint48",
          "internalType": "uint48"
        },
        {
          "name": "expiresAt",
          "type": "uint48",
          "internalType": "uint48"
        },
        {
          "name": "status",
          "type": "uint8",
          "internalType": "enum StablecoinCollateralBVS.ReqStatus"
        },
        {
          "name": "attestedCount",
          "type": "uint16",
          "internalType": "uint16"
        },
        {
          "name": "finalizedAt",
          "type": "uint32",
          "internalType": "uint32"
        },
        {
          "name": "hasOperatorAllowlist",
          "type": "bool",
          "internalType": "bool"
        }
      ],
      "stateMutability": "view"
    },
    {
      "type": "function",
      "name": "slayRegistry",
      "inputs": [],
      "outputs": [
        {
          "name": "",
          "type": "address",
          "internalType": "contract ISLAYRegistryV2"
        }
      ],
      "stateMutability": "view"
    },
    {
      "type": "function",
      "name": "transferOwnership",
      "inputs": [
        {
          "name": "newOwner",
          "type": "address",
          "internalType": "address"
        }
      ],
      "outputs": [],
      "stateMutability": "nonpayable"
    },
    {
      "type": "event",
      "name": "Attested",
      "inputs": [
        {
          "name": "requestId",
          "type": "uint256",
          "indexed": true,
          "internalType": "uint256"
        },
        {
          "name": "actionIndex",
          "type": "uint256",
          "indexed": true,
          "internalType": "uint256"
        },
        {
          "name": "operator",
          "type": "address",
          "indexed": true,
          "internalType": "address"
        },
        {
          "name": "txHash",
          "type": "bytes32",
          "indexed": false,
          "internalType": "bytes32"
        },
        {
          "name": "extraData",
          "type": "bytes",
          "indexed": false,
          "internalType": "bytes"
        }
      ],
      "anonymous": false
    },
    {
      "type": "event",
      "name": "OperatorRegistered",
      "inputs": [
        {
          "name": "operator",
          "type": "address",
          "indexed": true,
          "internalType": "address"
        },
        {
          "name": "added",
          "type": "bool",
          "indexed": false,
          "internalType": "bool"
        }
      ],
      "anonymous": false
    },
    {
      "type": "event",
      "name": "OwnershipTransferred",
      "inputs": [
        {
          "name": "previousOwner",
          "type": "address",
          "indexed": true,
          "internalType": "address"
        },
        {
          "name": "newOwner",
          "type": "address",
          "indexed": true,
          "internalType": "address"
        }
      ],
      "anonymous": false
    },
    {
      "type": "event",
      "name": "RequestActionAdded",
      "inputs": [
        {
          "name": "id",
          "type": "uint256",
          "indexed": true,
          "internalType": "uint256"
        },
        {
          "name": "index",
          "type": "uint256",
          "indexed": true,
          "internalType": "uint256"
        },
        {
          "name": "target",
          "type": "address",
          "indexed": false,
          "internalType": "address"
        },
        {
          "name": "selector",
          "type": "bytes4",
          "indexed": false,
          "internalType": "bytes4"
        },
        {
          "name": "matchMode",
          "type": "uint8",
          "indexed": false,
          "internalType": "enum StablecoinCollateralBVS.MatchMode"
        },
        {
          "name": "expectedArgsHash",
          "type": "bytes32",
          "indexed": false,
          "internalType": "bytes32"
        }
      ],
      "anonymous": false
    },
    {
      "type": "event",
      "name": "RequestCanceled",
      "inputs": [
        {
          "name": "requestId",
          "type": "uint256",
          "indexed": true,
          "internalType": "uint256"
        },
        {
          "name": "reason",
          "type": "string",
          "indexed": false,
          "internalType": "string"
        }
      ],
      "anonymous": false
    },
    {
      "type": "event",
      "name": "RequestExpired",
      "inputs": [
        {
          "name": "id",
          "type": "uint256",
          "indexed": true,
          "internalType": "uint256"
        }
      ],
      "anonymous": false
    },
    {
      "type": "event",
      "name": "RequestFinalized",
      "inputs": [
        {
          "name": "requestId",
          "type": "uint256",
          "indexed": true,
          "internalType": "uint256"
        },
        {
          "name": "requiredCount",
          "type": "uint16",
          "indexed": false,
          "internalType": "uint16"
        },
        {
          "name": "actions",
          "type": "uint256",
          "indexed": false,
          "internalType": "uint256"
        },
        {
          "name": "finalizedAt",
          "type": "uint32",
          "indexed": false,
          "internalType": "uint32"
        }
      ],
      "anonymous": false
    },
    {
      "type": "event",
      "name": "RequestOpened",
      "inputs": [
        {
          "name": "id",
          "type": "uint256",
          "indexed": true,
          "internalType": "uint256"
        },
        {
          "name": "chainId",
          "type": "uint64",
          "indexed": false,
          "internalType": "uint64"
        },
        {
          "name": "completion",
          "type": "uint8",
          "indexed": false,
          "internalType": "enum StablecoinCollateralBVS.CompletionMode"
        },
        {
          "name": "kRequired",
          "type": "uint16",
          "indexed": false,
          "internalType": "uint16"
        },
        {
          "name": "quorumBps",
          "type": "uint16",
          "indexed": false,
          "internalType": "uint16"
        },
        {
          "name": "minCount",
          "type": "uint16",
          "indexed": false,
          "internalType": "uint16"
        },
        {
          "name": "expiresAt",
          "type": "uint48",
          "indexed": false,
          "internalType": "uint48"
        }
      ],
      "anonymous": false
    },
    {
      "type": "event",
      "name": "RequestOperatorsAllowlisted",
      "inputs": [
        {
          "name": "id",
          "type": "uint256",
          "indexed": true,
          "internalType": "uint256"
        },
        {
          "name": "count",
          "type": "uint256",
          "indexed": false,
          "internalType": "uint256"
        }
      ],
      "anonymous": false
    },
    {
      "type": "event",
      "name": "Unsolicited",
      "inputs": [
        {
          "name": "chainId",
          "type": "uint64",
          "indexed": true,
          "internalType": "uint64"
        },
        {
          "name": "operator",
          "type": "address",
          "indexed": true,
          "internalType": "address"
        },
        {
          "name": "target",
          "type": "address",
          "indexed": true,
          "internalType": "address"
        },
        {
          "name": "selector",
          "type": "bytes4",
          "indexed": false,
          "internalType": "bytes4"
        },
        {
          "name": "txHash",
          "type": "bytes32",
          "indexed": false,
          "internalType": "bytes32"
        },
        {
          "name": "args",
          "type": "bytes",
          "indexed": false,
          "internalType": "bytes"
        }
      ],
      "anonymous": false
    },
    {
      "type": "error",
      "name": "OwnableInvalidOwner",
      "inputs": [
        {
          "name": "owner",
          "type": "address",
          "internalType": "address"
        }
      ]
    },
    {
      "type": "error",
      "name": "OwnableUnauthorizedAccount",
      "inputs": [
        {
          "name": "account",
          "type": "address",
          "internalType": "address"
        }
      ]
    }
  ],
  "bytecode": {
    "object": "0x60a060405234801562000010575f80fd5b5060405162002da438038062002da48339810160408190526200003391620001e2565b806001600160a01b0381166200006357604051631e4fbdf760e01b81525f60048201526024015b60405180910390fd5b6200006e816200017b565b506001600160a01b038216620000b45760405162461bcd60e51b815260206004820152600a602482015269072656769737472793d360b41b60448201526064016200005a565b6001600160a01b03821660808181526040805163344aa0cf60e21b81526004810191909152602060448201527f68747470733a2f2f736572766963652e7361746c617965722e6578616d706c6560648201526024810191909152601d60848201527f537461626c65636f696e20436f6c6c61746572616c205365727669636500000060a482015263d12a833c9060c4015f604051808303815f87803b1580156200015c575f80fd5b505af11580156200016f573d5f803e3d5ffd5b5050505050506200021f565b5f80546001600160a01b038381166001600160a01b0319831681178455604051919092169283917f8be0079c531659141344cd1fd0a4f28419497f9722a3daafe3b4186f6b6457e09190a35050565b6001600160a01b0381168114620001df575f80fd5b50565b5f8060408385031215620001f4575f80fd5b82516200020181620001ca565b60208401519092506200021481620001ca565b809150509250929050565b608051612b496200025b5f395f81816101db0152818161085a0152818161091101528181611a7001528181611b1b0152611ea20152612b495ff3fe608060405234801561000f575f80fd5b50600436106101a1575f3560e01c80638fa1c714116100f3578063ca2be0b311610093578063d8cf98ca1161006e578063d8cf98ca146104e5578063e4e2bfe4146104f8578063eb9db01f1461051b578063f2fde38b1461052e575f80fd5b8063ca2be0b314610441578063d1bfd69614610471578063d39d9756146104a4575f80fd5b8063af2cb0f5116100ce578063af2cb0f5146103e8578063b2ff045b146103fb578063c58343ef1461040e578063c9acc1411461042e575f80fd5b80638fa1c714146103675780639570cba9146103a4578063a88c6871146103c3575f80fd5b80634d2345e41161015e5780636a84a985116101395780636a84a9851461028d578063715018a61461029657806381d12c581461029e5780638da5cb5b14610357575f80fd5b80634d2345e41461025e5780634f96c7061461027157806362f0e2a81461027a575f80fd5b8063020cf5d1146101a557806303441006146101c157806304eff3da146101a557806312e4955b146101d657806321e19b49146102155780633682a4501461024b575b5f80fd5b6101ae61010081565b6040519081526020015b60405180910390f35b6101d46101cf36600461206c565b610541565b005b6101fd7f000000000000000000000000000000000000000000000000000000000000000081565b6040516001600160a01b0390911681526020016101b8565b61023e61022336600461206c565b5f90815260016020526040902054600160d81b900460ff1690565b6040516101b891906120ab565b6101d46102593660046120d4565b610833565b6101d461026c366004612165565b6108f4565b6101ae60085481565b6101d46102883660046121de565b610a71565b6101ae60075481565b6101d4610e4e565b6103406102ac36600461206c565b600160208190525f918252604090912080549101546001600160401b0382169160ff600160401b820481169261ffff600160481b8404811693600160581b8104821693600160681b820483169365ffffffffffff600160781b8404811694600160a81b850490911693600160d81b8104841693600160e01b9091049091169163ffffffff811691640100000000909104168b565b6040516101b89b9a99989796959493929190612252565b5f546001600160a01b03166101fd565b6103946103753660046122de565b600360209081525f928352604080842090915290825290205460ff1681565b60405190151581526020016101b8565b6101ae6103b236600461206c565b5f9081526002602052604090205490565b6103d66103d1366004612308565b610e61565b6040516101b89695949392919061236b565b6103d66103f6366004612308565b610fff565b6101ae610409366004612430565b61116e565b61042161041c36600461206c565b6118c6565b6040516101b89190612511565b61039461043c3660046125f3565b611a3c565b6101ae61044f36600461261b565b600660209081525f938452604080852082529284528284209052825290205481565b61039461047f36600461261b565b600560209081525f938452604080852082529284528284209052825290205460ff1681565b6104d26104b2366004612308565b600460209081525f928352604080842090915290825290205461ffff1681565b60405161ffff90911681526020016101b8565b6101d46104f33660046120d4565b611af4565b61050b61050636600461206c565b611bad565b6040516101b8949392919061264d565b6101d46105293660046126b5565b611d57565b6101d461053c3660046120d4565b611e15565b610549611e52565b5f818152600160205260408120908154600160d81b900460ff16600381111561057457610574612083565b146105b15760405162461bcd60e51b81526020600482015260086024820152673737ba1037b832b760c11b60448201526064015b60405180910390fd5b5f6105bb83611e7e565b5f84815260026020526040812080549293509190805b8281101561060e575f87815260046020908152604080832084845290915290205461ffff808716911610610606576001909101905b6001016105d1565b5060018554600160401b900460ff16600281111561062e5761062e612083565b03610687578181146106825760405162461bcd60e51b815260206004820152601d60248201527f414c4c3a6e6f7420616c6c20616374696f6e732073617469736669656400000060448201526064016105a8565b6107b9565b5f8554600160401b900460ff1660028111156106a5576106a5612083565b036106fb5760018110156106825760405162461bcd60e51b815260206004820152601760248201527f414e593a6e6f20616374696f6e2073617469736669656400000000000000000060448201526064016105a8565b8454600160481b900461ffff161580159061072257508454600160481b900461ffff168210155b61075d5760405162461bcd60e51b815260206004820152600c60248201526b4b3a62616420636f6e66696760a01b60448201526064016105a8565b8454600160481b900461ffff168110156107b95760405162461bcd60e51b815260206004820152601860248201527f4b3a696e73756666696369656e7420736174697366696564000000000000000060448201526064016105a8565b845460ff60d81b1916600160d81b17855560018501805463ffffffff19164263ffffffff169081179091556040805161ffff8716815260208101859052808201929092525187917f234cf399e349fade014b2d578f1c2f862b126ab9c090d0912dfd418e1ea2a05e919081900360600190a2505050505050565b61083b611e52565b604051635e56050160e11b81526001600160a01b0382811660048301527f0000000000000000000000000000000000000000000000000000000000000000169063bcac0a02906024015f604051808303815f87803b15801561089b575f80fd5b505af11580156108ad573d5f803e3d5ffd5b5050604051600181526001600160a01b03841692507ffd9335bf27ee9330341b5d87eaebf6f82bc1ea16bebbcc12c371e180c671f7b491506020015b60405180910390a250565b600160405163621e029960e01b81523060048201523360248201527f00000000000000000000000000000000000000000000000000000000000000006001600160a01b03169063621e029990604401602060405180830381865afa15801561095e573d5f803e3d5ffd5b505050506040513d601f19601f8201168201806040525081019061098291906126fc565b600381111561099357610993612083565b146109d65760405162461bcd60e51b81526020600482015260136024820152726f70657261746f72206e6f742061637469766560681b60448201526064016105a8565b82610a0e5760405162461bcd60e51b815260206004820152600860248201526707478486173683d360c41b60448201526064016105a8565b846001600160a01b0316336001600160a01b0316876001600160401b03167f998c49889739357d6d0ff1ddc50b165ff9089f3e44372f903a9880e90ff1e87487878787604051610a619493929190612742565b60405180910390a4505050505050565b82610aa95760405162461bcd60e51b815260206004820152600860248201526707478486173683d360c41b60448201526064016105a8565b610100811115610aeb5760405162461bcd60e51b815260206004820152600d60248201526c657874726120746f6f2062696760981b60448201526064016105a8565b5f858152600160205260408120908154600160d81b900460ff166003811115610b1657610b16612083565b14610b525760405162461bcd60e51b815260206004820152600c60248201526b3932b8903737ba1037b832b760a11b60448201526064016105a8565b8054600160a81b900465ffffffffffff1615801590610b8057508054600160a81b900465ffffffffffff1642115b15610bc557805460ff60d81b1916600160d91b17815560405186907f156422928a222d0605f7c85c73de1c726451b2032677324e1d205c5c26937c57905f90a2610e46565b5f86815260026020526040902080548610610c145760405162461bcd60e51b815260206004820152600f60248201526e0c4c2c840c2c6e8d2dedc92dcc8caf608b1b60448201526064016105a8565b6001820154640100000000900460ff1615610c86575f87815260036020908152604080832033845290915290205460ff16610c865760405162461bcd60e51b81526020600482015260126024820152711bdc081b9bdd08185b1b1bdddb1a5cdd195960721b60448201526064016105a8565b8154610ca2903390600160781b900465ffffffffffff16611a3c565b610cee5760405162461bcd60e51b815260206004820152601d60248201527f6f70657261746f72206e6f74206163746976654063726561746564417400000060448201526064016105a8565b5f878152600560209081526040808320898452825280832033845290915290205460ff1615610d515760405162461bcd60e51b815260206004820152600f60248201526e323ab81030ba3a32b9ba30ba34b7b760891b60448201526064016105a8565b5f878152600560209081526040808320898452825280832033808552908352818420805460ff191660019081179091558b8552600684528285208b865284528285209185529083528184208990558a8452600483528184208a85529092528220805491929091610dc690849061ffff16612788565b82546101009290920a61ffff818102199093169183160217909155835461ffff60e01b198116600160e01b91829004831660010190921602178355506040513390879089907fe7ff42819d8fb286d8dd55d88f2ef48f166310e88c723ddeabb1c787e6b4b1d490610e3c908a908a908a906127aa565b60405180910390a4505b505050505050565b610e56611e52565b610e5f5f61201d565b565b5f8060605f60605f8060025f8a81526020019081526020015f208881548110610e8c57610e8c6127cc565b5f91825260209091206005909102018054600282015460048301546001840180549495506001600160a01b03841694600160a01b90940460e01b93909291600387019160ff909116908490610ee0906127e0565b80601f0160208091040260200160405190810160405280929190818152602001828054610f0c906127e0565b8015610f575780601f10610f2e57610100808354040283529160200191610f57565b820191905f5260205f20905b815481529060010190602001808311610f3a57829003601f168201915b50505050509350818054610f6a906127e0565b80601f0160208091040260200160405190810160405280929190818152602001828054610f96906127e0565b8015610fe15780601f10610fb857610100808354040283529160200191610fe1565b820191905f5260205f20905b815481529060010190602001808311610fc457829003601f168201915b50505050509150965096509650965096509650509295509295509295565b6002602052815f5260405f208181548110611018575f80fd5b5f918252602090912060059091020180546001820180546001600160a01b0383169550600160a01b90920460e01b935090611052906127e0565b80601f016020809104026020016040519081016040528092919081815260200182805461107e906127e0565b80156110c95780601f106110a0576101008083540402835291602001916110c9565b820191905f5260205f20905b8154815290600101906020018083116110ac57829003601f168201915b5050505050908060020154908060030180546110e4906127e0565b80601f0160208091040260200160405190810160405280929190818152602001828054611110906127e0565b801561115b5780601f106111325761010080835404028352916020019161115b565b820191905f5260205f20905b81548152906001019060200180831161113e57829003601f168201915b5050506004909301549192505060ff1686565b5f611177611e52565b886111b15760405162461bcd60e51b815260206004820152600a6024820152696e6f20616374696f6e7360b01b60448201526064016105a8565b6127108661ffff1611156111f25760405162461bcd60e51b81526020600482015260086024820152676270733e3130302560c01b60448201526064016105a8565b5f8661ffff16118061120757505f8561ffff16115b61123f5760405162461bcd60e51b81526020600482015260096024820152686e6f2071756f72756d60b81b60448201526064016105a8565b600288600281111561125357611253612083565b036112a8575f8761ffff1611801561126f575061ffff87168910155b6112a35760405162461bcd60e51b8152602060048201526005602482015264626164204b60d81b60448201526064016105a8565b6112f2565b61ffff8716156112f25760405162461bcd60e51b81526020600482015260156024820152744b206f6e6c7920666f722041545f4c454153545f4b60581b60448201526064016105a8565b60078054905f61130183612818565b909155505f81815260016020526040902080546001600160401b038e1667ffffffffffffffff1982168117835592935090918a91839168ffffffffffffffffff1990911617600160401b83600281111561135d5761135d612083565b021790555080546cffffffff0000000000000000001916600160481b61ffff8a81169190910261ffff60581b191691909117600160581b898316021767ffffffffffffffff60681b1916600160681b9188169190910265ffffffffffff60781b191617600160781b4265ffffffffffff908116919091029190911782558516156113f0576113eb8542612830565b6113f2565b5f5b815465ffffffffffff91909116600160a81b0260ff60d81b191666ffffffffffffff60a81b199091161781555f828152600260205260408120905b8b81101561176257368d8d83818110611448576114486127cc565b905060200281019061145a919061284f565b90505f61146a60208301836120d4565b6001600160a01b0316036114ab5760405162461bcd60e51b815260206004820152600860248201526707461726765743d360c41b60448201526064016105a8565b6101006114bb608083018361286d565b905011156114fd5760405162461bcd60e51b815260206004820152600f60248201526e657874726120746f6f206c6172676560881b60448201526064016105a8565b6115346040805160c0810182525f80825260208201819052606092820183905282820181905260808201929092529060a082015290565b61154160208301836120d4565b6001600160a01b0316815261155c60408301602084016128af565b6001600160e01b031916602082015261157b60c0830160a084016128c8565b8160a00190600281111561159157611591612083565b908160028111156115a4576115a4612083565b9052506115b4604083018361286d565b8080601f0160208091040260200160405190810160405280939291908181526020018383808284375f920191909152505050506040808301919091526115fc9083018361286d565b60405161160a9291906128e3565b6040519081900390206060820152611625608083018361286d565b8080601f0160208091040260200160405190810160405280939291908181526020018383808284375f92018290525060808601949094525050855460018181018855878452602093849020855160059093020180549486015160e01c600160a01b026001600160c01b03199095166001600160a01b039093169290921793909317815560408401518493919250908201906116c09082612952565b5060608201516002820155608082015160038201906116df9082612952565b5060a082015160048201805460ff1916600183600281111561170357611703612083565b0217905550505082867f6516484a940deee1e0ac582e15a4b843315ad4c8d406557d26ed86c1be653643835f015184602001518560a0015186606001516040516117509493929190612a0d565b60405180910390a3505060010161142d565b50831561185f5760018201805464ff0000000019166401000000001790555f5b84811015611828575f86868381811061179d5761179d6127cc565b90506020020160208101906117b291906120d4565b90506001600160a01b0381166117f35760405162461bcd60e51b81526004016105a89060208082526004908201526306f703d360e41b604082015260600190565b5f8581526003602090815260408083206001600160a01b03909416835292905220805460ff1916600190811790915501611782565b5060405184815283907f3440f92db3fbe6633b50d1d3583d01d523db8214bebb1b93249545fd0e4592459060200160405180910390a25b827f24a8d8a43873ed8964f1297511b1d3e08cad10a4b702c3309e59d4ea5d9f407b8e8c8c8c8c885f0160159054906101000a900465ffffffffffff166040516118ae96959493929190612a48565b60405180910390a250509a9950505050505050505050565b60408051610160810182525f80825260208201819052918101829052606081018290526080810182905260a0810182905260c0810182905260e08101829052610100810182905261012081018290526101408101919091525f828152600160209081526040918290208251610160810190935280546001600160401b03811684529091830190600160401b900460ff16600281111561196757611967612083565b600281111561197857611978612083565b8152815461ffff600160481b820481166020840152600160581b820481166040840152600160681b820416606083015265ffffffffffff600160781b820481166080840152600160a81b82041660a083015260c09091019060ff600160d81b9091041660038111156119ec576119ec612083565b60038111156119fd576119fd612083565b81528154600160e01b900461ffff16602082015260019091015463ffffffff81166040830152640100000000900460ff16151560609091015292915050565b5f600160405163b1ad574360e01b81523060048201526001600160a01b03858116602483015263ffffffff851660448301527f0000000000000000000000000000000000000000000000000000000000000000169063b1ad574390606401602060405180830381865afa158015611ab5573d5f803e3d5ffd5b505050506040513d601f19601f82011682018060405250810190611ad991906126fc565b6003811115611aea57611aea612083565b1490505b92915050565b611afc611e52565b604051634730d78960e11b81526001600160a01b0382811660048301527f00000000000000000000000000000000000000000000000000000000000000001690638e61af12906024015f604051808303815f87803b158015611b5c575f80fd5b505af1158015611b6e573d5f803e3d5ffd5b50506040515f81526001600160a01b03841692507ffd9335bf27ee9330341b5d87eaebf6f82bc1ea16bebbcc12c371e180c671f7b491506020016108e9565b5f81815260016020526040812081906060908290818154600160d81b900460ff166003811115611bdf57611bdf612083565b14611bf357505f9350839250829050611d50565b5f86815260026020526040902080546001600160401b03811115611c1957611c196128f2565b604051908082528060200260200182016040528015611c42578160200160208202803683370190505b509350611c4e87611e7e565b94505f5b8154811015611cc4575f888152600460209081526040808320848452909152902054855161ffff909116908190879084908110611c9157611c916127cc565b61ffff928316602091820292909201015287811690821610611cbb5784611cb781612818565b9550505b50600101611c52565b5060018254600160401b900460ff166002811115611ce457611ce4612083565b03611cf457805483149550611d4d565b5f8254600160401b900460ff166002811115611d1257611d12612083565b03611d235760018310159550611d4d565b8154600160481b900461ffff1615801590611d4a57508154600160481b900461ffff168310155b95505b50505b9193509193565b611d5f611e52565b5f838152600160205260408120908154600160d81b900460ff166003811115611d8a57611d8a612083565b14611dc25760405162461bcd60e51b81526020600482015260086024820152673737ba1037b832b760c11b60448201526064016105a8565b805460ff60d81b1916600360d81b17815560405184907f9d64536e9880d4392b7d4177d63e79c990da1e2d4f4a237da855ece0480dbf1b90611e079086908690612a98565b60405180910390a250505050565b611e1d611e52565b6001600160a01b038116611e4657604051631e4fbdf760e01b81525f60048201526024016105a8565b611e4f8161201d565b50565b5f546001600160a01b03163314610e5f5760405163118cdaa760e01b81523360048201526024016105a8565b5f8181526001602052604080822090516355837b3f60e11b815230600482015282907f00000000000000000000000000000000000000000000000000000000000000006001600160a01b03169063ab06f67e90602401602060405180830381865afa158015611eef573d5f803e3d5ffd5b505050506040513d601f19601f82011682018060405250810190611f139190612ab3565b82549091505f90600160581b900461ffff16611f2f575f611f60565b825461271090611f4a90600160581b900461ffff1684612aca565b611f569061270f612ae1565b611f609190612af4565b83549091508190600160681b900461ffff16811015611f8857508254600160681b900461ffff165b61ffff811115611fcf5760405162461bcd60e51b81526020600482015260126024820152717468726573686f6c64206f766572666c6f7760701b60448201526064016105a8565b8094505f8561ffff16116120145760405162461bcd60e51b815260206004820152600c60248201526b1b9bc81d1a1c995cda1bdb1960a21b60448201526064016105a8565b50505050919050565b5f80546001600160a01b038381166001600160a01b0319831681178455604051919092169283917f8be0079c531659141344cd1fd0a4f28419497f9722a3daafe3b4186f6b6457e09190a35050565b5f6020828403121561207c575f80fd5b5035919050565b634e487b7160e01b5f52602160045260245ffd5b600481106120a7576120a7612083565b9052565b60208101611aee8284612097565b80356001600160a01b03811681146120cf575f80fd5b919050565b5f602082840312156120e4575f80fd5b6120ed826120b9565b9392505050565b80356001600160401b03811681146120cf575f80fd5b80356001600160e01b0319811681146120cf575f80fd5b5f8083601f840112612131575f80fd5b5081356001600160401b03811115612147575f80fd5b60208301915083602082850101111561215e575f80fd5b9250929050565b5f805f805f8060a0878903121561217a575f80fd5b612183876120f4565b9550612191602088016120b9565b945061219f6040880161210a565b93506060870135925060808701356001600160401b038111156121c0575f80fd5b6121cc89828a01612121565b979a9699509497509295939492505050565b5f805f805f608086880312156121f2575f80fd5b85359450602086013593506040860135925060608601356001600160401b0381111561221c575f80fd5b61222888828901612121565b969995985093965092949392505050565b60038110611e4f57611e4f612083565b6120a781612239565b6001600160401b038c168152610160810161226c8c612239565b602082018c905261ffff8b811660408401528a81166060840152898116608084015265ffffffffffff89811660a0850152881660c08401526122b160e0840188612097565b90941661010082015263ffffffff9290921661012083015215156101409091015298975050505050505050565b5f80604083850312156122ef575f80fd5b823591506122ff602084016120b9565b90509250929050565b5f8060408385031215612319575f80fd5b50508035926020909101359150565b5f81518084525f5b8181101561234c57602081850181015186830182015201612330565b505f602082860101526020601f19601f83011685010191505092915050565b6001600160a01b03871681526001600160e01b03198616602082015260c0604082018190525f9061239e90830187612328565b85606084015282810360808401526123b68186612328565b9150506123c283612239565b8260a0830152979650505050505050565b5f8083601f8401126123e3575f80fd5b5081356001600160401b038111156123f9575f80fd5b6020830191508360208260051b850101111561215e575f80fd5b60038110611e4f575f80fd5b803561ffff811681146120cf575f80fd5b5f805f805f805f805f806101008b8d03121561244a575f80fd5b6124538b6120f4565b995060208b01356001600160401b038082111561246e575f80fd5b61247a8e838f016123d3565b909b50995060408d0135915061248f82612413565b81985061249e60608e0161241f565b97506124ac60808e0161241f565b96506124ba60a08e0161241f565b955060c08d0135915065ffffffffffff821682146124d6575f80fd5b90935060e08c013590808211156124eb575f80fd5b506124f88d828e016123d3565b915080935050809150509295989b9194979a5092959850565b81516001600160401b03168152610160810160208301516125356020840182612249565b50604083015161254b604084018261ffff169052565b506060830151612561606084018261ffff169052565b506080830151612577608084018261ffff169052565b5060a083015161259160a084018265ffffffffffff169052565b5060c08301516125ab60c084018265ffffffffffff169052565b5060e08301516125be60e0840182612097565b506101008381015161ffff16908301526101208084015163ffffffff1690830152610140928301511515929091019190915290565b5f8060408385031215612604575f80fd5b61260d836120b9565b946020939093013593505050565b5f805f6060848603121561262d575f80fd5b8335925060208401359150612644604085016120b9565b90509250925092565b5f608082018615158352602061ffff80881660208601526080604086015282875180855260a0870191506020890194505f5b8181101561269d57855184168352948401949184019160010161267f565b50508094505050505082606083015295945050505050565b5f805f604084860312156126c7575f80fd5b8335925060208401356001600160401b038111156126e3575f80fd5b6126ef86828701612121565b9497909650939450505050565b5f6020828403121561270c575f80fd5b8151600481106120ed575f80fd5b81835281816020850137505f828201602090810191909152601f909101601f19169091010190565b63ffffffff60e01b85168152836020820152606060408201525f61276a60608301848661271a565b9695505050505050565b634e487b7160e01b5f52601160045260245ffd5b61ffff8181168382160190808211156127a3576127a3612774565b5092915050565b838152604060208201525f6127c360408301848661271a565b95945050505050565b634e487b7160e01b5f52603260045260245ffd5b600181811c908216806127f457607f821691505b60208210810361281257634e487b7160e01b5f52602260045260245ffd5b50919050565b5f6001820161282957612829612774565b5060010190565b65ffffffffffff8181168382160190808211156127a3576127a3612774565b5f823560be19833603018112612863575f80fd5b9190910192915050565b5f808335601e19843603018112612882575f80fd5b8301803591506001600160401b0382111561289b575f80fd5b60200191503681900382131561215e575f80fd5b5f602082840312156128bf575f80fd5b6120ed8261210a565b5f602082840312156128d8575f80fd5b81356120ed81612413565b818382375f9101908152919050565b634e487b7160e01b5f52604160045260245ffd5b601f82111561294d57805f5260205f20601f840160051c8101602085101561292b5750805b601f840160051c820191505b8181101561294a575f8155600101612937565b50505b505050565b81516001600160401b0381111561296b5761296b6128f2565b61297f8161297984546127e0565b84612906565b602080601f8311600181146129b2575f841561299b5750858301515b5f19600386901b1c1916600185901b178555610e46565b5f85815260208120601f198616915b828110156129e0578886015182559484019460019091019084016129c1565b50858210156129fd57878501515f19600388901b60f8161c191681555b5050505050600190811b01905550565b6001600160a01b03851681526001600160e01b03198416602082015260808101612a3684612239565b60408201939093526060015292915050565b6001600160401b038716815260c08101612a6187612239565b602082019690965261ffff948516604082015292841660608401529216608082015265ffffffffffff90911660a090910152919050565b602081525f612aab60208301848661271a565b949350505050565b5f60208284031215612ac3575f80fd5b5051919050565b8082028115828204841417611aee57611aee612774565b80820180821115611aee57611aee612774565b5f82612b0e57634e487b7160e01b5f52601260045260245ffd5b50049056fea26469706673582212203e2177bf6d070179460d0c050a9f91dc555ec483584dd9970fc37dfc43a56dfb64736f6c63430008180033",
    "linkReferences": {}
  },
  "methodIdentifiers": {
    "MAX_EXPECTED_ARGS()": "04eff3da",
    "MAX_EXTRA()": "020cf5d1",
    "actionAttestCount(uint256,uint256)": "d39d9756",
    "actionCount(uint256)": "9570cba9",
    "activeOperatorCount()": "4f96c706",
    "attest(uint256,uint256,bytes32,bytes)": "62f0e2a8",
    "attestedTxHash(uint256,uint256,address)": "ca2be0b3",
    "canFinalize(uint256)": "e4e2bfe4",
    "cancelRequest(uint256,string)": "eb9db01f",
    "checkRequestStatus(uint256)": "21e19b49",
    "deregisterOperator(address)": "d8cf98ca",
    "finalizeRequest(uint256)": "03441006",
    "getAction(uint256,uint256)": "a88c6871",
    "getRequest(uint256)": "c58343ef",
    "hasAttested(uint256,uint256,address)": "d1bfd696",
    "isActiveOperatorAt(address,uint256)": "c9acc141",
    "nextRequestId()": "6a84a985",
    "notifyUnsolicited(uint64,address,bytes4,bytes32,bytes)": "4d2345e4",
    "openRequest(uint64,(address,bytes4,bytes,bytes32,bytes,uint8)[],uint8,uint16,uint16,uint16,uint48,address[])": "b2ff045b",
    "operatorAllowed(uint256,address)": "8fa1c714",
    "owner()": "8da5cb5b",
    "registerOperator(address)": "3682a450",
    "renounceOwnership()": "715018a6",
    "requestActions(uint256,uint256)": "af2cb0f5",
    "requests(uint256)": "81d12c58",
    "slayRegistry()": "12e4955b",
    "transferOwnership(address)": "f2fde38b"
  },
  "storageLayout": {
    "storage": [
      {
        "astId": 4738,
        "contract": "src/StablecoinCollateralBVS.sol:StablecoinCollateralBVS",
        "label": "_owner",
        "offset": 0,
        "slot": "0",
        "type": "t_address"
      },
      {
        "astId": 73908,
        "contract": "src/StablecoinCollateralBVS.sol:StablecoinCollateralBVS",
        "label": "requests",
        "offset": 0,
        "slot": "1",
        "type": "t_mapping(t_uint256,t_struct(Request)73903_storage)"
      },
      {
        "astId": 73914,
        "contract": "src/StablecoinCollateralBVS.sol:StablecoinCollateralBVS",
        "label": "requestActions",
        "offset": 0,
        "slot": "2",
        "type": "t_mapping(t_uint256,t_array(t_struct(Action)73878_storage)dyn_storage)"
      },
      {
        "astId": 73920,
        "contract": "src/StablecoinCollateralBVS.sol:StablecoinCollateralBVS",
        "label": "operatorAllowed",
        "offset": 0,
        "slot": "3",
        "type": "t_mapping(t_uint256,t_mapping(t_address,t_bool))"
      },
      {
        "astId": 73926,
        "contract": "src/StablecoinCollateralBVS.sol:StablecoinCollateralBVS",
        "label": "actionAttestCount",
        "offset": 0,
        "slot": "4",
        "type": "t_mapping(t_uint256,t_mapping(t_uint256,t_uint16))"
      },
      {
        "astId": 73934,
        "contract": "src/StablecoinCollateralBVS.sol:StablecoinCollateralBVS",
        "label": "hasAttested",
        "offset": 0,
        "slot": "5",
        "type": "t_mapping(t_uint256,t_mapping(t_uint256,t_mapping(t_address,t_bool)))"
      },
      {
        "astId": 73942,
        "contract": "src/StablecoinCollateralBVS.sol:StablecoinCollateralBVS",
        "label": "attestedTxHash",
        "offset": 0,
        "slot": "6",
        "type": "t_mapping(t_uint256,t_mapping(t_uint256,t_mapping(t_address,t_bytes32)))"
      },
      {
        "astId": 73950,
        "contract": "src/StablecoinCollateralBVS.sol:StablecoinCollateralBVS",
        "label": "nextRequestId",
        "offset": 0,
        "slot": "7",
        "type": "t_uint256"
      },
      {
        "astId": 73952,
        "contract": "src/StablecoinCollateralBVS.sol:StablecoinCollateralBVS",
        "label": "activeOperatorCount",
        "offset": 0,
        "slot": "8",
        "type": "t_uint256"
      }
    ],
    "types": {
      "t_address": {
        "encoding": "inplace",
        "label": "address",
        "numberOfBytes": "20"
      },
      "t_array(t_struct(Action)73878_storage)dyn_storage": {
        "encoding": "dynamic_array",
        "label": "struct StablecoinCollateralBVS.Action[]",
        "numberOfBytes": "32",
        "base": "t_struct(Action)73878_storage"
      },
      "t_bool": {
        "encoding": "inplace",
        "label": "bool",
        "numberOfBytes": "1"
      },
      "t_bytes32": {
        "encoding": "inplace",
        "label": "bytes32",
        "numberOfBytes": "32"
      },
      "t_bytes4": {
        "encoding": "inplace",
        "label": "bytes4",
        "numberOfBytes": "4"
      },
      "t_bytes_storage": {
        "encoding": "bytes",
        "label": "bytes",
        "numberOfBytes": "32"
      },
      "t_enum(CompletionMode)73864": {
        "encoding": "inplace",
        "label": "enum StablecoinCollateralBVS.CompletionMode",
        "numberOfBytes": "1"
      },
      "t_enum(MatchMode)73860": {
        "encoding": "inplace",
        "label": "enum StablecoinCollateralBVS.MatchMode",
        "numberOfBytes": "1"
      },
      "t_enum(ReqStatus)73856": {
        "encoding": "inplace",
        "label": "enum StablecoinCollateralBVS.ReqStatus",
        "numberOfBytes": "1"
      },
      "t_mapping(t_address,t_bool)": {
        "encoding": "mapping",
        "key": "t_address",
        "label": "mapping(address => bool)",
        "numberOfBytes": "32",
        "value": "t_bool"
      },
      "t_mapping(t_address,t_bytes32)": {
        "encoding": "mapping",
        "key": "t_address",
        "label": "mapping(address => bytes32)",
        "numberOfBytes": "32",
        "value": "t_bytes32"
      },
      "t_mapping(t_uint256,t_array(t_struct(Action)73878_storage)dyn_storage)": {
        "encoding": "mapping",
        "key": "t_uint256",
        "label": "mapping(uint256 => struct StablecoinCollateralBVS.Action[])",
        "numberOfBytes": "32",
        "value": "t_array(t_struct(Action)73878_storage)dyn_storage"
      },
      "t_mapping(t_uint256,t_mapping(t_address,t_bool))": {
        "encoding": "mapping",
        "key": "t_uint256",
        "label": "mapping(uint256 => mapping(address => bool))",
        "numberOfBytes": "32",
        "value": "t_mapping(t_address,t_bool)"
      },
      "t_mapping(t_uint256,t_mapping(t_address,t_bytes32))": {
        "encoding": "mapping",
        "key": "t_uint256",
        "label": "mapping(uint256 => mapping(address => bytes32))",
        "numberOfBytes": "32",
        "value": "t_mapping(t_address,t_bytes32)"
      },
      "t_mapping(t_uint256,t_mapping(t_uint256,t_mapping(t_address,t_bool)))": {
        "encoding": "mapping",
        "key": "t_uint256",
        "label": "mapping(uint256 => mapping(uint256 => mapping(address => bool)))",
        "numberOfBytes": "32",
        "value": "t_mapping(t_uint256,t_mapping(t_address,t_bool))"
      },
      "t_mapping(t_uint256,t_mapping(t_uint256,t_mapping(t_address,t_bytes32)))": {
        "encoding": "mapping",
        "key": "t_uint256",
        "label": "mapping(uint256 => mapping(uint256 => mapping(address => bytes32)))",
        "numberOfBytes": "32",
        "value": "t_mapping(t_uint256,t_mapping(t_address,t_bytes32))"
      },
      "t_mapping(t_uint256,t_mapping(t_uint256,t_uint16))": {
        "encoding": "mapping",
        "key": "t_uint256",
        "label": "mapping(uint256 => mapping(uint256 => uint16))",
        "numberOfBytes": "32",
        "value": "t_mapping(t_uint256,t_uint16)"
      },
      "t_mapping(t_uint256,t_struct(Request)73903_storage)": {
        "encoding": "mapping",
        "key": "t_uint256",
        "label": "mapping(uint256 => struct StablecoinCollateralBVS.Request)",
        "numberOfBytes": "32",
        "value": "t_struct(Request)73903_storage"
      },
      "t_mapping(t_uint256,t_uint16)": {
        "encoding": "mapping",
        "key": "t_uint256",
        "label": "mapping(uint256 => uint16)",
        "numberOfBytes": "32",
        "value": "t_uint16"
      },
      "t_struct(Action)73878_storage": {
        "encoding": "inplace",
        "label": "struct StablecoinCollateralBVS.Action",
        "numberOfBytes": "160",
        "members": [
          {
            "astId": 73866,
            "contract": "src/StablecoinCollateralBVS.sol:StablecoinCollateralBVS",
            "label": "target",
            "offset": 0,
            "slot": "0",
            "type": "t_address"
          },
          {
            "astId": 73868,
            "contract": "src/StablecoinCollateralBVS.sol:StablecoinCollateralBVS",
            "label": "selector",
            "offset": 20,
            "slot": "0",
            "type": "t_bytes4"
          },
          {
            "astId": 73870,
            "contract": "src/StablecoinCollateralBVS.sol:StablecoinCollateralBVS",
            "label": "expectedArgs",
            "offset": 0,
            "slot": "1",
            "type": "t_bytes_storage"
          },
          {
            "astId": 73872,
            "contract": "src/StablecoinCollateralBVS.sol:StablecoinCollateralBVS",
            "label": "expectedArgsHash",
            "offset": 0,
            "slot": "2",
            "type": "t_bytes32"
          },
          {
            "astId": 73874,
            "contract": "src/StablecoinCollateralBVS.sol:StablecoinCollateralBVS",
            "label": "extraData",
            "offset": 0,
            "slot": "3",
            "type": "t_bytes_storage"
          },
          {
            "astId": 73877,
            "contract": "src/StablecoinCollateralBVS.sol:StablecoinCollateralBVS",
            "label": "matchMode",
            "offset": 0,
            "slot": "4",
            "type": "t_enum(MatchMode)73860"
          }
        ]
      },
      "t_struct(Request)73903_storage": {
        "encoding": "inplace",
        "label": "struct StablecoinCollateralBVS.Request",
        "numberOfBytes": "64",
        "members": [
          {
            "astId": 73880,
            "contract": "src/StablecoinCollateralBVS.sol:StablecoinCollateralBVS",
            "label": "chainId",
            "offset": 0,
            "slot": "0",
            "type": "t_uint64"
          },
          {
            "astId": 73883,
            "contract": "src/StablecoinCollateralBVS.sol:StablecoinCollateralBVS",
            "label": "completion",
            "offset": 8,
            "slot": "0",
            "type": "t_enum(CompletionMode)73864"
          },
          {
            "astId": 73885,
            "contract": "src/StablecoinCollateralBVS.sol:StablecoinCollateralBVS",
            "label": "kRequired",
            "offset": 9,
            "slot": "0",
            "type": "t_uint16"
          },
          {
            "astId": 73887,
            "contract": "src/StablecoinCollateralBVS.sol:StablecoinCollateralBVS",
            "label": "quorumBps",
            "offset": 11,
            "slot": "0",
            "type": "t_uint16"
          },
          {
            "astId": 73889,
            "contract": "src/StablecoinCollateralBVS.sol:StablecoinCollateralBVS",
            "label": "minCount",
            "offset": 13,
            "slot": "0",
            "type": "t_uint16"
          },
          {
            "astId": 73891,
            "contract": "src/StablecoinCollateralBVS.sol:StablecoinCollateralBVS",
            "label": "createdAt",
            "offset": 15,
            "slot": "0",
            "type": "t_uint48"
          },
          {
            "astId": 73893,
            "contract": "src/StablecoinCollateralBVS.sol:StablecoinCollateralBVS",
            "label": "expiresAt",
            "offset": 21,
            "slot": "0",
            "type": "t_uint48"
          },
          {
            "astId": 73896,
            "contract": "src/StablecoinCollateralBVS.sol:StablecoinCollateralBVS",
            "label": "status",
            "offset": 27,
            "slot": "0",
            "type": "t_enum(ReqStatus)73856"
          },
          {
            "astId": 73898,
            "contract": "src/StablecoinCollateralBVS.sol:StablecoinCollateralBVS",
            "label": "attestedCount",
            "offset": 28,
            "slot": "0",
            "type": "t_uint16"
          },
          {
            "astId": 73900,
            "contract": "src/StablecoinCollateralBVS.sol:StablecoinCollateralBVS",
            "label": "finalizedAt",
            "offset": 0,
            "slot": "1",
            "type": "t_uint32"
          },
          {
            "astId": 73902,
            "contract": "src/StablecoinCollateralBVS.sol:StablecoinCollateralBVS",
            "label": "hasOperatorAllowlist",
            "offset": 4,
            "slot": "1",
            "type": "t_bool"
          }
        ]
      },
      "t_uint16": {
        "encoding": "inplace",
        "label": "uint16",
        "numberOfBytes": "2"
      },
      "t_uint256": {
        "encoding": "inplace",
        "label": "uint256",
        "numberOfBytes": "32"
      },
      "t_uint32": {
        "encoding": "inplace",
        "label": "uint32",
        "numberOfBytes": "4"
      },
      "t_uint48": {
        "encoding": "inplace",
        "label": "uint48",
        "numberOfBytes": "6"
      },
      "t_uint64": {
        "encoding": "inplace",
        "label": "uint64",
        "numberOfBytes": "8"
      }
    }
  },
  "id": 116
}