{
  "abi": [
    {
      "type": "constructor",
      "inputs": [
        {
          "name": "governance",
          "type": "address",
          "internalType": "address"
        },
        {
          "name": "conversionGateway",
          "type": "address",
          "internalType": "address"
        },
        {
          "name": "_target",
          "type": "address",
          "internalType": "contract IERC4626"
        }
      ],
      "stateMutability": "nonpayable"
    },
    {
      "type": "function",
      "name": "DEFAULT_ADMIN_ROLE",
      "inputs": [],
      "outputs": [
        {
          "name": "",
          "type": "bytes32",
          "internalType": "bytes32"
        }
      ],
      "stateMutability": "view"
    },
    {
      "type": "function",
      "name": "ROLE_CG",
      "inputs": [],
      "outputs": [
        {
          "name": "",
          "type": "bytes32",
          "internalType": "bytes32"
        }
      ],
      "stateMutability": "view"
    },
    {
      "type": "function",
      "name": "ROLE_GOV",
      "inputs": [],
      "outputs": [
        {
          "name": "",
          "type": "bytes32",
          "internalType": "bytes32"
        }
      ],
      "stateMutability": "view"
    },
    {
      "type": "function",
      "name": "asset",
      "inputs": [],
      "outputs": [
        {
          "name": "",
          "type": "address",
          "internalType": "contract IERC20"
        }
      ],
      "stateMutability": "view"
    },
    {
      "type": "function",
      "name": "assetsOf",
      "inputs": [
        {
          "name": "user",
          "type": "address",
          "internalType": "address"
        }
      ],
      "outputs": [
        {
          "name": "",
          "type": "uint256",
          "internalType": "uint256"
        }
      ],
      "stateMutability": "view"
    },
    {
      "type": "function",
      "name": "connectorShares",
      "inputs": [],
      "outputs": [
        {
          "name": "",
          "type": "uint256",
          "internalType": "uint256"
        }
      ],
      "stateMutability": "view"
    },
    {
      "type": "function",
      "name": "depositFor",
      "inputs": [
        {
          "name": "user",
          "type": "address",
          "internalType": "address"
        },
        {
          "name": "assets",
          "type": "uint256",
          "internalType": "uint256"
        }
      ],
      "outputs": [
        {
          "name": "sharesOut",
          "type": "uint256",
          "internalType": "uint256"
        }
      ],
      "stateMutability": "nonpayable"
    },
    {
      "type": "function",
      "name": "getRoleAdmin",
      "inputs": [
        {
          "name": "role",
          "type": "bytes32",
          "internalType": "bytes32"
        }
      ],
      "outputs": [
        {
          "name": "",
          "type": "bytes32",
          "internalType": "bytes32"
        }
      ],
      "stateMutability": "view"
    },
    {
      "type": "function",
      "name": "grantRole",
      "inputs": [
        {
          "name": "role",
          "type": "bytes32",
          "internalType": "bytes32"
        },
        {
          "name": "account",
          "type": "address",
          "internalType": "address"
        }
      ],
      "outputs": [],
      "stateMutability": "nonpayable"
    },
    {
      "type": "function",
      "name": "hasRole",
      "inputs": [
        {
          "name": "role",
          "type": "bytes32",
          "internalType": "bytes32"
        },
        {
          "name": "account",
          "type": "address",
          "internalType": "address"
        }
      ],
      "outputs": [
        {
          "name": "",
          "type": "bool",
          "internalType": "bool"
        }
      ],
      "stateMutability": "view"
    },
    {
      "type": "function",
      "name": "redeemFor",
      "inputs": [
        {
          "name": "user",
          "type": "address",
          "internalType": "address"
        },
        {
          "name": "requestedAssets",
          "type": "uint256",
          "internalType": "uint256"
        },
        {
          "name": "minAssetsOut",
          "type": "uint256",
          "internalType": "uint256"
        }
      ],
      "outputs": [
        {
          "name": "assetsOut",
          "type": "uint256",
          "internalType": "uint256"
        },
        {
          "name": "sharesBurned",
          "type": "uint256",
          "internalType": "uint256"
        }
      ],
      "stateMutability": "nonpayable"
    },
    {
      "type": "function",
      "name": "renounceRole",
      "inputs": [
        {
          "name": "role",
          "type": "bytes32",
          "internalType": "bytes32"
        },
        {
          "name": "callerConfirmation",
          "type": "address",
          "internalType": "address"
        }
      ],
      "outputs": [],
      "stateMutability": "nonpayable"
    },
    {
      "type": "function",
      "name": "revokeRole",
      "inputs": [
        {
          "name": "role",
          "type": "bytes32",
          "internalType": "bytes32"
        },
        {
          "name": "account",
          "type": "address",
          "internalType": "address"
        }
      ],
      "outputs": [],
      "stateMutability": "nonpayable"
    },
    {
      "type": "function",
      "name": "supportsInterface",
      "inputs": [
        {
          "name": "interfaceId",
          "type": "bytes4",
          "internalType": "bytes4"
        }
      ],
      "outputs": [
        {
          "name": "",
          "type": "bool",
          "internalType": "bool"
        }
      ],
      "stateMutability": "view"
    },
    {
      "type": "function",
      "name": "targetVault",
      "inputs": [],
      "outputs": [
        {
          "name": "",
          "type": "address",
          "internalType": "contract IERC4626"
        }
      ],
      "stateMutability": "view"
    },
    {
      "type": "function",
      "name": "totalPooledAssets",
      "inputs": [],
      "outputs": [
        {
          "name": "",
          "type": "uint256",
          "internalType": "uint256"
        }
      ],
      "stateMutability": "view"
    },
    {
      "type": "function",
      "name": "totalUserShares",
      "inputs": [],
      "outputs": [
        {
          "name": "",
          "type": "uint256",
          "internalType": "uint256"
        }
      ],
      "stateMutability": "view"
    },
    {
      "type": "function",
      "name": "userShares",
      "inputs": [
        {
          "name": "",
          "type": "address",
          "internalType": "address"
        }
      ],
      "outputs": [
        {
          "name": "",
          "type": "uint256",
          "internalType": "uint256"
        }
      ],
      "stateMutability": "view"
    },
    {
      "type": "event",
      "name": "Deposited",
      "inputs": [
        {
          "name": "user",
          "type": "address",
          "indexed": true,
          "internalType": "address"
        },
        {
          "name": "assetsIn",
          "type": "uint256",
          "indexed": false,
          "internalType": "uint256"
        },
        {
          "name": "sharesMinted",
          "type": "uint256",
          "indexed": false,
          "internalType": "uint256"
        }
      ],
      "anonymous": false
    },
    {
      "type": "event",
      "name": "Redeemed",
      "inputs": [
        {
          "name": "user",
          "type": "address",
          "indexed": true,
          "internalType": "address"
        },
        {
          "name": "assetsOut",
          "type": "uint256",
          "indexed": false,
          "internalType": "uint256"
        },
        {
          "name": "sharesBurned",
          "type": "uint256",
          "indexed": false,
          "internalType": "uint256"
        }
      ],
      "anonymous": false
    },
    {
      "type": "event",
      "name": "RoleAdminChanged",
      "inputs": [
        {
          "name": "role",
          "type": "bytes32",
          "indexed": true,
          "internalType": "bytes32"
        },
        {
          "name": "previousAdminRole",
          "type": "bytes32",
          "indexed": true,
          "internalType": "bytes32"
        },
        {
          "name": "newAdminRole",
          "type": "bytes32",
          "indexed": true,
          "internalType": "bytes32"
        }
      ],
      "anonymous": false
    },
    {
      "type": "event",
      "name": "RoleGranted",
      "inputs": [
        {
          "name": "role",
          "type": "bytes32",
          "indexed": true,
          "internalType": "bytes32"
        },
        {
          "name": "account",
          "type": "address",
          "indexed": true,
          "internalType": "address"
        },
        {
          "name": "sender",
          "type": "address",
          "indexed": true,
          "internalType": "address"
        }
      ],
      "anonymous": false
    },
    {
      "type": "event",
      "name": "RoleRevoked",
      "inputs": [
        {
          "name": "role",
          "type": "bytes32",
          "indexed": true,
          "internalType": "bytes32"
        },
        {
          "name": "account",
          "type": "address",
          "indexed": true,
          "internalType": "address"
        },
        {
          "name": "sender",
          "type": "address",
          "indexed": true,
          "internalType": "address"
        }
      ],
      "anonymous": false
    },
    {
      "type": "event",
      "name": "TargetRotated",
      "inputs": [
        {
          "name": "newVault",
          "type": "address",
          "indexed": true,
          "internalType": "address"
        }
      ],
      "anonymous": false
    },
    {
      "type": "error",
      "name": "AccessControlBadConfirmation",
      "inputs": []
    },
    {
      "type": "error",
      "name": "AccessControlUnauthorizedAccount",
      "inputs": [
        {
          "name": "account",
          "type": "address",
          "internalType": "address"
        },
        {
          "name": "neededRole",
          "type": "bytes32",
          "internalType": "bytes32"
        }
      ]
    },
    {
      "type": "error",
      "name": "ReentrancyGuardReentrantCall",
      "inputs": []
    }
  ],
  "bytecode": {
    "object": "0x60a060405234801562000010575f80fd5b506040516200127d3803806200127d83398101604081905262000033916200028c565b600180556001600160a01b038316158015906200005857506001600160a01b03821615155b620000965760405162461bcd60e51b81526020600482015260096024820152682d22a927afa0a2222960b91b60448201526064015b60405180910390fd5b6001600160a01b038116620000db5760405162461bcd60e51b815260206004820152600a6024820152695641554c545f5a45524f60b01b60448201526064016200008d565b600280546001600160a01b0319166001600160a01b038316908117909155604080516338d52e0f60e01b815290516338d52e0f916004808201926020929091908290030181865afa15801562000133573d5f803e3d5ffd5b505050506040513d601f19601f82011682018060405250810190620001599190620002dd565b6001600160a01b0316608052620001917fb058f49d6462f3b1a3b260356aa683712ff15e590972bfac826dd6f0ac9f69cc84620001c8565b50620001be7f14d709f3f05686e62c95aa969cf0a78b04a197162d2e5b7a0b48f3c77bb2512483620001c8565b5050505062000302565b5f828152602081815260408083206001600160a01b038516845290915281205460ff166200026b575f838152602081815260408083206001600160a01b03861684529091529020805460ff19166001179055620002223390565b6001600160a01b0316826001600160a01b0316847f2f8788117e7eff1d82e926ec794901d17c78024a50270940304540a733656f0d60405160405180910390a45060016200026e565b505f5b92915050565b6001600160a01b038116811462000289575f80fd5b50565b5f805f606084860312156200029f575f80fd5b8351620002ac8162000274565b6020850151909350620002bf8162000274565b6040850151909250620002d28162000274565b809150509250925092565b5f60208284031215620002ee575f80fd5b8151620002fb8162000274565b9392505050565b608051610f4d620003305f395f818161021b015281816104700152818161054a0152610b120152610f4d5ff3fe608060405234801561000f575f80fd5b5060043610610111575f3560e01c806338d52e0f1161009e578063a217fddf1161006e578063a217fddf14610260578063a515ace314610267578063b426b8251461028e578063d547741f146102b6578063de69b3aa146102c9575f80fd5b806338d52e0f146102165780633cd4f53e1461023d5780636bdee1f41461024557806391d148541461024d575f80fd5b8063248a9ca3116100e4578063248a9ca3146101a65780632c62fa10146101c85780632f2ff15d146101db5780632f4f21e2146101f057806336568abe14610203575f80fd5b806301ffc9a714610115578063049947121461013d57806307c7ac1b146101545780631f92db451461017b575b5f80fd5b610128610123366004610dac565b6102e8565b60405190151581526020015b60405180910390f35b61014660045481565b604051908152602001610134565b6101467f14d709f3f05686e62c95aa969cf0a78b04a197162d2e5b7a0b48f3c77bb2512481565b60025461018e906001600160a01b031681565b6040516001600160a01b039091168152602001610134565b6101466101b4366004610dda565b5f9081526020819052604090206001015490565b6101466101d6366004610e0c565b61031e565b6101ee6101e9366004610e25565b61039e565b005b6101466101fe366004610e4f565b6103c8565b6101ee610211366004610e25565b610700565b61018e7f000000000000000000000000000000000000000000000000000000000000000081565b610146610738565b610146610818565b61012861025b366004610e25565b610887565b6101465f81565b6101467fb058f49d6462f3b1a3b260356aa683712ff15e590972bfac826dd6f0ac9f69cc81565b6102a161029c366004610e77565b6108af565b60408051928352602083019190915201610134565b6101ee6102c4366004610e25565b610c1c565b6101466102d7366004610e0c565b60036020525f908152604090205481565b5f6001600160e01b03198216637965db0b60e01b148061031857506301ffc9a760e01b6001600160e01b03198316145b92915050565b6002546001600160a01b038281165f908152600360205260408082205490516303d1689d60e11b81526004810191909152909291909116906307a2d13a90602401602060405180830381865afa15801561037a573d5f803e3d5ffd5b505050506040513d601f19601f820116820180604052508101906103189190610ea7565b5f828152602081905260409020600101546103b881610c40565b6103c28383610c4d565b50505050565b5f7f14d709f3f05686e62c95aa969cf0a78b04a197162d2e5b7a0b48f3c77bb251246103f381610c40565b6103fb610cdc565b6001600160a01b0384161580159061041257505f83115b61044e5760405162461bcd60e51b81526020600482015260086024820152674241445f4152475360c01b60448201526064015b60405180910390fd5b6040516323b872dd60e01b8152336004820152306024820152604481018490527f00000000000000000000000000000000000000000000000000000000000000006001600160a01b0316906323b872dd906064016020604051808303815f875af11580156104be573d5f803e3d5ffd5b505050506040513d601f19601f820116820180604052508101906104e29190610ebe565b6105215760405162461bcd60e51b815260206004820152601060248201526f1514905394d1915497d25397d190525360821b6044820152606401610445565b60025460405163095ea7b360e01b81526001600160a01b039182166004820152602481018590527f00000000000000000000000000000000000000000000000000000000000000009091169063095ea7b3906044016020604051808303815f875af1158015610592573d5f803e3d5ffd5b505050506040513d601f19601f820116820180604052508101906105b69190610ebe565b6105f15760405162461bcd60e51b815260206004820152600c60248201526b1054141493d59157d190525360a21b6044820152606401610445565b600254604051636e553f6560e01b8152600481018590523060248201526001600160a01b0390911690636e553f65906044016020604051808303815f875af115801561063f573d5f803e3d5ffd5b505050506040513d601f19601f820116820180604052508101906106639190610ea7565b6001600160a01b0385165f9081526003602052604081208054929450849290919061068f908490610ef1565b925050819055508160045f8282546106a79190610ef1565b909155505060408051848152602081018490526001600160a01b038616917f73a19dd210f1a7f902193214c0ee91dd35ee5b4d920cba8d519eca65a7b488ca910160405180910390a26106f960018055565b5092915050565b6001600160a01b03811633146107295760405163334bd91960e11b815260040160405180910390fd5b6107338282610d06565b505050565b6002546040516370a0823160e01b81523060048201525f9182916001600160a01b03909116906370a0823190602401602060405180830381865afa158015610782573d5f803e3d5ffd5b505050506040513d601f19601f820116820180604052508101906107a69190610ea7565b6002546040516303d1689d60e11b8152600481018390529192506001600160a01b0316906307a2d13a90602401602060405180830381865afa1580156107ee573d5f803e3d5ffd5b505050506040513d601f19601f820116820180604052508101906108129190610ea7565b91505090565b6002546040516370a0823160e01b81523060048201525f916001600160a01b0316906370a0823190602401602060405180830381865afa15801561085e573d5f803e3d5ffd5b505050506040513d601f19601f820116820180604052508101906108829190610ea7565b905090565b5f918252602082815260408084206001600160a01b0393909316845291905290205460ff1690565b5f807f14d709f3f05686e62c95aa969cf0a78b04a197162d2e5b7a0b48f3c77bb251246108db81610c40565b6108e3610cdc565b6001600160a01b038616158015906108fa57505f85115b6109315760405162461bcd60e51b81526020600482015260086024820152674241445f4152475360c01b6044820152606401610445565b6002546040516363737ac960e11b8152600481018790525f916001600160a01b03169063c6e6f59290602401602060405180830381865afa158015610978573d5f803e3d5ffd5b505050506040513d601f19601f8201168201806040525081019061099c9190610ea7565b6001600160a01b0388165f90815260036020526040902054909150808211156109c3578091505b5f82116109ff5760405162461bcd60e51b815260206004820152600a6024820152694e4f5f42414c414e434560b01b6044820152606401610445565b600254604051635d043b2960e11b815260048101849052306024820181905260448201526001600160a01b039091169063ba087652906064016020604051808303815f875af1158015610a54573d5f803e3d5ffd5b505050506040513d601f19601f82011682018060405250810190610a789190610ea7565b945085851015610ab55760405162461bcd60e51b8152602060048201526008602482015267534c49505041474560c01b6044820152606401610445565b610abf8282610f04565b6001600160a01b0389165f9081526003602052604081209190915560048054849290610aec908490610f04565b909155505060405163a9059cbb60e01b81523360048201526024810186905291935083917f00000000000000000000000000000000000000000000000000000000000000006001600160a01b03169063a9059cbb906044016020604051808303815f875af1158015610b60573d5f803e3d5ffd5b505050506040513d601f19601f82011682018060405250810190610b849190610ebe565b610bc45760405162461bcd60e51b81526020600482015260116024820152701514905394d1915497d3d55517d1905253607a1b6044820152606401610445565b60408051868152602081018490526001600160a01b038a16917ff3a670cd3af7d64b488926880889d08a8585a138ff455227af6737339a1ec262910160405180910390a25050610c1360018055565b50935093915050565b5f82815260208190526040902060010154610c3681610c40565b6103c28383610d06565b610c4a8133610d6f565b50565b5f610c588383610887565b610cd5575f838152602081815260408083206001600160a01b03861684529091529020805460ff19166001179055610c8d3390565b6001600160a01b0316826001600160a01b0316847f2f8788117e7eff1d82e926ec794901d17c78024a50270940304540a733656f0d60405160405180910390a4506001610318565b505f610318565b600260015403610cff57604051633ee5aeb560e01b815260040160405180910390fd5b6002600155565b5f610d118383610887565b15610cd5575f838152602081815260408083206001600160a01b0386168085529252808320805460ff1916905551339286917ff6391f5c32d9c69d2a47ea670b442974b53935d1edc7fd64eb21e047a839171b9190a4506001610318565b610d798282610887565b610da85760405163e2517d3f60e01b81526001600160a01b038216600482015260248101839052604401610445565b5050565b5f60208284031215610dbc575f80fd5b81356001600160e01b031981168114610dd3575f80fd5b9392505050565b5f60208284031215610dea575f80fd5b5035919050565b80356001600160a01b0381168114610e07575f80fd5b919050565b5f60208284031215610e1c575f80fd5b610dd382610df1565b5f8060408385031215610e36575f80fd5b82359150610e4660208401610df1565b90509250929050565b5f8060408385031215610e60575f80fd5b610e6983610df1565b946020939093013593505050565b5f805f60608486031215610e89575f80fd5b610e9284610df1565b95602085013595506040909401359392505050565b5f60208284031215610eb7575f80fd5b5051919050565b5f60208284031215610ece575f80fd5b81518015158114610dd3575f80fd5b634e487b7160e01b5f52601160045260245ffd5b8082018082111561031857610318610edd565b8181038181111561031857610318610edd56fea264697066735822122031e1740672aba3fa947a152e7090f67e55b07412b022e20284ae0227334d3c1964736f6c63430008180033",
    "linkReferences": {}
  },
  "methodIdentifiers": {
    "DEFAULT_ADMIN_ROLE()": "a217fddf",
    "ROLE_CG()": "07c7ac1b",
    "ROLE_GOV()": "a515ace3",
    "asset()": "38d52e0f",
    "assetsOf(address)": "2c62fa10",
    "connectorShares()": "6bdee1f4",
    "depositFor(address,uint256)": "2f4f21e2",
    "getRoleAdmin(bytes32)": "248a9ca3",
    "grantRole(bytes32,address)": "2f2ff15d",
    "hasRole(bytes32,address)": "91d14854",
    "redeemFor(address,uint256,uint256)": "b426b825",
    "renounceRole(bytes32,address)": "36568abe",
    "revokeRole(bytes32,address)": "d547741f",
    "supportsInterface(bytes4)": "01ffc9a7",
    "targetVault()": "1f92db45",
    "totalPooledAssets()": "3cd4f53e",
    "totalUserShares()": "04994712",
    "userShares(address)": "de69b3aa"
  },
  "storageLayout": {
    "storage": [
      {
        "astId": 4377,
        "contract": "src/ExternalVaultConnector.sol:ExternalVaultConnector",
        "label": "_roles",
        "offset": 0,
        "slot": "0",
        "type": "t_mapping(t_bytes32,t_struct(RoleData)4372_storage)"
      },
      {
        "astId": 9344,
        "contract": "src/ExternalVaultConnector.sol:ExternalVaultConnector",
        "label": "_status",
        "offset": 0,
        "slot": "1",
        "type": "t_uint256"
      },
      {
        "astId": 71662,
        "contract": "src/ExternalVaultConnector.sol:ExternalVaultConnector",
        "label": "targetVault",
        "offset": 0,
        "slot": "2",
        "type": "t_contract(IERC4626)5158"
      },
      {
        "astId": 71669,
        "contract": "src/ExternalVaultConnector.sol:ExternalVaultConnector",
        "label": "userShares",
        "offset": 0,
        "slot": "3",
        "type": "t_mapping(t_address,t_uint256)"
      },
      {
        "astId": 71671,
        "contract": "src/ExternalVaultConnector.sol:ExternalVaultConnector",
        "label": "totalUserShares",
        "offset": 0,
        "slot": "4",
        "type": "t_uint256"
      }
    ],
    "types": {
      "t_address": {
        "encoding": "inplace",
        "label": "address",
        "numberOfBytes": "20"
      },
      "t_bool": {
        "encoding": "inplace",
        "label": "bool",
        "numberOfBytes": "1"
      },
      "t_bytes32": {
        "encoding": "inplace",
        "label": "bytes32",
        "numberOfBytes": "32"
      },
      "t_contract(IERC4626)5158": {
        "encoding": "inplace",
        "label": "contract IERC4626",
        "numberOfBytes": "20"
      },
      "t_mapping(t_address,t_bool)": {
        "encoding": "mapping",
        "key": "t_address",
        "label": "mapping(address => bool)",
        "numberOfBytes": "32",
        "value": "t_bool"
      },
      "t_mapping(t_address,t_uint256)": {
        "encoding": "mapping",
        "key": "t_address",
        "label": "mapping(address => uint256)",
        "numberOfBytes": "32",
        "value": "t_uint256"
      },
      "t_mapping(t_bytes32,t_struct(RoleData)4372_storage)": {
        "encoding": "mapping",
        "key": "t_bytes32",
        "label": "mapping(bytes32 => struct AccessControl.RoleData)",
        "numberOfBytes": "32",
        "value": "t_struct(RoleData)4372_storage"
      },
      "t_struct(RoleData)4372_storage": {
        "encoding": "inplace",
        "label": "struct AccessControl.RoleData",
        "numberOfBytes": "64",
        "members": [
          {
            "astId": 4369,
            "contract": "src/ExternalVaultConnector.sol:ExternalVaultConnector",
            "label": "hasRole",
            "offset": 0,
            "slot": "0",
            "type": "t_mapping(t_address,t_bool)"
          },
          {
            "astId": 4371,
            "contract": "src/ExternalVaultConnector.sol:ExternalVaultConnector",
            "label": "adminRole",
            "offset": 0,
            "slot": "1",
            "type": "t_bytes32"
          }
        ]
      },
      "t_uint256": {
        "encoding": "inplace",
        "label": "uint256",
        "numberOfBytes": "32"
      }
    }
  },
  "id": 113
}