{"abi":[{"type":"constructor","inputs":[{"name":"_owners","type":"address[]","internalType":"address[]"},{"name":"_threshold","type":"uint256","internalType":"uint256"},{"name":"_registryAddress","type":"address","internalType":"address"},{"name":"_routerAddress","type":"address","internalType":"address"}],"stateMutability":"payable"},{"type":"receive","stateMutability":"payable"},{"type":"function","name":"confirmProposal","inputs":[{"name":"_proposalId","type":"uint256","internalType":"uint256"}],"outputs":[],"stateMutability":"nonpayable"},{"type":"function","name":"confirmations","inputs":[{"name":"","type":"uint256","internalType":"uint256"},{"name":"","type":"address","internalType":"address"}],"outputs":[{"name":"","type":"bool","internalType":"bool"}],"stateMutability":"view"},{"type":"function","name":"executeProposal","inputs":[{"name":"_proposalId","type":"uint256","internalType":"uint256"}],"outputs":[],"stateMutability":"nonpayable"},{"type":"function","name":"isOwner","inputs":[{"name":"","type":"address","internalType":"address"}],"outputs":[{"name":"","type":"bool","internalType":"bool"}],"stateMutability":"view"},{"type":"function","name":"owners","inputs":[{"name":"","type":"uint256","internalType":"uint256"}],"outputs":[{"name":"","type":"address","internalType":"address"}],"stateMutability":"view"},{"type":"function","name":"proposalCount","inputs":[],"outputs":[{"name":"","type":"uint256","internalType":"uint256"}],"stateMutability":"view"},{"type":"function","name":"proposals","inputs":[{"name":"","type":"uint256","internalType":"uint256"}],"outputs":[{"name":"destination","type":"address","internalType":"address"},{"name":"value","type":"uint256","internalType":"uint256"},{"name":"data","type":"bytes","internalType":"bytes"},{"name":"executed","type":"bool","internalType":"bool"},{"name":"confirmationsCount","type":"uint256","internalType":"uint256"}],"stateMutability":"view"},{"type":"function","name":"registryAddress","inputs":[],"outputs":[{"name":"","type":"address","internalType":"address"}],"stateMutability":"view"},{"type":"function","name":"routerAddress","inputs":[],"outputs":[{"name":"","type":"address","internalType":"address"}],"stateMutability":"view"},{"type":"function","name":"submitProposal","inputs":[{"name":"_destination","type":"address","internalType":"address"},{"name":"_value","type":"uint256","internalType":"uint256"},{"name":"_data","type":"bytes","internalType":"bytes"}],"outputs":[{"name":"proposalId","type":"uint256","internalType":"uint256"}],"stateMutability":"nonpayable"},{"type":"function","name":"threshold","inputs":[],"outputs":[{"name":"","type":"uint256","internalType":"uint256"}],"stateMutability":"view"},{"type":"event","name":"Confirmation","inputs":[{"name":"owner","type":"address","indexed":true,"internalType":"address"},{"name":"proposalId","type":"uint256","indexed":true,"internalType":"uint256"}],"anonymous":false},{"type":"event","name":"Execution","inputs":[{"name":"proposalId","type":"uint256","indexed":true,"internalType":"uint256"}],"anonymous":false},{"type":"event","name":"Revocation","inputs":[{"name":"owner","type":"address","indexed":true,"internalType":"address"},{"name":"proposalId","type":"uint256","indexed":true,"internalType":"uint256"}],"anonymous":false},{"type":"event","name":"Submission","inputs":[{"name":"proposalId","type":"uint256","indexed":true,"internalType":"uint256"}],"anonymous":false},{"type":"error","name":"ReentrancyGuardReentrantCall","inputs":[]}],"bytecode":{"object":"0x608060405260405162001f2d38038062001f2d833981810160405281019062000029919062000591565b60015f819055505f84511162000076576040517f08c379a00000000000000000000000000000000000000000000000000000000081526004016200006d906200067d565b60405180910390fd5b5f8311801562000087575083518311155b620000c9576040517f08c379a0000000000000000000000000000000000000000000000000000000008152600401620000c090620006eb565b60405180910390fd5b5f5b845181101562000260575f73ffffffffffffffffffffffffffffffffffffffff168582815181106200010257620001016200070b565b5b602002602001015173ffffffffffffffffffffffffffffffffffffffff160362000163576040517f08c379a00000000000000000000000000000000000000000000000000000000081526004016200015a90620007ac565b60405180910390fd5b600160045f8784815181106200017e576200017d6200070b565b5b602002602001015173ffffffffffffffffffffffffffffffffffffffff1673ffffffffffffffffffffffffffffffffffffffff1681526020019081526020015f205f6101000a81548160ff0219169083151502179055506001858281518110620001ed57620001ec6200070b565b5b6020026020010151908060018154018082558091505060019003905f5260205f20015f9091909190916101000a81548173ffffffffffffffffffffffffffffffffffffffff021916908373ffffffffffffffffffffffffffffffffffffffff1602179055508080600101915050620000cb565b50826005819055508160025f6101000a81548173ffffffffffffffffffffffffffffffffffffffff021916908373ffffffffffffffffffffffffffffffffffffffff1602179055508060035f6101000a81548173ffffffffffffffffffffffffffffffffffffffff021916908373ffffffffffffffffffffffffffffffffffffffff16021790555060025f9054906101000a900473ffffffffffffffffffffffffffffffffffffffff1673ffffffffffffffffffffffffffffffffffffffff1663d12a833c6040518163ffffffff1660e01b815260040162000342906200088e565b5f604051808303815f87803b1580156200035a575f80fd5b505af11580156200036d573d5f803e3d5ffd5b5050505050505050620008c3565b5f604051905090565b5f80fd5b5f80fd5b5f80fd5b5f601f19601f8301169050919050565b7f4e487b71000000000000000000000000000000000000000000000000000000005f52604160045260245ffd5b620003d88262000390565b810181811067ffffffffffffffff82111715620003fa57620003f9620003a0565b5b80604052505050565b5f6200040e6200037b565b90506200041c8282620003cd565b919050565b5f67ffffffffffffffff8211156200043e576200043d620003a0565b5b602082029050602081019050919050565b5f80fd5b5f73ffffffffffffffffffffffffffffffffffffffff82169050919050565b5f6200047e8262000453565b9050919050565b620004908162000472565b81146200049b575f80fd5b50565b5f81519050620004ae8162000485565b92915050565b5f620004ca620004c48462000421565b62000403565b90508083825260208201905060208402830185811115620004f057620004ef6200044f565b5b835b818110156200051d57806200050888826200049e565b845260208401935050602081019050620004f2565b5050509392505050565b5f82601f8301126200053e576200053d6200038c565b5b815162000550848260208601620004b4565b91505092915050565b5f819050919050565b6200056d8162000559565b811462000578575f80fd5b50565b5f815190506200058b8162000562565b92915050565b5f805f8060808587031215620005ac57620005ab62000384565b5b5f85015167ffffffffffffffff811115620005cc57620005cb62000388565b5b620005da8782880162000527565b9450506020620005ed878288016200057b565b935050604062000600878288016200049e565b925050606062000613878288016200049e565b91505092959194509250565b5f82825260208201905092915050565b7f4256533a206f776e657273206c6973742063616e6e6f7420626520656d7074795f82015250565b5f620006656020836200061f565b915062000672826200062f565b602082019050919050565b5f6020820190508181035f830152620006968162000657565b9050919050565b7f4256533a20696e76616c6964207468726573686f6c64000000000000000000005f82015250565b5f620006d36016836200061f565b9150620006e0826200069d565b602082019050919050565b5f6020820190508181035f8301526200070481620006c5565b9050919050565b7f4e487b71000000000000000000000000000000000000000000000000000000005f52603260045260245ffd5b7f4256533a206f776e657220616464726573732063616e6e6f74206265207a65725f8201527f6f00000000000000000000000000000000000000000000000000000000000000602082015250565b5f620007946021836200061f565b9150620007a18262000738565b604082019050919050565b5f6020820190508181035f830152620007c58162000786565b9050919050565b7f7777772e64616f2e636f6d0000000000000000000000000000000000000000005f82015250565b5f62000802600b836200061f565b91506200080f82620007cc565b602082019050919050565b7f4120676f7665726e616e636520626173656420426974636f696e2056616c69645f8201527f6174656420536572766963650000000000000000000000000000000000000000602082015250565b5f62000876602c836200061f565b915062000883826200081a565b604082019050919050565b5f6040820190508181035f830152620008a781620007f4565b90508181036020830152620008bc8162000868565b9050919050565b61165c80620008d15f395ff3fe60806040526004361061009f575f3560e01c80633268cc56116100635780633268cc56146101c65780633411c81c146101f057806342cde4e81461022c578063da35c66414610256578063ed9aab5114610280578063f4a4f4d2146102aa576100a6565b8063013cf08b146100aa578063025e7c27146100ea5780630d61b5191461012657806311d030151461014e5780632f54bf6e1461018a576100a6565b366100a657005b5f80fd5b3480156100b5575f80fd5b506100d060048036038101906100cb9190610c20565b6102d2565b6040516100e1959493929190610d3d565b60405180910390f35b3480156100f5575f80fd5b50610110600480360381019061010b9190610c20565b6103b5565b60405161011d9190610d95565b60405180910390f35b348015610131575f80fd5b5061014c60048036038101906101479190610c20565b6103f0565b005b348015610159575f80fd5b50610174600480360381019061016f9190610f04565b610690565b6040516101819190610f70565b60405180910390f35b348015610195575f80fd5b506101b060048036038101906101ab9190610f89565b610853565b6040516101bd9190610fb4565b60405180910390f35b3480156101d1575f80fd5b506101da610870565b6040516101e79190610d95565b60405180910390f35b3480156101fb575f80fd5b5061021660048036038101906102119190610fcd565b610895565b6040516102239190610fb4565b60405180910390f35b348015610237575f80fd5b506102406108bf565b60405161024d9190610f70565b60405180910390f35b348015610261575f80fd5b5061026a6108c5565b6040516102779190610f70565b60405180910390f35b34801561028b575f80fd5b506102946108cb565b6040516102a19190610d95565b60405180910390f35b3480156102b5575f80fd5b506102d060048036038101906102cb9190610c20565b6108f0565b005b6006602052805f5260405f205f91509050805f015f9054906101000a900473ffffffffffffffffffffffffffffffffffffffff169080600101549080600201805461031c90611038565b80601f016020809104026020016040519081016040528092919081815260200182805461034890611038565b80156103935780601f1061036a57610100808354040283529160200191610393565b820191905f5260205f20905b81548152906001019060200180831161037657829003601f168201915b505050505090806003015f9054906101000a900460ff16908060040154905085565b600181815481106103c4575f80fd5b905f5260205f20015f915054906101000a900473ffffffffffffffffffffffffffffffffffffffff1681565b60045f3373ffffffffffffffffffffffffffffffffffffffff1673ffffffffffffffffffffffffffffffffffffffff1681526020019081526020015f205f9054906101000a900460ff16610479576040517f08c379a0000000000000000000000000000000000000000000000000000000008152600401610470906110c2565b60405180910390fd5b8060085481106104be576040517f08c379a00000000000000000000000000000000000000000000000000000000081526004016104b59061112a565b60405180910390fd5b8160065f8281526020019081526020015f206003015f9054906101000a900460ff1615610520576040517f08c379a000000000000000000000000000000000000000000000000000000000815260040161051790611192565b60405180910390fd5b610528610b8f565b60055460065f8581526020019081526020015f20600401541015610581576040517f08c379a0000000000000000000000000000000000000000000000000000000008152600401610578906111fa565b60405180910390fd5b5f60065f8581526020019081526020015f2090506001816003015f6101000a81548160ff0219169083151502179055505f80825f015f9054906101000a900473ffffffffffffffffffffffffffffffffffffffff1673ffffffffffffffffffffffffffffffffffffffff1683600101548460020160405161060291906112b4565b5f6040518083038185875af1925050503d805f811461063c576040519150601f19603f3d011682016040523d82523d5f602084013e610641565b606091505b50915091508161065357805160208201fd5b857f33e13ecb54c3076d8e8bb8c2881800a4d972b792045ffae98fdf46df365fed7560405160405180910390a250505061068b610bd3565b505050565b5f60045f3373ffffffffffffffffffffffffffffffffffffffff1673ffffffffffffffffffffffffffffffffffffffff1681526020019081526020015f205f9054906101000a900460ff1661071a576040517f08c379a0000000000000000000000000000000000000000000000000000000008152600401610711906110c2565b60405180910390fd5b60085490506040518060a001604052808573ffffffffffffffffffffffffffffffffffffffff1681526020018481526020018381526020015f151581526020015f81525060065f8381526020019081526020015f205f820151815f015f6101000a81548173ffffffffffffffffffffffffffffffffffffffff021916908373ffffffffffffffffffffffffffffffffffffffff1602179055506020820151816001015560408201518160020190816107d29190611455565b506060820151816003015f6101000a81548160ff0219169083151502179055506080820151816004015590505060085f81548092919061081190611551565b9190505550807fc0ba8fe4b176c1714197d43b9cc6bcf797a4a7461c5fe8d0ef6e184ae7601e5160405160405180910390a261084c816108f0565b9392505050565b6004602052805f5260405f205f915054906101000a900460ff1681565b60035f9054906101000a900473ffffffffffffffffffffffffffffffffffffffff1681565b6007602052815f5260405f20602052805f5260405f205f915091509054906101000a900460ff1681565b60055481565b60085481565b60025f9054906101000a900473ffffffffffffffffffffffffffffffffffffffff1681565b60045f3373ffffffffffffffffffffffffffffffffffffffff1673ffffffffffffffffffffffffffffffffffffffff1681526020019081526020015f205f9054906101000a900460ff16610979576040517f08c379a0000000000000000000000000000000000000000000000000000000008152600401610970906110c2565b60405180910390fd5b8060085481106109be576040517f08c379a00000000000000000000000000000000000000000000000000000000081526004016109b59061112a565b60405180910390fd5b8160065f8281526020019081526020015f206003015f9054906101000a900460ff1615610a20576040517f08c379a0000000000000000000000000000000000000000000000000000000008152600401610a1790611192565b60405180910390fd5b60075f8481526020019081526020015f205f3373ffffffffffffffffffffffffffffffffffffffff1673ffffffffffffffffffffffffffffffffffffffff1681526020019081526020015f205f9054906101000a900460ff1615610ab9576040517f08c379a0000000000000000000000000000000000000000000000000000000008152600401610ab090611608565b60405180910390fd5b600160075f8581526020019081526020015f205f3373ffffffffffffffffffffffffffffffffffffffff1673ffffffffffffffffffffffffffffffffffffffff1681526020019081526020015f205f6101000a81548160ff02191690831515021790555060065f8481526020019081526020015f206004015f815480929190610b4190611551565b9190505550823373ffffffffffffffffffffffffffffffffffffffff167f4a504a94899432a9846e1aa406dceb1bcfd538bb839071d49d1e5e23f5be30ef60405160405180910390a3505050565b60025f5403610bca576040517f3ee5aeb500000000000000000000000000000000000000000000000000000000815260040160405180910390fd5b60025f81905550565b60015f81905550565b5f604051905090565b5f80fd5b5f80fd5b5f819050919050565b610bff81610bed565b8114610c09575f80fd5b50565b5f81359050610c1a81610bf6565b92915050565b5f60208284031215610c3557610c34610be5565b5b5f610c4284828501610c0c565b91505092915050565b5f73ffffffffffffffffffffffffffffffffffffffff82169050919050565b5f610c7482610c4b565b9050919050565b610c8481610c6a565b82525050565b610c9381610bed565b82525050565b5f81519050919050565b5f82825260208201905092915050565b5f5b83811015610cd0578082015181840152602081019050610cb5565b5f8484015250505050565b5f601f19601f8301169050919050565b5f610cf582610c99565b610cff8185610ca3565b9350610d0f818560208601610cb3565b610d1881610cdb565b840191505092915050565b5f8115159050919050565b610d3781610d23565b82525050565b5f60a082019050610d505f830188610c7b565b610d5d6020830187610c8a565b8181036040830152610d6f8186610ceb565b9050610d7e6060830185610d2e565b610d8b6080830184610c8a565b9695505050505050565b5f602082019050610da85f830184610c7b565b92915050565b610db781610c6a565b8114610dc1575f80fd5b50565b5f81359050610dd281610dae565b92915050565b5f80fd5b5f80fd5b7f4e487b71000000000000000000000000000000000000000000000000000000005f52604160045260245ffd5b610e1682610cdb565b810181811067ffffffffffffffff82111715610e3557610e34610de0565b5b80604052505050565b5f610e47610bdc565b9050610e538282610e0d565b919050565b5f67ffffffffffffffff821115610e7257610e71610de0565b5b610e7b82610cdb565b9050602081019050919050565b828183375f83830152505050565b5f610ea8610ea384610e58565b610e3e565b905082815260208101848484011115610ec457610ec3610ddc565b5b610ecf848285610e88565b509392505050565b5f82601f830112610eeb57610eea610dd8565b5b8135610efb848260208601610e96565b91505092915050565b5f805f60608486031215610f1b57610f1a610be5565b5b5f610f2886828701610dc4565b9350506020610f3986828701610c0c565b925050604084013567ffffffffffffffff811115610f5a57610f59610be9565b5b610f6686828701610ed7565b9150509250925092565b5f602082019050610f835f830184610c8a565b92915050565b5f60208284031215610f9e57610f9d610be5565b5b5f610fab84828501610dc4565b91505092915050565b5f602082019050610fc75f830184610d2e565b92915050565b5f8060408385031215610fe357610fe2610be5565b5b5f610ff085828601610c0c565b925050602061100185828601610dc4565b9150509250929050565b7f4e487b71000000000000000000000000000000000000000000000000000000005f52602260045260245ffd5b5f600282049050600182168061104f57607f821691505b6020821081036110625761106161100b565b5b50919050565b5f82825260208201905092915050565b7f4256533a206e6f7420616e206f776e65720000000000000000000000000000005f82015250565b5f6110ac601183611068565b91506110b782611078565b602082019050919050565b5f6020820190508181035f8301526110d9816110a0565b9050919050565b7f4256533a2070726f706f73616c20646f6573206e6f74206578697374000000005f82015250565b5f611114601c83611068565b915061111f826110e0565b602082019050919050565b5f6020820190508181035f83015261114181611108565b9050919050565b7f4256533a2070726f706f73616c20616c726561647920657865637574656400005f82015250565b5f61117c601e83611068565b915061118782611148565b602082019050919050565b5f6020820190508181035f8301526111a981611170565b9050919050565b7f4256533a206e6f7420656e6f75676820636f6e6669726d6174696f6e730000005f82015250565b5f6111e4601d83611068565b91506111ef826111b0565b602082019050919050565b5f6020820190508181035f830152611211816111d8565b9050919050565b5f81905092915050565b5f819050815f5260205f209050919050565b5f815461124081611038565b61124a8186611218565b9450600182165f81146112645760018114611279576112ab565b60ff19831686528115158202860193506112ab565b61128285611222565b5f5b838110156112a357815481890152600182019150602081019050611284565b838801955050505b50505092915050565b5f6112bf8284611234565b915081905092915050565b5f6020601f8301049050919050565b5f82821b905092915050565b5f600883026113147fffffffffffffffffffffffffffffffffffffffffffffffffffffffffffffffff826112d9565b61131e86836112d9565b95508019841693508086168417925050509392505050565b5f819050919050565b5f61135961135461134f84610bed565b611336565b610bed565b9050919050565b5f819050919050565b6113728361133f565b61138661137e82611360565b8484546112e5565b825550505050565b5f90565b61139a61138e565b6113a5818484611369565b505050565b5b818110156113c8576113bd5f82611392565b6001810190506113ab565b5050565b601f82111561140d576113de81611222565b6113e7846112ca565b810160208510156113f6578190505b61140a611402856112ca565b8301826113aa565b50505b505050565b5f82821c905092915050565b5f61142d5f1984600802611412565b1980831691505092915050565b5f611445838361141e565b9150826002028217905092915050565b61145e82610c99565b67ffffffffffffffff81111561147757611476610de0565b5b6114818254611038565b61148c8282856113cc565b5f60209050601f8311600181146114bd575f84156114ab578287015190505b6114b5858261143a565b86555061151c565b601f1984166114cb86611222565b5f5b828110156114f2578489015182556001820191506020850194506020810190506114cd565b8683101561150f578489015161150b601f89168261141e565b8355505b6001600288020188555050505b505050505050565b7f4e487b71000000000000000000000000000000000000000000000000000000005f52601160045260245ffd5b5f61155b82610bed565b91507fffffffffffffffffffffffffffffffffffffffffffffffffffffffffffffffff820361158d5761158c611524565b5b600182019050919050565b7f4256533a2070726f706f73616c20616c726561647920636f6e6669726d6564205f8201527f62792074686973206f776e657200000000000000000000000000000000000000602082015250565b5f6115f2602d83611068565b91506115fd82611598565b604082019050919050565b5f6020820190508181035f83015261161f816115e6565b905091905056fea2646970667358221220dfcc3e1e29298a0abf9da0629d82a35e69f22b63a5862e8fc94e4d34dd743d9264736f6c63430008180033","linkReferences":{}},"methodIdentifiers":{"confirmProposal(uint256)":"f4a4f4d2","confirmations(uint256,address)":"3411c81c","executeProposal(uint256)":"0d61b519","isOwner(address)":"2f54bf6e","owners(uint256)":"025e7c27","proposalCount()":"da35c664","proposals(uint256)":"013cf08b","registryAddress()":"ed9aab51","routerAddress()":"3268cc56","submitProposal(address,uint256,bytes)":"11d03015","threshold()":"42cde4e8"},"id":99}